{
  "address": "0x755e3a7A9970B5Cf7ba2F52F07B7448e25D0ce28",
  "abi": [
    {
      "inputs": [],
      "name": "BaksDAOOnlyDepositaryAllowed",
      "type": "error"
    },
    {
      "inputs": [],
      "name": "BaksDAOOnlySuperUserAllowed",
      "type": "error"
    },
    {
      "inputs": [
        {
          "internalType": "address",
          "name": "target",
          "type": "address"
        }
      ],
      "name": "CallToNonContract",
      "type": "error"
    },
    {
      "inputs": [],
      "name": "ContractAlreadyInitialized",
      "type": "error"
    },
    {
      "inputs": [
        {
          "internalType": "contract IERC20",
          "name": "token",
          "type": "address"
        }
      ],
      "name": "ExchangeFundDepositableTokenAlreadyListed",
      "type": "error"
    },
    {
      "inputs": [
        {
          "internalType": "contract IERC20",
          "name": "token",
          "type": "address"
        }
      ],
      "name": "ExchangeFundDepositableTokenNotListed",
      "type": "error"
    },
    {
      "inputs": [
        {
          "internalType": "contract IERC20",
          "name": "token",
          "type": "address"
        },
        {
          "internalType": "uint8",
          "name": "decimals",
          "type": "uint8"
        }
      ],
      "name": "ExchangeFundDepositableTokenTooLargeDecimals",
      "type": "error"
    },
    {
      "inputs": [
        {
          "internalType": "contract IERC20",
          "name": "token",
          "type": "address"
        }
      ],
      "name": "ExchangeFundDepositableTokenZeroDecimals",
      "type": "error"
    },
    {
      "inputs": [],
      "name": "ExchangeFundInsufficientDeposits",
      "type": "error"
    },
    {
      "inputs": [],
      "name": "ExchangeFundInsufficientLiquidity",
      "type": "error"
    },
    {
      "inputs": [
        {
          "internalType": "contract IERC20",
          "name": "token",
          "type": "address"
        }
      ],
      "name": "ExchangeFundNoNeedToService",
      "type": "error"
    },
    {
      "inputs": [
        {
          "internalType": "contract IERC20",
          "name": "token",
          "type": "address"
        }
      ],
      "name": "ExchangeFundSameTokenSwap",
      "type": "error"
    },
    {
      "inputs": [
        {
          "internalType": "contract IERC20",
          "name": "token",
          "type": "address"
        }
      ],
      "name": "ExchangeFundTokenNotAllowedToBeDeposited",
      "type": "error"
    },
    {
      "inputs": [
        {
          "internalType": "contract IERC20",
          "name": "token",
          "type": "address"
        }
      ],
      "name": "ExchangeFundTokenNotAllowedToBeSalvaged",
      "type": "error"
    },
    {
      "inputs": [
        {
          "internalType": "contract IERC20",
          "name": "token",
          "type": "address"
        }
      ],
      "name": "ExchangeFundTokenNotAllowedToBeSwapped",
      "type": "error"
    },
    {
      "inputs": [
        {
          "internalType": "contract IERC20",
          "name": "token",
          "type": "address"
        }
      ],
      "name": "ExchangeFundTokenNotAllowedToBeWithdrawn",
      "type": "error"
    },
    {
      "inputs": [
        {
          "internalType": "uint256",
          "name": "prod1",
          "type": "uint256"
        },
        {
          "internalType": "uint256",
          "name": "denominator",
          "type": "uint256"
        }
      ],
      "name": "FixedPointMathMulDivOverflow",
      "type": "error"
    },
    {
      "inputs": [],
      "name": "GovernedCantGoverItself",
      "type": "error"
    },
    {
      "inputs": [],
      "name": "GovernedGovernorZeroAddress",
      "type": "error"
    },
    {
      "inputs": [],
      "name": "GovernedOnlyGovernorAllowedToCall",
      "type": "error"
    },
    {
      "inputs": [],
      "name": "GovernedOnlyPendingGovernorAllowedToCall",
      "type": "error"
    },
    {
      "inputs": [],
      "name": "SafeERC20NoReturnData",
      "type": "error"
    },
    {
      "anonymous": false,
      "inputs": [
        {
          "indexed": true,
          "internalType": "address",
          "name": "account",
          "type": "address"
        },
        {
          "indexed": true,
          "internalType": "contract IERC20",
          "name": "token",
          "type": "address"
        },
        {
          "indexed": false,
          "internalType": "uint256",
          "name": "amount",
          "type": "uint256"
        }
      ],
      "name": "Deposit",
      "type": "event"
    },
    {
      "anonymous": false,
      "inputs": [
        {
          "indexed": true,
          "internalType": "contract IERC20",
          "name": "token",
          "type": "address"
        },
        {
          "indexed": false,
          "internalType": "contract IUniswapV2Pair",
          "name": "pair",
          "type": "address"
        }
      ],
      "name": "DepositableTokenListed",
      "type": "event"
    },
    {
      "anonymous": false,
      "inputs": [
        {
          "indexed": true,
          "internalType": "contract IERC20",
          "name": "token",
          "type": "address"
        }
      ],
      "name": "DepositableTokenUnlisted",
      "type": "event"
    },
    {
      "anonymous": false,
      "inputs": [
        {
          "indexed": true,
          "internalType": "address",
          "name": "account",
          "type": "address"
        },
        {
          "indexed": true,
          "internalType": "contract IERC20",
          "name": "token",
          "type": "address"
        },
        {
          "indexed": false,
          "internalType": "uint256",
          "name": "amount",
          "type": "uint256"
        }
      ],
      "name": "Divest",
      "type": "event"
    },
    {
      "anonymous": false,
      "inputs": [
        {
          "indexed": true,
          "internalType": "address",
          "name": "governor",
          "type": "address"
        },
        {
          "indexed": true,
          "internalType": "address",
          "name": "newGovernor",
          "type": "address"
        }
      ],
      "name": "GovernanceTransited",
      "type": "event"
    },
    {
      "anonymous": false,
      "inputs": [
        {
          "indexed": true,
          "internalType": "address",
          "name": "account",
          "type": "address"
        },
        {
          "indexed": true,
          "internalType": "contract IERC20",
          "name": "token",
          "type": "address"
        },
        {
          "indexed": false,
          "internalType": "uint256",
          "name": "amount",
          "type": "uint256"
        }
      ],
      "name": "Invest",
      "type": "event"
    },
    {
      "anonymous": false,
      "inputs": [
        {
          "indexed": true,
          "internalType": "address",
          "name": "governor",
          "type": "address"
        },
        {
          "indexed": true,
          "internalType": "address",
          "name": "newGovernor",
          "type": "address"
        }
      ],
      "name": "PendingGovernanceTransition",
      "type": "event"
    },
    {
      "anonymous": false,
      "inputs": [
        {
          "indexed": true,
          "internalType": "address",
          "name": "account",
          "type": "address"
        },
        {
          "indexed": true,
          "internalType": "contract IERC20",
          "name": "token",
          "type": "address"
        }
      ],
      "name": "Service",
      "type": "event"
    },
    {
      "anonymous": false,
      "inputs": [
        {
          "indexed": false,
          "internalType": "uint256",
          "name": "slippageTolerance",
          "type": "uint256"
        },
        {
          "indexed": false,
          "internalType": "uint256",
          "name": "newSlippageTolerance",
          "type": "uint256"
        }
      ],
      "name": "SlippageToleranceUpdated",
      "type": "event"
    },
    {
      "anonymous": false,
      "inputs": [
        {
          "indexed": true,
          "internalType": "address",
          "name": "account",
          "type": "address"
        },
        {
          "indexed": true,
          "internalType": "contract IERC20",
          "name": "tokenA",
          "type": "address"
        },
        {
          "indexed": true,
          "internalType": "contract IERC20",
          "name": "tokenB",
          "type": "address"
        },
        {
          "indexed": false,
          "internalType": "uint256",
          "name": "amountA",
          "type": "uint256"
        },
        {
          "indexed": false,
          "internalType": "uint256",
          "name": "amountB",
          "type": "uint256"
        }
      ],
      "name": "Swap",
      "type": "event"
    },
    {
      "anonymous": false,
      "inputs": [
        {
          "indexed": false,
          "internalType": "uint256",
          "name": "swapDeadline",
          "type": "uint256"
        },
        {
          "indexed": false,
          "internalType": "uint256",
          "name": "newSwapDeadline",
          "type": "uint256"
        }
      ],
      "name": "SwapDeadlineUpdated",
      "type": "event"
    },
    {
      "anonymous": false,
      "inputs": [
        {
          "indexed": true,
          "internalType": "address",
          "name": "account",
          "type": "address"
        },
        {
          "indexed": true,
          "internalType": "contract IERC20",
          "name": "token",
          "type": "address"
        },
        {
          "indexed": false,
          "internalType": "uint256",
          "name": "amount",
          "type": "uint256"
        }
      ],
      "name": "Withdrawal",
      "type": "event"
    },
    {
      "inputs": [],
      "name": "acceptGovernance",
      "outputs": [],
      "stateMutability": "nonpayable",
      "type": "function"
    },
    {
      "inputs": [],
      "name": "core",
      "outputs": [
        {
          "internalType": "contract ICore",
          "name": "",
          "type": "address"
        }
      ],
      "stateMutability": "view",
      "type": "function"
    },
    {
      "inputs": [
        {
          "internalType": "contract IERC20",
          "name": "token",
          "type": "address"
        },
        {
          "internalType": "uint256",
          "name": "amount",
          "type": "uint256"
        }
      ],
      "name": "deposit",
      "outputs": [],
      "stateMutability": "nonpayable",
      "type": "function"
    },
    {
      "inputs": [
        {
          "internalType": "contract IERC20",
          "name": "",
          "type": "address"
        }
      ],
      "name": "depositableTokens",
      "outputs": [
        {
          "internalType": "bool",
          "name": "",
          "type": "bool"
        }
      ],
      "stateMutability": "view",
      "type": "function"
    },
    {
      "inputs": [
        {
          "internalType": "address",
          "name": "",
          "type": "address"
        },
        {
          "internalType": "contract IERC20",
          "name": "",
          "type": "address"
        }
      ],
      "name": "deposits",
      "outputs": [
        {
          "internalType": "uint256",
          "name": "",
          "type": "uint256"
        }
      ],
      "stateMutability": "view",
      "type": "function"
    },
    {
      "inputs": [
        {
          "internalType": "contract IERC20",
          "name": "token",
          "type": "address"
        },
        {
          "internalType": "uint256",
          "name": "amount",
          "type": "uint256"
        }
      ],
      "name": "divest",
      "outputs": [],
      "stateMutability": "nonpayable",
      "type": "function"
    },
    {
      "inputs": [],
      "name": "getDepositableTokens",
      "outputs": [
        {
          "internalType": "contract IERC20[]",
          "name": "tokens",
          "type": "address[]"
        }
      ],
      "stateMutability": "view",
      "type": "function"
    },
    {
      "inputs": [],
      "name": "governor",
      "outputs": [
        {
          "internalType": "address",
          "name": "",
          "type": "address"
        }
      ],
      "stateMutability": "view",
      "type": "function"
    },
    {
      "inputs": [
        {
          "internalType": "contract ICore",
          "name": "_core",
          "type": "address"
        }
      ],
      "name": "initialize",
      "outputs": [],
      "stateMutability": "nonpayable",
      "type": "function"
    },
    {
      "inputs": [
        {
          "internalType": "contract IERC20",
          "name": "token",
          "type": "address"
        },
        {
          "internalType": "uint256",
          "name": "amount",
          "type": "uint256"
        }
      ],
      "name": "invest",
      "outputs": [],
      "stateMutability": "nonpayable",
      "type": "function"
    },
    {
      "inputs": [
        {
          "internalType": "address",
          "name": "",
          "type": "address"
        },
        {
          "internalType": "contract IERC20",
          "name": "",
          "type": "address"
        }
      ],
      "name": "liquidity",
      "outputs": [
        {
          "internalType": "uint256",
          "name": "",
          "type": "uint256"
        }
      ],
      "stateMutability": "view",
      "type": "function"
    },
    {
      "inputs": [
        {
          "internalType": "contract IERC20",
          "name": "token",
          "type": "address"
        }
      ],
      "name": "listDepositableToken",
      "outputs": [],
      "stateMutability": "nonpayable",
      "type": "function"
    },
    {
      "inputs": [],
      "name": "pendingGovernor",
      "outputs": [
        {
          "internalType": "address",
          "name": "",
          "type": "address"
        }
      ],
      "stateMutability": "view",
      "type": "function"
    },
    {
      "inputs": [
        {
          "internalType": "contract IERC20",
          "name": "token",
          "type": "address"
        },
        {
          "internalType": "uint256",
          "name": "amount",
          "type": "uint256"
        }
      ],
      "name": "quote",
      "outputs": [
        {
          "internalType": "uint256",
          "name": "baksAmount",
          "type": "uint256"
        }
      ],
      "stateMutability": "view",
      "type": "function"
    },
    {
      "inputs": [
        {
          "internalType": "contract IERC20",
          "name": "token",
          "type": "address"
        }
      ],
      "name": "salvage",
      "outputs": [],
      "stateMutability": "nonpayable",
      "type": "function"
    },
    {
      "inputs": [
        {
          "internalType": "contract IERC20",
          "name": "token",
          "type": "address"
        }
      ],
      "name": "service",
      "outputs": [],
      "stateMutability": "nonpayable",
      "type": "function"
    },
    {
      "inputs": [
        {
          "internalType": "uint256",
          "name": "newSlippageTolerance",
          "type": "uint256"
        }
      ],
      "name": "setSlippageTolerance",
      "outputs": [],
      "stateMutability": "nonpayable",
      "type": "function"
    },
    {
      "inputs": [
        {
          "internalType": "uint256",
          "name": "newSwapDeadline",
          "type": "uint256"
        }
      ],
      "name": "setSwapDeadline",
      "outputs": [],
      "stateMutability": "nonpayable",
      "type": "function"
    },
    {
      "inputs": [],
      "name": "slippageTolerance",
      "outputs": [
        {
          "internalType": "uint256",
          "name": "",
          "type": "uint256"
        }
      ],
      "stateMutability": "view",
      "type": "function"
    },
    {
      "inputs": [
        {
          "internalType": "contract IERC20",
          "name": "tokenA",
          "type": "address"
        },
        {
          "internalType": "contract IERC20",
          "name": "tokenB",
          "type": "address"
        },
        {
          "internalType": "uint256",
          "name": "amount",
          "type": "uint256"
        },
        {
          "internalType": "bool",
          "name": "useWrappedNativeCurrencyAsIntermediateToken",
          "type": "bool"
        }
      ],
      "name": "swap",
      "outputs": [],
      "stateMutability": "nonpayable",
      "type": "function"
    },
    {
      "inputs": [],
      "name": "swapDeadline",
      "outputs": [
        {
          "internalType": "uint256",
          "name": "",
          "type": "uint256"
        }
      ],
      "stateMutability": "view",
      "type": "function"
    },
    {
      "inputs": [
        {
          "internalType": "uint256",
          "name": "amount",
          "type": "uint256"
        }
      ],
      "name": "transferBaksToBank",
      "outputs": [],
      "stateMutability": "nonpayable",
      "type": "function"
    },
    {
      "inputs": [
        {
          "internalType": "address",
          "name": "newGovernor",
          "type": "address"
        },
        {
          "internalType": "bool",
          "name": "force",
          "type": "bool"
        }
      ],
      "name": "transitGovernance",
      "outputs": [],
      "stateMutability": "nonpayable",
      "type": "function"
    },
    {
      "inputs": [
        {
          "internalType": "contract IERC20",
          "name": "token",
          "type": "address"
        }
      ],
      "name": "unlistDepositableToken",
      "outputs": [],
      "stateMutability": "nonpayable",
      "type": "function"
    },
    {
      "inputs": [
        {
          "internalType": "contract IERC20",
          "name": "token",
          "type": "address"
        },
        {
          "internalType": "uint256",
          "name": "amount",
          "type": "uint256"
        }
      ],
      "name": "withdraw",
      "outputs": [],
      "stateMutability": "nonpayable",
      "type": "function"
    }
  ],
  "transactionHash": "0x530d09c0dcc9fb50041b82e3eea6171159d56e9bad474a54b19a94059d10b063",
  "args": [],
  "solcInputHash": "5199b5e808264c52073626126ec6873d",
  "bytecode": "0x608060405234801561001057600080fd5b5061498a806100206000396000f3fe608060405234801561001057600080fd5b50600436106101a35760003560e01c80638f79306e116100ee578063c14edd7911610097578063ddc1252611610071578063ddc1252614610397578063e3056a34146103aa578063f2f4eb26146103bd578063f3fef3a3146103d057600080fd5b8063c14edd7914610348578063c4d66de81461037b578063d03153aa1461038e57600080fd5b8063b2217281116100c8578063b2217281146102f7578063b9b8c24614610322578063bb5043171461033557600080fd5b80638f79306e146102c857806393ad9f17146102db578063942dbff4146102ee57600080fd5b80635e6fdf431161015057806385881e2a1161012a57806385881e2a14610269578063863a03e01461027c5780638f601f661461028f57600080fd5b80635e6fdf431461022e5780637e83f7d71461024357806383ad86b21461025657600080fd5b806347e7ef241161018157806347e7ef24146101f557806348be7719146102085780634bd847011461021b57600080fd5b80630c340a24146101a8578063117da1ee146101d8578063238efcbc146101ed575b600080fd5b6001546101bb906001600160a01b031681565b6040516001600160a01b0390911681526020015b60405180910390f35b6101eb6101e6366004614296565b6103e3565b005b6101eb61044f565b6101eb6102033660046142c4565b6104c8565b6101eb6102163660046142f0565b610646565b6101eb6102293660046142f0565b6109e1565b610236610f53565b6040516101cf9190614351565b6101eb610251366004614372565b61101c565b6101eb610264366004614296565b6117d3565b6101eb6102773660046142f0565b611948565b6101eb61028a3660046142f0565b611e46565b6102ba61029d3660046143c5565b600560209081526000928352604080842090915290825290205481565b6040519081526020016101cf565b6102ba6102d63660046142c4565b612025565b6101eb6102e9366004614296565b612499565b6102ba60045481565b6102ba6103053660046143c5565b600660209081526000928352604080842090915290825290205481565b6101eb6103303660046142c4565b612505565b6101eb6103433660046142c4565b6128ba565b61036b6103563660046142f0565b60076020526000908152604090205460ff1681565b60405190151581526020016101cf565b6101eb6103893660046142f0565b612bf9565b6102ba60035481565b6101eb6103a53660046143fe565b6131d2565b6002546101bb906001600160a01b031681565b6000546101bb906001600160a01b031681565b6101eb6103de3660046142c4565b6132b5565b6001546001600160a01b0316331461040e576040516305e7700560e51b815260040160405180910390fd5b60035460408051918252602082018390527fddd31550b26e9ef8ade466958be83ff8a014d9b4f36d546b61a6847a45306575910160405180910390a1600355565b6002546001600160a01b0316331461047a5760405163aec80d4b60e01b815260040160405180910390fd5b600254600180546001600160a01b0319166001600160a01b03909216918217905560405181907f564590b81987d147246f63910a8e1ee4eb09c4d64cc75ee975a8ffedfcc2210e90600090a3565b6001600160a01b03821660009081526009602052604090205482906105105760405163497e1e0360e01b81526001600160a01b03821660048201526024015b60405180910390fd5b60005460405163cd784d1b60e01b81523360048201526001600160a01b039091169063cd784d1b90602401602060405180830381865afa158015610558573d6000803e3d6000fd5b505050506040513d601f19601f8201168201806040525081019061057c919061442c565b610599576040516337b31c9d60e21b815260040160405180910390fd5b6105ae6001600160a01b0384163330856134d6565b60006105c36001600160a01b0385168461355c565b3360009081526005602090815260408083206001600160a01b03891684529091528120805492935083929091906105fb90849061445f565b90915550506040518181526001600160a01b0385169033907f5548c837ab068cf56a2c2479df0882a4922fd203edb7517321831d95078c5f629060200160405180910390a350505050565b6001546001600160a01b03163314610671576040516305e7700560e51b815260040160405180910390fd5b6001600160a01b0381166000908152600960205260409020546106b25760405163635c3e1f60e11b81526001600160a01b0382166004820152602401610507565b6106bd6008826135fb565b156109de5760008060009054906101000a90046001600160a01b03166001600160a01b0316631694505e6040518163ffffffff1660e01b8152600401602060405180830381865afa158015610716573d6000803e3d6000fd5b505050506040513d601f19601f8201168201806040525081019061073a9190614477565b60405163095ea7b360e01b81526001600160a01b038083166004830152600060248301529192509083169063095ea7b3906044016020604051808303816000875af115801561078d573d6000803e3d6000fd5b505050506040513d601f19601f820116820180604052508101906107b1919061442c565b506000816001600160a01b031663c45a01556040518163ffffffff1660e01b8152600401602060405180830381865afa1580156107f2573d6000803e3d6000fd5b505050506040513d601f19601f820116820180604052508101906108169190614477565b90506000816001600160a01b031663e6a4390560008054906101000a90046001600160a01b03166001600160a01b0316634c4e61e96040518163ffffffff1660e01b8152600401602060405180830381865afa15801561087a573d6000803e3d6000fd5b505050506040513d601f19601f8201168201806040525081019061089e9190614477565b6040516001600160e01b031960e084901b1681526001600160a01b0391821660048201529087166024820152604401602060405180830381865afa1580156108ea573d6000803e3d6000fd5b505050506040513d601f19601f8201168201806040525081019061090e9190614477565b90506001600160a01b038116156109945760405163095ea7b360e01b81526001600160a01b0384811660048301526000602483015282169063095ea7b3906044016020604051808303816000875af115801561096e573d6000803e3d6000fd5b505050506040513d601f19601f82011682018060405250810190610992919061442c565b505b6001600160a01b038416600081815260076020526040808220805460ff19169055517fbd6c0ac05a911841e71daa23bb8022779f3957fad4fa3546eb22a1782c747c839190a25050505b50565b6000806109ed83613734565b9092509050610a056001600160a01b0384168261355c565b905060008060008054906101000a90046001600160a01b03166001600160a01b0316632630c12f6040518163ffffffff1660e01b8152600401602060405180830381865afa158015610a5b573d6000803e3d6000fd5b505050506040513d601f19601f82011682018060405250810190610a7f9190614477565b604051630787c49960e21b81526001600160a01b0387811660048301529190911690631e1f126490602401602060405180830381865afa158015610ac7573d6000803e3d6000fd5b505050506040513d601f19601f82011682018060405250810190610aeb9190614494565b90506000610af985856139bf565b90506000670de0b6b3a7640000610b1083856139bf565b610b1a91906144ad565b905060008054906101000a90046001600160a01b03166001600160a01b031663453844b66040518163ffffffff1660e01b8152600401602060405180830381865afa158015610b6d573d6000803e3d6000fd5b505050506040513d601f19601f82011682018060405250810190610b919190614494565b610b9a826139db565b10610edc576040805160028082526060820183526000928392919060208301908036833701905050905084841115610cd65787610be9610be487610bde848c6139f7565b906139f7565b613ac7565b610bf391906144ad565b91508881600081518110610c0957610c0961451b565b60200260200101906001600160a01b031690816001600160a01b03168152505060008054906101000a90046001600160a01b03166001600160a01b0316634c4e61e96040518163ffffffff1660e01b8152600401602060405180830381865afa158015610c7a573d6000803e3d6000fd5b505050506040513d601f19601f82011682018060405250810190610c9e9190614477565b81600181518110610cb157610cb161451b565b60200260200101906001600160a01b031690816001600160a01b031681525050610dce565b86610ce5610be48a8389613af2565b610cef91906144ad565b915060008054906101000a90046001600160a01b03166001600160a01b0316634c4e61e96040518163ffffffff1660e01b8152600401602060405180830381865afa158015610d42573d6000803e3d6000fd5b505050506040513d601f19601f82011682018060405250810190610d669190614477565b81600081518110610d7957610d7961451b565b60200260200101906001600160a01b031690816001600160a01b0316815250508881600181518110610dad57610dad61451b565b60200260200101906001600160a01b031690816001600160a01b0316815250505b60008054906101000a90046001600160a01b03166001600160a01b0316631694505e6040518163ffffffff1660e01b8152600401602060405180830381865afa158015610e1f573d6000803e3d6000fd5b505050506040513d601f19601f82011682018060405250810190610e439190614477565b6001600160a01b0316638803dbee610e5a846139db565b600019843060045442610e6d919061445f565b6040518663ffffffff1660e01b8152600401610e8d959493929190614531565b6000604051808303816000875af1158015610eac573d6000803e3d6000fd5b505050506040513d6000823e601f3d908101601f19168201604052610ed4919081019061456d565b506001955050505b8380610eec5750610eec87613bad565b610f14576040516358cbbf3f60e11b81526001600160a01b0388166004820152602401610507565b6040516001600160a01b0388169033907f6d9de21666ebb28b54314f1615b914f9807eaa05e80a86c76d97ec1c376d7e0390600090a350505050505050565b6008546060908067ffffffffffffffff811115610f7257610f72614505565b604051908082528060200260200182016040528015610f9b578160200160208202803683370190505b50915060005b81811015611017576008805482908110610fbd57610fbd61451b565b9060005260206000200160009054906101000a90046001600160a01b0316838281518110610fed57610fed61451b565b6001600160a01b03909216602092830291909101909101528061100f8161462b565b915050610fa1565b505090565b60005460408051634c4e61e960e01b8152905186926001600160a01b031691634c4e61e99160048083019260209291908290030181865afa158015611065573d6000803e3d6000fd5b505050506040513d601f19601f820116820180604052508101906110899190614477565b6001600160a01b0316816001600160a01b0316141580156110c057506001600160a01b038116600090815260096020526040902054155b156110e95760405163569695af60e01b81526001600160a01b0382166004820152602401610507565b60005460408051634c4e61e960e01b8152905186926001600160a01b031691634c4e61e99160048083019260209291908290030181865afa158015611132573d6000803e3d6000fd5b505050506040513d601f19601f820116820180604052508101906111569190614477565b6001600160a01b0316816001600160a01b03161415801561118d57506001600160a01b038116600090815260096020526040902054155b156111b65760405163569695af60e01b81526001600160a01b0382166004820152602401610507565b60005460405163cd784d1b60e01b81523360048201526001600160a01b039091169063cd784d1b90602401602060405180830381865afa1580156111fe573d6000803e3d6000fd5b505050506040513d601f19601f82011682018060405250810190611222919061442c565b61123f576040516337b31c9d60e21b815260040160405180910390fd5b60006112546001600160a01b0388168661355c565b3360009081526005602090815260408083206001600160a01b038c16845290915290205490915081111561129b5760405163c0993c3760e01b815260040160405180910390fd5b856001600160a01b0316876001600160a01b031614156112d957604051630e9f73ab60e21b81526001600160a01b0388166004820152602401610507565b6000846112e75760026112ea565b60035b60ff1667ffffffffffffffff81111561130557611305614505565b60405190808252806020026020018201604052801561132e578160200160208202803683370190505b50905087816000815181106113455761134561451b565b60200260200101906001600160a01b031690816001600160a01b0316815250508461137057866113e5565b60008054906101000a90046001600160a01b03166001600160a01b031663e7f3028c6040518163ffffffff1660e01b8152600401602060405180830381865afa1580156113c1573d6000803e3d6000fd5b505050506040513d601f19601f820116820180604052508101906113e59190614477565b816001815181106113f8576113f861451b565b60200260200101906001600160a01b031690816001600160a01b03168152505084156114535786816002815181106114325761143261451b565b60200260200101906001600160a01b031690816001600160a01b0316815250505b60008060009054906101000a90046001600160a01b03166001600160a01b0316631694505e6040518163ffffffff1660e01b8152600401602060405180830381865afa1580156114a7573d6000803e3d6000fd5b505050506040513d601f19601f820116820180604052508101906114cb9190614477565b90506000816001600160a01b031663d06ca61f89856040518363ffffffff1660e01b81526004016114fd929190614646565b600060405180830381865afa15801561151a573d6000803e3d6000fd5b505050506040513d6000823e601f3d908101601f19168201604052611542919081019061456d565b9050600061158882600184516115589190614667565b815181106115685761156861451b565b60200260200101518b6001600160a01b031661355c90919063ffffffff16565b9050826001600160a01b03166338ed17398a6115cd6115bd600354670de0b6b3a76400006115b69190614667565b86906139f7565b6001600160a01b038f1690613ea0565b8730600454426115dd919061445f565b6040518663ffffffff1660e01b81526004016115fd959493929190614531565b6000604051808303816000875af115801561161c573d6000803e3d6000fd5b505050506040513d6000823e601f3d908101601f19168201604052611644919081019061456d565b9150600061167e8360008151811061165e5761165e61451b565b60200260200101518d6001600160a01b031661355c90919063ffffffff16565b905060006116a484600186516116949190614667565b8151811061165e5761165e61451b565b90508160056000336001600160a01b03166001600160a01b0316815260200190815260200160002060008f6001600160a01b03166001600160a01b0316815260200190815260200160002060008282546116fe9190614667565b925050819055508060056000336001600160a01b03166001600160a01b0316815260200190815260200160002060008e6001600160a01b03166001600160a01b03168152602001908152602001600020600082825461175d919061445f565b925050819055508b6001600160a01b03168d6001600160a01b0316336001600160a01b03167fcd3829a3813dc3cdd188fd3d01dcf3268c16be2fdd2dd21d0665418816e4606285856040516117bc929190918252602082015260400190565b60405180910390a450505050505050505050505050565b60005460405163cd784d1b60e01b81523360048201526001600160a01b039091169063cd784d1b90602401602060405180830381865afa15801561181b573d6000803e3d6000fd5b505050506040513d601f19601f8201168201806040525081019061183f919061442c565b61185c576040516337b31c9d60e21b815260040160405180910390fd5b600054604080516376cdb03b60e01b815290516109de926001600160a01b0316916376cdb03b9160048083019260209291908290030181865afa1580156118a7573d6000803e3d6000fd5b505050506040513d601f19601f820116820180604052508101906118cb9190614477565b60005460408051634c4e61e960e01b8152905185926001600160a01b031691634c4e61e99160048083019260209291908290030181865afa158015611914573d6000803e3d6000fd5b505050506040513d601f19601f820116820180604052508101906119389190614477565b6001600160a01b03169190613f2f565b6001546001600160a01b03163314611973576040516305e7700560e51b815260040160405180910390fd5b6001600160a01b038116600090815260096020526040902054156119b5576040516382cce5f360e01b81526001600160a01b0382166004820152602401610507565b6000816001600160a01b031663313ce5676040518163ffffffff1660e01b8152600401602060405180830381865afa1580156119f5573d6000803e3d6000fd5b505050506040513d601f19601f82011682018060405250810190611a19919061467e565b905060ff8116611a47576040516316d13e4960e21b81526001600160a01b0383166004820152602401610507565b601260ff82161115611a80576040516321b3807960e11b81526001600160a01b038316600482015260ff82166024820152604401610507565b611a8b600883613f64565b15611e425760008060009054906101000a90046001600160a01b03166001600160a01b0316634c4e61e96040518163ffffffff1660e01b8152600401602060405180830381865afa158015611ae4573d6000803e3d6000fd5b505050506040513d601f19601f82011682018060405250810190611b089190614477565b905060008060009054906101000a90046001600160a01b03166001600160a01b0316631694505e6040518163ffffffff1660e01b8152600401602060405180830381865afa158015611b5e573d6000803e3d6000fd5b505050506040513d601f19601f82011682018060405250810190611b829190614477565b60405163095ea7b360e01b81526001600160a01b03808316600483015260001960248301529192509085169063095ea7b3906044016020604051808303816000875af1158015611bd6573d6000803e3d6000fd5b505050506040513d601f19601f82011682018060405250810190611bfa919061442c565b506000816001600160a01b031663c45a01556040518163ffffffff1660e01b8152600401602060405180830381865afa158015611c3b573d6000803e3d6000fd5b505050506040513d601f19601f82011682018060405250810190611c5f9190614477565b60405163e6a4390560e01b81526001600160a01b038581166004830152878116602483015291925060009183169063e6a4390590604401602060405180830381865afa158015611cb3573d6000803e3d6000fd5b505050506040513d601f19601f82011682018060405250810190611cd79190614477565b90506001600160a01b038116611d5e576040516364e329cb60e11b81526001600160a01b038581166004830152878116602483015283169063c9c65396906044016020604051808303816000875af1158015611d37573d6000803e3d6000fd5b505050506040513d601f19601f82011682018060405250810190611d5b9190614477565b90505b60405163095ea7b360e01b81526001600160a01b038481166004830152600019602483015282169063095ea7b3906044016020604051808303816000875af1158015611dae573d6000803e3d6000fd5b505050506040513d601f19601f82011682018060405250810190611dd2919061442c565b506001600160a01b03861660008181526007602052604090819020805460ff19166001179055517f55011b433ad455f23aa134ee4f1fcd2190a063cb514134436b32358ead356ada90611e359084906001600160a01b0391909116815260200190565b60405180910390a2505050505b5050565b6001546001600160a01b03163314611e71576040516305e7700560e51b815260040160405180910390fd5b60005460408051634c4e61e960e01b8152905183926001600160a01b031691634c4e61e99160048083019260209291908290030181865afa158015611eba573d6000803e3d6000fd5b505050506040513d601f19601f82011682018060405250810190611ede9190614477565b6001600160a01b0316826001600160a01b03161480611f1457506001600160a01b03811660009081526009602052604090205415155b15611f3d57604051631af19dff60e01b81526001600160a01b0383166004820152602401610507565b6000546040805163570ca73560e01b81529051611e42926001600160a01b03169163570ca7359160048083019260209291908290030181865afa158015611f88573d6000803e3d6000fd5b505050506040513d601f19601f82011682018060405250810190611fac9190614477565b6040516370a0823160e01b81523060048201526001600160a01b038516906370a0823190602401602060405180830381865afa158015611ff0573d6000803e3d6000fd5b505050506040513d601f19601f820116820180604052508101906120149190614494565b6001600160a01b0385169190613f2f565b6000805460408051634c4e61e960e01b8152905183926001600160a01b031691634c4e61e99160048083019260209291908290030181865afa15801561206f573d6000803e3d6000fd5b505050506040513d601f19601f820116820180604052508101906120939190614477565b905060008060009054906101000a90046001600160a01b03166001600160a01b0316631694505e6040518163ffffffff1660e01b8152600401602060405180830381865afa1580156120e9573d6000803e3d6000fd5b505050506040513d601f19601f8201168201806040525081019061210d9190614477565b90506000816001600160a01b031663c45a01556040518163ffffffff1660e01b8152600401602060405180830381865afa15801561214f573d6000803e3d6000fd5b505050506040513d601f19601f820116820180604052508101906121739190614477565b60405163e6a4390560e01b81526001600160a01b0385811660048301528881166024830152919091169063e6a4390590604401602060405180830381865afa1580156121c3573d6000803e3d6000fd5b505050506040513d601f19601f820116820180604052508101906121e79190614477565b9050600080826001600160a01b0316630902f1ac6040518163ffffffff1660e01b8152600401606060405180830381865afa15801561222a573d6000803e3d6000fd5b505050506040513d601f19601f8201168201806040525081019061224e91906146bf565b506dffffffffffffffffffffffffffff1691506dffffffffffffffffffffffffffff1691508160001480612280575080155b1561237f5760005460408051632630c12f60e01b81529051612373926001600160a01b031691632630c12f9160048083019260209291908290030181865afa1580156122d0573d6000803e3d6000fd5b505050506040513d601f19601f820116820180604052508101906122f49190614477565b604051630787c49960e21b81526001600160a01b038b811660048301529190911690631e1f126490602401602060405180830381865afa15801561233c573d6000803e3d6000fd5b505050506040513d601f19601f820116820180604052508101906123609190614494565b610bde6001600160a01b038b168a61355c565b95505050505050612493565b876001600160a01b0316856001600160a01b03161061241457604051632b58577b60e21b81526004810188905260248101839052604481018290526001600160a01b0385169063ad615dec90606401602060405180830381865afa1580156123eb573d6000803e3d6000fd5b505050506040513d601f19601f8201168201806040525081019061240f9190614494565b61248b565b604051632b58577b60e21b81526004810188905260248101829052604481018390526001600160a01b0385169063ad615dec90606401602060405180830381865afa158015612467573d6000803e3d6000fd5b505050506040513d601f19601f8201168201806040525081019061248b9190614494565b955050505050505b92915050565b6001546001600160a01b031633146124c4576040516305e7700560e51b815260040160405180910390fd5b60045460408051918252602082018390527f801306575ef2eb7d5ec12da38bf892a7872d76caf0beb1cec0779abeb71ff3a9910160405180910390a1600455565b60005460405163cd784d1b60e01b81523360048201526001600160a01b039091169063cd784d1b90602401602060405180830381865afa15801561254d573d6000803e3d6000fd5b505050506040513d601f19601f82011682018060405250810190612571919061442c565b61258e576040516337b31c9d60e21b815260040160405180910390fd5b60006125a36001600160a01b0384168361355c565b3360009081526005602090815260408083206001600160a01b03881684529091529020549091508111156125ea5760405163c0993c3760e01b815260040160405180910390fd5b60006125f68484612025565b905060008060008054906101000a90046001600160a01b03166001600160a01b0316631694505e6040518163ffffffff1660e01b8152600401602060405180830381865afa15801561264c573d6000803e3d6000fd5b505050506040513d601f19601f820116820180604052508101906126709190614477565b6001600160a01b031663e8e3370060008054906101000a90046001600160a01b03166001600160a01b0316634c4e61e96040518163ffffffff1660e01b8152600401602060405180830381865afa1580156126cf573d6000803e3d6000fd5b505050506040513d601f19601f820116820180604052508101906126f39190614477565b888689612716600354670de0b6b3a764000061270f9190614667565b8a906139f7565b6127396115bd600354670de0b6b3a76400006127329190614667565b8d906139f7565b3060045442612748919061445f565b60405160e08a901b6001600160e01b03191681526001600160a01b039889166004820152968816602488015260448701959095526064860193909352608485019190915260a484015290921660c482015260e4810191909152610104016060604051808303816000875af11580156127c4573d6000803e3d6000fd5b505050506040513d601f19601f820116820180604052508101906127e8919061470f565b909350915061280290506001600160a01b0387168361355c565b3360009081526005602090815260408083206001600160a01b038b16845290915281208054909190612835908490614667565b90915550503360009081526006602090815260408083206001600160a01b038a1684529091528120805483929061286d90849061445f565b90915550506040518481526001600160a01b0387169033907f0657e0c8fff72ae811b8683a3411c30ebb5098754ec5e814687711e97cbd6db29060200160405180910390a3505050505050565b60005460405163cd784d1b60e01b81523360048201526001600160a01b039091169063cd784d1b90602401602060405180830381865afa158015612902573d6000803e3d6000fd5b505050506040513d601f19601f82011682018060405250810190612926919061442c565b612943576040516337b31c9d60e21b815260040160405180910390fd5b3360009081526006602090815260408083206001600160a01b03861684529091529020548111156129875760405163dc93df4560e01b815260040160405180910390fd5b60008060009054906101000a90046001600160a01b03166001600160a01b0316631694505e6040518163ffffffff1660e01b8152600401602060405180830381865afa1580156129db573d6000803e3d6000fd5b505050506040513d601f19601f820116820180604052508101906129ff9190614477565b6001600160a01b031663baa2abde60008054906101000a90046001600160a01b03166001600160a01b0316634c4e61e96040518163ffffffff1660e01b8152600401602060405180830381865afa158015612a5e573d6000803e3d6000fd5b505050506040513d601f19601f82011682018060405250810190612a829190614477565b85856000803060045442612a96919061445f565b60405160e089901b6001600160e01b03191681526001600160a01b039788166004820152958716602487015260448601949094526064850192909252608484015290921660a482015260c481019190915260e40160408051808303816000875af1158015612b08573d6000803e3d6000fd5b505050506040513d601f19601f82011682018060405250810190612b2c919061473d565b9150612b4390506001600160a01b0384168261355c565b3360009081526005602090815260408083206001600160a01b038816845290915281208054909190612b7690849061445f565b90915550503360009081526006602090815260408083206001600160a01b038716845290915281208054849290612bae908490614667565b90915550506040518281526001600160a01b0384169033907f8c6e1d3aa13e82e61da9350057ab35ded0bd548b8905b82dfa012876992b8ef5906020015b60405180910390a3505050565b600254600160a01b900460ff16158015612c2e57506002547501000000000000000000000000000000000000000000900460ff165b15612c4c57604051631ee1e30360e21b815260040160405180910390fd5b600254600160a01b900460ff16158015612ca157600280547fffffffffffffffffffff0000ffffffffffffffffffffffffffffffffffffffff1675010100000000000000000000000000000000000000001790555b600080546001600160a01b0319166001600160a01b038416179055612cc533613fd4565b6611c37937e080006003556104b060049081556000805460408051634c4e61e960e01b8152905192936001600160a01b0390921692634c4e61e9928281019260209291908290030181865afa158015612d22573d6000803e3d6000fd5b505050506040513d601f19601f82011682018060405250810190612d469190614477565b905060008060009054906101000a90046001600160a01b03166001600160a01b0316638b02d3176040518163ffffffff1660e01b8152600401602060405180830381865afa158015612d9c573d6000803e3d6000fd5b505050506040513d601f19601f82011682018060405250810190612dc09190614477565b9050816001600160a01b031663095ea7b360008054906101000a90046001600160a01b03166001600160a01b0316631694505e6040518163ffffffff1660e01b8152600401602060405180830381865afa158015612e22573d6000803e3d6000fd5b505050506040513d601f19601f82011682018060405250810190612e469190614477565b6040516001600160e01b031960e084901b1681526001600160a01b03909116600482015260001960248201526044016020604051808303816000875af1158015612e94573d6000803e3d6000fd5b505050506040513d601f19601f82011682018060405250810190612eb8919061442c565b50816001600160a01b031663095ea7b360008054906101000a90046001600160a01b03166001600160a01b0316630e0603786040518163ffffffff1660e01b8152600401602060405180830381865afa158015612f19573d6000803e3d6000fd5b505050506040513d601f19601f82011682018060405250810190612f3d9190614477565b6040516001600160e01b031960e084901b1681526001600160a01b03909116600482015260001960248201526044016020604051808303816000875af1158015612f8b573d6000803e3d6000fd5b505050506040513d601f19601f82011682018060405250810190612faf919061442c565b50806001600160a01b031663095ea7b360008054906101000a90046001600160a01b03166001600160a01b0316631694505e6040518163ffffffff1660e01b8152600401602060405180830381865afa158015613010573d6000803e3d6000fd5b505050506040513d601f19601f820116820180604052508101906130349190614477565b6040516001600160e01b031960e084901b1681526001600160a01b03909116600482015260001960248201526044016020604051808303816000875af1158015613082573d6000803e3d6000fd5b505050506040513d601f19601f820116820180604052508101906130a6919061442c565b50806001600160a01b031663095ea7b360008054906101000a90046001600160a01b03166001600160a01b0316630e0603786040518163ffffffff1660e01b8152600401602060405180830381865afa158015613107573d6000803e3d6000fd5b505050506040513d601f19601f8201168201806040525081019061312b9190614477565b6040516001600160e01b031960e084901b1681526001600160a01b03909116600482015260001960248201526044016020604051808303816000875af1158015613179573d6000803e3d6000fd5b505050506040513d601f19601f8201168201806040525081019061319d919061442c565b5050508015611e4257600280547fffffffffffffffffffffff00ffffffffffffffffffffffffffffffffffffffff1690555050565b6001546001600160a01b031633146131fd576040516305e7700560e51b815260040160405180910390fd5b6001600160a01b0382166132245760405163604b48b960e11b815260040160405180910390fd5b6001600160a01b03821630141561324e576040516306b3e95d60e21b815260040160405180910390fd5b600280546001600160a01b0319166001600160a01b038416179055806132ac576001546040516001600160a01b038085169216907fc606c9af1451cadeb333f6ff7b24a5540974f4e800bac274fa7fff9edc305cb190600090a35050565b611e4282613fd4565b60005460405163cd784d1b60e01b81523360048201526001600160a01b039091169063cd784d1b90602401602060405180830381865afa1580156132fd573d6000803e3d6000fd5b505050506040513d601f19601f82011682018060405250810190613321919061442c565b61333e576040516337b31c9d60e21b815260040160405180910390fd5b60008054906101000a90046001600160a01b03166001600160a01b0316634c4e61e96040518163ffffffff1660e01b8152600401602060405180830381865afa15801561338f573d6000803e3d6000fd5b505050506040513d601f19601f820116820180604052508101906133b39190614477565b6001600160a01b0316826001600160a01b031614156133f05760405163f099c8a560e01b81526001600160a01b0383166004820152602401610507565b60006134056001600160a01b0384168361355c565b3360009081526005602090815260408083206001600160a01b038816845290915290205490915081111561344c5760405163c0993c3760e01b815260040160405180910390fd5b3360009081526005602090815260408083206001600160a01b03871684529091528120805483929061347f908490614667565b9091555061349990506001600160a01b0384163384613f2f565b6040518181526001600160a01b0384169033907f2717ead6b9200dd235aad468c9809ea400fe33ac69b5bfaa6d3e90fc922b639890602001612bec565b6040516001600160a01b03808516602483015283166044820152606481018290526135569085906323b872dd60e01b906084015b60408051601f198184030181529190526020810180517bffffffffffffffffffffffffffffffffffffffffffffffffffffffff166001600160e01b031990931692909217909152614020565b50505050565b600080836001600160a01b031663313ce5676040518163ffffffff1660e01b8152600401602060405180830381865afa15801561359d573d6000803e3d6000fd5b505050506040513d601f19601f820116820180604052508101906135c1919061467e565b6135cc906012614761565b6135d790600a614868565b9050806001146135f3576135eb8184614877565b915050612493565b509092915050565b6001600160a01b038116600090815260018301602052604081205480613625576000915050612493565b6000613632600183614667565b905060006001613640875490565b61364a9190614667565b90508082146136d657600086600001828154811061366a5761366a61451b565b60009182526020909120015487546001600160a01b03909116915081908890859081106136995761369961451b565b600091825260208083209190910180546001600160a01b0319166001600160a01b0394851617905592909116815260018801909152604090208390555b85548690806136e7576136e7614896565b60008281526020808220830160001990810180546001600160a01b03191690559092019092556001600160a01b038716825260018881019091526040822091909155935050505092915050565b60008060008060009054906101000a90046001600160a01b03166001600160a01b0316634c4e61e96040518163ffffffff1660e01b8152600401602060405180830381865afa15801561378b573d6000803e3d6000fd5b505050506040513d601f19601f820116820180604052508101906137af9190614477565b905060008060009054906101000a90046001600160a01b03166001600160a01b0316631694505e6040518163ffffffff1660e01b8152600401602060405180830381865afa158015613805573d6000803e3d6000fd5b505050506040513d601f19601f820116820180604052508101906138299190614477565b6001600160a01b031663c45a01556040518163ffffffff1660e01b8152600401602060405180830381865afa158015613866573d6000803e3d6000fd5b505050506040513d601f19601f8201168201806040525081019061388a9190614477565b60405163e6a4390560e01b81526001600160a01b0384811660048301528781166024830152919091169063e6a4390590604401602060405180830381865afa1580156138da573d6000803e3d6000fd5b505050506040513d601f19601f820116820180604052508101906138fe9190614477565b9050600080826001600160a01b0316630902f1ac6040518163ffffffff1660e01b8152600401606060405180830381865afa158015613941573d6000803e3d6000fd5b505050506040513d601f19601f8201168201806040525081019061396591906146bf565b506dffffffffffffffffffffffffffff1691506dffffffffffffffffffffffffffff169150866001600160a01b0316846001600160a01b031610156139af578195508094506139b6565b8194508095505b50505050915091565b60006139d483670de0b6b3a764000084613af2565b9392505050565b6000808212156139f3576139ee826148ac565b612493565b5090565b60008080600019848609848602925082811083820303915050670de0b6b3a76400008110613a495760405163072fa3c960e31b815260048101829052670de0b6b3a76400006024820152604401610507565b600080670de0b6b3a76400008688099150506706f05b59d3b1ffff811182613a835780670de0b6b3a7640000850401945050505050612493565b620400008285030493909111909103600160ee1b02919091177faccb18165bd6fe31ae1cf318dc5b51eee0e1ba569b88cd74c1773b91fac106690201905092915050565b600081613ad657506000919050565b613adf826140aa565b61249390633b9aca00614877565b919050565b60008080600019858709858702925082811083820303915050838110613b355760405163072fa3c960e31b81526004810182905260248101859052604401610507565b80613b45575082900490506139d4565b600084868809600260036001881981018916988990049182028318808302840302808302840302808302840302808302840302808302840302918202909203026000889003889004909101858311909403939093029303949094049190911702949350505050565b6000806000613bbb84613734565b9092509050613bd36001600160a01b0385168261355c565b905060008060009054906101000a90046001600160a01b03166001600160a01b031663b56cf0116040518163ffffffff1660e01b8152600401602060405180830381865afa158015613c29573d6000803e3d6000fd5b505050506040513d601f19601f82011682018060405250810190613c4d9190614494565b905080831015613e98576000613c638483614667565b90506000613c8e613c7e613c7787876139bf565b84906139bf565b6001600160a01b03891690613ea0565b905060008054906101000a90046001600160a01b03166001600160a01b0316631694505e6040518163ffffffff1660e01b8152600401602060405180830381865afa158015613ce1573d6000803e3d6000fd5b505050506040513d601f19601f82011682018060405250810190613d059190614477565b6001600160a01b031663e8e3370060008054906101000a90046001600160a01b03166001600160a01b0316634c4e61e96040518163ffffffff1660e01b8152600401602060405180830381865afa158015613d64573d6000803e3d6000fd5b505050506040513d601f19601f82011682018060405250810190613d889190614477565b898585613dab600354670de0b6b3a7640000613da49190614667565b89906139f7565b613ddf613dc7600354670de0b6b3a764000061270f9190614667565b8f6001600160a01b0316613ea090919063ffffffff16565b3060045442613dee919061445f565b60405160e08a901b6001600160e01b03191681526001600160a01b039889166004820152968816602488015260448701959095526064860193909352608485019190915260a484015290921660c482015260e4810191909152610104016060604051808303816000875af1158015613e6a573d6000803e3d6000fd5b505050506040513d601f19601f82011682018060405250810190613e8e919061470f565b5050506001955050505b505050919050565b600080836001600160a01b031663313ce5676040518163ffffffff1660e01b8152600401602060405180830381865afa158015613ee1573d6000803e3d6000fd5b505050506040513d601f19601f82011682018060405250810190613f05919061467e565b613f10906012614761565b613f1b90600a614868565b9050806001146135f3576135eb81846148c9565b6040516001600160a01b038316602482015260448101829052613f5f90849063a9059cbb60e01b9060640161350a565b505050565b6001600160a01b038116600090815260018301602052604081205415613f8c57506000612493565b508154600180820184556000848152602080822090930180546001600160a01b0319166001600160a01b03959095169485179055845493815293810190915260409092205590565b600180546001600160a01b0319166001600160a01b03831690811790915560405181907f564590b81987d147246f63910a8e1ee4eb09c4d64cc75ee975a8ffedfcc2210e90600090a350565b6040805180820190915260208082527f5361666545524332303a206c6f772d6c6576656c2063616c6c206661696c656490820152829060009061406f906001600160a01b0384169085906141ba565b805190915015613556578080602001905181019061408d919061442c565b61355657604051639b8d506160e01b815260040160405180910390fd5b6000816140b957506000919050565b5060018170010000000000000000000000000000000081106140e05760409190911b9060801c5b6801000000000000000081106140fb5760209190911b9060401c5b64010000000081106141125760109190911b9060201c5b6201000081106141275760089190911b9060101c5b610100811061413b5760049190911b9060081c5b6010811061414e5760029190911b9060041c5b6008811061415e57600182901b91505b60075b801561419357600161417384866148c9565b61417d908561445f565b901c92508061418b816148eb565b915050614161565b600061419f84866148c9565b9050808410156141af57836141b1565b805b95945050505050565b6060833b6141e65760405163dc5dd7fd60e01b81526001600160a01b0385166004820152602401610507565b600080856001600160a01b031685604051614201919061492e565b6000604051808303816000865af19150503d806000811461423e576040519150601f19603f3d011682016040523d82523d6000602084013e614243565b606091505b509150915061425382828661425d565b9695505050505050565b6060831561426c5750816139d4565b82511561427c5782518060208501fd5b8160405162461bcd60e51b8152600401610507919061494a565b6000602082840312156142a857600080fd5b5035919050565b6001600160a01b03811681146109de57600080fd5b600080604083850312156142d757600080fd5b82356142e2816142af565b946020939093013593505050565b60006020828403121561430257600080fd5b81356139d4816142af565b600081518084526020808501945080840160005b838110156143465781516001600160a01b031687529582019590820190600101614321565b509495945050505050565b6020815260006139d4602083018461430d565b80151581146109de57600080fd5b6000806000806080858703121561438857600080fd5b8435614393816142af565b935060208501356143a3816142af565b92506040850135915060608501356143ba81614364565b939692955090935050565b600080604083850312156143d857600080fd5b82356143e3816142af565b915060208301356143f3816142af565b809150509250929050565b6000806040838503121561441157600080fd5b823561441c816142af565b915060208301356143f381614364565b60006020828403121561443e57600080fd5b81516139d481614364565b634e487b7160e01b600052601160045260246000fd5b6000821982111561447257614472614449565b500190565b60006020828403121561448957600080fd5b81516139d4816142af565b6000602082840312156144a657600080fd5b5051919050565b60008083128015600160ff1b8501841216156144cb576144cb614449565b837f7fffffffffffffffffffffffffffffffffffffffffffffffffffffffffffffff0183138116156144ff576144ff614449565b50500390565b634e487b7160e01b600052604160045260246000fd5b634e487b7160e01b600052603260045260246000fd5b85815284602082015260a06040820152600061455060a083018661430d565b6001600160a01b0394909416606083015250608001529392505050565b6000602080838503121561458057600080fd5b825167ffffffffffffffff8082111561459857600080fd5b818501915085601f8301126145ac57600080fd5b8151818111156145be576145be614505565b8060051b604051601f19603f830116810181811085821117156145e3576145e3614505565b60405291825284820192508381018501918883111561460157600080fd5b938501935b8285101561461f57845184529385019392850192614606565b98975050505050505050565b600060001982141561463f5761463f614449565b5060010190565b82815260406020820152600061465f604083018461430d565b949350505050565b60008282101561467957614679614449565b500390565b60006020828403121561469057600080fd5b815160ff811681146139d457600080fd5b80516dffffffffffffffffffffffffffff81168114613aed57600080fd5b6000806000606084860312156146d457600080fd5b6146dd846146a1565b92506146eb602085016146a1565b9150604084015163ffffffff8116811461470457600080fd5b809150509250925092565b60008060006060848603121561472457600080fd5b8351925060208401519150604084015190509250925092565b6000806040838503121561475057600080fd5b505080516020909101519092909150565b600060ff821660ff84168082101561477b5761477b614449565b90039392505050565b600181815b808511156147bf5781600019048211156147a5576147a5614449565b808516156147b257918102915b93841c9390800290614789565b509250929050565b6000826147d657506001612493565b816147e357506000612493565b81600181146147f957600281146148035761481f565b6001915050612493565b60ff84111561481457614814614449565b50506001821b612493565b5060208310610133831016604e8410600b8410161715614842575081810a612493565b61484c8383614784565b806000190482111561486057614860614449565b029392505050565b60006139d460ff8416836147c7565b600081600019048311821515161561489157614891614449565b500290565b634e487b7160e01b600052603160045260246000fd5b6000600160ff1b8214156148c2576148c2614449565b5060000390565b6000826148e657634e487b7160e01b600052601260045260246000fd5b500490565b6000816148fa576148fa614449565b506000190190565b60005b8381101561491d578181015183820152602001614905565b838111156135565750506000910152565b60008251614940818460208701614902565b9190910192915050565b6020815260008251806020840152614969816040850160208701614902565b601f01601f1916919091016040019291505056fea164736f6c634300080a000a",
  "devdoc": {
    "errors": {
      "ExchangeFundDepositableTokenAlreadyListed(address)": [
        {
          "details": "Thrown when trying to list depositable token that's already listed.",
          "params": {
            "token": "The address of the token contract."
          }
        }
      ],
      "ExchangeFundDepositableTokenNotListed(address)": [
        {
          "details": "Thrown when trying to unlist depositable token that's not listed.",
          "params": {
            "token": "The address of the token contract."
          }
        }
      ],
      "ExchangeFundDepositableTokenTooLargeDecimals(address,uint8)": [
        {
          "details": "Thrown when trying to list depositable token that has too large decimals.",
          "params": {
            "token": "The address of the token contract."
          }
        }
      ],
      "ExchangeFundDepositableTokenZeroDecimals(address)": [
        {
          "details": "Thrown when trying to list depositable token that has zero decimals.",
          "params": {
            "token": "The address of the token contract."
          }
        }
      ],
      "ExchangeFundNoNeedToService(address)": [
        {
          "details": "Thrown when there's no need to service the `token`/BAKS pair cause the difference between target and pair price does not exceed servicing threshold.",
          "params": {
            "token": "The address of the token contract."
          }
        }
      ],
      "ExchangeFundTokenNotAllowedToBeDeposited(address)": [
        {
          "details": "Thrown when interacting with a token that's not allowed to be deposited.",
          "params": {
            "token": "The address of the token contract."
          }
        }
      ],
      "ExchangeFundTokenNotAllowedToBeSalvaged(address)": [
        {
          "details": "Thrown when trying to salvage one of depositable tokens or BAKS.",
          "params": {
            "token": "The address of the token contract."
          }
        }
      ],
      "ExchangeFundTokenNotAllowedToBeSwapped(address)": [
        {
          "details": "Thrown when trying to swap token that's not allowed to be swapped.",
          "params": {
            "token": "The address of the token contract."
          }
        }
      ],
      "ExchangeFundTokenNotAllowedToBeWithdrawn(address)": [
        {
          "details": "Thrown when interacting with a token that's not allowed to be withdrawn.",
          "params": {
            "token": "The address of the token contract."
          }
        }
      ]
    },
    "kind": "dev",
    "methods": {},
    "version": 1
  },
  "userdoc": {
    "kind": "user",
    "methods": {},
    "version": 1
  },
  "storageLayout": {
    "storage": [
      {
        "astId": 4258,
        "contract": "contracts/ExchangeFund.sol:ExchangeFund",
        "label": "core",
        "offset": 0,
        "slot": "0",
        "type": "t_contract(ICore)3462"
      },
      {
        "astId": 7657,
        "contract": "contracts/ExchangeFund.sol:ExchangeFund",
        "label": "governor",
        "offset": 0,
        "slot": "1",
        "type": "t_address"
      },
      {
        "astId": 7659,
        "contract": "contracts/ExchangeFund.sol:ExchangeFund",
        "label": "pendingGovernor",
        "offset": 0,
        "slot": "2",
        "type": "t_address"
      },
      {
        "astId": 11498,
        "contract": "contracts/ExchangeFund.sol:ExchangeFund",
        "label": "initializing",
        "offset": 20,
        "slot": "2",
        "type": "t_bool"
      },
      {
        "astId": 11500,
        "contract": "contracts/ExchangeFund.sol:ExchangeFund",
        "label": "initialized",
        "offset": 21,
        "slot": "2",
        "type": "t_bool"
      },
      {
        "astId": 6011,
        "contract": "contracts/ExchangeFund.sol:ExchangeFund",
        "label": "slippageTolerance",
        "offset": 0,
        "slot": "3",
        "type": "t_uint256"
      },
      {
        "astId": 6013,
        "contract": "contracts/ExchangeFund.sol:ExchangeFund",
        "label": "swapDeadline",
        "offset": 0,
        "slot": "4",
        "type": "t_uint256"
      },
      {
        "astId": 6020,
        "contract": "contracts/ExchangeFund.sol:ExchangeFund",
        "label": "deposits",
        "offset": 0,
        "slot": "5",
        "type": "t_mapping(t_address,t_mapping(t_contract(IERC20)7895,t_uint256))"
      },
      {
        "astId": 6027,
        "contract": "contracts/ExchangeFund.sol:ExchangeFund",
        "label": "liquidity",
        "offset": 0,
        "slot": "6",
        "type": "t_mapping(t_address,t_mapping(t_contract(IERC20)7895,t_uint256))"
      },
      {
        "astId": 6032,
        "contract": "contracts/ExchangeFund.sol:ExchangeFund",
        "label": "depositableTokens",
        "offset": 0,
        "slot": "7",
        "type": "t_mapping(t_contract(IERC20)7895,t_bool)"
      },
      {
        "astId": 6035,
        "contract": "contracts/ExchangeFund.sol:ExchangeFund",
        "label": "depositableTokensSet",
        "offset": 0,
        "slot": "8",
        "type": "t_struct(Set)8833_storage"
      }
    ],
    "types": {
      "t_address": {
        "encoding": "inplace",
        "label": "address",
        "numberOfBytes": "20"
      },
      "t_array(t_address)dyn_storage": {
        "base": "t_address",
        "encoding": "dynamic_array",
        "label": "address[]",
        "numberOfBytes": "32"
      },
      "t_bool": {
        "encoding": "inplace",
        "label": "bool",
        "numberOfBytes": "1"
      },
      "t_contract(ICore)3462": {
        "encoding": "inplace",
        "label": "contract ICore",
        "numberOfBytes": "20"
      },
      "t_contract(IERC20)7895": {
        "encoding": "inplace",
        "label": "contract IERC20",
        "numberOfBytes": "20"
      },
      "t_mapping(t_address,t_mapping(t_contract(IERC20)7895,t_uint256))": {
        "encoding": "mapping",
        "key": "t_address",
        "label": "mapping(address => mapping(contract IERC20 => uint256))",
        "numberOfBytes": "32",
        "value": "t_mapping(t_contract(IERC20)7895,t_uint256)"
      },
      "t_mapping(t_address,t_uint256)": {
        "encoding": "mapping",
        "key": "t_address",
        "label": "mapping(address => uint256)",
        "numberOfBytes": "32",
        "value": "t_uint256"
      },
      "t_mapping(t_contract(IERC20)7895,t_bool)": {
        "encoding": "mapping",
        "key": "t_contract(IERC20)7895",
        "label": "mapping(contract IERC20 => bool)",
        "numberOfBytes": "32",
        "value": "t_bool"
      },
      "t_mapping(t_contract(IERC20)7895,t_uint256)": {
        "encoding": "mapping",
        "key": "t_contract(IERC20)7895",
        "label": "mapping(contract IERC20 => uint256)",
        "numberOfBytes": "32",
        "value": "t_uint256"
      },
      "t_struct(Set)8833_storage": {
        "encoding": "inplace",
        "label": "struct EnumerableAddressSet.Set",
        "members": [
          {
            "astId": 8828,
            "contract": "contracts/ExchangeFund.sol:ExchangeFund",
            "label": "elements",
            "offset": 0,
            "slot": "0",
            "type": "t_array(t_address)dyn_storage"
          },
          {
            "astId": 8832,
            "contract": "contracts/ExchangeFund.sol:ExchangeFund",
            "label": "indexes",
            "offset": 0,
            "slot": "1",
            "type": "t_mapping(t_address,t_uint256)"
          }
        ],
        "numberOfBytes": "64"
      },
      "t_uint256": {
        "encoding": "inplace",
        "label": "uint256",
        "numberOfBytes": "32"
      }
    }
  }
}