{
  "address": "0x1710CA31a8579a2a816Fe667FF1278d9B47F9f39",
  "abi": [
    {
      "inputs": [
        {
          "internalType": "address",
          "name": "minter",
          "type": "address"
        }
      ],
      "stateMutability": "nonpayable",
      "type": "constructor"
    },
    {
      "inputs": [
        {
          "internalType": "address",
          "name": "spender",
          "type": "address"
        },
        {
          "internalType": "uint256",
          "name": "amount",
          "type": "uint256"
        }
      ],
      "name": "ApproveFromZeroAddress",
      "type": "error"
    },
    {
      "inputs": [
        {
          "internalType": "address",
          "name": "owner",
          "type": "address"
        },
        {
          "internalType": "uint256",
          "name": "amount",
          "type": "uint256"
        }
      ],
      "name": "ApproveToZeroAddress",
      "type": "error"
    },
    {
      "inputs": [
        {
          "internalType": "address",
          "name": "from",
          "type": "address"
        },
        {
          "internalType": "uint256",
          "name": "amount",
          "type": "uint256"
        },
        {
          "internalType": "uint256",
          "name": "balance",
          "type": "uint256"
        }
      ],
      "name": "BurnAmountExceedsBalance",
      "type": "error"
    },
    {
      "inputs": [
        {
          "internalType": "uint256",
          "name": "amount",
          "type": "uint256"
        }
      ],
      "name": "BurnFromZeroAddress",
      "type": "error"
    },
    {
      "inputs": [
        {
          "internalType": "address",
          "name": "owner",
          "type": "address"
        },
        {
          "internalType": "address",
          "name": "signer",
          "type": "address"
        }
      ],
      "name": "EIP2612InvalidSignature",
      "type": "error"
    },
    {
      "inputs": [
        {
          "internalType": "uint256",
          "name": "deadline",
          "type": "uint256"
        }
      ],
      "name": "EIP2612PermissionExpired",
      "type": "error"
    },
    {
      "inputs": [],
      "name": "GovernedCantGoverItself",
      "type": "error"
    },
    {
      "inputs": [],
      "name": "GovernedGovernorZeroAddress",
      "type": "error"
    },
    {
      "inputs": [],
      "name": "GovernedOnlyGovernorAllowedToCall",
      "type": "error"
    },
    {
      "inputs": [],
      "name": "GovernedOnlyPendingGovernorAllowedToCall",
      "type": "error"
    },
    {
      "inputs": [
        {
          "internalType": "uint256",
          "name": "amount",
          "type": "uint256"
        }
      ],
      "name": "MintToZeroAddress",
      "type": "error"
    },
    {
      "inputs": [],
      "name": "MinterZeroAddress",
      "type": "error"
    },
    {
      "inputs": [],
      "name": "OnlyMinterAllowed",
      "type": "error"
    },
    {
      "inputs": [
        {
          "internalType": "address",
          "name": "from",
          "type": "address"
        },
        {
          "internalType": "address",
          "name": "to",
          "type": "address"
        },
        {
          "internalType": "uint256",
          "name": "amount",
          "type": "uint256"
        },
        {
          "internalType": "uint256",
          "name": "allowance",
          "type": "uint256"
        }
      ],
      "name": "TransferAmountExceedsAllowance",
      "type": "error"
    },
    {
      "inputs": [
        {
          "internalType": "address",
          "name": "from",
          "type": "address"
        },
        {
          "internalType": "address",
          "name": "to",
          "type": "address"
        },
        {
          "internalType": "uint256",
          "name": "amount",
          "type": "uint256"
        },
        {
          "internalType": "uint256",
          "name": "balance",
          "type": "uint256"
        }
      ],
      "name": "TransferAmountExceedsBalance",
      "type": "error"
    },
    {
      "inputs": [
        {
          "internalType": "address",
          "name": "to",
          "type": "address"
        },
        {
          "internalType": "uint256",
          "name": "amount",
          "type": "uint256"
        }
      ],
      "name": "TransferFromZeroAddress",
      "type": "error"
    },
    {
      "inputs": [
        {
          "internalType": "address",
          "name": "from",
          "type": "address"
        },
        {
          "internalType": "uint256",
          "name": "amount",
          "type": "uint256"
        }
      ],
      "name": "TransferToZeroAddress",
      "type": "error"
    },
    {
      "anonymous": false,
      "inputs": [
        {
          "indexed": true,
          "internalType": "address",
          "name": "owner",
          "type": "address"
        },
        {
          "indexed": true,
          "internalType": "address",
          "name": "spender",
          "type": "address"
        },
        {
          "indexed": false,
          "internalType": "uint256",
          "name": "amount",
          "type": "uint256"
        }
      ],
      "name": "Approval",
      "type": "event"
    },
    {
      "anonymous": false,
      "inputs": [
        {
          "indexed": true,
          "internalType": "address",
          "name": "governor",
          "type": "address"
        },
        {
          "indexed": true,
          "internalType": "address",
          "name": "newGovernor",
          "type": "address"
        }
      ],
      "name": "GovernanceTransited",
      "type": "event"
    },
    {
      "anonymous": false,
      "inputs": [
        {
          "indexed": true,
          "internalType": "address",
          "name": "minter",
          "type": "address"
        },
        {
          "indexed": true,
          "internalType": "address",
          "name": "newMinter",
          "type": "address"
        }
      ],
      "name": "MinterChanged",
      "type": "event"
    },
    {
      "anonymous": false,
      "inputs": [
        {
          "indexed": true,
          "internalType": "address",
          "name": "governor",
          "type": "address"
        },
        {
          "indexed": true,
          "internalType": "address",
          "name": "newGovernor",
          "type": "address"
        }
      ],
      "name": "PendingGovernanceTransition",
      "type": "event"
    },
    {
      "anonymous": false,
      "inputs": [
        {
          "indexed": true,
          "internalType": "address",
          "name": "from",
          "type": "address"
        },
        {
          "indexed": true,
          "internalType": "address",
          "name": "to",
          "type": "address"
        },
        {
          "indexed": false,
          "internalType": "uint256",
          "name": "amount",
          "type": "uint256"
        }
      ],
      "name": "Transfer",
      "type": "event"
    },
    {
      "inputs": [],
      "name": "DOMAIN_SEPARATOR",
      "outputs": [
        {
          "internalType": "bytes32",
          "name": "",
          "type": "bytes32"
        }
      ],
      "stateMutability": "view",
      "type": "function"
    },
    {
      "inputs": [],
      "name": "acceptGovernance",
      "outputs": [],
      "stateMutability": "nonpayable",
      "type": "function"
    },
    {
      "inputs": [
        {
          "internalType": "address",
          "name": "",
          "type": "address"
        },
        {
          "internalType": "address",
          "name": "",
          "type": "address"
        }
      ],
      "name": "allowance",
      "outputs": [
        {
          "internalType": "uint256",
          "name": "",
          "type": "uint256"
        }
      ],
      "stateMutability": "view",
      "type": "function"
    },
    {
      "inputs": [
        {
          "internalType": "address",
          "name": "spender",
          "type": "address"
        },
        {
          "internalType": "uint256",
          "name": "amount",
          "type": "uint256"
        }
      ],
      "name": "approve",
      "outputs": [
        {
          "internalType": "bool",
          "name": "",
          "type": "bool"
        }
      ],
      "stateMutability": "nonpayable",
      "type": "function"
    },
    {
      "inputs": [
        {
          "internalType": "address",
          "name": "",
          "type": "address"
        }
      ],
      "name": "balanceOf",
      "outputs": [
        {
          "internalType": "uint256",
          "name": "",
          "type": "uint256"
        }
      ],
      "stateMutability": "view",
      "type": "function"
    },
    {
      "inputs": [
        {
          "internalType": "address",
          "name": "from",
          "type": "address"
        },
        {
          "internalType": "uint256",
          "name": "amount",
          "type": "uint256"
        }
      ],
      "name": "burn",
      "outputs": [],
      "stateMutability": "nonpayable",
      "type": "function"
    },
    {
      "inputs": [],
      "name": "decimals",
      "outputs": [
        {
          "internalType": "uint8",
          "name": "",
          "type": "uint8"
        }
      ],
      "stateMutability": "view",
      "type": "function"
    },
    {
      "inputs": [],
      "name": "governor",
      "outputs": [
        {
          "internalType": "address",
          "name": "",
          "type": "address"
        }
      ],
      "stateMutability": "view",
      "type": "function"
    },
    {
      "inputs": [
        {
          "internalType": "address",
          "name": "to",
          "type": "address"
        },
        {
          "internalType": "uint256",
          "name": "amount",
          "type": "uint256"
        }
      ],
      "name": "mint",
      "outputs": [],
      "stateMutability": "nonpayable",
      "type": "function"
    },
    {
      "inputs": [],
      "name": "minter",
      "outputs": [
        {
          "internalType": "address",
          "name": "",
          "type": "address"
        }
      ],
      "stateMutability": "view",
      "type": "function"
    },
    {
      "inputs": [],
      "name": "name",
      "outputs": [
        {
          "internalType": "string",
          "name": "",
          "type": "string"
        }
      ],
      "stateMutability": "view",
      "type": "function"
    },
    {
      "inputs": [
        {
          "internalType": "address",
          "name": "",
          "type": "address"
        }
      ],
      "name": "nonces",
      "outputs": [
        {
          "internalType": "uint256",
          "name": "",
          "type": "uint256"
        }
      ],
      "stateMutability": "view",
      "type": "function"
    },
    {
      "inputs": [],
      "name": "pendingGovernor",
      "outputs": [
        {
          "internalType": "address",
          "name": "",
          "type": "address"
        }
      ],
      "stateMutability": "view",
      "type": "function"
    },
    {
      "inputs": [
        {
          "internalType": "address",
          "name": "owner",
          "type": "address"
        },
        {
          "internalType": "address",
          "name": "spender",
          "type": "address"
        },
        {
          "internalType": "uint256",
          "name": "amount",
          "type": "uint256"
        },
        {
          "internalType": "uint256",
          "name": "deadline",
          "type": "uint256"
        },
        {
          "internalType": "uint8",
          "name": "v",
          "type": "uint8"
        },
        {
          "internalType": "bytes32",
          "name": "r",
          "type": "bytes32"
        },
        {
          "internalType": "bytes32",
          "name": "s",
          "type": "bytes32"
        }
      ],
      "name": "permit",
      "outputs": [],
      "stateMutability": "nonpayable",
      "type": "function"
    },
    {
      "inputs": [
        {
          "internalType": "address",
          "name": "newMinter",
          "type": "address"
        }
      ],
      "name": "setMinter",
      "outputs": [],
      "stateMutability": "nonpayable",
      "type": "function"
    },
    {
      "inputs": [],
      "name": "symbol",
      "outputs": [
        {
          "internalType": "string",
          "name": "",
          "type": "string"
        }
      ],
      "stateMutability": "view",
      "type": "function"
    },
    {
      "inputs": [],
      "name": "totalSupply",
      "outputs": [
        {
          "internalType": "uint256",
          "name": "",
          "type": "uint256"
        }
      ],
      "stateMutability": "view",
      "type": "function"
    },
    {
      "inputs": [
        {
          "internalType": "address",
          "name": "to",
          "type": "address"
        },
        {
          "internalType": "uint256",
          "name": "amount",
          "type": "uint256"
        }
      ],
      "name": "transfer",
      "outputs": [
        {
          "internalType": "bool",
          "name": "",
          "type": "bool"
        }
      ],
      "stateMutability": "nonpayable",
      "type": "function"
    },
    {
      "inputs": [
        {
          "internalType": "address",
          "name": "from",
          "type": "address"
        },
        {
          "internalType": "address",
          "name": "to",
          "type": "address"
        },
        {
          "internalType": "uint256",
          "name": "amount",
          "type": "uint256"
        }
      ],
      "name": "transferFrom",
      "outputs": [
        {
          "internalType": "bool",
          "name": "",
          "type": "bool"
        }
      ],
      "stateMutability": "nonpayable",
      "type": "function"
    },
    {
      "inputs": [
        {
          "internalType": "address",
          "name": "newGovernor",
          "type": "address"
        }
      ],
      "name": "transitGovernance",
      "outputs": [],
      "stateMutability": "nonpayable",
      "type": "function"
    },
    {
      "inputs": [],
      "name": "version",
      "outputs": [
        {
          "internalType": "string",
          "name": "",
          "type": "string"
        }
      ],
      "stateMutability": "view",
      "type": "function"
    }
  ],
  "transactionHash": "0x11f717b7713170b8d858d1596c5eebaad6e8aea618fbd2e5dec7341d86795c6f",
  "args": [
    "0x741E55b8D749738064d8B32cd148608361022300"
  ],
  "solcInputHash": "08854ff3bffc62e8a165002283822254",
  "bytecode": "0x60a06040523480156200001157600080fd5b506040516200132a3803806200132a8339810160408190526200003491620002db565b60408051808201825260048082526342616b7360e01b602080840191909152835180850185529182526342414b5360e01b828201528351808501855260018152603160f81b91810191909152600080546001600160a01b031916339081178255945193949293601293879290917fc606c9af1451cadeb333f6ff7b24a5540974f4e800bac274fa7fff9edc305cb1908290a3600080546040516001600160a01b0390911691907f564590b81987d147246f63910a8e1ee4eb09c4d64cc75ee975a8ffedfcc2210e908290a36001600160a01b0381166200012757604051638cc5de0560e01b815260040160405180910390fd5b600980546001600160a01b0319166001600160a01b03831617905584516200015790600290602088019062000235565b5083516200016d90600390602087019062000235565b506004805460ff191660ff851617905581516200019290600590602085019062000235565b507f8b73c3c69bb8fe3d512ecc4cf759cc79239f7b179b0ffacaa9a75d522b39400f6002604051620001c591906200030d565b60405180910390206005604051620001de91906200030d565b60408051918290038220602083019490945281019190915260608101919091524660808201523060a082015260c00160408051601f19818403018152919052805160209091012060805250620003ee945050505050565b8280546200024390620003b1565b90600052602060002090601f016020900481019282620002675760008555620002b2565b82601f106200028257805160ff1916838001178555620002b2565b82800160010185558215620002b2579182015b82811115620002b257825182559160200191906001019062000295565b50620002c0929150620002c4565b5090565b5b80821115620002c05760008155600101620002c5565b600060208284031215620002ee57600080fd5b81516001600160a01b03811681146200030657600080fd5b9392505050565b600080835481600182811c9150808316806200032a57607f831692505b60208084108214156200034b57634e487b7160e01b86526022600452602486fd5b8180156200036257600181146200037457620003a3565b60ff19861689528489019650620003a3565b60008a81526020902060005b868110156200039b5781548b82015290850190830162000380565b505084890196505b509498975050505050505050565b600181811c90821680620003c657607f821691505b60208210811415620003e857634e487b7160e01b600052602260045260246000fd5b50919050565b608051610f19620004116000396000818161025301526106b40152610f196000f3fe608060405234801561001057600080fd5b50600436106101775760003560e01c806354fd4d50116100d85780639dc29fac1161008c578063dd62ed3e11610066578063dd62ed3e14610324578063e3056a341461034f578063fca3b5aa1461036257600080fd5b80639dc29fac146102eb578063a9059cbb146102fe578063d505accf1461031157600080fd5b806370a08231116100bd57806370a08231146102a35780637ecebe00146102c357806395d89b41146102e357600080fd5b806354fd4d5014610288578063631aa9e21461029057600080fd5b8063238efcbc1161012f578063313ce56711610114578063313ce5671461022f5780633644e5151461024e57806340c10f191461027557600080fd5b8063238efcbc1461021257806323b872dd1461021c57600080fd5b8063095ea7b311610160578063095ea7b3146101c55780630c340a24146101e857806318160ddd146101fb57600080fd5b806306fdde031461017c578063075461721461019a575b600080fd5b610184610375565b6040516101919190610e1c565b60405180910390f35b6009546101ad906001600160a01b031681565b6040516001600160a01b039091168152602001610191565b6101d86101d3366004610df2565b610403565b6040519015158152602001610191565b6000546101ad906001600160a01b031681565b61020460065481565b604051908152602001610191565b61021a610419565b005b6101d861022a366004610d43565b61049c565b60045461023c9060ff1681565b60405160ff9091168152602001610191565b6102047f000000000000000000000000000000000000000000000000000000000000000081565b61021a610283366004610df2565b610530565b610184610569565b61021a61029e366004610cee565b610576565b6102046102b1366004610cee565b60076020526000908152604090205481565b6102046102d1366004610cee565b600a6020526000908152604090205481565b610184610625565b61021a6102f9366004610df2565b610632565b6101d861030c366004610df2565b610667565b61021a61031f366004610d7f565b610674565b610204610332366004610d10565b600860209081526000928352604080842090915290825290205481565b6001546101ad906001600160a01b031681565b61021a610370366004610cee565b610851565b6002805461038290610ea0565b80601f01602080910402602001604051908101604052809291908181526020018280546103ae90610ea0565b80156103fb5780601f106103d0576101008083540402835291602001916103fb565b820191906000526020600020905b8154815290600101906020018083116103de57829003601f168201915b505050505081565b60006104103384846108fc565b50600192915050565b6001546001600160a01b031633146104445760405163aec80d4b60e01b815260040160405180910390fd5b6001546000805473ffffffffffffffffffffffffffffffffffffffff19166001600160a01b03909216918217815560405182917f564590b81987d147246f63910a8e1ee4eb09c4d64cc75ee975a8ffedfcc2210e91a3565b60006001600160a01b038416331461051b576001600160a01b0384166000908152600860209081526040808320338452909152902054828110156105195760405163be2e2e2160e01b81526001600160a01b0380871660048301528516602482015260448101849052606481018290526084015b60405180910390fd5b505b6105268484846109d0565b5060019392505050565b6009546001600160a01b0316331461055b5760405163404a0f8760e11b815260040160405180910390fd5b6105658282610b2e565b5050565b6005805461038290610ea0565b6001600160a01b03811661059d5760405163604b48b960e11b815260040160405180910390fd5b6001600160a01b0381163014156105c7576040516306b3e95d60e21b815260040160405180910390fd5b6001805473ffffffffffffffffffffffffffffffffffffffff19166001600160a01b0383811691821790925560008054604051929316917fc606c9af1451cadeb333f6ff7b24a5540974f4e800bac274fa7fff9edc305cb19190a350565b6003805461038290610ea0565b6009546001600160a01b0316331461065d5760405163404a0f8760e11b815260040160405180910390fd5b6105658282610be3565b60006104103384846109d0565b428410156106985760405163282fb55560e21b815260048101859052602401610510565b6001600160a01b0387166000908152600a6020526040812080547f0000000000000000000000000000000000000000000000000000000000000000917ffc77c2b9d30fe91687fd39abb7d16fcdfe1472d065740051ab8b13e4bf4a617f918b918b918b918761070683610edb565b909155506040805160208101969096526001600160a01b0394851690860152929091166060840152608083015260a082015260c0810187905260e0016040516020818303038152906040528051906020012060405160200161077f92919061190160f01b81526002810192909252602282015260420190565b60408051601f198184030181528282528051602091820120600080855291840180845281905260ff88169284019290925260608301869052608083018590529092509060019060a0016020604051602081039080840390855afa1580156107ea573d6000803e3d6000fd5b505050602060405103519050886001600160a01b0316816001600160a01b03161461083b5760405163a94a4aad60e01b81526001600160a01b03808b16600483015282166024820152604401610510565b6108468989896108fc565b505050505050505050565b6000546001600160a01b0316331461087c576040516305e7700560e51b815260040160405180910390fd5b6001600160a01b0381166108a357604051638cc5de0560e01b815260040160405180910390fd5b6009805473ffffffffffffffffffffffffffffffffffffffff19166001600160a01b03831690811790915560405181907f3b0007eb941cf645526cbb3a4fdaecda9d28ce4843167d9263b536a1f1edc0f690600090a350565b6001600160a01b0383166109355760405163da64efb160e01b81526001600160a01b038316600482015260248101829052604401610510565b6001600160a01b03821661096e5760405163c97cb7a160e01b81526001600160a01b038416600482015260248101829052604401610510565b6001600160a01b0383811660008181526008602090815260408083209487168084529482529182902085905590518481527f8c5be1e5ebec7d5bd14f71427d1e84f3dd0314c0f7b2291e5b200ac8c7c3b92591015b60405180910390a3505050565b6001600160a01b038316610a095760405163cd09812f60e01b81526001600160a01b038316600482015260248101829052604401610510565b6001600160a01b038216610a4257604051636eb47bab60e11b81526001600160a01b038416600482015260248101829052604401610510565b6001600160a01b03831660009081526007602052604090205481811015610a9d57604051630c38c5f960e41b81526001600160a01b038086166004830152841660248201526044810183905260648101829052608401610510565b6001600160a01b03808516600090815260076020526040808220858503905591851681529081208054849290610ad4908490610e71565b92505081905550826001600160a01b0316846001600160a01b03167fddf252ad1be2c89b69c2b068fc378daa952ba7f163c4a11628f55a4df523b3ef84604051610b2091815260200190565b60405180910390a350505050565b6001600160a01b038216610b585760405163070bae6960e51b815260048101829052602401610510565b6001600160a01b03821660009081526007602052604081208054839290610b80908490610e71565b925050819055508060066000828254610b999190610e71565b90915550506040518181526001600160a01b038316906000907fddf252ad1be2c89b69c2b068fc378daa952ba7f163c4a11628f55a4df523b3ef9060200160405180910390a35050565b6001600160a01b038216610c0d5760405163131259b960e21b815260048101829052602401610510565b6001600160a01b03821660009081526007602052604090205481811015610c6057604051630246530960e61b81526001600160a01b03841660048201526024810183905260448101829052606401610510565b6001600160a01b0383166000908152600760205260408120838303905560068054849290610c8f908490610e89565b90915550506040518281526000906001600160a01b038516907fddf252ad1be2c89b69c2b068fc378daa952ba7f163c4a11628f55a4df523b3ef906020016109c3565b80356001600160a01b0381168114610ce957600080fd5b919050565b600060208284031215610d0057600080fd5b610d0982610cd2565b9392505050565b60008060408385031215610d2357600080fd5b610d2c83610cd2565b9150610d3a60208401610cd2565b90509250929050565b600080600060608486031215610d5857600080fd5b610d6184610cd2565b9250610d6f60208501610cd2565b9150604084013590509250925092565b600080600080600080600060e0888a031215610d9a57600080fd5b610da388610cd2565b9650610db160208901610cd2565b95506040880135945060608801359350608088013560ff81168114610dd557600080fd5b9699959850939692959460a0840135945060c09093013592915050565b60008060408385031215610e0557600080fd5b610e0e83610cd2565b946020939093013593505050565b600060208083528351808285015260005b81811015610e4957858101830151858201604001528201610e2d565b81811115610e5b576000604083870101525b50601f01601f1916929092016040019392505050565b60008219821115610e8457610e84610ef6565b500190565b600082821015610e9b57610e9b610ef6565b500390565b600181811c90821680610eb457607f821691505b60208210811415610ed557634e487b7160e01b600052602260045260246000fd5b50919050565b6000600019821415610eef57610eef610ef6565b5060010190565b634e487b7160e01b600052601160045260246000fdfea164736f6c6343000806000a",
  "devdoc": {
    "kind": "dev",
    "methods": {},
    "version": 1
  },
  "userdoc": {
    "kind": "user",
    "methods": {},
    "version": 1
  },
  "storageLayout": {
    "storage": [
      {
        "astId": 1878,
        "contract": "contracts/$.sol:Baks",
        "label": "governor",
        "offset": 0,
        "slot": "0",
        "type": "t_address"
      },
      {
        "astId": 1880,
        "contract": "contracts/$.sol:Baks",
        "label": "pendingGovernor",
        "offset": 0,
        "slot": "1",
        "type": "t_address"
      },
      {
        "astId": 155,
        "contract": "contracts/$.sol:Baks",
        "label": "name",
        "offset": 0,
        "slot": "2",
        "type": "t_string_storage"
      },
      {
        "astId": 158,
        "contract": "contracts/$.sol:Baks",
        "label": "symbol",
        "offset": 0,
        "slot": "3",
        "type": "t_string_storage"
      },
      {
        "astId": 161,
        "contract": "contracts/$.sol:Baks",
        "label": "decimals",
        "offset": 0,
        "slot": "4",
        "type": "t_uint8"
      },
      {
        "astId": 163,
        "contract": "contracts/$.sol:Baks",
        "label": "version",
        "offset": 0,
        "slot": "5",
        "type": "t_string_storage"
      },
      {
        "astId": 166,
        "contract": "contracts/$.sol:Baks",
        "label": "totalSupply",
        "offset": 0,
        "slot": "6",
        "type": "t_uint256"
      },
      {
        "astId": 171,
        "contract": "contracts/$.sol:Baks",
        "label": "balanceOf",
        "offset": 0,
        "slot": "7",
        "type": "t_mapping(t_address,t_uint256)"
      },
      {
        "astId": 178,
        "contract": "contracts/$.sol:Baks",
        "label": "allowance",
        "offset": 0,
        "slot": "8",
        "type": "t_mapping(t_address,t_mapping(t_address,t_uint256))"
      },
      {
        "astId": 180,
        "contract": "contracts/$.sol:Baks",
        "label": "minter",
        "offset": 0,
        "slot": "9",
        "type": "t_address"
      },
      {
        "astId": 188,
        "contract": "contracts/$.sol:Baks",
        "label": "nonces",
        "offset": 0,
        "slot": "10",
        "type": "t_mapping(t_address,t_uint256)"
      }
    ],
    "types": {
      "t_address": {
        "encoding": "inplace",
        "label": "address",
        "numberOfBytes": "20"
      },
      "t_mapping(t_address,t_mapping(t_address,t_uint256))": {
        "encoding": "mapping",
        "key": "t_address",
        "label": "mapping(address => mapping(address => uint256))",
        "numberOfBytes": "32",
        "value": "t_mapping(t_address,t_uint256)"
      },
      "t_mapping(t_address,t_uint256)": {
        "encoding": "mapping",
        "key": "t_address",
        "label": "mapping(address => uint256)",
        "numberOfBytes": "32",
        "value": "t_uint256"
      },
      "t_string_storage": {
        "encoding": "bytes",
        "label": "string",
        "numberOfBytes": "32"
      },
      "t_uint256": {
        "encoding": "inplace",
        "label": "uint256",
        "numberOfBytes": "32"
      },
      "t_uint8": {
        "encoding": "inplace",
        "label": "uint8",
        "numberOfBytes": "1"
      }
    }
  }
}