{
  "address": "0xD042c8d97a7253b25EB2C4d63F312010a3912700",
  "abi": [
    {
      "inputs": [],
      "name": "BaksDAOBorrowBelowMinimumPrincipalAmount",
      "type": "error"
    },
    {
      "inputs": [],
      "name": "BaksDAOBorrowZeroAmount",
      "type": "error"
    },
    {
      "inputs": [
        {
          "internalType": "contract IERC20",
          "name": "token",
          "type": "address"
        }
      ],
      "name": "BaksDAOCollateralTokenAlreadyListed",
      "type": "error"
    },
    {
      "inputs": [
        {
          "internalType": "contract IERC20",
          "name": "token",
          "type": "address"
        }
      ],
      "name": "BaksDAOCollateralTokenNotListed",
      "type": "error"
    },
    {
      "inputs": [
        {
          "internalType": "contract IERC20",
          "name": "token",
          "type": "address"
        },
        {
          "internalType": "uint8",
          "name": "decimals",
          "type": "uint8"
        }
      ],
      "name": "BaksDAOCollateralTokenTooLargeDecimals",
      "type": "error"
    },
    {
      "inputs": [
        {
          "internalType": "contract IERC20",
          "name": "token",
          "type": "address"
        }
      ],
      "name": "BaksDAOCollateralTokenZeroDecimals",
      "type": "error"
    },
    {
      "inputs": [],
      "name": "BaksDAODepositZeroAmount",
      "type": "error"
    },
    {
      "inputs": [
        {
          "internalType": "uint256",
          "name": "id",
          "type": "uint256"
        }
      ],
      "name": "BaksDAOInactiveLoan",
      "type": "error"
    },
    {
      "inputs": [
        {
          "internalType": "contract IERC20",
          "name": "token",
          "type": "address"
        },
        {
          "internalType": "uint256",
          "name": "initialLoanToValueRatio",
          "type": "uint256"
        }
      ],
      "name": "BaksDAOInitialLoanToValueRatioTooHigh",
      "type": "error"
    },
    {
      "inputs": [
        {
          "internalType": "uint256",
          "name": "minimumRequiredSecurityAmount",
          "type": "uint256"
        }
      ],
      "name": "BaksDAOInsufficientSecurityAmount",
      "type": "error"
    },
    {
      "inputs": [
        {
          "internalType": "uint256",
          "name": "id",
          "type": "uint256"
        }
      ],
      "name": "BaksDAOLoanIsSubjectToLiquidation",
      "type": "error"
    },
    {
      "inputs": [
        {
          "internalType": "uint256",
          "name": "id",
          "type": "uint256"
        }
      ],
      "name": "BaksDAOLoanNotSubjectToLiquidation",
      "type": "error"
    },
    {
      "inputs": [
        {
          "internalType": "uint256",
          "name": "id",
          "type": "uint256"
        }
      ],
      "name": "BaksDAONativeCurrencyCollateralNotAllowed",
      "type": "error"
    },
    {
      "inputs": [],
      "name": "BaksDAONativeCurrencyTransferFailed",
      "type": "error"
    },
    {
      "inputs": [],
      "name": "BaksDAONoNeedToRebalance",
      "type": "error"
    },
    {
      "inputs": [],
      "name": "BaksDAOOnlyDepositaryAllowed",
      "type": "error"
    },
    {
      "inputs": [],
      "name": "BaksDAOOnlySuperUserAllowed",
      "type": "error"
    },
    {
      "inputs": [],
      "name": "BaksDAOPlainNativeCurrencyTransferNotAllowed",
      "type": "error"
    },
    {
      "inputs": [],
      "name": "BaksDAORepayZeroAmount",
      "type": "error"
    },
    {
      "inputs": [
        {
          "internalType": "uint256",
          "name": "shortage",
          "type": "uint256"
        }
      ],
      "name": "BaksDAOStabilizationFundOutOfFunds",
      "type": "error"
    },
    {
      "inputs": [
        {
          "internalType": "contract IERC20",
          "name": "token",
          "type": "address"
        }
      ],
      "name": "BaksDAOTokenNotAllowedAsCollateral",
      "type": "error"
    },
    {
      "inputs": [
        {
          "internalType": "contract IERC20",
          "name": "token",
          "type": "address"
        }
      ],
      "name": "BaksDAOTokenNotAllowedToBeSalvaged",
      "type": "error"
    },
    {
      "inputs": [],
      "name": "BaksDAOVoiceMintingEnded",
      "type": "error"
    },
    {
      "inputs": [],
      "name": "BaksDAOVoiceNothingToMint",
      "type": "error"
    },
    {
      "inputs": [
        {
          "internalType": "address",
          "name": "target",
          "type": "address"
        }
      ],
      "name": "CallToNonContract",
      "type": "error"
    },
    {
      "inputs": [],
      "name": "ContractAlreadyInitialized",
      "type": "error"
    },
    {
      "inputs": [
        {
          "internalType": "uint256",
          "name": "prod1",
          "type": "uint256"
        },
        {
          "internalType": "uint256",
          "name": "denominator",
          "type": "uint256"
        }
      ],
      "name": "FixedPointMathMulDivOverflow",
      "type": "error"
    },
    {
      "inputs": [],
      "name": "GovernedCantGoverItself",
      "type": "error"
    },
    {
      "inputs": [],
      "name": "GovernedGovernorZeroAddress",
      "type": "error"
    },
    {
      "inputs": [],
      "name": "GovernedOnlyGovernorAllowedToCall",
      "type": "error"
    },
    {
      "inputs": [],
      "name": "GovernedOnlyPendingGovernorAllowedToCall",
      "type": "error"
    },
    {
      "inputs": [],
      "name": "ReentrancyGuardReentrantCall",
      "type": "error"
    },
    {
      "inputs": [],
      "name": "SafeERC20NoReturnData",
      "type": "error"
    },
    {
      "anonymous": false,
      "inputs": [
        {
          "indexed": true,
          "internalType": "uint256",
          "name": "id",
          "type": "uint256"
        },
        {
          "indexed": true,
          "internalType": "address",
          "name": "borrower",
          "type": "address"
        },
        {
          "indexed": true,
          "internalType": "contract IERC20",
          "name": "token",
          "type": "address"
        },
        {
          "indexed": false,
          "internalType": "uint256",
          "name": "principalAmount",
          "type": "uint256"
        },
        {
          "indexed": false,
          "internalType": "uint256",
          "name": "collateralAmount",
          "type": "uint256"
        },
        {
          "indexed": false,
          "internalType": "uint256",
          "name": "initialLoanToValueRatio",
          "type": "uint256"
        }
      ],
      "name": "Borrow",
      "type": "event"
    },
    {
      "anonymous": false,
      "inputs": [
        {
          "indexed": true,
          "internalType": "contract IERC20",
          "name": "token",
          "type": "address"
        }
      ],
      "name": "CollateralTokenListed",
      "type": "event"
    },
    {
      "anonymous": false,
      "inputs": [
        {
          "indexed": true,
          "internalType": "contract IERC20",
          "name": "token",
          "type": "address"
        }
      ],
      "name": "CollateralTokenUnlisted",
      "type": "event"
    },
    {
      "anonymous": false,
      "inputs": [
        {
          "indexed": true,
          "internalType": "uint256",
          "name": "id",
          "type": "uint256"
        },
        {
          "indexed": false,
          "internalType": "uint256",
          "name": "collateralAmount",
          "type": "uint256"
        }
      ],
      "name": "Deposit",
      "type": "event"
    },
    {
      "anonymous": false,
      "inputs": [
        {
          "indexed": true,
          "internalType": "address",
          "name": "governor",
          "type": "address"
        },
        {
          "indexed": true,
          "internalType": "address",
          "name": "newGovernor",
          "type": "address"
        }
      ],
      "name": "GovernanceTransited",
      "type": "event"
    },
    {
      "anonymous": false,
      "inputs": [
        {
          "indexed": true,
          "internalType": "contract IERC20",
          "name": "token",
          "type": "address"
        },
        {
          "indexed": false,
          "internalType": "uint256",
          "name": "initialLoanToValueRatio",
          "type": "uint256"
        },
        {
          "indexed": false,
          "internalType": "uint256",
          "name": "newInitialLoanToValueRatio",
          "type": "uint256"
        }
      ],
      "name": "InitialLoanToValueRatioUpdated",
      "type": "event"
    },
    {
      "anonymous": false,
      "inputs": [
        {
          "indexed": true,
          "internalType": "uint256",
          "name": "id",
          "type": "uint256"
        }
      ],
      "name": "Liquidated",
      "type": "event"
    },
    {
      "anonymous": false,
      "inputs": [
        {
          "indexed": true,
          "internalType": "address",
          "name": "governor",
          "type": "address"
        },
        {
          "indexed": true,
          "internalType": "address",
          "name": "newGovernor",
          "type": "address"
        }
      ],
      "name": "PendingGovernanceTransition",
      "type": "event"
    },
    {
      "anonymous": false,
      "inputs": [
        {
          "indexed": false,
          "internalType": "int256",
          "name": "delta",
          "type": "int256"
        },
        {
          "indexed": false,
          "internalType": "uint256",
          "name": "voiceMinted",
          "type": "uint256"
        }
      ],
      "name": "Rebalance",
      "type": "event"
    },
    {
      "anonymous": false,
      "inputs": [
        {
          "indexed": true,
          "internalType": "uint256",
          "name": "id",
          "type": "uint256"
        }
      ],
      "name": "Repaid",
      "type": "event"
    },
    {
      "anonymous": false,
      "inputs": [
        {
          "indexed": true,
          "internalType": "uint256",
          "name": "id",
          "type": "uint256"
        },
        {
          "indexed": false,
          "internalType": "uint256",
          "name": "principalAmount",
          "type": "uint256"
        }
      ],
      "name": "Repay",
      "type": "event"
    },
    {
      "inputs": [],
      "name": "acceptGovernance",
      "outputs": [],
      "stateMutability": "nonpayable",
      "type": "function"
    },
    {
      "inputs": [
        {
          "internalType": "contract IERC20",
          "name": "collateralToken",
          "type": "address"
        },
        {
          "internalType": "uint256",
          "name": "amount",
          "type": "uint256"
        }
      ],
      "name": "borrow",
      "outputs": [
        {
          "components": [
            {
              "internalType": "uint256",
              "name": "id",
              "type": "uint256"
            },
            {
              "internalType": "bool",
              "name": "isActive",
              "type": "bool"
            },
            {
              "internalType": "address",
              "name": "borrower",
              "type": "address"
            },
            {
              "internalType": "contract IERC20",
              "name": "collateralToken",
              "type": "address"
            },
            {
              "internalType": "bool",
              "name": "isNativeCurrency",
              "type": "bool"
            },
            {
              "internalType": "contract IPriceOracle",
              "name": "priceOracle",
              "type": "address"
            },
            {
              "internalType": "uint256",
              "name": "interest",
              "type": "uint256"
            },
            {
              "internalType": "uint256",
              "name": "stabilizationFee",
              "type": "uint256"
            },
            {
              "internalType": "uint256",
              "name": "principalAmount",
              "type": "uint256"
            },
            {
              "internalType": "uint256",
              "name": "interestAmount",
              "type": "uint256"
            },
            {
              "internalType": "uint256",
              "name": "collateralAmount",
              "type": "uint256"
            },
            {
              "internalType": "uint256",
              "name": "lastInteractionAt",
              "type": "uint256"
            }
          ],
          "internalType": "struct Loan.Data",
          "name": "",
          "type": "tuple"
        }
      ],
      "stateMutability": "nonpayable",
      "type": "function"
    },
    {
      "inputs": [
        {
          "internalType": "uint256",
          "name": "amount",
          "type": "uint256"
        }
      ],
      "name": "borrowInNativeCurrency",
      "outputs": [
        {
          "components": [
            {
              "internalType": "uint256",
              "name": "id",
              "type": "uint256"
            },
            {
              "internalType": "bool",
              "name": "isActive",
              "type": "bool"
            },
            {
              "internalType": "address",
              "name": "borrower",
              "type": "address"
            },
            {
              "internalType": "contract IERC20",
              "name": "collateralToken",
              "type": "address"
            },
            {
              "internalType": "bool",
              "name": "isNativeCurrency",
              "type": "bool"
            },
            {
              "internalType": "contract IPriceOracle",
              "name": "priceOracle",
              "type": "address"
            },
            {
              "internalType": "uint256",
              "name": "interest",
              "type": "uint256"
            },
            {
              "internalType": "uint256",
              "name": "stabilizationFee",
              "type": "uint256"
            },
            {
              "internalType": "uint256",
              "name": "principalAmount",
              "type": "uint256"
            },
            {
              "internalType": "uint256",
              "name": "interestAmount",
              "type": "uint256"
            },
            {
              "internalType": "uint256",
              "name": "collateralAmount",
              "type": "uint256"
            },
            {
              "internalType": "uint256",
              "name": "lastInteractionAt",
              "type": "uint256"
            }
          ],
          "internalType": "struct Loan.Data",
          "name": "",
          "type": "tuple"
        }
      ],
      "stateMutability": "payable",
      "type": "function"
    },
    {
      "inputs": [
        {
          "internalType": "contract IERC20",
          "name": "collateralToken",
          "type": "address"
        },
        {
          "internalType": "uint256",
          "name": "collateralAmount",
          "type": "uint256"
        }
      ],
      "name": "calculateLoanByCollateralAmount",
      "outputs": [
        {
          "components": [
            {
              "internalType": "uint256",
              "name": "id",
              "type": "uint256"
            },
            {
              "internalType": "bool",
              "name": "isActive",
              "type": "bool"
            },
            {
              "internalType": "address",
              "name": "borrower",
              "type": "address"
            },
            {
              "internalType": "contract IERC20",
              "name": "collateralToken",
              "type": "address"
            },
            {
              "internalType": "bool",
              "name": "isNativeCurrency",
              "type": "bool"
            },
            {
              "internalType": "contract IPriceOracle",
              "name": "priceOracle",
              "type": "address"
            },
            {
              "internalType": "uint256",
              "name": "interest",
              "type": "uint256"
            },
            {
              "internalType": "uint256",
              "name": "stabilizationFee",
              "type": "uint256"
            },
            {
              "internalType": "uint256",
              "name": "principalAmount",
              "type": "uint256"
            },
            {
              "internalType": "uint256",
              "name": "interestAmount",
              "type": "uint256"
            },
            {
              "internalType": "uint256",
              "name": "collateralAmount",
              "type": "uint256"
            },
            {
              "internalType": "uint256",
              "name": "lastInteractionAt",
              "type": "uint256"
            }
          ],
          "internalType": "struct Loan.Data",
          "name": "loan",
          "type": "tuple"
        },
        {
          "internalType": "uint256",
          "name": "exchangeFee",
          "type": "uint256"
        },
        {
          "internalType": "uint256",
          "name": "developmentFee",
          "type": "uint256"
        },
        {
          "internalType": "uint256",
          "name": "stabilityFee",
          "type": "uint256"
        }
      ],
      "stateMutability": "view",
      "type": "function"
    },
    {
      "inputs": [
        {
          "internalType": "contract IERC20",
          "name": "collateralToken",
          "type": "address"
        },
        {
          "internalType": "uint256",
          "name": "principalAmount",
          "type": "uint256"
        }
      ],
      "name": "calculateLoanByPrincipalAmount",
      "outputs": [
        {
          "components": [
            {
              "internalType": "uint256",
              "name": "id",
              "type": "uint256"
            },
            {
              "internalType": "bool",
              "name": "isActive",
              "type": "bool"
            },
            {
              "internalType": "address",
              "name": "borrower",
              "type": "address"
            },
            {
              "internalType": "contract IERC20",
              "name": "collateralToken",
              "type": "address"
            },
            {
              "internalType": "bool",
              "name": "isNativeCurrency",
              "type": "bool"
            },
            {
              "internalType": "contract IPriceOracle",
              "name": "priceOracle",
              "type": "address"
            },
            {
              "internalType": "uint256",
              "name": "interest",
              "type": "uint256"
            },
            {
              "internalType": "uint256",
              "name": "stabilizationFee",
              "type": "uint256"
            },
            {
              "internalType": "uint256",
              "name": "principalAmount",
              "type": "uint256"
            },
            {
              "internalType": "uint256",
              "name": "interestAmount",
              "type": "uint256"
            },
            {
              "internalType": "uint256",
              "name": "collateralAmount",
              "type": "uint256"
            },
            {
              "internalType": "uint256",
              "name": "lastInteractionAt",
              "type": "uint256"
            }
          ],
          "internalType": "struct Loan.Data",
          "name": "loan",
          "type": "tuple"
        },
        {
          "internalType": "uint256",
          "name": "exchangeFee",
          "type": "uint256"
        },
        {
          "internalType": "uint256",
          "name": "developmentFee",
          "type": "uint256"
        },
        {
          "internalType": "uint256",
          "name": "stabilityFee",
          "type": "uint256"
        }
      ],
      "stateMutability": "view",
      "type": "function"
    },
    {
      "inputs": [
        {
          "internalType": "contract IERC20",
          "name": "collateralToken",
          "type": "address"
        },
        {
          "internalType": "uint256",
          "name": "securityAmount",
          "type": "uint256"
        }
      ],
      "name": "calculateLoanBySecurityAmount",
      "outputs": [
        {
          "components": [
            {
              "internalType": "uint256",
              "name": "id",
              "type": "uint256"
            },
            {
              "internalType": "bool",
              "name": "isActive",
              "type": "bool"
            },
            {
              "internalType": "address",
              "name": "borrower",
              "type": "address"
            },
            {
              "internalType": "contract IERC20",
              "name": "collateralToken",
              "type": "address"
            },
            {
              "internalType": "bool",
              "name": "isNativeCurrency",
              "type": "bool"
            },
            {
              "internalType": "contract IPriceOracle",
              "name": "priceOracle",
              "type": "address"
            },
            {
              "internalType": "uint256",
              "name": "interest",
              "type": "uint256"
            },
            {
              "internalType": "uint256",
              "name": "stabilizationFee",
              "type": "uint256"
            },
            {
              "internalType": "uint256",
              "name": "principalAmount",
              "type": "uint256"
            },
            {
              "internalType": "uint256",
              "name": "interestAmount",
              "type": "uint256"
            },
            {
              "internalType": "uint256",
              "name": "collateralAmount",
              "type": "uint256"
            },
            {
              "internalType": "uint256",
              "name": "lastInteractionAt",
              "type": "uint256"
            }
          ],
          "internalType": "struct Loan.Data",
          "name": "loan",
          "type": "tuple"
        },
        {
          "internalType": "uint256",
          "name": "exchangeFee",
          "type": "uint256"
        },
        {
          "internalType": "uint256",
          "name": "developmentFee",
          "type": "uint256"
        },
        {
          "internalType": "uint256",
          "name": "stabilityFee",
          "type": "uint256"
        }
      ],
      "stateMutability": "view",
      "type": "function"
    },
    {
      "inputs": [
        {
          "internalType": "uint256",
          "name": "loanId",
          "type": "uint256"
        }
      ],
      "name": "checkHealth",
      "outputs": [
        {
          "internalType": "enum Bank.Health",
          "name": "health",
          "type": "uint8"
        }
      ],
      "stateMutability": "view",
      "type": "function"
    },
    {
      "inputs": [
        {
          "internalType": "contract IERC20",
          "name": "",
          "type": "address"
        }
      ],
      "name": "collateralTokens",
      "outputs": [
        {
          "internalType": "contract IERC20",
          "name": "collateralToken",
          "type": "address"
        },
        {
          "internalType": "contract IPriceOracle",
          "name": "priceOracle",
          "type": "address"
        },
        {
          "internalType": "uint256",
          "name": "stabilityFee",
          "type": "uint256"
        },
        {
          "internalType": "uint256",
          "name": "stabilizationFee",
          "type": "uint256"
        },
        {
          "internalType": "uint256",
          "name": "exchangeFee",
          "type": "uint256"
        },
        {
          "internalType": "uint256",
          "name": "developmentFee",
          "type": "uint256"
        },
        {
          "internalType": "uint256",
          "name": "initialLoanToValueRatio",
          "type": "uint256"
        },
        {
          "internalType": "uint256",
          "name": "marginCallLoanToValueRatio",
          "type": "uint256"
        },
        {
          "internalType": "uint256",
          "name": "liquidationLoanToValueRatio",
          "type": "uint256"
        },
        {
          "internalType": "uint256",
          "name": "collateralAmount",
          "type": "uint256"
        }
      ],
      "stateMutability": "view",
      "type": "function"
    },
    {
      "inputs": [],
      "name": "core",
      "outputs": [
        {
          "internalType": "contract ICore",
          "name": "",
          "type": "address"
        }
      ],
      "stateMutability": "view",
      "type": "function"
    },
    {
      "inputs": [
        {
          "internalType": "uint256",
          "name": "loanId",
          "type": "uint256"
        },
        {
          "internalType": "uint256",
          "name": "amount",
          "type": "uint256"
        }
      ],
      "name": "deposit",
      "outputs": [],
      "stateMutability": "nonpayable",
      "type": "function"
    },
    {
      "inputs": [
        {
          "internalType": "uint256",
          "name": "loanId",
          "type": "uint256"
        }
      ],
      "name": "depositInNativeCurrency",
      "outputs": [],
      "stateMutability": "payable",
      "type": "function"
    },
    {
      "inputs": [],
      "name": "getAllowedCollateralTokens",
      "outputs": [
        {
          "components": [
            {
              "internalType": "contract IERC20",
              "name": "collateralToken",
              "type": "address"
            },
            {
              "internalType": "contract IPriceOracle",
              "name": "priceOracle",
              "type": "address"
            },
            {
              "internalType": "uint256",
              "name": "stabilityFee",
              "type": "uint256"
            },
            {
              "internalType": "uint256",
              "name": "stabilizationFee",
              "type": "uint256"
            },
            {
              "internalType": "uint256",
              "name": "exchangeFee",
              "type": "uint256"
            },
            {
              "internalType": "uint256",
              "name": "developmentFee",
              "type": "uint256"
            },
            {
              "internalType": "uint256",
              "name": "initialLoanToValueRatio",
              "type": "uint256"
            },
            {
              "internalType": "uint256",
              "name": "marginCallLoanToValueRatio",
              "type": "uint256"
            },
            {
              "internalType": "uint256",
              "name": "liquidationLoanToValueRatio",
              "type": "uint256"
            },
            {
              "internalType": "uint256",
              "name": "collateralAmount",
              "type": "uint256"
            }
          ],
          "internalType": "struct CollateralToken.Data[]",
          "name": "allowedCollateralTokens",
          "type": "tuple[]"
        }
      ],
      "stateMutability": "view",
      "type": "function"
    },
    {
      "inputs": [
        {
          "internalType": "uint256",
          "name": "loanId",
          "type": "uint256"
        }
      ],
      "name": "getLoanAccruedInterest",
      "outputs": [
        {
          "internalType": "uint256",
          "name": "accruedInterest",
          "type": "uint256"
        }
      ],
      "stateMutability": "view",
      "type": "function"
    },
    {
      "inputs": [
        {
          "internalType": "uint256",
          "name": "loanId",
          "type": "uint256"
        }
      ],
      "name": "getLoanToValueRatio",
      "outputs": [
        {
          "internalType": "uint256",
          "name": "loanToValueRatio",
          "type": "uint256"
        }
      ],
      "stateMutability": "view",
      "type": "function"
    },
    {
      "inputs": [
        {
          "internalType": "address",
          "name": "borrower",
          "type": "address"
        }
      ],
      "name": "getLoans",
      "outputs": [
        {
          "components": [
            {
              "internalType": "uint256",
              "name": "id",
              "type": "uint256"
            },
            {
              "internalType": "bool",
              "name": "isActive",
              "type": "bool"
            },
            {
              "internalType": "address",
              "name": "borrower",
              "type": "address"
            },
            {
              "internalType": "contract IERC20",
              "name": "collateralToken",
              "type": "address"
            },
            {
              "internalType": "bool",
              "name": "isNativeCurrency",
              "type": "bool"
            },
            {
              "internalType": "contract IPriceOracle",
              "name": "priceOracle",
              "type": "address"
            },
            {
              "internalType": "uint256",
              "name": "interest",
              "type": "uint256"
            },
            {
              "internalType": "uint256",
              "name": "stabilizationFee",
              "type": "uint256"
            },
            {
              "internalType": "uint256",
              "name": "principalAmount",
              "type": "uint256"
            },
            {
              "internalType": "uint256",
              "name": "interestAmount",
              "type": "uint256"
            },
            {
              "internalType": "uint256",
              "name": "collateralAmount",
              "type": "uint256"
            },
            {
              "internalType": "uint256",
              "name": "lastInteractionAt",
              "type": "uint256"
            }
          ],
          "internalType": "struct Loan.Data[]",
          "name": "_loans",
          "type": "tuple[]"
        }
      ],
      "stateMutability": "view",
      "type": "function"
    },
    {
      "inputs": [
        {
          "internalType": "contract IERC20",
          "name": "token",
          "type": "address"
        }
      ],
      "name": "getTotalValueLocked",
      "outputs": [
        {
          "internalType": "uint256",
          "name": "totalValueLocked",
          "type": "uint256"
        }
      ],
      "stateMutability": "view",
      "type": "function"
    },
    {
      "inputs": [],
      "name": "getTotalValueLocked",
      "outputs": [
        {
          "internalType": "uint256",
          "name": "totalValueLocked",
          "type": "uint256"
        }
      ],
      "stateMutability": "view",
      "type": "function"
    },
    {
      "inputs": [],
      "name": "governor",
      "outputs": [
        {
          "internalType": "address",
          "name": "",
          "type": "address"
        }
      ],
      "stateMutability": "view",
      "type": "function"
    },
    {
      "inputs": [
        {
          "internalType": "contract ICore",
          "name": "_core",
          "type": "address"
        }
      ],
      "name": "initialize",
      "outputs": [],
      "stateMutability": "nonpayable",
      "type": "function"
    },
    {
      "inputs": [
        {
          "internalType": "uint256",
          "name": "loanId",
          "type": "uint256"
        }
      ],
      "name": "liquidate",
      "outputs": [],
      "stateMutability": "nonpayable",
      "type": "function"
    },
    {
      "inputs": [
        {
          "internalType": "contract IERC20",
          "name": "token",
          "type": "address"
        },
        {
          "internalType": "uint256",
          "name": "initialLoanToValueRatio",
          "type": "uint256"
        }
      ],
      "name": "listCollateralToken",
      "outputs": [],
      "stateMutability": "nonpayable",
      "type": "function"
    },
    {
      "inputs": [
        {
          "internalType": "address",
          "name": "",
          "type": "address"
        },
        {
          "internalType": "uint256",
          "name": "",
          "type": "uint256"
        }
      ],
      "name": "loanIds",
      "outputs": [
        {
          "internalType": "uint256",
          "name": "",
          "type": "uint256"
        }
      ],
      "stateMutability": "view",
      "type": "function"
    },
    {
      "inputs": [
        {
          "internalType": "uint256",
          "name": "",
          "type": "uint256"
        }
      ],
      "name": "loans",
      "outputs": [
        {
          "internalType": "uint256",
          "name": "id",
          "type": "uint256"
        },
        {
          "internalType": "bool",
          "name": "isActive",
          "type": "bool"
        },
        {
          "internalType": "address",
          "name": "borrower",
          "type": "address"
        },
        {
          "internalType": "contract IERC20",
          "name": "collateralToken",
          "type": "address"
        },
        {
          "internalType": "bool",
          "name": "isNativeCurrency",
          "type": "bool"
        },
        {
          "internalType": "contract IPriceOracle",
          "name": "priceOracle",
          "type": "address"
        },
        {
          "internalType": "uint256",
          "name": "interest",
          "type": "uint256"
        },
        {
          "internalType": "uint256",
          "name": "stabilizationFee",
          "type": "uint256"
        },
        {
          "internalType": "uint256",
          "name": "principalAmount",
          "type": "uint256"
        },
        {
          "internalType": "uint256",
          "name": "interestAmount",
          "type": "uint256"
        },
        {
          "internalType": "uint256",
          "name": "collateralAmount",
          "type": "uint256"
        },
        {
          "internalType": "uint256",
          "name": "lastInteractionAt",
          "type": "uint256"
        }
      ],
      "stateMutability": "view",
      "type": "function"
    },
    {
      "inputs": [],
      "name": "mintVoice",
      "outputs": [],
      "stateMutability": "nonpayable",
      "type": "function"
    },
    {
      "inputs": [],
      "name": "nextVoiceMintingStage",
      "outputs": [
        {
          "internalType": "uint256",
          "name": "",
          "type": "uint256"
        }
      ],
      "stateMutability": "view",
      "type": "function"
    },
    {
      "inputs": [
        {
          "internalType": "contract IERC20",
          "name": "token",
          "type": "address"
        },
        {
          "internalType": "uint256",
          "name": "amount",
          "type": "uint256"
        }
      ],
      "name": "onNewDeposit",
      "outputs": [],
      "stateMutability": "nonpayable",
      "type": "function"
    },
    {
      "inputs": [],
      "name": "pendingGovernor",
      "outputs": [
        {
          "internalType": "address",
          "name": "",
          "type": "address"
        }
      ],
      "stateMutability": "view",
      "type": "function"
    },
    {
      "inputs": [],
      "name": "rebalance",
      "outputs": [],
      "stateMutability": "nonpayable",
      "type": "function"
    },
    {
      "inputs": [
        {
          "internalType": "uint256",
          "name": "loanId",
          "type": "uint256"
        },
        {
          "internalType": "uint256",
          "name": "amount",
          "type": "uint256"
        }
      ],
      "name": "repay",
      "outputs": [],
      "stateMutability": "nonpayable",
      "type": "function"
    },
    {
      "inputs": [
        {
          "internalType": "contract IERC20",
          "name": "token",
          "type": "address"
        }
      ],
      "name": "salvage",
      "outputs": [],
      "stateMutability": "nonpayable",
      "type": "function"
    },
    {
      "inputs": [
        {
          "internalType": "contract IERC20",
          "name": "token",
          "type": "address"
        },
        {
          "internalType": "uint256",
          "name": "newInitialLoanToValueRatio",
          "type": "uint256"
        }
      ],
      "name": "setInitialLoanToValueRatio",
      "outputs": [],
      "stateMutability": "nonpayable",
      "type": "function"
    },
    {
      "inputs": [
        {
          "internalType": "address",
          "name": "newGovernor",
          "type": "address"
        },
        {
          "internalType": "bool",
          "name": "force",
          "type": "bool"
        }
      ],
      "name": "transitGovernance",
      "outputs": [],
      "stateMutability": "nonpayable",
      "type": "function"
    },
    {
      "inputs": [
        {
          "internalType": "contract IERC20",
          "name": "token",
          "type": "address"
        }
      ],
      "name": "unlistCollateralToken",
      "outputs": [],
      "stateMutability": "nonpayable",
      "type": "function"
    },
    {
      "stateMutability": "payable",
      "type": "receive"
    }
  ],
  "transactionHash": "0x9512217a540d5cb0f4d1b1c6ed52b828c97a64877ce682f69135d5cc9151d5eb",
  "args": [],
  "solcInputHash": "132a0ae4e0297df67766db98dcfb66e6",
  "bytecode": "0x608060405234801561001057600080fd5b50615ab980620000216000396000f3fe6080604052600436106102025760003560e01c8063b26025aa1161011d578063d8aed145116100b0578063e1ec3c681161007f578063e3056a3411610064578063e3056a34146107a6578063e3930249146107c6578063f2f4eb26146107e657600080fd5b8063e1ec3c68146106fb578063e2bbb1581461078657600080fd5b8063d8aed14514610661578063d988ef2014610681578063ddc12526146106ae578063dfe8f671146106ce57600080fd5b8063cada1a46116100ec578063cada1a4614610548578063cf1762251461055d578063cffbc2971461057f578063d34cf64c1461064e57600080fd5b8063b26025aa146104d3578063b38e4816146104e8578063c4d66de814610508578063c78bede81461052857600080fd5b80634b8a35291161019557806387eae8191161016457806387eae819146104535780638e877d99146104735780638fa1552e146104935780639a5872f4146104b357600080fd5b80634b8a3529146103de57806369dae6c6146103fe5780637d7c2a1c1461041e578063863a03e01461043357600080fd5b8063238efcbc116101d1578063238efcbc14610359578063415f12401461036e57806344dbdd901461038e5780634721f2db146103be57600080fd5b80630b5a017a146102b45780630c340a24146102dd57806314706e14146103155780631cec9e751461033957600080fd5b366102af5760008054906101000a90046001600160a01b03166001600160a01b031663e7f3028c6040518163ffffffff1660e01b8152600401602060405180830381865afa158015610258573d6000803e3d6000fd5b505050506040513d601f19601f8201168201806040525081019061027c919061539a565b6001600160a01b0316336001600160a01b0316146102ad57604051634b908c4f60e01b815260040160405180910390fd5b005b600080fd5b6102c76102c23660046153b7565b610806565b6040516102d4919061548e565b60405180910390f35b3480156102e957600080fd5b506001546102fd906001600160a01b031681565b6040516001600160a01b0390911681526020016102d4565b34801561032157600080fd5b5061032b60095481565b6040519081526020016102d4565b34801561034557600080fd5b5061032b6103543660046153b7565b610a8b565b34801561036557600080fd5b506102ad610b6d565b34801561037a57600080fd5b506102ad6103893660046153b7565b610be6565b34801561039a57600080fd5b506103ae6103a936600461549d565b611050565b6040516102d494939291906154c9565b3480156103ca57600080fd5b506102ad6103d936600461549d565b611100565b3480156103ea57600080fd5b506102c76103f936600461549d565b61120f565b34801561040a57600080fd5b5061032b6104193660046154f6565b61134d565b34801561042a57600080fd5b506102ad6114d3565b34801561043f57600080fd5b506102ad61044e3660046154f6565b61181d565b34801561045f57600080fd5b506102ad61046e36600461549d565b6119ff565b34801561047f57600080fd5b506102ad61048e36600461549d565b61207e565b34801561049f57600080fd5b506103ae6104ae36600461549d565b6125ed565b3480156104bf57600080fd5b5061032b6104ce3660046153b7565b61268d565b3480156104df57600080fd5b5061032b612768565b3480156104f457600080fd5b506103ae61050336600461549d565b612937565b34801561051457600080fd5b506102ad6105233660046154f6565b6129d7565b34801561053457600080fd5b506102ad6105433660046154f6565b612adf565b34801561055457600080fd5b506102ad612bf2565b34801561056957600080fd5b50610572612fda565b6040516102d49190615513565b34801561058b57600080fd5b506105f961059a3660046154f6565b600660208190526000918252604090912080546001820154600283015460038401546004850154600586015496860154600787015460088801546009909801546001600160a01b0397881699979096169794969395929491929091908a565b604080516001600160a01b039b8c1681529a90991660208b0152978901969096526060880194909452608087019290925260a086015260c085015260e0840152610100830152610120820152610140016102d4565b6102ad61065c3660046153b7565b61318c565b34801561066d57600080fd5b506102ad61067c3660046155c2565b61338d565b34801561068d57600080fd5b506106a161069c3660046154f6565b6137ea565b6040516102d491906155e4565b3480156106ba57600080fd5b506102ad6106c9366004615641565b6139a2565b3480156106da57600080fd5b506106ee6106e93660046153b7565b613a85565b6040516102d49190615690565b34801561070757600080fd5b5061071b6107163660046153b7565b613ba2565b604080519c8d529a151560208d01526001600160a01b03998a169a8c019a909a5296881660608b015294151560808a01529590921660a088015260c087015260e0860152610100850192909252610120840191909152610140830152610160820152610180016102d4565b34801561079257600080fd5b506102ad6107a13660046155c2565b613c24565b3480156107b257600080fd5b506002546102fd906001600160a01b031681565b3480156107d257600080fd5b5061032b6107e136600461549d565b613d0c565b3480156107f257600080fd5b506000546102fd906001600160a01b031681565b61080e615305565b6002600354141561083257604051633ee5aeb560e01b815260040160405180910390fd5b600260035560008054604080516339fcc0a360e21b815290516001600160a01b039092169163e7f3028c916004808201926020929091908290030181865afa158015610882573d6000803e3d6000fd5b505050506040513d601f19601f820116820180604052508101906108a6919061539a565b90506000806000806108b88588612937565b60016080850152610140840151939750919550935091506000906108dd9083906156ce565b90508034101561090857604051631e59fc6f60e01b8152600481018290526024015b60405180910390fd5b856001600160a01b031663d0e30db0826040518263ffffffff1660e01b81526004016000604051808303818588803b15801561094357600080fd5b505af1158015610957573d6000803e3d6000fd5b50505050506109f860008054906101000a90046001600160a01b03166001600160a01b031663570ca7356040518163ffffffff1660e01b8152600401602060405180830381865afa1580156109b0573d6000803e3d6000fd5b505050506040513d601f19601f820116820180604052508101906109d4919061539a565b6109e76001600160a01b03891685613d3d565b6001600160a01b0389169190613ddc565b34818103908214610a6e57604051600090339083908381818185875af1925050503d8060008114610a45576040519150601f19603f3d011682016040523d82523d6000602084013e610a4a565b606091505b5050905080610a6c57604051638762150d60e01b815260040160405180910390fd5b505b610a79868686613e54565b60016003559998505050505050505050565b60008060048381548110610aa157610aa16156e6565b60009182526020918290206040805161018081018252600a90930290910180548352600181015460ff8082161515958501959095526001600160a01b036101009182900481169385019390935260028201548084166060860152600160a01b900490941615156080840152600381015490911660a0830152600481015460c0830152600581015460e0830152600681015492820192909252600782015461012082015260088201546101408201526009909101546101608201529050610b6681614504565b9392505050565b6002546001600160a01b03163314610b985760405163aec80d4b60e01b815260040160405180910390fd5b600254600180546001600160a01b0319166001600160a01b03909216918217905560405181907f564590b81987d147246f63910a8e1ee4eb09c4d64cc75ee975a8ffedfcc2210e90600090a3565b600454819081101580610c20575060048181548110610c0757610c076156e6565b600091825260209091206001600a90920201015460ff16155b15610c41576040516372c4e6fd60e01b8152600481018290526024016108ff565b816002610c4d82613a85565b6002811115610c5e57610c5e61567a565b14610c7e57604051621e4f3560e61b8152600481018290526024016108ff565b600060048481548110610c9357610c936156e6565b600091825260208083206008600a909302019182015460028301546001600160a01b03168452600690915260408320600901805492945090929091610cd99084906156fc565b909155505060005460408051638a2381d760e01b81529051610d81926001600160a01b031691638a2381d79160048083019260209291908290030181865afa158015610d29573d6000803e3d6000fd5b505050506040513d601f19601f82011682018060405250810190610d4d919061539a565b60088301546002840154610d6c916001600160a01b0390911690613d3d565b60028401546001600160a01b03169190613ddc565b60008060009054906101000a90046001600160a01b03166001600160a01b0316634c4e61e96040518163ffffffff1660e01b8152600401602060405180830381865afa158015610dd5573d6000803e3d6000fd5b505050506040513d601f19601f82011682018060405250810190610df9919061539a565b604080516101808101825284548152600185015460ff808216151560208401526001600160a01b036101009283900481169484019490945260028701548085166060850152600160a01b90041615156080830152600386015490921660a0820152600485015460c0820152600585015460e0820152600685015491810191909152600784015461012082015260088401546101408201526009840154610160820152909150600090610eaa9061455a565b9050816001600160a01b0316639dc29fac60008054906101000a90046001600160a01b03166001600160a01b0316634046ebae6040518163ffffffff1660e01b8152600401602060405180830381865afa158015610f0c573d6000803e3d6000fd5b505050506040513d601f19601f82011682018060405250810190610f30919061539a565b60068601546040516001600160e01b031960e085901b1681526001600160a01b0390921660048301526024820152604401600060405180830381600087803b158015610f7b57600080fd5b505af1158015610f8f573d6000803e3d6000fd5b50505050816001600160a01b0316639dc29fac30856006015484610fb391906156fc565b6040516001600160e01b031960e085901b1681526001600160a01b0390921660048301526024820152604401600060405180830381600087803b158015610ff957600080fd5b505af115801561100d573d6000803e3d6000fd5b50505060018401805460ff191690555060405186907fc9e9d7cf3944e82f1fe222573e1c9acf5a2f6cd29aa9639bc8078065f091bb6b90600090a2505050505050565b611058615305565b6001600160a01b0380841660009081526006602081815260408084208151610140810183528154871681526001820154909616928601929092526002820154908501526003810154606085015260048101546080850152600581015460a08501529081015460c0840152600781015460e084015260088101546101008401526009015461012083015290819081906110f090866145e5565b9299919850965090945092505050565b6001546001600160a01b0316331461112b576040516305e7700560e51b815260040160405180910390fd5b6001600160a01b03821660009081526008602052604090205461116c57604051634cbfe6c960e11b81526001600160a01b03831660048201526024016108ff565b6001600160a01b0382166000908152600660205260409020600781015482106111ba57604051630d12026b60e31b81526001600160a01b0384166004820152602481018390526044016108ff565b6006810180549083905560408051828152602081018590526001600160a01b038616917fc6a8c526618a1ece6f5d33564501b92330c354faa23902079359e52c8efd72f391015b60405180910390a250505050565b611217615305565b6001600160a01b038316600090815260086020526040902054839061125a576040516308cfe49560e31b81526001600160a01b03821660048201526024016108ff565b60008060008061126a8888612937565b93509350935093506113103360008054906101000a90046001600160a01b03166001600160a01b031663570ca7356040518163ffffffff1660e01b8152600401602060405180830381865afa1580156112c7573d6000803e3d6000fd5b505050506040513d601f19601f820116820180604052508101906112eb919061539a565b6112fe6001600160a01b038c1685613d3d565b6001600160a01b038c169291906146e1565b61133633306112fe8761014001518c6001600160a01b0316613d3d90919063ffffffff16565b611341848484613e54565b98975050505050505050565b6001600160a01b0380821660009081526006602081815260408084208151610140810183528154871681526001820154909616928601929092526002820154908501526003810154606085015260048101546080850152600581015460a08501529081015460c0840152600781015460e0840152600881015461010084015260090154610120830152906113e090614719565b905060008054906101000a90046001600160a01b03166001600160a01b0316630e0603786040518163ffffffff1660e01b8152600401602060405180830381865afa158015611433573d6000803e3d6000fd5b505050506040513d601f19601f82011682018060405250810190611457919061539a565b6040516334ed736360e11b81526001600160a01b03848116600483015291909116906369dae6c690602401602060405180830381865afa15801561149f573d6000803e3d6000fd5b505050506040513d601f19601f820116820180604052508101906114c39190615713565b6114cd90826156ce565b92915050565b60008060009054906101000a90046001600160a01b03166001600160a01b0316634c4e61e96040518163ffffffff1660e01b8152600401602060405180830381865afa158015611527573d6000803e3d6000fd5b505050506040513d601f19601f8201168201806040525081019061154b919061539a565b90506000611557612768565b90506000826001600160a01b03166318160ddd6040518163ffffffff1660e01b8152600401602060405180830381865afa158015611599573d6000803e3d6000fd5b505050506040513d601f19601f820116820180604052508101906115bd9190615713565b905060006115cb838361572c565b905060006115d8826147ba565b905060006115e682856147d6565b905060008054906101000a90046001600160a01b03166001600160a01b031663ee0e54cb6040518163ffffffff1660e01b8152600401602060405180830381865afa158015611639573d6000803e3d6000fd5b505050506040513d601f19601f8201168201806040525081019061165d9190615713565b81101561167d576040516363b74cfb60e01b815260040160405180910390fd5b600083131561177b57604051632770a7eb60e21b8152306004820152602481018390526001600160a01b03871690639dc29fac90604401600060405180830381600087803b1580156116ce57600080fd5b505af19250505080156116df575060015b611776576040516370a0823160e01b81523060048201526000906001600160a01b038816906370a0823190602401602060405180830381865afa15801561172a573d6000803e3d6000fd5b505050506040513d601f19601f8201168201806040525081019061174e9190615713565b905061175a81846156fc565b60405163dc14e6f760e01b81526004016108ff91815260200190565b6117dc565b6040516340c10f1960e01b8152306004820152602481018390526001600160a01b038716906340c10f1990604401600060405180830381600087803b1580156117c357600080fd5b505af11580156117d7573d6000803e3d6000fd5b505050505b60408051848152600060208201527fa28b2542ba9417cd775031511e43f71654a0b34eeb1acafae2c5d5a06b365abc910160405180910390a1505050505050565b6001546001600160a01b03163314611848576040516305e7700560e51b815260040160405180910390fd5b60005460408051634c4e61e960e01b8152905183926001600160a01b031691634c4e61e99160048083019260209291908290030181865afa158015611891573d6000803e3d6000fd5b505050506040513d601f19601f820116820180604052508101906118b5919061539a565b6001600160a01b0316816001600160a01b031614806118eb57506001600160a01b03811660009081526008602052604090205415155b156119135760405162919e6d60e01b81526001600160a01b03831660048201526024016108ff565b6000546040805163570ca73560e01b815290516119fb926001600160a01b03169163570ca7359160048083019260209291908290030181865afa15801561195e573d6000803e3d6000fd5b505050506040513d601f19601f82011682018060405250810190611982919061539a565b6040516370a0823160e01b81523060048201526001600160a01b038516906370a0823190602401602060405180830381865afa1580156119c6573d6000803e3d6000fd5b505050506040513d601f19601f820116820180604052508101906119ea9190615713565b6001600160a01b0385169190613ddc565b5050565b6001546001600160a01b03163314611a2a576040516305e7700560e51b815260040160405180910390fd5b6001600160a01b03821660009081526008602052604090205415611a6c5760405163ca6d908160e01b81526001600160a01b03831660048201526024016108ff565b60008054906101000a90046001600160a01b03166001600160a01b031663d876d98e6040518163ffffffff1660e01b8152600401602060405180830381865afa158015611abd573d6000803e3d6000fd5b505050506040513d601f19601f82011682018060405250810190611ae19190615713565b8110611b1257604051630d12026b60e31b81526001600160a01b0383166004820152602481018290526044016108ff565b6000826001600160a01b031663313ce5676040518163ffffffff1660e01b8152600401602060405180830381865afa158015611b52573d6000803e3d6000fd5b505050506040513d601f19601f82011682018060405250810190611b769190615784565b905060ff8116611ba45760405163016058a160e51b81526001600160a01b03841660048201526024016108ff565b601260ff82161115611bdd5760405163dbba24db60e01b81526001600160a01b038416600482015260ff821660248201526044016108ff565b611be86007846147eb565b1561207957604051806101400160405280846001600160a01b0316815260200160008054906101000a90046001600160a01b03166001600160a01b0316632630c12f6040518163ffffffff1660e01b8152600401602060405180830381865afa158015611c59573d6000803e3d6000fd5b505050506040513d601f19601f82011682018060405250810190611c7d919061539a565b6001600160a01b0316815260200160008054906101000a90046001600160a01b03166001600160a01b031663361416e16040518163ffffffff1660e01b8152600401602060405180830381865afa158015611cdc573d6000803e3d6000fd5b505050506040513d601f19601f82011682018060405250810190611d009190615713565b815260200160008054906101000a90046001600160a01b03166001600160a01b03166342580dbe6040518163ffffffff1660e01b8152600401602060405180830381865afa158015611d56573d6000803e3d6000fd5b505050506040513d601f19601f82011682018060405250810190611d7a9190615713565b815260200160008054906101000a90046001600160a01b03166001600160a01b0316632ecd3be46040518163ffffffff1660e01b8152600401602060405180830381865afa158015611dd0573d6000803e3d6000fd5b505050506040513d601f19601f82011682018060405250810190611df49190615713565b815260200160008054906101000a90046001600160a01b03166001600160a01b031663a5f3d0036040518163ffffffff1660e01b8152600401602060405180830381865afa158015611e4a573d6000803e3d6000fd5b505050506040513d601f19601f82011682018060405250810190611e6e9190615713565b815260200183815260200160008054906101000a90046001600160a01b03166001600160a01b031663d876d98e6040518163ffffffff1660e01b8152600401602060405180830381865afa158015611eca573d6000803e3d6000fd5b505050506040513d601f19601f82011682018060405250810190611eee9190615713565b815260200160008054906101000a90046001600160a01b03166001600160a01b0316634433c5e86040518163ffffffff1660e01b8152600401602060405180830381865afa158015611f44573d6000803e3d6000fd5b505050506040513d601f19601f82011682018060405250810190611f689190615713565b8152600060209182018190526001600160a01b0386811680835260068085526040808520875181546001600160a01b031990811691871691909117825596880151600182018054909816951694909417909555858501516002840155606086015160038401556080860151600484015560a0860151600584015560c08601519083015560e0850151600783015561010085015160088301556101209094015160099091015590517f55dcc5a02a669292f3baba7762915a1182901a9c28a30cc15d3325afcbb4bccc9190a26040805160008152602081018490526001600160a01b038516917fc6a8c526618a1ece6f5d33564501b92330c354faa23902079359e52c8efd72f3910160405180910390a25b505050565b60008054906101000a90046001600160a01b03166001600160a01b0316630e0603786040518163ffffffff1660e01b8152600401602060405180830381865afa1580156120cf573d6000803e3d6000fd5b505050506040513d601f19601f820116820180604052508101906120f3919061539a565b6001600160a01b0316336001600160a01b0316146121245760405163c4ff0b3560e01b815260040160405180910390fd5b60008060009054906101000a90046001600160a01b03166001600160a01b0316634c4e61e96040518163ffffffff1660e01b8152600401602060405180830381865afa158015612178573d6000803e3d6000fd5b505050506040513d601f19601f8201168201806040525081019061219c919061539a565b9050806001600160a01b0316836001600160a01b031614156121bd57505050565b60005460408051632630c12f60e01b8152905161229f926001600160a01b031691632630c12f9160048083019260209291908290030181865afa158015612208573d6000803e3d6000fd5b505050506040513d601f19601f8201168201806040525081019061222c919061539a565b604051630787c49960e21b81526001600160a01b0386811660048301529190911690631e1f126490602401602060405180830381865afa158015612274573d6000803e3d6000fd5b505050506040513d601f19601f820116820180604052508101906122989190615713565b839061485b565b9150806001600160a01b03166340c10f193061233060008054906101000a90046001600160a01b03166001600160a01b03166342580dbe6040518163ffffffff1660e01b8152600401602060405180830381865afa158015612305573d6000803e3d6000fd5b505050506040513d601f19601f820116820180604052508101906123299190615713565b869061485b565b6040516001600160e01b031960e085901b1681526001600160a01b0390921660048301526024820152604401600060405180830381600087803b15801561237657600080fd5b505af115801561238a573d6000803e3d6000fd5b50505050806001600160a01b03166340c10f1960008054906101000a90046001600160a01b03166001600160a01b0316634c12d4716040518163ffffffff1660e01b8152600401602060405180830381865afa1580156123ee573d6000803e3d6000fd5b505050506040513d601f19601f82011682018060405250810190612412919061539a565b60005460408051630bb34ef960e21b8152905161245d926001600160a01b031691632ecd3be49160048083019260209291908290030181865afa158015612305573d6000803e3d6000fd5b6040516001600160e01b031960e085901b1681526001600160a01b0390921660048301526024820152604401600060405180830381600087803b1580156124a357600080fd5b505af11580156124b7573d6000803e3d6000fd5b50505050806001600160a01b03166340c10f1960008054906101000a90046001600160a01b03166001600160a01b0316638a2381d76040518163ffffffff1660e01b8152600401602060405180830381865afa15801561251b573d6000803e3d6000fd5b505050506040513d601f19601f8201168201806040525081019061253f919061539a565b6000546040805163a5f3d00360e01b8152905161258a926001600160a01b03169163a5f3d0039160048083019260209291908290030181865afa158015612305573d6000803e3d6000fd5b6040516001600160e01b031960e085901b1681526001600160a01b0390921660048301526024820152604401600060405180830381600087803b1580156125d057600080fd5b505af11580156125e4573d6000803e3d6000fd5b50505050505050565b6125f5615305565b6001600160a01b0380841660009081526006602081815260408084208151610140810183528154871681526001820154909616928601929092526002820154908501526003810154606085015260048101546080850152600581015460a08501529081015460c0840152600781015460e084015260088101546101008401526009015461012083015290819081906110f0908661492b565b600080600483815481106126a3576126a36156e6565b60009182526020918290206040805161018081018252600a90930290910180548352600181015460ff8082161515958501959095526001600160a01b036101009182900481169385019390935260028201548084166060860152600160a01b900490941615156080840152600381015490911660a0830152600481015460c0830152600581015460e0830152600681015492820192909252600782015461012082015260088201546101408201526009909101546101608201529050610b6681614af2565b6000805b600754811015612851576128336006600060076000018481548110612793576127936156e6565b60009182526020808320909101546001600160a01b0390811684528382019490945260409283019091208251610140810184528154851681526001820154909416918401919091526002810154918301919091526003810154606083015260048101546080830152600581015460a0830152600681015460c0830152600781015460e0830152600881015461010083015260090154610120820152614719565b61283d90836156ce565b915080612849816157a7565b91505061276c565b5060008054906101000a90046001600160a01b03166001600160a01b0316630e0603786040518163ffffffff1660e01b8152600401602060405180830381865afa1580156128a3573d6000803e3d6000fd5b505050506040513d601f19601f820116820180604052508101906128c7919061539a565b6001600160a01b031663b26025aa6040518163ffffffff1660e01b8152600401602060405180830381865afa158015612904573d6000803e3d6000fd5b505050506040513d601f19601f820116820180604052508101906129289190615713565b61293290826156ce565b905090565b61293f615305565b6001600160a01b0380841660009081526006602081815260408084208151610140810183528154871681526001820154909616928601929092526002820154908501526003810154606085015260048101546080850152600581015460a08501529081015460c0840152600781015460e084015260088101546101008401526009015461012083015290819081906110f09086614b34565b600254600160a01b900460ff16158015612a0c57506002547501000000000000000000000000000000000000000000900460ff165b15612a2a57604051631ee1e30360e21b815260040160405180910390fd5b600254600160a01b900460ff16158015612a7f57600280547fffffffffffffffffffff0000ffffffffffffffffffffffffffffffffffffffff1675010100000000000000000000000000000000000000001790555b612a896001600355565b600080546001600160a01b0319166001600160a01b038416179055612aad33614d01565b80156119fb57600280547fffffffffffffffffffffff00ffffffffffffffffffffffffffffffffffffffff1690555050565b6001546001600160a01b03163314612b0a576040516305e7700560e51b815260040160405180910390fd5b6001600160a01b038116600090815260086020526040902054612b4b57604051634cbfe6c960e11b81526001600160a01b03821660048201526024016108ff565b612b56600782614d4d565b15612bef576001600160a01b038116600081815260066020819052604080832080546001600160a01b0319908116825560018201805490911690556002810184905560038101849055600481018490556005810184905591820183905560078201839055600882018390556009909101829055517f6d08717837ebdfd34a4ddffe3e4566e0a68e8dde2464854e9242a8f7e6399a339190a25b50565b60008060009054906101000a90046001600160a01b03166001600160a01b0316639dca3fe36040518163ffffffff1660e01b8152600401600060405180830381865afa158015612c46573d6000803e3d6000fd5b505050506040513d6000823e601f3d908101601f19168201604052612c6e91908101906157d8565b90506000815190508060095410612c985760405163452402b760e11b815260040160405180910390fd5b6000612ca2612768565b6009549091506000905b83811015612d2b57600080612cf2878481518110612ccc57612ccc6156e6565b6020026020010151608081901c916fffffffffffffffffffffffffffffffff9190911690565b9150915081851015612d0a5750506009819055612d2b565b612d1481856156ce565b935050508080612d23906157a7565b915050612cac565b5080612d4a57604051631d3e08c760e21b815260040160405180910390fd5b60008060009054906101000a90046001600160a01b03166001600160a01b0316638b02d3176040518163ffffffff1660e01b8152600401602060405180830381865afa158015612d9e573d6000803e3d6000fd5b505050506040513d601f19601f82011682018060405250810190612dc2919061539a565b6040516340c10f1960e01b8152306004820152602481018490529091506001600160a01b038216906340c10f1990604401600060405180830381600087803b158015612e0d57600080fd5b505af1158015612e21573d6000803e3d6000fd5b5050505060008060009054906101000a90046001600160a01b03166001600160a01b0316635747cb136040518163ffffffff1660e01b8152600401602060405180830381865afa158015612e79573d6000803e3d6000fd5b505050506040513d601f19601f82011682018060405250810190612e9d9190615713565b905060008060009054906101000a90046001600160a01b03166001600160a01b031663e5265d886040518163ffffffff1660e01b8152600401600060405180830381865afa158015612ef3573d6000803e3d6000fd5b505050506040513d6000823e601f3d908101601f19168201604052612f1b91908101906157d8565b905060005b8151811015612f9657600080612f63848481518110612f4157612f416156e6565b6020026020010151606081901c916bffffffffffffffffffffffff9190911690565b9092509050612f818286612f77848b61588a565b6109e791906158a9565b50508080612f8e906157a7565b915050612f20565b506040805160008152602081018690527fa28b2542ba9417cd775031511e43f71654a0b34eeb1acafae2c5d5a06b365abc910160405180910390a150505050505050565b6007546060908067ffffffffffffffff811115612ff957612ff96157c2565b60405190808252806020026020018201604052801561309257816020015b61307f60405180610140016040528060006001600160a01b0316815260200160006001600160a01b0316815260200160008152602001600081526020016000815260200160008152602001600081526020016000815260200160008152602001600081525090565b8152602001906001900390816130175790505b50915060005b818110156131875760066000600760000183815481106130ba576130ba6156e6565b60009182526020808320909101546001600160a01b0390811684528382019490945260409283019091208251610140810184528154851681526001820154909416918401919091526002810154918301919091526003810154606083015260048101546080830152600581015460a0830152600681015460c0830152600781015460e08301526008810154610100830152600901546101208201528351849083908110613169576131696156e6565b6020026020010181905250808061317f906157a7565b915050613098565b505090565b600260035414156131b057604051633ee5aeb560e01b815260040160405180910390fd5b60026003556004548190811015806131ef5750600481815481106131d6576131d66156e6565b600091825260209091206001600a90920201015460ff16155b15613210576040516372c4e6fd60e01b8152600481018290526024016108ff565b81600261321c82613a85565b600281111561322d5761322d61567a565b141561324f57604051633d240fc360e01b8152600481018290526024016108ff565b60008060009054906101000a90046001600160a01b03166001600160a01b031663e7f3028c6040518163ffffffff1660e01b8152600401602060405180830381865afa1580156132a3573d6000803e3d6000fd5b505050506040513d601f19601f820116820180604052508101906132c7919061539a565b9050806001600160a01b0316600485815481106132e6576132e66156e6565b600091825260209091206002600a9092020101546001600160a01b03161461332457604051635d64f43b60e01b8152600481018590526024016108ff565b806001600160a01b031663d0e30db0346040518263ffffffff1660e01b81526004016000604051808303818588803b15801561335f57600080fd5b505af1158015613373573d6000803e3d6000fd5b50505050506133828434614e86565b505060016003555050565b600260035414156133b157604051633ee5aeb560e01b815260040160405180910390fd5b60026003556004548290811015806133f05750600481815481106133d7576133d76156e6565b600091825260209091206001600a90920201015460ff16155b15613411576040516372c4e6fd60e01b8152600481018290526024016108ff565b82600261341d82613a85565b600281111561342e5761342e61567a565b141561345057604051633d240fc360e01b8152600481018290526024016108ff565b8261346e57604051631d23e67d60e21b815260040160405180910390fd5b600060048581548110613483576134836156e6565b90600052602060002090600a0201905061349c81614f78565b6134b9816007015482600601546134b391906156ce565b8561503e565b935060008085836007015410156135075760078301546134d990876156fc565b905082600701549150808360060160008282546134f691906156fc565b909155505060006007840155613524565b8591508183600701600082825461351e91906156fc565b90915550505b60008060009054906101000a90046001600160a01b03166001600160a01b0316634c4e61e96040518163ffffffff1660e01b8152600401602060405180830381865afa158015613578573d6000803e3d6000fd5b505050506040513d601f19601f8201168201806040525081019061359c919061539a565b9050821561362f5761362f3360008054906101000a90046001600160a01b03166001600160a01b0316638a2381d76040518163ffffffff1660e01b8152600401602060405180830381865afa1580156135f9573d6000803e3d6000fd5b505050506040513d601f19601f8201168201806040525081019061361d919061539a565b6001600160a01b0384169190866146e1565b811561364a5761364a6001600160a01b0382163330856146e1565b42600985015560068401541561369957877f552544cb36551120f07c66c5cd4b2987725a0c72198587f2ce796099bb66c58c8860405161368c91815260200190565b60405180910390a26137db565b600884015460028501546000916136b9916001600160a01b031690613d3d565b600886015460028701546001600160a01b03166000908152600660205260408120600901805493945091926136ef9084906156fc565b90915550506000600886015560058501546001600160a01b03831690639dc29fac90309061371d908c6156ce565b6040516001600160e01b031960e085901b1681526001600160a01b0390921660048301526024820152604401600060405180830381600087803b15801561376357600080fd5b505af1158015613777573d6000803e3d6000fd5b50505060018601805460ff191690555060405189907f33a382daad6aace935340a474d09fec82af4bec7e2b69518d283231b03a65f2490600090a2600185015460028601546137d9916001600160a01b03918216916101009091041683613ddc565b505b50506001600355505050505050565b6001600160a01b0381166000908152600560205260409020546060908067ffffffffffffffff81111561381f5761381f6157c2565b60405190808252806020026020018201604052801561385857816020015b613845615305565b81526020019060019003908161383d5790505b50915060005b8181101561399b576001600160a01b038416600090815260056020526040902080546004919083908110613894576138946156e6565b9060005260206000200154815481106138af576138af6156e6565b60009182526020918290206040805161018081018252600a90930290910180548352600181015460ff8082161515958501959095526001600160a01b036101009182900481169385019390935260028201548084166060860152600160a01b900490941615156080840152600381015490911660a0830152600481015460c0830152600581015460e083015260068101549282019290925260078201546101208201526008820154610140820152600990910154610160820152835184908390811061397d5761397d6156e6565b60200260200101819052508080613993906157a7565b91505061385e565b5050919050565b6001546001600160a01b031633146139cd576040516305e7700560e51b815260040160405180910390fd5b6001600160a01b0382166139f45760405163604b48b960e11b815260040160405180910390fd5b6001600160a01b038216301415613a1e576040516306b3e95d60e21b815260040160405180910390fd5b600280546001600160a01b0319166001600160a01b03841617905580613a7c576001546040516001600160a01b038085169216907fc606c9af1451cadeb333f6ff7b24a5540974f4e800bac274fa7fff9edc305cb190600090a35050565b6119fb82614d01565b600080613a9183610a8b565b905060008054906101000a90046001600160a01b03166001600160a01b0316634433c5e86040518163ffffffff1660e01b8152600401602060405180830381865afa158015613ae4573d6000803e3d6000fd5b505050506040513d601f19601f82011682018060405250810190613b089190615713565b811015613b995760008054906101000a90046001600160a01b03166001600160a01b031663d876d98e6040518163ffffffff1660e01b8152600401602060405180830381865afa158015613b60573d6000803e3d6000fd5b505050506040513d601f19601f82011682018060405250810190613b849190615713565b811015613b92576000610b66565b6001610b66565b60029392505050565b60048181548110613bb257600080fd5b60009182526020909120600a9091020180546001820154600283015460038401546004850154600586015460068701546007880154600889015460099099015497995060ff808816996101009098046001600160a01b039081169981891699600160a01b90990490921697961695908c565b600454829081101580613c5e575060048181548110613c4557613c456156e6565b600091825260209091206001600a90920201015460ff16155b15613c7f576040516372c4e6fd60e01b8152600481018290526024016108ff565b826002613c8b82613a85565b6002811115613c9c57613c9c61567a565b1415613cbe57604051633d240fc360e01b8152600481018290526024016108ff565b613cfc33308560048881548110613cd757613cd76156e6565b600091825260209091206002600a9092020101546001600160a01b03169291906146e1565b613d068484614e86565b50505050565b60056020528160005260406000208181548110613d2857600080fd5b90600052602060002001600091509150505481565b600080836001600160a01b031663313ce5676040518163ffffffff1660e01b8152600401602060405180830381865afa158015613d7e573d6000803e3d6000fd5b505050506040513d601f19601f82011682018060405250810190613da29190615784565b613dad9060126158cb565b613db890600a6159d2565b905080600114613dd457613dcc81846158a9565b9150506114cd565b509092915050565b6040516001600160a01b03831660248201526044810182905261207990849063a9059cbb60e01b906064015b60408051601f198184030181529190526020810180517bffffffffffffffffffffffffffffffffffffffffffffffffffffffff166001600160e01b031990931692909217909152615054565b613e5c615305565b610100840151613e7f576040516379d1504360e01b815260040160405180910390fd5b60008054906101000a90046001600160a01b03166001600160a01b0316630b68a5806040518163ffffffff1660e01b8152600401602060405180830381865afa158015613ed0573d6000803e3d6000fd5b505050506040513d601f19601f82011682018060405250810190613ef49190615713565b8461010001511015613f1957604051631efe3f1960e11b815260040160405180910390fd5b60008060009054906101000a90046001600160a01b03166001600160a01b0316634c4e61e96040518163ffffffff1660e01b8152600401602060405180830381865afa158015613f6d573d6000803e3d6000fd5b505050506040513d601f19601f82011682018060405250810190613f91919061539a565b60e08601516040516340c10f1960e01b815230600482015260248101919091529091506001600160a01b038216906340c10f1990604401600060405180830381600087803b158015613fe257600080fd5b505af1158015613ff6573d6000803e3d6000fd5b50505050806001600160a01b03166340c10f1960008054906101000a90046001600160a01b03166001600160a01b0316634c12d4716040518163ffffffff1660e01b8152600401602060405180830381865afa15801561405a573d6000803e3d6000fd5b505050506040513d601f19601f8201168201806040525081019061407e919061539a565b6040516001600160e01b031960e084901b1681526001600160a01b03909116600482015260248101879052604401600060405180830381600087803b1580156140c657600080fd5b505af11580156140da573d6000803e3d6000fd5b50505050806001600160a01b03166340c10f1960008054906101000a90046001600160a01b03166001600160a01b0316638a2381d76040518163ffffffff1660e01b8152600401602060405180830381865afa15801561413e573d6000803e3d6000fd5b505050506040513d601f19601f82011682018060405250810190614162919061539a565b6040516001600160e01b031960e084901b1681526001600160a01b03909116600482015260248101869052604401600060405180830381600087803b1580156141aa57600080fd5b505af11580156141be573d6000803e3d6000fd5b5050505060408581015161010087015191516340c10f1960e01b81526001600160a01b03918216600482015260248101929092528216906340c10f1990604401600060405180830381600087803b15801561421857600080fd5b505af115801561422c573d6000803e3d6000fd5b505060048054808952600054604080516361c97bb360e11b815290519295506001600160a01b03909116935063c392f76692818101926020929091908290030181865afa158015614281573d6000803e3d6000fd5b505050506040513d601f19601f820116820180604052508101906142a59190615713565b8660c001818152505060048690806001815401808255809150506001900390600052602060002090600a02016000909190919091506000820151816000015560208201518160010160006101000a81548160ff02191690831515021790555060408201518160010160016101000a8154816001600160a01b0302191690836001600160a01b0316021790555060608201518160020160006101000a8154816001600160a01b0302191690836001600160a01b0316021790555060808201518160020160146101000a81548160ff02191690831515021790555060a08201518160030160006101000a8154816001600160a01b0302191690836001600160a01b0316021790555060c0820151816004015560e08201518160050155610100820151816006015561012082015181600701556101408201518160080155610160820151816009015550506005600087604001516001600160a01b03166001600160a01b031681526020019081526020016000208190806001815401808255809150506001900390600052602060002001600090919091909150558561014001516006600088606001516001600160a01b03166001600160a01b03168152602001908152602001600020600901600082825461447e91906156ce565b90915550506060808701516040808901516101008a01516101408b01516001600160a01b0394851660008181526006602081815291879020015486519485529084019290925293820152919392169184917f1c719a9a8ef2d44db7255e8d65b4a18a23f44758d6ebc0d6b80fe018d25433fb910160405180910390a45093949350505050565b60008161010001516000141561451c57506000919050565b61014082015161452f5750600019919050565b6114cd61453b8361455a565b61454484614af2565b84610100015161455491906156ce565b906147d6565b60a08101516060820151604051630787c49960e21b81526001600160a01b03918216600482015260009283921690631e1f126490602401602060405180830381865afa1580156145ae573d6000803e3d6000fd5b505050506040513d601f19601f820116820180604052508101906145d29190615713565b610140840151909150610b66908261485b565b6145ed615305565b60208301518351604051630787c49960e21b81526001600160a01b0391821660048201526000928392839283929190911690631e1f126490602401602060405180830381865afa158015614645573d6000803e3d6000fd5b505050506040513d601f19601f820116820180604052508101906146699190615713565b905060006146888860c00151896040015161485b90919063ffffffff16565b905060006146c26146a1670de0b6b3a7640000846156ce565b614554856146bc8d60c001518d61485b90919063ffffffff16565b9061485b565b90506146ce8982614b34565b929c919b50995090975095505050505050565b6040516001600160a01b0380851660248301528316604482015260648101829052613d069085906323b872dd60e01b90608401613e08565b60008161012001516000141561473157506000919050565b60208201518251604051630787c49960e21b81526001600160a01b0391821660048201526000929190911690631e1f126490602401602060405180830381865afa158015614783573d6000803e3d6000fd5b505050506040513d601f19601f820116820180604052508101906147a79190615713565b610120840151909150610b66908261485b565b6000808212156147d2576147cd826159e1565b6114cd565b5090565b6000610b6683670de0b6b3a7640000846150de565b6001600160a01b038116600090815260018301602052604081205415614813575060006114cd565b508154600180820184556000848152602080822090930180546001600160a01b0319166001600160a01b03959095169485179055845493815293810190915260409092205590565b60008080600019848609848602925082811083820303915050670de0b6b3a764000081106148ad5760405163072fa3c960e31b815260048101829052670de0b6b3a764000060248201526044016108ff565b600080670de0b6b3a76400008688099150506706f05b59d3b1ffff8111826148e75780670de0b6b3a76400008504019450505050506114cd565b620400008285030493909111909103600160ee1b02919091177faccb18165bd6fe31ae1cf318dc5b51eee0e1ba569b88cd74c1773b91fac106690201905092915050565b614933615305565b60208301518351604051630787c49960e21b81526001600160a01b0391821660048201526000928392839283929190911690631e1f126490602401602060405180830381865afa15801561498b573d6000803e3d6000fd5b505050506040513d601f19601f820116820180604052508101906149af9190615713565b905060006149ce826146bc8a60c001518a61485b90919063ffffffff16565b60c08901519091506000906149f9906145546149f282670de0b6b3a76400006156fc565b859061485b565b90506000614a148a606001518361485b90919063ffffffff16565b9050614a2d8a608001518361485b90919063ffffffff16565b9650614a468a60a001518361485b90919063ffffffff16565b9550614a6384614554858d6040015161485b90919063ffffffff16565b945060405180610180016040528060008152602001600115158152602001336001600160a01b031681526020018b600001516001600160a01b031681526020016000151581526020018b602001516001600160a01b0316815260200160008152602001828152602001848152602001600081526020018a81526020014281525097505050505092959194509250565b60006114cd614b20670de0b6b3a76400006301e187e085610160015142614b1991906156fc565b91906150de565b60c08401516101008501516146bc9161485b565b614b3c615305565b60208301518351604051630787c49960e21b81526001600160a01b0391821660048201526000928392839283929190911690631e1f126490602401602060405180830381865afa158015614b94573d6000803e3d6000fd5b505050506040513d601f19601f82011682018060405250810190614bb89190615713565b60c0880151909150600090614be390614554614bdc82670de0b6b3a76400006156fc565b8a9061485b565b90506000614bfe89606001518361485b90919063ffffffff16565b9050614c1789608001518361485b90919063ffffffff16565b9550614c308960a001518361485b90919063ffffffff16565b94506000614c55614c4e858c60c0015161485b90919063ffffffff16565b8a906147d6565b9050614c72846145548b8d6040015161485b90919063ffffffff16565b945060405180610180016040528060008152602001600115158152602001336001600160a01b031681526020018b600001516001600160a01b031681526020016000151581526020018b602001516001600160a01b03168152602001600081526020018381526020018a8152602001600081526020018281526020014281525097505050505092959194509250565b600180546001600160a01b0319166001600160a01b03831690811790915560405181907f564590b81987d147246f63910a8e1ee4eb09c4d64cc75ee975a8ffedfcc2210e90600090a350565b6001600160a01b038116600090815260018301602052604081205480614d775760009150506114cd565b6000614d846001836156fc565b905060006001614d92875490565b614d9c91906156fc565b9050808214614e28576000866000018281548110614dbc57614dbc6156e6565b60009182526020909120015487546001600160a01b0390911691508190889085908110614deb57614deb6156e6565b600091825260208083209190910180546001600160a01b0319166001600160a01b0394851617905592909116815260018801909152604090208390555b8554869080614e3957614e396159fe565b60008281526020808220830160001990810180546001600160a01b03191690559092019092556001600160a01b038716825260018881019091526040822091909155935050505092915050565b80614ea457604051635491c16d60e01b815260040160405180910390fd5b600060048381548110614eb957614eb96156e6565b90600052602060002090600a02019050614ed281614f78565b6002810154600090614eed906001600160a01b03168461519a565b905080826008016000828254614f0391906156ce565b90915550504260098084019190915560028301546001600160a01b031660009081526006602052604081209091018054839290614f419084906156ce565b909155505060405181815284907fa3af609bf46297028ce551832669030f9effef2b02606d02cbbcc40fe6b47c5590602001611201565b604080516101808101825282548152600183015460ff808216151560208401526001600160a01b036101009283900481169484019490945260028501548085166060850152600160a01b90041615156080830152600384015490921660a0820152600483015460c0820152600583015460e082015260068301549181019190915260078201546101208201526008820154610140820152600982015461016082015261502390614af2565b81600701600082825461503691906156ce565b909155505050565b600081831061504d5781610b66565b5090919050565b6040805180820190915260208082527f5361666545524332303a206c6f772d6c6576656c2063616c6c206661696c65649082015282906000906150a3906001600160a01b038416908590615229565b805190915015613d0657808060200190518101906150c19190615a14565b613d0657604051639b8d506160e01b815260040160405180910390fd5b600080806000198587098587029250828110838203039150508381106151215760405163072fa3c960e31b815260048101829052602481018590526044016108ff565b8061513157508290049050610b66565b60008486880960026001871981018816978890046003810283188082028403028082028403028082028403028082028403028082028403029081029092039091026000889003889004909101858311909403939093029303949094049190911702949350505050565b600080836001600160a01b031663313ce5676040518163ffffffff1660e01b8152600401602060405180830381865afa1580156151db573d6000803e3d6000fd5b505050506040513d601f19601f820116820180604052508101906151ff9190615784565b61520a9060126158cb565b61521590600a6159d2565b905080600114613dd457613dcc818461588a565b6060833b6152555760405163dc5dd7fd60e01b81526001600160a01b03851660048201526024016108ff565b600080856001600160a01b0316856040516152709190615a5d565b6000604051808303816000865af19150503d80600081146152ad576040519150601f19603f3d011682016040523d82523d6000602084013e6152b2565b606091505b50915091506152c28282866152cc565b9695505050505050565b606083156152db575081610b66565b8251156152eb5782518060208501fd5b8160405162461bcd60e51b81526004016108ff9190615a79565b6040518061018001604052806000815260200160001515815260200160006001600160a01b0316815260200160006001600160a01b0316815260200160001515815260200160006001600160a01b031681526020016000815260200160008152602001600081526020016000815260200160008152602001600081525090565b6001600160a01b0381168114612bef57600080fd5b6000602082840312156153ac57600080fd5b8151610b6681615385565b6000602082840312156153c957600080fd5b5035919050565b8051825260208101516153e7602084018215159052565b50604081015161540260408401826001600160a01b03169052565b50606081015161541d60608401826001600160a01b03169052565b506080810151615431608084018215159052565b5060a081015161544c60a08401826001600160a01b03169052565b5060c0818101519083015260e0808201519083015261010080820151908301526101208082015190830152610140808201519083015261016090810151910152565b61018081016114cd82846153d0565b600080604083850312156154b057600080fd5b82356154bb81615385565b946020939093013593505050565b6101e081016154d882876153d0565b84610180830152836101a0830152826101c083015295945050505050565b60006020828403121561550857600080fd5b8135610b6681615385565b602080825282518282018190526000919060409081850190868401855b828110156155b557815180516001600160a01b0390811686528782015116878601528581015186860152606080820151908601526080808201519086015260a0808201519086015260c0808201519086015260e08082015190860152610100808201519086015261012090810151908501526101409093019290850190600101615530565b5091979650505050505050565b600080604083850312156155d557600080fd5b50508035926020909101359150565b6020808252825182820181905260009190848201906040850190845b81811015615627576156138385516153d0565b928401926101809290920191600101615600565b50909695505050505050565b8015158114612bef57600080fd5b6000806040838503121561565457600080fd5b823561565f81615385565b9150602083013561566f81615633565b809150509250929050565b634e487b7160e01b600052602160045260246000fd5b60208101600383106156b257634e487b7160e01b600052602160045260246000fd5b91905290565b634e487b7160e01b600052601160045260246000fd5b600082198211156156e1576156e16156b8565b500190565b634e487b7160e01b600052603260045260246000fd5b60008282101561570e5761570e6156b8565b500390565b60006020828403121561572557600080fd5b5051919050565b60008083128015600160ff1b85018412161561574a5761574a6156b8565b837f7fffffffffffffffffffffffffffffffffffffffffffffffffffffffffffffff01831381161561577e5761577e6156b8565b50500390565b60006020828403121561579657600080fd5b815160ff81168114610b6657600080fd5b60006000198214156157bb576157bb6156b8565b5060010190565b634e487b7160e01b600052604160045260246000fd5b600060208083850312156157eb57600080fd5b825167ffffffffffffffff8082111561580357600080fd5b818501915085601f83011261581757600080fd5b815181811115615829576158296157c2565b8060051b604051601f19603f8301168101818110858211171561584e5761584e6157c2565b60405291825284820192508381018501918883111561586c57600080fd5b938501935b8285101561134157845184529385019392850192615871565b60008160001904831182151516156158a4576158a46156b8565b500290565b6000826158c657634e487b7160e01b600052601260045260246000fd5b500490565b600060ff821660ff8416808210156158e5576158e56156b8565b90039392505050565b600181815b8085111561592957816000190482111561590f5761590f6156b8565b8085161561591c57918102915b93841c93908002906158f3565b509250929050565b600082615940575060016114cd565b8161594d575060006114cd565b8160018114615963576002811461596d57615989565b60019150506114cd565b60ff84111561597e5761597e6156b8565b50506001821b6114cd565b5060208310610133831016604e8410600b84101617156159ac575081810a6114cd565b6159b683836158ee565b80600019048211156159ca576159ca6156b8565b029392505050565b6000610b6660ff841683615931565b6000600160ff1b8214156159f7576159f76156b8565b5060000390565b634e487b7160e01b600052603160045260246000fd5b600060208284031215615a2657600080fd5b8151610b6681615633565b60005b83811015615a4c578181015183820152602001615a34565b83811115613d065750506000910152565b60008251615a6f818460208701615a31565b9190910192915050565b6020815260008251806020840152615a98816040850160208701615a31565b601f01601f1916919091016040019291505056fea164736f6c634300080a000a",
  "devdoc": {
    "author": "BaksDAO",
    "errors": {
      "BaksDAOBorrowBelowMinimumPrincipalAmount()": [
        {
          "details": "Thrown when trying to borrow below minimum principal amount."
        }
      ],
      "BaksDAOBorrowZeroAmount()": [
        {
          "details": "Thrown when borrowing a zero amount of stablecoin."
        }
      ],
      "BaksDAOCollateralTokenAlreadyListed(address)": [
        {
          "details": "Thrown when trying to list collateral token that's already listed.",
          "params": {
            "token": "The address of the collateral token contract."
          }
        }
      ],
      "BaksDAOCollateralTokenNotListed(address)": [
        {
          "details": "Thrown when trying to unlist collateral token that's not listed.",
          "params": {
            "token": "The address of the collateral token contract."
          }
        }
      ],
      "BaksDAOCollateralTokenTooLargeDecimals(address,uint8)": [
        {
          "details": "Thrown when trying to list collateral token that has too large decimals.",
          "params": {
            "token": "The address of the collateral token contract."
          }
        }
      ],
      "BaksDAOCollateralTokenZeroDecimals(address)": [
        {
          "details": "Thrown when trying to list collateral token that has zero decimals.",
          "params": {
            "token": "The address of the collateral token contract."
          }
        }
      ],
      "BaksDAODepositZeroAmount()": [
        {
          "details": "Thrown when depositing a zero amount of collateral token."
        }
      ],
      "BaksDAOInactiveLoan(uint256)": [
        {
          "details": "Thrown when trying to interact with inactive loan with `id` id.",
          "params": {
            "id": "The loan id."
          }
        }
      ],
      "BaksDAOInitialLoanToValueRatioTooHigh(address,uint256)": [
        {
          "details": "Thrown when trying to set initial loan-to-value ratio that higher than margin call or liquidation ones.",
          "params": {
            "initialLoanToValueRatio": "The initial loan-to-value ratio that was tried to set.",
            "token": "The address of the collateral token contract."
          }
        }
      ],
      "BaksDAOLoanIsSubjectToLiquidation(uint256)": [
        {
          "details": "Thrown when trying to interact with loan with `id` id that is subject to liquidation.",
          "params": {
            "id": "The loan id."
          }
        }
      ],
      "BaksDAOLoanNotSubjectToLiquidation(uint256)": [
        {
          "details": "Thrown when trying to liquidate healthy loan with `id` id.",
          "params": {
            "id": "The loan id."
          }
        }
      ],
      "BaksDAONativeCurrencyCollateralNotAllowed(uint256)": [
        {
          "details": "Thrown when trying to deposit native currency collateral to the non-wrapped native currency token loan with `id` id.",
          "params": {
            "id": "The loan id."
          }
        }
      ],
      "BaksDAONoNeedToRebalance()": [
        {
          "details": "Thrown when there's no need to rebalance the platform."
        }
      ],
      "BaksDAORepayZeroAmount()": [
        {
          "details": "Thrown when repaying a zero amount of stablecoin."
        }
      ],
      "BaksDAOStabilizationFundOutOfFunds(uint256)": [
        {
          "details": "Thrown when trying to rebalance the platform and there is a shortage of funds to burn.",
          "params": {
            "shortage": "Shoratge of funds to burn."
          }
        }
      ],
      "BaksDAOTokenNotAllowedAsCollateral(address)": [
        {
          "details": "Thrown when interacting with a token that's not allowed as collateral.",
          "params": {
            "token": "The address of the collateral token contract."
          }
        }
      ],
      "BaksDAOTokenNotAllowedToBeSalvaged(address)": [
        {
          "details": "Thrown when trying to salvage one of allowed collateral tokens or stablecoin.",
          "params": {
            "token": "The address of the token contract."
          }
        }
      ]
    },
    "kind": "dev",
    "methods": {
      "borrow(address,uint256)": {
        "details": "The caller must have allowed this contract to spend a sufficient amount of collateral tokens to cover initial loan-to-value ratio.",
        "params": {
          "amount": "The amount of stablecoin to borrow and issue.",
          "collateralToken": "The address of the collateral token contract."
        }
      },
      "deposit(uint256,uint256)": {
        "details": "The caller must have allowed this contract to spend `amount` of collateral tokens.",
        "params": {
          "amount": "The amount of collateral token to deposit.",
          "loanId": "The loan id."
        }
      },
      "repay(uint256,uint256)": {
        "params": {
          "amount": "The amount of stablecoin to repay.",
          "loanId": "The loan id."
        }
      }
    },
    "title": "Core smart contract of BaksDAO platform",
    "version": 1
  },
  "userdoc": {
    "kind": "user",
    "methods": {
      "borrow(address,uint256)": {
        "notice": "Increases loan's principal on `collateralToken` collateral token and mints `amount` of stablecoin."
      },
      "borrowInNativeCurrency(uint256)": {
        "notice": "Increases loan's principal on wrapped native currency token and mints stablecoin."
      },
      "deposit(uint256,uint256)": {
        "notice": "Deposits `amount` of collateral token to loan with `id` id."
      },
      "depositInNativeCurrency(uint256)": {
        "notice": "Deposits wrapped native currency token to loan with `id` id."
      },
      "repay(uint256,uint256)": {
        "notice": "Decreases principal of loan with `id` id by `amount` of stablecoin."
      }
    },
    "notice": "You should use this contract to interact with the BaksDAO platform.Only this contract can issue BAKS and BDV tokens.",
    "version": 1
  },
  "storageLayout": {
    "storage": [
      {
        "astId": 4140,
        "contract": "contracts/Bank.sol:Bank",
        "label": "core",
        "offset": 0,
        "slot": "0",
        "type": "t_contract(ICore)3413"
      },
      {
        "astId": 7519,
        "contract": "contracts/Bank.sol:Bank",
        "label": "governor",
        "offset": 0,
        "slot": "1",
        "type": "t_address"
      },
      {
        "astId": 7521,
        "contract": "contracts/Bank.sol:Bank",
        "label": "pendingGovernor",
        "offset": 0,
        "slot": "2",
        "type": "t_address"
      },
      {
        "astId": 11360,
        "contract": "contracts/Bank.sol:Bank",
        "label": "initializing",
        "offset": 20,
        "slot": "2",
        "type": "t_bool"
      },
      {
        "astId": 11362,
        "contract": "contracts/Bank.sol:Bank",
        "label": "initialized",
        "offset": 21,
        "slot": "2",
        "type": "t_bool"
      },
      {
        "astId": 11078,
        "contract": "contracts/Bank.sol:Bank",
        "label": "status",
        "offset": 0,
        "slot": "3",
        "type": "t_uint256"
      },
      {
        "astId": 204,
        "contract": "contracts/Bank.sol:Bank",
        "label": "loans",
        "offset": 0,
        "slot": "4",
        "type": "t_array(t_struct(Data)10352_storage)dyn_storage"
      },
      {
        "astId": 209,
        "contract": "contracts/Bank.sol:Bank",
        "label": "loanIds",
        "offset": 0,
        "slot": "5",
        "type": "t_mapping(t_address,t_array(t_uint256)dyn_storage)"
      },
      {
        "astId": 215,
        "contract": "contracts/Bank.sol:Bank",
        "label": "collateralTokens",
        "offset": 0,
        "slot": "6",
        "type": "t_mapping(t_contract(IERC20)7757,t_struct(Data)8332_storage)"
      },
      {
        "astId": 218,
        "contract": "contracts/Bank.sol:Bank",
        "label": "collateralTokensSet",
        "offset": 0,
        "slot": "7",
        "type": "t_struct(Set)8695_storage"
      },
      {
        "astId": 220,
        "contract": "contracts/Bank.sol:Bank",
        "label": "nextVoiceMintingStage",
        "offset": 0,
        "slot": "9",
        "type": "t_uint256"
      }
    ],
    "types": {
      "t_address": {
        "encoding": "inplace",
        "label": "address",
        "numberOfBytes": "20"
      },
      "t_array(t_address)dyn_storage": {
        "base": "t_address",
        "encoding": "dynamic_array",
        "label": "address[]",
        "numberOfBytes": "32"
      },
      "t_array(t_struct(Data)10352_storage)dyn_storage": {
        "base": "t_struct(Data)10352_storage",
        "encoding": "dynamic_array",
        "label": "struct Loan.Data[]",
        "numberOfBytes": "32"
      },
      "t_array(t_uint256)dyn_storage": {
        "base": "t_uint256",
        "encoding": "dynamic_array",
        "label": "uint256[]",
        "numberOfBytes": "32"
      },
      "t_bool": {
        "encoding": "inplace",
        "label": "bool",
        "numberOfBytes": "1"
      },
      "t_contract(ICore)3413": {
        "encoding": "inplace",
        "label": "contract ICore",
        "numberOfBytes": "20"
      },
      "t_contract(IERC20)7757": {
        "encoding": "inplace",
        "label": "contract IERC20",
        "numberOfBytes": "20"
      },
      "t_contract(IPriceOracle)7878": {
        "encoding": "inplace",
        "label": "contract IPriceOracle",
        "numberOfBytes": "20"
      },
      "t_mapping(t_address,t_array(t_uint256)dyn_storage)": {
        "encoding": "mapping",
        "key": "t_address",
        "label": "mapping(address => uint256[])",
        "numberOfBytes": "32",
        "value": "t_array(t_uint256)dyn_storage"
      },
      "t_mapping(t_address,t_uint256)": {
        "encoding": "mapping",
        "key": "t_address",
        "label": "mapping(address => uint256)",
        "numberOfBytes": "32",
        "value": "t_uint256"
      },
      "t_mapping(t_contract(IERC20)7757,t_struct(Data)8332_storage)": {
        "encoding": "mapping",
        "key": "t_contract(IERC20)7757",
        "label": "mapping(contract IERC20 => struct CollateralToken.Data)",
        "numberOfBytes": "32",
        "value": "t_struct(Data)8332_storage"
      },
      "t_struct(Data)10352_storage": {
        "encoding": "inplace",
        "label": "struct Loan.Data",
        "members": [
          {
            "astId": 10327,
            "contract": "contracts/Bank.sol:Bank",
            "label": "id",
            "offset": 0,
            "slot": "0",
            "type": "t_uint256"
          },
          {
            "astId": 10329,
            "contract": "contracts/Bank.sol:Bank",
            "label": "isActive",
            "offset": 0,
            "slot": "1",
            "type": "t_bool"
          },
          {
            "astId": 10331,
            "contract": "contracts/Bank.sol:Bank",
            "label": "borrower",
            "offset": 1,
            "slot": "1",
            "type": "t_address"
          },
          {
            "astId": 10334,
            "contract": "contracts/Bank.sol:Bank",
            "label": "collateralToken",
            "offset": 0,
            "slot": "2",
            "type": "t_contract(IERC20)7757"
          },
          {
            "astId": 10336,
            "contract": "contracts/Bank.sol:Bank",
            "label": "isNativeCurrency",
            "offset": 20,
            "slot": "2",
            "type": "t_bool"
          },
          {
            "astId": 10339,
            "contract": "contracts/Bank.sol:Bank",
            "label": "priceOracle",
            "offset": 0,
            "slot": "3",
            "type": "t_contract(IPriceOracle)7878"
          },
          {
            "astId": 10341,
            "contract": "contracts/Bank.sol:Bank",
            "label": "interest",
            "offset": 0,
            "slot": "4",
            "type": "t_uint256"
          },
          {
            "astId": 10343,
            "contract": "contracts/Bank.sol:Bank",
            "label": "stabilizationFee",
            "offset": 0,
            "slot": "5",
            "type": "t_uint256"
          },
          {
            "astId": 10345,
            "contract": "contracts/Bank.sol:Bank",
            "label": "principalAmount",
            "offset": 0,
            "slot": "6",
            "type": "t_uint256"
          },
          {
            "astId": 10347,
            "contract": "contracts/Bank.sol:Bank",
            "label": "interestAmount",
            "offset": 0,
            "slot": "7",
            "type": "t_uint256"
          },
          {
            "astId": 10349,
            "contract": "contracts/Bank.sol:Bank",
            "label": "collateralAmount",
            "offset": 0,
            "slot": "8",
            "type": "t_uint256"
          },
          {
            "astId": 10351,
            "contract": "contracts/Bank.sol:Bank",
            "label": "lastInteractionAt",
            "offset": 0,
            "slot": "9",
            "type": "t_uint256"
          }
        ],
        "numberOfBytes": "320"
      },
      "t_struct(Data)8332_storage": {
        "encoding": "inplace",
        "label": "struct CollateralToken.Data",
        "members": [
          {
            "astId": 8312,
            "contract": "contracts/Bank.sol:Bank",
            "label": "collateralToken",
            "offset": 0,
            "slot": "0",
            "type": "t_contract(IERC20)7757"
          },
          {
            "astId": 8315,
            "contract": "contracts/Bank.sol:Bank",
            "label": "priceOracle",
            "offset": 0,
            "slot": "1",
            "type": "t_contract(IPriceOracle)7878"
          },
          {
            "astId": 8317,
            "contract": "contracts/Bank.sol:Bank",
            "label": "stabilityFee",
            "offset": 0,
            "slot": "2",
            "type": "t_uint256"
          },
          {
            "astId": 8319,
            "contract": "contracts/Bank.sol:Bank",
            "label": "stabilizationFee",
            "offset": 0,
            "slot": "3",
            "type": "t_uint256"
          },
          {
            "astId": 8321,
            "contract": "contracts/Bank.sol:Bank",
            "label": "exchangeFee",
            "offset": 0,
            "slot": "4",
            "type": "t_uint256"
          },
          {
            "astId": 8323,
            "contract": "contracts/Bank.sol:Bank",
            "label": "developmentFee",
            "offset": 0,
            "slot": "5",
            "type": "t_uint256"
          },
          {
            "astId": 8325,
            "contract": "contracts/Bank.sol:Bank",
            "label": "initialLoanToValueRatio",
            "offset": 0,
            "slot": "6",
            "type": "t_uint256"
          },
          {
            "astId": 8327,
            "contract": "contracts/Bank.sol:Bank",
            "label": "marginCallLoanToValueRatio",
            "offset": 0,
            "slot": "7",
            "type": "t_uint256"
          },
          {
            "astId": 8329,
            "contract": "contracts/Bank.sol:Bank",
            "label": "liquidationLoanToValueRatio",
            "offset": 0,
            "slot": "8",
            "type": "t_uint256"
          },
          {
            "astId": 8331,
            "contract": "contracts/Bank.sol:Bank",
            "label": "collateralAmount",
            "offset": 0,
            "slot": "9",
            "type": "t_uint256"
          }
        ],
        "numberOfBytes": "320"
      },
      "t_struct(Set)8695_storage": {
        "encoding": "inplace",
        "label": "struct EnumerableAddressSet.Set",
        "members": [
          {
            "astId": 8690,
            "contract": "contracts/Bank.sol:Bank",
            "label": "elements",
            "offset": 0,
            "slot": "0",
            "type": "t_array(t_address)dyn_storage"
          },
          {
            "astId": 8694,
            "contract": "contracts/Bank.sol:Bank",
            "label": "indexes",
            "offset": 0,
            "slot": "1",
            "type": "t_mapping(t_address,t_uint256)"
          }
        ],
        "numberOfBytes": "64"
      },
      "t_uint256": {
        "encoding": "inplace",
        "label": "uint256",
        "numberOfBytes": "32"
      }
    }
  }
}