{
  "address": "0x3529eF8031B2e7bbd494b607cf30AdB2FbCd0F11",
  "abi": [
    {
      "inputs": [
        {
          "internalType": "uint256",
          "name": "stabilizationFee",
          "type": "uint256"
        },
        {
          "internalType": "uint256",
          "name": "exchangeFee",
          "type": "uint256"
        },
        {
          "internalType": "uint256",
          "name": "developmentFee",
          "type": "uint256"
        }
      ],
      "name": "BaksDAOPlatformFeesDontSumUpToOne",
      "type": "error"
    },
    {
      "inputs": [],
      "name": "ContractAlreadyInitialized",
      "type": "error"
    },
    {
      "inputs": [],
      "name": "GovernedCantGoverItself",
      "type": "error"
    },
    {
      "inputs": [],
      "name": "GovernedGovernorZeroAddress",
      "type": "error"
    },
    {
      "inputs": [],
      "name": "GovernedOnlyGovernorAllowedToCall",
      "type": "error"
    },
    {
      "inputs": [],
      "name": "GovernedOnlyPendingGovernorAllowedToCall",
      "type": "error"
    },
    {
      "anonymous": false,
      "inputs": [
        {
          "indexed": false,
          "internalType": "address",
          "name": "baks",
          "type": "address"
        },
        {
          "indexed": false,
          "internalType": "address",
          "name": "newBaks",
          "type": "address"
        }
      ],
      "name": "BaksUpdated",
      "type": "event"
    },
    {
      "anonymous": false,
      "inputs": [
        {
          "indexed": false,
          "internalType": "address",
          "name": "bank",
          "type": "address"
        },
        {
          "indexed": false,
          "internalType": "address",
          "name": "newBank",
          "type": "address"
        }
      ],
      "name": "BankUpdated",
      "type": "event"
    },
    {
      "anonymous": false,
      "inputs": [
        {
          "indexed": false,
          "internalType": "address",
          "name": "depositary",
          "type": "address"
        },
        {
          "indexed": false,
          "internalType": "address",
          "name": "newDepositary",
          "type": "address"
        }
      ],
      "name": "DepositaryUpdated",
      "type": "event"
    },
    {
      "anonymous": false,
      "inputs": [
        {
          "indexed": false,
          "internalType": "address",
          "name": "developmentFund",
          "type": "address"
        },
        {
          "indexed": false,
          "internalType": "address",
          "name": "newDevelopmentFund",
          "type": "address"
        }
      ],
      "name": "DevelopmentFundUpdated",
      "type": "event"
    },
    {
      "anonymous": false,
      "inputs": [
        {
          "indexed": false,
          "internalType": "uint256",
          "name": "earlyWithdrawalFee",
          "type": "uint256"
        },
        {
          "indexed": false,
          "internalType": "uint256",
          "name": "newEarlyWithdrawalFee",
          "type": "uint256"
        }
      ],
      "name": "EarlyWithdrawalFeeUpdated",
      "type": "event"
    },
    {
      "anonymous": false,
      "inputs": [
        {
          "indexed": false,
          "internalType": "uint256",
          "name": "earlyWithdrawalPeriod",
          "type": "uint256"
        },
        {
          "indexed": false,
          "internalType": "uint256",
          "name": "newEarlyWithdrawalPeriod",
          "type": "uint256"
        }
      ],
      "name": "EarlyWithdrawalPeriodUpdated",
      "type": "event"
    },
    {
      "anonymous": false,
      "inputs": [
        {
          "indexed": false,
          "internalType": "address",
          "name": "exchangeFund",
          "type": "address"
        },
        {
          "indexed": false,
          "internalType": "address",
          "name": "newExchangeFund",
          "type": "address"
        }
      ],
      "name": "ExchangeFundUpdated",
      "type": "event"
    },
    {
      "anonymous": false,
      "inputs": [
        {
          "indexed": true,
          "internalType": "address",
          "name": "governor",
          "type": "address"
        },
        {
          "indexed": true,
          "internalType": "address",
          "name": "newGovernor",
          "type": "address"
        }
      ],
      "name": "GovernanceTransited",
      "type": "event"
    },
    {
      "anonymous": false,
      "inputs": [
        {
          "indexed": false,
          "internalType": "uint256",
          "name": "interest",
          "type": "uint256"
        },
        {
          "indexed": false,
          "internalType": "uint256",
          "name": "newInterest",
          "type": "uint256"
        }
      ],
      "name": "InterestUpdated",
      "type": "event"
    },
    {
      "anonymous": false,
      "inputs": [
        {
          "indexed": false,
          "internalType": "uint256",
          "name": "liqudationLoanToValueRatio",
          "type": "uint256"
        },
        {
          "indexed": false,
          "internalType": "uint256",
          "name": "newLiquidationLoanToValueRatio",
          "type": "uint256"
        }
      ],
      "name": "LiquidationLoanToValueRatioUpdated",
      "type": "event"
    },
    {
      "anonymous": false,
      "inputs": [
        {
          "indexed": false,
          "internalType": "address",
          "name": "liquidator",
          "type": "address"
        },
        {
          "indexed": false,
          "internalType": "address",
          "name": "newLiquidator",
          "type": "address"
        }
      ],
      "name": "LiquidatorUpdated",
      "type": "event"
    },
    {
      "anonymous": false,
      "inputs": [
        {
          "indexed": false,
          "internalType": "uint256",
          "name": "marginCallLoanToValueRatio",
          "type": "uint256"
        },
        {
          "indexed": false,
          "internalType": "uint256",
          "name": "newMarginCallLoanToValueRatio",
          "type": "uint256"
        }
      ],
      "name": "MarginCallLoanToValueRatioUpdated",
      "type": "event"
    },
    {
      "anonymous": false,
      "inputs": [
        {
          "indexed": false,
          "internalType": "uint256",
          "name": "minimumLiquidity",
          "type": "uint256"
        },
        {
          "indexed": false,
          "internalType": "uint256",
          "name": "newMinimumLiquidity",
          "type": "uint256"
        }
      ],
      "name": "MinimumLiquidityUpdated",
      "type": "event"
    },
    {
      "anonymous": false,
      "inputs": [
        {
          "indexed": false,
          "internalType": "uint256",
          "name": "minimumMagisterDepositAmount",
          "type": "uint256"
        },
        {
          "indexed": false,
          "internalType": "uint256",
          "name": "newMinimumMagisterDepositAmount",
          "type": "uint256"
        }
      ],
      "name": "MinimumMagisterDepositAmountUpdated",
      "type": "event"
    },
    {
      "anonymous": false,
      "inputs": [
        {
          "indexed": false,
          "internalType": "uint256",
          "name": "minimumPrincipalAmount",
          "type": "uint256"
        },
        {
          "indexed": false,
          "internalType": "uint256",
          "name": "newMinimumPrincipalAmount",
          "type": "uint256"
        }
      ],
      "name": "MinimumPrincipalAmountUpdated",
      "type": "event"
    },
    {
      "anonymous": false,
      "inputs": [
        {
          "indexed": false,
          "internalType": "address",
          "name": "operator",
          "type": "address"
        },
        {
          "indexed": false,
          "internalType": "address",
          "name": "newOperator",
          "type": "address"
        }
      ],
      "name": "OperatorUpdated",
      "type": "event"
    },
    {
      "anonymous": false,
      "inputs": [
        {
          "indexed": true,
          "internalType": "address",
          "name": "governor",
          "type": "address"
        },
        {
          "indexed": true,
          "internalType": "address",
          "name": "newGovernor",
          "type": "address"
        }
      ],
      "name": "PendingGovernanceTransition",
      "type": "event"
    },
    {
      "anonymous": false,
      "inputs": [
        {
          "indexed": false,
          "internalType": "uint256",
          "name": "stabilizationFee",
          "type": "uint256"
        },
        {
          "indexed": false,
          "internalType": "uint256",
          "name": "newStabilizationFee",
          "type": "uint256"
        },
        {
          "indexed": false,
          "internalType": "uint256",
          "name": "exchangeFee",
          "type": "uint256"
        },
        {
          "indexed": false,
          "internalType": "uint256",
          "name": "newExchangeFee",
          "type": "uint256"
        },
        {
          "indexed": false,
          "internalType": "uint256",
          "name": "developmentFee",
          "type": "uint256"
        },
        {
          "indexed": false,
          "internalType": "uint256",
          "name": "newDevelopmentFee",
          "type": "uint256"
        }
      ],
      "name": "PlatformFeesUpdated",
      "type": "event"
    },
    {
      "anonymous": false,
      "inputs": [
        {
          "indexed": false,
          "internalType": "address",
          "name": "priceOracle",
          "type": "address"
        },
        {
          "indexed": false,
          "internalType": "address",
          "name": "newPriceOracle",
          "type": "address"
        }
      ],
      "name": "PriceOracleUpdated",
      "type": "event"
    },
    {
      "anonymous": false,
      "inputs": [
        {
          "indexed": false,
          "internalType": "uint256",
          "name": "rebalancingThreshold",
          "type": "uint256"
        },
        {
          "indexed": false,
          "internalType": "uint256",
          "name": "newRebalancingThreshold",
          "type": "uint256"
        }
      ],
      "name": "RebalancingThresholdUpdated",
      "type": "event"
    },
    {
      "anonymous": false,
      "inputs": [
        {
          "indexed": false,
          "internalType": "uint256",
          "name": "servicingThreshold",
          "type": "uint256"
        },
        {
          "indexed": false,
          "internalType": "uint256",
          "name": "newServicingThreshold",
          "type": "uint256"
        }
      ],
      "name": "ServicingThresholdUpdated",
      "type": "event"
    },
    {
      "anonymous": false,
      "inputs": [
        {
          "indexed": false,
          "internalType": "uint256",
          "name": "stabilityFee",
          "type": "uint256"
        },
        {
          "indexed": false,
          "internalType": "uint256",
          "name": "newStabilityFee",
          "type": "uint256"
        }
      ],
      "name": "StabilityFeeUpdated",
      "type": "event"
    },
    {
      "anonymous": false,
      "inputs": [
        {
          "indexed": false,
          "internalType": "address",
          "name": "voice",
          "type": "address"
        },
        {
          "indexed": false,
          "internalType": "address",
          "name": "newVoice",
          "type": "address"
        }
      ],
      "name": "VoiceUpdated",
      "type": "event"
    },
    {
      "anonymous": false,
      "inputs": [
        {
          "indexed": false,
          "internalType": "uint256",
          "name": "workFee",
          "type": "uint256"
        },
        {
          "indexed": false,
          "internalType": "uint256",
          "name": "newWorkFee",
          "type": "uint256"
        }
      ],
      "name": "WorkFeeUpdated",
      "type": "event"
    },
    {
      "inputs": [],
      "name": "acceptGovernance",
      "outputs": [],
      "stateMutability": "nonpayable",
      "type": "function"
    },
    {
      "inputs": [
        {
          "internalType": "address",
          "name": "account",
          "type": "address"
        }
      ],
      "name": "addSuperUser",
      "outputs": [],
      "stateMutability": "nonpayable",
      "type": "function"
    },
    {
      "inputs": [],
      "name": "baks",
      "outputs": [
        {
          "internalType": "address",
          "name": "",
          "type": "address"
        }
      ],
      "stateMutability": "view",
      "type": "function"
    },
    {
      "inputs": [],
      "name": "bank",
      "outputs": [
        {
          "internalType": "address",
          "name": "",
          "type": "address"
        }
      ],
      "stateMutability": "view",
      "type": "function"
    },
    {
      "inputs": [],
      "name": "depositary",
      "outputs": [
        {
          "internalType": "address",
          "name": "",
          "type": "address"
        }
      ],
      "stateMutability": "view",
      "type": "function"
    },
    {
      "inputs": [],
      "name": "developmentFee",
      "outputs": [
        {
          "internalType": "uint256",
          "name": "",
          "type": "uint256"
        }
      ],
      "stateMutability": "view",
      "type": "function"
    },
    {
      "inputs": [],
      "name": "developmentFund",
      "outputs": [
        {
          "internalType": "address",
          "name": "",
          "type": "address"
        }
      ],
      "stateMutability": "view",
      "type": "function"
    },
    {
      "inputs": [],
      "name": "earlyWithdrawalFee",
      "outputs": [
        {
          "internalType": "uint256",
          "name": "",
          "type": "uint256"
        }
      ],
      "stateMutability": "view",
      "type": "function"
    },
    {
      "inputs": [],
      "name": "earlyWithdrawalPeriod",
      "outputs": [
        {
          "internalType": "uint256",
          "name": "",
          "type": "uint256"
        }
      ],
      "stateMutability": "view",
      "type": "function"
    },
    {
      "inputs": [],
      "name": "exchangeFee",
      "outputs": [
        {
          "internalType": "uint256",
          "name": "",
          "type": "uint256"
        }
      ],
      "stateMutability": "view",
      "type": "function"
    },
    {
      "inputs": [],
      "name": "exchangeFund",
      "outputs": [
        {
          "internalType": "address",
          "name": "",
          "type": "address"
        }
      ],
      "stateMutability": "view",
      "type": "function"
    },
    {
      "inputs": [],
      "name": "governor",
      "outputs": [
        {
          "internalType": "address",
          "name": "",
          "type": "address"
        }
      ],
      "stateMutability": "view",
      "type": "function"
    },
    {
      "inputs": [
        {
          "internalType": "address",
          "name": "_wrappedNativeCurrency",
          "type": "address"
        },
        {
          "internalType": "address",
          "name": "_uniswapV2Router",
          "type": "address"
        },
        {
          "internalType": "address",
          "name": "_operator",
          "type": "address"
        },
        {
          "internalType": "address",
          "name": "_liquidator",
          "type": "address"
        }
      ],
      "name": "initialize",
      "outputs": [],
      "stateMutability": "nonpayable",
      "type": "function"
    },
    {
      "inputs": [],
      "name": "interest",
      "outputs": [
        {
          "internalType": "uint256",
          "name": "",
          "type": "uint256"
        }
      ],
      "stateMutability": "view",
      "type": "function"
    },
    {
      "inputs": [
        {
          "internalType": "address",
          "name": "",
          "type": "address"
        }
      ],
      "name": "isSuperUser",
      "outputs": [
        {
          "internalType": "bool",
          "name": "",
          "type": "bool"
        }
      ],
      "stateMutability": "view",
      "type": "function"
    },
    {
      "inputs": [],
      "name": "liquidationLoanToValueRatio",
      "outputs": [
        {
          "internalType": "uint256",
          "name": "",
          "type": "uint256"
        }
      ],
      "stateMutability": "view",
      "type": "function"
    },
    {
      "inputs": [],
      "name": "liquidator",
      "outputs": [
        {
          "internalType": "address",
          "name": "",
          "type": "address"
        }
      ],
      "stateMutability": "view",
      "type": "function"
    },
    {
      "inputs": [],
      "name": "marginCallLoanToValueRatio",
      "outputs": [
        {
          "internalType": "uint256",
          "name": "",
          "type": "uint256"
        }
      ],
      "stateMutability": "view",
      "type": "function"
    },
    {
      "inputs": [],
      "name": "minimumLiquidity",
      "outputs": [
        {
          "internalType": "uint256",
          "name": "",
          "type": "uint256"
        }
      ],
      "stateMutability": "view",
      "type": "function"
    },
    {
      "inputs": [],
      "name": "minimumMagisterDepositAmount",
      "outputs": [
        {
          "internalType": "uint256",
          "name": "",
          "type": "uint256"
        }
      ],
      "stateMutability": "view",
      "type": "function"
    },
    {
      "inputs": [],
      "name": "minimumPrincipalAmount",
      "outputs": [
        {
          "internalType": "uint256",
          "name": "",
          "type": "uint256"
        }
      ],
      "stateMutability": "view",
      "type": "function"
    },
    {
      "inputs": [],
      "name": "operator",
      "outputs": [
        {
          "internalType": "address",
          "name": "",
          "type": "address"
        }
      ],
      "stateMutability": "view",
      "type": "function"
    },
    {
      "inputs": [],
      "name": "pendingGovernor",
      "outputs": [
        {
          "internalType": "address",
          "name": "",
          "type": "address"
        }
      ],
      "stateMutability": "view",
      "type": "function"
    },
    {
      "inputs": [],
      "name": "priceOracle",
      "outputs": [
        {
          "internalType": "address",
          "name": "",
          "type": "address"
        }
      ],
      "stateMutability": "view",
      "type": "function"
    },
    {
      "inputs": [],
      "name": "rebalancingThreshold",
      "outputs": [
        {
          "internalType": "uint256",
          "name": "",
          "type": "uint256"
        }
      ],
      "stateMutability": "view",
      "type": "function"
    },
    {
      "inputs": [
        {
          "internalType": "address",
          "name": "account",
          "type": "address"
        }
      ],
      "name": "removeSuperUser",
      "outputs": [],
      "stateMutability": "nonpayable",
      "type": "function"
    },
    {
      "inputs": [],
      "name": "servicingThreshold",
      "outputs": [
        {
          "internalType": "uint256",
          "name": "",
          "type": "uint256"
        }
      ],
      "stateMutability": "view",
      "type": "function"
    },
    {
      "inputs": [
        {
          "internalType": "address",
          "name": "newBaks",
          "type": "address"
        }
      ],
      "name": "setBaks",
      "outputs": [],
      "stateMutability": "nonpayable",
      "type": "function"
    },
    {
      "inputs": [
        {
          "internalType": "address",
          "name": "newBank",
          "type": "address"
        }
      ],
      "name": "setBank",
      "outputs": [],
      "stateMutability": "nonpayable",
      "type": "function"
    },
    {
      "inputs": [
        {
          "internalType": "address",
          "name": "newDepositary",
          "type": "address"
        }
      ],
      "name": "setDepositary",
      "outputs": [],
      "stateMutability": "nonpayable",
      "type": "function"
    },
    {
      "inputs": [
        {
          "internalType": "address",
          "name": "newDevelopmentFund",
          "type": "address"
        }
      ],
      "name": "setDevelopmentFund",
      "outputs": [],
      "stateMutability": "nonpayable",
      "type": "function"
    },
    {
      "inputs": [
        {
          "internalType": "uint256",
          "name": "newEarlyWithdrawalFee",
          "type": "uint256"
        }
      ],
      "name": "setEarlyWithdrawalFee",
      "outputs": [],
      "stateMutability": "nonpayable",
      "type": "function"
    },
    {
      "inputs": [
        {
          "internalType": "uint256",
          "name": "newEarlyWithdrawalPeriod",
          "type": "uint256"
        }
      ],
      "name": "setEarlyWithdrawalPeriod",
      "outputs": [],
      "stateMutability": "nonpayable",
      "type": "function"
    },
    {
      "inputs": [
        {
          "internalType": "address",
          "name": "newExchangeFund",
          "type": "address"
        }
      ],
      "name": "setExchangeFund",
      "outputs": [],
      "stateMutability": "nonpayable",
      "type": "function"
    },
    {
      "inputs": [
        {
          "internalType": "uint256",
          "name": "newInterest",
          "type": "uint256"
        }
      ],
      "name": "setInterest",
      "outputs": [],
      "stateMutability": "nonpayable",
      "type": "function"
    },
    {
      "inputs": [
        {
          "internalType": "uint256",
          "name": "newLiquidationLoanToValueRatio",
          "type": "uint256"
        }
      ],
      "name": "setLiquidationLoanToValueRatio",
      "outputs": [],
      "stateMutability": "nonpayable",
      "type": "function"
    },
    {
      "inputs": [
        {
          "internalType": "address",
          "name": "newLiquidator",
          "type": "address"
        }
      ],
      "name": "setLiquidator",
      "outputs": [],
      "stateMutability": "nonpayable",
      "type": "function"
    },
    {
      "inputs": [
        {
          "internalType": "uint256",
          "name": "newMarginCallLoanToValueRatio",
          "type": "uint256"
        }
      ],
      "name": "setMarginCallLoanToValueRatio",
      "outputs": [],
      "stateMutability": "nonpayable",
      "type": "function"
    },
    {
      "inputs": [
        {
          "internalType": "uint256",
          "name": "newMinimumLiquidity",
          "type": "uint256"
        }
      ],
      "name": "setMinimumLiquidity",
      "outputs": [],
      "stateMutability": "nonpayable",
      "type": "function"
    },
    {
      "inputs": [
        {
          "internalType": "uint256",
          "name": "newMinimumMagisterDepositAmount",
          "type": "uint256"
        }
      ],
      "name": "setMinimumMagisterDepositAmount",
      "outputs": [],
      "stateMutability": "nonpayable",
      "type": "function"
    },
    {
      "inputs": [
        {
          "internalType": "uint256",
          "name": "newMinimumPrincipalAmount",
          "type": "uint256"
        }
      ],
      "name": "setMinimumPrincipalAmount",
      "outputs": [],
      "stateMutability": "nonpayable",
      "type": "function"
    },
    {
      "inputs": [
        {
          "internalType": "address",
          "name": "newOperator",
          "type": "address"
        }
      ],
      "name": "setOperator",
      "outputs": [],
      "stateMutability": "nonpayable",
      "type": "function"
    },
    {
      "inputs": [
        {
          "internalType": "uint256",
          "name": "newStabilizationFee",
          "type": "uint256"
        },
        {
          "internalType": "uint256",
          "name": "newExchangeFee",
          "type": "uint256"
        },
        {
          "internalType": "uint256",
          "name": "newDevelopmentFee",
          "type": "uint256"
        }
      ],
      "name": "setPlatformFees",
      "outputs": [],
      "stateMutability": "nonpayable",
      "type": "function"
    },
    {
      "inputs": [
        {
          "internalType": "address",
          "name": "newPriceOracle",
          "type": "address"
        }
      ],
      "name": "setPriceOracle",
      "outputs": [],
      "stateMutability": "nonpayable",
      "type": "function"
    },
    {
      "inputs": [
        {
          "internalType": "uint256",
          "name": "newRebalancingThreshold",
          "type": "uint256"
        }
      ],
      "name": "setRebalancingThreshold",
      "outputs": [],
      "stateMutability": "nonpayable",
      "type": "function"
    },
    {
      "inputs": [
        {
          "internalType": "uint256",
          "name": "newServicingThreshold",
          "type": "uint256"
        }
      ],
      "name": "setServicingThreshold",
      "outputs": [],
      "stateMutability": "nonpayable",
      "type": "function"
    },
    {
      "inputs": [
        {
          "internalType": "uint256",
          "name": "newStabilityFee",
          "type": "uint256"
        }
      ],
      "name": "setStabilityFee",
      "outputs": [],
      "stateMutability": "nonpayable",
      "type": "function"
    },
    {
      "inputs": [
        {
          "internalType": "address",
          "name": "newVoice",
          "type": "address"
        }
      ],
      "name": "setVoice",
      "outputs": [],
      "stateMutability": "nonpayable",
      "type": "function"
    },
    {
      "inputs": [
        {
          "internalType": "uint256[]",
          "name": "beneficiaries",
          "type": "uint256[]"
        }
      ],
      "name": "setVoiceMintingBeneficiaries",
      "outputs": [],
      "stateMutability": "nonpayable",
      "type": "function"
    },
    {
      "inputs": [
        {
          "internalType": "uint256",
          "name": "newWorkFee",
          "type": "uint256"
        }
      ],
      "name": "setWorkFee",
      "outputs": [],
      "stateMutability": "nonpayable",
      "type": "function"
    },
    {
      "inputs": [],
      "name": "stabilityFee",
      "outputs": [
        {
          "internalType": "uint256",
          "name": "",
          "type": "uint256"
        }
      ],
      "stateMutability": "view",
      "type": "function"
    },
    {
      "inputs": [],
      "name": "stabilizationFee",
      "outputs": [
        {
          "internalType": "uint256",
          "name": "",
          "type": "uint256"
        }
      ],
      "stateMutability": "view",
      "type": "function"
    },
    {
      "inputs": [
        {
          "internalType": "address",
          "name": "newGovernor",
          "type": "address"
        },
        {
          "internalType": "bool",
          "name": "force",
          "type": "bool"
        }
      ],
      "name": "transitGovernance",
      "outputs": [],
      "stateMutability": "nonpayable",
      "type": "function"
    },
    {
      "inputs": [],
      "name": "uniswapV2Router",
      "outputs": [
        {
          "internalType": "address",
          "name": "",
          "type": "address"
        }
      ],
      "stateMutability": "view",
      "type": "function"
    },
    {
      "inputs": [],
      "name": "voice",
      "outputs": [
        {
          "internalType": "address",
          "name": "",
          "type": "address"
        }
      ],
      "stateMutability": "view",
      "type": "function"
    },
    {
      "inputs": [],
      "name": "voiceMintingBeneficiaries",
      "outputs": [
        {
          "internalType": "uint256[]",
          "name": "",
          "type": "uint256[]"
        }
      ],
      "stateMutability": "view",
      "type": "function"
    },
    {
      "inputs": [],
      "name": "voiceMintingSchedule",
      "outputs": [
        {
          "internalType": "uint256[]",
          "name": "",
          "type": "uint256[]"
        }
      ],
      "stateMutability": "view",
      "type": "function"
    },
    {
      "inputs": [],
      "name": "voiceTotalShares",
      "outputs": [
        {
          "internalType": "uint256",
          "name": "",
          "type": "uint256"
        }
      ],
      "stateMutability": "view",
      "type": "function"
    },
    {
      "inputs": [],
      "name": "workFee",
      "outputs": [
        {
          "internalType": "uint256",
          "name": "",
          "type": "uint256"
        }
      ],
      "stateMutability": "view",
      "type": "function"
    },
    {
      "inputs": [],
      "name": "wrappedNativeCurrency",
      "outputs": [
        {
          "internalType": "address",
          "name": "",
          "type": "address"
        }
      ],
      "stateMutability": "view",
      "type": "function"
    }
  ],
  "transactionHash": "0x85b2fb4589e3769a985064e9009fd58ee1596e51c895ffbcd055e6a90af3b636",
  "args": [],
  "solcInputHash": "132a0ae4e0297df67766db98dcfb66e6",
  "bytecode": "0x608060405234801561001057600080fd5b50611e52806100206000396000f3fe608060405234801561001057600080fd5b50600436106103a35760003560e01c8063570ca735116101e9578063b56cf0111161010f578063e5265d88116100ad578063f826ed2e1161007c578063f826ed2e1461076f578063f8c8765e14610782578063fb1a12d114610795578063fb4ca35b146107a857600080fd5b8063e5265d8814610738578063e7f3028c14610740578063eb907b2214610753578063ee0e54cb1461076657600080fd5b8063d876d98e116100e9578063d876d98e146106f6578063ddc12526146106ff578063e16da9f814610712578063e3056a341461072557600080fd5b8063b56cf011146106b1578063c392f766146106ba578063cd784d1b146106c357600080fd5b80638a2381d711610187578063a0230d5011610156578063a0230d5014610679578063a5f3d00314610682578063af76a7ef1461068b578063b3ab15fb1461069e57600080fd5b80638a2381d71461062b5780638b02d3171461063e5780639cc3c0d4146106515780639dca3fe31461066457600080fd5b8063736e1c26116101c3578063736e1c26146105df57806376cdb03b146105f257806377c4572d146106055780637c6802861461061857600080fd5b8063570ca735146105b05780635747cb13146105c35780635838815f146105cc57600080fd5b80632b3c3892116102ce5780634046ebae1161026c5780634c12d4711161023b5780634c12d4711461056e5780634c4e61e91461058157806351adfe4914610594578063530e784f1461059d57600080fd5b80634046ebae1461054057806342580dbe146105535780634433c5e81461055c578063453844b61461056557600080fd5b806334dbf19e116102a857806334dbf19e14610508578063361416e11461051b5780633a5017b4146105245780633f8189ea1461052d57600080fd5b80632b3c3892146104d95780632ecd3be4146104ec57806334b61a15146104f557600080fd5b806316330d40116103465780632231ffaf116103155780632231ffaf14610498578063238efcbc146104ab5780632630c12f146104b3578063282567b4146104c657600080fd5b806316330d40146104565780631694505e1461045f5780631805d668146104725780631d0867201461048557600080fd5b8063090d23b911610382578063090d23b9146103e35780630b68a580146103f65780630c340a24146104125780630e0603781461044357600080fd5b80623ba82e146103a857806301c76f81146103bd57806302556fff146103d0575b600080fd5b6103bb6103b6366004611c36565b6107bb565b005b6103bb6103cb366004611c36565b610810565b6103bb6103de366004611c36565b6108aa565b6103bb6103f1366004611c36565b6108fc565b6103ff600e5481565b6040519081526020015b60405180910390f35b60005461042b906201000090046001600160a01b031681565b6040516001600160a01b039091168152602001610409565b60085461042b906001600160a01b031681565b6103ff60195481565b60035461042b906001600160a01b031681565b6103bb610480366004611c36565b610996565b6103bb610493366004611c58565b610a30565b6103bb6104a6366004611c36565b610aa2565b6103bb610b3c565b60045461042b906001600160a01b031681565b6103bb6104d4366004611c58565b610bd1565b6103bb6104e7366004611c58565b610c43565b6103ff60115481565b6103bb610503366004611c36565b610cb5565b6103bb610516366004611c36565b610d4f565b6103ff600f5481565b6103ff60175481565b6103bb61053b366004611c58565b610de9565b600c5461042b906001600160a01b031681565b6103ff60105481565b6103ff60145481565b6103ff601a5481565b60095461042b906001600160a01b031681565b60055461042b906001600160a01b031681565b6103ff60185481565b6103bb6105ab366004611c36565b610e5b565b600b5461042b906001600160a01b031681565b6103ff601e5481565b6103bb6105da366004611c58565b610ef5565b6103bb6105ed366004611c58565b610f67565b60075461042b906001600160a01b031681565b6103bb610613366004611c58565b610fd9565b6103bb610626366004611c36565b61104b565b600a5461042b906001600160a01b031681565b60065461042b906001600160a01b031681565b6103bb61065f366004611c58565b6110e5565b61066c611157565b6040516104099190611c71565b6103ff60165481565b6103ff60125481565b6103bb610699366004611c58565b6111af565b6103bb6106ac366004611c36565b611221565b6103ff601b5481565b6103ff600d5481565b6106e66106d1366004611c36565b601f6020526000908152604090205460ff1681565b6040519015158152602001610409565b6103ff60135481565b6103bb61070d366004611cb5565b6112bb565b6103bb610720366004611cf1565b6113ad565b60015461042b906001600160a01b031681565b61066c61149a565b60025461042b906001600160a01b031681565b6103bb610761366004611c58565b6114f0565b6103ff60155481565b6103bb61077d366004611c58565b611562565b6103bb610790366004611d1d565b6115d4565b6103bb6107a3366004611d71565b611998565b6103bb6107b6366004611c58565b611a65565b6000546201000090046001600160a01b031633146107ec576040516305e7700560e51b815260040160405180910390fd5b6001600160a01b03166000908152601f60205260409020805460ff19166001179055565b6000546201000090046001600160a01b03163314610841576040516305e7700560e51b815260040160405180910390fd5b600c54604080516001600160a01b03928316815291831660208301527fbeefc50872111fb9c2028f8772e06e99ec622d34506eec7ac0e85afd9de7889d910160405180910390a1600c80546001600160a01b0319166001600160a01b0392909216919091179055565b6000546201000090046001600160a01b031633146108db576040516305e7700560e51b815260040160405180910390fd5b6001600160a01b03166000908152601f60205260409020805460ff19169055565b6000546201000090046001600160a01b0316331461092d576040516305e7700560e51b815260040160405180910390fd5b600754604080516001600160a01b03928316815291831660208301527f6b13d0b6d0f96f25f42864a97c7a29b23b8b2ee5b36a253eabfb1eb7ffaae857910160405180910390a1600780546001600160a01b0319166001600160a01b0392909216919091179055565b6000546201000090046001600160a01b031633146109c7576040516305e7700560e51b815260040160405180910390fd5b600954604080516001600160a01b03928316815291831660208301527f26b19e8e52229d412c9484193160fe978f9f2d6a9348204dfe33888820688cb9910160405180910390a1600980546001600160a01b0319166001600160a01b0392909216919091179055565b6000546201000090046001600160a01b03163314610a61576040516305e7700560e51b815260040160405180910390fd5b600d5460408051918252602082018390527f46ba83b1bb5d30bf76865a9c4d50e868ef6092e32e9dbca33926fe6d81c1a129910160405180910390a1600d55565b6000546201000090046001600160a01b03163314610ad3576040516305e7700560e51b815260040160405180910390fd5b600854604080516001600160a01b03928316815291831660208301527f2d4ee1d7f376d00cf396d38b08067a5ec3f3b71d966ca4db5a379ba3b1ea797d910160405180910390a1600880546001600160a01b0319166001600160a01b0392909216919091179055565b6001546001600160a01b03163314610b675760405163aec80d4b60e01b815260040160405180910390fd5b60015460008054620100006001600160a01b0393841681810275ffffffffffffffffffffffffffffffffffffffff00001990931692909217808455604051929491900416917f564590b81987d147246f63910a8e1ee4eb09c4d64cc75ee975a8ffedfcc2210e91a3565b6000546201000090046001600160a01b03163314610c02576040516305e7700560e51b815260040160405180910390fd5b601b5460408051918252602082018390527fd18c85fe8a5776467c327fa33312c6113129233ddb47deabaa91b8396b815879910160405180910390a1601b55565b6000546201000090046001600160a01b03163314610c74576040516305e7700560e51b815260040160405180910390fd5b600e5460408051918252602082018390527fde9fa07b6ca9d540214c05366e57cb33adf8f132014d9d1b2802a5b89a99512a910160405180910390a1600e55565b6000546201000090046001600160a01b03163314610ce6576040516305e7700560e51b815260040160405180910390fd5b600554604080516001600160a01b03928316815291831660208301527fc0451bcadaef87367fc2de908531ac97476502a83c5bbfb1d50b5623869142d0910160405180910390a1600580546001600160a01b0319166001600160a01b0392909216919091179055565b6000546201000090046001600160a01b03163314610d80576040516305e7700560e51b815260040160405180910390fd5b600a54604080516001600160a01b03928316815291831660208301527f890d67e11a87724c3e924031bc5edde282c8c2a5090de71c4d3c98df6c293e44910160405180910390a1600a80546001600160a01b0319166001600160a01b0392909216919091179055565b6000546201000090046001600160a01b03163314610e1a576040516305e7700560e51b815260040160405180910390fd5b60145460408051918252602082018390527fa466548b1a7b7c581a6b5b6e38ebed0f41846451118fb8582b71f8605b960cd8910160405180910390a1601455565b6000546201000090046001600160a01b03163314610e8c576040516305e7700560e51b815260040160405180910390fd5b600454604080516001600160a01b03928316815291831660208301527f56b5f80d8cac1479698aa7d01605fd6111e90b15fc4d2b377417f46034876cbd910160405180910390a1600480546001600160a01b0319166001600160a01b0392909216919091179055565b6000546201000090046001600160a01b03163314610f26576040516305e7700560e51b815260040160405180910390fd5b60165460408051918252602082018390527f4fb8587c5a3f8cf9e57d22189b561f07db407b875d0088af925ba5def959e302910160405180910390a1601655565b6000546201000090046001600160a01b03163314610f98576040516305e7700560e51b815260040160405180910390fd5b601a5460408051918252602082018390527f157d4d2c2eb9bbd85c7f6da0c13113a3799cc3df5c817cba85d84832176459bc910160405180910390a1601a55565b6000546201000090046001600160a01b0316331461100a576040516305e7700560e51b815260040160405180910390fd5b60135460408051918252602082018390527fd2a3e4f854a80a895407f8743c1363ac14b698c432d22d8c65519e13a9e4983d910160405180910390a1601355565b6000546201000090046001600160a01b0316331461107c576040516305e7700560e51b815260040160405180910390fd5b600654604080516001600160a01b03928316815291831660208301527f84a99d2bd54dc2cc9a7a0f569fdf3dfd12ad1bc01d0fbaaede284310730067f6910160405180910390a1600680546001600160a01b0319166001600160a01b0392909216919091179055565b6000546201000090046001600160a01b03163314611116576040516305e7700560e51b815260040160405180910390fd5b60185460408051918252602082018390527f852e5c58e234ad1a0ba40f41c39fa15df7c5494ad6198a802fcdffa3e8e4a0c5910160405180910390a1601855565b6060601c8054806020026020016040519081016040528092919081815260200182805480156111a557602002820191906000526020600020905b815481526020019060010190808311611191575b5050505050905090565b6000546201000090046001600160a01b031633146111e0576040516305e7700560e51b815260040160405180910390fd5b60155460408051918252602082018390527f5eb53b71d73d0607121e658859e0125d7bbbf83c4288d44c18438d4fe94d1e07910160405180910390a1601555565b6000546201000090046001600160a01b03163314611252576040516305e7700560e51b815260040160405180910390fd5b600b54604080516001600160a01b03928316815291831660208301527ffbe5b6cbafb274f445d7fed869dc77a838d8243a22c460de156560e8857cad03910160405180910390a1600b80546001600160a01b0319166001600160a01b0392909216919091179055565b6000546201000090046001600160a01b031633146112ec576040516305e7700560e51b815260040160405180910390fd5b6001600160a01b0382166113135760405163604b48b960e11b815260040160405180910390fd5b6001600160a01b03821630141561133d576040516306b3e95d60e21b815260040160405180910390fd5b600180546001600160a01b0319166001600160a01b038416179055806113a057600080546040516001600160a01b03808616936201000090930416917fc606c9af1451cadeb333f6ff7b24a5540974f4e800bac274fa7fff9edc305cb191a35050565b6113a982611ad7565b5050565b6000546201000090046001600160a01b031633146113de576040516305e7700560e51b815260040160405180910390fd5b670de0b6b3a7640000816113f28486611dfc565b6113fc9190611dfc565b1461142f5760405163245c170760e21b815260048101849052602481018390526044810182905260640160405180910390fd5b601054601154601254604080519384526020840187905283019190915260608201849052608082015260a081018290527f1f7068a9be898db6fcd350ac2ff32fc5f1e6fc46c8e6cc973cde53793ff3ab5e9060c00160405180910390a1601092909255601155601255565b6060601d8054806020026020016040519081016040528092919081815260200182805480156111a55760200282019190600052602060002090815481526020019060010190808311611191575050505050905090565b6000546201000090046001600160a01b03163314611521576040516305e7700560e51b815260040160405180910390fd5b60175460408051918252602082018390527f7dcd30db94569ddb363e830c535d2ab4561ba0521e93e7b04af6352851c95953910160405180910390a1601755565b6000546201000090046001600160a01b03163314611593576040516305e7700560e51b815260040160405180910390fd5b60195460408051918252602082018390527f1e1bc70f0e861e459ffcc21bee51703c1f518199b9fa24001c912cbb6d0f198e910160405180910390a1601955565b60005460ff161580156115ee5750600054610100900460ff165b1561160c57604051631ee1e30360e21b815260040160405180910390fd5b60005460ff16158015611629576000805461ffff19166101011790555b61163233611ad7565b600280546001600160a01b038088166001600160a01b03199283161790925560038054878416908316179055600b8054868416908316179055600c805492851692909116919091179055670186cc6acd4b0000600d556802b5e3af16b1880000600e5566354a6ba7a18000600f55670bcbce7f1b150000601055670214e8348c4f000060119081556000601255670a688906bd8b0000601355670b84c09a3b930000601455662386f26fc100006015819055690a968163f0a57b400000601681905566470de4df8200006017556203f48060185566038d7ea4c68000601955601a91909155601b5560408051610220810182526a295be96e6406697200000081527a0422ca8b0a00a4250000000000000000295be96e6406697200000060208201527a084595161401484a000000000000000052b7d2dcc80cd2e4000000918101919091527a108b2a2c28029094000000000000000052b7d2dcc80cd2e400000060608201527a2116545850052128000000000000000052b7d2dcc80cd2e400000060808201527a422ca8b0a00a4250000000000000000052b7d2dcc80cd2e400000060a08201527a84595161401484a0000000000000000052b7d2dcc80cd2e400000060c08201527b0108b2a2c280290940000000000000000052b7d2dcc80cd2e400000060e08201527b014adf4b7320334b90000000000000000052b7d2dcc80cd2e40000006101008201527b018d0bf423c03d8de0000000000000000052b7d2dcc80cd2e40000006101208201527b01cf389cd46047d030000000000000000052b7d2dcc80cd2e40000006101408201527b021165458500521280000000000000000052b7d2dcc80cd2e40000006101608201527b025391ee35a05c54d0000000000000000052b7d2dcc80cd2e40000006101808201527b0295be96e6406697200000000000000000a56fa5b99019a5c80000006101a08201527b02d7eb3f96e070d9700000000000000000a56fa5b99019a5c80000006101c08201527b031a17e847807b1bc00000000000000000a56fa5b99019a5c80000006101e08201527b035c4490f820855e100000000000000000a56fa5b99019a5c800000061020082015261196591601c9190611b3e565b50336000908152601f60205260409020805460ff191660011790558015611991576000805460ff191690555b5050505050565b6000546201000090046001600160a01b031633146119c9576040516305e7700560e51b815260040160405180910390fd5b6119d5601d6000611ba9565b6119e1601d8383611bca565b506000601e8190555b601d54811015611a60576000611a31601d8381548110611a0c57611a0c611e14565b9060005260206000200154606081901c916bffffffffffffffffffffffff9190911690565b91505080601e6000828254611a469190611dfc565b90915550829150611a58905081611e2a565b9150506119ea565b505050565b6000546201000090046001600160a01b03163314611a96576040516305e7700560e51b815260040160405180910390fd5b600f5460408051918252602082018390527fde9fa07b6ca9d540214c05366e57cb33adf8f132014d9d1b2802a5b89a99512a910160405180910390a1600f55565b6000805475ffffffffffffffffffffffffffffffffffffffff00001916620100006001600160a01b0384811682810293909317808555604051939492900416917f564590b81987d147246f63910a8e1ee4eb09c4d64cc75ee975a8ffedfcc2210e9190a350565b828054828255906000526020600020908101928215611b99579160200282015b82811115611b9957825182907bffffffffffffffffffffffffffffffffffffffffffffffffffffffff16905591602001919060010190611b5e565b50611ba5929150611c05565b5090565b5080546000825590600052602060002090810190611bc79190611c05565b50565b828054828255906000526020600020908101928215611b99579160200282015b82811115611b99578235825591602001919060010190611bea565b5b80821115611ba55760008155600101611c06565b80356001600160a01b0381168114611c3157600080fd5b919050565b600060208284031215611c4857600080fd5b611c5182611c1a565b9392505050565b600060208284031215611c6a57600080fd5b5035919050565b6020808252825182820181905260009190848201906040850190845b81811015611ca957835183529284019291840191600101611c8d565b50909695505050505050565b60008060408385031215611cc857600080fd5b611cd183611c1a565b915060208301358015158114611ce657600080fd5b809150509250929050565b600080600060608486031215611d0657600080fd5b505081359360208301359350604090920135919050565b60008060008060808587031215611d3357600080fd5b611d3c85611c1a565b9350611d4a60208601611c1a565b9250611d5860408601611c1a565b9150611d6660608601611c1a565b905092959194509250565b60008060208385031215611d8457600080fd5b823567ffffffffffffffff80821115611d9c57600080fd5b818501915085601f830112611db057600080fd5b813581811115611dbf57600080fd5b8660208260051b8501011115611dd457600080fd5b60209290920196919550909350505050565b634e487b7160e01b600052601160045260246000fd5b60008219821115611e0f57611e0f611de6565b500190565b634e487b7160e01b600052603260045260246000fd5b6000600019821415611e3e57611e3e611de6565b506001019056fea164736f6c634300080a000a",
  "devdoc": {
    "errors": {
      "BaksDAOPlatformFeesDontSumUpToOne(uint256,uint256,uint256)": [
        {
          "details": "Thrown when trying to set platform fees that don't sum up to one.",
          "params": {
            "developmentFee": "The stabilization fee that was tried to set.",
            "exchangeFee": "The stabilization fee that was tried to set.",
            "stabilizationFee": "The stabilization fee that was tried to set."
          }
        }
      ]
    },
    "kind": "dev",
    "methods": {},
    "version": 1
  },
  "userdoc": {
    "kind": "user",
    "methods": {},
    "version": 1
  },
  "storageLayout": {
    "storage": [
      {
        "astId": 11360,
        "contract": "contracts/Core.sol:Core",
        "label": "initializing",
        "offset": 0,
        "slot": "0",
        "type": "t_bool"
      },
      {
        "astId": 11362,
        "contract": "contracts/Core.sol:Core",
        "label": "initialized",
        "offset": 1,
        "slot": "0",
        "type": "t_bool"
      },
      {
        "astId": 7519,
        "contract": "contracts/Core.sol:Core",
        "label": "governor",
        "offset": 2,
        "slot": "0",
        "type": "t_address"
      },
      {
        "astId": 7521,
        "contract": "contracts/Core.sol:Core",
        "label": "pendingGovernor",
        "offset": 0,
        "slot": "1",
        "type": "t_address"
      },
      {
        "astId": 3425,
        "contract": "contracts/Core.sol:Core",
        "label": "wrappedNativeCurrency",
        "offset": 0,
        "slot": "2",
        "type": "t_address"
      },
      {
        "astId": 3428,
        "contract": "contracts/Core.sol:Core",
        "label": "uniswapV2Router",
        "offset": 0,
        "slot": "3",
        "type": "t_address"
      },
      {
        "astId": 3431,
        "contract": "contracts/Core.sol:Core",
        "label": "priceOracle",
        "offset": 0,
        "slot": "4",
        "type": "t_address"
      },
      {
        "astId": 3434,
        "contract": "contracts/Core.sol:Core",
        "label": "baks",
        "offset": 0,
        "slot": "5",
        "type": "t_address"
      },
      {
        "astId": 3437,
        "contract": "contracts/Core.sol:Core",
        "label": "voice",
        "offset": 0,
        "slot": "6",
        "type": "t_address"
      },
      {
        "astId": 3440,
        "contract": "contracts/Core.sol:Core",
        "label": "bank",
        "offset": 0,
        "slot": "7",
        "type": "t_address"
      },
      {
        "astId": 3443,
        "contract": "contracts/Core.sol:Core",
        "label": "depositary",
        "offset": 0,
        "slot": "8",
        "type": "t_address"
      },
      {
        "astId": 3446,
        "contract": "contracts/Core.sol:Core",
        "label": "exchangeFund",
        "offset": 0,
        "slot": "9",
        "type": "t_address"
      },
      {
        "astId": 3449,
        "contract": "contracts/Core.sol:Core",
        "label": "developmentFund",
        "offset": 0,
        "slot": "10",
        "type": "t_address"
      },
      {
        "astId": 3452,
        "contract": "contracts/Core.sol:Core",
        "label": "operator",
        "offset": 0,
        "slot": "11",
        "type": "t_address"
      },
      {
        "astId": 3455,
        "contract": "contracts/Core.sol:Core",
        "label": "liquidator",
        "offset": 0,
        "slot": "12",
        "type": "t_address"
      },
      {
        "astId": 3458,
        "contract": "contracts/Core.sol:Core",
        "label": "interest",
        "offset": 0,
        "slot": "13",
        "type": "t_uint256"
      },
      {
        "astId": 3461,
        "contract": "contracts/Core.sol:Core",
        "label": "minimumPrincipalAmount",
        "offset": 0,
        "slot": "14",
        "type": "t_uint256"
      },
      {
        "astId": 3464,
        "contract": "contracts/Core.sol:Core",
        "label": "stabilityFee",
        "offset": 0,
        "slot": "15",
        "type": "t_uint256"
      },
      {
        "astId": 3467,
        "contract": "contracts/Core.sol:Core",
        "label": "stabilizationFee",
        "offset": 0,
        "slot": "16",
        "type": "t_uint256"
      },
      {
        "astId": 3470,
        "contract": "contracts/Core.sol:Core",
        "label": "exchangeFee",
        "offset": 0,
        "slot": "17",
        "type": "t_uint256"
      },
      {
        "astId": 3473,
        "contract": "contracts/Core.sol:Core",
        "label": "developmentFee",
        "offset": 0,
        "slot": "18",
        "type": "t_uint256"
      },
      {
        "astId": 3476,
        "contract": "contracts/Core.sol:Core",
        "label": "marginCallLoanToValueRatio",
        "offset": 0,
        "slot": "19",
        "type": "t_uint256"
      },
      {
        "astId": 3479,
        "contract": "contracts/Core.sol:Core",
        "label": "liquidationLoanToValueRatio",
        "offset": 0,
        "slot": "20",
        "type": "t_uint256"
      },
      {
        "astId": 3482,
        "contract": "contracts/Core.sol:Core",
        "label": "rebalancingThreshold",
        "offset": 0,
        "slot": "21",
        "type": "t_uint256"
      },
      {
        "astId": 3485,
        "contract": "contracts/Core.sol:Core",
        "label": "minimumMagisterDepositAmount",
        "offset": 0,
        "slot": "22",
        "type": "t_uint256"
      },
      {
        "astId": 3488,
        "contract": "contracts/Core.sol:Core",
        "label": "workFee",
        "offset": 0,
        "slot": "23",
        "type": "t_uint256"
      },
      {
        "astId": 3491,
        "contract": "contracts/Core.sol:Core",
        "label": "earlyWithdrawalPeriod",
        "offset": 0,
        "slot": "24",
        "type": "t_uint256"
      },
      {
        "astId": 3494,
        "contract": "contracts/Core.sol:Core",
        "label": "earlyWithdrawalFee",
        "offset": 0,
        "slot": "25",
        "type": "t_uint256"
      },
      {
        "astId": 3497,
        "contract": "contracts/Core.sol:Core",
        "label": "servicingThreshold",
        "offset": 0,
        "slot": "26",
        "type": "t_uint256"
      },
      {
        "astId": 3500,
        "contract": "contracts/Core.sol:Core",
        "label": "minimumLiquidity",
        "offset": 0,
        "slot": "27",
        "type": "t_uint256"
      },
      {
        "astId": 3503,
        "contract": "contracts/Core.sol:Core",
        "label": "_voiceMintingSchedule",
        "offset": 0,
        "slot": "28",
        "type": "t_array(t_uint256)dyn_storage"
      },
      {
        "astId": 3506,
        "contract": "contracts/Core.sol:Core",
        "label": "_voiceMintingBeneficiaries",
        "offset": 0,
        "slot": "29",
        "type": "t_array(t_uint256)dyn_storage"
      },
      {
        "astId": 3509,
        "contract": "contracts/Core.sol:Core",
        "label": "voiceTotalShares",
        "offset": 0,
        "slot": "30",
        "type": "t_uint256"
      },
      {
        "astId": 3514,
        "contract": "contracts/Core.sol:Core",
        "label": "isSuperUser",
        "offset": 0,
        "slot": "31",
        "type": "t_mapping(t_address,t_bool)"
      }
    ],
    "types": {
      "t_address": {
        "encoding": "inplace",
        "label": "address",
        "numberOfBytes": "20"
      },
      "t_array(t_uint256)dyn_storage": {
        "base": "t_uint256",
        "encoding": "dynamic_array",
        "label": "uint256[]",
        "numberOfBytes": "32"
      },
      "t_bool": {
        "encoding": "inplace",
        "label": "bool",
        "numberOfBytes": "1"
      },
      "t_mapping(t_address,t_bool)": {
        "encoding": "mapping",
        "key": "t_address",
        "label": "mapping(address => bool)",
        "numberOfBytes": "32",
        "value": "t_bool"
      },
      "t_uint256": {
        "encoding": "inplace",
        "label": "uint256",
        "numberOfBytes": "32"
      }
    }
  }
}