{
  "address": "0x3af0B415F78Cd37009428b0Beb2b46D2660849Af",
  "abi": [
    {
      "inputs": [],
      "name": "BaksDAOBelowMinimumMagisterDepositAmount",
      "type": "error"
    },
    {
      "inputs": [],
      "name": "BaksDAODepositZeroAmount",
      "type": "error"
    },
    {
      "inputs": [
        {
          "internalType": "address",
          "name": "magister",
          "type": "address"
        }
      ],
      "name": "BaksDAOMagisterAlreadyWhitelisted",
      "type": "error"
    },
    {
      "inputs": [
        {
          "internalType": "address",
          "name": "magister",
          "type": "address"
        }
      ],
      "name": "BaksDAOMagisterBlacklisted",
      "type": "error"
    },
    {
      "inputs": [],
      "name": "BaksDAOOnlyDepositaryAllowed",
      "type": "error"
    },
    {
      "inputs": [],
      "name": "BaksDAOOnlyDepositorOrMagisterAllowed",
      "type": "error"
    },
    {
      "inputs": [],
      "name": "BaksDAOOnlySuperUserAllowed",
      "type": "error"
    },
    {
      "inputs": [],
      "name": "BaksDAOWithdrawAmountExceedsPrincipal",
      "type": "error"
    },
    {
      "inputs": [
        {
          "internalType": "address",
          "name": "target",
          "type": "address"
        }
      ],
      "name": "CallToNonContract",
      "type": "error"
    },
    {
      "inputs": [],
      "name": "ContractAlreadyInitialized",
      "type": "error"
    },
    {
      "inputs": [
        {
          "internalType": "uint256",
          "name": "a",
          "type": "uint256"
        }
      ],
      "name": "FixedPointMathExp2ArgumentTooBig",
      "type": "error"
    },
    {
      "inputs": [
        {
          "internalType": "uint256",
          "name": "a",
          "type": "uint256"
        }
      ],
      "name": "FixedPointMathLog2ArgumentTooBig",
      "type": "error"
    },
    {
      "inputs": [
        {
          "internalType": "uint256",
          "name": "prod1",
          "type": "uint256"
        },
        {
          "internalType": "uint256",
          "name": "denominator",
          "type": "uint256"
        }
      ],
      "name": "FixedPointMathMulDivOverflow",
      "type": "error"
    },
    {
      "inputs": [],
      "name": "GovernedCantGoverItself",
      "type": "error"
    },
    {
      "inputs": [],
      "name": "GovernedGovernorZeroAddress",
      "type": "error"
    },
    {
      "inputs": [],
      "name": "GovernedOnlyGovernorAllowedToCall",
      "type": "error"
    },
    {
      "inputs": [],
      "name": "GovernedOnlyPendingGovernorAllowedToCall",
      "type": "error"
    },
    {
      "inputs": [],
      "name": "SafeERC20NoReturnData",
      "type": "error"
    },
    {
      "anonymous": false,
      "inputs": [
        {
          "indexed": true,
          "internalType": "address",
          "name": "governor",
          "type": "address"
        },
        {
          "indexed": true,
          "internalType": "address",
          "name": "newGovernor",
          "type": "address"
        }
      ],
      "name": "GovernanceTransited",
      "type": "event"
    },
    {
      "anonymous": false,
      "inputs": [
        {
          "indexed": true,
          "internalType": "address",
          "name": "magister",
          "type": "address"
        }
      ],
      "name": "MagisterBlacklisted",
      "type": "event"
    },
    {
      "anonymous": false,
      "inputs": [
        {
          "indexed": true,
          "internalType": "address",
          "name": "magister",
          "type": "address"
        }
      ],
      "name": "MagisterWhitelisted",
      "type": "event"
    },
    {
      "anonymous": false,
      "inputs": [
        {
          "indexed": true,
          "internalType": "address",
          "name": "governor",
          "type": "address"
        },
        {
          "indexed": true,
          "internalType": "address",
          "name": "newGovernor",
          "type": "address"
        }
      ],
      "name": "PendingGovernanceTransition",
      "type": "event"
    },
    {
      "inputs": [],
      "name": "acceptGovernance",
      "outputs": [],
      "stateMutability": "nonpayable",
      "type": "function"
    },
    {
      "inputs": [
        {
          "internalType": "contract IERC20",
          "name": "depositToken",
          "type": "address"
        },
        {
          "internalType": "bool",
          "name": "isCompounding",
          "type": "bool"
        },
        {
          "internalType": "uint256",
          "name": "depositorApr",
          "type": "uint256"
        },
        {
          "internalType": "uint256",
          "name": "magisterApr",
          "type": "uint256"
        },
        {
          "internalType": "uint256",
          "name": "depositorBonusApr",
          "type": "uint256"
        },
        {
          "internalType": "uint256",
          "name": "magisterBonusApr",
          "type": "uint256"
        }
      ],
      "name": "addPool",
      "outputs": [],
      "stateMutability": "nonpayable",
      "type": "function"
    },
    {
      "inputs": [
        {
          "internalType": "address",
          "name": "magister",
          "type": "address"
        }
      ],
      "name": "blacklistMagister",
      "outputs": [],
      "stateMutability": "nonpayable",
      "type": "function"
    },
    {
      "inputs": [],
      "name": "core",
      "outputs": [
        {
          "internalType": "contract ICore",
          "name": "",
          "type": "address"
        }
      ],
      "stateMutability": "view",
      "type": "function"
    },
    {
      "inputs": [
        {
          "internalType": "uint256",
          "name": "",
          "type": "uint256"
        },
        {
          "internalType": "address",
          "name": "",
          "type": "address"
        }
      ],
      "name": "currentDepositIds",
      "outputs": [
        {
          "internalType": "uint256",
          "name": "",
          "type": "uint256"
        }
      ],
      "stateMutability": "view",
      "type": "function"
    },
    {
      "inputs": [
        {
          "internalType": "uint256",
          "name": "poolId",
          "type": "uint256"
        },
        {
          "internalType": "uint256",
          "name": "amount",
          "type": "uint256"
        },
        {
          "internalType": "address",
          "name": "magister",
          "type": "address"
        }
      ],
      "name": "deposit",
      "outputs": [],
      "stateMutability": "nonpayable",
      "type": "function"
    },
    {
      "inputs": [
        {
          "internalType": "uint256",
          "name": "poolId",
          "type": "uint256"
        },
        {
          "internalType": "uint256",
          "name": "amount",
          "type": "uint256"
        }
      ],
      "name": "deposit",
      "outputs": [],
      "stateMutability": "nonpayable",
      "type": "function"
    },
    {
      "inputs": [
        {
          "internalType": "uint256",
          "name": "",
          "type": "uint256"
        }
      ],
      "name": "deposits",
      "outputs": [
        {
          "internalType": "uint256",
          "name": "id",
          "type": "uint256"
        },
        {
          "internalType": "bool",
          "name": "isActive",
          "type": "bool"
        },
        {
          "internalType": "address",
          "name": "depositor",
          "type": "address"
        },
        {
          "internalType": "address",
          "name": "magister",
          "type": "address"
        },
        {
          "internalType": "uint256",
          "name": "poolId",
          "type": "uint256"
        },
        {
          "internalType": "uint256",
          "name": "principal",
          "type": "uint256"
        },
        {
          "internalType": "uint256",
          "name": "depositorTotalAccruedRewards",
          "type": "uint256"
        },
        {
          "internalType": "uint256",
          "name": "depositorWithdrawnRewards",
          "type": "uint256"
        },
        {
          "internalType": "uint256",
          "name": "magisterTotalAccruedRewards",
          "type": "uint256"
        },
        {
          "internalType": "uint256",
          "name": "magisterWithdrawnRewards",
          "type": "uint256"
        },
        {
          "internalType": "uint256",
          "name": "createdAt",
          "type": "uint256"
        },
        {
          "internalType": "uint256",
          "name": "lastDepositAt",
          "type": "uint256"
        },
        {
          "internalType": "uint256",
          "name": "lastInteractionAt",
          "type": "uint256"
        },
        {
          "internalType": "uint256",
          "name": "closedAt",
          "type": "uint256"
        }
      ],
      "stateMutability": "view",
      "type": "function"
    },
    {
      "inputs": [],
      "name": "getActiveMagisterAddresses",
      "outputs": [
        {
          "internalType": "address[]",
          "name": "activeMagisterAddresses",
          "type": "address[]"
        }
      ],
      "stateMutability": "view",
      "type": "function"
    },
    {
      "inputs": [],
      "name": "getActiveMagisters",
      "outputs": [
        {
          "components": [
            {
              "internalType": "bool",
              "name": "isActive",
              "type": "bool"
            },
            {
              "internalType": "uint256",
              "name": "createdAt",
              "type": "uint256"
            },
            {
              "internalType": "address",
              "name": "addr",
              "type": "address"
            },
            {
              "internalType": "uint256",
              "name": "totalIncome",
              "type": "uint256"
            },
            {
              "internalType": "uint256[]",
              "name": "depositIds",
              "type": "uint256[]"
            }
          ],
          "internalType": "struct Magister.Data[]",
          "name": "activeMagisters",
          "type": "tuple[]"
        }
      ],
      "stateMutability": "view",
      "type": "function"
    },
    {
      "inputs": [
        {
          "internalType": "address",
          "name": "magister",
          "type": "address"
        }
      ],
      "name": "getMagisterDepositIds",
      "outputs": [
        {
          "internalType": "uint256[]",
          "name": "",
          "type": "uint256[]"
        }
      ],
      "stateMutability": "view",
      "type": "function"
    },
    {
      "inputs": [],
      "name": "getPools",
      "outputs": [
        {
          "components": [
            {
              "internalType": "uint256",
              "name": "id",
              "type": "uint256"
            },
            {
              "internalType": "contract IERC20",
              "name": "depositToken",
              "type": "address"
            },
            {
              "internalType": "contract IPriceOracle",
              "name": "priceOracle",
              "type": "address"
            },
            {
              "internalType": "bool",
              "name": "isCompounding",
              "type": "bool"
            },
            {
              "internalType": "uint256",
              "name": "depositsAmount",
              "type": "uint256"
            },
            {
              "internalType": "uint256",
              "name": "depositorApr",
              "type": "uint256"
            },
            {
              "internalType": "uint256",
              "name": "magisterApr",
              "type": "uint256"
            },
            {
              "internalType": "uint256",
              "name": "depositorBonusApr",
              "type": "uint256"
            },
            {
              "internalType": "uint256",
              "name": "magisterBonusApr",
              "type": "uint256"
            }
          ],
          "internalType": "struct Pool.Data[]",
          "name": "",
          "type": "tuple[]"
        }
      ],
      "stateMutability": "view",
      "type": "function"
    },
    {
      "inputs": [],
      "name": "getPoolsCount",
      "outputs": [
        {
          "internalType": "uint256",
          "name": "",
          "type": "uint256"
        }
      ],
      "stateMutability": "view",
      "type": "function"
    },
    {
      "inputs": [
        {
          "internalType": "uint256",
          "name": "depositId",
          "type": "uint256"
        }
      ],
      "name": "getRewards",
      "outputs": [
        {
          "internalType": "uint256",
          "name": "depositorRewards",
          "type": "uint256"
        },
        {
          "internalType": "uint256",
          "name": "magisterRewards",
          "type": "uint256"
        }
      ],
      "stateMutability": "view",
      "type": "function"
    },
    {
      "inputs": [
        {
          "internalType": "contract IERC20",
          "name": "depositToken",
          "type": "address"
        }
      ],
      "name": "getTotalValueLocked",
      "outputs": [
        {
          "internalType": "uint256",
          "name": "totalValueLocked",
          "type": "uint256"
        }
      ],
      "stateMutability": "view",
      "type": "function"
    },
    {
      "inputs": [],
      "name": "getTotalValueLocked",
      "outputs": [
        {
          "internalType": "uint256",
          "name": "totalValueLocked",
          "type": "uint256"
        }
      ],
      "stateMutability": "view",
      "type": "function"
    },
    {
      "inputs": [],
      "name": "governor",
      "outputs": [
        {
          "internalType": "address",
          "name": "",
          "type": "address"
        }
      ],
      "stateMutability": "view",
      "type": "function"
    },
    {
      "inputs": [
        {
          "internalType": "contract ICore",
          "name": "_core",
          "type": "address"
        }
      ],
      "name": "initialize",
      "outputs": [],
      "stateMutability": "nonpayable",
      "type": "function"
    },
    {
      "inputs": [
        {
          "internalType": "address",
          "name": "",
          "type": "address"
        }
      ],
      "name": "magisters",
      "outputs": [
        {
          "internalType": "bool",
          "name": "isActive",
          "type": "bool"
        },
        {
          "internalType": "uint256",
          "name": "createdAt",
          "type": "uint256"
        },
        {
          "internalType": "address",
          "name": "addr",
          "type": "address"
        },
        {
          "internalType": "uint256",
          "name": "totalIncome",
          "type": "uint256"
        }
      ],
      "stateMutability": "view",
      "type": "function"
    },
    {
      "inputs": [],
      "name": "pendingGovernor",
      "outputs": [
        {
          "internalType": "address",
          "name": "",
          "type": "address"
        }
      ],
      "stateMutability": "view",
      "type": "function"
    },
    {
      "inputs": [
        {
          "internalType": "uint256",
          "name": "",
          "type": "uint256"
        }
      ],
      "name": "pools",
      "outputs": [
        {
          "internalType": "uint256",
          "name": "id",
          "type": "uint256"
        },
        {
          "internalType": "contract IERC20",
          "name": "depositToken",
          "type": "address"
        },
        {
          "internalType": "contract IPriceOracle",
          "name": "priceOracle",
          "type": "address"
        },
        {
          "internalType": "bool",
          "name": "isCompounding",
          "type": "bool"
        },
        {
          "internalType": "uint256",
          "name": "depositsAmount",
          "type": "uint256"
        },
        {
          "internalType": "uint256",
          "name": "depositorApr",
          "type": "uint256"
        },
        {
          "internalType": "uint256",
          "name": "magisterApr",
          "type": "uint256"
        },
        {
          "internalType": "uint256",
          "name": "depositorBonusApr",
          "type": "uint256"
        },
        {
          "internalType": "uint256",
          "name": "magisterBonusApr",
          "type": "uint256"
        }
      ],
      "stateMutability": "view",
      "type": "function"
    },
    {
      "inputs": [
        {
          "internalType": "address",
          "name": "newGovernor",
          "type": "address"
        },
        {
          "internalType": "bool",
          "name": "force",
          "type": "bool"
        }
      ],
      "name": "transitGovernance",
      "outputs": [],
      "stateMutability": "nonpayable",
      "type": "function"
    },
    {
      "inputs": [
        {
          "internalType": "uint256",
          "name": "poolId",
          "type": "uint256"
        },
        {
          "internalType": "bool",
          "name": "isCompounding",
          "type": "bool"
        },
        {
          "internalType": "uint256",
          "name": "depositorApr",
          "type": "uint256"
        },
        {
          "internalType": "uint256",
          "name": "magisterApr",
          "type": "uint256"
        },
        {
          "internalType": "uint256",
          "name": "depositorBonusApr",
          "type": "uint256"
        },
        {
          "internalType": "uint256",
          "name": "magisterBonusApr",
          "type": "uint256"
        }
      ],
      "name": "updatePool",
      "outputs": [],
      "stateMutability": "nonpayable",
      "type": "function"
    },
    {
      "inputs": [
        {
          "internalType": "address",
          "name": "magister",
          "type": "address"
        }
      ],
      "name": "whitelistMagister",
      "outputs": [],
      "stateMutability": "nonpayable",
      "type": "function"
    },
    {
      "inputs": [
        {
          "internalType": "uint256",
          "name": "depositId",
          "type": "uint256"
        },
        {
          "internalType": "uint256",
          "name": "amount",
          "type": "uint256"
        }
      ],
      "name": "withdraw",
      "outputs": [],
      "stateMutability": "nonpayable",
      "type": "function"
    }
  ],
  "transactionHash": "0x42ba824b21e0787d050d69cd3cce108c662318fb62daadb478c440e30ce2f99b",
  "args": [],
  "solcInputHash": "132a0ae4e0297df67766db98dcfb66e6",
  "bytecode": "0x608060405234801561001057600080fd5b506148a0806100206000396000f3fe608060405234801561001057600080fd5b50600436106101a35760003560e01c8063a47b4410116100ee578063c4d66de811610097578063e3056a3411610071578063e3056a3414610493578063f119821a146104a6578063f2f4eb26146104bb578063f3a4a6f6146104ce57600080fd5b8063c4d66de81461045a578063ddc125261461046d578063e2bbb1581461048057600080fd5b8063b26025aa116100c8578063b26025aa14610422578063b4ac68601461042a578063c0d8012c1461043257600080fd5b8063a47b441014610318578063ac4afa3814610338578063b02c43d01461039b57600080fd5b8063610f347b1161015057806383b116521161012a57806383b116521461027d5780638dbdbe6d14610290578063a2b4f325146102a357600080fd5b8063610f347b14610234578063673a2a1f1461024757806369dae6c61461025c57600080fd5b8063441a3e7011610181578063441a3e70146101fb578063493310a41461020e5780635a59a1b21461022157600080fd5b8063017b5f2e146101a85780630c340a24146101c6578063238efcbc146101f1575b600080fd5b6101b06104f9565b6040516101bd9190614246565b60405180910390f35b6001546101d9906001600160a01b031681565b6040516001600160a01b0390911681526020016101bd565b6101f961055e565b005b6101f9610209366004614293565b6105d7565b6101f961021c3660046142c3565b610ef2565b6101f961022f366004614328565b610f81565b6101f9610242366004614328565b61104c565b61024f61114a565b6040516101bd9190614345565b61026f61026a366004614328565b611215565b6040519081526020016101bd565b6101f961028b3660046143f9565b611332565b6101f961029e36600461442d565b6114ee565b6102e76102b1366004614328565b6003602081905260009182526040909120805460018201546002830154929093015460ff90911692916001600160a01b03169084565b6040516101bd9493929190931515845260208401929092526001600160a01b03166040830152606082015260800190565b61032b610326366004614328565b611e5e565b6040516101bd91906144a1565b61034b6103463660046144b4565b611ecd565b60408051998a526001600160a01b0398891660208b015296909716958801959095529215156060870152608086019190915260a085015260c084015260e0830152610100820152610120016101bd565b6103ae6103a93660046144b4565b611f3b565b604080519e8f529c151560208f01526001600160a01b039b8c169c8e019c909c529990981660608c015260808b019690965260a08a019490945260c089019290925260e08801526101008701526101208601526101408501526101608401526101808301526101a08201526101c0016101bd565b61026f611fcb565b60065461026f565b6104456104403660046144b4565b612011565b604080519283526020830191909152016101bd565b6101f9610468366004614328565b612147565b6101f961047b3660046144cd565b61253c565b6101f961048e366004614293565b61261f565b6002546101d9906001600160a01b031681565b6104ae61262a565b6040516101bd9190614506565b6000546101d9906001600160a01b031681565b61026f6104dc3660046145a6565b600860209081526000928352604080842090915290825290205481565b6060600460000180548060200260200160405190810160405280929190818152602001828054801561055457602002820191906000526020600020905b81546001600160a01b03168152600190910190602001808311610536575b5050505050905090565b6002546001600160a01b031633146105895760405163aec80d4b60e01b815260040160405180910390fd5b600254600180546001600160a01b0319166001600160a01b03909216918217905560405181907f564590b81987d147246f63910a8e1ee4eb09c4d64cc75ee975a8ffedfcc2210e90600090a3565b6000600783815481106105ec576105ec6145cb565b90600052602060002090600d0201905060006006826003015481548110610615576106156145cb565b600091825260209091206001840154600890920201915061010090046001600160a01b0316331480610653575060028201546001600160a01b031633145b61067057604051633b382fcd60e21b815260040160405180910390fd5b600181015460009061068b906001600160a01b0316856127c5565b905061069a8360000154612867565b60006106b9846008015485600701546106b391906145f7565b83612b53565b90506000806000806106e3886003015489600601548a600501546106dd91906145f7565b87612b6b565b60028c0154939750919550935091506001600160a01b03163314156108de5760005460408051634c12d47160e01b815290516107f8926001600160a01b031691634c12d4719160048083019260209291908290030181865afa15801561074d573d6000803e3d6000fd5b505050506040513d601f19601f82011682018060405250810190610771919061460e565b60028a015460005460408051634c4e61e960e01b815290516001600160a01b039384169388931691634c4e61e99160048083019260209291908290030181865afa1580156107c3573d6000803e3d6000fd5b505050506040513d601f19601f820116820180604052508101906107e7919061460e565b6001600160a01b0316929190612f59565b80156108bf5760005460408051634c12d47160e01b815290516108bf926001600160a01b031691634c12d4719160048083019260209291908290030181865afa158015610849573d6000803e3d6000fd5b505050506040513d601f19601f8201168201806040525081019061086d919061460e565b60028a015460005460408051638b02d31760e01b815290516001600160a01b039384169387931691638b02d3179160048083019260209291908290030181865afa1580156107c3573d6000803e3d6000fd5b848860080160008282546108d3919061462b565b90915550610ea59050565b876004015486111561090357604051630e0e9e5d60e31b815260040160405180910390fd5b6002870154600090600160a01b900460ff1615610abd5760008054906101000a90046001600160a01b03166001600160a01b0316633a5017b46040518163ffffffff1660e01b8152600401602060405180830381865afa15801561096b573d6000803e3d6000fd5b505050506040513d601f19601f8201168201806040525081019061098f9190614643565b905060008054906101000a90046001600160a01b03166001600160a01b03166351adfe496040518163ffffffff1660e01b8152600401602060405180830381865afa1580156109e2573d6000803e3d6000fd5b505050506040513d601f19601f82011682018060405250810190610a069190614643565b89600a0154610a15919061462b565b421015610a9e5760008054906101000a90046001600160a01b03166001600160a01b03166316330d406040518163ffffffff1660e01b8152600401602060405180830381865afa158015610a6d573d6000803e3d6000fd5b505050506040513d601f19601f82011682018060405250810190610a919190614643565b610a9b908261462b565b90505b610aba610ab382670de0b6b3a76400006145f7565b8690612ff7565b94505b60008054906101000a90046001600160a01b03166001600160a01b0316634c4e61e96040518163ffffffff1660e01b8152600401602060405180830381865afa158015610b0e573d6000803e3d6000fd5b505050506040513d601f19601f82011682018060405250810190610b32919061460e565b60018901546001600160a01b03908116911614801590610bd7575060008054906101000a90046001600160a01b03166001600160a01b0316638b02d3176040518163ffffffff1660e01b8152600401602060405180830381865afa158015610b9e573d6000803e3d6000fd5b505050506040513d601f19601f82011682018060405250810190610bc2919061460e565b60018901546001600160a01b03908116911614155b15610c03576001808a015490890154610c03916001600160a01b039182169161010090910416896130c7565b60005460408051634c12d47160e01b81529051610d77926001600160a01b031691634c12d4719160048083019260209291908290030181865afa158015610c4e573d6000803e3d6000fd5b505050506040513d601f19601f82011682018060405250810190610c72919061460e565b8a60010160019054906101000a90046001600160a01b031660008054906101000a90046001600160a01b03166001600160a01b0316634c4e61e96040518163ffffffff1660e01b8152600401602060405180830381865afa158015610cdb573d6000803e3d6000fd5b505050506040513d601f19601f82011682018060405250810190610cff919061460e565b60018c01546001600160a01b03908116911614610d1c5787610d26565b610d26888b61462b565b60008054906101000a90046001600160a01b03166001600160a01b0316634c4e61e96040518163ffffffff1660e01b8152600401602060405180830381865afa1580156107c3573d6000803e3d6000fd5b8315610e435760005460408051634c12d47160e01b81529051610e43926001600160a01b031691634c12d4719160048083019260209291908290030181865afa158015610dc8573d6000803e3d6000fd5b505050506040513d601f19601f82011682018060405250810190610dec919061460e565b60018b015460005460408051638b02d31760e01b815290516001600160a01b036101009094048416938a931691638b02d3179160048083019260209291908290030181865afa1580156107c3573d6000803e3d6000fd5b86886003016000828254610e5791906145f7565b9250508190555086896004016000828254610e7291906145f7565b9091555050600689015460058a0154610e8b91906145f7565b896006016000828254610e9e919061462b565b9091555050505b42600b8901556004880154610ee65760018801805460ff1916905542600c890155600388015460009081526008602090815260408083203384529091528120555b50505050505050505050565b6001546001600160a01b03163314610f1d576040516305e7700560e51b815260040160405180910390fd5b600060068781548110610f3257610f326145cb565b6000918252602090912060026008909202019081018054971515600160a01b0260ff60a01b19909816979097179096555060048501939093556005840191909155600683015560079091015550565b6001546001600160a01b03163314610fac576040516305e7700560e51b815260040160405180910390fd5b6001600160a01b038116600090815260056020526040902054610ff25760405163c3a9f00560e01b81526001600160a01b03821660048201526024015b60405180910390fd5b610ffd6004826130fc565b15611049576001600160a01b038116600081815260036020526040808220805460ff19169055517feac1eada73853c49d4c41fc681d6ac5332005e489babcae0b54f4024150601d79190a25b50565b6001546001600160a01b03163314611077576040516305e7700560e51b815260040160405180910390fd5b6001600160a01b038116600090815260056020526040902054156110b957604051630a0e5acf60e21b81526001600160a01b0382166004820152602401610fe9565b6110c4600482613235565b15611049576001600160a01b03811660008181526003602052604090206002810180546001600160a01b0319169092179091556001810154611107574260018201555b805460ff191660011781556040516001600160a01b038316907fb41dc55c7c8ff45cc4ee01390b83d63e2c93edf7952c5ef3f4ba55a4af6b6a9690600090a25050565b60606006805480602002602001604051908101604052809291908181526020016000905b8282101561120c576000848152602090819020604080516101208101825260088602909201805483526001808201546001600160a01b0390811685870152600283015490811693850193909352600160a01b90920460ff161515606084015260038101546080840152600481015460a0840152600581015460c0840152600681015460e084015260070154610100830152908352909201910161116e565b50505050905090565b6000805b60065481101561132c57826001600160a01b031660068281548110611240576112406145cb565b60009182526020909120600160089092020101546001600160a01b0316141561131a5761130d60068281548110611279576112796145cb565b600091825260209182902060408051610120810182526008939093029091018054835260018101546001600160a01b0390811694840194909452600281015493841691830191909152600160a01b90920460ff161515606082015260038201546080820152600482015460a0820152600582015460c0820152600682015460e08201526007909101546101008201526132a5565b611317908361462b565b91505b806113248161465c565b915050611219565b50919050565b6001546001600160a01b0316331461135d576040516305e7700560e51b815260040160405180910390fd5b600060068054905090506006604051806101200160405280838152602001896001600160a01b0316815260200160008054906101000a90046001600160a01b03166001600160a01b0316632630c12f6040518163ffffffff1660e01b8152600401602060405180830381865afa1580156113db573d6000803e3d6000fd5b505050506040513d601f19601f820116820180604052508101906113ff919061460e565b6001600160a01b0390811682529815156020808301919091526000604080840182905260608085019b909b5260808085019a909a5260a08085019990995260c093840197909752845460018181018755958252908290208451600890920201908155908301519381018054948b166001600160a01b03199095169490941790935593810151600283018054988301511515600160a01b0274ffffffffffffffffffffffffffffffffffffffffff19909916919099161796909617909655509183015160038501558201516004840155810151600583015560e08101516006830155610100015160079091015550565b6001600160a01b03811633148061153157506001600160a01b03811630148061152f57506001600160a01b03811660009081526003602052604090205460ff165b155b1561155a5760405163c3a9f00560e01b81526001600160a01b0382166004820152602401610fe9565b60008060009054906101000a90046001600160a01b03166001600160a01b0316634c4e61e96040518163ffffffff1660e01b8152600401602060405180830381865afa1580156115ae573d6000803e3d6000fd5b505050506040513d601f19601f820116820180604052508101906115d2919061460e565b905060008060009054906101000a90046001600160a01b03166001600160a01b0316638b02d3176040518163ffffffff1660e01b8152600401602060405180830381865afa158015611628573d6000803e3d6000fd5b505050506040513d601f19601f8201168201806040525081019061164c919061460e565b9050600060068681548110611663576116636145cb565b9060005260206000209060080201905061175233846001600160a01b03168360010160009054906101000a90046001600160a01b03166001600160a01b031614806116bd575060018301546001600160a01b038581169116145b6116c7573061173c565b60008054906101000a90046001600160a01b03166001600160a01b0316634c12d4716040518163ffffffff1660e01b8152600401602060405180830381865afa158015611718573d6000803e3d6000fd5b505050506040513d601f19601f8201168201806040525081019061173c919061460e565b60018401546001600160a01b0316919088612f59565b600181015460009061176d906001600160a01b0316876127c5565b905080826003016000828254611783919061462b565b90915550506000878152600860209081526040808320338452909152902054611c6657856117c457604051635491c16d60e01b815260040160405180910390fd5b600060078054905090506007604051806101c00160405280838152602001600115158152602001336001600160a01b03168152602001886001600160a01b031681526020018a815260200184815260200160008152602001600081526020016000815260200160008152602001428152602001428152602001428152602001600081525090806001815401808255809150506001900390600052602060002090600d02016000909190919091506000820151816000015560208201518160010160006101000a81548160ff02191690831515021790555060408201518160010160016101000a8154816001600160a01b0302191690836001600160a01b0316021790555060608201518160020160006101000a8154816001600160a01b0302191690836001600160a01b031602179055506080820151816003015560a0820151816004015560c0820151816005015560e0820151816006015561010082015181600701556101208201518160080155610140820151816009015561016082015181600a015561018082015181600b01556101a082015181600c0155505080600860008a81526020019081526020016000206000336001600160a01b03166001600160a01b0316815260200190815260200160002081905550306001600160a01b0316866001600160a01b031614611b6c5760008060009054906101000a90046001600160a01b03166001600160a01b0316632630c12f6040518163ffffffff1660e01b8152600401602060405180830381865afa158015611a09573d6000803e3d6000fd5b505050506040513d601f19601f82011682018060405250810190611a2d919061460e565b6001850154604051630787c49960e21b81526001600160a01b039182166004820152911690631e1f126490602401602060405180830381865afa158015611a78573d6000803e3d6000fd5b505050506040513d601f19601f82011682018060405250810190611a9c9190614643565b905060008054906101000a90046001600160a01b03166001600160a01b031663a0230d506040518163ffffffff1660e01b8152600401602060405180830381865afa158015611aef573d6000803e3d6000fd5b505050506040513d601f19601f82011682018060405250810190611b139190614643565b611b1d8483612ff7565b1015611b3c57604051630dbb391160e21b815260040160405180910390fd5b506001600160a01b0386166000908152600360209081526040822060040180546001810182559083529120018190555b60018301546001600160a01b03868116911614611c605760008054906101000a90046001600160a01b03166001600160a01b03166376cdb03b6040518163ffffffff1660e01b8152600401602060405180830381865afa158015611bd4573d6000803e3d6000fd5b505050506040513d601f19601f82011682018060405250810190611bf8919061460e565b6001840154604051638e877d9960e01b81526001600160a01b03918216600482015260248101859052911690638e877d9990604401600060405180830381600087803b158015611c4757600080fd5b505af1158015611c5b573d6000803e3d6000fd5b505050505b50611e55565b6000878152600860209081526040808320338452909152812054600780549091908110611c9557611c956145cb565b90600052602060002090600d02019050611cb28160000154612867565b600081600601548260050154611cc891906145f7565b9050600080611cdd8460030154846000612b6b565b505091509150611d7960008054906101000a90046001600160a01b03166001600160a01b0316634c12d4716040518163ffffffff1660e01b8152600401602060405180830381865afa158015611d37573d6000803e3d6000fd5b505050506040513d601f19601f82011682018060405250810190611d5b919061460e565b60018601546001600160a01b038b8116929161010090041685612f59565b8015611e0c5760005460408051634c12d47160e01b81529051611e0c926001600160a01b031691634c12d4719160048083019260209291908290030181865afa158015611dca573d6000803e3d6000fd5b505050506040513d601f19601f82011682018060405250810190611dee919061460e565b60018601546001600160a01b038a8116929161010090041684612f59565b84846004016000828254611e20919061462b565b9250508190555082846006016000828254611e3b919061462b565b909155505042600a8501819055600b909401939093555050505b50505050505050565b6001600160a01b038116600090815260036020908152604091829020600401805483518184028101840190945280845260609392830182828015611ec157602002820191906000526020600020905b815481526020019060010190808311611ead575b50505050509050919050565b60068181548110611edd57600080fd5b6000918252602090912060089091020180546001820154600283015460038401546004850154600586015460068701546007909701549597506001600160a01b039485169694841695600160a01b90940460ff169492939192909189565b60078181548110611f4b57600080fd5b60009182526020909120600d9091020180546001820154600283015460038401546004850154600586015460068701546007880154600889015460098a0154600a8b0154600b8c0154600c909c01549a9c5060ff8a169b610100909a046001600160a01b039081169b99169997989697959694959394929391929091908e565b6000805b60065481101561200d57611fef60068281548110611279576112796145cb565b611ff9908361462b565b9150806120058161465c565b915050611fcf565b5090565b600080600060078481548110612029576120296145cb565b60009182526020808320604080516101c081018252600d90940290910180548452600181015460ff81161515938501939093526001600160a01b03610100938490048116928501929092526002810154909116606084015260038101546080840152600481015460a0840152600581015460c0840152600681015460e084015260078101549183019190915260088101546101208301526009810154610140830152600a810154610160830152600b810154610180830152600c01546101a08201529150806120f786613346565b915091508260e001518360c0015183612110919061462b565b61211a91906145f7565b945082610120015183610100015182612133919061462b565b61213d91906145f7565b9350505050915091565b600254600160a01b900460ff1615801561217c57506002547501000000000000000000000000000000000000000000900460ff165b1561219a57604051631ee1e30360e21b815260040160405180910390fd5b600254600160a01b900460ff161580156121ef57600280547fffffffffffffffffffff0000ffffffffffffffffffffffffffffffffffffffff1675010100000000000000000000000000000000000000001790555b600080546001600160a01b0319166001600160a01b03841617905561221333613589565b6007604051806101c001604052806000815260200160001515815260200160006001600160a01b0316815260200160006001600160a01b031681526020016000815260200160008152602001600081526020016000815260200160008152602001600081526020014281526020014281526020014281526020014281525090806001815401808255809150506001900390600052602060002090600d02016000909190919091506000820151816000015560208201518160010160006101000a81548160ff02191690831515021790555060408201518160010160016101000a8154816001600160a01b0302191690836001600160a01b0316021790555060608201518160020160006101000a8154816001600160a01b0302191690836001600160a01b031602179055506080820151816003015560a0820151816004015560c0820151816005015560e0820151816006015561010082015181600701556101208201518160080155610140820151816009015561016082015181600a015561018082015181600b01556101a082015181600c0155505060066040518061012001604052806000815260200160006001600160a01b0316815260200160008054906101000a90046001600160a01b03166001600160a01b0316632630c12f6040518163ffffffff1660e01b8152600401602060405180830381865afa158015612420573d6000803e3d6000fd5b505050506040513d601f19601f82011682018060405250810190612444919061460e565b6001600160a01b0390811682526000602080840182905260408085018390526060808601849052608080870185905260a080880186905260c0978801869052895460018181018c559a87529585902089516008909702019586559388015198850180549987166001600160a01b0319909a169990991790985590860151600284018054928801511515600160a01b0274ffffffffffffffffffffffffffffffffffffffffff199093169190951617179092559383015160038501558201516004840155810151600583015560e0810151600683015561010001516007909101558015612538576002805460ff60a01b191690555b5050565b6001546001600160a01b03163314612567576040516305e7700560e51b815260040160405180910390fd5b6001600160a01b03821661258e5760405163604b48b960e11b815260040160405180910390fd5b6001600160a01b0382163014156125b8576040516306b3e95d60e21b815260040160405180910390fd5b600280546001600160a01b0319166001600160a01b03841617905580612616576001546040516001600160a01b038085169216907fc606c9af1451cadeb333f6ff7b24a5540974f4e800bac274fa7fff9edc305cb190600090a35050565b61253882613589565b6125388282306114ee565b6004546060908067ffffffffffffffff81111561264957612649614677565b6040519080825280602002602001820160405280156126b757816020015b6126a46040518060a001604052806000151581526020016000815260200160006001600160a01b0316815260200160008152602001606081525090565b8152602001906001900390816126675790505b50915060005b818110156127c05760036000600460000183815481106126df576126df6145cb565b60009182526020808320909101546001600160a01b039081168452838201949094526040928301909120825160a081018452815460ff1615158152600182015481840152600282015490941684840152600381015460608501526004810180548451818502810185019095528085529193608086019390929083018282801561278757602002820191906000526020600020905b815481526020019060010190808311612773575b5050505050815250508382815181106127a2576127a26145cb565b602002602001018190525080806127b89061465c565b9150506126bd565b505090565b600080836001600160a01b031663313ce5676040518163ffffffff1660e01b8152600401602060405180830381865afa158015612806573d6000803e3d6000fd5b505050506040513d601f19601f8201168201806040525081019061282a919061468d565b6128359060126146b0565b61284090600a6147b7565b90508060011461285c5761285481846147c6565b915050612861565b829150505b92915050565b60008061287383613346565b9150915060006007848154811061288c5761288c6145cb565b90600052602060002090600d02019050600060068260030154815481106128b5576128b56145cb565b6000918252602080832060089290920290910160010154825460408051634c4e61e960e01b815290516001600160a01b0393841696509290911692634c4e61e9926004808401938290030181865afa158015612915573d6000803e3d6000fd5b505050506040513d601f19601f82011682018060405250810190612939919061460e565b6001600160a01b0316826001600160a01b031614612a375760008054906101000a90046001600160a01b03166001600160a01b0316632630c12f6040518163ffffffff1660e01b8152600401602060405180830381865afa1580156129a2573d6000803e3d6000fd5b505050506040513d601f19601f820116820180604052508101906129c6919061460e565b604051630787c49960e21b81526001600160a01b0384811660048301529190911690631e1f126490602401602060405180830381865afa158015612a0e573d6000803e3d6000fd5b505050506040513d601f19601f82011682018060405250810190612a329190614643565b612a41565b670de0b6b3a76400005b60028401549091506001600160a01b03163014801590612a7d575060028301546001600160a01b031660009081526003602052604090205460ff165b15612adb5783836007016000828254612a96919061462b565b90915550612aa690508482612ff7565b60028401546001600160a01b031660009081526003602081905260408220018054909190612ad590849061462b565b90915550505b84836005016000828254612aef919061462b565b90915550503360009081526003602052604090205460ff1615612b4b57612b168582612ff7565b60028401546001600160a01b031660009081526003602081905260408220018054909190612b4590849061462b565b90915550505b505050505050565b6000818310612b625781612b64565b825b9392505050565b60008060008060008060009054906101000a90046001600160a01b03166001600160a01b0316632630c12f6040518163ffffffff1660e01b8152600401602060405180830381865afa158015612bc5573d6000803e3d6000fd5b505050506040513d601f19601f82011682018060405250810190612be9919061460e565b9050600060068981548110612c0057612c006145cb565b6000918252602080832060408051610120810182526008949094029091018054845260018101546001600160a01b0390811693850193909352600281015492831691840191909152600160a01b90910460ff161515606083015260038101546080830152600481015460a0830152600581015460c0830152600681015460e0830152600701546101008201529150612c97826135d5565b90506000612ca4836135eb565b905060008060009054906101000a90046001600160a01b03166001600160a01b0316634c4e61e96040518163ffffffff1660e01b8152600401602060405180830381865afa158015612cfa573d6000803e3d6000fd5b505050506040513d601f19601f82011682018060405250810190612d1e919061460e565b6001600160a01b031684602001516001600160a01b031614612daf576020840151604051630787c49960e21b81526001600160a01b03918216600482015290861690631e1f126490602401602060405180830381865afa158015612d86573d6000803e3d6000fd5b505050506040513d601f19601f82011682018060405250810190612daa9190614643565b612db9565b670de0b6b3a76400005b9050612dc58b82612ff7565b9850612dd18a82612ff7565b9650846001600160a01b0316631e1f126460008054906101000a90046001600160a01b03166001600160a01b0316638b02d3176040518163ffffffff1660e01b8152600401602060405180830381865afa158015612e33573d6000803e3d6000fd5b505050506040513d601f19601f82011682018060405250810190612e57919061460e565b6040517fffffffff0000000000000000000000000000000000000000000000000000000060e084901b1681526001600160a01b039091166004820152602401602060405180830381865afa925050508015612ecf575060408051601f3d908101601f19168201909252612ecc91810190614643565b60015b612ed857612f4b565b8015612f495760e0850151612ef990612ef19083612ff7565b8b9086613602565b9850612f1e612f1682876101000151612ff790919063ffffffff16565b899085613602565b60a0860151909750612f32908b9086613602565b60c0860151909a50612f4690899085613602565b97505b505b505050505093509350935093565b6040516001600160a01b0380851660248301528316604482015260648101829052612ff19085906323b872dd60e01b906084015b60408051601f198184030181529190526020810180517bffffffffffffffffffffffffffffffffffffffffffffffffffffffff167fffffffff00000000000000000000000000000000000000000000000000000000909316929092179091526136bd565b50505050565b60008080600019848609848602925082811083820303915050670de0b6b3a764000081106130495760405163072fa3c960e31b815260048101829052670de0b6b3a76400006024820152604401610fe9565b600080670de0b6b3a76400008688099150506706f05b59d3b1ffff8111826130835780670de0b6b3a7640000850401945050505050612861565b620400008285030493909111909103600160ee1b02919091177faccb18165bd6fe31ae1cf318dc5b51eee0e1ba569b88cd74c1773b91fac106690201905092915050565b6040516001600160a01b0383166024820152604481018290526130f790849063a9059cbb60e01b90606401612f8d565b505050565b6001600160a01b038116600090815260018301602052604081205480613126576000915050612861565b60006131336001836145f7565b905060006001613141875490565b61314b91906145f7565b90508082146131d757600086600001828154811061316b5761316b6145cb565b60009182526020909120015487546001600160a01b039091169150819088908590811061319a5761319a6145cb565b600091825260208083209190910180546001600160a01b0319166001600160a01b0394851617905592909116815260018801909152604090208390555b85548690806131e8576131e86147e5565b60008281526020808220830160001990810180546001600160a01b03191690559092019092556001600160a01b038716825260018881019091526040822091909155935050505092915050565b6001600160a01b03811660009081526001830160205260408120541561325d57506000612861565b508154600180820184556000848152602080822090930180546001600160a01b0319166001600160a01b03959095169485179055845493815293810190915260409092205590565b60008160800151600014156132bc57506000919050565b60408083015160208401519151630787c49960e21b81526001600160a01b03928316600482015260009290911690631e1f126490602401602060405180830381865afa158015613310573d6000803e3d6000fd5b505050506040513d601f19601f820116820180604052508101906133349190614643565b6080840151909150612b649082612ff7565b60008060006007848154811061335e5761335e6145cb565b60009182526020808320604080516101c081018252600d90940290910180548452600181015460ff81161515938501939093526001600160a01b036101009384900481169285019290925260028101549091166060840152600381015460808401819052600482015460a0850152600582015460c085015260068083015460e086015260078301549385019390935260088201546101208501526009820154610140850152600a820154610160850152600b820154610180850152600c909101546101a084015281549294509091811061343a5761343a6145cb565b60009182526020808320604080516101208101825260089094029091018054845260018101546001600160a01b039081168585015260028201548082168685015260ff600160a01b90910416151560608601526003820154608086015260048083015460a0870152600583015460c0870152600683015460e087015260079092015461010086015285548351630e9405ed60e21b8152935195975061354d95613542959190921693633a5017b49381810193918290030181865afa158015613506573d6000803e3d6000fd5b505050506040513d601f19601f8201168201806040525081019061352a9190614643565b61018086015161353a90426145f7565b859190613747565b60a085015190612ff7565b9050600061355a83613803565b9050613570613568846135d5565b839083613602565b955061357e613568846135eb565b945050505050915091565b600180546001600160a01b0319166001600160a01b03831690811790915560405181907f564590b81987d147246f63910a8e1ee4eb09c4d64cc75ee975a8ffedfcc2210e90600090a350565b60008160e001518260a00151612861919061462b565b60008161010001518260c00151612861919061462b565b600080806000198587098587029250828110838203039150508381106136455760405163072fa3c960e31b81526004810182905260248101859052604401610fe9565b8061365557508290049050612b64565b600084868809600260036001881981018916988990049182028318808302840302808302840302808302840302808302840302808302840302918202909203026000889003889004909101858311909403939093029303949094049190911702949350505050565b6040805180820190915260208082527f5361666545524332303a206c6f772d6c6576656c2063616c6c206661696c656490820152829060009061370c906001600160a01b038416908590613821565b805190915015612ff1578080602001905181019061372a91906147fb565b612ff157604051639b8d506160e01b815260040160405180910390fd5b60008061375385613803565b905084606001516137865761377f61377884670de0b6b3a76400006301e187e0613602565b8290612ff7565b91506137fb565b670de0b6b3a76400006137ee6137c56137a3836301e187e06147c6565b6137bf856137b98a670de0b6b3a76400006145f7565b90612ff7565b906138c4565b6137d790670de0b6b3a764000061462b565b6137e9670de0b6b3a7640000876147c6565b6138d9565b6137f891906145f7565b91505b509392505050565b600061380e826135eb565b613817836135d5565b612861919061462b565b6060833b61384d5760405163dc5dd7fd60e01b81526001600160a01b0385166004820152602401610fe9565b600080856001600160a01b0316856040516138689190614844565b6000604051808303816000865af19150503d80600081146138a5576040519150601f19603f3d011682016040523d82523d6000602084013e6138aa565b606091505b50915091506138ba828286613918565b9695505050505050565b6000612b6483670de0b6b3a764000084613602565b6000826138fe5781156138ed5760006138f7565b670de0b6b3a76400005b9050612861565b612b6461391361390d85613951565b84612ff7565b613a01565b60608315613927575081612b64565b8251156139375782518060208501fd5b8160405162461bcd60e51b8152600401610fe99190614860565b6000670de0b6b3a764000082101561397f5760405163c427d0c960e01b815260048101839052602401610fe9565b6000613994670de0b6b3a76400008404614150565b670de0b6b3a7640000808202935090915083821c908114156139b7575050919050565b6706f05b59d3b200005b80156139f957670de0b6b3a7640000828002049150671bc16d674ec8000082106139f1579283019260019190911c905b60011c6139c1565b505050919050565b6000680a688906bd8b0000008210613a2f57604051632132de2160e01b815260048101839052602401610fe9565b50670de0b6b3a764000060409190911b0477800000000000000000000000000000000000000000000000678000000000000000821615613a785768016a09e667f3bcc9090260401c5b674000000000000000821615613a97576801306fe0a31b7152df0260401c5b672000000000000000821615613ab6576801172b83c7d517adce0260401c5b671000000000000000821615613ad55768010b5586cf9890f62a0260401c5b670800000000000000821615613af4576801059b0d31585743ae0260401c5b670400000000000000821615613b1357680102c9a3e778060ee70260401c5b670200000000000000821615613b325768010163da9fb33356d80260401c5b670100000000000000821615613b5157680100b1afa5abcbed610260401c5b6680000000000000821615613b6f5768010058c86da1c09ea20260401c5b6640000000000000821615613b8d576801002c605e2e8cec500260401c5b6620000000000000821615613bab57680100162f3904051fa10260401c5b6610000000000000821615613bc9576801000b175effdc76ba0260401c5b6608000000000000821615613be757680100058ba01fb9f96d0260401c5b6604000000000000821615613c055768010002c5cc37da94920260401c5b6602000000000000821615613c23576801000162e525ee05470260401c5b6601000000000000821615613c415768010000b17255775c040260401c5b65800000000000821615613c5e576801000058b91b5bc9ae0260401c5b65400000000000821615613c7b57680100002c5c89d5ec6d0260401c5b65200000000000821615613c985768010000162e43f4f8310260401c5b65100000000000821615613cb557680100000b1721bcfc9a0260401c5b65080000000000821615613cd25768010000058b90cf1e6e0260401c5b65040000000000821615613cef576801000002c5c863b73f0260401c5b65020000000000821615613d0c57680100000162e430e5a20260401c5b65010000000000821615613d29576801000000b1721835510260401c5b648000000000821615613d4557680100000058b90c0b490260401c5b644000000000821615613d615768010000002c5c8601cc0260401c5b642000000000821615613d7d576801000000162e42fff00260401c5b641000000000821615613d995768010000000b17217fbb0260401c5b640800000000821615613db5576801000000058b90bfce0260401c5b640400000000821615613dd157680100000002c5c85fe30260401c5b640200000000821615613ded5768010000000162e42ff10260401c5b640100000000821615613e0957680100000000b17217f80260401c5b6380000000821615613e245768010000000058b90bfc0260401c5b6340000000821615613e3f576801000000002c5c85fe0260401c5b6320000000821615613e5a57680100000000162e42ff0260401c5b6310000000821615613e75576801000000000b17217f0260401c5b6308000000821615613e9057680100000000058b90c00260401c5b6304000000821615613eab5768010000000002c5c8600260401c5b6302000000821615613ec6576801000000000162e4300260401c5b6301000000821615613ee15768010000000000b172180260401c5b62800000821615613efb576801000000000058b90c0260401c5b62400000821615613f1557680100000000002c5c860260401c5b62200000821615613f2f5768010000000000162e430260401c5b62100000821615613f4957680100000000000b17210260401c5b62080000821615613f635768010000000000058b910260401c5b62040000821615613f7d576801000000000002c5c80260401c5b62020000821615613f9757680100000000000162e40260401c5b62010000821615613fb1576801000000000000b1720260401c5b618000821615613fca57680100000000000058b90260401c5b614000821615613fe35768010000000000002c5d0260401c5b612000821615613ffc576801000000000000162e0260401c5b6110008216156140155768010000000000000b170260401c5b61080082161561402e576801000000000000058c0260401c5b61040082161561404757680100000000000002c60260401c5b61020082161561406057680100000000000001630260401c5b61010082161561407957680100000000000000b10260401c5b608082161561409157680100000000000000590260401c5b60408216156140a9576801000000000000002c0260401c5b60208216156140c157680100000000000000160260401c5b60108216156140d9576801000000000000000b0260401c5b60088216156140f157680100000000000000060260401c5b600482161561410957680100000000000000030260401c5b600282161561412157680100000000000000010260401c5b600182161561413957680100000000000000010260401c5b670de0b6b3a76400000260409190911c60bf031c90565b6000700100000000000000000000000000000000821061417d57608091821c9161417a908261462b565b90505b6801000000000000000082106141a057604091821c9161419d908261462b565b90505b64010000000082106141bf57602091821c916141bc908261462b565b90505b6201000082106141dc57601091821c916141d9908261462b565b90505b61010082106141f857600891821c916141f5908261462b565b90505b6010821061421357600491821c91614210908261462b565b90505b6004821061422e57600291821c9161422b908261462b565b90505b600282106142415761286160018261462b565b919050565b6020808252825182820181905260009190848201906040850190845b818110156142875783516001600160a01b031683529284019291840191600101614262565b50909695505050505050565b600080604083850312156142a657600080fd5b50508035926020909101359150565b801515811461104957600080fd5b60008060008060008060c087890312156142dc57600080fd5b8635955060208701356142ee816142b5565b95989597505050506040840135936060810135936080820135935060a0909101359150565b6001600160a01b038116811461104957600080fd5b60006020828403121561433a57600080fd5b8135612b6481614313565b602080825282518282018190526000919060409081850190868401855b828110156143ec578151805185526001600160a01b0387820151168786015285810151614399878701826001600160a01b03169052565b506060818101511515908601526080808201519086015260a0808201519086015260c0808201519086015260e0808201519086015261010090810151908501526101209093019290850190600101614362565b5091979650505050505050565b60008060008060008060c0878903121561441257600080fd5b863561441d81614313565b955060208701356142ee816142b5565b60008060006060848603121561444257600080fd5b8335925060208401359150604084013561445b81614313565b809150509250925092565b600081518084526020808501945080840160005b838110156144965781518752958201959082019060010161447a565b509495945050505050565b602081526000612b646020830184614466565b6000602082840312156144c657600080fd5b5035919050565b600080604083850312156144e057600080fd5b82356144eb81614313565b915060208301356144fb816142b5565b809150509250929050565b60006020808301818452808551808352604092508286019150828160051b87010184880160005b8381101561459857888303603f1901855281518051151584528781015188850152868101516001600160a01b0316878501526060808201519085015260809081015160a09185018290529061458481860183614466565b96890196945050509086019060010161452d565b509098975050505050505050565b600080604083850312156145b957600080fd5b8235915060208301356144fb81614313565b634e487b7160e01b600052603260045260246000fd5b634e487b7160e01b600052601160045260246000fd5b600082821015614609576146096145e1565b500390565b60006020828403121561462057600080fd5b8151612b6481614313565b6000821982111561463e5761463e6145e1565b500190565b60006020828403121561465557600080fd5b5051919050565b6000600019821415614670576146706145e1565b5060010190565b634e487b7160e01b600052604160045260246000fd5b60006020828403121561469f57600080fd5b815160ff81168114612b6457600080fd5b600060ff821660ff8416808210156146ca576146ca6145e1565b90039392505050565b600181815b8085111561470e5781600019048211156146f4576146f46145e1565b8085161561470157918102915b93841c93908002906146d8565b509250929050565b60008261472557506001612861565b8161473257506000612861565b816001811461474857600281146147525761476e565b6001915050612861565b60ff841115614763576147636145e1565b50506001821b612861565b5060208310610133831016604e8410600b8410161715614791575081810a612861565b61479b83836146d3565b80600019048211156147af576147af6145e1565b029392505050565b6000612b6460ff841683614716565b60008160001904831182151516156147e0576147e06145e1565b500290565b634e487b7160e01b600052603160045260246000fd5b60006020828403121561480d57600080fd5b8151612b64816142b5565b60005b8381101561483357818101518382015260200161481b565b83811115612ff15750506000910152565b60008251614856818460208701614818565b9190910192915050565b602081526000825180602084015261487f816040850160208701614818565b601f01601f1916919091016040019291505056fea164736f6c634300080a000a",
  "devdoc": {
    "kind": "dev",
    "methods": {},
    "version": 1
  },
  "userdoc": {
    "kind": "user",
    "methods": {},
    "version": 1
  },
  "storageLayout": {
    "storage": [
      {
        "astId": 4140,
        "contract": "contracts/Depositary.sol:Depositary",
        "label": "core",
        "offset": 0,
        "slot": "0",
        "type": "t_contract(ICore)3413"
      },
      {
        "astId": 7519,
        "contract": "contracts/Depositary.sol:Depositary",
        "label": "governor",
        "offset": 0,
        "slot": "1",
        "type": "t_address"
      },
      {
        "astId": 7521,
        "contract": "contracts/Depositary.sol:Depositary",
        "label": "pendingGovernor",
        "offset": 0,
        "slot": "2",
        "type": "t_address"
      },
      {
        "astId": 11360,
        "contract": "contracts/Depositary.sol:Depositary",
        "label": "initializing",
        "offset": 20,
        "slot": "2",
        "type": "t_bool"
      },
      {
        "astId": 11362,
        "contract": "contracts/Depositary.sol:Depositary",
        "label": "initialized",
        "offset": 21,
        "slot": "2",
        "type": "t_bool"
      },
      {
        "astId": 4271,
        "contract": "contracts/Depositary.sol:Depositary",
        "label": "magisters",
        "offset": 0,
        "slot": "3",
        "type": "t_mapping(t_address,t_struct(Data)10496_storage)"
      },
      {
        "astId": 4274,
        "contract": "contracts/Depositary.sol:Depositary",
        "label": "magistersSet",
        "offset": 0,
        "slot": "4",
        "type": "t_struct(Set)8695_storage"
      },
      {
        "astId": 4278,
        "contract": "contracts/Depositary.sol:Depositary",
        "label": "pools",
        "offset": 0,
        "slot": "6",
        "type": "t_array(t_struct(Data)10911_storage)dyn_storage"
      },
      {
        "astId": 4282,
        "contract": "contracts/Depositary.sol:Depositary",
        "label": "deposits",
        "offset": 0,
        "slot": "7",
        "type": "t_array(t_struct(Data)8684_storage)dyn_storage"
      },
      {
        "astId": 4288,
        "contract": "contracts/Depositary.sol:Depositary",
        "label": "currentDepositIds",
        "offset": 0,
        "slot": "8",
        "type": "t_mapping(t_uint256,t_mapping(t_address,t_uint256))"
      }
    ],
    "types": {
      "t_address": {
        "encoding": "inplace",
        "label": "address",
        "numberOfBytes": "20"
      },
      "t_array(t_address)dyn_storage": {
        "base": "t_address",
        "encoding": "dynamic_array",
        "label": "address[]",
        "numberOfBytes": "32"
      },
      "t_array(t_struct(Data)10911_storage)dyn_storage": {
        "base": "t_struct(Data)10911_storage",
        "encoding": "dynamic_array",
        "label": "struct Pool.Data[]",
        "numberOfBytes": "32"
      },
      "t_array(t_struct(Data)8684_storage)dyn_storage": {
        "base": "t_struct(Data)8684_storage",
        "encoding": "dynamic_array",
        "label": "struct Deposit.Data[]",
        "numberOfBytes": "32"
      },
      "t_array(t_uint256)dyn_storage": {
        "base": "t_uint256",
        "encoding": "dynamic_array",
        "label": "uint256[]",
        "numberOfBytes": "32"
      },
      "t_bool": {
        "encoding": "inplace",
        "label": "bool",
        "numberOfBytes": "1"
      },
      "t_contract(ICore)3413": {
        "encoding": "inplace",
        "label": "contract ICore",
        "numberOfBytes": "20"
      },
      "t_contract(IERC20)7757": {
        "encoding": "inplace",
        "label": "contract IERC20",
        "numberOfBytes": "20"
      },
      "t_contract(IPriceOracle)7878": {
        "encoding": "inplace",
        "label": "contract IPriceOracle",
        "numberOfBytes": "20"
      },
      "t_mapping(t_address,t_struct(Data)10496_storage)": {
        "encoding": "mapping",
        "key": "t_address",
        "label": "mapping(address => struct Magister.Data)",
        "numberOfBytes": "32",
        "value": "t_struct(Data)10496_storage"
      },
      "t_mapping(t_address,t_uint256)": {
        "encoding": "mapping",
        "key": "t_address",
        "label": "mapping(address => uint256)",
        "numberOfBytes": "32",
        "value": "t_uint256"
      },
      "t_mapping(t_uint256,t_mapping(t_address,t_uint256))": {
        "encoding": "mapping",
        "key": "t_uint256",
        "label": "mapping(uint256 => mapping(address => uint256))",
        "numberOfBytes": "32",
        "value": "t_mapping(t_address,t_uint256)"
      },
      "t_struct(Data)10496_storage": {
        "encoding": "inplace",
        "label": "struct Magister.Data",
        "members": [
          {
            "astId": 10486,
            "contract": "contracts/Depositary.sol:Depositary",
            "label": "isActive",
            "offset": 0,
            "slot": "0",
            "type": "t_bool"
          },
          {
            "astId": 10488,
            "contract": "contracts/Depositary.sol:Depositary",
            "label": "createdAt",
            "offset": 0,
            "slot": "1",
            "type": "t_uint256"
          },
          {
            "astId": 10490,
            "contract": "contracts/Depositary.sol:Depositary",
            "label": "addr",
            "offset": 0,
            "slot": "2",
            "type": "t_address"
          },
          {
            "astId": 10492,
            "contract": "contracts/Depositary.sol:Depositary",
            "label": "totalIncome",
            "offset": 0,
            "slot": "3",
            "type": "t_uint256"
          },
          {
            "astId": 10495,
            "contract": "contracts/Depositary.sol:Depositary",
            "label": "depositIds",
            "offset": 0,
            "slot": "4",
            "type": "t_array(t_uint256)dyn_storage"
          }
        ],
        "numberOfBytes": "160"
      },
      "t_struct(Data)10911_storage": {
        "encoding": "inplace",
        "label": "struct Pool.Data",
        "members": [
          {
            "astId": 10892,
            "contract": "contracts/Depositary.sol:Depositary",
            "label": "id",
            "offset": 0,
            "slot": "0",
            "type": "t_uint256"
          },
          {
            "astId": 10895,
            "contract": "contracts/Depositary.sol:Depositary",
            "label": "depositToken",
            "offset": 0,
            "slot": "1",
            "type": "t_contract(IERC20)7757"
          },
          {
            "astId": 10898,
            "contract": "contracts/Depositary.sol:Depositary",
            "label": "priceOracle",
            "offset": 0,
            "slot": "2",
            "type": "t_contract(IPriceOracle)7878"
          },
          {
            "astId": 10900,
            "contract": "contracts/Depositary.sol:Depositary",
            "label": "isCompounding",
            "offset": 20,
            "slot": "2",
            "type": "t_bool"
          },
          {
            "astId": 10902,
            "contract": "contracts/Depositary.sol:Depositary",
            "label": "depositsAmount",
            "offset": 0,
            "slot": "3",
            "type": "t_uint256"
          },
          {
            "astId": 10904,
            "contract": "contracts/Depositary.sol:Depositary",
            "label": "depositorApr",
            "offset": 0,
            "slot": "4",
            "type": "t_uint256"
          },
          {
            "astId": 10906,
            "contract": "contracts/Depositary.sol:Depositary",
            "label": "magisterApr",
            "offset": 0,
            "slot": "5",
            "type": "t_uint256"
          },
          {
            "astId": 10908,
            "contract": "contracts/Depositary.sol:Depositary",
            "label": "depositorBonusApr",
            "offset": 0,
            "slot": "6",
            "type": "t_uint256"
          },
          {
            "astId": 10910,
            "contract": "contracts/Depositary.sol:Depositary",
            "label": "magisterBonusApr",
            "offset": 0,
            "slot": "7",
            "type": "t_uint256"
          }
        ],
        "numberOfBytes": "256"
      },
      "t_struct(Data)8684_storage": {
        "encoding": "inplace",
        "label": "struct Deposit.Data",
        "members": [
          {
            "astId": 8657,
            "contract": "contracts/Depositary.sol:Depositary",
            "label": "id",
            "offset": 0,
            "slot": "0",
            "type": "t_uint256"
          },
          {
            "astId": 8659,
            "contract": "contracts/Depositary.sol:Depositary",
            "label": "isActive",
            "offset": 0,
            "slot": "1",
            "type": "t_bool"
          },
          {
            "astId": 8661,
            "contract": "contracts/Depositary.sol:Depositary",
            "label": "depositor",
            "offset": 1,
            "slot": "1",
            "type": "t_address"
          },
          {
            "astId": 8663,
            "contract": "contracts/Depositary.sol:Depositary",
            "label": "magister",
            "offset": 0,
            "slot": "2",
            "type": "t_address"
          },
          {
            "astId": 8665,
            "contract": "contracts/Depositary.sol:Depositary",
            "label": "poolId",
            "offset": 0,
            "slot": "3",
            "type": "t_uint256"
          },
          {
            "astId": 8667,
            "contract": "contracts/Depositary.sol:Depositary",
            "label": "principal",
            "offset": 0,
            "slot": "4",
            "type": "t_uint256"
          },
          {
            "astId": 8669,
            "contract": "contracts/Depositary.sol:Depositary",
            "label": "depositorTotalAccruedRewards",
            "offset": 0,
            "slot": "5",
            "type": "t_uint256"
          },
          {
            "astId": 8671,
            "contract": "contracts/Depositary.sol:Depositary",
            "label": "depositorWithdrawnRewards",
            "offset": 0,
            "slot": "6",
            "type": "t_uint256"
          },
          {
            "astId": 8673,
            "contract": "contracts/Depositary.sol:Depositary",
            "label": "magisterTotalAccruedRewards",
            "offset": 0,
            "slot": "7",
            "type": "t_uint256"
          },
          {
            "astId": 8675,
            "contract": "contracts/Depositary.sol:Depositary",
            "label": "magisterWithdrawnRewards",
            "offset": 0,
            "slot": "8",
            "type": "t_uint256"
          },
          {
            "astId": 8677,
            "contract": "contracts/Depositary.sol:Depositary",
            "label": "createdAt",
            "offset": 0,
            "slot": "9",
            "type": "t_uint256"
          },
          {
            "astId": 8679,
            "contract": "contracts/Depositary.sol:Depositary",
            "label": "lastDepositAt",
            "offset": 0,
            "slot": "10",
            "type": "t_uint256"
          },
          {
            "astId": 8681,
            "contract": "contracts/Depositary.sol:Depositary",
            "label": "lastInteractionAt",
            "offset": 0,
            "slot": "11",
            "type": "t_uint256"
          },
          {
            "astId": 8683,
            "contract": "contracts/Depositary.sol:Depositary",
            "label": "closedAt",
            "offset": 0,
            "slot": "12",
            "type": "t_uint256"
          }
        ],
        "numberOfBytes": "416"
      },
      "t_struct(Set)8695_storage": {
        "encoding": "inplace",
        "label": "struct EnumerableAddressSet.Set",
        "members": [
          {
            "astId": 8690,
            "contract": "contracts/Depositary.sol:Depositary",
            "label": "elements",
            "offset": 0,
            "slot": "0",
            "type": "t_array(t_address)dyn_storage"
          },
          {
            "astId": 8694,
            "contract": "contracts/Depositary.sol:Depositary",
            "label": "indexes",
            "offset": 0,
            "slot": "1",
            "type": "t_mapping(t_address,t_uint256)"
          }
        ],
        "numberOfBytes": "64"
      },
      "t_uint256": {
        "encoding": "inplace",
        "label": "uint256",
        "numberOfBytes": "32"
      }
    }
  }
}