{
  "address": "0x566d8C896625E3c7B70565C9C6FEC788dc613bE8",
  "abi": [
    {
      "inputs": [
        {
          "internalType": "address",
          "name": "spender",
          "type": "address"
        },
        {
          "internalType": "uint256",
          "name": "amount",
          "type": "uint256"
        }
      ],
      "name": "ApproveFromZeroAddress",
      "type": "error"
    },
    {
      "inputs": [
        {
          "internalType": "address",
          "name": "owner",
          "type": "address"
        },
        {
          "internalType": "uint256",
          "name": "amount",
          "type": "uint256"
        }
      ],
      "name": "ApproveToZeroAddress",
      "type": "error"
    },
    {
      "inputs": [
        {
          "internalType": "address",
          "name": "from",
          "type": "address"
        },
        {
          "internalType": "uint256",
          "name": "amount",
          "type": "uint256"
        },
        {
          "internalType": "uint256",
          "name": "balance",
          "type": "uint256"
        }
      ],
      "name": "BurnAmountExceedsBalance",
      "type": "error"
    },
    {
      "inputs": [
        {
          "internalType": "uint256",
          "name": "amount",
          "type": "uint256"
        }
      ],
      "name": "BurnFromZeroAddress",
      "type": "error"
    },
    {
      "inputs": [],
      "name": "ContractAlreadyInitialized",
      "type": "error"
    },
    {
      "inputs": [
        {
          "internalType": "address",
          "name": "owner",
          "type": "address"
        },
        {
          "internalType": "address",
          "name": "signer",
          "type": "address"
        }
      ],
      "name": "EIP2612InvalidSignature",
      "type": "error"
    },
    {
      "inputs": [
        {
          "internalType": "uint256",
          "name": "deadline",
          "type": "uint256"
        }
      ],
      "name": "EIP2612PermissionExpired",
      "type": "error"
    },
    {
      "inputs": [],
      "name": "GovernedCantGoverItself",
      "type": "error"
    },
    {
      "inputs": [],
      "name": "GovernedGovernorZeroAddress",
      "type": "error"
    },
    {
      "inputs": [],
      "name": "GovernedOnlyGovernorAllowedToCall",
      "type": "error"
    },
    {
      "inputs": [],
      "name": "GovernedOnlyPendingGovernorAllowedToCall",
      "type": "error"
    },
    {
      "inputs": [
        {
          "internalType": "uint256",
          "name": "amount",
          "type": "uint256"
        }
      ],
      "name": "MintToZeroAddress",
      "type": "error"
    },
    {
      "inputs": [],
      "name": "MinterZeroAddress",
      "type": "error"
    },
    {
      "inputs": [],
      "name": "OnlyMinterAllowed",
      "type": "error"
    },
    {
      "inputs": [
        {
          "internalType": "address",
          "name": "from",
          "type": "address"
        },
        {
          "internalType": "address",
          "name": "to",
          "type": "address"
        },
        {
          "internalType": "uint256",
          "name": "amount",
          "type": "uint256"
        },
        {
          "internalType": "uint256",
          "name": "allowance",
          "type": "uint256"
        }
      ],
      "name": "TransferAmountExceedsAllowance",
      "type": "error"
    },
    {
      "inputs": [
        {
          "internalType": "address",
          "name": "from",
          "type": "address"
        },
        {
          "internalType": "address",
          "name": "to",
          "type": "address"
        },
        {
          "internalType": "uint256",
          "name": "amount",
          "type": "uint256"
        },
        {
          "internalType": "uint256",
          "name": "balance",
          "type": "uint256"
        }
      ],
      "name": "TransferAmountExceedsBalance",
      "type": "error"
    },
    {
      "inputs": [
        {
          "internalType": "address",
          "name": "to",
          "type": "address"
        },
        {
          "internalType": "uint256",
          "name": "amount",
          "type": "uint256"
        }
      ],
      "name": "TransferFromZeroAddress",
      "type": "error"
    },
    {
      "inputs": [
        {
          "internalType": "address",
          "name": "from",
          "type": "address"
        },
        {
          "internalType": "uint256",
          "name": "amount",
          "type": "uint256"
        }
      ],
      "name": "TransferToZeroAddress",
      "type": "error"
    },
    {
      "anonymous": false,
      "inputs": [
        {
          "indexed": true,
          "internalType": "address",
          "name": "owner",
          "type": "address"
        },
        {
          "indexed": true,
          "internalType": "address",
          "name": "spender",
          "type": "address"
        },
        {
          "indexed": false,
          "internalType": "uint256",
          "name": "amount",
          "type": "uint256"
        }
      ],
      "name": "Approval",
      "type": "event"
    },
    {
      "anonymous": false,
      "inputs": [
        {
          "indexed": true,
          "internalType": "address",
          "name": "governor",
          "type": "address"
        },
        {
          "indexed": true,
          "internalType": "address",
          "name": "newGovernor",
          "type": "address"
        }
      ],
      "name": "GovernanceTransited",
      "type": "event"
    },
    {
      "anonymous": false,
      "inputs": [
        {
          "indexed": true,
          "internalType": "address",
          "name": "minter",
          "type": "address"
        },
        {
          "indexed": true,
          "internalType": "address",
          "name": "newMinter",
          "type": "address"
        }
      ],
      "name": "MinterChanged",
      "type": "event"
    },
    {
      "anonymous": false,
      "inputs": [
        {
          "indexed": true,
          "internalType": "address",
          "name": "governor",
          "type": "address"
        },
        {
          "indexed": true,
          "internalType": "address",
          "name": "newGovernor",
          "type": "address"
        }
      ],
      "name": "PendingGovernanceTransition",
      "type": "event"
    },
    {
      "anonymous": false,
      "inputs": [
        {
          "indexed": true,
          "internalType": "address",
          "name": "from",
          "type": "address"
        },
        {
          "indexed": true,
          "internalType": "address",
          "name": "to",
          "type": "address"
        },
        {
          "indexed": false,
          "internalType": "uint256",
          "name": "amount",
          "type": "uint256"
        }
      ],
      "name": "Transfer",
      "type": "event"
    },
    {
      "inputs": [],
      "name": "DOMAIN_SEPARATOR",
      "outputs": [
        {
          "internalType": "bytes32",
          "name": "",
          "type": "bytes32"
        }
      ],
      "stateMutability": "view",
      "type": "function"
    },
    {
      "inputs": [],
      "name": "acceptGovernance",
      "outputs": [],
      "stateMutability": "nonpayable",
      "type": "function"
    },
    {
      "inputs": [
        {
          "internalType": "address",
          "name": "",
          "type": "address"
        },
        {
          "internalType": "address",
          "name": "",
          "type": "address"
        }
      ],
      "name": "allowance",
      "outputs": [
        {
          "internalType": "uint256",
          "name": "",
          "type": "uint256"
        }
      ],
      "stateMutability": "view",
      "type": "function"
    },
    {
      "inputs": [
        {
          "internalType": "address",
          "name": "spender",
          "type": "address"
        },
        {
          "internalType": "uint256",
          "name": "amount",
          "type": "uint256"
        }
      ],
      "name": "approve",
      "outputs": [
        {
          "internalType": "bool",
          "name": "",
          "type": "bool"
        }
      ],
      "stateMutability": "nonpayable",
      "type": "function"
    },
    {
      "inputs": [
        {
          "internalType": "address",
          "name": "",
          "type": "address"
        }
      ],
      "name": "balanceOf",
      "outputs": [
        {
          "internalType": "uint256",
          "name": "",
          "type": "uint256"
        }
      ],
      "stateMutability": "view",
      "type": "function"
    },
    {
      "inputs": [
        {
          "internalType": "address",
          "name": "from",
          "type": "address"
        },
        {
          "internalType": "uint256",
          "name": "amount",
          "type": "uint256"
        }
      ],
      "name": "burn",
      "outputs": [],
      "stateMutability": "nonpayable",
      "type": "function"
    },
    {
      "inputs": [],
      "name": "decimals",
      "outputs": [
        {
          "internalType": "uint8",
          "name": "",
          "type": "uint8"
        }
      ],
      "stateMutability": "view",
      "type": "function"
    },
    {
      "inputs": [],
      "name": "governor",
      "outputs": [
        {
          "internalType": "address",
          "name": "",
          "type": "address"
        }
      ],
      "stateMutability": "view",
      "type": "function"
    },
    {
      "inputs": [
        {
          "internalType": "string",
          "name": "_name",
          "type": "string"
        },
        {
          "internalType": "string",
          "name": "_symbol",
          "type": "string"
        },
        {
          "internalType": "uint8",
          "name": "_decimals",
          "type": "uint8"
        },
        {
          "internalType": "address",
          "name": "_minter",
          "type": "address"
        }
      ],
      "name": "initialize",
      "outputs": [],
      "stateMutability": "nonpayable",
      "type": "function"
    },
    {
      "inputs": [
        {
          "internalType": "address",
          "name": "to",
          "type": "address"
        },
        {
          "internalType": "uint256",
          "name": "amount",
          "type": "uint256"
        }
      ],
      "name": "mint",
      "outputs": [],
      "stateMutability": "nonpayable",
      "type": "function"
    },
    {
      "inputs": [],
      "name": "minter",
      "outputs": [
        {
          "internalType": "address",
          "name": "",
          "type": "address"
        }
      ],
      "stateMutability": "view",
      "type": "function"
    },
    {
      "inputs": [],
      "name": "name",
      "outputs": [
        {
          "internalType": "string",
          "name": "",
          "type": "string"
        }
      ],
      "stateMutability": "view",
      "type": "function"
    },
    {
      "inputs": [
        {
          "internalType": "address",
          "name": "",
          "type": "address"
        }
      ],
      "name": "nonces",
      "outputs": [
        {
          "internalType": "uint256",
          "name": "",
          "type": "uint256"
        }
      ],
      "stateMutability": "view",
      "type": "function"
    },
    {
      "inputs": [],
      "name": "pendingGovernor",
      "outputs": [
        {
          "internalType": "address",
          "name": "",
          "type": "address"
        }
      ],
      "stateMutability": "view",
      "type": "function"
    },
    {
      "inputs": [
        {
          "internalType": "address",
          "name": "owner",
          "type": "address"
        },
        {
          "internalType": "address",
          "name": "spender",
          "type": "address"
        },
        {
          "internalType": "uint256",
          "name": "amount",
          "type": "uint256"
        },
        {
          "internalType": "uint256",
          "name": "deadline",
          "type": "uint256"
        },
        {
          "internalType": "uint8",
          "name": "v",
          "type": "uint8"
        },
        {
          "internalType": "bytes32",
          "name": "r",
          "type": "bytes32"
        },
        {
          "internalType": "bytes32",
          "name": "s",
          "type": "bytes32"
        }
      ],
      "name": "permit",
      "outputs": [],
      "stateMutability": "nonpayable",
      "type": "function"
    },
    {
      "inputs": [
        {
          "internalType": "address",
          "name": "newMinter",
          "type": "address"
        }
      ],
      "name": "setMinter",
      "outputs": [],
      "stateMutability": "nonpayable",
      "type": "function"
    },
    {
      "inputs": [],
      "name": "symbol",
      "outputs": [
        {
          "internalType": "string",
          "name": "",
          "type": "string"
        }
      ],
      "stateMutability": "view",
      "type": "function"
    },
    {
      "inputs": [],
      "name": "totalSupply",
      "outputs": [
        {
          "internalType": "uint256",
          "name": "",
          "type": "uint256"
        }
      ],
      "stateMutability": "view",
      "type": "function"
    },
    {
      "inputs": [
        {
          "internalType": "address",
          "name": "to",
          "type": "address"
        },
        {
          "internalType": "uint256",
          "name": "amount",
          "type": "uint256"
        }
      ],
      "name": "transfer",
      "outputs": [
        {
          "internalType": "bool",
          "name": "",
          "type": "bool"
        }
      ],
      "stateMutability": "nonpayable",
      "type": "function"
    },
    {
      "inputs": [
        {
          "internalType": "address",
          "name": "from",
          "type": "address"
        },
        {
          "internalType": "address",
          "name": "to",
          "type": "address"
        },
        {
          "internalType": "uint256",
          "name": "amount",
          "type": "uint256"
        }
      ],
      "name": "transferFrom",
      "outputs": [
        {
          "internalType": "bool",
          "name": "",
          "type": "bool"
        }
      ],
      "stateMutability": "nonpayable",
      "type": "function"
    },
    {
      "inputs": [
        {
          "internalType": "address",
          "name": "newGovernor",
          "type": "address"
        },
        {
          "internalType": "bool",
          "name": "force",
          "type": "bool"
        }
      ],
      "name": "transitGovernance",
      "outputs": [],
      "stateMutability": "nonpayable",
      "type": "function"
    },
    {
      "inputs": [],
      "name": "version",
      "outputs": [
        {
          "internalType": "string",
          "name": "",
          "type": "string"
        }
      ],
      "stateMutability": "view",
      "type": "function"
    }
  ],
  "transactionHash": "0x4ab34753f9b2a41d5d9f33f2037ebe49a8fd6d817f9f0dcfa84d1d99a8f272cc",
  "args": [],
  "solcInputHash": "e55ff2d5620125d078bf2822362bfb18",
  "bytecode": "0x608060405234801561001057600080fd5b50611426806100206000396000f3fe608060405234801561001057600080fd5b50600436106101825760003560e01c806370a08231116100d8578063d505accf1161008c578063de7ea79d11610066578063de7ea79d14610342578063e3056a3414610355578063fca3b5aa1461036857600080fd5b8063d505accf146102f1578063dd62ed3e14610304578063ddc125261461032f57600080fd5b806395d89b41116100bd57806395d89b41146102c35780639dc29fac146102cb578063a9059cbb146102de57600080fd5b806370a08231146102835780637ecebe00146102a357600080fd5b8063238efcbc1161013a5780633644e515116101145780633644e5151461025f57806340c10f191461026857806354fd4d501461027b57600080fd5b8063238efcbc1461022357806323b872dd1461022d578063313ce5671461024057600080fd5b8063095ea7b31161016b578063095ea7b3146101d05780630c340a24146101f357806318160ddd1461020c57600080fd5b806306fdde031461018757806307546172146101a5575b600080fd5b61018f61037b565b60405161019c9190610fd7565b60405180910390f35b6006546101b8906001600160a01b031681565b6040516001600160a01b03909116815260200161019c565b6101e36101de366004611048565b610409565b604051901515815260200161019c565b6000546101b8906201000090046001600160a01b031681565b61021560075481565b60405190815260200161019c565b61022b61041f565b005b6101e361023b366004611072565b6104b4565b60045461024d9060ff1681565b60405160ff909116815260200161019c565b610215600a5481565b61022b610276366004611048565b610548565b61018f610581565b6102156102913660046110ae565b60086020526000908152604090205481565b6102156102b13660046110ae565b600b6020526000908152604090205481565b61018f61058e565b61022b6102d9366004611048565b61059b565b6101e36102ec366004611048565b6105d0565b61022b6102ff3660046110e1565b6105dd565b61021561031236600461114b565b600960209081526000928352604080842090915290825290205481565b61022b61033d36600461117e565b61079f565b61022b61035036600461125d565b61089a565b6001546101b8906001600160a01b031681565b61022b6103763660046110ae565b610a50565b60028054610388906112e2565b80601f01602080910402602001604051908101604052809291908181526020018280546103b4906112e2565b80156104015780601f106103d657610100808354040283529160200191610401565b820191906000526020600020905b8154815290600101906020018083116103e457829003601f168201915b505050505081565b6000610416338484610b01565b50600192915050565b6001546001600160a01b0316331461044a5760405163aec80d4b60e01b815260040160405180910390fd5b60015460008054620100006001600160a01b0393841681810275ffffffffffffffffffffffffffffffffffffffff00001990931692909217808455604051929491900416917f564590b81987d147246f63910a8e1ee4eb09c4d64cc75ee975a8ffedfcc2210e91a3565b60006001600160a01b0384163314610533576001600160a01b0384166000908152600960209081526040808320338452909152902054828110156105315760405163be2e2e2160e01b81526001600160a01b0380871660048301528516602482015260448101849052606481018290526084015b60405180910390fd5b505b61053e848484610bd5565b5060019392505050565b6006546001600160a01b031633146105735760405163404a0f8760e11b815260040160405180910390fd5b61057d8282610d33565b5050565b60058054610388906112e2565b60038054610388906112e2565b6006546001600160a01b031633146105c65760405163404a0f8760e11b815260040160405180910390fd5b61057d8282610de8565b6000610416338484610bd5565b428410156106015760405163282fb55560e21b815260048101859052602401610528565b600a546001600160a01b0388166000908152600b6020526040812080549192917ffc77c2b9d30fe91687fd39abb7d16fcdfe1472d065740051ab8b13e4bf4a617f918b918b918b91908761065483611333565b909155506040805160208101969096526001600160a01b0394851690860152929091166060840152608083015260a082015260c0810187905260e001604051602081830303815290604052805190602001206040516020016106cd92919061190160f01b81526002810192909252602282015260420190565b60408051601f198184030181528282528051602091820120600080855291840180845281905260ff88169284019290925260608301869052608083018590529092509060019060a0016020604051602081039080840390855afa158015610738573d6000803e3d6000fd5b505050602060405103519050886001600160a01b0316816001600160a01b0316146107895760405163a94a4aad60e01b81526001600160a01b03808b16600483015282166024820152604401610528565b610794898989610b01565b505050505050505050565b6000546201000090046001600160a01b031633146107d0576040516305e7700560e51b815260040160405180910390fd5b6001600160a01b0382166107f75760405163604b48b960e11b815260040160405180910390fd5b6001600160a01b038216301415610821576040516306b3e95d60e21b815260040160405180910390fd5b6001805473ffffffffffffffffffffffffffffffffffffffff19166001600160a01b0384161790558061089157600080546040516001600160a01b03808616936201000090930416917fc606c9af1451cadeb333f6ff7b24a5540974f4e800bac274fa7fff9edc305cb191a35050565b61057d82610ed7565b60005460ff161580156108b45750600054610100900460ff165b156108d257604051631ee1e30360e21b815260040160405180910390fd5b60005460ff161580156108ef576000805461ffff19166101011790555b6108f833610ed7565b6001600160a01b03821661091f57604051638cc5de0560e01b815260040160405180910390fd5b6006805473ffffffffffffffffffffffffffffffffffffffff19166001600160a01b038416179055845161095a906002906020880190610f3e565b50835161096e906003906020870190610f3e565b506004805460ff191660ff8516179055604080518082019091526001808252603160f81b60209092019182526109a691600591610f3e565b507f8b73c3c69bb8fe3d512ecc4cf759cc79239f7b179b0ffacaa9a75d522b39400f60026040516109d7919061134e565b604051809103902060056040516109ee919061134e565b60408051918290038220602083019490945281019190915260608101919091524660808201523060a082015260c00160408051601f198184030181529190528051602090910120600a558015610a49576000805460ff191690555b5050505050565b6000546201000090046001600160a01b03163314610a81576040516305e7700560e51b815260040160405180910390fd5b6001600160a01b038116610aa857604051638cc5de0560e01b815260040160405180910390fd5b6006805473ffffffffffffffffffffffffffffffffffffffff19166001600160a01b03831690811790915560405181907f3b0007eb941cf645526cbb3a4fdaecda9d28ce4843167d9263b536a1f1edc0f690600090a350565b6001600160a01b038316610b3a5760405163da64efb160e01b81526001600160a01b038316600482015260248101829052604401610528565b6001600160a01b038216610b735760405163c97cb7a160e01b81526001600160a01b038416600482015260248101829052604401610528565b6001600160a01b0383811660008181526009602090815260408083209487168084529482529182902085905590518481527f8c5be1e5ebec7d5bd14f71427d1e84f3dd0314c0f7b2291e5b200ac8c7c3b92591015b60405180910390a3505050565b6001600160a01b038316610c0e5760405163cd09812f60e01b81526001600160a01b038316600482015260248101829052604401610528565b6001600160a01b038216610c4757604051636eb47bab60e11b81526001600160a01b038416600482015260248101829052604401610528565b6001600160a01b03831660009081526008602052604090205481811015610ca257604051630c38c5f960e41b81526001600160a01b038086166004830152841660248201526044810183905260648101829052608401610528565b6001600160a01b03808516600090815260086020526040808220858503905591851681529081208054849290610cd99084906113ea565b92505081905550826001600160a01b0316846001600160a01b03167fddf252ad1be2c89b69c2b068fc378daa952ba7f163c4a11628f55a4df523b3ef84604051610d2591815260200190565b60405180910390a350505050565b6001600160a01b038216610d5d5760405163070bae6960e51b815260048101829052602401610528565b6001600160a01b03821660009081526008602052604081208054839290610d859084906113ea565b925050819055508060076000828254610d9e91906113ea565b90915550506040518181526001600160a01b038316906000907fddf252ad1be2c89b69c2b068fc378daa952ba7f163c4a11628f55a4df523b3ef9060200160405180910390a35050565b6001600160a01b038216610e125760405163131259b960e21b815260048101829052602401610528565b6001600160a01b03821660009081526008602052604090205481811015610e6557604051630246530960e61b81526001600160a01b03841660048201526024810183905260448101829052606401610528565b6001600160a01b0383166000908152600860205260408120838303905560078054849290610e94908490611402565b90915550506040518281526000906001600160a01b038516907fddf252ad1be2c89b69c2b068fc378daa952ba7f163c4a11628f55a4df523b3ef90602001610bc8565b6000805475ffffffffffffffffffffffffffffffffffffffff00001916620100006001600160a01b0384811682810293909317808555604051939492900416917f564590b81987d147246f63910a8e1ee4eb09c4d64cc75ee975a8ffedfcc2210e9190a350565b828054610f4a906112e2565b90600052602060002090601f016020900481019282610f6c5760008555610fb2565b82601f10610f8557805160ff1916838001178555610fb2565b82800160010185558215610fb2579182015b82811115610fb2578251825591602001919060010190610f97565b50610fbe929150610fc2565b5090565b5b80821115610fbe5760008155600101610fc3565b600060208083528351808285015260005b8181101561100457858101830151858201604001528201610fe8565b81811115611016576000604083870101525b50601f01601f1916929092016040019392505050565b80356001600160a01b038116811461104357600080fd5b919050565b6000806040838503121561105b57600080fd5b6110648361102c565b946020939093013593505050565b60008060006060848603121561108757600080fd5b6110908461102c565b925061109e6020850161102c565b9150604084013590509250925092565b6000602082840312156110c057600080fd5b6110c98261102c565b9392505050565b803560ff8116811461104357600080fd5b600080600080600080600060e0888a0312156110fc57600080fd5b6111058861102c565b96506111136020890161102c565b9550604088013594506060880135935061112f608089016110d0565b925060a0880135915060c0880135905092959891949750929550565b6000806040838503121561115e57600080fd5b6111678361102c565b91506111756020840161102c565b90509250929050565b6000806040838503121561119157600080fd5b61119a8361102c565b9150602083013580151581146111af57600080fd5b809150509250929050565b634e487b7160e01b600052604160045260246000fd5b600082601f8301126111e157600080fd5b813567ffffffffffffffff808211156111fc576111fc6111ba565b604051601f8301601f19908116603f01168101908282118183101715611224576112246111ba565b8160405283815286602085880101111561123d57600080fd5b836020870160208301376000602085830101528094505050505092915050565b6000806000806080858703121561127357600080fd5b843567ffffffffffffffff8082111561128b57600080fd5b611297888389016111d0565b955060208701359150808211156112ad57600080fd5b506112ba878288016111d0565b9350506112c9604086016110d0565b91506112d76060860161102c565b905092959194509250565b600181811c908216806112f657607f821691505b6020821081141561131757634e487b7160e01b600052602260045260246000fd5b50919050565b634e487b7160e01b600052601160045260246000fd5b60006000198214156113475761134761131d565b5060010190565b600080835481600182811c91508083168061136a57607f831692505b602080841082141561138a57634e487b7160e01b86526022600452602486fd5b81801561139e57600181146113af576113dc565b60ff198616895284890196506113dc565b60008a81526020902060005b868110156113d45781548b8201529085019083016113bb565b505084890196505b509498975050505050505050565b600082198211156113fd576113fd61131d565b500190565b6000828210156114145761141461131d565b50039056fea164736f6c6343000809000a",
  "devdoc": {
    "kind": "dev",
    "methods": {},
    "version": 1
  },
  "userdoc": {
    "kind": "user",
    "methods": {},
    "version": 1
  },
  "storageLayout": {
    "storage": [
      {
        "astId": 6644,
        "contract": "contracts/$.sol:Baks",
        "label": "initializing",
        "offset": 0,
        "slot": "0",
        "type": "t_bool"
      },
      {
        "astId": 6646,
        "contract": "contracts/$.sol:Baks",
        "label": "initialized",
        "offset": 1,
        "slot": "0",
        "type": "t_bool"
      },
      {
        "astId": 4646,
        "contract": "contracts/$.sol:Baks",
        "label": "governor",
        "offset": 2,
        "slot": "0",
        "type": "t_address"
      },
      {
        "astId": 4648,
        "contract": "contracts/$.sol:Baks",
        "label": "pendingGovernor",
        "offset": 0,
        "slot": "1",
        "type": "t_address"
      },
      {
        "astId": 1797,
        "contract": "contracts/$.sol:Baks",
        "label": "name",
        "offset": 0,
        "slot": "2",
        "type": "t_string_storage"
      },
      {
        "astId": 1800,
        "contract": "contracts/$.sol:Baks",
        "label": "symbol",
        "offset": 0,
        "slot": "3",
        "type": "t_string_storage"
      },
      {
        "astId": 1803,
        "contract": "contracts/$.sol:Baks",
        "label": "decimals",
        "offset": 0,
        "slot": "4",
        "type": "t_uint8"
      },
      {
        "astId": 1805,
        "contract": "contracts/$.sol:Baks",
        "label": "version",
        "offset": 0,
        "slot": "5",
        "type": "t_string_storage"
      },
      {
        "astId": 1807,
        "contract": "contracts/$.sol:Baks",
        "label": "minter",
        "offset": 0,
        "slot": "6",
        "type": "t_address"
      },
      {
        "astId": 1810,
        "contract": "contracts/$.sol:Baks",
        "label": "totalSupply",
        "offset": 0,
        "slot": "7",
        "type": "t_uint256"
      },
      {
        "astId": 1815,
        "contract": "contracts/$.sol:Baks",
        "label": "balanceOf",
        "offset": 0,
        "slot": "8",
        "type": "t_mapping(t_address,t_uint256)"
      },
      {
        "astId": 1822,
        "contract": "contracts/$.sol:Baks",
        "label": "allowance",
        "offset": 0,
        "slot": "9",
        "type": "t_mapping(t_address,t_mapping(t_address,t_uint256))"
      },
      {
        "astId": 1825,
        "contract": "contracts/$.sol:Baks",
        "label": "DOMAIN_SEPARATOR",
        "offset": 0,
        "slot": "10",
        "type": "t_bytes32"
      },
      {
        "astId": 1830,
        "contract": "contracts/$.sol:Baks",
        "label": "nonces",
        "offset": 0,
        "slot": "11",
        "type": "t_mapping(t_address,t_uint256)"
      }
    ],
    "types": {
      "t_address": {
        "encoding": "inplace",
        "label": "address",
        "numberOfBytes": "20"
      },
      "t_bool": {
        "encoding": "inplace",
        "label": "bool",
        "numberOfBytes": "1"
      },
      "t_bytes32": {
        "encoding": "inplace",
        "label": "bytes32",
        "numberOfBytes": "32"
      },
      "t_mapping(t_address,t_mapping(t_address,t_uint256))": {
        "encoding": "mapping",
        "key": "t_address",
        "label": "mapping(address => mapping(address => uint256))",
        "numberOfBytes": "32",
        "value": "t_mapping(t_address,t_uint256)"
      },
      "t_mapping(t_address,t_uint256)": {
        "encoding": "mapping",
        "key": "t_address",
        "label": "mapping(address => uint256)",
        "numberOfBytes": "32",
        "value": "t_uint256"
      },
      "t_string_storage": {
        "encoding": "bytes",
        "label": "string",
        "numberOfBytes": "32"
      },
      "t_uint256": {
        "encoding": "inplace",
        "label": "uint256",
        "numberOfBytes": "32"
      },
      "t_uint8": {
        "encoding": "inplace",
        "label": "uint8",
        "numberOfBytes": "1"
      }
    }
  }
}