{
  "address": "0x98E0DbEe0c16fcc8468BC44014357d32Aa390fbD",
  "abi": [
    {
      "inputs": [
        {
          "internalType": "contract IWrappedNativeCurrency",
          "name": "_wrappedNativeCurrency",
          "type": "address"
        },
        {
          "internalType": "contract IMintableAndBurnableERC20",
          "name": "_stablecoin",
          "type": "address"
        },
        {
          "internalType": "contract IPriceOracle",
          "name": "_priceOracle",
          "type": "address"
        },
        {
          "internalType": "address",
          "name": "_operator",
          "type": "address"
        },
        {
          "internalType": "address",
          "name": "_liquidator",
          "type": "address"
        },
        {
          "internalType": "address",
          "name": "_exchangeFund",
          "type": "address"
        },
        {
          "internalType": "address",
          "name": "_investmentFund",
          "type": "address"
        }
      ],
      "stateMutability": "nonpayable",
      "type": "constructor"
    },
    {
      "inputs": [],
      "name": "BaksDAOBorrowBelowMinimumPrincipalAmount",
      "type": "error"
    },
    {
      "inputs": [],
      "name": "BaksDAOBorrowZeroAmount",
      "type": "error"
    },
    {
      "inputs": [
        {
          "internalType": "contract IERC20",
          "name": "token",
          "type": "address"
        }
      ],
      "name": "BaksDAOCollateralTokenAlreadyListed",
      "type": "error"
    },
    {
      "inputs": [
        {
          "internalType": "contract IERC20",
          "name": "token",
          "type": "address"
        }
      ],
      "name": "BaksDAOCollateralTokenNotListed",
      "type": "error"
    },
    {
      "inputs": [
        {
          "internalType": "contract IERC20",
          "name": "token",
          "type": "address"
        },
        {
          "internalType": "uint8",
          "name": "decimals",
          "type": "uint8"
        }
      ],
      "name": "BaksDAOCollateralTokenTooLargeDecimals",
      "type": "error"
    },
    {
      "inputs": [
        {
          "internalType": "contract IERC20",
          "name": "token",
          "type": "address"
        }
      ],
      "name": "BaksDAOCollateralTokenZeroDecimals",
      "type": "error"
    },
    {
      "inputs": [],
      "name": "BaksDAODepositZeroAmount",
      "type": "error"
    },
    {
      "inputs": [
        {
          "internalType": "uint256",
          "name": "id",
          "type": "uint256"
        }
      ],
      "name": "BaksDAOInactiveLoan",
      "type": "error"
    },
    {
      "inputs": [
        {
          "internalType": "contract IERC20",
          "name": "token",
          "type": "address"
        },
        {
          "internalType": "uint256",
          "name": "initialLoanToValueRatio",
          "type": "uint256"
        }
      ],
      "name": "BaksDAOInitialLoanToValueRatioTooHigh",
      "type": "error"
    },
    {
      "inputs": [
        {
          "internalType": "uint256",
          "name": "minimumRequiredSecurityAmount",
          "type": "uint256"
        }
      ],
      "name": "BaksDAOInsufficientSecurityAmount",
      "type": "error"
    },
    {
      "inputs": [
        {
          "internalType": "uint256",
          "name": "id",
          "type": "uint256"
        }
      ],
      "name": "BaksDAOLoanIsSubjectToLiquidation",
      "type": "error"
    },
    {
      "inputs": [
        {
          "internalType": "uint256",
          "name": "id",
          "type": "uint256"
        }
      ],
      "name": "BaksDAOLoanNotSubjectToLiquidation",
      "type": "error"
    },
    {
      "inputs": [
        {
          "internalType": "uint256",
          "name": "id",
          "type": "uint256"
        }
      ],
      "name": "BaksDAONativeCurrencyCollateralNotAllowed",
      "type": "error"
    },
    {
      "inputs": [],
      "name": "BaksDAONativeCurrencyTransferFailed",
      "type": "error"
    },
    {
      "inputs": [],
      "name": "BaksDAONoNeedToRebalance",
      "type": "error"
    },
    {
      "inputs": [],
      "name": "BaksDAOPlainNativeCurrencyTransferNotAllowed",
      "type": "error"
    },
    {
      "inputs": [
        {
          "internalType": "uint256",
          "name": "stabilizationFee",
          "type": "uint256"
        },
        {
          "internalType": "uint256",
          "name": "exchangeFee",
          "type": "uint256"
        },
        {
          "internalType": "uint256",
          "name": "investmentFee",
          "type": "uint256"
        }
      ],
      "name": "BaksDAOPlatformFeesDontSumUpToOne",
      "type": "error"
    },
    {
      "inputs": [],
      "name": "BaksDAORepayZeroAmount",
      "type": "error"
    },
    {
      "inputs": [
        {
          "internalType": "uint256",
          "name": "shortage",
          "type": "uint256"
        }
      ],
      "name": "BaksDAOStabilizationFundOutOfFunds",
      "type": "error"
    },
    {
      "inputs": [
        {
          "internalType": "contract IERC20",
          "name": "token",
          "type": "address"
        }
      ],
      "name": "BaksDAOTokenNotAllowedAsCollateral",
      "type": "error"
    },
    {
      "inputs": [
        {
          "internalType": "contract IERC20",
          "name": "token",
          "type": "address"
        }
      ],
      "name": "BaksDAOTokenNotAllowedToBeSalvaged",
      "type": "error"
    },
    {
      "inputs": [
        {
          "internalType": "address",
          "name": "target",
          "type": "address"
        }
      ],
      "name": "CallToNonContract",
      "type": "error"
    },
    {
      "inputs": [
        {
          "internalType": "uint256",
          "name": "prod1",
          "type": "uint256"
        },
        {
          "internalType": "uint256",
          "name": "denominator",
          "type": "uint256"
        }
      ],
      "name": "FixedPointMathMulDivOverflow",
      "type": "error"
    },
    {
      "inputs": [],
      "name": "GovernedCantGoverItself",
      "type": "error"
    },
    {
      "inputs": [],
      "name": "GovernedGovernorZeroAddress",
      "type": "error"
    },
    {
      "inputs": [],
      "name": "GovernedOnlyGovernorAllowedToCall",
      "type": "error"
    },
    {
      "inputs": [],
      "name": "GovernedOnlyPendingGovernorAllowedToCall",
      "type": "error"
    },
    {
      "inputs": [],
      "name": "ReentrancyGuardReentrantCall",
      "type": "error"
    },
    {
      "inputs": [],
      "name": "SafeERC20NoReturnData",
      "type": "error"
    },
    {
      "anonymous": false,
      "inputs": [
        {
          "indexed": true,
          "internalType": "uint256",
          "name": "id",
          "type": "uint256"
        },
        {
          "indexed": true,
          "internalType": "address",
          "name": "borrower",
          "type": "address"
        },
        {
          "indexed": true,
          "internalType": "contract IERC20",
          "name": "token",
          "type": "address"
        },
        {
          "indexed": false,
          "internalType": "uint256",
          "name": "principalAmount",
          "type": "uint256"
        },
        {
          "indexed": false,
          "internalType": "uint256",
          "name": "collateralAmount",
          "type": "uint256"
        },
        {
          "indexed": false,
          "internalType": "uint256",
          "name": "initialLoanToValueRatio",
          "type": "uint256"
        }
      ],
      "name": "Borrow",
      "type": "event"
    },
    {
      "anonymous": false,
      "inputs": [
        {
          "indexed": true,
          "internalType": "contract IERC20",
          "name": "token",
          "type": "address"
        }
      ],
      "name": "CollateralTokenListed",
      "type": "event"
    },
    {
      "anonymous": false,
      "inputs": [
        {
          "indexed": true,
          "internalType": "contract IERC20",
          "name": "token",
          "type": "address"
        }
      ],
      "name": "CollateralTokenUnlisted",
      "type": "event"
    },
    {
      "anonymous": false,
      "inputs": [
        {
          "indexed": true,
          "internalType": "uint256",
          "name": "id",
          "type": "uint256"
        },
        {
          "indexed": false,
          "internalType": "uint256",
          "name": "collateralAmount",
          "type": "uint256"
        }
      ],
      "name": "Deposit",
      "type": "event"
    },
    {
      "anonymous": false,
      "inputs": [
        {
          "indexed": true,
          "internalType": "address",
          "name": "governor",
          "type": "address"
        },
        {
          "indexed": true,
          "internalType": "address",
          "name": "newGovernor",
          "type": "address"
        }
      ],
      "name": "GovernanceTransited",
      "type": "event"
    },
    {
      "anonymous": false,
      "inputs": [
        {
          "indexed": true,
          "internalType": "contract IERC20",
          "name": "token",
          "type": "address"
        },
        {
          "indexed": false,
          "internalType": "uint256",
          "name": "initialLoanToValueRatio",
          "type": "uint256"
        },
        {
          "indexed": false,
          "internalType": "uint256",
          "name": "newInitialLoanToValueRatio",
          "type": "uint256"
        }
      ],
      "name": "InitialLoanToValueRatioUpdated",
      "type": "event"
    },
    {
      "anonymous": false,
      "inputs": [
        {
          "indexed": true,
          "internalType": "uint256",
          "name": "id",
          "type": "uint256"
        }
      ],
      "name": "Liquidated",
      "type": "event"
    },
    {
      "anonymous": false,
      "inputs": [
        {
          "indexed": false,
          "internalType": "uint256",
          "name": "liqudationLoanToValueRatio",
          "type": "uint256"
        },
        {
          "indexed": false,
          "internalType": "uint256",
          "name": "newLiquidationLoanToValueRatio",
          "type": "uint256"
        }
      ],
      "name": "LiquidationLoanToValueRatioUpdated",
      "type": "event"
    },
    {
      "anonymous": false,
      "inputs": [
        {
          "indexed": false,
          "internalType": "uint256",
          "name": "marginCallLoanToValueRatio",
          "type": "uint256"
        },
        {
          "indexed": false,
          "internalType": "uint256",
          "name": "newMarginCallLoanToValueRatio",
          "type": "uint256"
        }
      ],
      "name": "MarginCallLoanToValueRatioUpdated",
      "type": "event"
    },
    {
      "anonymous": false,
      "inputs": [
        {
          "indexed": false,
          "internalType": "uint256",
          "name": "minimumPrincipalAmount",
          "type": "uint256"
        },
        {
          "indexed": false,
          "internalType": "uint256",
          "name": "newMinimumPrincipalAmount",
          "type": "uint256"
        }
      ],
      "name": "MinimumPrincipalAmountUpdated",
      "type": "event"
    },
    {
      "anonymous": false,
      "inputs": [
        {
          "indexed": true,
          "internalType": "address",
          "name": "governor",
          "type": "address"
        },
        {
          "indexed": true,
          "internalType": "address",
          "name": "newGovernor",
          "type": "address"
        }
      ],
      "name": "PendingGovernanceTransition",
      "type": "event"
    },
    {
      "anonymous": false,
      "inputs": [
        {
          "indexed": false,
          "internalType": "uint256",
          "name": "stabilizationFee",
          "type": "uint256"
        },
        {
          "indexed": false,
          "internalType": "uint256",
          "name": "newStabilizationFee",
          "type": "uint256"
        },
        {
          "indexed": false,
          "internalType": "uint256",
          "name": "exchangeFee",
          "type": "uint256"
        },
        {
          "indexed": false,
          "internalType": "uint256",
          "name": "newExchangeFee",
          "type": "uint256"
        },
        {
          "indexed": false,
          "internalType": "uint256",
          "name": "investmentFee",
          "type": "uint256"
        },
        {
          "indexed": false,
          "internalType": "uint256",
          "name": "newInvestmentFee",
          "type": "uint256"
        }
      ],
      "name": "PlatformFeesUpdated",
      "type": "event"
    },
    {
      "anonymous": false,
      "inputs": [
        {
          "indexed": false,
          "internalType": "int256",
          "name": "delta",
          "type": "int256"
        }
      ],
      "name": "Rebalance",
      "type": "event"
    },
    {
      "anonymous": false,
      "inputs": [
        {
          "indexed": false,
          "internalType": "uint256",
          "name": "rebalancingThreshold",
          "type": "uint256"
        },
        {
          "indexed": false,
          "internalType": "uint256",
          "name": "newRebalancingThreshold",
          "type": "uint256"
        }
      ],
      "name": "RebalancingThresholdUpdated",
      "type": "event"
    },
    {
      "anonymous": false,
      "inputs": [
        {
          "indexed": true,
          "internalType": "uint256",
          "name": "id",
          "type": "uint256"
        }
      ],
      "name": "Repaid",
      "type": "event"
    },
    {
      "anonymous": false,
      "inputs": [
        {
          "indexed": true,
          "internalType": "uint256",
          "name": "id",
          "type": "uint256"
        },
        {
          "indexed": false,
          "internalType": "uint256",
          "name": "principalAmount",
          "type": "uint256"
        }
      ],
      "name": "Repay",
      "type": "event"
    },
    {
      "anonymous": false,
      "inputs": [
        {
          "indexed": false,
          "internalType": "uint256",
          "name": "stabilityFee",
          "type": "uint256"
        },
        {
          "indexed": false,
          "internalType": "uint256",
          "name": "newStabilityFee",
          "type": "uint256"
        }
      ],
      "name": "StabilityFeeUpdated",
      "type": "event"
    },
    {
      "inputs": [],
      "name": "acceptGovernance",
      "outputs": [],
      "stateMutability": "nonpayable",
      "type": "function"
    },
    {
      "inputs": [
        {
          "internalType": "contract IERC20",
          "name": "collateralToken",
          "type": "address"
        },
        {
          "internalType": "uint256",
          "name": "amount",
          "type": "uint256"
        }
      ],
      "name": "borrow",
      "outputs": [
        {
          "components": [
            {
              "internalType": "uint256",
              "name": "id",
              "type": "uint256"
            },
            {
              "internalType": "bool",
              "name": "isActive",
              "type": "bool"
            },
            {
              "internalType": "address",
              "name": "borrower",
              "type": "address"
            },
            {
              "internalType": "contract IERC20",
              "name": "collateralToken",
              "type": "address"
            },
            {
              "internalType": "bool",
              "name": "isNativeCurrency",
              "type": "bool"
            },
            {
              "internalType": "contract IPriceOracle",
              "name": "priceOracle",
              "type": "address"
            },
            {
              "internalType": "uint256",
              "name": "stabilityFee",
              "type": "uint256"
            },
            {
              "internalType": "uint256",
              "name": "stabilizationFee",
              "type": "uint256"
            },
            {
              "internalType": "uint256",
              "name": "exchangeFee",
              "type": "uint256"
            },
            {
              "internalType": "uint256",
              "name": "investmentFee",
              "type": "uint256"
            },
            {
              "internalType": "uint256",
              "name": "principalAmount",
              "type": "uint256"
            },
            {
              "internalType": "uint256",
              "name": "collateralAmount",
              "type": "uint256"
            },
            {
              "internalType": "uint256",
              "name": "lastDepositAt",
              "type": "uint256"
            },
            {
              "internalType": "uint256",
              "name": "lastRepaymentAt",
              "type": "uint256"
            }
          ],
          "internalType": "struct Loan.Data",
          "name": "",
          "type": "tuple"
        }
      ],
      "stateMutability": "nonpayable",
      "type": "function"
    },
    {
      "inputs": [
        {
          "internalType": "uint256",
          "name": "amount",
          "type": "uint256"
        }
      ],
      "name": "borrowInNativeCurrency",
      "outputs": [
        {
          "components": [
            {
              "internalType": "uint256",
              "name": "id",
              "type": "uint256"
            },
            {
              "internalType": "bool",
              "name": "isActive",
              "type": "bool"
            },
            {
              "internalType": "address",
              "name": "borrower",
              "type": "address"
            },
            {
              "internalType": "contract IERC20",
              "name": "collateralToken",
              "type": "address"
            },
            {
              "internalType": "bool",
              "name": "isNativeCurrency",
              "type": "bool"
            },
            {
              "internalType": "contract IPriceOracle",
              "name": "priceOracle",
              "type": "address"
            },
            {
              "internalType": "uint256",
              "name": "stabilityFee",
              "type": "uint256"
            },
            {
              "internalType": "uint256",
              "name": "stabilizationFee",
              "type": "uint256"
            },
            {
              "internalType": "uint256",
              "name": "exchangeFee",
              "type": "uint256"
            },
            {
              "internalType": "uint256",
              "name": "investmentFee",
              "type": "uint256"
            },
            {
              "internalType": "uint256",
              "name": "principalAmount",
              "type": "uint256"
            },
            {
              "internalType": "uint256",
              "name": "collateralAmount",
              "type": "uint256"
            },
            {
              "internalType": "uint256",
              "name": "lastDepositAt",
              "type": "uint256"
            },
            {
              "internalType": "uint256",
              "name": "lastRepaymentAt",
              "type": "uint256"
            }
          ],
          "internalType": "struct Loan.Data",
          "name": "",
          "type": "tuple"
        }
      ],
      "stateMutability": "payable",
      "type": "function"
    },
    {
      "inputs": [
        {
          "internalType": "contract IERC20",
          "name": "collateralToken",
          "type": "address"
        },
        {
          "internalType": "uint256",
          "name": "collateralAmount",
          "type": "uint256"
        }
      ],
      "name": "calculateLoanByCollateralAmount",
      "outputs": [
        {
          "components": [
            {
              "internalType": "uint256",
              "name": "id",
              "type": "uint256"
            },
            {
              "internalType": "bool",
              "name": "isActive",
              "type": "bool"
            },
            {
              "internalType": "address",
              "name": "borrower",
              "type": "address"
            },
            {
              "internalType": "contract IERC20",
              "name": "collateralToken",
              "type": "address"
            },
            {
              "internalType": "bool",
              "name": "isNativeCurrency",
              "type": "bool"
            },
            {
              "internalType": "contract IPriceOracle",
              "name": "priceOracle",
              "type": "address"
            },
            {
              "internalType": "uint256",
              "name": "stabilityFee",
              "type": "uint256"
            },
            {
              "internalType": "uint256",
              "name": "stabilizationFee",
              "type": "uint256"
            },
            {
              "internalType": "uint256",
              "name": "exchangeFee",
              "type": "uint256"
            },
            {
              "internalType": "uint256",
              "name": "investmentFee",
              "type": "uint256"
            },
            {
              "internalType": "uint256",
              "name": "principalAmount",
              "type": "uint256"
            },
            {
              "internalType": "uint256",
              "name": "collateralAmount",
              "type": "uint256"
            },
            {
              "internalType": "uint256",
              "name": "lastDepositAt",
              "type": "uint256"
            },
            {
              "internalType": "uint256",
              "name": "lastRepaymentAt",
              "type": "uint256"
            }
          ],
          "internalType": "struct Loan.Data",
          "name": "loan",
          "type": "tuple"
        }
      ],
      "stateMutability": "view",
      "type": "function"
    },
    {
      "inputs": [
        {
          "internalType": "contract IERC20",
          "name": "collateralToken",
          "type": "address"
        },
        {
          "internalType": "uint256",
          "name": "principalAmount",
          "type": "uint256"
        }
      ],
      "name": "calculateLoanByPrincipalAmount",
      "outputs": [
        {
          "components": [
            {
              "internalType": "uint256",
              "name": "id",
              "type": "uint256"
            },
            {
              "internalType": "bool",
              "name": "isActive",
              "type": "bool"
            },
            {
              "internalType": "address",
              "name": "borrower",
              "type": "address"
            },
            {
              "internalType": "contract IERC20",
              "name": "collateralToken",
              "type": "address"
            },
            {
              "internalType": "bool",
              "name": "isNativeCurrency",
              "type": "bool"
            },
            {
              "internalType": "contract IPriceOracle",
              "name": "priceOracle",
              "type": "address"
            },
            {
              "internalType": "uint256",
              "name": "stabilityFee",
              "type": "uint256"
            },
            {
              "internalType": "uint256",
              "name": "stabilizationFee",
              "type": "uint256"
            },
            {
              "internalType": "uint256",
              "name": "exchangeFee",
              "type": "uint256"
            },
            {
              "internalType": "uint256",
              "name": "investmentFee",
              "type": "uint256"
            },
            {
              "internalType": "uint256",
              "name": "principalAmount",
              "type": "uint256"
            },
            {
              "internalType": "uint256",
              "name": "collateralAmount",
              "type": "uint256"
            },
            {
              "internalType": "uint256",
              "name": "lastDepositAt",
              "type": "uint256"
            },
            {
              "internalType": "uint256",
              "name": "lastRepaymentAt",
              "type": "uint256"
            }
          ],
          "internalType": "struct Loan.Data",
          "name": "loan",
          "type": "tuple"
        }
      ],
      "stateMutability": "view",
      "type": "function"
    },
    {
      "inputs": [
        {
          "internalType": "contract IERC20",
          "name": "collateralToken",
          "type": "address"
        },
        {
          "internalType": "uint256",
          "name": "securityAmount",
          "type": "uint256"
        }
      ],
      "name": "calculateLoanBySecurityAmount",
      "outputs": [
        {
          "components": [
            {
              "internalType": "uint256",
              "name": "id",
              "type": "uint256"
            },
            {
              "internalType": "bool",
              "name": "isActive",
              "type": "bool"
            },
            {
              "internalType": "address",
              "name": "borrower",
              "type": "address"
            },
            {
              "internalType": "contract IERC20",
              "name": "collateralToken",
              "type": "address"
            },
            {
              "internalType": "bool",
              "name": "isNativeCurrency",
              "type": "bool"
            },
            {
              "internalType": "contract IPriceOracle",
              "name": "priceOracle",
              "type": "address"
            },
            {
              "internalType": "uint256",
              "name": "stabilityFee",
              "type": "uint256"
            },
            {
              "internalType": "uint256",
              "name": "stabilizationFee",
              "type": "uint256"
            },
            {
              "internalType": "uint256",
              "name": "exchangeFee",
              "type": "uint256"
            },
            {
              "internalType": "uint256",
              "name": "investmentFee",
              "type": "uint256"
            },
            {
              "internalType": "uint256",
              "name": "principalAmount",
              "type": "uint256"
            },
            {
              "internalType": "uint256",
              "name": "collateralAmount",
              "type": "uint256"
            },
            {
              "internalType": "uint256",
              "name": "lastDepositAt",
              "type": "uint256"
            },
            {
              "internalType": "uint256",
              "name": "lastRepaymentAt",
              "type": "uint256"
            }
          ],
          "internalType": "struct Loan.Data",
          "name": "loan",
          "type": "tuple"
        }
      ],
      "stateMutability": "view",
      "type": "function"
    },
    {
      "inputs": [
        {
          "internalType": "uint256",
          "name": "loanId",
          "type": "uint256"
        }
      ],
      "name": "checkHealth",
      "outputs": [
        {
          "internalType": "enum BaksDAO.Health",
          "name": "health",
          "type": "uint8"
        }
      ],
      "stateMutability": "view",
      "type": "function"
    },
    {
      "inputs": [
        {
          "internalType": "contract IERC20",
          "name": "",
          "type": "address"
        }
      ],
      "name": "collateralTokens",
      "outputs": [
        {
          "internalType": "contract IERC20",
          "name": "collateralToken",
          "type": "address"
        },
        {
          "internalType": "contract IPriceOracle",
          "name": "priceOracle",
          "type": "address"
        },
        {
          "internalType": "uint256",
          "name": "stabilityFee",
          "type": "uint256"
        },
        {
          "internalType": "uint256",
          "name": "stabilizationFee",
          "type": "uint256"
        },
        {
          "internalType": "uint256",
          "name": "exchangeFee",
          "type": "uint256"
        },
        {
          "internalType": "uint256",
          "name": "investmentFee",
          "type": "uint256"
        },
        {
          "internalType": "uint256",
          "name": "initialLoanToValueRatio",
          "type": "uint256"
        },
        {
          "internalType": "uint256",
          "name": "marginCallLoanToValueRatio",
          "type": "uint256"
        },
        {
          "internalType": "uint256",
          "name": "liquidationLoanToValueRatio",
          "type": "uint256"
        },
        {
          "internalType": "uint256",
          "name": "collateralAmount",
          "type": "uint256"
        }
      ],
      "stateMutability": "view",
      "type": "function"
    },
    {
      "inputs": [
        {
          "internalType": "uint256",
          "name": "loanId",
          "type": "uint256"
        },
        {
          "internalType": "uint256",
          "name": "amount",
          "type": "uint256"
        }
      ],
      "name": "deposit",
      "outputs": [],
      "stateMutability": "nonpayable",
      "type": "function"
    },
    {
      "inputs": [
        {
          "internalType": "uint256",
          "name": "loanId",
          "type": "uint256"
        }
      ],
      "name": "depositInNativeCurrency",
      "outputs": [],
      "stateMutability": "payable",
      "type": "function"
    },
    {
      "inputs": [],
      "name": "exchangeFee",
      "outputs": [
        {
          "internalType": "uint256",
          "name": "",
          "type": "uint256"
        }
      ],
      "stateMutability": "view",
      "type": "function"
    },
    {
      "inputs": [],
      "name": "exchangeFund",
      "outputs": [
        {
          "internalType": "address",
          "name": "",
          "type": "address"
        }
      ],
      "stateMutability": "view",
      "type": "function"
    },
    {
      "inputs": [],
      "name": "getAllowedCollateralTokens",
      "outputs": [
        {
          "components": [
            {
              "internalType": "contract IERC20",
              "name": "collateralToken",
              "type": "address"
            },
            {
              "internalType": "contract IPriceOracle",
              "name": "priceOracle",
              "type": "address"
            },
            {
              "internalType": "uint256",
              "name": "stabilityFee",
              "type": "uint256"
            },
            {
              "internalType": "uint256",
              "name": "stabilizationFee",
              "type": "uint256"
            },
            {
              "internalType": "uint256",
              "name": "exchangeFee",
              "type": "uint256"
            },
            {
              "internalType": "uint256",
              "name": "investmentFee",
              "type": "uint256"
            },
            {
              "internalType": "uint256",
              "name": "initialLoanToValueRatio",
              "type": "uint256"
            },
            {
              "internalType": "uint256",
              "name": "marginCallLoanToValueRatio",
              "type": "uint256"
            },
            {
              "internalType": "uint256",
              "name": "liquidationLoanToValueRatio",
              "type": "uint256"
            },
            {
              "internalType": "uint256",
              "name": "collateralAmount",
              "type": "uint256"
            }
          ],
          "internalType": "struct CollateralToken.Data[]",
          "name": "allowedCollateralTokens",
          "type": "tuple[]"
        }
      ],
      "stateMutability": "view",
      "type": "function"
    },
    {
      "inputs": [
        {
          "internalType": "uint256",
          "name": "loanId",
          "type": "uint256"
        }
      ],
      "name": "getLoanToValueRatio",
      "outputs": [
        {
          "internalType": "uint256",
          "name": "loanToValueRatio",
          "type": "uint256"
        }
      ],
      "stateMutability": "view",
      "type": "function"
    },
    {
      "inputs": [
        {
          "internalType": "address",
          "name": "borrower",
          "type": "address"
        }
      ],
      "name": "getLoans",
      "outputs": [
        {
          "components": [
            {
              "internalType": "uint256",
              "name": "id",
              "type": "uint256"
            },
            {
              "internalType": "bool",
              "name": "isActive",
              "type": "bool"
            },
            {
              "internalType": "address",
              "name": "borrower",
              "type": "address"
            },
            {
              "internalType": "contract IERC20",
              "name": "collateralToken",
              "type": "address"
            },
            {
              "internalType": "bool",
              "name": "isNativeCurrency",
              "type": "bool"
            },
            {
              "internalType": "contract IPriceOracle",
              "name": "priceOracle",
              "type": "address"
            },
            {
              "internalType": "uint256",
              "name": "stabilityFee",
              "type": "uint256"
            },
            {
              "internalType": "uint256",
              "name": "stabilizationFee",
              "type": "uint256"
            },
            {
              "internalType": "uint256",
              "name": "exchangeFee",
              "type": "uint256"
            },
            {
              "internalType": "uint256",
              "name": "investmentFee",
              "type": "uint256"
            },
            {
              "internalType": "uint256",
              "name": "principalAmount",
              "type": "uint256"
            },
            {
              "internalType": "uint256",
              "name": "collateralAmount",
              "type": "uint256"
            },
            {
              "internalType": "uint256",
              "name": "lastDepositAt",
              "type": "uint256"
            },
            {
              "internalType": "uint256",
              "name": "lastRepaymentAt",
              "type": "uint256"
            }
          ],
          "internalType": "struct Loan.Data[]",
          "name": "_loans",
          "type": "tuple[]"
        }
      ],
      "stateMutability": "view",
      "type": "function"
    },
    {
      "inputs": [],
      "name": "getTotalValueLocked",
      "outputs": [
        {
          "internalType": "uint256",
          "name": "totalValueLocked",
          "type": "uint256"
        }
      ],
      "stateMutability": "view",
      "type": "function"
    },
    {
      "inputs": [],
      "name": "governor",
      "outputs": [
        {
          "internalType": "address",
          "name": "",
          "type": "address"
        }
      ],
      "stateMutability": "view",
      "type": "function"
    },
    {
      "inputs": [],
      "name": "investmentFee",
      "outputs": [
        {
          "internalType": "uint256",
          "name": "",
          "type": "uint256"
        }
      ],
      "stateMutability": "view",
      "type": "function"
    },
    {
      "inputs": [],
      "name": "investmentFund",
      "outputs": [
        {
          "internalType": "address",
          "name": "",
          "type": "address"
        }
      ],
      "stateMutability": "view",
      "type": "function"
    },
    {
      "inputs": [
        {
          "internalType": "uint256",
          "name": "loanId",
          "type": "uint256"
        }
      ],
      "name": "liquidate",
      "outputs": [],
      "stateMutability": "nonpayable",
      "type": "function"
    },
    {
      "inputs": [],
      "name": "liquidationLoanToValueRatio",
      "outputs": [
        {
          "internalType": "uint256",
          "name": "",
          "type": "uint256"
        }
      ],
      "stateMutability": "view",
      "type": "function"
    },
    {
      "inputs": [],
      "name": "liquidator",
      "outputs": [
        {
          "internalType": "address",
          "name": "",
          "type": "address"
        }
      ],
      "stateMutability": "view",
      "type": "function"
    },
    {
      "inputs": [
        {
          "internalType": "contract IERC20",
          "name": "token",
          "type": "address"
        },
        {
          "internalType": "uint256",
          "name": "initialLoanToValueRatio",
          "type": "uint256"
        }
      ],
      "name": "listCollateralToken",
      "outputs": [],
      "stateMutability": "nonpayable",
      "type": "function"
    },
    {
      "inputs": [
        {
          "internalType": "address",
          "name": "",
          "type": "address"
        },
        {
          "internalType": "uint256",
          "name": "",
          "type": "uint256"
        }
      ],
      "name": "loanIds",
      "outputs": [
        {
          "internalType": "uint256",
          "name": "",
          "type": "uint256"
        }
      ],
      "stateMutability": "view",
      "type": "function"
    },
    {
      "inputs": [
        {
          "internalType": "uint256",
          "name": "",
          "type": "uint256"
        }
      ],
      "name": "loans",
      "outputs": [
        {
          "internalType": "uint256",
          "name": "id",
          "type": "uint256"
        },
        {
          "internalType": "bool",
          "name": "isActive",
          "type": "bool"
        },
        {
          "internalType": "address",
          "name": "borrower",
          "type": "address"
        },
        {
          "internalType": "contract IERC20",
          "name": "collateralToken",
          "type": "address"
        },
        {
          "internalType": "bool",
          "name": "isNativeCurrency",
          "type": "bool"
        },
        {
          "internalType": "contract IPriceOracle",
          "name": "priceOracle",
          "type": "address"
        },
        {
          "internalType": "uint256",
          "name": "stabilityFee",
          "type": "uint256"
        },
        {
          "internalType": "uint256",
          "name": "stabilizationFee",
          "type": "uint256"
        },
        {
          "internalType": "uint256",
          "name": "exchangeFee",
          "type": "uint256"
        },
        {
          "internalType": "uint256",
          "name": "investmentFee",
          "type": "uint256"
        },
        {
          "internalType": "uint256",
          "name": "principalAmount",
          "type": "uint256"
        },
        {
          "internalType": "uint256",
          "name": "collateralAmount",
          "type": "uint256"
        },
        {
          "internalType": "uint256",
          "name": "lastDepositAt",
          "type": "uint256"
        },
        {
          "internalType": "uint256",
          "name": "lastRepaymentAt",
          "type": "uint256"
        }
      ],
      "stateMutability": "view",
      "type": "function"
    },
    {
      "inputs": [],
      "name": "marginCallLoanToValueRatio",
      "outputs": [
        {
          "internalType": "uint256",
          "name": "",
          "type": "uint256"
        }
      ],
      "stateMutability": "view",
      "type": "function"
    },
    {
      "inputs": [],
      "name": "minimumPrincipalAmount",
      "outputs": [
        {
          "internalType": "uint256",
          "name": "",
          "type": "uint256"
        }
      ],
      "stateMutability": "view",
      "type": "function"
    },
    {
      "inputs": [],
      "name": "operator",
      "outputs": [
        {
          "internalType": "address",
          "name": "",
          "type": "address"
        }
      ],
      "stateMutability": "view",
      "type": "function"
    },
    {
      "inputs": [],
      "name": "pendingGovernor",
      "outputs": [
        {
          "internalType": "address",
          "name": "",
          "type": "address"
        }
      ],
      "stateMutability": "view",
      "type": "function"
    },
    {
      "inputs": [],
      "name": "priceOracle",
      "outputs": [
        {
          "internalType": "contract IPriceOracle",
          "name": "",
          "type": "address"
        }
      ],
      "stateMutability": "view",
      "type": "function"
    },
    {
      "inputs": [],
      "name": "rebalance",
      "outputs": [],
      "stateMutability": "nonpayable",
      "type": "function"
    },
    {
      "inputs": [],
      "name": "rebalancingThreshold",
      "outputs": [
        {
          "internalType": "uint256",
          "name": "",
          "type": "uint256"
        }
      ],
      "stateMutability": "view",
      "type": "function"
    },
    {
      "inputs": [
        {
          "internalType": "uint256",
          "name": "loanId",
          "type": "uint256"
        },
        {
          "internalType": "uint256",
          "name": "amount",
          "type": "uint256"
        }
      ],
      "name": "repay",
      "outputs": [],
      "stateMutability": "nonpayable",
      "type": "function"
    },
    {
      "inputs": [
        {
          "internalType": "contract IERC20",
          "name": "token",
          "type": "address"
        }
      ],
      "name": "salvage",
      "outputs": [],
      "stateMutability": "nonpayable",
      "type": "function"
    },
    {
      "inputs": [
        {
          "internalType": "contract IERC20",
          "name": "token",
          "type": "address"
        },
        {
          "internalType": "uint256",
          "name": "newInitialLoanToValueRatio",
          "type": "uint256"
        }
      ],
      "name": "setInitialLoanToValueRatio",
      "outputs": [],
      "stateMutability": "nonpayable",
      "type": "function"
    },
    {
      "inputs": [
        {
          "internalType": "uint256",
          "name": "newLiquidationLoanToValueRatio",
          "type": "uint256"
        }
      ],
      "name": "setLiquidationLoanToValueRatio",
      "outputs": [],
      "stateMutability": "nonpayable",
      "type": "function"
    },
    {
      "inputs": [
        {
          "internalType": "uint256",
          "name": "newMarginCallLoanToValueRatio",
          "type": "uint256"
        }
      ],
      "name": "setMarginCallLoanToValueRatio",
      "outputs": [],
      "stateMutability": "nonpayable",
      "type": "function"
    },
    {
      "inputs": [
        {
          "internalType": "uint256",
          "name": "newMinimumPrincipalAmount",
          "type": "uint256"
        }
      ],
      "name": "setMinimumPrincipalAmount",
      "outputs": [],
      "stateMutability": "nonpayable",
      "type": "function"
    },
    {
      "inputs": [
        {
          "internalType": "uint256",
          "name": "newStabilizationFee",
          "type": "uint256"
        },
        {
          "internalType": "uint256",
          "name": "newExchangeFee",
          "type": "uint256"
        },
        {
          "internalType": "uint256",
          "name": "newInvestmentFee",
          "type": "uint256"
        }
      ],
      "name": "setPlatformFees",
      "outputs": [],
      "stateMutability": "nonpayable",
      "type": "function"
    },
    {
      "inputs": [
        {
          "internalType": "uint256",
          "name": "newRebalancingThreshold",
          "type": "uint256"
        }
      ],
      "name": "setRebalancingThreshold",
      "outputs": [],
      "stateMutability": "nonpayable",
      "type": "function"
    },
    {
      "inputs": [
        {
          "internalType": "uint256",
          "name": "newStabilityFee",
          "type": "uint256"
        }
      ],
      "name": "setStabilityFee",
      "outputs": [],
      "stateMutability": "nonpayable",
      "type": "function"
    },
    {
      "inputs": [],
      "name": "stabilityFee",
      "outputs": [
        {
          "internalType": "uint256",
          "name": "",
          "type": "uint256"
        }
      ],
      "stateMutability": "view",
      "type": "function"
    },
    {
      "inputs": [],
      "name": "stabilizationFee",
      "outputs": [
        {
          "internalType": "uint256",
          "name": "",
          "type": "uint256"
        }
      ],
      "stateMutability": "view",
      "type": "function"
    },
    {
      "inputs": [],
      "name": "stablecoin",
      "outputs": [
        {
          "internalType": "contract IMintableAndBurnableERC20",
          "name": "",
          "type": "address"
        }
      ],
      "stateMutability": "view",
      "type": "function"
    },
    {
      "inputs": [
        {
          "internalType": "address",
          "name": "newGovernor",
          "type": "address"
        }
      ],
      "name": "transitGovernance",
      "outputs": [],
      "stateMutability": "nonpayable",
      "type": "function"
    },
    {
      "inputs": [
        {
          "internalType": "contract IERC20",
          "name": "token",
          "type": "address"
        }
      ],
      "name": "unlistCollateralToken",
      "outputs": [],
      "stateMutability": "nonpayable",
      "type": "function"
    },
    {
      "inputs": [],
      "name": "wrappedNativeCurrency",
      "outputs": [
        {
          "internalType": "contract IWrappedNativeCurrency",
          "name": "",
          "type": "address"
        }
      ],
      "stateMutability": "view",
      "type": "function"
    },
    {
      "stateMutability": "payable",
      "type": "receive"
    }
  ],
  "transactionHash": "0xe29e0bba26574850e614d921b3f870f4af11836c7106edaff2e55feb1d19cfc6",
  "args": [
    "0x2Cf210ad0a8f31D8A7b5742931B9C3ECb663cdB8",
    "0xA11F4daE4D8Af423FD1462afB78949c3156268E1",
    "0x4d401b7d54fd335722FDb08a28095cc1Af7E796b",
    "0xb02E726015885207D534ea5EBB339e7F0cee61D7",
    "0xDD81C8c2791df0aF2D85aa4331964f4D65ACaE60",
    "0x5E9A48115E905cAcFFce91B3731C308A77c533bd",
    "0xE8C90f681552B68E2828dB24ebB64F3444163B0c"
  ],
  "solcInputHash": "5568b0a9718327e41dc7fa1463148b81",
  "bytecode": "0x6101606040526802b5e3af16b1880000600355666a94d74f430000600455670bcbce7f1b150000600555670214e8348c4f00006006556000600755670a688906bd8b0000600855670b84c09a3b930000600955662386f26fc10000600a553480156200006a57600080fd5b5060405162004a1138038062004a118339810160408190526200008d916200015a565b600080546001600160a01b0319163390811782556040519091907fc606c9af1451cadeb333f6ff7b24a5540974f4e800bac274fa7fff9edc305cb1908290a3600080546040516001600160a01b0390911691907f564590b81987d147246f63910a8e1ee4eb09c4d64cc75ee975a8ffedfcc2210e908290a360016002556001600160a01b0396871660805294861660a05292851660c05290841660e052831661010052821661012052166101405262000205565b6001600160a01b03811681146200015757600080fd5b50565b600080600080600080600060e0888a0312156200017657600080fd5b8751620001838162000141565b6020890151909750620001968162000141565b6040890151909650620001a98162000141565b6060890151909550620001bc8162000141565b6080890151909450620001cf8162000141565b60a0890151909350620001e28162000141565b60c0890151909250620001f58162000141565b8091505092959891949750929550565b60805160a05160c05160e0516101005161012051610140516146e66200032b60003960008181610a8001526133340152600081816105ad01526132890152600081816104cd01528181611075015261119f0152600081816105f701528181610be3015281816115d70152611b7901526000818161042d0152611dba015260008181610a36015281816111d201528181611230015281816117c7015281816118c90152818161194201528181611a0d01528181611ae3015281816128230152818161295e01528181613208015281816132b90152818161336401526133f401526000818161031c01528181610a0201528181610af801528181610b6c01528181610c0c01528181610c4c015281816125e9015281816126640152612a4e01526146e66000f3fe60806040526004361061030c5760003560e01c8063863a03e01161019a578063d988ef20116100e1578063e39302491161008a578063ee0e54cb11610064578063ee0e54cb14610a58578063f20ec9c214610a6e578063fb4ca35b14610aa257600080fd5b8063e3930249146109d0578063e7f3028c146109f0578063e9cbd82214610a2457600080fd5b8063e1ec3c68116100bb578063e1ec3c68146108f6578063e2bbb15814610990578063e3056a34146109b057600080fd5b8063d988ef201461087c578063dfe8f671146108a9578063e16da9f8146108d657600080fd5b8063c78bede811610143578063d34cf64c1161011d578063d34cf64c14610833578063d876d98e14610846578063d8aed1451461085c57600080fd5b8063c78bede814610723578063cf17622514610743578063cffbc2971461076557600080fd5b8063af76a7ef11610174578063af76a7ef146106ce578063b26025aa146106ee578063b38e48161461070357600080fd5b8063863a03e01461066e57806387eae8191461068e5780638fa1552e146106ae57600080fd5b8063415f12401161025e5780634c12d47111610207578063631aa9e2116101e1578063631aa9e21461061957806377c4572d146106395780637d7c2a1c1461065957600080fd5b80634c12d4711461059b5780635261fcc4146105cf578063570ca735146105e557600080fd5b806344dbdd901161023857806344dbdd901461053b5780634721f2db1461055b5780634b8a35291461057b57600080fd5b8063415f1240146104ef57806342580dbe1461050f5780634433c5e81461052557600080fd5b80632630c12f116102c0578063361416e11161029a578063361416e1146104855780633f8189ea1461049b5780634046ebae146104bb57600080fd5b80632630c12f1461041b5780632b3c38921461044f5780632ecd3be41461046f57600080fd5b80630c340a24116102f15780630c340a24146103ae5780631cec9e75146103e6578063238efcbc1461040657600080fd5b80630b5a017a146103615780630b68a5801461038a57600080fd5b3661035c57336001600160a01b037f0000000000000000000000000000000000000000000000000000000000000000161461035a57604051634b908c4f60e01b815260040160405180910390fd5b005b600080fd5b61037461036f366004613f59565b610ac2565b6040516103819190614046565b60405180910390f35b34801561039657600080fd5b506103a060035481565b604051908152602001610381565b3480156103ba57600080fd5b506000546103ce906001600160a01b031681565b6040516001600160a01b039091168152602001610381565b3480156103f257600080fd5b506103a0610401366004613f59565b610d00565b34801561041257600080fd5b5061035a610df8565b34801561042757600080fd5b506103ce7f000000000000000000000000000000000000000000000000000000000000000081565b34801561045b57600080fd5b5061035a61046a366004613f59565b610e6e565b34801561047b57600080fd5b506103a060065481565b34801561049157600080fd5b506103a060045481565b3480156104a757600080fd5b5061035a6104b6366004613f59565b610eda565b3480156104c757600080fd5b506103ce7f000000000000000000000000000000000000000000000000000000000000000081565b3480156104fb57600080fd5b5061035a61050a366004613f59565b610f46565b34801561051b57600080fd5b506103a060055481565b34801561053157600080fd5b506103a060095481565b34801561054757600080fd5b5061037461055636600461406a565b611327565b34801561056757600080fd5b5061035a61057636600461406a565b611442565b34801561058757600080fd5b5061037461059636600461406a565b611551565b3480156105a757600080fd5b506103ce7f000000000000000000000000000000000000000000000000000000000000000081565b3480156105db57600080fd5b506103a060075481565b3480156105f157600080fd5b506103ce7f000000000000000000000000000000000000000000000000000000000000000081565b34801561062557600080fd5b5061035a610634366004614096565b611657565b34801561064557600080fd5b5061035a610654366004613f59565b611724565b34801561066557600080fd5b5061035a611790565b34801561067a57600080fd5b5061035a610689366004614096565b611ab1565b34801561069a57600080fd5b5061035a6106a936600461406a565b611c12565b3480156106ba57600080fd5b506103746106c936600461406a565b611f77565b3480156106da57600080fd5b5061035a6106e9366004613f59565b612041565b3480156106fa57600080fd5b506103a06120ad565b34801561070f57600080fd5b5061037461071e36600461406a565b61219a565b34801561072f57600080fd5b5061035a61073e366004614096565b612264565b34801561074f57600080fd5b50610758612374565b6040516103819190614133565b34801561077157600080fd5b506107de610780366004614096565b600d6020526000908152604090208054600182015460028301546003840154600485015460058601546006870154600788015460088901546009909901546001600160a01b039889169997909816979596949593949293919290918a565b604080516001600160a01b039b8c1681529a90991660208b0152978901969096526060880194909452608087019290925260a086015260c085015260e084015261010083015261012082015261014001610381565b61035a610841366004613f59565b612526565b34801561085257600080fd5b506103a060085481565b34801561086857600080fd5b5061035a610877366004614182565b6126ea565b34801561088857600080fd5b5061089c610897366004614096565b612b2b565b60405161038191906141a4565b3480156108b557600080fd5b506108c96108c4366004613f59565b612cf9565b60405161038191906141fd565b3480156108e257600080fd5b5061035a6108f1366004614225565b612d32565b34801561090257600080fd5b50610916610911366004613f59565b612e15565b604080519e8f529c151560208f01526001600160a01b039b8c169c8e019c909c52988a1660608d015296151560808c01529790941660a08a015260c089019290925260e08801526101008701526101208601526101408501929092526101608401919091526101808301526101a08201526101c001610381565b34801561099c57600080fd5b5061035a6109ab366004614182565b612ea1565b3480156109bc57600080fd5b506001546103ce906001600160a01b031681565b3480156109dc57600080fd5b506103a06109eb36600461406a565b612fb5565b3480156109fc57600080fd5b506103ce7f000000000000000000000000000000000000000000000000000000000000000081565b348015610a3057600080fd5b506103ce7f000000000000000000000000000000000000000000000000000000000000000081565b348015610a6457600080fd5b506103a0600a5481565b348015610a7a57600080fd5b506103ce7f000000000000000000000000000000000000000000000000000000000000000081565b348015610aae57600080fd5b5061035a610abd366004613f59565b612fe6565b610aca613ecb565b600280541415610aed57604051633ee5aeb560e01b815260040160405180910390fd5b600280556000610b1d7f00000000000000000000000000000000000000000000000000000000000000008461219a565b6001608082015260c0810151610160820151919250600091610b3f9190614267565b905080341015610b6a57604051631e59fc6f60e01b8152600481018290526024015b60405180910390fd5b7f00000000000000000000000000000000000000000000000000000000000000006001600160a01b031663d0e30db0826040518263ffffffff1660e01b81526004016000604051808303818588803b158015610bc557600080fd5b505af1158015610bd9573d6000803e3d6000fd5b5050505050610c737f0000000000000000000000000000000000000000000000000000000000000000610c428460c001517f00000000000000000000000000000000000000000000000000000000000000006001600160a01b031661305290919063ffffffff16565b6001600160a01b037f0000000000000000000000000000000000000000000000000000000000000000169190613103565b34818103908214610ce957604051600090339083908381818185875af1925050503d8060008114610cc0576040519150601f19603f3d011682016040523d82523d6000602084013e610cc5565b606091505b5050905080610ce757604051638762150d60e01b815260040160405180910390fd5b505b610cf283613193565b600160025595945050505050565b600080600b8381548110610d1657610d1661427f565b6000918252602091829020604080516101c081018252600c90930290910180548352600181015460ff8082161515958501959095526001600160a01b036101009182900481169385019390935260028201548084166060860152600160a01b900490941615156080840152600381015490911660a0830152600481015460c0830152600581015460e0830152600681015492820192909252600782015461012082015260088201546101408201526009820154610160820152600a820154610180820152600b909101546101a08201529050610df1816136cf565b9392505050565b6001546001600160a01b03163314610e235760405163aec80d4b60e01b815260040160405180910390fd5b600154600080546001600160a01b0319166001600160a01b03909216918217815560405182917f564590b81987d147246f63910a8e1ee4eb09c4d64cc75ee975a8ffedfcc2210e91a3565b6000546001600160a01b03163314610e99576040516305e7700560e51b815260040160405180910390fd5b60035460408051918252602082018390527fde9fa07b6ca9d540214c05366e57cb33adf8f132014d9d1b2802a5b89a99512a910160405180910390a1600355565b6000546001600160a01b03163314610f05576040516305e7700560e51b815260040160405180910390fd5b60095460408051918252602082018390527fa466548b1a7b7c581a6b5b6e38ebed0f41846451118fb8582b71f8605b960cd8910160405180910390a1600955565b600280541415610f6957604051633ee5aeb560e01b815260040160405180910390fd5b60028055600b54819081101580610fa75750600b8181548110610f8e57610f8e61427f565b600091825260209091206001600c90920201015460ff16155b15610fc8576040516372c4e6fd60e01b815260048101829052602401610b61565b816002610fd482612cf9565b6002811115610fe557610fe56141e7565b1461100557604051621e4f3560e61b815260048101829052602401610b61565b6000600b848154811061101a5761101a61427f565b600091825260208083206009600c909302018281015460028201546001600160a01b03168552600d90925260408420909201805492945090929091611060908490614295565b9091555050600981015460028201546110bf917f0000000000000000000000000000000000000000000000000000000000000000916110aa916001600160a01b0390911690613052565b60028401546001600160a01b03169190613103565b604080516101c08101825282548152600183015460ff808216151560208401526001600160a01b036101009283900481169484019490945260028501548085166060850152600160a01b90041615156080830152600384015490921660a0820152600483015460c0820152600583015460e0820152600683015491810191909152600782015461012082015260088201546101408201526009820154610160820152600a820154610180820152600b8201546101a082015260009061118390613712565b6008830154604051632770a7eb60e21b81526001600160a01b037f00000000000000000000000000000000000000000000000000000000000000008116600483015260248201929092529192507f00000000000000000000000000000000000000000000000000000000000000001690639dc29fac90604401600060405180830381600087803b15801561121657600080fd5b505af115801561122a573d6000803e3d6000fd5b505050507f00000000000000000000000000000000000000000000000000000000000000006001600160a01b0316639dc29fac3084600801548461126e9190614295565b6040517fffffffff0000000000000000000000000000000000000000000000000000000060e085901b1681526001600160a01b0390921660048301526024820152604401600060405180830381600087803b1580156112cc57600080fd5b505af11580156112e0573d6000803e3d6000fd5b50505060018301805460ff191690555060405185907fc9e9d7cf3944e82f1fe222573e1c9acf5a2f6cd29aa9639bc8078065f091bb6b90600090a250506001600255505050565b61132f613ecb565b6001600160a01b038084166000908152600d6020908152604091829020825161014081018452815485168152600182015490941691840191909152600281015483830152600381015460608401526004808201546080850152600582015460a0850152600682015460c0850152600782015460e08501526008820154610100850152600990910154610120840152905163b951bd1160e01b8152735b77C87b2121ef9b0F3F09bfa3fC91AC3737B1c39263b951bd11926113f1928791016142ac565b6101c06040518083038186803b15801561140a57600080fd5b505af415801561141e573d6000803e3d6000fd5b505050506040513d601f19601f82011682018060405250810190610df19190614337565b6000546001600160a01b0316331461146d576040516305e7700560e51b815260040160405180910390fd5b6001600160a01b0382166000908152600f60205260409020546114ae57604051634cbfe6c960e11b81526001600160a01b0383166004820152602401610b61565b6001600160a01b0382166000908152600d60205260409020600781015482106114fc57604051630d12026b60e31b81526001600160a01b038416600482015260248101839052604401610b61565b6006810180549083905560408051828152602081018590526001600160a01b038616917fc6a8c526618a1ece6f5d33564501b92330c354faa23902079359e52c8efd72f391015b60405180910390a250505050565b611559613ecb565b60028054141561157c57604051633ee5aeb560e01b815260040160405180910390fd5b600280556001600160a01b0383166000908152600f602052604090205483906115c3576040516308cfe49560e31b81526001600160a01b0382166004820152602401610b61565b60006115cf858561219a565b9050611628337f00000000000000000000000000000000000000000000000000000000000000006116168460c00151896001600160a01b031661305290919063ffffffff16565b6001600160a01b0389169291906137ac565b61164e3330611616846101600151896001600160a01b031661305290919063ffffffff16565b610cf281613193565b6000546001600160a01b03163314611682576040516305e7700560e51b815260040160405180910390fd5b6001600160a01b0381166116a95760405163604b48b960e11b815260040160405180910390fd5b6001600160a01b0381163014156116d3576040516306b3e95d60e21b815260040160405180910390fd5b600180546001600160a01b0319166001600160a01b0383811691821790925560008054604051929316917fc606c9af1451cadeb333f6ff7b24a5540974f4e800bac274fa7fff9edc305cb19190a350565b6000546001600160a01b0316331461174f576040516305e7700560e51b815260040160405180910390fd5b60085460408051918252602082018390527fd2a3e4f854a80a895407f8743c1363ac14b698c432d22d8c65519e13a9e4983d910160405180910390a1600855565b6002805414156117b357604051633ee5aeb560e01b815260040160405180910390fd5b6002805560006117c16120ad565b905060007f00000000000000000000000000000000000000000000000000000000000000006001600160a01b03166318160ddd6040518163ffffffff1660e01b815260040160206040518083038186803b15801561181e57600080fd5b505afa158015611832573d6000803e3d6000fd5b505050506040513d601f19601f82011682018060405250810190611856919061440a565b905060006118648383614423565b90506000611871826137ea565b9050600061187f8285613802565b9050600a548110156118a4576040516363b74cfb60e01b815260040160405180910390fd5b60008313156119f157604051632770a7eb60e21b8152306004820152602481018390527f00000000000000000000000000000000000000000000000000000000000000006001600160a01b031690639dc29fac90604401600060405180830381600087803b15801561191557600080fd5b505af1925050508015611926575060015b6119ec576040516370a0823160e01b81523060048201526000907f00000000000000000000000000000000000000000000000000000000000000006001600160a01b0316906370a082319060240160206040518083038186803b15801561198c57600080fd5b505afa1580156119a0573d6000803e3d6000fd5b505050506040513d601f19601f820116820180604052508101906119c4919061440a565b90506119d08184614295565b60405163dc14e6f760e01b8152600401610b6191815260200190565b611a72565b6040516340c10f1960e01b8152306004820152602481018390527f00000000000000000000000000000000000000000000000000000000000000006001600160a01b0316906340c10f1990604401600060405180830381600087803b158015611a5957600080fd5b505af1158015611a6d573d6000803e3d6000fd5b505050505b6040518381527fa3cc94864c69eaba081615f691669aa27c9f8697ad249e6c01a4d792b2aace949060200160405180910390a150506001600255505050565b6000546001600160a01b03163314611adc576040516305e7700560e51b815260040160405180910390fd5b60008190507f00000000000000000000000000000000000000000000000000000000000000006001600160a01b0316816001600160a01b03161480611b3857506001600160a01b0381166000908152600f602052604090205415155b15611b605760405162919e6d60e01b81526001600160a01b0383166004820152602401610b61565b6040516370a0823160e01b8152306004820152611c0e907f0000000000000000000000000000000000000000000000000000000000000000906001600160a01b038516906370a082319060240160206040518083038186803b158015611bc557600080fd5b505afa158015611bd9573d6000803e3d6000fd5b505050506040513d601f19601f82011682018060405250810190611bfd919061440a565b6001600160a01b0385169190613103565b5050565b6000546001600160a01b03163314611c3d576040516305e7700560e51b815260040160405180910390fd5b6001600160a01b0382166000908152600f602052604090205415611c7f5760405163ca6d908160e01b81526001600160a01b0383166004820152602401610b61565b6008548110611cb357604051630d12026b60e31b81526001600160a01b038316600482015260248101829052604401610b61565b6000826001600160a01b031663313ce5676040518163ffffffff1660e01b815260040160206040518083038186803b158015611cee57600080fd5b505afa158015611d02573d6000803e3d6000fd5b505050506040513d601f19601f82011682018060405250810190611d26919061447b565b905060ff8116611d545760405163016058a160e51b81526001600160a01b0384166004820152602401610b61565b601260ff82161115611d8d5760405163dbba24db60e01b81526001600160a01b038416600482015260ff82166024820152604401610b61565b611d98600e84613817565b15611f7257604051806101400160405280846001600160a01b031681526020017f00000000000000000000000000000000000000000000000000000000000000006001600160a01b031681526020016004548152602001600554815260200160065481526020016007548152602001838152602001600854815260200160095481526020016000815250600d6000856001600160a01b03166001600160a01b0316815260200190815260200160002060008201518160000160006101000a8154816001600160a01b0302191690836001600160a01b0316021790555060208201518160010160006101000a8154816001600160a01b0302191690836001600160a01b0316021790555060408201518160020155606082015181600301556080820151816004015560a0820151816005015560c0820151816006015560e0820151816007015561010082015181600801556101208201518160090155905050826001600160a01b03167f55dcc5a02a669292f3baba7762915a1182901a9c28a30cc15d3325afcbb4bccc60405160405180910390a26040805160008152602081018490526001600160a01b038516917fc6a8c526618a1ece6f5d33564501b92330c354faa23902079359e52c8efd72f3910160405180910390a25b505050565b611f7f613ecb565b6001600160a01b038084166000908152600d6020908152604091829020825161014081018452815485168152600182015490941691840191909152600281015483830152600381015460608401526004808201546080850152600582015460a0850152600682015460c0850152600782015460e085015260088201546101008501526009909101546101208401529051635751bfb360e11b8152735b77C87b2121ef9b0F3F09bfa3fC91AC3737B1c39263aea37f66926113f1928791016142ac565b6000546001600160a01b0316331461206c576040516305e7700560e51b815260040160405180910390fd5b600a5460408051918252602082018390527f5eb53b71d73d0607121e658859e0125d7bbbf83c4288d44c18438d4fe94d1e07910160405180910390a1600a55565b6000805b600e5481101561219657612178600d6000600e60000184815481106120d8576120d861427f565b60009182526020808320909101546001600160a01b0390811684528382019490945260409283019091208251610140810184528154851681526001820154909416918401919091526002810154918301919091526003810154606083015260048101546080830152600581015460a0830152600681015460c0830152600781015460e0830152600881015461010083015260090154610120820152613887565b6121829083614267565b91508061218e8161449e565b9150506120b1565b5090565b6121a2613ecb565b6001600160a01b038084166000908152600d6020908152604091829020825161014081018452815485168152600182015490941691840191909152600281015483830152600381015460608401526004808201546080850152600582015460a0850152600682015460c0850152600782015460e08501526008820154610100850152600990910154610120840152905163719eae4d60e11b8152735b77C87b2121ef9b0F3F09bfa3fC91AC3737B1c39263e33d5c9a926113f1928791016142ac565b6000546001600160a01b0316331461228f576040516305e7700560e51b815260040160405180910390fd5b6001600160a01b0381166000908152600f60205260409020546122d057604051634cbfe6c960e11b81526001600160a01b0382166004820152602401610b61565b6122db600e8261391e565b15612371576001600160a01b0381166000818152600d602052604080822080546001600160a01b03199081168255600182018054909116905560028101839055600381018390556004810183905560058101839055600681018390556007810183905560088101839055600901829055517f6d08717837ebdfd34a4ddffe3e4566e0a68e8dde2464854e9242a8f7e6399a339190a25b50565b600e546060908067ffffffffffffffff811115612393576123936142c9565b60405190808252806020026020018201604052801561242c57816020015b61241960405180610140016040528060006001600160a01b0316815260200160006001600160a01b0316815260200160008152602001600081526020016000815260200160008152602001600081526020016000815260200160008152602001600081525090565b8152602001906001900390816123b15790505b50915060005b8181101561252157600d6000600e60000183815481106124545761245461427f565b60009182526020808320909101546001600160a01b0390811684528382019490945260409283019091208251610140810184528154851681526001820154909416918401919091526002810154918301919091526003810154606083015260048101546080830152600581015460a0830152600681015460c0830152600781015460e083015260088101546101008301526009015461012082015283518490839081106125035761250361427f565b602002602001018190525080806125199061449e565b915050612432565b505090565b60028054141561254957604051633ee5aeb560e01b815260040160405180910390fd5b60028055600b548190811015806125875750600b818154811061256e5761256e61427f565b600091825260209091206001600c90920201015460ff16155b156125a8576040516372c4e6fd60e01b815260048101829052602401610b61565b8160026125b482612cf9565b60028111156125c5576125c56141e7565b14156125e757604051633d240fc360e01b815260048101829052602401610b61565b7f00000000000000000000000000000000000000000000000000000000000000006001600160a01b0316600b84815481106126245761262461427f565b600091825260209091206002600c9092020101546001600160a01b03161461266257604051635d64f43b60e01b815260048101849052602401610b61565b7f00000000000000000000000000000000000000000000000000000000000000006001600160a01b031663d0e30db0346040518263ffffffff1660e01b81526004016000604051808303818588803b1580156126bd57600080fd5b505af11580156126d1573d6000803e3d6000fd5b50505050506126e08334613a57565b5050600160025550565b60028054141561270d57604051633ee5aeb560e01b815260040160405180910390fd5b60028055600b5482908110158061274b5750600b81815481106127325761273261427f565b600091825260209091206001600c90920201015460ff16155b1561276c576040516372c4e6fd60e01b815260048101829052602401610b61565b82600261277882612cf9565b6002811115612789576127896141e7565b14156127ab57604051633d240fc360e01b815260048101829052602401610b61565b826127c957604051631d23e67d60e21b815260040160405180910390fd5b6000600b85815481106127de576127de61427f565b90600052602060002090600c02019050838160080160008282546128029190614295565b9091555050604051632770a7eb60e21b8152336004820152602481018590527f00000000000000000000000000000000000000000000000000000000000000006001600160a01b031690639dc29fac90604401600060405180830381600087803b15801561286f57600080fd5b505af1158015612883573d6000803e3d6000fd5b505042600b84015550506008810154156128d657847f552544cb36551120f07c66c5cd4b2987725a0c72198587f2ce796099bb66c58c856040516128c991815260200190565b60405180910390a2612b1f565b600981015460028201546000916128f6916001600160a01b031690613052565b60098084015460028501546001600160a01b03166000908152600d6020526040812090920180549394509092909190612930908490614295565b9091555050600060098301556005820154604051632770a7eb60e21b815230600482015260248101919091527f00000000000000000000000000000000000000000000000000000000000000006001600160a01b031690639dc29fac90604401600060405180830381600087803b1580156129aa57600080fd5b505af11580156129be573d6000803e3d6000fd5b50505060018301805460ff191690555060405186907f33a382daad6aace935340a474d09fec82af4bec7e2b69518d283231b03a65f2490600090a26002820154600160a01b900460ff16612a385760018201546002830154612a33916001600160a01b03918216916101009091041683613103565b612b1d565b604051632e1a7d4d60e01b8152600481018290527f00000000000000000000000000000000000000000000000000000000000000006001600160a01b031690632e1a7d4d90602401600060405180830381600087803b158015612a9a57600080fd5b505af1158015612aae573d6000803e3d6000fd5b50506040516000925033915083908381818185875af1925050503d8060008114612af4576040519150601f19603f3d011682016040523d82523d6000602084013e612af9565b606091505b5050905080612b1b57604051638762150d60e01b815260040160405180910390fd5b505b505b50506001600255505050565b6001600160a01b0381166000908152600c60205260409020546060908067ffffffffffffffff811115612b6057612b606142c9565b604051908082528060200260200182016040528015612b9957816020015b612b86613ecb565b815260200190600190039081612b7e5790505b50915060005b81811015612cf2576001600160a01b0384166000908152600c602052604090208054600b919083908110612bd557612bd561427f565b906000526020600020015481548110612bf057612bf061427f565b6000918252602091829020604080516101c081018252600c90930290910180548352600181015460ff8082161515958501959095526001600160a01b036101009182900481169385019390935260028201548084166060860152600160a01b900490941615156080840152600381015490911660a0830152600481015460c0830152600581015460e0830152600681015492820192909252600782015461012082015260088201546101408201526009820154610160820152600a820154610180820152600b909101546101a08201528351849083908110612cd457612cd461427f565b60200260200101819052508080612cea9061449e565b915050612b9f565b5050919050565b600080612d0583610d00565b9050600954811015612d2957600854811015612d22576000610df1565b6001610df1565b60029392505050565b6000546001600160a01b03163314612d5d576040516305e7700560e51b815260040160405180910390fd5b670de0b6b3a764000081612d718486614267565b612d7b9190614267565b14612daa5760405163245c170760e21b8152600481018490526024810183905260448101829052606401610b61565b600554600654600754604080519384526020840187905283019190915260608201849052608082015260a081018290527f1f7068a9be898db6fcd350ac2ff32fc5f1e6fc46c8e6cc973cde53793ff3ab5e9060c00160405180910390a1600592909255600655600755565b600b8181548110612e2557600080fd5b60009182526020909120600c9091020180546001820154600283015460038401546004850154600586015460068701546007880154600889015460098a0154600a8b0154600b909b0154999b5060ff808a169b610100909a046001600160a01b039081169b818b169b600160a01b909b0490921699981697908e565b600280541415612ec457604051633ee5aeb560e01b815260040160405180910390fd5b60028055600b54829081101580612f025750600b8181548110612ee957612ee961427f565b600091825260209091206001600c90920201015460ff16155b15612f23576040516372c4e6fd60e01b815260048101829052602401610b61565b826002612f2f82612cf9565b6002811115612f4057612f406141e7565b1415612f6257604051633d240fc360e01b815260048101829052602401610b61565b612fa0333085600b8881548110612f7b57612f7b61427f565b600091825260209091206002600c9092020101546001600160a01b03169291906137ac565b612faa8484613a57565b505060016002555050565b600c6020528160005260406000208181548110612fd157600080fd5b90600052602060002001600091509150505481565b6000546001600160a01b03163314613011576040516305e7700560e51b815260040160405180910390fd5b60045460408051918252602082018390527fde9fa07b6ca9d540214c05366e57cb33adf8f132014d9d1b2802a5b89a99512a910160405180910390a1600455565b600080836001600160a01b031663313ce5676040518163ffffffff1660e01b815260040160206040518083038186803b15801561308e57600080fd5b505afa1580156130a2573d6000803e3d6000fd5b505050506040513d601f19601f820116820180604052508101906130c6919061447b565b6130d19060126144b9565b6130dc90600a6145c0565b9050806001146130f8576130f081846145cf565b9150506130fd565b829150505b92915050565b6040516001600160a01b038316602482015260448101829052611f7290849063a9059cbb60e01b906064015b60408051601f198184030181529190526020810180517bffffffffffffffffffffffffffffffffffffffffffffffffffffffff167fffffffff0000000000000000000000000000000000000000000000000000000090931692909217909152613b3c565b61319b613ecb565b6101408201516131be576040516379d1504360e01b815260040160405180910390fd5b60035482610140015110156131e657604051631efe3f1960e11b815260040160405180910390fd5b60e08201516040516340c10f1960e01b815230600482015260248101919091527f00000000000000000000000000000000000000000000000000000000000000006001600160a01b0316906340c10f1990604401600060405180830381600087803b15801561325457600080fd5b505af1158015613268573d6000803e3d6000fd5b505050506101008201516040516340c10f1960e01b81526001600160a01b037f00000000000000000000000000000000000000000000000000000000000000008116600483015260248201929092527f0000000000000000000000000000000000000000000000000000000000000000909116906340c10f1990604401600060405180830381600087803b1580156132ff57600080fd5b505af1158015613313573d6000803e3d6000fd5b505050506101208201516040516340c10f1960e01b81526001600160a01b037f00000000000000000000000000000000000000000000000000000000000000008116600483015260248201929092527f0000000000000000000000000000000000000000000000000000000000000000909116906340c10f1990604401600060405180830381600087803b1580156133aa57600080fd5b505af11580156133be573d6000803e3d6000fd5b5050505060408281015161014084015191516340c10f1960e01b81526001600160a01b03918216600482015260248101929092527f000000000000000000000000000000000000000000000000000000000000000016906340c10f1990604401600060405180830381600087803b15801561343857600080fd5b505af115801561344c573d6000803e3d6000fd5b505050506000600b80549050905080836000018181525050600b8390806001815401808255809150506001900390600052602060002090600c02016000909190919091506000820151816000015560208201518160010160006101000a81548160ff02191690831515021790555060408201518160010160016101000a8154816001600160a01b0302191690836001600160a01b0316021790555060608201518160020160006101000a8154816001600160a01b0302191690836001600160a01b0316021790555060808201518160020160146101000a81548160ff02191690831515021790555060a08201518160030160006101000a8154816001600160a01b0302191690836001600160a01b0316021790555060c0820151816004015560e08201518160050155610100820151816006015561012082015181600701556101408201518160080155610160820151816009015561018082015181600a01556101a082015181600b01555050600c600084604001516001600160a01b03166001600160a01b03168152602001908152602001600020819080600181540180825580915050600190039060005260206000200160009091909190915055826101600151600d600085606001516001600160a01b03166001600160a01b03168152602001908152602001600020600901600082825461364a9190614267565b90915550506060838101516040808601516101408701516101608801516001600160a01b039485166000818152600d6020908152908690206006015486519485529084019290925293820152919392169184917f1c719a9a8ef2d44db7255e8d65b4a18a23f44758d6ebc0d6b80fe018d25433fb910160405180910390a45090919050565b6000816101400151600014156136e757506000919050565b6101608201516136fa5750600019919050565b6130fd61370683613712565b61014084015190613802565b60a08101516060820151604051630787c49960e21b81526001600160a01b03918216600482015260009283921690631e1f12649060240160206040518083038186803b15801561376157600080fd5b505afa158015613775573d6000803e3d6000fd5b505050506040513d601f19601f82011682018060405250810190613799919061440a565b610160840151909150610df19082613bc6565b6040516001600160a01b03808516602483015283166044820152606481018290526137e49085906323b872dd60e01b9060840161312f565b50505050565b600080821215612196576137fd826145f1565b6130fd565b6000610df183670de0b6b3a764000084613c96565b6001600160a01b03811660009081526001830160205260408120541561383f575060006130fd565b508154600180820184556000848152602080822090930180546001600160a01b0319166001600160a01b03959095169485179055845493815293810190915260409092205590565b60208101518151604051630787c49960e21b81526001600160a01b03918216600482015260009283921690631e1f12649060240160206040518083038186803b1580156138d357600080fd5b505afa1580156138e7573d6000803e3d6000fd5b505050506040513d601f19601f8201168201806040525081019061390b919061440a565b610120840151909150610df19082613bc6565b6001600160a01b0381166000908152600183016020526040812054806139485760009150506130fd565b6000613955600183614295565b905060006001613963875490565b61396d9190614295565b90508082146139f957600086600001828154811061398d5761398d61427f565b60009182526020909120015487546001600160a01b03909116915081908890859081106139bc576139bc61427f565b600091825260208083209190910180546001600160a01b0319166001600160a01b0394851617905592909116815260018801909152604090208390555b8554869080613a0a57613a0a61460e565b60008281526020808220830160001990810180546001600160a01b03191690559092019092556001600160a01b038716825260018881019091526040822091909155935050505092915050565b80613a7557604051635491c16d60e01b815260040160405180910390fd5b6000600b8381548110613a8a57613a8a61427f565b6000918252602082206002600c9092020190810154909250613ab5906001600160a01b031684613d51565b905080826009016000828254613acb9190614267565b909155505042600a83015560028201546001600160a01b03166000908152600d602052604081206009018054839290613b05908490614267565b909155505060405181815284907fa3af609bf46297028ce551832669030f9effef2b02606d02cbbcc40fe6b47c5590602001611543565b6040805180820190915260208082527f5361666545524332303a206c6f772d6c6576656c2063616c6c206661696c6564908201528290600090613b8b906001600160a01b038416908590613def565b8051909150156137e45780806020019051810190613ba99190614624565b6137e457604051639b8d506160e01b815260040160405180910390fd5b60008080600019848609848602925082811083820303915050670de0b6b3a76400008110613c185760405163072fa3c960e31b815260048101829052670de0b6b3a76400006024820152604401610b61565b600080670de0b6b3a76400008688099150506706f05b59d3b1ffff811182613c525780670de0b6b3a76400008504019450505050506130fd565b620400008285030493909111909103600160ee1b02919091177faccb18165bd6fe31ae1cf318dc5b51eee0e1ba569b88cd74c1773b91fac106690201905092915050565b60008080600019858709858702925082811083820303915050838110613cd95760405163072fa3c960e31b81526004810182905260248101859052604401610b61565b80613ce957508290049050610df1565b600084868809600260036001881981018916988990049182028318808302840302808302840302808302840302808302840302808302840302918202909203026000889003889004909101858311909403939093029303949094049190911702949350505050565b600080836001600160a01b031663313ce5676040518163ffffffff1660e01b815260040160206040518083038186803b158015613d8d57600080fd5b505afa158015613da1573d6000803e3d6000fd5b505050506040513d601f19601f82011682018060405250810190613dc5919061447b565b613dd09060126144b9565b613ddb90600a6145c0565b9050806001146130f8576130f0818461463f565b6060833b613e1b5760405163dc5dd7fd60e01b81526001600160a01b0385166004820152602401610b61565b600080856001600160a01b031685604051613e36919061468a565b6000604051808303816000865af19150503d8060008114613e73576040519150601f19603f3d011682016040523d82523d6000602084013e613e78565b606091505b5091509150613e88828286613e92565b9695505050505050565b60608315613ea1575081610df1565b825115613eb15782518060208501fd5b8160405162461bcd60e51b8152600401610b6191906146a6565b604051806101c001604052806000815260200160001515815260200160006001600160a01b0316815260200160006001600160a01b0316815260200160001515815260200160006001600160a01b0316815260200160008152602001600081526020016000815260200160008152602001600081526020016000815260200160008152602001600081525090565b600060208284031215613f6b57600080fd5b5035919050565b805182526020810151613f89602084018215159052565b506040810151613fa460408401826001600160a01b03169052565b506060810151613fbf60608401826001600160a01b03169052565b506080810151613fd3608084018215159052565b5060a0810151613fee60a08401826001600160a01b03169052565b5060c0818101519083015260e08082015190830152610100808201519083015261012080820151908301526101408082015190830152610160808201519083015261018080820151908301526101a090810151910152565b6101c081016130fd8284613f72565b6001600160a01b038116811461237157600080fd5b6000806040838503121561407d57600080fd5b823561408881614055565b946020939093013593505050565b6000602082840312156140a857600080fd5b8135610df181614055565b80516001600160a01b0316825260208101516140da60208401826001600160a01b03169052565b5060408101516040830152606081015160608301526080810151608083015260a081015160a083015260c081015160c083015260e081015160e08301526101008082015181840152506101208082015181840152505050565b6020808252825182820181905260009190848201906040850190845b81811015614176576141628385516140b3565b92840192610140929092019160010161414f565b50909695505050505050565b6000806040838503121561419557600080fd5b50508035926020909101359150565b6020808252825182820181905260009190848201906040850190845b81811015614176576141d3838551613f72565b928401926101c092909201916001016141c0565b634e487b7160e01b600052602160045260246000fd5b602081016003831061421f57634e487b7160e01b600052602160045260246000fd5b91905290565b60008060006060848603121561423a57600080fd5b505081359360208301359350604090920135919050565b634e487b7160e01b600052601160045260246000fd5b6000821982111561427a5761427a614251565b500190565b634e487b7160e01b600052603260045260246000fd5b6000828210156142a7576142a7614251565b500390565b61016081016142bb82856140b3565b826101408301529392505050565b634e487b7160e01b600052604160045260246000fd5b6040516101c0810167ffffffffffffffff8111828210171561431157634e487b7160e01b600052604160045260246000fd5b60405290565b8051801515811461432757600080fd5b919050565b805161432781614055565b60006101c0828403121561434a57600080fd5b6143526142df565b8251815261436260208401614317565b60208201526143736040840161432c565b60408201526143846060840161432c565b606082015261439560808401614317565b60808201526143a660a0840161432c565b60a082015260c0838101519082015260e08084015190820152610100808401519082015261012080840151908201526101408084015190820152610160808401519082015261018080840151908201526101a0928301519281019290925250919050565b60006020828403121561441c57600080fd5b5051919050565b60008083128015600160ff1b85018412161561444157614441614251565b837f7fffffffffffffffffffffffffffffffffffffffffffffffffffffffffffffff01831381161561447557614475614251565b50500390565b60006020828403121561448d57600080fd5b815160ff81168114610df157600080fd5b60006000198214156144b2576144b2614251565b5060010190565b600060ff821660ff8416808210156144d3576144d3614251565b90039392505050565b600181815b808511156145175781600019048211156144fd576144fd614251565b8085161561450a57918102915b93841c93908002906144e1565b509250929050565b60008261452e575060016130fd565b8161453b575060006130fd565b8160018114614551576002811461455b57614577565b60019150506130fd565b60ff84111561456c5761456c614251565b50506001821b6130fd565b5060208310610133831016604e8410600b841016171561459a575081810a6130fd565b6145a483836144dc565b80600019048211156145b8576145b8614251565b029392505050565b6000610df160ff84168361451f565b6000826145ec57634e487b7160e01b600052601260045260246000fd5b500490565b6000600160ff1b82141561460757614607614251565b5060000390565b634e487b7160e01b600052603160045260246000fd5b60006020828403121561463657600080fd5b610df182614317565b600081600019048311821515161561465957614659614251565b500290565b60005b83811015614679578181015183820152602001614661565b838111156137e45750506000910152565b6000825161469c81846020870161465e565b9190910192915050565b60208152600082518060208401526146c581604085016020870161465e565b601f01601f1916919091016040019291505056fea164736f6c6343000809000a",
  "deployedBytecode": "0x60806040526004361061030c5760003560e01c8063863a03e01161019a578063d988ef20116100e1578063e39302491161008a578063ee0e54cb11610064578063ee0e54cb14610a58578063f20ec9c214610a6e578063fb4ca35b14610aa257600080fd5b8063e3930249146109d0578063e7f3028c146109f0578063e9cbd82214610a2457600080fd5b8063e1ec3c68116100bb578063e1ec3c68146108f6578063e2bbb15814610990578063e3056a34146109b057600080fd5b8063d988ef201461087c578063dfe8f671146108a9578063e16da9f8146108d657600080fd5b8063c78bede811610143578063d34cf64c1161011d578063d34cf64c14610833578063d876d98e14610846578063d8aed1451461085c57600080fd5b8063c78bede814610723578063cf17622514610743578063cffbc2971461076557600080fd5b8063af76a7ef11610174578063af76a7ef146106ce578063b26025aa146106ee578063b38e48161461070357600080fd5b8063863a03e01461066e57806387eae8191461068e5780638fa1552e146106ae57600080fd5b8063415f12401161025e5780634c12d47111610207578063631aa9e2116101e1578063631aa9e21461061957806377c4572d146106395780637d7c2a1c1461065957600080fd5b80634c12d4711461059b5780635261fcc4146105cf578063570ca735146105e557600080fd5b806344dbdd901161023857806344dbdd901461053b5780634721f2db1461055b5780634b8a35291461057b57600080fd5b8063415f1240146104ef57806342580dbe1461050f5780634433c5e81461052557600080fd5b80632630c12f116102c0578063361416e11161029a578063361416e1146104855780633f8189ea1461049b5780634046ebae146104bb57600080fd5b80632630c12f1461041b5780632b3c38921461044f5780632ecd3be41461046f57600080fd5b80630c340a24116102f15780630c340a24146103ae5780631cec9e75146103e6578063238efcbc1461040657600080fd5b80630b5a017a146103615780630b68a5801461038a57600080fd5b3661035c57336001600160a01b037f0000000000000000000000000000000000000000000000000000000000000000161461035a57604051634b908c4f60e01b815260040160405180910390fd5b005b600080fd5b61037461036f366004613f59565b610ac2565b6040516103819190614046565b60405180910390f35b34801561039657600080fd5b506103a060035481565b604051908152602001610381565b3480156103ba57600080fd5b506000546103ce906001600160a01b031681565b6040516001600160a01b039091168152602001610381565b3480156103f257600080fd5b506103a0610401366004613f59565b610d00565b34801561041257600080fd5b5061035a610df8565b34801561042757600080fd5b506103ce7f000000000000000000000000000000000000000000000000000000000000000081565b34801561045b57600080fd5b5061035a61046a366004613f59565b610e6e565b34801561047b57600080fd5b506103a060065481565b34801561049157600080fd5b506103a060045481565b3480156104a757600080fd5b5061035a6104b6366004613f59565b610eda565b3480156104c757600080fd5b506103ce7f000000000000000000000000000000000000000000000000000000000000000081565b3480156104fb57600080fd5b5061035a61050a366004613f59565b610f46565b34801561051b57600080fd5b506103a060055481565b34801561053157600080fd5b506103a060095481565b34801561054757600080fd5b5061037461055636600461406a565b611327565b34801561056757600080fd5b5061035a61057636600461406a565b611442565b34801561058757600080fd5b5061037461059636600461406a565b611551565b3480156105a757600080fd5b506103ce7f000000000000000000000000000000000000000000000000000000000000000081565b3480156105db57600080fd5b506103a060075481565b3480156105f157600080fd5b506103ce7f000000000000000000000000000000000000000000000000000000000000000081565b34801561062557600080fd5b5061035a610634366004614096565b611657565b34801561064557600080fd5b5061035a610654366004613f59565b611724565b34801561066557600080fd5b5061035a611790565b34801561067a57600080fd5b5061035a610689366004614096565b611ab1565b34801561069a57600080fd5b5061035a6106a936600461406a565b611c12565b3480156106ba57600080fd5b506103746106c936600461406a565b611f77565b3480156106da57600080fd5b5061035a6106e9366004613f59565b612041565b3480156106fa57600080fd5b506103a06120ad565b34801561070f57600080fd5b5061037461071e36600461406a565b61219a565b34801561072f57600080fd5b5061035a61073e366004614096565b612264565b34801561074f57600080fd5b50610758612374565b6040516103819190614133565b34801561077157600080fd5b506107de610780366004614096565b600d6020526000908152604090208054600182015460028301546003840154600485015460058601546006870154600788015460088901546009909901546001600160a01b039889169997909816979596949593949293919290918a565b604080516001600160a01b039b8c1681529a90991660208b0152978901969096526060880194909452608087019290925260a086015260c085015260e084015261010083015261012082015261014001610381565b61035a610841366004613f59565b612526565b34801561085257600080fd5b506103a060085481565b34801561086857600080fd5b5061035a610877366004614182565b6126ea565b34801561088857600080fd5b5061089c610897366004614096565b612b2b565b60405161038191906141a4565b3480156108b557600080fd5b506108c96108c4366004613f59565b612cf9565b60405161038191906141fd565b3480156108e257600080fd5b5061035a6108f1366004614225565b612d32565b34801561090257600080fd5b50610916610911366004613f59565b612e15565b604080519e8f529c151560208f01526001600160a01b039b8c169c8e019c909c52988a1660608d015296151560808c01529790941660a08a015260c089019290925260e08801526101008701526101208601526101408501929092526101608401919091526101808301526101a08201526101c001610381565b34801561099c57600080fd5b5061035a6109ab366004614182565b612ea1565b3480156109bc57600080fd5b506001546103ce906001600160a01b031681565b3480156109dc57600080fd5b506103a06109eb36600461406a565b612fb5565b3480156109fc57600080fd5b506103ce7f000000000000000000000000000000000000000000000000000000000000000081565b348015610a3057600080fd5b506103ce7f000000000000000000000000000000000000000000000000000000000000000081565b348015610a6457600080fd5b506103a0600a5481565b348015610a7a57600080fd5b506103ce7f000000000000000000000000000000000000000000000000000000000000000081565b348015610aae57600080fd5b5061035a610abd366004613f59565b612fe6565b610aca613ecb565b600280541415610aed57604051633ee5aeb560e01b815260040160405180910390fd5b600280556000610b1d7f00000000000000000000000000000000000000000000000000000000000000008461219a565b6001608082015260c0810151610160820151919250600091610b3f9190614267565b905080341015610b6a57604051631e59fc6f60e01b8152600481018290526024015b60405180910390fd5b7f00000000000000000000000000000000000000000000000000000000000000006001600160a01b031663d0e30db0826040518263ffffffff1660e01b81526004016000604051808303818588803b158015610bc557600080fd5b505af1158015610bd9573d6000803e3d6000fd5b5050505050610c737f0000000000000000000000000000000000000000000000000000000000000000610c428460c001517f00000000000000000000000000000000000000000000000000000000000000006001600160a01b031661305290919063ffffffff16565b6001600160a01b037f0000000000000000000000000000000000000000000000000000000000000000169190613103565b34818103908214610ce957604051600090339083908381818185875af1925050503d8060008114610cc0576040519150601f19603f3d011682016040523d82523d6000602084013e610cc5565b606091505b5050905080610ce757604051638762150d60e01b815260040160405180910390fd5b505b610cf283613193565b600160025595945050505050565b600080600b8381548110610d1657610d1661427f565b6000918252602091829020604080516101c081018252600c90930290910180548352600181015460ff8082161515958501959095526001600160a01b036101009182900481169385019390935260028201548084166060860152600160a01b900490941615156080840152600381015490911660a0830152600481015460c0830152600581015460e0830152600681015492820192909252600782015461012082015260088201546101408201526009820154610160820152600a820154610180820152600b909101546101a08201529050610df1816136cf565b9392505050565b6001546001600160a01b03163314610e235760405163aec80d4b60e01b815260040160405180910390fd5b600154600080546001600160a01b0319166001600160a01b03909216918217815560405182917f564590b81987d147246f63910a8e1ee4eb09c4d64cc75ee975a8ffedfcc2210e91a3565b6000546001600160a01b03163314610e99576040516305e7700560e51b815260040160405180910390fd5b60035460408051918252602082018390527fde9fa07b6ca9d540214c05366e57cb33adf8f132014d9d1b2802a5b89a99512a910160405180910390a1600355565b6000546001600160a01b03163314610f05576040516305e7700560e51b815260040160405180910390fd5b60095460408051918252602082018390527fa466548b1a7b7c581a6b5b6e38ebed0f41846451118fb8582b71f8605b960cd8910160405180910390a1600955565b600280541415610f6957604051633ee5aeb560e01b815260040160405180910390fd5b60028055600b54819081101580610fa75750600b8181548110610f8e57610f8e61427f565b600091825260209091206001600c90920201015460ff16155b15610fc8576040516372c4e6fd60e01b815260048101829052602401610b61565b816002610fd482612cf9565b6002811115610fe557610fe56141e7565b1461100557604051621e4f3560e61b815260048101829052602401610b61565b6000600b848154811061101a5761101a61427f565b600091825260208083206009600c909302018281015460028201546001600160a01b03168552600d90925260408420909201805492945090929091611060908490614295565b9091555050600981015460028201546110bf917f0000000000000000000000000000000000000000000000000000000000000000916110aa916001600160a01b0390911690613052565b60028401546001600160a01b03169190613103565b604080516101c08101825282548152600183015460ff808216151560208401526001600160a01b036101009283900481169484019490945260028501548085166060850152600160a01b90041615156080830152600384015490921660a0820152600483015460c0820152600583015460e0820152600683015491810191909152600782015461012082015260088201546101408201526009820154610160820152600a820154610180820152600b8201546101a082015260009061118390613712565b6008830154604051632770a7eb60e21b81526001600160a01b037f00000000000000000000000000000000000000000000000000000000000000008116600483015260248201929092529192507f00000000000000000000000000000000000000000000000000000000000000001690639dc29fac90604401600060405180830381600087803b15801561121657600080fd5b505af115801561122a573d6000803e3d6000fd5b505050507f00000000000000000000000000000000000000000000000000000000000000006001600160a01b0316639dc29fac3084600801548461126e9190614295565b6040517fffffffff0000000000000000000000000000000000000000000000000000000060e085901b1681526001600160a01b0390921660048301526024820152604401600060405180830381600087803b1580156112cc57600080fd5b505af11580156112e0573d6000803e3d6000fd5b50505060018301805460ff191690555060405185907fc9e9d7cf3944e82f1fe222573e1c9acf5a2f6cd29aa9639bc8078065f091bb6b90600090a250506001600255505050565b61132f613ecb565b6001600160a01b038084166000908152600d6020908152604091829020825161014081018452815485168152600182015490941691840191909152600281015483830152600381015460608401526004808201546080850152600582015460a0850152600682015460c0850152600782015460e08501526008820154610100850152600990910154610120840152905163b951bd1160e01b815273__$5fe12db1329d7e41995fe042c0d943eb24$__9263b951bd11926113f1928791016142ac565b6101c06040518083038186803b15801561140a57600080fd5b505af415801561141e573d6000803e3d6000fd5b505050506040513d601f19601f82011682018060405250810190610df19190614337565b6000546001600160a01b0316331461146d576040516305e7700560e51b815260040160405180910390fd5b6001600160a01b0382166000908152600f60205260409020546114ae57604051634cbfe6c960e11b81526001600160a01b0383166004820152602401610b61565b6001600160a01b0382166000908152600d60205260409020600781015482106114fc57604051630d12026b60e31b81526001600160a01b038416600482015260248101839052604401610b61565b6006810180549083905560408051828152602081018590526001600160a01b038616917fc6a8c526618a1ece6f5d33564501b92330c354faa23902079359e52c8efd72f391015b60405180910390a250505050565b611559613ecb565b60028054141561157c57604051633ee5aeb560e01b815260040160405180910390fd5b600280556001600160a01b0383166000908152600f602052604090205483906115c3576040516308cfe49560e31b81526001600160a01b0382166004820152602401610b61565b60006115cf858561219a565b9050611628337f00000000000000000000000000000000000000000000000000000000000000006116168460c00151896001600160a01b031661305290919063ffffffff16565b6001600160a01b0389169291906137ac565b61164e3330611616846101600151896001600160a01b031661305290919063ffffffff16565b610cf281613193565b6000546001600160a01b03163314611682576040516305e7700560e51b815260040160405180910390fd5b6001600160a01b0381166116a95760405163604b48b960e11b815260040160405180910390fd5b6001600160a01b0381163014156116d3576040516306b3e95d60e21b815260040160405180910390fd5b600180546001600160a01b0319166001600160a01b0383811691821790925560008054604051929316917fc606c9af1451cadeb333f6ff7b24a5540974f4e800bac274fa7fff9edc305cb19190a350565b6000546001600160a01b0316331461174f576040516305e7700560e51b815260040160405180910390fd5b60085460408051918252602082018390527fd2a3e4f854a80a895407f8743c1363ac14b698c432d22d8c65519e13a9e4983d910160405180910390a1600855565b6002805414156117b357604051633ee5aeb560e01b815260040160405180910390fd5b6002805560006117c16120ad565b905060007f00000000000000000000000000000000000000000000000000000000000000006001600160a01b03166318160ddd6040518163ffffffff1660e01b815260040160206040518083038186803b15801561181e57600080fd5b505afa158015611832573d6000803e3d6000fd5b505050506040513d601f19601f82011682018060405250810190611856919061440a565b905060006118648383614423565b90506000611871826137ea565b9050600061187f8285613802565b9050600a548110156118a4576040516363b74cfb60e01b815260040160405180910390fd5b60008313156119f157604051632770a7eb60e21b8152306004820152602481018390527f00000000000000000000000000000000000000000000000000000000000000006001600160a01b031690639dc29fac90604401600060405180830381600087803b15801561191557600080fd5b505af1925050508015611926575060015b6119ec576040516370a0823160e01b81523060048201526000907f00000000000000000000000000000000000000000000000000000000000000006001600160a01b0316906370a082319060240160206040518083038186803b15801561198c57600080fd5b505afa1580156119a0573d6000803e3d6000fd5b505050506040513d601f19601f820116820180604052508101906119c4919061440a565b90506119d08184614295565b60405163dc14e6f760e01b8152600401610b6191815260200190565b611a72565b6040516340c10f1960e01b8152306004820152602481018390527f00000000000000000000000000000000000000000000000000000000000000006001600160a01b0316906340c10f1990604401600060405180830381600087803b158015611a5957600080fd5b505af1158015611a6d573d6000803e3d6000fd5b505050505b6040518381527fa3cc94864c69eaba081615f691669aa27c9f8697ad249e6c01a4d792b2aace949060200160405180910390a150506001600255505050565b6000546001600160a01b03163314611adc576040516305e7700560e51b815260040160405180910390fd5b60008190507f00000000000000000000000000000000000000000000000000000000000000006001600160a01b0316816001600160a01b03161480611b3857506001600160a01b0381166000908152600f602052604090205415155b15611b605760405162919e6d60e01b81526001600160a01b0383166004820152602401610b61565b6040516370a0823160e01b8152306004820152611c0e907f0000000000000000000000000000000000000000000000000000000000000000906001600160a01b038516906370a082319060240160206040518083038186803b158015611bc557600080fd5b505afa158015611bd9573d6000803e3d6000fd5b505050506040513d601f19601f82011682018060405250810190611bfd919061440a565b6001600160a01b0385169190613103565b5050565b6000546001600160a01b03163314611c3d576040516305e7700560e51b815260040160405180910390fd5b6001600160a01b0382166000908152600f602052604090205415611c7f5760405163ca6d908160e01b81526001600160a01b0383166004820152602401610b61565b6008548110611cb357604051630d12026b60e31b81526001600160a01b038316600482015260248101829052604401610b61565b6000826001600160a01b031663313ce5676040518163ffffffff1660e01b815260040160206040518083038186803b158015611cee57600080fd5b505afa158015611d02573d6000803e3d6000fd5b505050506040513d601f19601f82011682018060405250810190611d26919061447b565b905060ff8116611d545760405163016058a160e51b81526001600160a01b0384166004820152602401610b61565b601260ff82161115611d8d5760405163dbba24db60e01b81526001600160a01b038416600482015260ff82166024820152604401610b61565b611d98600e84613817565b15611f7257604051806101400160405280846001600160a01b031681526020017f00000000000000000000000000000000000000000000000000000000000000006001600160a01b031681526020016004548152602001600554815260200160065481526020016007548152602001838152602001600854815260200160095481526020016000815250600d6000856001600160a01b03166001600160a01b0316815260200190815260200160002060008201518160000160006101000a8154816001600160a01b0302191690836001600160a01b0316021790555060208201518160010160006101000a8154816001600160a01b0302191690836001600160a01b0316021790555060408201518160020155606082015181600301556080820151816004015560a0820151816005015560c0820151816006015560e0820151816007015561010082015181600801556101208201518160090155905050826001600160a01b03167f55dcc5a02a669292f3baba7762915a1182901a9c28a30cc15d3325afcbb4bccc60405160405180910390a26040805160008152602081018490526001600160a01b038516917fc6a8c526618a1ece6f5d33564501b92330c354faa23902079359e52c8efd72f3910160405180910390a25b505050565b611f7f613ecb565b6001600160a01b038084166000908152600d6020908152604091829020825161014081018452815485168152600182015490941691840191909152600281015483830152600381015460608401526004808201546080850152600582015460a0850152600682015460c0850152600782015460e085015260088201546101008501526009909101546101208401529051635751bfb360e11b815273__$5fe12db1329d7e41995fe042c0d943eb24$__9263aea37f66926113f1928791016142ac565b6000546001600160a01b0316331461206c576040516305e7700560e51b815260040160405180910390fd5b600a5460408051918252602082018390527f5eb53b71d73d0607121e658859e0125d7bbbf83c4288d44c18438d4fe94d1e07910160405180910390a1600a55565b6000805b600e5481101561219657612178600d6000600e60000184815481106120d8576120d861427f565b60009182526020808320909101546001600160a01b0390811684528382019490945260409283019091208251610140810184528154851681526001820154909416918401919091526002810154918301919091526003810154606083015260048101546080830152600581015460a0830152600681015460c0830152600781015460e0830152600881015461010083015260090154610120820152613887565b6121829083614267565b91508061218e8161449e565b9150506120b1565b5090565b6121a2613ecb565b6001600160a01b038084166000908152600d6020908152604091829020825161014081018452815485168152600182015490941691840191909152600281015483830152600381015460608401526004808201546080850152600582015460a0850152600682015460c0850152600782015460e08501526008820154610100850152600990910154610120840152905163719eae4d60e11b815273__$5fe12db1329d7e41995fe042c0d943eb24$__9263e33d5c9a926113f1928791016142ac565b6000546001600160a01b0316331461228f576040516305e7700560e51b815260040160405180910390fd5b6001600160a01b0381166000908152600f60205260409020546122d057604051634cbfe6c960e11b81526001600160a01b0382166004820152602401610b61565b6122db600e8261391e565b15612371576001600160a01b0381166000818152600d602052604080822080546001600160a01b03199081168255600182018054909116905560028101839055600381018390556004810183905560058101839055600681018390556007810183905560088101839055600901829055517f6d08717837ebdfd34a4ddffe3e4566e0a68e8dde2464854e9242a8f7e6399a339190a25b50565b600e546060908067ffffffffffffffff811115612393576123936142c9565b60405190808252806020026020018201604052801561242c57816020015b61241960405180610140016040528060006001600160a01b0316815260200160006001600160a01b0316815260200160008152602001600081526020016000815260200160008152602001600081526020016000815260200160008152602001600081525090565b8152602001906001900390816123b15790505b50915060005b8181101561252157600d6000600e60000183815481106124545761245461427f565b60009182526020808320909101546001600160a01b0390811684528382019490945260409283019091208251610140810184528154851681526001820154909416918401919091526002810154918301919091526003810154606083015260048101546080830152600581015460a0830152600681015460c0830152600781015460e083015260088101546101008301526009015461012082015283518490839081106125035761250361427f565b602002602001018190525080806125199061449e565b915050612432565b505090565b60028054141561254957604051633ee5aeb560e01b815260040160405180910390fd5b60028055600b548190811015806125875750600b818154811061256e5761256e61427f565b600091825260209091206001600c90920201015460ff16155b156125a8576040516372c4e6fd60e01b815260048101829052602401610b61565b8160026125b482612cf9565b60028111156125c5576125c56141e7565b14156125e757604051633d240fc360e01b815260048101829052602401610b61565b7f00000000000000000000000000000000000000000000000000000000000000006001600160a01b0316600b84815481106126245761262461427f565b600091825260209091206002600c9092020101546001600160a01b03161461266257604051635d64f43b60e01b815260048101849052602401610b61565b7f00000000000000000000000000000000000000000000000000000000000000006001600160a01b031663d0e30db0346040518263ffffffff1660e01b81526004016000604051808303818588803b1580156126bd57600080fd5b505af11580156126d1573d6000803e3d6000fd5b50505050506126e08334613a57565b5050600160025550565b60028054141561270d57604051633ee5aeb560e01b815260040160405180910390fd5b60028055600b5482908110158061274b5750600b81815481106127325761273261427f565b600091825260209091206001600c90920201015460ff16155b1561276c576040516372c4e6fd60e01b815260048101829052602401610b61565b82600261277882612cf9565b6002811115612789576127896141e7565b14156127ab57604051633d240fc360e01b815260048101829052602401610b61565b826127c957604051631d23e67d60e21b815260040160405180910390fd5b6000600b85815481106127de576127de61427f565b90600052602060002090600c02019050838160080160008282546128029190614295565b9091555050604051632770a7eb60e21b8152336004820152602481018590527f00000000000000000000000000000000000000000000000000000000000000006001600160a01b031690639dc29fac90604401600060405180830381600087803b15801561286f57600080fd5b505af1158015612883573d6000803e3d6000fd5b505042600b84015550506008810154156128d657847f552544cb36551120f07c66c5cd4b2987725a0c72198587f2ce796099bb66c58c856040516128c991815260200190565b60405180910390a2612b1f565b600981015460028201546000916128f6916001600160a01b031690613052565b60098084015460028501546001600160a01b03166000908152600d6020526040812090920180549394509092909190612930908490614295565b9091555050600060098301556005820154604051632770a7eb60e21b815230600482015260248101919091527f00000000000000000000000000000000000000000000000000000000000000006001600160a01b031690639dc29fac90604401600060405180830381600087803b1580156129aa57600080fd5b505af11580156129be573d6000803e3d6000fd5b50505060018301805460ff191690555060405186907f33a382daad6aace935340a474d09fec82af4bec7e2b69518d283231b03a65f2490600090a26002820154600160a01b900460ff16612a385760018201546002830154612a33916001600160a01b03918216916101009091041683613103565b612b1d565b604051632e1a7d4d60e01b8152600481018290527f00000000000000000000000000000000000000000000000000000000000000006001600160a01b031690632e1a7d4d90602401600060405180830381600087803b158015612a9a57600080fd5b505af1158015612aae573d6000803e3d6000fd5b50506040516000925033915083908381818185875af1925050503d8060008114612af4576040519150601f19603f3d011682016040523d82523d6000602084013e612af9565b606091505b5050905080612b1b57604051638762150d60e01b815260040160405180910390fd5b505b505b50506001600255505050565b6001600160a01b0381166000908152600c60205260409020546060908067ffffffffffffffff811115612b6057612b606142c9565b604051908082528060200260200182016040528015612b9957816020015b612b86613ecb565b815260200190600190039081612b7e5790505b50915060005b81811015612cf2576001600160a01b0384166000908152600c602052604090208054600b919083908110612bd557612bd561427f565b906000526020600020015481548110612bf057612bf061427f565b6000918252602091829020604080516101c081018252600c90930290910180548352600181015460ff8082161515958501959095526001600160a01b036101009182900481169385019390935260028201548084166060860152600160a01b900490941615156080840152600381015490911660a0830152600481015460c0830152600581015460e0830152600681015492820192909252600782015461012082015260088201546101408201526009820154610160820152600a820154610180820152600b909101546101a08201528351849083908110612cd457612cd461427f565b60200260200101819052508080612cea9061449e565b915050612b9f565b5050919050565b600080612d0583610d00565b9050600954811015612d2957600854811015612d22576000610df1565b6001610df1565b60029392505050565b6000546001600160a01b03163314612d5d576040516305e7700560e51b815260040160405180910390fd5b670de0b6b3a764000081612d718486614267565b612d7b9190614267565b14612daa5760405163245c170760e21b8152600481018490526024810183905260448101829052606401610b61565b600554600654600754604080519384526020840187905283019190915260608201849052608082015260a081018290527f1f7068a9be898db6fcd350ac2ff32fc5f1e6fc46c8e6cc973cde53793ff3ab5e9060c00160405180910390a1600592909255600655600755565b600b8181548110612e2557600080fd5b60009182526020909120600c9091020180546001820154600283015460038401546004850154600586015460068701546007880154600889015460098a0154600a8b0154600b909b0154999b5060ff808a169b610100909a046001600160a01b039081169b818b169b600160a01b909b0490921699981697908e565b600280541415612ec457604051633ee5aeb560e01b815260040160405180910390fd5b60028055600b54829081101580612f025750600b8181548110612ee957612ee961427f565b600091825260209091206001600c90920201015460ff16155b15612f23576040516372c4e6fd60e01b815260048101829052602401610b61565b826002612f2f82612cf9565b6002811115612f4057612f406141e7565b1415612f6257604051633d240fc360e01b815260048101829052602401610b61565b612fa0333085600b8881548110612f7b57612f7b61427f565b600091825260209091206002600c9092020101546001600160a01b03169291906137ac565b612faa8484613a57565b505060016002555050565b600c6020528160005260406000208181548110612fd157600080fd5b90600052602060002001600091509150505481565b6000546001600160a01b03163314613011576040516305e7700560e51b815260040160405180910390fd5b60045460408051918252602082018390527fde9fa07b6ca9d540214c05366e57cb33adf8f132014d9d1b2802a5b89a99512a910160405180910390a1600455565b600080836001600160a01b031663313ce5676040518163ffffffff1660e01b815260040160206040518083038186803b15801561308e57600080fd5b505afa1580156130a2573d6000803e3d6000fd5b505050506040513d601f19601f820116820180604052508101906130c6919061447b565b6130d19060126144b9565b6130dc90600a6145c0565b9050806001146130f8576130f081846145cf565b9150506130fd565b829150505b92915050565b6040516001600160a01b038316602482015260448101829052611f7290849063a9059cbb60e01b906064015b60408051601f198184030181529190526020810180517bffffffffffffffffffffffffffffffffffffffffffffffffffffffff167fffffffff0000000000000000000000000000000000000000000000000000000090931692909217909152613b3c565b61319b613ecb565b6101408201516131be576040516379d1504360e01b815260040160405180910390fd5b60035482610140015110156131e657604051631efe3f1960e11b815260040160405180910390fd5b60e08201516040516340c10f1960e01b815230600482015260248101919091527f00000000000000000000000000000000000000000000000000000000000000006001600160a01b0316906340c10f1990604401600060405180830381600087803b15801561325457600080fd5b505af1158015613268573d6000803e3d6000fd5b505050506101008201516040516340c10f1960e01b81526001600160a01b037f00000000000000000000000000000000000000000000000000000000000000008116600483015260248201929092527f0000000000000000000000000000000000000000000000000000000000000000909116906340c10f1990604401600060405180830381600087803b1580156132ff57600080fd5b505af1158015613313573d6000803e3d6000fd5b505050506101208201516040516340c10f1960e01b81526001600160a01b037f00000000000000000000000000000000000000000000000000000000000000008116600483015260248201929092527f0000000000000000000000000000000000000000000000000000000000000000909116906340c10f1990604401600060405180830381600087803b1580156133aa57600080fd5b505af11580156133be573d6000803e3d6000fd5b5050505060408281015161014084015191516340c10f1960e01b81526001600160a01b03918216600482015260248101929092527f000000000000000000000000000000000000000000000000000000000000000016906340c10f1990604401600060405180830381600087803b15801561343857600080fd5b505af115801561344c573d6000803e3d6000fd5b505050506000600b80549050905080836000018181525050600b8390806001815401808255809150506001900390600052602060002090600c02016000909190919091506000820151816000015560208201518160010160006101000a81548160ff02191690831515021790555060408201518160010160016101000a8154816001600160a01b0302191690836001600160a01b0316021790555060608201518160020160006101000a8154816001600160a01b0302191690836001600160a01b0316021790555060808201518160020160146101000a81548160ff02191690831515021790555060a08201518160030160006101000a8154816001600160a01b0302191690836001600160a01b0316021790555060c0820151816004015560e08201518160050155610100820151816006015561012082015181600701556101408201518160080155610160820151816009015561018082015181600a01556101a082015181600b01555050600c600084604001516001600160a01b03166001600160a01b03168152602001908152602001600020819080600181540180825580915050600190039060005260206000200160009091909190915055826101600151600d600085606001516001600160a01b03166001600160a01b03168152602001908152602001600020600901600082825461364a9190614267565b90915550506060838101516040808601516101408701516101608801516001600160a01b039485166000818152600d6020908152908690206006015486519485529084019290925293820152919392169184917f1c719a9a8ef2d44db7255e8d65b4a18a23f44758d6ebc0d6b80fe018d25433fb910160405180910390a45090919050565b6000816101400151600014156136e757506000919050565b6101608201516136fa5750600019919050565b6130fd61370683613712565b61014084015190613802565b60a08101516060820151604051630787c49960e21b81526001600160a01b03918216600482015260009283921690631e1f12649060240160206040518083038186803b15801561376157600080fd5b505afa158015613775573d6000803e3d6000fd5b505050506040513d601f19601f82011682018060405250810190613799919061440a565b610160840151909150610df19082613bc6565b6040516001600160a01b03808516602483015283166044820152606481018290526137e49085906323b872dd60e01b9060840161312f565b50505050565b600080821215612196576137fd826145f1565b6130fd565b6000610df183670de0b6b3a764000084613c96565b6001600160a01b03811660009081526001830160205260408120541561383f575060006130fd565b508154600180820184556000848152602080822090930180546001600160a01b0319166001600160a01b03959095169485179055845493815293810190915260409092205590565b60208101518151604051630787c49960e21b81526001600160a01b03918216600482015260009283921690631e1f12649060240160206040518083038186803b1580156138d357600080fd5b505afa1580156138e7573d6000803e3d6000fd5b505050506040513d601f19601f8201168201806040525081019061390b919061440a565b610120840151909150610df19082613bc6565b6001600160a01b0381166000908152600183016020526040812054806139485760009150506130fd565b6000613955600183614295565b905060006001613963875490565b61396d9190614295565b90508082146139f957600086600001828154811061398d5761398d61427f565b60009182526020909120015487546001600160a01b03909116915081908890859081106139bc576139bc61427f565b600091825260208083209190910180546001600160a01b0319166001600160a01b0394851617905592909116815260018801909152604090208390555b8554869080613a0a57613a0a61460e565b60008281526020808220830160001990810180546001600160a01b03191690559092019092556001600160a01b038716825260018881019091526040822091909155935050505092915050565b80613a7557604051635491c16d60e01b815260040160405180910390fd5b6000600b8381548110613a8a57613a8a61427f565b6000918252602082206002600c9092020190810154909250613ab5906001600160a01b031684613d51565b905080826009016000828254613acb9190614267565b909155505042600a83015560028201546001600160a01b03166000908152600d602052604081206009018054839290613b05908490614267565b909155505060405181815284907fa3af609bf46297028ce551832669030f9effef2b02606d02cbbcc40fe6b47c5590602001611543565b6040805180820190915260208082527f5361666545524332303a206c6f772d6c6576656c2063616c6c206661696c6564908201528290600090613b8b906001600160a01b038416908590613def565b8051909150156137e45780806020019051810190613ba99190614624565b6137e457604051639b8d506160e01b815260040160405180910390fd5b60008080600019848609848602925082811083820303915050670de0b6b3a76400008110613c185760405163072fa3c960e31b815260048101829052670de0b6b3a76400006024820152604401610b61565b600080670de0b6b3a76400008688099150506706f05b59d3b1ffff811182613c525780670de0b6b3a76400008504019450505050506130fd565b620400008285030493909111909103600160ee1b02919091177faccb18165bd6fe31ae1cf318dc5b51eee0e1ba569b88cd74c1773b91fac106690201905092915050565b60008080600019858709858702925082811083820303915050838110613cd95760405163072fa3c960e31b81526004810182905260248101859052604401610b61565b80613ce957508290049050610df1565b600084868809600260036001881981018916988990049182028318808302840302808302840302808302840302808302840302808302840302918202909203026000889003889004909101858311909403939093029303949094049190911702949350505050565b600080836001600160a01b031663313ce5676040518163ffffffff1660e01b815260040160206040518083038186803b158015613d8d57600080fd5b505afa158015613da1573d6000803e3d6000fd5b505050506040513d601f19601f82011682018060405250810190613dc5919061447b565b613dd09060126144b9565b613ddb90600a6145c0565b9050806001146130f8576130f0818461463f565b6060833b613e1b5760405163dc5dd7fd60e01b81526001600160a01b0385166004820152602401610b61565b600080856001600160a01b031685604051613e36919061468a565b6000604051808303816000865af19150503d8060008114613e73576040519150601f19603f3d011682016040523d82523d6000602084013e613e78565b606091505b5091509150613e88828286613e92565b9695505050505050565b60608315613ea1575081610df1565b825115613eb15782518060208501fd5b8160405162461bcd60e51b8152600401610b6191906146a6565b604051806101c001604052806000815260200160001515815260200160006001600160a01b0316815260200160006001600160a01b0316815260200160001515815260200160006001600160a01b0316815260200160008152602001600081526020016000815260200160008152602001600081526020016000815260200160008152602001600081525090565b600060208284031215613f6b57600080fd5b5035919050565b805182526020810151613f89602084018215159052565b506040810151613fa460408401826001600160a01b03169052565b506060810151613fbf60608401826001600160a01b03169052565b506080810151613fd3608084018215159052565b5060a0810151613fee60a08401826001600160a01b03169052565b5060c0818101519083015260e08082015190830152610100808201519083015261012080820151908301526101408082015190830152610160808201519083015261018080820151908301526101a090810151910152565b6101c081016130fd8284613f72565b6001600160a01b038116811461237157600080fd5b6000806040838503121561407d57600080fd5b823561408881614055565b946020939093013593505050565b6000602082840312156140a857600080fd5b8135610df181614055565b80516001600160a01b0316825260208101516140da60208401826001600160a01b03169052565b5060408101516040830152606081015160608301526080810151608083015260a081015160a083015260c081015160c083015260e081015160e08301526101008082015181840152506101208082015181840152505050565b6020808252825182820181905260009190848201906040850190845b81811015614176576141628385516140b3565b92840192610140929092019160010161414f565b50909695505050505050565b6000806040838503121561419557600080fd5b50508035926020909101359150565b6020808252825182820181905260009190848201906040850190845b81811015614176576141d3838551613f72565b928401926101c092909201916001016141c0565b634e487b7160e01b600052602160045260246000fd5b602081016003831061421f57634e487b7160e01b600052602160045260246000fd5b91905290565b60008060006060848603121561423a57600080fd5b505081359360208301359350604090920135919050565b634e487b7160e01b600052601160045260246000fd5b6000821982111561427a5761427a614251565b500190565b634e487b7160e01b600052603260045260246000fd5b6000828210156142a7576142a7614251565b500390565b61016081016142bb82856140b3565b826101408301529392505050565b634e487b7160e01b600052604160045260246000fd5b6040516101c0810167ffffffffffffffff8111828210171561431157634e487b7160e01b600052604160045260246000fd5b60405290565b8051801515811461432757600080fd5b919050565b805161432781614055565b60006101c0828403121561434a57600080fd5b6143526142df565b8251815261436260208401614317565b60208201526143736040840161432c565b60408201526143846060840161432c565b606082015261439560808401614317565b60808201526143a660a0840161432c565b60a082015260c0838101519082015260e08084015190820152610100808401519082015261012080840151908201526101408084015190820152610160808401519082015261018080840151908201526101a0928301519281019290925250919050565b60006020828403121561441c57600080fd5b5051919050565b60008083128015600160ff1b85018412161561444157614441614251565b837f7fffffffffffffffffffffffffffffffffffffffffffffffffffffffffffffff01831381161561447557614475614251565b50500390565b60006020828403121561448d57600080fd5b815160ff81168114610df157600080fd5b60006000198214156144b2576144b2614251565b5060010190565b600060ff821660ff8416808210156144d3576144d3614251565b90039392505050565b600181815b808511156145175781600019048211156144fd576144fd614251565b8085161561450a57918102915b93841c93908002906144e1565b509250929050565b60008261452e575060016130fd565b8161453b575060006130fd565b8160018114614551576002811461455b57614577565b60019150506130fd565b60ff84111561456c5761456c614251565b50506001821b6130fd565b5060208310610133831016604e8410600b841016171561459a575081810a6130fd565b6145a483836144dc565b80600019048211156145b8576145b8614251565b029392505050565b6000610df160ff84168361451f565b6000826145ec57634e487b7160e01b600052601260045260246000fd5b500490565b6000600160ff1b82141561460757614607614251565b5060000390565b634e487b7160e01b600052603160045260246000fd5b60006020828403121561463657600080fd5b610df182614317565b600081600019048311821515161561465957614659614251565b500290565b60005b83811015614679578181015183820152602001614661565b838111156137e45750506000910152565b6000825161469c81846020870161465e565b9190910192915050565b60208152600082518060208401526146c581604085016020870161465e565b601f01601f1916919091016040019291505056fea164736f6c6343000809000a",
  "libraries": {
    "AmountNormalization": "0xE0EBb2c8E2545A38371ba7beb5Ff4724c3c148Dc",
    "EnumerableAddressSet": "0xBb5f50577Ef53ba14B834d3AB69d1a73Dd8fC57a",
    "FixedPointMath": "0x8caF0dE4A26Bbcf38c1DDa4FbF3699D3c512a662",
    "Loan": "0x5e8Ea1a357FC60280175DA0007bDd2e6db56Edb5",
    "Math": "0x5338341F2C998A3f46dE614B2CEBb3e50C417DCe",
    "SafeERC20": "0x4242b9535887912767902a8421f522cA0E349475",
    "CollateralToken": "0x5b77C87b2121ef9b0F3F09bfa3fC91AC3737B1c3"
  },
  "devdoc": {
    "author": "Andrey Gulitsky",
    "errors": {
      "BaksDAOBorrowBelowMinimumPrincipalAmount()": [
        {
          "details": "Thrown when trying to borrow below minimum principal amount."
        }
      ],
      "BaksDAOBorrowZeroAmount()": [
        {
          "details": "Thrown when borrowing a zero amount of stablecoin."
        }
      ],
      "BaksDAOCollateralTokenAlreadyListed(address)": [
        {
          "details": "Thrown when trying to list collateral token that's already listed.",
          "params": {
            "token": "The address of the collateral token contract."
          }
        }
      ],
      "BaksDAOCollateralTokenNotListed(address)": [
        {
          "details": "Thrown when trying to unlist collateral token that's not listed.",
          "params": {
            "token": "The address of the collateral token contract."
          }
        }
      ],
      "BaksDAOCollateralTokenTooLargeDecimals(address,uint8)": [
        {
          "details": "Thrown when trying to list collateral token that has too large decimals.",
          "params": {
            "token": "The address of the collateral token contract."
          }
        }
      ],
      "BaksDAOCollateralTokenZeroDecimals(address)": [
        {
          "details": "Thrown when trying to list collateral token that has zero decimals.",
          "params": {
            "token": "The address of the collateral token contract."
          }
        }
      ],
      "BaksDAODepositZeroAmount()": [
        {
          "details": "Thrown when depositing a zero amount of collateral token."
        }
      ],
      "BaksDAOInactiveLoan(uint256)": [
        {
          "details": "Thrown when trying to interact with inactive loan with `id` id.",
          "params": {
            "id": "The loan id."
          }
        }
      ],
      "BaksDAOInitialLoanToValueRatioTooHigh(address,uint256)": [
        {
          "details": "Thrown when trying to set initial loan-to-value ratio that higher than margin call or liquidation ones.",
          "params": {
            "initialLoanToValueRatio": "The initial loan-to-value ratio that was tried to set.",
            "token": "The address of the collateral token contract."
          }
        }
      ],
      "BaksDAOLoanIsSubjectToLiquidation(uint256)": [
        {
          "details": "Thrown when trying to interact with loan with `id` id that is subject to liquidation.",
          "params": {
            "id": "The loan id."
          }
        }
      ],
      "BaksDAOLoanNotSubjectToLiquidation(uint256)": [
        {
          "details": "Thrown when trying to liquidate healthy loan with `id` id.",
          "params": {
            "id": "The loan id."
          }
        }
      ],
      "BaksDAONativeCurrencyCollateralNotAllowed(uint256)": [
        {
          "details": "Thrown when trying to deposit native currency collateral to the non-wrapped native currency token loan with `id` id.",
          "params": {
            "id": "The loan id."
          }
        }
      ],
      "BaksDAONoNeedToRebalance()": [
        {
          "details": "Thrown when there's no need to rebalance the platform."
        }
      ],
      "BaksDAOPlatformFeesDontSumUpToOne(uint256,uint256,uint256)": [
        {
          "details": "Thrown when trying to set platform fees that don't sum up to one.",
          "params": {
            "exchangeFee": "The stabilization fee that was tried to set.",
            "investmentFee": "The stabilization fee that was tried to set.",
            "stabilizationFee": "The stabilization fee that was tried to set."
          }
        }
      ],
      "BaksDAORepayZeroAmount()": [
        {
          "details": "Thrown when repaying a zero amount of stablecoin."
        }
      ],
      "BaksDAOStabilizationFundOutOfFunds(uint256)": [
        {
          "details": "Thrown when trying to rebalance the platform and there is a shortage of funds to burn.",
          "params": {
            "shortage": "Shoratge of funds to burn."
          }
        }
      ],
      "BaksDAOTokenNotAllowedAsCollateral(address)": [
        {
          "details": "Thrown when interacting with a token that's not allowed as collateral.",
          "params": {
            "token": "The address of the collateral token contract."
          }
        }
      ],
      "BaksDAOTokenNotAllowedToBeSalvaged(address)": [
        {
          "details": "Thrown when trying to salvage one of allowed collateral tokens or stablecoin.",
          "params": {
            "token": "The address of the token contract."
          }
        }
      ]
    },
    "kind": "dev",
    "methods": {
      "borrow(address,uint256)": {
        "details": "The caller must have allowed this contract to spend a sufficient amount of collateral tokens to cover initial loan-to-value ratio.",
        "params": {
          "amount": "The amount of stablecoin to borrow and issue.",
          "collateralToken": "The address of the collateral token contract."
        }
      },
      "deposit(uint256,uint256)": {
        "details": "The caller must have allowed this contract to spend `amount` of collateral tokens.",
        "params": {
          "amount": "The amount of collateral token to deposit.",
          "loanId": "The loan id."
        }
      },
      "repay(uint256,uint256)": {
        "params": {
          "amount": "The amount of stablecoin to repay.",
          "loanId": "The loan id."
        }
      }
    },
    "title": "Core smart contract of BaksDAO platform",
    "version": 1
  },
  "userdoc": {
    "kind": "user",
    "methods": {
      "borrow(address,uint256)": {
        "notice": "Increases loan's principal on `collateralToken` collateral token and mints `amount` of stablecoin."
      },
      "borrowInNativeCurrency(uint256)": {
        "notice": "Increases loan's principal on wrapped native currency token and mints stablecoin."
      },
      "deposit(uint256,uint256)": {
        "notice": "Deposits `amount` of collateral token to loan with `id` id."
      },
      "depositInNativeCurrency(uint256)": {
        "notice": "Deposits wrapped native currency token to loan with `id` id."
      },
      "repay(uint256,uint256)": {
        "notice": "Decreases principal of loan with `id` id by `amount` of stablecoin."
      }
    },
    "notice": "You should use this contract to interact with the BaksDAO platform.Only this contract can issue stablecoins.",
    "version": 1
  },
  "storageLayout": {
    "storage": [
      {
        "astId": 4049,
        "contract": "contracts/BaksDAO.sol:BaksDAO",
        "label": "governor",
        "offset": 0,
        "slot": "0",
        "type": "t_address"
      },
      {
        "astId": 4051,
        "contract": "contracts/BaksDAO.sol:BaksDAO",
        "label": "pendingGovernor",
        "offset": 0,
        "slot": "1",
        "type": "t_address"
      },
      {
        "astId": 5652,
        "contract": "contracts/BaksDAO.sol:BaksDAO",
        "label": "status",
        "offset": 0,
        "slot": "2",
        "type": "t_uint256"
      },
      {
        "astId": 250,
        "contract": "contracts/BaksDAO.sol:BaksDAO",
        "label": "minimumPrincipalAmount",
        "offset": 0,
        "slot": "3",
        "type": "t_uint256"
      },
      {
        "astId": 253,
        "contract": "contracts/BaksDAO.sol:BaksDAO",
        "label": "stabilityFee",
        "offset": 0,
        "slot": "4",
        "type": "t_uint256"
      },
      {
        "astId": 256,
        "contract": "contracts/BaksDAO.sol:BaksDAO",
        "label": "stabilizationFee",
        "offset": 0,
        "slot": "5",
        "type": "t_uint256"
      },
      {
        "astId": 259,
        "contract": "contracts/BaksDAO.sol:BaksDAO",
        "label": "exchangeFee",
        "offset": 0,
        "slot": "6",
        "type": "t_uint256"
      },
      {
        "astId": 262,
        "contract": "contracts/BaksDAO.sol:BaksDAO",
        "label": "investmentFee",
        "offset": 0,
        "slot": "7",
        "type": "t_uint256"
      },
      {
        "astId": 265,
        "contract": "contracts/BaksDAO.sol:BaksDAO",
        "label": "marginCallLoanToValueRatio",
        "offset": 0,
        "slot": "8",
        "type": "t_uint256"
      },
      {
        "astId": 268,
        "contract": "contracts/BaksDAO.sol:BaksDAO",
        "label": "liquidationLoanToValueRatio",
        "offset": 0,
        "slot": "9",
        "type": "t_uint256"
      },
      {
        "astId": 271,
        "contract": "contracts/BaksDAO.sol:BaksDAO",
        "label": "rebalancingThreshold",
        "offset": 0,
        "slot": "10",
        "type": "t_uint256"
      },
      {
        "astId": 275,
        "contract": "contracts/BaksDAO.sol:BaksDAO",
        "label": "loans",
        "offset": 0,
        "slot": "11",
        "type": "t_array(t_struct(Data)5474_storage)dyn_storage"
      },
      {
        "astId": 280,
        "contract": "contracts/BaksDAO.sol:BaksDAO",
        "label": "loanIds",
        "offset": 0,
        "slot": "12",
        "type": "t_mapping(t_address,t_array(t_uint256)dyn_storage)"
      },
      {
        "astId": 286,
        "contract": "contracts/BaksDAO.sol:BaksDAO",
        "label": "collateralTokens",
        "offset": 0,
        "slot": "13",
        "type": "t_mapping(t_contract(IERC20)4310,t_struct(Data)4760_storage)"
      },
      {
        "astId": 289,
        "contract": "contracts/BaksDAO.sol:BaksDAO",
        "label": "collateralTokensSet",
        "offset": 0,
        "slot": "14",
        "type": "t_struct(Set)5059_storage"
      }
    ],
    "types": {
      "t_address": {
        "encoding": "inplace",
        "label": "address",
        "numberOfBytes": "20"
      },
      "t_array(t_address)dyn_storage": {
        "base": "t_address",
        "encoding": "dynamic_array",
        "label": "address[]",
        "numberOfBytes": "32"
      },
      "t_array(t_struct(Data)5474_storage)dyn_storage": {
        "base": "t_struct(Data)5474_storage",
        "encoding": "dynamic_array",
        "label": "struct Loan.Data[]",
        "numberOfBytes": "32"
      },
      "t_array(t_uint256)dyn_storage": {
        "base": "t_uint256",
        "encoding": "dynamic_array",
        "label": "uint256[]",
        "numberOfBytes": "32"
      },
      "t_bool": {
        "encoding": "inplace",
        "label": "bool",
        "numberOfBytes": "1"
      },
      "t_contract(IERC20)4310": {
        "encoding": "inplace",
        "label": "contract IERC20",
        "numberOfBytes": "20"
      },
      "t_contract(IPriceOracle)4363": {
        "encoding": "inplace",
        "label": "contract IPriceOracle",
        "numberOfBytes": "20"
      },
      "t_mapping(t_address,t_array(t_uint256)dyn_storage)": {
        "encoding": "mapping",
        "key": "t_address",
        "label": "mapping(address => uint256[])",
        "numberOfBytes": "32",
        "value": "t_array(t_uint256)dyn_storage"
      },
      "t_mapping(t_address,t_uint256)": {
        "encoding": "mapping",
        "key": "t_address",
        "label": "mapping(address => uint256)",
        "numberOfBytes": "32",
        "value": "t_uint256"
      },
      "t_mapping(t_contract(IERC20)4310,t_struct(Data)4760_storage)": {
        "encoding": "mapping",
        "key": "t_contract(IERC20)4310",
        "label": "mapping(contract IERC20 => struct CollateralToken.Data)",
        "numberOfBytes": "32",
        "value": "t_struct(Data)4760_storage"
      },
      "t_struct(Data)4760_storage": {
        "encoding": "inplace",
        "label": "struct CollateralToken.Data",
        "members": [
          {
            "astId": 4740,
            "contract": "contracts/BaksDAO.sol:BaksDAO",
            "label": "collateralToken",
            "offset": 0,
            "slot": "0",
            "type": "t_contract(IERC20)4310"
          },
          {
            "astId": 4743,
            "contract": "contracts/BaksDAO.sol:BaksDAO",
            "label": "priceOracle",
            "offset": 0,
            "slot": "1",
            "type": "t_contract(IPriceOracle)4363"
          },
          {
            "astId": 4745,
            "contract": "contracts/BaksDAO.sol:BaksDAO",
            "label": "stabilityFee",
            "offset": 0,
            "slot": "2",
            "type": "t_uint256"
          },
          {
            "astId": 4747,
            "contract": "contracts/BaksDAO.sol:BaksDAO",
            "label": "stabilizationFee",
            "offset": 0,
            "slot": "3",
            "type": "t_uint256"
          },
          {
            "astId": 4749,
            "contract": "contracts/BaksDAO.sol:BaksDAO",
            "label": "exchangeFee",
            "offset": 0,
            "slot": "4",
            "type": "t_uint256"
          },
          {
            "astId": 4751,
            "contract": "contracts/BaksDAO.sol:BaksDAO",
            "label": "investmentFee",
            "offset": 0,
            "slot": "5",
            "type": "t_uint256"
          },
          {
            "astId": 4753,
            "contract": "contracts/BaksDAO.sol:BaksDAO",
            "label": "initialLoanToValueRatio",
            "offset": 0,
            "slot": "6",
            "type": "t_uint256"
          },
          {
            "astId": 4755,
            "contract": "contracts/BaksDAO.sol:BaksDAO",
            "label": "marginCallLoanToValueRatio",
            "offset": 0,
            "slot": "7",
            "type": "t_uint256"
          },
          {
            "astId": 4757,
            "contract": "contracts/BaksDAO.sol:BaksDAO",
            "label": "liquidationLoanToValueRatio",
            "offset": 0,
            "slot": "8",
            "type": "t_uint256"
          },
          {
            "astId": 4759,
            "contract": "contracts/BaksDAO.sol:BaksDAO",
            "label": "collateralAmount",
            "offset": 0,
            "slot": "9",
            "type": "t_uint256"
          }
        ],
        "numberOfBytes": "320"
      },
      "t_struct(Data)5474_storage": {
        "encoding": "inplace",
        "label": "struct Loan.Data",
        "members": [
          {
            "astId": 5445,
            "contract": "contracts/BaksDAO.sol:BaksDAO",
            "label": "id",
            "offset": 0,
            "slot": "0",
            "type": "t_uint256"
          },
          {
            "astId": 5447,
            "contract": "contracts/BaksDAO.sol:BaksDAO",
            "label": "isActive",
            "offset": 0,
            "slot": "1",
            "type": "t_bool"
          },
          {
            "astId": 5449,
            "contract": "contracts/BaksDAO.sol:BaksDAO",
            "label": "borrower",
            "offset": 1,
            "slot": "1",
            "type": "t_address"
          },
          {
            "astId": 5452,
            "contract": "contracts/BaksDAO.sol:BaksDAO",
            "label": "collateralToken",
            "offset": 0,
            "slot": "2",
            "type": "t_contract(IERC20)4310"
          },
          {
            "astId": 5454,
            "contract": "contracts/BaksDAO.sol:BaksDAO",
            "label": "isNativeCurrency",
            "offset": 20,
            "slot": "2",
            "type": "t_bool"
          },
          {
            "astId": 5457,
            "contract": "contracts/BaksDAO.sol:BaksDAO",
            "label": "priceOracle",
            "offset": 0,
            "slot": "3",
            "type": "t_contract(IPriceOracle)4363"
          },
          {
            "astId": 5459,
            "contract": "contracts/BaksDAO.sol:BaksDAO",
            "label": "stabilityFee",
            "offset": 0,
            "slot": "4",
            "type": "t_uint256"
          },
          {
            "astId": 5461,
            "contract": "contracts/BaksDAO.sol:BaksDAO",
            "label": "stabilizationFee",
            "offset": 0,
            "slot": "5",
            "type": "t_uint256"
          },
          {
            "astId": 5463,
            "contract": "contracts/BaksDAO.sol:BaksDAO",
            "label": "exchangeFee",
            "offset": 0,
            "slot": "6",
            "type": "t_uint256"
          },
          {
            "astId": 5465,
            "contract": "contracts/BaksDAO.sol:BaksDAO",
            "label": "investmentFee",
            "offset": 0,
            "slot": "7",
            "type": "t_uint256"
          },
          {
            "astId": 5467,
            "contract": "contracts/BaksDAO.sol:BaksDAO",
            "label": "principalAmount",
            "offset": 0,
            "slot": "8",
            "type": "t_uint256"
          },
          {
            "astId": 5469,
            "contract": "contracts/BaksDAO.sol:BaksDAO",
            "label": "collateralAmount",
            "offset": 0,
            "slot": "9",
            "type": "t_uint256"
          },
          {
            "astId": 5471,
            "contract": "contracts/BaksDAO.sol:BaksDAO",
            "label": "lastDepositAt",
            "offset": 0,
            "slot": "10",
            "type": "t_uint256"
          },
          {
            "astId": 5473,
            "contract": "contracts/BaksDAO.sol:BaksDAO",
            "label": "lastRepaymentAt",
            "offset": 0,
            "slot": "11",
            "type": "t_uint256"
          }
        ],
        "numberOfBytes": "384"
      },
      "t_struct(Set)5059_storage": {
        "encoding": "inplace",
        "label": "struct EnumerableAddressSet.Set",
        "members": [
          {
            "astId": 5054,
            "contract": "contracts/BaksDAO.sol:BaksDAO",
            "label": "elements",
            "offset": 0,
            "slot": "0",
            "type": "t_array(t_address)dyn_storage"
          },
          {
            "astId": 5058,
            "contract": "contracts/BaksDAO.sol:BaksDAO",
            "label": "indexes",
            "offset": 0,
            "slot": "1",
            "type": "t_mapping(t_address,t_uint256)"
          }
        ],
        "numberOfBytes": "64"
      },
      "t_uint256": {
        "encoding": "inplace",
        "label": "uint256",
        "numberOfBytes": "32"
      }
    }
  }
}