{
  "address": "0x598EF7EED8448580191c6fa4B7Efde7bB4405750",
  "abi": [
    {
      "inputs": [],
      "name": "BaksDAOBorrowBelowMinimumPrincipalAmount",
      "type": "error"
    },
    {
      "inputs": [],
      "name": "BaksDAOBorrowZeroAmount",
      "type": "error"
    },
    {
      "inputs": [
        {
          "internalType": "contract IERC20",
          "name": "token",
          "type": "address"
        }
      ],
      "name": "BaksDAOCollateralTokenAlreadyListed",
      "type": "error"
    },
    {
      "inputs": [
        {
          "internalType": "contract IERC20",
          "name": "token",
          "type": "address"
        }
      ],
      "name": "BaksDAOCollateralTokenNotListed",
      "type": "error"
    },
    {
      "inputs": [
        {
          "internalType": "contract IERC20",
          "name": "token",
          "type": "address"
        },
        {
          "internalType": "uint8",
          "name": "decimals",
          "type": "uint8"
        }
      ],
      "name": "BaksDAOCollateralTokenTooLargeDecimals",
      "type": "error"
    },
    {
      "inputs": [
        {
          "internalType": "contract IERC20",
          "name": "token",
          "type": "address"
        }
      ],
      "name": "BaksDAOCollateralTokenZeroDecimals",
      "type": "error"
    },
    {
      "inputs": [],
      "name": "BaksDAODepositZeroAmount",
      "type": "error"
    },
    {
      "inputs": [
        {
          "internalType": "uint256",
          "name": "id",
          "type": "uint256"
        }
      ],
      "name": "BaksDAOInactiveLoan",
      "type": "error"
    },
    {
      "inputs": [
        {
          "internalType": "contract IERC20",
          "name": "token",
          "type": "address"
        },
        {
          "internalType": "uint256",
          "name": "initialLoanToValueRatio",
          "type": "uint256"
        }
      ],
      "name": "BaksDAOInitialLoanToValueRatioTooHigh",
      "type": "error"
    },
    {
      "inputs": [
        {
          "internalType": "uint256",
          "name": "minimumRequiredSecurityAmount",
          "type": "uint256"
        }
      ],
      "name": "BaksDAOInsufficientSecurityAmount",
      "type": "error"
    },
    {
      "inputs": [
        {
          "internalType": "uint256",
          "name": "id",
          "type": "uint256"
        }
      ],
      "name": "BaksDAOLoanIsSubjectToLiquidation",
      "type": "error"
    },
    {
      "inputs": [
        {
          "internalType": "uint256",
          "name": "id",
          "type": "uint256"
        }
      ],
      "name": "BaksDAOLoanNotSubjectToLiquidation",
      "type": "error"
    },
    {
      "inputs": [
        {
          "internalType": "address",
          "name": "magister",
          "type": "address"
        }
      ],
      "name": "BaksDAOMagisterAlreadyAdded",
      "type": "error"
    },
    {
      "inputs": [
        {
          "internalType": "uint256",
          "name": "id",
          "type": "uint256"
        }
      ],
      "name": "BaksDAONativeCurrencyCollateralNotAllowed",
      "type": "error"
    },
    {
      "inputs": [],
      "name": "BaksDAONativeCurrencyTransferFailed",
      "type": "error"
    },
    {
      "inputs": [],
      "name": "BaksDAONoNeedToRebalance",
      "type": "error"
    },
    {
      "inputs": [],
      "name": "BaksDAOPlainNativeCurrencyTransferNotAllowed",
      "type": "error"
    },
    {
      "inputs": [],
      "name": "BaksDAORepayZeroAmount",
      "type": "error"
    },
    {
      "inputs": [
        {
          "internalType": "uint256",
          "name": "shortage",
          "type": "uint256"
        }
      ],
      "name": "BaksDAOStabilizationFundOutOfFunds",
      "type": "error"
    },
    {
      "inputs": [
        {
          "internalType": "contract IERC20",
          "name": "token",
          "type": "address"
        }
      ],
      "name": "BaksDAOTokenNotAllowedAsCollateral",
      "type": "error"
    },
    {
      "inputs": [
        {
          "internalType": "contract IERC20",
          "name": "token",
          "type": "address"
        }
      ],
      "name": "BaksDAOTokenNotAllowedToBeSalvaged",
      "type": "error"
    },
    {
      "inputs": [
        {
          "internalType": "address",
          "name": "target",
          "type": "address"
        }
      ],
      "name": "CallToNonContract",
      "type": "error"
    },
    {
      "inputs": [],
      "name": "ContractAlreadyInitialized",
      "type": "error"
    },
    {
      "inputs": [
        {
          "internalType": "uint256",
          "name": "prod1",
          "type": "uint256"
        },
        {
          "internalType": "uint256",
          "name": "denominator",
          "type": "uint256"
        }
      ],
      "name": "FixedPointMathMulDivOverflow",
      "type": "error"
    },
    {
      "inputs": [],
      "name": "GovernedCantGoverItself",
      "type": "error"
    },
    {
      "inputs": [],
      "name": "GovernedGovernorZeroAddress",
      "type": "error"
    },
    {
      "inputs": [],
      "name": "GovernedOnlyGovernorAllowedToCall",
      "type": "error"
    },
    {
      "inputs": [],
      "name": "GovernedOnlyPendingGovernorAllowedToCall",
      "type": "error"
    },
    {
      "inputs": [],
      "name": "ReentrancyGuardReentrantCall",
      "type": "error"
    },
    {
      "inputs": [],
      "name": "SafeERC20NoReturnData",
      "type": "error"
    },
    {
      "anonymous": false,
      "inputs": [
        {
          "indexed": true,
          "internalType": "uint256",
          "name": "id",
          "type": "uint256"
        },
        {
          "indexed": true,
          "internalType": "address",
          "name": "borrower",
          "type": "address"
        },
        {
          "indexed": true,
          "internalType": "contract IERC20",
          "name": "token",
          "type": "address"
        },
        {
          "indexed": false,
          "internalType": "uint256",
          "name": "principalAmount",
          "type": "uint256"
        },
        {
          "indexed": false,
          "internalType": "uint256",
          "name": "collateralAmount",
          "type": "uint256"
        },
        {
          "indexed": false,
          "internalType": "uint256",
          "name": "initialLoanToValueRatio",
          "type": "uint256"
        }
      ],
      "name": "Borrow",
      "type": "event"
    },
    {
      "anonymous": false,
      "inputs": [
        {
          "indexed": true,
          "internalType": "contract IERC20",
          "name": "token",
          "type": "address"
        }
      ],
      "name": "CollateralTokenListed",
      "type": "event"
    },
    {
      "anonymous": false,
      "inputs": [
        {
          "indexed": true,
          "internalType": "contract IERC20",
          "name": "token",
          "type": "address"
        }
      ],
      "name": "CollateralTokenUnlisted",
      "type": "event"
    },
    {
      "anonymous": false,
      "inputs": [
        {
          "indexed": true,
          "internalType": "uint256",
          "name": "id",
          "type": "uint256"
        },
        {
          "indexed": false,
          "internalType": "uint256",
          "name": "collateralAmount",
          "type": "uint256"
        }
      ],
      "name": "Deposit",
      "type": "event"
    },
    {
      "anonymous": false,
      "inputs": [
        {
          "indexed": true,
          "internalType": "address",
          "name": "governor",
          "type": "address"
        },
        {
          "indexed": true,
          "internalType": "address",
          "name": "newGovernor",
          "type": "address"
        }
      ],
      "name": "GovernanceTransited",
      "type": "event"
    },
    {
      "anonymous": false,
      "inputs": [
        {
          "indexed": true,
          "internalType": "contract IERC20",
          "name": "token",
          "type": "address"
        },
        {
          "indexed": false,
          "internalType": "uint256",
          "name": "initialLoanToValueRatio",
          "type": "uint256"
        },
        {
          "indexed": false,
          "internalType": "uint256",
          "name": "newInitialLoanToValueRatio",
          "type": "uint256"
        }
      ],
      "name": "InitialLoanToValueRatioUpdated",
      "type": "event"
    },
    {
      "anonymous": false,
      "inputs": [
        {
          "indexed": true,
          "internalType": "uint256",
          "name": "id",
          "type": "uint256"
        }
      ],
      "name": "Liquidated",
      "type": "event"
    },
    {
      "anonymous": false,
      "inputs": [
        {
          "indexed": true,
          "internalType": "address",
          "name": "magister",
          "type": "address"
        }
      ],
      "name": "MagisterAdded",
      "type": "event"
    },
    {
      "anonymous": false,
      "inputs": [
        {
          "indexed": true,
          "internalType": "address",
          "name": "magister",
          "type": "address"
        }
      ],
      "name": "MagisterRemoved",
      "type": "event"
    },
    {
      "anonymous": false,
      "inputs": [
        {
          "indexed": true,
          "internalType": "address",
          "name": "governor",
          "type": "address"
        },
        {
          "indexed": true,
          "internalType": "address",
          "name": "newGovernor",
          "type": "address"
        }
      ],
      "name": "PendingGovernanceTransition",
      "type": "event"
    },
    {
      "anonymous": false,
      "inputs": [
        {
          "indexed": false,
          "internalType": "int256",
          "name": "delta",
          "type": "int256"
        }
      ],
      "name": "Rebalance",
      "type": "event"
    },
    {
      "anonymous": false,
      "inputs": [
        {
          "indexed": true,
          "internalType": "uint256",
          "name": "id",
          "type": "uint256"
        }
      ],
      "name": "Repaid",
      "type": "event"
    },
    {
      "anonymous": false,
      "inputs": [
        {
          "indexed": true,
          "internalType": "uint256",
          "name": "id",
          "type": "uint256"
        },
        {
          "indexed": false,
          "internalType": "uint256",
          "name": "principalAmount",
          "type": "uint256"
        }
      ],
      "name": "Repay",
      "type": "event"
    },
    {
      "inputs": [],
      "name": "acceptGovernance",
      "outputs": [],
      "stateMutability": "nonpayable",
      "type": "function"
    },
    {
      "inputs": [
        {
          "internalType": "address",
          "name": "magister",
          "type": "address"
        }
      ],
      "name": "addMagister",
      "outputs": [],
      "stateMutability": "nonpayable",
      "type": "function"
    },
    {
      "inputs": [
        {
          "internalType": "contract IERC20",
          "name": "collateralToken",
          "type": "address"
        },
        {
          "internalType": "uint256",
          "name": "amount",
          "type": "uint256"
        }
      ],
      "name": "borrow",
      "outputs": [
        {
          "components": [
            {
              "internalType": "uint256",
              "name": "id",
              "type": "uint256"
            },
            {
              "internalType": "bool",
              "name": "isActive",
              "type": "bool"
            },
            {
              "internalType": "address",
              "name": "borrower",
              "type": "address"
            },
            {
              "internalType": "contract IERC20",
              "name": "collateralToken",
              "type": "address"
            },
            {
              "internalType": "bool",
              "name": "isNativeCurrency",
              "type": "bool"
            },
            {
              "internalType": "contract IPriceOracle",
              "name": "priceOracle",
              "type": "address"
            },
            {
              "internalType": "uint256",
              "name": "stabilityFee",
              "type": "uint256"
            },
            {
              "internalType": "uint256",
              "name": "stabilizationFee",
              "type": "uint256"
            },
            {
              "internalType": "uint256",
              "name": "exchangeFee",
              "type": "uint256"
            },
            {
              "internalType": "uint256",
              "name": "developmentFee",
              "type": "uint256"
            },
            {
              "internalType": "uint256",
              "name": "principalAmount",
              "type": "uint256"
            },
            {
              "internalType": "uint256",
              "name": "collateralAmount",
              "type": "uint256"
            },
            {
              "internalType": "uint256",
              "name": "lastDepositAt",
              "type": "uint256"
            },
            {
              "internalType": "uint256",
              "name": "lastRepaymentAt",
              "type": "uint256"
            }
          ],
          "internalType": "struct Loan.Data",
          "name": "",
          "type": "tuple"
        }
      ],
      "stateMutability": "nonpayable",
      "type": "function"
    },
    {
      "inputs": [
        {
          "internalType": "uint256",
          "name": "amount",
          "type": "uint256"
        }
      ],
      "name": "borrowInNativeCurrency",
      "outputs": [
        {
          "components": [
            {
              "internalType": "uint256",
              "name": "id",
              "type": "uint256"
            },
            {
              "internalType": "bool",
              "name": "isActive",
              "type": "bool"
            },
            {
              "internalType": "address",
              "name": "borrower",
              "type": "address"
            },
            {
              "internalType": "contract IERC20",
              "name": "collateralToken",
              "type": "address"
            },
            {
              "internalType": "bool",
              "name": "isNativeCurrency",
              "type": "bool"
            },
            {
              "internalType": "contract IPriceOracle",
              "name": "priceOracle",
              "type": "address"
            },
            {
              "internalType": "uint256",
              "name": "stabilityFee",
              "type": "uint256"
            },
            {
              "internalType": "uint256",
              "name": "stabilizationFee",
              "type": "uint256"
            },
            {
              "internalType": "uint256",
              "name": "exchangeFee",
              "type": "uint256"
            },
            {
              "internalType": "uint256",
              "name": "developmentFee",
              "type": "uint256"
            },
            {
              "internalType": "uint256",
              "name": "principalAmount",
              "type": "uint256"
            },
            {
              "internalType": "uint256",
              "name": "collateralAmount",
              "type": "uint256"
            },
            {
              "internalType": "uint256",
              "name": "lastDepositAt",
              "type": "uint256"
            },
            {
              "internalType": "uint256",
              "name": "lastRepaymentAt",
              "type": "uint256"
            }
          ],
          "internalType": "struct Loan.Data",
          "name": "",
          "type": "tuple"
        }
      ],
      "stateMutability": "payable",
      "type": "function"
    },
    {
      "inputs": [
        {
          "internalType": "contract IERC20",
          "name": "collateralToken",
          "type": "address"
        },
        {
          "internalType": "uint256",
          "name": "collateralAmount",
          "type": "uint256"
        }
      ],
      "name": "calculateLoanByCollateralAmount",
      "outputs": [
        {
          "components": [
            {
              "internalType": "uint256",
              "name": "id",
              "type": "uint256"
            },
            {
              "internalType": "bool",
              "name": "isActive",
              "type": "bool"
            },
            {
              "internalType": "address",
              "name": "borrower",
              "type": "address"
            },
            {
              "internalType": "contract IERC20",
              "name": "collateralToken",
              "type": "address"
            },
            {
              "internalType": "bool",
              "name": "isNativeCurrency",
              "type": "bool"
            },
            {
              "internalType": "contract IPriceOracle",
              "name": "priceOracle",
              "type": "address"
            },
            {
              "internalType": "uint256",
              "name": "stabilityFee",
              "type": "uint256"
            },
            {
              "internalType": "uint256",
              "name": "stabilizationFee",
              "type": "uint256"
            },
            {
              "internalType": "uint256",
              "name": "exchangeFee",
              "type": "uint256"
            },
            {
              "internalType": "uint256",
              "name": "developmentFee",
              "type": "uint256"
            },
            {
              "internalType": "uint256",
              "name": "principalAmount",
              "type": "uint256"
            },
            {
              "internalType": "uint256",
              "name": "collateralAmount",
              "type": "uint256"
            },
            {
              "internalType": "uint256",
              "name": "lastDepositAt",
              "type": "uint256"
            },
            {
              "internalType": "uint256",
              "name": "lastRepaymentAt",
              "type": "uint256"
            }
          ],
          "internalType": "struct Loan.Data",
          "name": "loan",
          "type": "tuple"
        }
      ],
      "stateMutability": "view",
      "type": "function"
    },
    {
      "inputs": [
        {
          "internalType": "contract IERC20",
          "name": "collateralToken",
          "type": "address"
        },
        {
          "internalType": "uint256",
          "name": "principalAmount",
          "type": "uint256"
        }
      ],
      "name": "calculateLoanByPrincipalAmount",
      "outputs": [
        {
          "components": [
            {
              "internalType": "uint256",
              "name": "id",
              "type": "uint256"
            },
            {
              "internalType": "bool",
              "name": "isActive",
              "type": "bool"
            },
            {
              "internalType": "address",
              "name": "borrower",
              "type": "address"
            },
            {
              "internalType": "contract IERC20",
              "name": "collateralToken",
              "type": "address"
            },
            {
              "internalType": "bool",
              "name": "isNativeCurrency",
              "type": "bool"
            },
            {
              "internalType": "contract IPriceOracle",
              "name": "priceOracle",
              "type": "address"
            },
            {
              "internalType": "uint256",
              "name": "stabilityFee",
              "type": "uint256"
            },
            {
              "internalType": "uint256",
              "name": "stabilizationFee",
              "type": "uint256"
            },
            {
              "internalType": "uint256",
              "name": "exchangeFee",
              "type": "uint256"
            },
            {
              "internalType": "uint256",
              "name": "developmentFee",
              "type": "uint256"
            },
            {
              "internalType": "uint256",
              "name": "principalAmount",
              "type": "uint256"
            },
            {
              "internalType": "uint256",
              "name": "collateralAmount",
              "type": "uint256"
            },
            {
              "internalType": "uint256",
              "name": "lastDepositAt",
              "type": "uint256"
            },
            {
              "internalType": "uint256",
              "name": "lastRepaymentAt",
              "type": "uint256"
            }
          ],
          "internalType": "struct Loan.Data",
          "name": "loan",
          "type": "tuple"
        }
      ],
      "stateMutability": "view",
      "type": "function"
    },
    {
      "inputs": [
        {
          "internalType": "contract IERC20",
          "name": "collateralToken",
          "type": "address"
        },
        {
          "internalType": "uint256",
          "name": "securityAmount",
          "type": "uint256"
        }
      ],
      "name": "calculateLoanBySecurityAmount",
      "outputs": [
        {
          "components": [
            {
              "internalType": "uint256",
              "name": "id",
              "type": "uint256"
            },
            {
              "internalType": "bool",
              "name": "isActive",
              "type": "bool"
            },
            {
              "internalType": "address",
              "name": "borrower",
              "type": "address"
            },
            {
              "internalType": "contract IERC20",
              "name": "collateralToken",
              "type": "address"
            },
            {
              "internalType": "bool",
              "name": "isNativeCurrency",
              "type": "bool"
            },
            {
              "internalType": "contract IPriceOracle",
              "name": "priceOracle",
              "type": "address"
            },
            {
              "internalType": "uint256",
              "name": "stabilityFee",
              "type": "uint256"
            },
            {
              "internalType": "uint256",
              "name": "stabilizationFee",
              "type": "uint256"
            },
            {
              "internalType": "uint256",
              "name": "exchangeFee",
              "type": "uint256"
            },
            {
              "internalType": "uint256",
              "name": "developmentFee",
              "type": "uint256"
            },
            {
              "internalType": "uint256",
              "name": "principalAmount",
              "type": "uint256"
            },
            {
              "internalType": "uint256",
              "name": "collateralAmount",
              "type": "uint256"
            },
            {
              "internalType": "uint256",
              "name": "lastDepositAt",
              "type": "uint256"
            },
            {
              "internalType": "uint256",
              "name": "lastRepaymentAt",
              "type": "uint256"
            }
          ],
          "internalType": "struct Loan.Data",
          "name": "loan",
          "type": "tuple"
        }
      ],
      "stateMutability": "view",
      "type": "function"
    },
    {
      "inputs": [
        {
          "internalType": "uint256",
          "name": "loanId",
          "type": "uint256"
        }
      ],
      "name": "checkHealth",
      "outputs": [
        {
          "internalType": "enum Bank.Health",
          "name": "health",
          "type": "uint8"
        }
      ],
      "stateMutability": "view",
      "type": "function"
    },
    {
      "inputs": [
        {
          "internalType": "contract IERC20",
          "name": "",
          "type": "address"
        }
      ],
      "name": "collateralTokens",
      "outputs": [
        {
          "internalType": "contract IERC20",
          "name": "collateralToken",
          "type": "address"
        },
        {
          "internalType": "contract IPriceOracle",
          "name": "priceOracle",
          "type": "address"
        },
        {
          "internalType": "uint256",
          "name": "stabilityFee",
          "type": "uint256"
        },
        {
          "internalType": "uint256",
          "name": "stabilizationFee",
          "type": "uint256"
        },
        {
          "internalType": "uint256",
          "name": "exchangeFee",
          "type": "uint256"
        },
        {
          "internalType": "uint256",
          "name": "developmentFee",
          "type": "uint256"
        },
        {
          "internalType": "uint256",
          "name": "initialLoanToValueRatio",
          "type": "uint256"
        },
        {
          "internalType": "uint256",
          "name": "marginCallLoanToValueRatio",
          "type": "uint256"
        },
        {
          "internalType": "uint256",
          "name": "liquidationLoanToValueRatio",
          "type": "uint256"
        },
        {
          "internalType": "uint256",
          "name": "collateralAmount",
          "type": "uint256"
        }
      ],
      "stateMutability": "view",
      "type": "function"
    },
    {
      "inputs": [],
      "name": "core",
      "outputs": [
        {
          "internalType": "contract ICore",
          "name": "",
          "type": "address"
        }
      ],
      "stateMutability": "view",
      "type": "function"
    },
    {
      "inputs": [
        {
          "internalType": "uint256",
          "name": "loanId",
          "type": "uint256"
        },
        {
          "internalType": "uint256",
          "name": "amount",
          "type": "uint256"
        }
      ],
      "name": "deposit",
      "outputs": [],
      "stateMutability": "nonpayable",
      "type": "function"
    },
    {
      "inputs": [
        {
          "internalType": "uint256",
          "name": "loanId",
          "type": "uint256"
        }
      ],
      "name": "depositInNativeCurrency",
      "outputs": [],
      "stateMutability": "payable",
      "type": "function"
    },
    {
      "inputs": [],
      "name": "developmentFund",
      "outputs": [
        {
          "internalType": "address",
          "name": "",
          "type": "address"
        }
      ],
      "stateMutability": "view",
      "type": "function"
    },
    {
      "inputs": [],
      "name": "exchangeFund",
      "outputs": [
        {
          "internalType": "address",
          "name": "",
          "type": "address"
        }
      ],
      "stateMutability": "view",
      "type": "function"
    },
    {
      "inputs": [],
      "name": "getActiveMagisters",
      "outputs": [
        {
          "components": [
            {
              "internalType": "bool",
              "name": "isActive",
              "type": "bool"
            },
            {
              "internalType": "uint256",
              "name": "createdAt",
              "type": "uint256"
            },
            {
              "internalType": "address",
              "name": "addr",
              "type": "address"
            }
          ],
          "internalType": "struct Bank.Magister[]",
          "name": "activeMagisters",
          "type": "tuple[]"
        }
      ],
      "stateMutability": "view",
      "type": "function"
    },
    {
      "inputs": [],
      "name": "getAllowedCollateralTokens",
      "outputs": [
        {
          "components": [
            {
              "internalType": "contract IERC20",
              "name": "collateralToken",
              "type": "address"
            },
            {
              "internalType": "contract IPriceOracle",
              "name": "priceOracle",
              "type": "address"
            },
            {
              "internalType": "uint256",
              "name": "stabilityFee",
              "type": "uint256"
            },
            {
              "internalType": "uint256",
              "name": "stabilizationFee",
              "type": "uint256"
            },
            {
              "internalType": "uint256",
              "name": "exchangeFee",
              "type": "uint256"
            },
            {
              "internalType": "uint256",
              "name": "developmentFee",
              "type": "uint256"
            },
            {
              "internalType": "uint256",
              "name": "initialLoanToValueRatio",
              "type": "uint256"
            },
            {
              "internalType": "uint256",
              "name": "marginCallLoanToValueRatio",
              "type": "uint256"
            },
            {
              "internalType": "uint256",
              "name": "liquidationLoanToValueRatio",
              "type": "uint256"
            },
            {
              "internalType": "uint256",
              "name": "collateralAmount",
              "type": "uint256"
            }
          ],
          "internalType": "struct CollateralToken.Data[]",
          "name": "allowedCollateralTokens",
          "type": "tuple[]"
        }
      ],
      "stateMutability": "view",
      "type": "function"
    },
    {
      "inputs": [
        {
          "internalType": "uint256",
          "name": "loanId",
          "type": "uint256"
        }
      ],
      "name": "getLoanToValueRatio",
      "outputs": [
        {
          "internalType": "uint256",
          "name": "loanToValueRatio",
          "type": "uint256"
        }
      ],
      "stateMutability": "view",
      "type": "function"
    },
    {
      "inputs": [
        {
          "internalType": "address",
          "name": "borrower",
          "type": "address"
        }
      ],
      "name": "getLoans",
      "outputs": [
        {
          "components": [
            {
              "internalType": "uint256",
              "name": "id",
              "type": "uint256"
            },
            {
              "internalType": "bool",
              "name": "isActive",
              "type": "bool"
            },
            {
              "internalType": "address",
              "name": "borrower",
              "type": "address"
            },
            {
              "internalType": "contract IERC20",
              "name": "collateralToken",
              "type": "address"
            },
            {
              "internalType": "bool",
              "name": "isNativeCurrency",
              "type": "bool"
            },
            {
              "internalType": "contract IPriceOracle",
              "name": "priceOracle",
              "type": "address"
            },
            {
              "internalType": "uint256",
              "name": "stabilityFee",
              "type": "uint256"
            },
            {
              "internalType": "uint256",
              "name": "stabilizationFee",
              "type": "uint256"
            },
            {
              "internalType": "uint256",
              "name": "exchangeFee",
              "type": "uint256"
            },
            {
              "internalType": "uint256",
              "name": "developmentFee",
              "type": "uint256"
            },
            {
              "internalType": "uint256",
              "name": "principalAmount",
              "type": "uint256"
            },
            {
              "internalType": "uint256",
              "name": "collateralAmount",
              "type": "uint256"
            },
            {
              "internalType": "uint256",
              "name": "lastDepositAt",
              "type": "uint256"
            },
            {
              "internalType": "uint256",
              "name": "lastRepaymentAt",
              "type": "uint256"
            }
          ],
          "internalType": "struct Loan.Data[]",
          "name": "_loans",
          "type": "tuple[]"
        }
      ],
      "stateMutability": "view",
      "type": "function"
    },
    {
      "inputs": [],
      "name": "getTotalValueLocked",
      "outputs": [
        {
          "internalType": "uint256",
          "name": "totalValueLocked",
          "type": "uint256"
        }
      ],
      "stateMutability": "view",
      "type": "function"
    },
    {
      "inputs": [],
      "name": "governor",
      "outputs": [
        {
          "internalType": "address",
          "name": "",
          "type": "address"
        }
      ],
      "stateMutability": "view",
      "type": "function"
    },
    {
      "inputs": [
        {
          "internalType": "contract IWrappedNativeCurrency",
          "name": "_wrappedNativeCurrency",
          "type": "address"
        },
        {
          "internalType": "contract ICore",
          "name": "_core",
          "type": "address"
        },
        {
          "internalType": "contract IMintableAndBurnableERC20",
          "name": "_stablecoin",
          "type": "address"
        },
        {
          "internalType": "contract IPriceOracle",
          "name": "_priceOracle",
          "type": "address"
        },
        {
          "internalType": "address",
          "name": "_operator",
          "type": "address"
        },
        {
          "internalType": "address",
          "name": "_liquidator",
          "type": "address"
        },
        {
          "internalType": "address",
          "name": "_exchangeFund",
          "type": "address"
        },
        {
          "internalType": "address",
          "name": "_developmentFund",
          "type": "address"
        }
      ],
      "name": "initialize",
      "outputs": [],
      "stateMutability": "nonpayable",
      "type": "function"
    },
    {
      "inputs": [
        {
          "internalType": "uint256",
          "name": "loanId",
          "type": "uint256"
        }
      ],
      "name": "liquidate",
      "outputs": [],
      "stateMutability": "nonpayable",
      "type": "function"
    },
    {
      "inputs": [],
      "name": "liquidator",
      "outputs": [
        {
          "internalType": "address",
          "name": "",
          "type": "address"
        }
      ],
      "stateMutability": "view",
      "type": "function"
    },
    {
      "inputs": [
        {
          "internalType": "contract IERC20",
          "name": "token",
          "type": "address"
        },
        {
          "internalType": "uint256",
          "name": "initialLoanToValueRatio",
          "type": "uint256"
        }
      ],
      "name": "listCollateralToken",
      "outputs": [],
      "stateMutability": "nonpayable",
      "type": "function"
    },
    {
      "inputs": [
        {
          "internalType": "address",
          "name": "",
          "type": "address"
        },
        {
          "internalType": "uint256",
          "name": "",
          "type": "uint256"
        }
      ],
      "name": "loanIds",
      "outputs": [
        {
          "internalType": "uint256",
          "name": "",
          "type": "uint256"
        }
      ],
      "stateMutability": "view",
      "type": "function"
    },
    {
      "inputs": [
        {
          "internalType": "uint256",
          "name": "",
          "type": "uint256"
        }
      ],
      "name": "loans",
      "outputs": [
        {
          "internalType": "uint256",
          "name": "id",
          "type": "uint256"
        },
        {
          "internalType": "bool",
          "name": "isActive",
          "type": "bool"
        },
        {
          "internalType": "address",
          "name": "borrower",
          "type": "address"
        },
        {
          "internalType": "contract IERC20",
          "name": "collateralToken",
          "type": "address"
        },
        {
          "internalType": "bool",
          "name": "isNativeCurrency",
          "type": "bool"
        },
        {
          "internalType": "contract IPriceOracle",
          "name": "priceOracle",
          "type": "address"
        },
        {
          "internalType": "uint256",
          "name": "stabilityFee",
          "type": "uint256"
        },
        {
          "internalType": "uint256",
          "name": "stabilizationFee",
          "type": "uint256"
        },
        {
          "internalType": "uint256",
          "name": "exchangeFee",
          "type": "uint256"
        },
        {
          "internalType": "uint256",
          "name": "developmentFee",
          "type": "uint256"
        },
        {
          "internalType": "uint256",
          "name": "principalAmount",
          "type": "uint256"
        },
        {
          "internalType": "uint256",
          "name": "collateralAmount",
          "type": "uint256"
        },
        {
          "internalType": "uint256",
          "name": "lastDepositAt",
          "type": "uint256"
        },
        {
          "internalType": "uint256",
          "name": "lastRepaymentAt",
          "type": "uint256"
        }
      ],
      "stateMutability": "view",
      "type": "function"
    },
    {
      "inputs": [],
      "name": "operator",
      "outputs": [
        {
          "internalType": "address",
          "name": "",
          "type": "address"
        }
      ],
      "stateMutability": "view",
      "type": "function"
    },
    {
      "inputs": [],
      "name": "pendingGovernor",
      "outputs": [
        {
          "internalType": "address",
          "name": "",
          "type": "address"
        }
      ],
      "stateMutability": "view",
      "type": "function"
    },
    {
      "inputs": [],
      "name": "priceOracle",
      "outputs": [
        {
          "internalType": "contract IPriceOracle",
          "name": "",
          "type": "address"
        }
      ],
      "stateMutability": "view",
      "type": "function"
    },
    {
      "inputs": [],
      "name": "rebalance",
      "outputs": [],
      "stateMutability": "nonpayable",
      "type": "function"
    },
    {
      "inputs": [
        {
          "internalType": "address",
          "name": "magister",
          "type": "address"
        }
      ],
      "name": "removeMagister",
      "outputs": [],
      "stateMutability": "nonpayable",
      "type": "function"
    },
    {
      "inputs": [
        {
          "internalType": "uint256",
          "name": "loanId",
          "type": "uint256"
        },
        {
          "internalType": "uint256",
          "name": "amount",
          "type": "uint256"
        }
      ],
      "name": "repay",
      "outputs": [],
      "stateMutability": "nonpayable",
      "type": "function"
    },
    {
      "inputs": [
        {
          "internalType": "contract IERC20",
          "name": "token",
          "type": "address"
        }
      ],
      "name": "salvage",
      "outputs": [],
      "stateMutability": "nonpayable",
      "type": "function"
    },
    {
      "inputs": [
        {
          "internalType": "contract IERC20",
          "name": "token",
          "type": "address"
        },
        {
          "internalType": "uint256",
          "name": "newInitialLoanToValueRatio",
          "type": "uint256"
        }
      ],
      "name": "setInitialLoanToValueRatio",
      "outputs": [],
      "stateMutability": "nonpayable",
      "type": "function"
    },
    {
      "inputs": [],
      "name": "stablecoin",
      "outputs": [
        {
          "internalType": "contract IMintableAndBurnableERC20",
          "name": "",
          "type": "address"
        }
      ],
      "stateMutability": "view",
      "type": "function"
    },
    {
      "inputs": [
        {
          "internalType": "address",
          "name": "newGovernor",
          "type": "address"
        },
        {
          "internalType": "bool",
          "name": "force",
          "type": "bool"
        }
      ],
      "name": "transitGovernance",
      "outputs": [],
      "stateMutability": "nonpayable",
      "type": "function"
    },
    {
      "inputs": [
        {
          "internalType": "contract IERC20",
          "name": "token",
          "type": "address"
        }
      ],
      "name": "unlistCollateralToken",
      "outputs": [],
      "stateMutability": "nonpayable",
      "type": "function"
    },
    {
      "inputs": [],
      "name": "wrappedNativeCurrency",
      "outputs": [
        {
          "internalType": "contract IWrappedNativeCurrency",
          "name": "",
          "type": "address"
        }
      ],
      "stateMutability": "view",
      "type": "function"
    },
    {
      "stateMutability": "payable",
      "type": "receive"
    }
  ],
  "transactionHash": "0xb5bcb641bfa5ddb9476775d2e040155db8b9facd9bacd28d1da237de1750c860",
  "args": [],
  "solcInputHash": "48009161dfb60e4a2bf15836026f0544",
  "bytecode": "0x608060405234801561001057600080fd5b506001600255614af6806100256000396000f3fe6080604052600436106102895760003560e01c80638fa1552e11610153578063ddc12526116100cb578063e39302491161007f578063e9cbd82211610064578063e9cbd8221461086b578063f119821a1461088b578063f2f4eb26146108ad57600080fd5b8063e39302491461082b578063e7f3028c1461084b57600080fd5b8063e1ec3c68116100b0578063e1ec3c6814610751578063e2bbb158146107eb578063e3056a341461080b57600080fd5b8063ddc1252614610704578063dfe8f6711461072457600080fd5b8063cf17622511610122578063d34cf64c11610107578063d34cf64c146106a4578063d8aed145146106b7578063d988ef20146106d757600080fd5b8063cf176225146105b4578063cffbc297146105d657600080fd5b80638fa1552e1461053f578063b26025aa1461055f578063b38e481614610574578063c78bede81461059457600080fd5b80634b8a3529116102015780637d7c2a1c116101b557806387eae8191161019a57806387eae819146104df5780638a2381d7146104ff5780638a29e2de1461051f57600080fd5b80637d7c2a1c146104aa578063863a03e0146104bf57600080fd5b80634c47dda2116101e65780634c47dda21461044a578063570ca7351461046a5780637152a2661461048a57600080fd5b80634b8a35291461040a5780634c12d4711461042a57600080fd5b80632630c12f11610258578063415f12401161023d578063415f1240146103aa57806344dbdd90146103ca5780634721f2db146103ea57600080fd5b80632630c12f1461036a5780634046ebae1461038a57600080fd5b80630b5a017a146102c05780630c340a24146102e95780631cec9e7514610327578063238efcbc1461035557600080fd5b366102bb576003546001600160a01b031633146102b957604051634b908c4f60e01b815260040160405180910390fd5b005b600080fd5b6102d36102ce3660046143a8565b6108cd565b6040516102e09190614495565b60405180910390f35b3480156102f557600080fd5b5060005461030f906201000090046001600160a01b031681565b6040516001600160a01b0390911681526020016102e0565b34801561033357600080fd5b506103476103423660046143a8565b610a93565b6040519081526020016102e0565b34801561036157600080fd5b506102b9610b8b565b34801561037657600080fd5b5060065461030f906001600160a01b031681565b34801561039657600080fd5b5060085461030f906001600160a01b031681565b3480156103b657600080fd5b506102b96103c53660046143a8565b610c20565b3480156103d657600080fd5b506102d36103e53660046144b9565b610f91565b3480156103f657600080fd5b506102b96104053660046144b9565b611031565b34801561041657600080fd5b506102d36104253660046144b9565b611146565b34801561043657600080fd5b5060095461030f906001600160a01b031681565b34801561045657600080fd5b506102b96104653660046144e5565b61122e565b34801561047657600080fd5b5060075461030f906001600160a01b031681565b34801561049657600080fd5b506102b96104a53660046144e5565b6112fa565b3480156104b657600080fd5b506102b96113fe565b3480156104cb57600080fd5b506102b96104da3660046144e5565b611714565b3480156104eb57600080fd5b506102b96104fa3660046144b9565b61182b565b34801561050b57600080fd5b50600a5461030f906001600160a01b031681565b34801561052b57600080fd5b506102b961053a366004614502565b611e29565b34801561054b57600080fd5b506102d361055a3660046144b9565b611f1d565b34801561056b57600080fd5b50610347611fbd565b34801561058057600080fd5b506102d361058f3660046144b9565b6120aa565b3480156105a057600080fd5b506102b96105af3660046144e5565b61214a565b3480156105c057600080fd5b506105c961225f565b6040516102e091906145ab565b3480156105e257600080fd5b5061064f6105f13660046144e5565b600d6020526000908152604090208054600182015460028301546003840154600485015460058601546006870154600788015460088901546009909901546001600160a01b039889169997909816979596949593949293919290918a565b604080516001600160a01b039b8c1681529a90991660208b0152978901969096526060880194909452608087019290925260a086015260c085015260e0840152610100830152610120820152610140016102e0565b6102b96106b23660046143a8565b612411565b3480156106c357600080fd5b506102b96106d236600461465a565b6125b0565b3480156106e357600080fd5b506106f76106f23660046144e5565b61299d565b6040516102e0919061467c565b34801561071057600080fd5b506102b961071f3660046146d9565b612b6b565b34801561073057600080fd5b5061074461073f3660046143a8565b612c59565b6040516102e09190614728565b34801561075d57600080fd5b5061077161076c3660046143a8565b612d6e565b604080519e8f529c151560208f01526001600160a01b039b8c169c8e019c909c52988a1660608d015296151560808c01529790941660a08a015260c089019290925260e08801526101008701526101208601526101408501929092526101608401919091526101808301526101a08201526101c0016102e0565b3480156107f757600080fd5b506102b961080636600461465a565b612dfa565b34801561081757600080fd5b5060015461030f906001600160a01b031681565b34801561083757600080fd5b506103476108463660046144b9565b612f0e565b34801561085757600080fd5b5060035461030f906001600160a01b031681565b34801561087757600080fd5b5060055461030f906001600160a01b031681565b34801561089757600080fd5b506108a0612f3f565b6040516102e09190614750565b3480156108b957600080fd5b5060045461030f906001600160a01b031681565b6108d561431a565b6002805414156108f857604051633ee5aeb560e01b815260040160405180910390fd5b60028055600354600090610915906001600160a01b0316846120aa565b6001608082015260c081015161016082015191925060009161093791906147bd565b90508034101561096257604051631e59fc6f60e01b8152600481018290526024015b60405180910390fd5b600360009054906101000a90046001600160a01b03166001600160a01b031663d0e30db0826040518263ffffffff1660e01b81526004016000604051808303818588803b1580156109b257600080fd5b505af11580156109c6573d6000803e3d6000fd5b505060075460c0860151600354610a0695506001600160a01b0392831694506109f3935090911690613055565b6003546001600160a01b031691906130f7565b34818103908214610a7c57604051600090339083908381818185875af1925050503d8060008114610a53576040519150601f19603f3d011682016040523d82523d6000602084013e610a58565b606091505b5050905080610a7a57604051638762150d60e01b815260040160405180910390fd5b505b610a8583613187565b600160025595945050505050565b600080600b8381548110610aa957610aa96147d5565b6000918252602091829020604080516101c081018252600c90930290910180548352600181015460ff8082161515958501959095526001600160a01b036101009182900481169385019390935260028201548084166060860152600160a01b900490941615156080840152600381015490911660a0830152600481015460c0830152600581015460e0830152600681015492820192909252600782015461012082015260088201546101408201526009820154610160820152600a820154610180820152600b909101546101a08201529050610b848161367a565b9392505050565b6001546001600160a01b03163314610bb65760405163aec80d4b60e01b815260040160405180910390fd5b60015460008054620100006001600160a01b0393841681810275ffffffffffffffffffffffffffffffffffffffff00001990931692909217808455604051929491900416917f564590b81987d147246f63910a8e1ee4eb09c4d64cc75ee975a8ffedfcc2210e91a3565b600280541415610c4357604051633ee5aeb560e01b815260040160405180910390fd5b60028055600b54819081101580610c815750600b8181548110610c6857610c686147d5565b600091825260209091206001600c90920201015460ff16155b15610ca2576040516372c4e6fd60e01b815260048101829052602401610959565b816002610cae82612c59565b6002811115610cbf57610cbf614712565b14610cdf57604051621e4f3560e61b815260048101829052602401610959565b6000600b8481548110610cf457610cf46147d5565b600091825260208083206009600c909302018281015460028201546001600160a01b03168552600d90925260408420909201805492945090929091610d3a9084906147eb565b909155505060085460098201546002830154610d7e926001600160a01b0390811692610d699290911690613055565b60028401546001600160a01b031691906130f7565b604080516101c08101825282548152600183015460ff808216151560208401526001600160a01b036101009283900481169484019490945260028501548085166060850152600160a01b90041615156080830152600384015490921660a0820152600483015460c0820152600583015460e0820152600683015491810191909152600782015461012082015260088201546101408201526009820154610160820152600a820154610180820152600b8201546101a0820152600090610e42906136bd565b6005546008805490850154604051632770a7eb60e21b81526001600160a01b03928316600482015260248101919091529293501690639dc29fac90604401600060405180830381600087803b158015610e9a57600080fd5b505af1158015610eae573d6000803e3d6000fd5b505060055460088501546001600160a01b039091169250639dc29fac91503090610ed890856147eb565b6040517fffffffff0000000000000000000000000000000000000000000000000000000060e085901b1681526001600160a01b0390921660048301526024820152604401600060405180830381600087803b158015610f3657600080fd5b505af1158015610f4a573d6000803e3d6000fd5b50505060018301805460ff191690555060405185907fc9e9d7cf3944e82f1fe222573e1c9acf5a2f6cd29aa9639bc8078065f091bb6b90600090a250506001600255505050565b610f9961431a565b6001600160a01b038084166000908152600d60209081526040918290208251610140810184528154851681526001820154909416918401919091526002810154918301919091526003810154606083015260048101546080830152600581015460a0830152600681015460c0830152600781015460e0830152600881015461010083015260090154610120820152610b849083613748565b6000546201000090046001600160a01b03163314611062576040516305e7700560e51b815260040160405180910390fd5b6001600160a01b0382166000908152600f60205260409020546110a357604051634cbfe6c960e11b81526001600160a01b0383166004820152602401610959565b6001600160a01b0382166000908152600d60205260409020600781015482106110f157604051630d12026b60e31b81526001600160a01b038416600482015260248101839052604401610959565b6006810180549083905560408051828152602081018590526001600160a01b038616917fc6a8c526618a1ece6f5d33564501b92330c354faa23902079359e52c8efd72f391015b60405180910390a250505050565b61114e61431a565b60028054141561117157604051633ee5aeb560e01b815260040160405180910390fd5b600280556001600160a01b0383166000908152600f602052604090205483906111b8576040516308cfe49560e31b81526001600160a01b0382166004820152602401610959565b60006111c485856120aa565b60075460c08201519192506111ff9133916001600160a01b03908116916111ed918a1690613055565b6001600160a01b03891692919061383b565b61122533306111ed846101600151896001600160a01b031661305590919063ffffffff16565b610a8581613187565b6000546201000090046001600160a01b0316331461125f576040516305e7700560e51b815260040160405180910390fd5b6001600160a01b0381166000908152601260205260409020546112a0576040516306a7d1a960e01b81526001600160a01b0382166004820152602401610959565b6112ab601182613879565b156112f7576001600160a01b038116600081815260106020526040808220805460ff19169055517f2773ba9ce0dece21a9aac6c6bc56b7a54644eb356bd5f7a66624896adaaf51b49190a25b50565b6000546201000090046001600160a01b0316331461132b576040516305e7700560e51b815260040160405180910390fd5b6001600160a01b0381166000908152601260205260409020541561136d576040516306a7d1a960e01b81526001600160a01b0382166004820152602401610959565b6113786011826139b2565b156112f7576001600160a01b03811660008181526010602052604090206002810180546001600160a01b03191690921790915560018101546113bb574260018201555b805460ff191660011781556040516001600160a01b038316907f06895b3fac090d5b5d8f0f3269ce51ef5f3bd78548fc2d265303956dd4d755cb90600090a25050565b60028054141561142157604051633ee5aeb560e01b815260040160405180910390fd5b60028055600061142f611fbd565b90506000600560009054906101000a90046001600160a01b03166001600160a01b03166318160ddd6040518163ffffffff1660e01b8152600401602060405180830381865afa158015611486573d6000803e3d6000fd5b505050506040513d601f19601f820116820180604052508101906114aa9190614802565b905060006114b8838361481b565b905060006114c582613a22565b905060006114d38285613a3a565b9050600460009054906101000a90046001600160a01b03166001600160a01b031663ee0e54cb6040518163ffffffff1660e01b8152600401602060405180830381865afa158015611528573d6000803e3d6000fd5b505050506040513d601f19601f8201168201806040525081019061154c9190614802565b81101561156c576040516363b74cfb60e01b815260040160405180910390fd5b600083131561167057600554604051632770a7eb60e21b8152306004820152602481018490526001600160a01b0390911690639dc29fac90604401600060405180830381600087803b1580156115c157600080fd5b505af19250505080156115d2575060015b61166b576005546040516370a0823160e01b81523060048201526000916001600160a01b0316906370a0823190602401602060405180830381865afa15801561161f573d6000803e3d6000fd5b505050506040513d601f19601f820116820180604052508101906116439190614802565b905061164f81846147eb565b60405163dc14e6f760e01b815260040161095991815260200190565b6116d5565b6005546040516340c10f1960e01b8152306004820152602481018490526001600160a01b03909116906340c10f1990604401600060405180830381600087803b1580156116bc57600080fd5b505af11580156116d0573d6000803e3d6000fd5b505050505b6040518381527fa3cc94864c69eaba081615f691669aa27c9f8697ad249e6c01a4d792b2aace949060200160405180910390a150506001600255505050565b6000546201000090046001600160a01b03163314611745576040516305e7700560e51b815260040160405180910390fd5b60055481906001600160a01b038083169116148061177a57506001600160a01b0381166000908152600f602052604090205415155b156117a25760405162919e6d60e01b81526001600160a01b0383166004820152602401610959565b6007546040516370a0823160e01b8152306004820152611827916001600160a01b0390811691908516906370a0823190602401602060405180830381865afa1580156117f2573d6000803e3d6000fd5b505050506040513d601f19601f820116820180604052508101906118169190614802565b6001600160a01b03851691906130f7565b5050565b6000546201000090046001600160a01b0316331461185c576040516305e7700560e51b815260040160405180910390fd5b6001600160a01b0382166000908152600f60205260409020541561189e5760405163ca6d908160e01b81526001600160a01b0383166004820152602401610959565b6004805460408051636c3b6cc760e11b815290516001600160a01b039092169263d876d98e9282820192602092908290030181865afa1580156118e5573d6000803e3d6000fd5b505050506040513d601f19601f820116820180604052508101906119099190614802565b811061193a57604051630d12026b60e31b81526001600160a01b038316600482015260248101829052604401610959565b6000826001600160a01b031663313ce5676040518163ffffffff1660e01b8152600401602060405180830381865afa15801561197a573d6000803e3d6000fd5b505050506040513d601f19601f8201168201806040525081019061199e9190614873565b905060ff81166119cc5760405163016058a160e51b81526001600160a01b0384166004820152602401610959565b601260ff82161115611a055760405163dbba24db60e01b81526001600160a01b038416600482015260ff82166024820152604401610959565b611a10600e846139b2565b15611e245760408051610140810182526001600160a01b038086168252600654811660208084019190915260048054855163361416e160e01b815286519596870195919094169363361416e193818401939092918290030181865afa158015611a7d573d6000803e3d6000fd5b505050506040513d601f19601f82011682018060405250810190611aa19190614802565b8152602001600460009054906101000a90046001600160a01b03166001600160a01b03166342580dbe6040518163ffffffff1660e01b8152600401602060405180830381865afa158015611af9573d6000803e3d6000fd5b505050506040513d601f19601f82011682018060405250810190611b1d9190614802565b8152602001600460009054906101000a90046001600160a01b03166001600160a01b0316632ecd3be46040518163ffffffff1660e01b8152600401602060405180830381865afa158015611b75573d6000803e3d6000fd5b505050506040513d601f19601f82011682018060405250810190611b999190614802565b8152602001600460009054906101000a90046001600160a01b03166001600160a01b031663a5f3d0036040518163ffffffff1660e01b8152600401602060405180830381865afa158015611bf1573d6000803e3d6000fd5b505050506040513d601f19601f82011682018060405250810190611c159190614802565b8152602001838152602001600460009054906101000a90046001600160a01b03166001600160a01b031663d876d98e6040518163ffffffff1660e01b8152600401602060405180830381865afa158015611c73573d6000803e3d6000fd5b505050506040513d601f19601f82011682018060405250810190611c979190614802565b8152602001600460009054906101000a90046001600160a01b03166001600160a01b0316634433c5e86040518163ffffffff1660e01b8152600401602060405180830381865afa158015611cef573d6000803e3d6000fd5b505050506040513d601f19601f82011682018060405250810190611d139190614802565b8152600060209182018190526001600160a01b03868116808352600d84526040808420865181546001600160a01b031990811691861691909117825595870151600182018054909716941693909317909455848401516002830155606085015160038301556080850151600483015560a0850151600583015560c0850151600683015560e0850151600783015561010085015160088301556101209094015160099091015590517f55dcc5a02a669292f3baba7762915a1182901a9c28a30cc15d3325afcbb4bccc9190a26040805160008152602081018490526001600160a01b038516917fc6a8c526618a1ece6f5d33564501b92330c354faa23902079359e52c8efd72f3910160405180910390a25b505050565b60005460ff16158015611e435750600054610100900460ff165b15611e6157604051631ee1e30360e21b815260040160405180910390fd5b60005460ff16158015611e7e576000805461ffff19166101011790555b611e8733613a4f565b600380546001600160a01b03199081166001600160a01b038c8116919091179092556004805482168b84161790556005805482168a8416179055600680548216898416179055600780548216888416179055600880548216878416179055600980548216868416179055600a80549091169184169190911790558015611f12576000805460ff191690555b505050505050505050565b611f2561431a565b6001600160a01b038084166000908152600d60209081526040918290208251610140810184528154851681526001820154909416918401919091526002810154918301919091526003810154606083015260048101546080830152600581015460a0830152600681015460c0830152600781015460e0830152600881015461010083015260090154610120820152610b849083613ab6565b6000805b600e548110156120a657612088600d6000600e6000018481548110611fe857611fe86147d5565b60009182526020808320909101546001600160a01b0390811684528382019490945260409283019091208251610140810184528154851681526001820154909416918401919091526002810154918301919091526003810154606083015260048101546080830152600581015460a0830152600681015460c0830152600781015460e0830152600881015461010083015260090154610120820152613c73565b61209290836147bd565b91508061209e81614896565b915050611fc1565b5090565b6120b261431a565b6001600160a01b038084166000908152600d60209081526040918290208251610140810184528154851681526001820154909416918401919091526002810154918301919091526003810154606083015260048101546080830152600581015460a0830152600681015460c0830152600781015460e0830152600881015461010083015260090154610120820152610b849083613cfb565b6000546201000090046001600160a01b0316331461217b576040516305e7700560e51b815260040160405180910390fd5b6001600160a01b0381166000908152600f60205260409020546121bc57604051634cbfe6c960e11b81526001600160a01b0382166004820152602401610959565b6121c7600e82613879565b156112f7576001600160a01b0381166000818152600d602052604080822080546001600160a01b03199081168255600182018054909116905560028101839055600381018390556004810183905560058101839055600681018390556007810183905560088101839055600901829055517f6d08717837ebdfd34a4ddffe3e4566e0a68e8dde2464854e9242a8f7e6399a339190a250565b600e546060908067ffffffffffffffff81111561227e5761227e6148b1565b60405190808252806020026020018201604052801561231757816020015b61230460405180610140016040528060006001600160a01b0316815260200160006001600160a01b0316815260200160008152602001600081526020016000815260200160008152602001600081526020016000815260200160008152602001600081525090565b81526020019060019003908161229c5790505b50915060005b8181101561240c57600d6000600e600001838154811061233f5761233f6147d5565b60009182526020808320909101546001600160a01b0390811684528382019490945260409283019091208251610140810184528154851681526001820154909416918401919091526002810154918301919091526003810154606083015260048101546080830152600581015460a0830152600681015460c0830152600781015460e083015260088101546101008301526009015461012082015283518490839081106123ee576123ee6147d5565b6020026020010181905250808061240490614896565b91505061231d565b505090565b60028054141561243457604051633ee5aeb560e01b815260040160405180910390fd5b60028055600b548190811015806124725750600b8181548110612459576124596147d5565b600091825260209091206001600c90920201015460ff16155b15612493576040516372c4e6fd60e01b815260048101829052602401610959565b81600261249f82612c59565b60028111156124b0576124b0614712565b14156124d257604051633d240fc360e01b815260048101829052602401610959565b600354600b80546001600160a01b0390921691859081106124f5576124f56147d5565b600091825260209091206002600c9092020101546001600160a01b03161461253357604051635d64f43b60e01b815260048101849052602401610959565b600360009054906101000a90046001600160a01b03166001600160a01b031663d0e30db0346040518263ffffffff1660e01b81526004016000604051808303818588803b15801561258357600080fd5b505af1158015612597573d6000803e3d6000fd5b50505050506125a68334613ec4565b5050600160025550565b6002805414156125d357604051633ee5aeb560e01b815260040160405180910390fd5b60028055600b548290811015806126115750600b81815481106125f8576125f86147d5565b600091825260209091206001600c90920201015460ff16155b15612632576040516372c4e6fd60e01b815260048101829052602401610959565b82600261263e82612c59565b600281111561264f5761264f614712565b141561267157604051633d240fc360e01b815260048101829052602401610959565b8261268f57604051631d23e67d60e21b815260040160405180910390fd5b6000600b85815481106126a4576126a46147d5565b90600052602060002090600c02019050838160080160008282546126c891906147eb565b9091555050600554604051632770a7eb60e21b8152336004820152602481018690526001600160a01b0390911690639dc29fac90604401600060405180830381600087803b15801561271957600080fd5b505af115801561272d573d6000803e3d6000fd5b505042600b840155505060088101541561278057847f552544cb36551120f07c66c5cd4b2987725a0c72198587f2ce796099bb66c58c8560405161277391815260200190565b60405180910390a2612991565b600981015460028201546000916127a0916001600160a01b031690613055565b60098084015460028501546001600160a01b03166000908152600d60205260408120909201805493945090929091906127da9084906147eb565b9091555050600060098301556005805490830154604051632770a7eb60e21b815230600482015260248101919091526001600160a01b0390911690639dc29fac90604401600060405180830381600087803b15801561283857600080fd5b505af115801561284c573d6000803e3d6000fd5b50505060018301805460ff191690555060405186907f33a382daad6aace935340a474d09fec82af4bec7e2b69518d283231b03a65f2490600090a26002820154600160a01b900460ff166128c657600182015460028301546128c1916001600160a01b039182169161010090910416836130f7565b61298f565b600354604051632e1a7d4d60e01b8152600481018390526001600160a01b0390911690632e1a7d4d90602401600060405180830381600087803b15801561290c57600080fd5b505af1158015612920573d6000803e3d6000fd5b50506040516000925033915083908381818185875af1925050503d8060008114612966576040519150601f19603f3d011682016040523d82523d6000602084013e61296b565b606091505b505090508061298d57604051638762150d60e01b815260040160405180910390fd5b505b505b50506001600255505050565b6001600160a01b0381166000908152600c60205260409020546060908067ffffffffffffffff8111156129d2576129d26148b1565b604051908082528060200260200182016040528015612a0b57816020015b6129f861431a565b8152602001906001900390816129f05790505b50915060005b81811015612b64576001600160a01b0384166000908152600c602052604090208054600b919083908110612a4757612a476147d5565b906000526020600020015481548110612a6257612a626147d5565b6000918252602091829020604080516101c081018252600c90930290910180548352600181015460ff8082161515958501959095526001600160a01b036101009182900481169385019390935260028201548084166060860152600160a01b900490941615156080840152600381015490911660a0830152600481015460c0830152600581015460e0830152600681015492820192909252600782015461012082015260088201546101408201526009820154610160820152600a820154610180820152600b909101546101a08201528351849083908110612b4657612b466147d5565b60200260200101819052508080612b5c90614896565b915050612a11565b5050919050565b6000546201000090046001600160a01b03163314612b9c576040516305e7700560e51b815260040160405180910390fd5b6001600160a01b038216612bc35760405163604b48b960e11b815260040160405180910390fd5b6001600160a01b038216301415612bed576040516306b3e95d60e21b815260040160405180910390fd5b600180546001600160a01b0319166001600160a01b03841617905580612c5057600080546040516001600160a01b03808616936201000090930416917fc606c9af1451cadeb333f6ff7b24a5540974f4e800bac274fa7fff9edc305cb191a35050565b61182782613a4f565b600080612c6583610a93565b9050600460009054906101000a90046001600160a01b03166001600160a01b0316634433c5e86040518163ffffffff1660e01b8152600401602060405180830381865afa158015612cba573d6000803e3d6000fd5b505050506040513d601f19601f82011682018060405250810190612cde9190614802565b811015612d65576004805460408051636c3b6cc760e11b815290516001600160a01b039092169263d876d98e9282820192602092908290030181865afa158015612d2c573d6000803e3d6000fd5b505050506040513d601f19601f82011682018060405250810190612d509190614802565b811015612d5e576000610b84565b6001610b84565b60029392505050565b600b8181548110612d7e57600080fd5b60009182526020909120600c9091020180546001820154600283015460038401546004850154600586015460068701546007880154600889015460098a0154600a8b0154600b909b0154999b5060ff808a169b610100909a046001600160a01b039081169b818b169b600160a01b909b0490921699981697908e565b600280541415612e1d57604051633ee5aeb560e01b815260040160405180910390fd5b60028055600b54829081101580612e5b5750600b8181548110612e4257612e426147d5565b600091825260209091206001600c90920201015460ff16155b15612e7c576040516372c4e6fd60e01b815260048101829052602401610959565b826002612e8882612c59565b6002811115612e9957612e99614712565b1415612ebb57604051633d240fc360e01b815260048101829052602401610959565b612ef9333085600b8881548110612ed457612ed46147d5565b600091825260209091206002600c9092020101546001600160a01b031692919061383b565b612f038484613ec4565b505060016002555050565b600c6020528160005260406000208181548110612f2a57600080fd5b90600052602060002001600091509150505481565b6011546060908067ffffffffffffffff811115612f5e57612f5e6148b1565b604051908082528060200260200182016040528015612fa957816020015b6040805160608101825260008082526020808301829052928201528252600019909201910181612f7c5790505b50915060005b8181101561240c576010600060116000018381548110612fd157612fd16147d5565b60009182526020808320909101546001600160a01b0390811684528382019490945260409283019091208251606081018452815460ff161515815260018201549281019290925260020154909216908201528351849083908110613037576130376147d5565b6020026020010181905250808061304d90614896565b915050612faf565b600080836001600160a01b031663313ce5676040518163ffffffff1660e01b8152600401602060405180830381865afa158015613096573d6000803e3d6000fd5b505050506040513d601f19601f820116820180604052508101906130ba9190614873565b6130c59060126148c7565b6130d090600a6149ce565b9050806001146130ec576130e481846149dd565b9150506130f1565b829150505b92915050565b6040516001600160a01b038316602482015260448101829052611e2490849063a9059cbb60e01b906064015b60408051601f198184030181529190526020810180517bffffffffffffffffffffffffffffffffffffffffffffffffffffffff167fffffffff0000000000000000000000000000000000000000000000000000000090931692909217909152613fa9565b61318f61431a565b6101408201516131b2576040516379d1504360e01b815260040160405180910390fd5b60048054604080516216d14b60e71b815290516001600160a01b0390921692630b68a5809282820192602092908290030181865afa1580156131f8573d6000803e3d6000fd5b505050506040513d601f19601f8201168201806040525081019061321c9190614802565b826101400151101561324157604051631efe3f1960e11b815260040160405180910390fd5b60055460e08301516040516340c10f1960e01b815230600482015260248101919091526001600160a01b03909116906340c10f1990604401600060405180830381600087803b15801561329357600080fd5b505af11580156132a7573d6000803e3d6000fd5b50506005546009546101008601516040516340c10f1960e01b81526001600160a01b0392831660048201526024810191909152911692506340c10f199150604401600060405180830381600087803b15801561330257600080fd5b505af1158015613316573d6000803e3d6000fd5b5050600554600a546101208601516040516340c10f1960e01b81526001600160a01b0392831660048201526024810191909152911692506340c10f199150604401600060405180830381600087803b15801561337157600080fd5b505af1158015613385573d6000803e3d6000fd5b505060055460408581015161014087015191516340c10f1960e01b81526001600160a01b039182166004820152602481019290925290911692506340c10f199150604401600060405180830381600087803b1580156133e357600080fd5b505af11580156133f7573d6000803e3d6000fd5b505050506000600b80549050905080836000018181525050600b8390806001815401808255809150506001900390600052602060002090600c02016000909190919091506000820151816000015560208201518160010160006101000a81548160ff02191690831515021790555060408201518160010160016101000a8154816001600160a01b0302191690836001600160a01b0316021790555060608201518160020160006101000a8154816001600160a01b0302191690836001600160a01b0316021790555060808201518160020160146101000a81548160ff02191690831515021790555060a08201518160030160006101000a8154816001600160a01b0302191690836001600160a01b0316021790555060c0820151816004015560e08201518160050155610100820151816006015561012082015181600701556101408201518160080155610160820151816009015561018082015181600a01556101a082015181600b01555050600c600084604001516001600160a01b03166001600160a01b03168152602001908152602001600020819080600181540180825580915050600190039060005260206000200160009091909190915055826101600151600d600085606001516001600160a01b03166001600160a01b0316815260200190815260200160002060090160008282546135f591906147bd565b90915550506060838101516040808601516101408701516101608801516001600160a01b039485166000818152600d6020908152908690206006015486519485529084019290925293820152919392169184917f1c719a9a8ef2d44db7255e8d65b4a18a23f44758d6ebc0d6b80fe018d25433fb910160405180910390a45090919050565b60008161014001516000141561369257506000919050565b6101608201516136a55750600019919050565b6130f16136b1836136bd565b61014084015190613a3a565b60a08101516060820151604051630787c49960e21b81526001600160a01b03918216600482015260009283921690631e1f126490602401602060405180830381865afa158015613711573d6000803e3d6000fd5b505050506040513d601f19601f820116820180604052508101906137359190614802565b610160840151909150610b849082614033565b61375061431a565b60208301518351604051630787c49960e21b81526001600160a01b0391821660048201526000929190911690631e1f126490602401602060405180830381865afa1580156137a2573d6000803e3d6000fd5b505050506040513d601f19601f820116820180604052508101906137c69190614802565b905060006137e58560c00151866040015161403390919063ffffffff16565b905060006138256137fe670de0b6b3a7640000846147bd565b61381f856138198a60c001518a61403390919063ffffffff16565b90614033565b90613a3a565b90506138318682613cfb565b9695505050505050565b6040516001600160a01b03808516602483015283166044820152606481018290526138739085906323b872dd60e01b90608401613123565b50505050565b6001600160a01b0381166000908152600183016020526040812054806138a35760009150506130f1565b60006138b06001836147eb565b9050600060016138be875490565b6138c891906147eb565b90508082146139545760008660000182815481106138e8576138e86147d5565b60009182526020909120015487546001600160a01b0390911691508190889085908110613917576139176147d5565b600091825260208083209190910180546001600160a01b0319166001600160a01b0394851617905592909116815260018801909152604090208390555b8554869080613965576139656149ff565b60008281526020808220830160001990810180546001600160a01b03191690559092019092556001600160a01b038716825260018881019091526040822091909155935050505092915050565b6001600160a01b0381166000908152600183016020526040812054156139da575060006130f1565b508154600180820184556000848152602080822090930180546001600160a01b0319166001600160a01b03959095169485179055845493815293810190915260409092205590565b6000808212156120a657613a3582614a15565b6130f1565b6000610b8483670de0b6b3a764000084614103565b6000805475ffffffffffffffffffffffffffffffffffffffff00001916620100006001600160a01b0384811682810293909317808555604051939492900416917f564590b81987d147246f63910a8e1ee4eb09c4d64cc75ee975a8ffedfcc2210e9190a350565b613abe61431a565b60208301518351604051630787c49960e21b81526001600160a01b0391821660048201526000929190911690631e1f126490602401602060405180830381865afa158015613b10573d6000803e3d6000fd5b505050506040513d601f19601f82011682018060405250810190613b349190614802565b90506000613b53826138198760c001518761403390919063ffffffff16565b60c0860151909150600090613b7e9061381f613b7782670de0b6b3a76400006147eb565b8590614033565b90506000613b9987606001518361403390919063ffffffff16565b90506000613bb488608001518461403390919063ffffffff16565b90506000613bcf8960a001518561403390919063ffffffff16565b90506000613bee8761381f888d6040015161403390919063ffffffff16565b604080516101c0810182526000808252600160208084019190915233938301939093528d516001600160a01b03908116606084015260808301919091529c90910151909b1660a08c015260c08b01525060e08901929092526101008801526101208701525061014085015250506101608201524261018082018190526101a082015290565b60208101518151604051630787c49960e21b81526001600160a01b03918216600482015260009283921690631e1f126490602401602060405180830381865afa158015613cc4573d6000803e3d6000fd5b505050506040513d601f19601f82011682018060405250810190613ce89190614802565b610120840151909150610b849082614033565b613d0361431a565b60208301518351604051630787c49960e21b81526001600160a01b0391821660048201526000929190911690631e1f126490602401602060405180830381865afa158015613d55573d6000803e3d6000fd5b505050506040513d601f19601f82011682018060405250810190613d799190614802565b60c0850151909150600090613da49061381f613d9d82670de0b6b3a76400006147eb565b8790614033565b90506000613dbf86606001518361403390919063ffffffff16565b90506000613dda87608001518461403390919063ffffffff16565b90506000613df58860a001518561403390919063ffffffff16565b90506000613e1a613e13878b60c0015161403390919063ffffffff16565b8990613a3a565b90506000613e398761381f8b8d6040015161403390919063ffffffff16565b604080516101c0810182526000808252600160208084019190915233938301939093528d516001600160a01b03908116606084015260808301919091529c90910151909b1660a08c015260c08b01525060e08901939093526101008801919091526101208701526101408601949094525050506101608201524261018082018190526101a082015290565b80613ee257604051635491c16d60e01b815260040160405180910390fd5b6000600b8381548110613ef757613ef76147d5565b6000918252602082206002600c9092020190810154909250613f22906001600160a01b0316846141be565b905080826009016000828254613f3891906147bd565b909155505042600a83015560028201546001600160a01b03166000908152600d602052604081206009018054839290613f729084906147bd565b909155505060405181815284907fa3af609bf46297028ce551832669030f9effef2b02606d02cbbcc40fe6b47c5590602001611138565b6040805180820190915260208082527f5361666545524332303a206c6f772d6c6576656c2063616c6c206661696c6564908201528290600090613ff8906001600160a01b03841690859061424d565b80519091501561387357808060200190518101906140169190614a32565b61387357604051639b8d506160e01b815260040160405180910390fd5b60008080600019848609848602925082811083820303915050670de0b6b3a764000081106140855760405163072fa3c960e31b815260048101829052670de0b6b3a76400006024820152604401610959565b600080670de0b6b3a76400008688099150506706f05b59d3b1ffff8111826140bf5780670de0b6b3a76400008504019450505050506130f1565b620400008285030493909111909103600160ee1b02919091177faccb18165bd6fe31ae1cf318dc5b51eee0e1ba569b88cd74c1773b91fac106690201905092915050565b600080806000198587098587029250828110838203039150508381106141465760405163072fa3c960e31b81526004810182905260248101859052604401610959565b8061415657508290049050610b84565b600084868809600260036001881981018916988990049182028318808302840302808302840302808302840302808302840302808302840302918202909203026000889003889004909101858311909403939093029303949094049190911702949350505050565b600080836001600160a01b031663313ce5676040518163ffffffff1660e01b8152600401602060405180830381865afa1580156141ff573d6000803e3d6000fd5b505050506040513d601f19601f820116820180604052508101906142239190614873565b61422e9060126148c7565b61423990600a6149ce565b9050806001146130ec576130e48184614a4f565b6060833b6142795760405163dc5dd7fd60e01b81526001600160a01b0385166004820152602401610959565b600080856001600160a01b0316856040516142949190614a9a565b6000604051808303816000865af19150503d80600081146142d1576040519150601f19603f3d011682016040523d82523d6000602084013e6142d6565b606091505b5091509150613831828286606083156142f0575081610b84565b8251156143005782518060208501fd5b8160405162461bcd60e51b81526004016109599190614ab6565b604051806101c001604052806000815260200160001515815260200160006001600160a01b0316815260200160006001600160a01b0316815260200160001515815260200160006001600160a01b0316815260200160008152602001600081526020016000815260200160008152602001600081526020016000815260200160008152602001600081525090565b6000602082840312156143ba57600080fd5b5035919050565b8051825260208101516143d8602084018215159052565b5060408101516143f360408401826001600160a01b03169052565b50606081015161440e60608401826001600160a01b03169052565b506080810151614422608084018215159052565b5060a081015161443d60a08401826001600160a01b03169052565b5060c0818101519083015260e08082015190830152610100808201519083015261012080820151908301526101408082015190830152610160808201519083015261018080820151908301526101a090810151910152565b6101c081016130f182846143c1565b6001600160a01b03811681146112f757600080fd5b600080604083850312156144cc57600080fd5b82356144d7816144a4565b946020939093013593505050565b6000602082840312156144f757600080fd5b8135610b84816144a4565b600080600080600080600080610100898b03121561451f57600080fd5b883561452a816144a4565b9750602089013561453a816144a4565b9650604089013561454a816144a4565b9550606089013561455a816144a4565b9450608089013561456a816144a4565b935060a089013561457a816144a4565b925060c089013561458a816144a4565b915060e089013561459a816144a4565b809150509295985092959890939650565b602080825282518282018190526000919060409081850190868401855b8281101561464d57815180516001600160a01b0390811686528782015116878601528581015186860152606080820151908601526080808201519086015260a0808201519086015260c0808201519086015260e080820151908601526101008082015190860152610120908101519085015261014090930192908501906001016145c8565b5091979650505050505050565b6000806040838503121561466d57600080fd5b50508035926020909101359150565b6020808252825182820181905260009190848201906040850190845b818110156146bf576146ab8385516143c1565b928401926101c09290920191600101614698565b50909695505050505050565b80151581146112f757600080fd5b600080604083850312156146ec57600080fd5b82356146f7816144a4565b91506020830135614707816146cb565b809150509250929050565b634e487b7160e01b600052602160045260246000fd5b602081016003831061474a57634e487b7160e01b600052602160045260246000fd5b91905290565b602080825282518282018190526000919060409081850190868401855b8281101561464d57815180511515855286810151878601528501516001600160a01b0316858501526060909301929085019060010161476d565b634e487b7160e01b600052601160045260246000fd5b600082198211156147d0576147d06147a7565b500190565b634e487b7160e01b600052603260045260246000fd5b6000828210156147fd576147fd6147a7565b500390565b60006020828403121561481457600080fd5b5051919050565b60008083128015600160ff1b850184121615614839576148396147a7565b837f7fffffffffffffffffffffffffffffffffffffffffffffffffffffffffffffff01831381161561486d5761486d6147a7565b50500390565b60006020828403121561488557600080fd5b815160ff81168114610b8457600080fd5b60006000198214156148aa576148aa6147a7565b5060010190565b634e487b7160e01b600052604160045260246000fd5b600060ff821660ff8416808210156148e1576148e16147a7565b90039392505050565b600181815b8085111561492557816000190482111561490b5761490b6147a7565b8085161561491857918102915b93841c93908002906148ef565b509250929050565b60008261493c575060016130f1565b81614949575060006130f1565b816001811461495f576002811461496957614985565b60019150506130f1565b60ff84111561497a5761497a6147a7565b50506001821b6130f1565b5060208310610133831016604e8410600b84101617156149a8575081810a6130f1565b6149b283836148ea565b80600019048211156149c6576149c66147a7565b029392505050565b6000610b8460ff84168361492d565b6000826149fa57634e487b7160e01b600052601260045260246000fd5b500490565b634e487b7160e01b600052603160045260246000fd5b6000600160ff1b821415614a2b57614a2b6147a7565b5060000390565b600060208284031215614a4457600080fd5b8151610b84816146cb565b6000816000190483118215151615614a6957614a696147a7565b500290565b60005b83811015614a89578181015183820152602001614a71565b838111156138735750506000910152565b60008251614aac818460208701614a6e565b9190910192915050565b6020815260008251806020840152614ad5816040850160208701614a6e565b601f01601f1916919091016040019291505056fea164736f6c634300080a000a",
  "devdoc": {
    "author": "Andrey Gulitsky",
    "errors": {
      "BaksDAOBorrowBelowMinimumPrincipalAmount()": [
        {
          "details": "Thrown when trying to borrow below minimum principal amount."
        }
      ],
      "BaksDAOBorrowZeroAmount()": [
        {
          "details": "Thrown when borrowing a zero amount of stablecoin."
        }
      ],
      "BaksDAOCollateralTokenAlreadyListed(address)": [
        {
          "details": "Thrown when trying to list collateral token that's already listed.",
          "params": {
            "token": "The address of the collateral token contract."
          }
        }
      ],
      "BaksDAOCollateralTokenNotListed(address)": [
        {
          "details": "Thrown when trying to unlist collateral token that's not listed.",
          "params": {
            "token": "The address of the collateral token contract."
          }
        }
      ],
      "BaksDAOCollateralTokenTooLargeDecimals(address,uint8)": [
        {
          "details": "Thrown when trying to list collateral token that has too large decimals.",
          "params": {
            "token": "The address of the collateral token contract."
          }
        }
      ],
      "BaksDAOCollateralTokenZeroDecimals(address)": [
        {
          "details": "Thrown when trying to list collateral token that has zero decimals.",
          "params": {
            "token": "The address of the collateral token contract."
          }
        }
      ],
      "BaksDAODepositZeroAmount()": [
        {
          "details": "Thrown when depositing a zero amount of collateral token."
        }
      ],
      "BaksDAOInactiveLoan(uint256)": [
        {
          "details": "Thrown when trying to interact with inactive loan with `id` id.",
          "params": {
            "id": "The loan id."
          }
        }
      ],
      "BaksDAOInitialLoanToValueRatioTooHigh(address,uint256)": [
        {
          "details": "Thrown when trying to set initial loan-to-value ratio that higher than margin call or liquidation ones.",
          "params": {
            "initialLoanToValueRatio": "The initial loan-to-value ratio that was tried to set.",
            "token": "The address of the collateral token contract."
          }
        }
      ],
      "BaksDAOLoanIsSubjectToLiquidation(uint256)": [
        {
          "details": "Thrown when trying to interact with loan with `id` id that is subject to liquidation.",
          "params": {
            "id": "The loan id."
          }
        }
      ],
      "BaksDAOLoanNotSubjectToLiquidation(uint256)": [
        {
          "details": "Thrown when trying to liquidate healthy loan with `id` id.",
          "params": {
            "id": "The loan id."
          }
        }
      ],
      "BaksDAONativeCurrencyCollateralNotAllowed(uint256)": [
        {
          "details": "Thrown when trying to deposit native currency collateral to the non-wrapped native currency token loan with `id` id.",
          "params": {
            "id": "The loan id."
          }
        }
      ],
      "BaksDAONoNeedToRebalance()": [
        {
          "details": "Thrown when there's no need to rebalance the platform."
        }
      ],
      "BaksDAORepayZeroAmount()": [
        {
          "details": "Thrown when repaying a zero amount of stablecoin."
        }
      ],
      "BaksDAOStabilizationFundOutOfFunds(uint256)": [
        {
          "details": "Thrown when trying to rebalance the platform and there is a shortage of funds to burn.",
          "params": {
            "shortage": "Shoratge of funds to burn."
          }
        }
      ],
      "BaksDAOTokenNotAllowedAsCollateral(address)": [
        {
          "details": "Thrown when interacting with a token that's not allowed as collateral.",
          "params": {
            "token": "The address of the collateral token contract."
          }
        }
      ],
      "BaksDAOTokenNotAllowedToBeSalvaged(address)": [
        {
          "details": "Thrown when trying to salvage one of allowed collateral tokens or stablecoin.",
          "params": {
            "token": "The address of the token contract."
          }
        }
      ]
    },
    "kind": "dev",
    "methods": {
      "borrow(address,uint256)": {
        "details": "The caller must have allowed this contract to spend a sufficient amount of collateral tokens to cover initial loan-to-value ratio.",
        "params": {
          "amount": "The amount of stablecoin to borrow and issue.",
          "collateralToken": "The address of the collateral token contract."
        }
      },
      "deposit(uint256,uint256)": {
        "details": "The caller must have allowed this contract to spend `amount` of collateral tokens.",
        "params": {
          "amount": "The amount of collateral token to deposit.",
          "loanId": "The loan id."
        }
      },
      "repay(uint256,uint256)": {
        "params": {
          "amount": "The amount of stablecoin to repay.",
          "loanId": "The loan id."
        }
      }
    },
    "title": "Core smart contract of BaksDAO platform",
    "version": 1
  },
  "userdoc": {
    "kind": "user",
    "methods": {
      "borrow(address,uint256)": {
        "notice": "Increases loan's principal on `collateralToken` collateral token and mints `amount` of stablecoin."
      },
      "borrowInNativeCurrency(uint256)": {
        "notice": "Increases loan's principal on wrapped native currency token and mints stablecoin."
      },
      "deposit(uint256,uint256)": {
        "notice": "Deposits `amount` of collateral token to loan with `id` id."
      },
      "depositInNativeCurrency(uint256)": {
        "notice": "Deposits wrapped native currency token to loan with `id` id."
      },
      "repay(uint256,uint256)": {
        "notice": "Decreases principal of loan with `id` id by `amount` of stablecoin."
      }
    },
    "notice": "You should use this contract to interact with the BaksDAO platform.Only this contract can issue stablecoins.",
    "version": 1
  },
  "storageLayout": {
    "storage": [
      {
        "astId": 6857,
        "contract": "contracts/Bank.sol:Bank",
        "label": "initializing",
        "offset": 0,
        "slot": "0",
        "type": "t_bool"
      },
      {
        "astId": 6859,
        "contract": "contracts/Bank.sol:Bank",
        "label": "initialized",
        "offset": 1,
        "slot": "0",
        "type": "t_bool"
      },
      {
        "astId": 4836,
        "contract": "contracts/Bank.sol:Bank",
        "label": "governor",
        "offset": 2,
        "slot": "0",
        "type": "t_address"
      },
      {
        "astId": 4838,
        "contract": "contracts/Bank.sol:Bank",
        "label": "pendingGovernor",
        "offset": 0,
        "slot": "1",
        "type": "t_address"
      },
      {
        "astId": 6575,
        "contract": "contracts/Bank.sol:Bank",
        "label": "status",
        "offset": 0,
        "slot": "2",
        "type": "t_uint256"
      },
      {
        "astId": 193,
        "contract": "contracts/Bank.sol:Bank",
        "label": "wrappedNativeCurrency",
        "offset": 0,
        "slot": "3",
        "type": "t_contract(IWrappedNativeCurrency)5161"
      },
      {
        "astId": 196,
        "contract": "contracts/Bank.sol:Bank",
        "label": "core",
        "offset": 0,
        "slot": "4",
        "type": "t_contract(ICore)2970"
      },
      {
        "astId": 199,
        "contract": "contracts/Bank.sol:Bank",
        "label": "stablecoin",
        "offset": 0,
        "slot": "5",
        "type": "t_contract(IMintableAndBurnableERC20)5073"
      },
      {
        "astId": 202,
        "contract": "contracts/Bank.sol:Bank",
        "label": "priceOracle",
        "offset": 0,
        "slot": "6",
        "type": "t_contract(IPriceOracle)5146"
      },
      {
        "astId": 204,
        "contract": "contracts/Bank.sol:Bank",
        "label": "operator",
        "offset": 0,
        "slot": "7",
        "type": "t_address"
      },
      {
        "astId": 206,
        "contract": "contracts/Bank.sol:Bank",
        "label": "liquidator",
        "offset": 0,
        "slot": "8",
        "type": "t_address"
      },
      {
        "astId": 208,
        "contract": "contracts/Bank.sol:Bank",
        "label": "exchangeFund",
        "offset": 0,
        "slot": "9",
        "type": "t_address"
      },
      {
        "astId": 210,
        "contract": "contracts/Bank.sol:Bank",
        "label": "developmentFund",
        "offset": 0,
        "slot": "10",
        "type": "t_address"
      },
      {
        "astId": 214,
        "contract": "contracts/Bank.sol:Bank",
        "label": "loans",
        "offset": 0,
        "slot": "11",
        "type": "t_array(t_struct(Data)6302_storage)dyn_storage"
      },
      {
        "astId": 219,
        "contract": "contracts/Bank.sol:Bank",
        "label": "loanIds",
        "offset": 0,
        "slot": "12",
        "type": "t_mapping(t_address,t_array(t_uint256)dyn_storage)"
      },
      {
        "astId": 225,
        "contract": "contracts/Bank.sol:Bank",
        "label": "collateralTokens",
        "offset": 0,
        "slot": "13",
        "type": "t_mapping(t_contract(IERC20)5056,t_struct(Data)5565_storage)"
      },
      {
        "astId": 228,
        "contract": "contracts/Bank.sol:Bank",
        "label": "collateralTokensSet",
        "offset": 0,
        "slot": "14",
        "type": "t_struct(Set)5887_storage"
      },
      {
        "astId": 233,
        "contract": "contracts/Bank.sol:Bank",
        "label": "magisters",
        "offset": 0,
        "slot": "16",
        "type": "t_mapping(t_address,t_struct(Magister)184_storage)"
      },
      {
        "astId": 236,
        "contract": "contracts/Bank.sol:Bank",
        "label": "magistersSet",
        "offset": 0,
        "slot": "17",
        "type": "t_struct(Set)5887_storage"
      }
    ],
    "types": {
      "t_address": {
        "encoding": "inplace",
        "label": "address",
        "numberOfBytes": "20"
      },
      "t_array(t_address)dyn_storage": {
        "base": "t_address",
        "encoding": "dynamic_array",
        "label": "address[]",
        "numberOfBytes": "32"
      },
      "t_array(t_struct(Data)6302_storage)dyn_storage": {
        "base": "t_struct(Data)6302_storage",
        "encoding": "dynamic_array",
        "label": "struct Loan.Data[]",
        "numberOfBytes": "32"
      },
      "t_array(t_uint256)dyn_storage": {
        "base": "t_uint256",
        "encoding": "dynamic_array",
        "label": "uint256[]",
        "numberOfBytes": "32"
      },
      "t_bool": {
        "encoding": "inplace",
        "label": "bool",
        "numberOfBytes": "1"
      },
      "t_contract(ICore)2970": {
        "encoding": "inplace",
        "label": "contract ICore",
        "numberOfBytes": "20"
      },
      "t_contract(IERC20)5056": {
        "encoding": "inplace",
        "label": "contract IERC20",
        "numberOfBytes": "20"
      },
      "t_contract(IMintableAndBurnableERC20)5073": {
        "encoding": "inplace",
        "label": "contract IMintableAndBurnableERC20",
        "numberOfBytes": "20"
      },
      "t_contract(IPriceOracle)5146": {
        "encoding": "inplace",
        "label": "contract IPriceOracle",
        "numberOfBytes": "20"
      },
      "t_contract(IWrappedNativeCurrency)5161": {
        "encoding": "inplace",
        "label": "contract IWrappedNativeCurrency",
        "numberOfBytes": "20"
      },
      "t_mapping(t_address,t_array(t_uint256)dyn_storage)": {
        "encoding": "mapping",
        "key": "t_address",
        "label": "mapping(address => uint256[])",
        "numberOfBytes": "32",
        "value": "t_array(t_uint256)dyn_storage"
      },
      "t_mapping(t_address,t_struct(Magister)184_storage)": {
        "encoding": "mapping",
        "key": "t_address",
        "label": "mapping(address => struct Bank.Magister)",
        "numberOfBytes": "32",
        "value": "t_struct(Magister)184_storage"
      },
      "t_mapping(t_address,t_uint256)": {
        "encoding": "mapping",
        "key": "t_address",
        "label": "mapping(address => uint256)",
        "numberOfBytes": "32",
        "value": "t_uint256"
      },
      "t_mapping(t_contract(IERC20)5056,t_struct(Data)5565_storage)": {
        "encoding": "mapping",
        "key": "t_contract(IERC20)5056",
        "label": "mapping(contract IERC20 => struct CollateralToken.Data)",
        "numberOfBytes": "32",
        "value": "t_struct(Data)5565_storage"
      },
      "t_struct(Data)5565_storage": {
        "encoding": "inplace",
        "label": "struct CollateralToken.Data",
        "members": [
          {
            "astId": 5545,
            "contract": "contracts/Bank.sol:Bank",
            "label": "collateralToken",
            "offset": 0,
            "slot": "0",
            "type": "t_contract(IERC20)5056"
          },
          {
            "astId": 5548,
            "contract": "contracts/Bank.sol:Bank",
            "label": "priceOracle",
            "offset": 0,
            "slot": "1",
            "type": "t_contract(IPriceOracle)5146"
          },
          {
            "astId": 5550,
            "contract": "contracts/Bank.sol:Bank",
            "label": "stabilityFee",
            "offset": 0,
            "slot": "2",
            "type": "t_uint256"
          },
          {
            "astId": 5552,
            "contract": "contracts/Bank.sol:Bank",
            "label": "stabilizationFee",
            "offset": 0,
            "slot": "3",
            "type": "t_uint256"
          },
          {
            "astId": 5554,
            "contract": "contracts/Bank.sol:Bank",
            "label": "exchangeFee",
            "offset": 0,
            "slot": "4",
            "type": "t_uint256"
          },
          {
            "astId": 5556,
            "contract": "contracts/Bank.sol:Bank",
            "label": "developmentFee",
            "offset": 0,
            "slot": "5",
            "type": "t_uint256"
          },
          {
            "astId": 5558,
            "contract": "contracts/Bank.sol:Bank",
            "label": "initialLoanToValueRatio",
            "offset": 0,
            "slot": "6",
            "type": "t_uint256"
          },
          {
            "astId": 5560,
            "contract": "contracts/Bank.sol:Bank",
            "label": "marginCallLoanToValueRatio",
            "offset": 0,
            "slot": "7",
            "type": "t_uint256"
          },
          {
            "astId": 5562,
            "contract": "contracts/Bank.sol:Bank",
            "label": "liquidationLoanToValueRatio",
            "offset": 0,
            "slot": "8",
            "type": "t_uint256"
          },
          {
            "astId": 5564,
            "contract": "contracts/Bank.sol:Bank",
            "label": "collateralAmount",
            "offset": 0,
            "slot": "9",
            "type": "t_uint256"
          }
        ],
        "numberOfBytes": "320"
      },
      "t_struct(Data)6302_storage": {
        "encoding": "inplace",
        "label": "struct Loan.Data",
        "members": [
          {
            "astId": 6273,
            "contract": "contracts/Bank.sol:Bank",
            "label": "id",
            "offset": 0,
            "slot": "0",
            "type": "t_uint256"
          },
          {
            "astId": 6275,
            "contract": "contracts/Bank.sol:Bank",
            "label": "isActive",
            "offset": 0,
            "slot": "1",
            "type": "t_bool"
          },
          {
            "astId": 6277,
            "contract": "contracts/Bank.sol:Bank",
            "label": "borrower",
            "offset": 1,
            "slot": "1",
            "type": "t_address"
          },
          {
            "astId": 6280,
            "contract": "contracts/Bank.sol:Bank",
            "label": "collateralToken",
            "offset": 0,
            "slot": "2",
            "type": "t_contract(IERC20)5056"
          },
          {
            "astId": 6282,
            "contract": "contracts/Bank.sol:Bank",
            "label": "isNativeCurrency",
            "offset": 20,
            "slot": "2",
            "type": "t_bool"
          },
          {
            "astId": 6285,
            "contract": "contracts/Bank.sol:Bank",
            "label": "priceOracle",
            "offset": 0,
            "slot": "3",
            "type": "t_contract(IPriceOracle)5146"
          },
          {
            "astId": 6287,
            "contract": "contracts/Bank.sol:Bank",
            "label": "stabilityFee",
            "offset": 0,
            "slot": "4",
            "type": "t_uint256"
          },
          {
            "astId": 6289,
            "contract": "contracts/Bank.sol:Bank",
            "label": "stabilizationFee",
            "offset": 0,
            "slot": "5",
            "type": "t_uint256"
          },
          {
            "astId": 6291,
            "contract": "contracts/Bank.sol:Bank",
            "label": "exchangeFee",
            "offset": 0,
            "slot": "6",
            "type": "t_uint256"
          },
          {
            "astId": 6293,
            "contract": "contracts/Bank.sol:Bank",
            "label": "developmentFee",
            "offset": 0,
            "slot": "7",
            "type": "t_uint256"
          },
          {
            "astId": 6295,
            "contract": "contracts/Bank.sol:Bank",
            "label": "principalAmount",
            "offset": 0,
            "slot": "8",
            "type": "t_uint256"
          },
          {
            "astId": 6297,
            "contract": "contracts/Bank.sol:Bank",
            "label": "collateralAmount",
            "offset": 0,
            "slot": "9",
            "type": "t_uint256"
          },
          {
            "astId": 6299,
            "contract": "contracts/Bank.sol:Bank",
            "label": "lastDepositAt",
            "offset": 0,
            "slot": "10",
            "type": "t_uint256"
          },
          {
            "astId": 6301,
            "contract": "contracts/Bank.sol:Bank",
            "label": "lastRepaymentAt",
            "offset": 0,
            "slot": "11",
            "type": "t_uint256"
          }
        ],
        "numberOfBytes": "384"
      },
      "t_struct(Magister)184_storage": {
        "encoding": "inplace",
        "label": "struct Bank.Magister",
        "members": [
          {
            "astId": 179,
            "contract": "contracts/Bank.sol:Bank",
            "label": "isActive",
            "offset": 0,
            "slot": "0",
            "type": "t_bool"
          },
          {
            "astId": 181,
            "contract": "contracts/Bank.sol:Bank",
            "label": "createdAt",
            "offset": 0,
            "slot": "1",
            "type": "t_uint256"
          },
          {
            "astId": 183,
            "contract": "contracts/Bank.sol:Bank",
            "label": "addr",
            "offset": 0,
            "slot": "2",
            "type": "t_address"
          }
        ],
        "numberOfBytes": "96"
      },
      "t_struct(Set)5887_storage": {
        "encoding": "inplace",
        "label": "struct EnumerableAddressSet.Set",
        "members": [
          {
            "astId": 5882,
            "contract": "contracts/Bank.sol:Bank",
            "label": "elements",
            "offset": 0,
            "slot": "0",
            "type": "t_array(t_address)dyn_storage"
          },
          {
            "astId": 5886,
            "contract": "contracts/Bank.sol:Bank",
            "label": "indexes",
            "offset": 0,
            "slot": "1",
            "type": "t_mapping(t_address,t_uint256)"
          }
        ],
        "numberOfBytes": "64"
      },
      "t_uint256": {
        "encoding": "inplace",
        "label": "uint256",
        "numberOfBytes": "32"
      }
    }
  }
}