{
  "address": "0xA92996A22BF8D705283E6DfE25bB605C7e62eB11",
  "abi": [
    {
      "inputs": [],
      "name": "BaksDAOBorrowBelowMinimumPrincipalAmount",
      "type": "error"
    },
    {
      "inputs": [],
      "name": "BaksDAOBorrowZeroAmount",
      "type": "error"
    },
    {
      "inputs": [
        {
          "internalType": "contract IERC20",
          "name": "token",
          "type": "address"
        }
      ],
      "name": "BaksDAOCollateralTokenAlreadyListed",
      "type": "error"
    },
    {
      "inputs": [
        {
          "internalType": "contract IERC20",
          "name": "token",
          "type": "address"
        }
      ],
      "name": "BaksDAOCollateralTokenNotListed",
      "type": "error"
    },
    {
      "inputs": [
        {
          "internalType": "contract IERC20",
          "name": "token",
          "type": "address"
        },
        {
          "internalType": "uint8",
          "name": "decimals",
          "type": "uint8"
        }
      ],
      "name": "BaksDAOCollateralTokenTooLargeDecimals",
      "type": "error"
    },
    {
      "inputs": [
        {
          "internalType": "contract IERC20",
          "name": "token",
          "type": "address"
        }
      ],
      "name": "BaksDAOCollateralTokenZeroDecimals",
      "type": "error"
    },
    {
      "inputs": [],
      "name": "BaksDAODepositZeroAmount",
      "type": "error"
    },
    {
      "inputs": [
        {
          "internalType": "uint256",
          "name": "id",
          "type": "uint256"
        }
      ],
      "name": "BaksDAOInactiveLoan",
      "type": "error"
    },
    {
      "inputs": [
        {
          "internalType": "contract IERC20",
          "name": "token",
          "type": "address"
        },
        {
          "internalType": "uint256",
          "name": "initialLoanToValueRatio",
          "type": "uint256"
        }
      ],
      "name": "BaksDAOInitialLoanToValueRatioTooHigh",
      "type": "error"
    },
    {
      "inputs": [
        {
          "internalType": "uint256",
          "name": "minimumRequiredSecurityAmount",
          "type": "uint256"
        }
      ],
      "name": "BaksDAOInsufficientSecurityAmount",
      "type": "error"
    },
    {
      "inputs": [
        {
          "internalType": "uint256",
          "name": "id",
          "type": "uint256"
        }
      ],
      "name": "BaksDAOLoanIsSubjectToLiquidation",
      "type": "error"
    },
    {
      "inputs": [
        {
          "internalType": "uint256",
          "name": "id",
          "type": "uint256"
        }
      ],
      "name": "BaksDAOLoanNotSubjectToLiquidation",
      "type": "error"
    },
    {
      "inputs": [
        {
          "internalType": "uint256",
          "name": "id",
          "type": "uint256"
        }
      ],
      "name": "BaksDAONativeCurrencyCollateralNotAllowed",
      "type": "error"
    },
    {
      "inputs": [],
      "name": "BaksDAONativeCurrencyTransferFailed",
      "type": "error"
    },
    {
      "inputs": [],
      "name": "BaksDAONoNeedToRebalance",
      "type": "error"
    },
    {
      "inputs": [],
      "name": "BaksDAOOnlyDepositaryAllowed",
      "type": "error"
    },
    {
      "inputs": [],
      "name": "BaksDAOPlainNativeCurrencyTransferNotAllowed",
      "type": "error"
    },
    {
      "inputs": [],
      "name": "BaksDAORepayZeroAmount",
      "type": "error"
    },
    {
      "inputs": [
        {
          "internalType": "uint256",
          "name": "shortage",
          "type": "uint256"
        }
      ],
      "name": "BaksDAOStabilizationFundOutOfFunds",
      "type": "error"
    },
    {
      "inputs": [
        {
          "internalType": "contract IERC20",
          "name": "token",
          "type": "address"
        }
      ],
      "name": "BaksDAOTokenNotAllowedAsCollateral",
      "type": "error"
    },
    {
      "inputs": [
        {
          "internalType": "contract IERC20",
          "name": "token",
          "type": "address"
        }
      ],
      "name": "BaksDAOTokenNotAllowedToBeSalvaged",
      "type": "error"
    },
    {
      "inputs": [
        {
          "internalType": "address",
          "name": "target",
          "type": "address"
        }
      ],
      "name": "CallToNonContract",
      "type": "error"
    },
    {
      "inputs": [],
      "name": "ContractAlreadyInitialized",
      "type": "error"
    },
    {
      "inputs": [
        {
          "internalType": "uint256",
          "name": "prod1",
          "type": "uint256"
        },
        {
          "internalType": "uint256",
          "name": "denominator",
          "type": "uint256"
        }
      ],
      "name": "FixedPointMathMulDivOverflow",
      "type": "error"
    },
    {
      "inputs": [],
      "name": "GovernedCantGoverItself",
      "type": "error"
    },
    {
      "inputs": [],
      "name": "GovernedGovernorZeroAddress",
      "type": "error"
    },
    {
      "inputs": [],
      "name": "GovernedOnlyGovernorAllowedToCall",
      "type": "error"
    },
    {
      "inputs": [],
      "name": "GovernedOnlyPendingGovernorAllowedToCall",
      "type": "error"
    },
    {
      "inputs": [],
      "name": "ReentrancyGuardReentrantCall",
      "type": "error"
    },
    {
      "inputs": [],
      "name": "SafeERC20NoReturnData",
      "type": "error"
    },
    {
      "anonymous": false,
      "inputs": [
        {
          "indexed": true,
          "internalType": "uint256",
          "name": "id",
          "type": "uint256"
        },
        {
          "indexed": true,
          "internalType": "address",
          "name": "borrower",
          "type": "address"
        },
        {
          "indexed": true,
          "internalType": "contract IERC20",
          "name": "token",
          "type": "address"
        },
        {
          "indexed": false,
          "internalType": "uint256",
          "name": "principalAmount",
          "type": "uint256"
        },
        {
          "indexed": false,
          "internalType": "uint256",
          "name": "collateralAmount",
          "type": "uint256"
        },
        {
          "indexed": false,
          "internalType": "uint256",
          "name": "initialLoanToValueRatio",
          "type": "uint256"
        }
      ],
      "name": "Borrow",
      "type": "event"
    },
    {
      "anonymous": false,
      "inputs": [
        {
          "indexed": true,
          "internalType": "contract IERC20",
          "name": "token",
          "type": "address"
        }
      ],
      "name": "CollateralTokenListed",
      "type": "event"
    },
    {
      "anonymous": false,
      "inputs": [
        {
          "indexed": true,
          "internalType": "contract IERC20",
          "name": "token",
          "type": "address"
        }
      ],
      "name": "CollateralTokenUnlisted",
      "type": "event"
    },
    {
      "anonymous": false,
      "inputs": [
        {
          "indexed": true,
          "internalType": "uint256",
          "name": "id",
          "type": "uint256"
        },
        {
          "indexed": false,
          "internalType": "uint256",
          "name": "collateralAmount",
          "type": "uint256"
        }
      ],
      "name": "Deposit",
      "type": "event"
    },
    {
      "anonymous": false,
      "inputs": [
        {
          "indexed": true,
          "internalType": "address",
          "name": "governor",
          "type": "address"
        },
        {
          "indexed": true,
          "internalType": "address",
          "name": "newGovernor",
          "type": "address"
        }
      ],
      "name": "GovernanceTransited",
      "type": "event"
    },
    {
      "anonymous": false,
      "inputs": [
        {
          "indexed": true,
          "internalType": "contract IERC20",
          "name": "token",
          "type": "address"
        },
        {
          "indexed": false,
          "internalType": "uint256",
          "name": "initialLoanToValueRatio",
          "type": "uint256"
        },
        {
          "indexed": false,
          "internalType": "uint256",
          "name": "newInitialLoanToValueRatio",
          "type": "uint256"
        }
      ],
      "name": "InitialLoanToValueRatioUpdated",
      "type": "event"
    },
    {
      "anonymous": false,
      "inputs": [
        {
          "indexed": true,
          "internalType": "uint256",
          "name": "id",
          "type": "uint256"
        }
      ],
      "name": "Liquidated",
      "type": "event"
    },
    {
      "anonymous": false,
      "inputs": [
        {
          "indexed": true,
          "internalType": "address",
          "name": "governor",
          "type": "address"
        },
        {
          "indexed": true,
          "internalType": "address",
          "name": "newGovernor",
          "type": "address"
        }
      ],
      "name": "PendingGovernanceTransition",
      "type": "event"
    },
    {
      "anonymous": false,
      "inputs": [
        {
          "indexed": false,
          "internalType": "int256",
          "name": "delta",
          "type": "int256"
        }
      ],
      "name": "Rebalance",
      "type": "event"
    },
    {
      "anonymous": false,
      "inputs": [
        {
          "indexed": true,
          "internalType": "uint256",
          "name": "id",
          "type": "uint256"
        }
      ],
      "name": "Repaid",
      "type": "event"
    },
    {
      "anonymous": false,
      "inputs": [
        {
          "indexed": true,
          "internalType": "uint256",
          "name": "id",
          "type": "uint256"
        },
        {
          "indexed": false,
          "internalType": "uint256",
          "name": "principalAmount",
          "type": "uint256"
        }
      ],
      "name": "Repay",
      "type": "event"
    },
    {
      "inputs": [],
      "name": "acceptGovernance",
      "outputs": [],
      "stateMutability": "nonpayable",
      "type": "function"
    },
    {
      "inputs": [
        {
          "internalType": "contract IERC20",
          "name": "collateralToken",
          "type": "address"
        },
        {
          "internalType": "uint256",
          "name": "amount",
          "type": "uint256"
        }
      ],
      "name": "borrow",
      "outputs": [
        {
          "components": [
            {
              "internalType": "uint256",
              "name": "id",
              "type": "uint256"
            },
            {
              "internalType": "bool",
              "name": "isActive",
              "type": "bool"
            },
            {
              "internalType": "address",
              "name": "borrower",
              "type": "address"
            },
            {
              "internalType": "contract IERC20",
              "name": "collateralToken",
              "type": "address"
            },
            {
              "internalType": "bool",
              "name": "isNativeCurrency",
              "type": "bool"
            },
            {
              "internalType": "contract IPriceOracle",
              "name": "priceOracle",
              "type": "address"
            },
            {
              "internalType": "uint256",
              "name": "stabilityFee",
              "type": "uint256"
            },
            {
              "internalType": "uint256",
              "name": "stabilizationFee",
              "type": "uint256"
            },
            {
              "internalType": "uint256",
              "name": "exchangeFee",
              "type": "uint256"
            },
            {
              "internalType": "uint256",
              "name": "developmentFee",
              "type": "uint256"
            },
            {
              "internalType": "uint256",
              "name": "principalAmount",
              "type": "uint256"
            },
            {
              "internalType": "uint256",
              "name": "collateralAmount",
              "type": "uint256"
            },
            {
              "internalType": "uint256",
              "name": "lastDepositAt",
              "type": "uint256"
            },
            {
              "internalType": "uint256",
              "name": "lastRepaymentAt",
              "type": "uint256"
            }
          ],
          "internalType": "struct Loan.Data",
          "name": "",
          "type": "tuple"
        }
      ],
      "stateMutability": "nonpayable",
      "type": "function"
    },
    {
      "inputs": [
        {
          "internalType": "uint256",
          "name": "amount",
          "type": "uint256"
        }
      ],
      "name": "borrowInNativeCurrency",
      "outputs": [
        {
          "components": [
            {
              "internalType": "uint256",
              "name": "id",
              "type": "uint256"
            },
            {
              "internalType": "bool",
              "name": "isActive",
              "type": "bool"
            },
            {
              "internalType": "address",
              "name": "borrower",
              "type": "address"
            },
            {
              "internalType": "contract IERC20",
              "name": "collateralToken",
              "type": "address"
            },
            {
              "internalType": "bool",
              "name": "isNativeCurrency",
              "type": "bool"
            },
            {
              "internalType": "contract IPriceOracle",
              "name": "priceOracle",
              "type": "address"
            },
            {
              "internalType": "uint256",
              "name": "stabilityFee",
              "type": "uint256"
            },
            {
              "internalType": "uint256",
              "name": "stabilizationFee",
              "type": "uint256"
            },
            {
              "internalType": "uint256",
              "name": "exchangeFee",
              "type": "uint256"
            },
            {
              "internalType": "uint256",
              "name": "developmentFee",
              "type": "uint256"
            },
            {
              "internalType": "uint256",
              "name": "principalAmount",
              "type": "uint256"
            },
            {
              "internalType": "uint256",
              "name": "collateralAmount",
              "type": "uint256"
            },
            {
              "internalType": "uint256",
              "name": "lastDepositAt",
              "type": "uint256"
            },
            {
              "internalType": "uint256",
              "name": "lastRepaymentAt",
              "type": "uint256"
            }
          ],
          "internalType": "struct Loan.Data",
          "name": "",
          "type": "tuple"
        }
      ],
      "stateMutability": "payable",
      "type": "function"
    },
    {
      "inputs": [
        {
          "internalType": "contract IERC20",
          "name": "collateralToken",
          "type": "address"
        },
        {
          "internalType": "uint256",
          "name": "collateralAmount",
          "type": "uint256"
        }
      ],
      "name": "calculateLoanByCollateralAmount",
      "outputs": [
        {
          "components": [
            {
              "internalType": "uint256",
              "name": "id",
              "type": "uint256"
            },
            {
              "internalType": "bool",
              "name": "isActive",
              "type": "bool"
            },
            {
              "internalType": "address",
              "name": "borrower",
              "type": "address"
            },
            {
              "internalType": "contract IERC20",
              "name": "collateralToken",
              "type": "address"
            },
            {
              "internalType": "bool",
              "name": "isNativeCurrency",
              "type": "bool"
            },
            {
              "internalType": "contract IPriceOracle",
              "name": "priceOracle",
              "type": "address"
            },
            {
              "internalType": "uint256",
              "name": "stabilityFee",
              "type": "uint256"
            },
            {
              "internalType": "uint256",
              "name": "stabilizationFee",
              "type": "uint256"
            },
            {
              "internalType": "uint256",
              "name": "exchangeFee",
              "type": "uint256"
            },
            {
              "internalType": "uint256",
              "name": "developmentFee",
              "type": "uint256"
            },
            {
              "internalType": "uint256",
              "name": "principalAmount",
              "type": "uint256"
            },
            {
              "internalType": "uint256",
              "name": "collateralAmount",
              "type": "uint256"
            },
            {
              "internalType": "uint256",
              "name": "lastDepositAt",
              "type": "uint256"
            },
            {
              "internalType": "uint256",
              "name": "lastRepaymentAt",
              "type": "uint256"
            }
          ],
          "internalType": "struct Loan.Data",
          "name": "loan",
          "type": "tuple"
        }
      ],
      "stateMutability": "view",
      "type": "function"
    },
    {
      "inputs": [
        {
          "internalType": "contract IERC20",
          "name": "collateralToken",
          "type": "address"
        },
        {
          "internalType": "uint256",
          "name": "principalAmount",
          "type": "uint256"
        }
      ],
      "name": "calculateLoanByPrincipalAmount",
      "outputs": [
        {
          "components": [
            {
              "internalType": "uint256",
              "name": "id",
              "type": "uint256"
            },
            {
              "internalType": "bool",
              "name": "isActive",
              "type": "bool"
            },
            {
              "internalType": "address",
              "name": "borrower",
              "type": "address"
            },
            {
              "internalType": "contract IERC20",
              "name": "collateralToken",
              "type": "address"
            },
            {
              "internalType": "bool",
              "name": "isNativeCurrency",
              "type": "bool"
            },
            {
              "internalType": "contract IPriceOracle",
              "name": "priceOracle",
              "type": "address"
            },
            {
              "internalType": "uint256",
              "name": "stabilityFee",
              "type": "uint256"
            },
            {
              "internalType": "uint256",
              "name": "stabilizationFee",
              "type": "uint256"
            },
            {
              "internalType": "uint256",
              "name": "exchangeFee",
              "type": "uint256"
            },
            {
              "internalType": "uint256",
              "name": "developmentFee",
              "type": "uint256"
            },
            {
              "internalType": "uint256",
              "name": "principalAmount",
              "type": "uint256"
            },
            {
              "internalType": "uint256",
              "name": "collateralAmount",
              "type": "uint256"
            },
            {
              "internalType": "uint256",
              "name": "lastDepositAt",
              "type": "uint256"
            },
            {
              "internalType": "uint256",
              "name": "lastRepaymentAt",
              "type": "uint256"
            }
          ],
          "internalType": "struct Loan.Data",
          "name": "loan",
          "type": "tuple"
        }
      ],
      "stateMutability": "view",
      "type": "function"
    },
    {
      "inputs": [
        {
          "internalType": "contract IERC20",
          "name": "collateralToken",
          "type": "address"
        },
        {
          "internalType": "uint256",
          "name": "securityAmount",
          "type": "uint256"
        }
      ],
      "name": "calculateLoanBySecurityAmount",
      "outputs": [
        {
          "components": [
            {
              "internalType": "uint256",
              "name": "id",
              "type": "uint256"
            },
            {
              "internalType": "bool",
              "name": "isActive",
              "type": "bool"
            },
            {
              "internalType": "address",
              "name": "borrower",
              "type": "address"
            },
            {
              "internalType": "contract IERC20",
              "name": "collateralToken",
              "type": "address"
            },
            {
              "internalType": "bool",
              "name": "isNativeCurrency",
              "type": "bool"
            },
            {
              "internalType": "contract IPriceOracle",
              "name": "priceOracle",
              "type": "address"
            },
            {
              "internalType": "uint256",
              "name": "stabilityFee",
              "type": "uint256"
            },
            {
              "internalType": "uint256",
              "name": "stabilizationFee",
              "type": "uint256"
            },
            {
              "internalType": "uint256",
              "name": "exchangeFee",
              "type": "uint256"
            },
            {
              "internalType": "uint256",
              "name": "developmentFee",
              "type": "uint256"
            },
            {
              "internalType": "uint256",
              "name": "principalAmount",
              "type": "uint256"
            },
            {
              "internalType": "uint256",
              "name": "collateralAmount",
              "type": "uint256"
            },
            {
              "internalType": "uint256",
              "name": "lastDepositAt",
              "type": "uint256"
            },
            {
              "internalType": "uint256",
              "name": "lastRepaymentAt",
              "type": "uint256"
            }
          ],
          "internalType": "struct Loan.Data",
          "name": "loan",
          "type": "tuple"
        }
      ],
      "stateMutability": "view",
      "type": "function"
    },
    {
      "inputs": [
        {
          "internalType": "uint256",
          "name": "loanId",
          "type": "uint256"
        }
      ],
      "name": "checkHealth",
      "outputs": [
        {
          "internalType": "enum Bank.Health",
          "name": "health",
          "type": "uint8"
        }
      ],
      "stateMutability": "view",
      "type": "function"
    },
    {
      "inputs": [
        {
          "internalType": "contract IERC20",
          "name": "",
          "type": "address"
        }
      ],
      "name": "collateralTokens",
      "outputs": [
        {
          "internalType": "contract IERC20",
          "name": "collateralToken",
          "type": "address"
        },
        {
          "internalType": "contract IPriceOracle",
          "name": "priceOracle",
          "type": "address"
        },
        {
          "internalType": "uint256",
          "name": "stabilityFee",
          "type": "uint256"
        },
        {
          "internalType": "uint256",
          "name": "stabilizationFee",
          "type": "uint256"
        },
        {
          "internalType": "uint256",
          "name": "exchangeFee",
          "type": "uint256"
        },
        {
          "internalType": "uint256",
          "name": "developmentFee",
          "type": "uint256"
        },
        {
          "internalType": "uint256",
          "name": "initialLoanToValueRatio",
          "type": "uint256"
        },
        {
          "internalType": "uint256",
          "name": "marginCallLoanToValueRatio",
          "type": "uint256"
        },
        {
          "internalType": "uint256",
          "name": "liquidationLoanToValueRatio",
          "type": "uint256"
        },
        {
          "internalType": "uint256",
          "name": "collateralAmount",
          "type": "uint256"
        }
      ],
      "stateMutability": "view",
      "type": "function"
    },
    {
      "inputs": [],
      "name": "core",
      "outputs": [
        {
          "internalType": "contract ICore",
          "name": "",
          "type": "address"
        }
      ],
      "stateMutability": "view",
      "type": "function"
    },
    {
      "inputs": [
        {
          "internalType": "uint256",
          "name": "loanId",
          "type": "uint256"
        },
        {
          "internalType": "uint256",
          "name": "amount",
          "type": "uint256"
        }
      ],
      "name": "deposit",
      "outputs": [],
      "stateMutability": "nonpayable",
      "type": "function"
    },
    {
      "inputs": [
        {
          "internalType": "uint256",
          "name": "loanId",
          "type": "uint256"
        }
      ],
      "name": "depositInNativeCurrency",
      "outputs": [],
      "stateMutability": "payable",
      "type": "function"
    },
    {
      "inputs": [],
      "name": "depositary",
      "outputs": [
        {
          "internalType": "contract IDepositary",
          "name": "",
          "type": "address"
        }
      ],
      "stateMutability": "view",
      "type": "function"
    },
    {
      "inputs": [],
      "name": "developmentFund",
      "outputs": [
        {
          "internalType": "address",
          "name": "",
          "type": "address"
        }
      ],
      "stateMutability": "view",
      "type": "function"
    },
    {
      "inputs": [],
      "name": "exchangeFund",
      "outputs": [
        {
          "internalType": "address",
          "name": "",
          "type": "address"
        }
      ],
      "stateMutability": "view",
      "type": "function"
    },
    {
      "inputs": [],
      "name": "getAllowedCollateralTokens",
      "outputs": [
        {
          "components": [
            {
              "internalType": "contract IERC20",
              "name": "collateralToken",
              "type": "address"
            },
            {
              "internalType": "contract IPriceOracle",
              "name": "priceOracle",
              "type": "address"
            },
            {
              "internalType": "uint256",
              "name": "stabilityFee",
              "type": "uint256"
            },
            {
              "internalType": "uint256",
              "name": "stabilizationFee",
              "type": "uint256"
            },
            {
              "internalType": "uint256",
              "name": "exchangeFee",
              "type": "uint256"
            },
            {
              "internalType": "uint256",
              "name": "developmentFee",
              "type": "uint256"
            },
            {
              "internalType": "uint256",
              "name": "initialLoanToValueRatio",
              "type": "uint256"
            },
            {
              "internalType": "uint256",
              "name": "marginCallLoanToValueRatio",
              "type": "uint256"
            },
            {
              "internalType": "uint256",
              "name": "liquidationLoanToValueRatio",
              "type": "uint256"
            },
            {
              "internalType": "uint256",
              "name": "collateralAmount",
              "type": "uint256"
            }
          ],
          "internalType": "struct CollateralToken.Data[]",
          "name": "allowedCollateralTokens",
          "type": "tuple[]"
        }
      ],
      "stateMutability": "view",
      "type": "function"
    },
    {
      "inputs": [
        {
          "internalType": "uint256",
          "name": "loanId",
          "type": "uint256"
        }
      ],
      "name": "getLoanToValueRatio",
      "outputs": [
        {
          "internalType": "uint256",
          "name": "loanToValueRatio",
          "type": "uint256"
        }
      ],
      "stateMutability": "view",
      "type": "function"
    },
    {
      "inputs": [
        {
          "internalType": "address",
          "name": "borrower",
          "type": "address"
        }
      ],
      "name": "getLoans",
      "outputs": [
        {
          "components": [
            {
              "internalType": "uint256",
              "name": "id",
              "type": "uint256"
            },
            {
              "internalType": "bool",
              "name": "isActive",
              "type": "bool"
            },
            {
              "internalType": "address",
              "name": "borrower",
              "type": "address"
            },
            {
              "internalType": "contract IERC20",
              "name": "collateralToken",
              "type": "address"
            },
            {
              "internalType": "bool",
              "name": "isNativeCurrency",
              "type": "bool"
            },
            {
              "internalType": "contract IPriceOracle",
              "name": "priceOracle",
              "type": "address"
            },
            {
              "internalType": "uint256",
              "name": "stabilityFee",
              "type": "uint256"
            },
            {
              "internalType": "uint256",
              "name": "stabilizationFee",
              "type": "uint256"
            },
            {
              "internalType": "uint256",
              "name": "exchangeFee",
              "type": "uint256"
            },
            {
              "internalType": "uint256",
              "name": "developmentFee",
              "type": "uint256"
            },
            {
              "internalType": "uint256",
              "name": "principalAmount",
              "type": "uint256"
            },
            {
              "internalType": "uint256",
              "name": "collateralAmount",
              "type": "uint256"
            },
            {
              "internalType": "uint256",
              "name": "lastDepositAt",
              "type": "uint256"
            },
            {
              "internalType": "uint256",
              "name": "lastRepaymentAt",
              "type": "uint256"
            }
          ],
          "internalType": "struct Loan.Data[]",
          "name": "_loans",
          "type": "tuple[]"
        }
      ],
      "stateMutability": "view",
      "type": "function"
    },
    {
      "inputs": [],
      "name": "getTotalValueLocked",
      "outputs": [
        {
          "internalType": "uint256",
          "name": "totalValueLocked",
          "type": "uint256"
        }
      ],
      "stateMutability": "view",
      "type": "function"
    },
    {
      "inputs": [],
      "name": "governor",
      "outputs": [
        {
          "internalType": "address",
          "name": "",
          "type": "address"
        }
      ],
      "stateMutability": "view",
      "type": "function"
    },
    {
      "inputs": [
        {
          "internalType": "contract IWrappedNativeCurrency",
          "name": "_wrappedNativeCurrency",
          "type": "address"
        },
        {
          "internalType": "contract ICore",
          "name": "_core",
          "type": "address"
        },
        {
          "internalType": "contract IMintableAndBurnableERC20",
          "name": "_stablecoin",
          "type": "address"
        },
        {
          "internalType": "contract IPriceOracle",
          "name": "_priceOracle",
          "type": "address"
        },
        {
          "internalType": "contract IDepositary",
          "name": "_depositary",
          "type": "address"
        },
        {
          "internalType": "address",
          "name": "_operator",
          "type": "address"
        },
        {
          "internalType": "address",
          "name": "_liquidator",
          "type": "address"
        },
        {
          "internalType": "address",
          "name": "_exchangeFund",
          "type": "address"
        },
        {
          "internalType": "address",
          "name": "_developmentFund",
          "type": "address"
        }
      ],
      "name": "initialize",
      "outputs": [],
      "stateMutability": "nonpayable",
      "type": "function"
    },
    {
      "inputs": [
        {
          "internalType": "uint256",
          "name": "loanId",
          "type": "uint256"
        }
      ],
      "name": "liquidate",
      "outputs": [],
      "stateMutability": "nonpayable",
      "type": "function"
    },
    {
      "inputs": [],
      "name": "liquidator",
      "outputs": [
        {
          "internalType": "address",
          "name": "",
          "type": "address"
        }
      ],
      "stateMutability": "view",
      "type": "function"
    },
    {
      "inputs": [
        {
          "internalType": "contract IERC20",
          "name": "token",
          "type": "address"
        },
        {
          "internalType": "uint256",
          "name": "initialLoanToValueRatio",
          "type": "uint256"
        }
      ],
      "name": "listCollateralToken",
      "outputs": [],
      "stateMutability": "nonpayable",
      "type": "function"
    },
    {
      "inputs": [
        {
          "internalType": "address",
          "name": "",
          "type": "address"
        },
        {
          "internalType": "uint256",
          "name": "",
          "type": "uint256"
        }
      ],
      "name": "loanIds",
      "outputs": [
        {
          "internalType": "uint256",
          "name": "",
          "type": "uint256"
        }
      ],
      "stateMutability": "view",
      "type": "function"
    },
    {
      "inputs": [
        {
          "internalType": "uint256",
          "name": "",
          "type": "uint256"
        }
      ],
      "name": "loans",
      "outputs": [
        {
          "internalType": "uint256",
          "name": "id",
          "type": "uint256"
        },
        {
          "internalType": "bool",
          "name": "isActive",
          "type": "bool"
        },
        {
          "internalType": "address",
          "name": "borrower",
          "type": "address"
        },
        {
          "internalType": "contract IERC20",
          "name": "collateralToken",
          "type": "address"
        },
        {
          "internalType": "bool",
          "name": "isNativeCurrency",
          "type": "bool"
        },
        {
          "internalType": "contract IPriceOracle",
          "name": "priceOracle",
          "type": "address"
        },
        {
          "internalType": "uint256",
          "name": "stabilityFee",
          "type": "uint256"
        },
        {
          "internalType": "uint256",
          "name": "stabilizationFee",
          "type": "uint256"
        },
        {
          "internalType": "uint256",
          "name": "exchangeFee",
          "type": "uint256"
        },
        {
          "internalType": "uint256",
          "name": "developmentFee",
          "type": "uint256"
        },
        {
          "internalType": "uint256",
          "name": "principalAmount",
          "type": "uint256"
        },
        {
          "internalType": "uint256",
          "name": "collateralAmount",
          "type": "uint256"
        },
        {
          "internalType": "uint256",
          "name": "lastDepositAt",
          "type": "uint256"
        },
        {
          "internalType": "uint256",
          "name": "lastRepaymentAt",
          "type": "uint256"
        }
      ],
      "stateMutability": "view",
      "type": "function"
    },
    {
      "inputs": [
        {
          "internalType": "contract IERC20",
          "name": "token",
          "type": "address"
        },
        {
          "internalType": "uint256",
          "name": "amount",
          "type": "uint256"
        }
      ],
      "name": "onNewDeposit",
      "outputs": [],
      "stateMutability": "nonpayable",
      "type": "function"
    },
    {
      "inputs": [],
      "name": "operator",
      "outputs": [
        {
          "internalType": "address",
          "name": "",
          "type": "address"
        }
      ],
      "stateMutability": "view",
      "type": "function"
    },
    {
      "inputs": [],
      "name": "pendingGovernor",
      "outputs": [
        {
          "internalType": "address",
          "name": "",
          "type": "address"
        }
      ],
      "stateMutability": "view",
      "type": "function"
    },
    {
      "inputs": [],
      "name": "priceOracle",
      "outputs": [
        {
          "internalType": "contract IPriceOracle",
          "name": "",
          "type": "address"
        }
      ],
      "stateMutability": "view",
      "type": "function"
    },
    {
      "inputs": [],
      "name": "rebalance",
      "outputs": [],
      "stateMutability": "nonpayable",
      "type": "function"
    },
    {
      "inputs": [
        {
          "internalType": "uint256",
          "name": "loanId",
          "type": "uint256"
        },
        {
          "internalType": "uint256",
          "name": "amount",
          "type": "uint256"
        }
      ],
      "name": "repay",
      "outputs": [],
      "stateMutability": "nonpayable",
      "type": "function"
    },
    {
      "inputs": [
        {
          "internalType": "contract IERC20",
          "name": "token",
          "type": "address"
        }
      ],
      "name": "salvage",
      "outputs": [],
      "stateMutability": "nonpayable",
      "type": "function"
    },
    {
      "inputs": [
        {
          "internalType": "contract IDepositary",
          "name": "_depositary",
          "type": "address"
        }
      ],
      "name": "setDepositary",
      "outputs": [],
      "stateMutability": "nonpayable",
      "type": "function"
    },
    {
      "inputs": [
        {
          "internalType": "contract IERC20",
          "name": "token",
          "type": "address"
        },
        {
          "internalType": "uint256",
          "name": "newInitialLoanToValueRatio",
          "type": "uint256"
        }
      ],
      "name": "setInitialLoanToValueRatio",
      "outputs": [],
      "stateMutability": "nonpayable",
      "type": "function"
    },
    {
      "inputs": [],
      "name": "stablecoin",
      "outputs": [
        {
          "internalType": "contract IMintableAndBurnableERC20",
          "name": "",
          "type": "address"
        }
      ],
      "stateMutability": "view",
      "type": "function"
    },
    {
      "inputs": [
        {
          "internalType": "address",
          "name": "newGovernor",
          "type": "address"
        },
        {
          "internalType": "bool",
          "name": "force",
          "type": "bool"
        }
      ],
      "name": "transitGovernance",
      "outputs": [],
      "stateMutability": "nonpayable",
      "type": "function"
    },
    {
      "inputs": [
        {
          "internalType": "contract IERC20",
          "name": "token",
          "type": "address"
        }
      ],
      "name": "unlistCollateralToken",
      "outputs": [],
      "stateMutability": "nonpayable",
      "type": "function"
    },
    {
      "inputs": [],
      "name": "wrappedNativeCurrency",
      "outputs": [
        {
          "internalType": "contract IWrappedNativeCurrency",
          "name": "",
          "type": "address"
        }
      ],
      "stateMutability": "view",
      "type": "function"
    },
    {
      "stateMutability": "payable",
      "type": "receive"
    }
  ],
  "transactionHash": "0x98fff8f6fcf8c80bc57e47b11c1f6836c365864770fb491c6ef289bb13fb49cf",
  "args": [],
  "solcInputHash": "ec0af5b9c8d7f1e92f8b42cb7156d274",
  "bytecode": "0x608060405234801561001057600080fd5b50614bbb806100206000396000f3fe6080604052600436106102895760003560e01c80638fa1552e11610153578063ddc12526116100cb578063e39302491161007f578063e9cbd82211610064578063e9cbd8221461086b578063f2f4eb261461088b578063f5e95acb146108ab57600080fd5b8063e39302491461082b578063e7f3028c1461084b57600080fd5b8063e1ec3c68116100b0578063e1ec3c6814610751578063e2bbb158146107eb578063e3056a341461080b57600080fd5b8063ddc1252614610704578063dfe8f6711461072457600080fd5b8063cf17622511610122578063d34cf64c11610107578063d34cf64c146106a4578063d8aed145146106b7578063d988ef20146106d757600080fd5b8063cf176225146105b4578063cffbc297146105d657600080fd5b80638fa1552e1461053f578063b26025aa1461055f578063b38e481614610574578063c78bede81461059457600080fd5b806344dbdd90116102015780637d7c2a1c116101b557806387eae8191161019a57806387eae819146104df5780638a2381d7146104ff5780638e877d991461051f57600080fd5b80637d7c2a1c146104aa578063863a03e0146104bf57600080fd5b80634b8a3529116101e65780634b8a35291461044a5780634c12d4711461046a578063570ca7351461048a57600080fd5b806344dbdd901461040a5780634721f2db1461042a57600080fd5b80632231ffaf116102585780632630c12f1161023d5780632630c12f146103aa5780634046ebae146103ca578063415f1240146103ea57600080fd5b80632231ffaf14610375578063238efcbc1461039557600080fd5b80630b5a017a146102c05780630c340a24146102e95780630e060378146103275780631cec9e751461034757600080fd5b366102bb576003546001600160a01b031633146102b957604051634b908c4f60e01b815260040160405180910390fd5b005b600080fd5b6102d36102ce3660046144b1565b6108cb565b6040516102e0919061459e565b60405180910390f35b3480156102f557600080fd5b5060005461030f906201000090046001600160a01b031681565b6040516001600160a01b0390911681526020016102e0565b34801561033357600080fd5b5060105461030f906001600160a01b031681565b34801561035357600080fd5b506103676103623660046144b1565b610a91565b6040519081526020016102e0565b34801561038157600080fd5b506102b96103903660046145c2565b610b89565b3480156103a157600080fd5b506102b9610bdc565b3480156103b657600080fd5b5060065461030f906001600160a01b031681565b3480156103d657600080fd5b5060085461030f906001600160a01b031681565b3480156103f657600080fd5b506102b96104053660046144b1565b610c71565b34801561041657600080fd5b506102d36104253660046145df565b610fca565b34801561043657600080fd5b506102b96104453660046145df565b61106a565b34801561045657600080fd5b506102d36104653660046145df565b61117f565b34801561047657600080fd5b5060095461030f906001600160a01b031681565b34801561049657600080fd5b5060075461030f906001600160a01b031681565b3480156104b657600080fd5b506102b9611267565b3480156104cb57600080fd5b506102b96104da3660046145c2565b61157d565b3480156104eb57600080fd5b506102b96104fa3660046145df565b611694565b34801561050b57600080fd5b50600a5461030f906001600160a01b031681565b34801561052b57600080fd5b506102b961053a3660046145df565b611c92565b34801561054b57600080fd5b506102d361055a3660046145df565b611faf565b34801561056b57600080fd5b5061036761204f565b34801561058057600080fd5b506102d361058f3660046145df565b6121bf565b3480156105a057600080fd5b506102b96105af3660046145c2565b61225f565b3480156105c057600080fd5b506105c9612375565b6040516102e0919061460b565b3480156105e257600080fd5b5061064f6105f13660046145c2565b600d6020526000908152604090208054600182015460028301546003840154600485015460058601546006870154600788015460088901546009909901546001600160a01b039889169997909816979596949593949293919290918a565b604080516001600160a01b039b8c1681529a90991660208b0152978901969096526060880194909452608087019290925260a086015260c085015260e0840152610100830152610120820152610140016102e0565b6102b96106b23660046144b1565b612527565b3480156106c357600080fd5b506102b96106d23660046146ba565b6126c6565b3480156106e357600080fd5b506106f76106f23660046145c2565b612ab3565b6040516102e091906146dc565b34801561071057600080fd5b506102b961071f366004614739565b612c81565b34801561073057600080fd5b5061074461073f3660046144b1565b612d6f565b6040516102e09190614788565b34801561075d57600080fd5b5061077161076c3660046144b1565b612e84565b604080519e8f529c151560208f01526001600160a01b039b8c169c8e019c909c52988a1660608d015296151560808c01529790941660a08a015260c089019290925260e08801526101008701526101208601526101408501929092526101608401919091526101808301526101a08201526101c0016102e0565b3480156107f757600080fd5b506102b96108063660046146ba565b612f10565b34801561081757600080fd5b5060015461030f906001600160a01b031681565b34801561083757600080fd5b506103676108463660046145df565b613024565b34801561085757600080fd5b5060035461030f906001600160a01b031681565b34801561087757600080fd5b5060055461030f906001600160a01b031681565b34801561089757600080fd5b5060045461030f906001600160a01b031681565b3480156108b757600080fd5b506102b96108c63660046147b0565b613055565b6108d3614423565b6002805414156108f657604051633ee5aeb560e01b815260040160405180910390fd5b60028055600354600090610913906001600160a01b0316846121bf565b6001608082015260c08101516101608201519192506000916109359190614882565b90508034101561096057604051631e59fc6f60e01b8152600481018290526024015b60405180910390fd5b600360009054906101000a90046001600160a01b03166001600160a01b031663d0e30db0826040518263ffffffff1660e01b81526004016000604051808303818588803b1580156109b057600080fd5b505af11580156109c4573d6000803e3d6000fd5b505060075460c0860151600354610a0495506001600160a01b0392831694506109f1935090911690613160565b6003546001600160a01b03169190613202565b34818103908214610a7a57604051600090339083908381818185875af1925050503d8060008114610a51576040519150601f19603f3d011682016040523d82523d6000602084013e610a56565b606091505b5050905080610a7857604051638762150d60e01b815260040160405180910390fd5b505b610a838361327a565b600160025595945050505050565b600080600b8381548110610aa757610aa761489a565b6000918252602091829020604080516101c081018252600c90930290910180548352600181015460ff8082161515958501959095526001600160a01b036101009182900481169385019390935260028201548084166060860152600160a01b900490941615156080840152600381015490911660a0830152600481015460c0830152600581015460e0830152600681015492820192909252600782015461012082015260088201546101408201526009820154610160820152600a820154610180820152600b909101546101a08201529050610b828161376d565b9392505050565b6000546201000090046001600160a01b03163314610bba576040516305e7700560e51b815260040160405180910390fd5b601080546001600160a01b0319166001600160a01b0392909216919091179055565b6001546001600160a01b03163314610c075760405163aec80d4b60e01b815260040160405180910390fd5b60015460008054620100006001600160a01b0393841681810275ffffffffffffffffffffffffffffffffffffffff00001990931692909217808455604051929491900416917f564590b81987d147246f63910a8e1ee4eb09c4d64cc75ee975a8ffedfcc2210e91a3565b600280541415610c9457604051633ee5aeb560e01b815260040160405180910390fd5b60028055600b54819081101580610cd25750600b8181548110610cb957610cb961489a565b600091825260209091206001600c90920201015460ff16155b15610cf3576040516372c4e6fd60e01b815260048101829052602401610957565b816002610cff82612d6f565b6002811115610d1057610d10614772565b14610d3057604051621e4f3560e61b815260048101829052602401610957565b6000600b8481548110610d4557610d4561489a565b600091825260208083206009600c909302018281015460028201546001600160a01b03168552600d90925260408420909201805492945090929091610d8b9084906148b0565b909155505060085460098201546002830154610dcf926001600160a01b0390811692610dba9290911690613160565b60028401546001600160a01b03169190613202565b604080516101c08101825282548152600183015460ff808216151560208401526001600160a01b036101009283900481169484019490945260028501548085166060850152600160a01b90041615156080830152600384015490921660a0820152600483015460c0820152600583015460e0820152600683015491810191909152600782015461012082015260088201546101408201526009820154610160820152600a820154610180820152600b8201546101a0820152600090610e93906137b0565b6005546008805490850154604051632770a7eb60e21b81526001600160a01b03928316600482015260248101919091529293501690639dc29fac90604401600060405180830381600087803b158015610eeb57600080fd5b505af1158015610eff573d6000803e3d6000fd5b505060055460088501546001600160a01b039091169250639dc29fac91503090610f2990856148b0565b6040516001600160e01b031960e085901b1681526001600160a01b0390921660048301526024820152604401600060405180830381600087803b158015610f6f57600080fd5b505af1158015610f83573d6000803e3d6000fd5b50505060018301805460ff191690555060405185907fc9e9d7cf3944e82f1fe222573e1c9acf5a2f6cd29aa9639bc8078065f091bb6b90600090a250506001600255505050565b610fd2614423565b6001600160a01b038084166000908152600d60209081526040918290208251610140810184528154851681526001820154909416918401919091526002810154918301919091526003810154606083015260048101546080830152600581015460a0830152600681015460c0830152600781015460e0830152600881015461010083015260090154610120820152610b82908361383b565b6000546201000090046001600160a01b0316331461109b576040516305e7700560e51b815260040160405180910390fd5b6001600160a01b0382166000908152600f60205260409020546110dc57604051634cbfe6c960e11b81526001600160a01b0383166004820152602401610957565b6001600160a01b0382166000908152600d602052604090206007810154821061112a57604051630d12026b60e31b81526001600160a01b038416600482015260248101839052604401610957565b6006810180549083905560408051828152602081018590526001600160a01b038616917fc6a8c526618a1ece6f5d33564501b92330c354faa23902079359e52c8efd72f391015b60405180910390a250505050565b611187614423565b6002805414156111aa57604051633ee5aeb560e01b815260040160405180910390fd5b600280556001600160a01b0383166000908152600f602052604090205483906111f1576040516308cfe49560e31b81526001600160a01b0382166004820152602401610957565b60006111fd85856121bf565b60075460c08201519192506112389133916001600160a01b0390811691611226918a1690613160565b6001600160a01b03891692919061392e565b61125e3330611226846101600151896001600160a01b031661316090919063ffffffff16565b610a838161327a565b60028054141561128a57604051633ee5aeb560e01b815260040160405180910390fd5b60028055600061129861204f565b90506000600560009054906101000a90046001600160a01b03166001600160a01b03166318160ddd6040518163ffffffff1660e01b8152600401602060405180830381865afa1580156112ef573d6000803e3d6000fd5b505050506040513d601f19601f8201168201806040525081019061131391906148c7565b9050600061132183836148e0565b9050600061132e8261396c565b9050600061133c8285613988565b9050600460009054906101000a90046001600160a01b03166001600160a01b031663ee0e54cb6040518163ffffffff1660e01b8152600401602060405180830381865afa158015611391573d6000803e3d6000fd5b505050506040513d601f19601f820116820180604052508101906113b591906148c7565b8110156113d5576040516363b74cfb60e01b815260040160405180910390fd5b60008313156114d957600554604051632770a7eb60e21b8152306004820152602481018490526001600160a01b0390911690639dc29fac90604401600060405180830381600087803b15801561142a57600080fd5b505af192505050801561143b575060015b6114d4576005546040516370a0823160e01b81523060048201526000916001600160a01b0316906370a0823190602401602060405180830381865afa158015611488573d6000803e3d6000fd5b505050506040513d601f19601f820116820180604052508101906114ac91906148c7565b90506114b881846148b0565b60405163dc14e6f760e01b815260040161095791815260200190565b61153e565b6005546040516340c10f1960e01b8152306004820152602481018490526001600160a01b03909116906340c10f1990604401600060405180830381600087803b15801561152557600080fd5b505af1158015611539573d6000803e3d6000fd5b505050505b6040518381527fa3cc94864c69eaba081615f691669aa27c9f8697ad249e6c01a4d792b2aace949060200160405180910390a150506001600255505050565b6000546201000090046001600160a01b031633146115ae576040516305e7700560e51b815260040160405180910390fd5b60055481906001600160a01b03808316911614806115e357506001600160a01b0381166000908152600f602052604090205415155b1561160b5760405162919e6d60e01b81526001600160a01b0383166004820152602401610957565b6007546040516370a0823160e01b8152306004820152611690916001600160a01b0390811691908516906370a0823190602401602060405180830381865afa15801561165b573d6000803e3d6000fd5b505050506040513d601f19601f8201168201806040525081019061167f91906148c7565b6001600160a01b0385169190613202565b5050565b6000546201000090046001600160a01b031633146116c5576040516305e7700560e51b815260040160405180910390fd5b6001600160a01b0382166000908152600f6020526040902054156117075760405163ca6d908160e01b81526001600160a01b0383166004820152602401610957565b6004805460408051636c3b6cc760e11b815290516001600160a01b039092169263d876d98e9282820192602092908290030181865afa15801561174e573d6000803e3d6000fd5b505050506040513d601f19601f8201168201806040525081019061177291906148c7565b81106117a357604051630d12026b60e31b81526001600160a01b038316600482015260248101829052604401610957565b6000826001600160a01b031663313ce5676040518163ffffffff1660e01b8152600401602060405180830381865afa1580156117e3573d6000803e3d6000fd5b505050506040513d601f19601f820116820180604052508101906118079190614938565b905060ff81166118355760405163016058a160e51b81526001600160a01b0384166004820152602401610957565b601260ff8216111561186e5760405163dbba24db60e01b81526001600160a01b038416600482015260ff82166024820152604401610957565b611879600e8461399d565b15611c8d5760408051610140810182526001600160a01b038086168252600654811660208084019190915260048054855163361416e160e01b815286519596870195919094169363361416e193818401939092918290030181865afa1580156118e6573d6000803e3d6000fd5b505050506040513d601f19601f8201168201806040525081019061190a91906148c7565b8152602001600460009054906101000a90046001600160a01b03166001600160a01b03166342580dbe6040518163ffffffff1660e01b8152600401602060405180830381865afa158015611962573d6000803e3d6000fd5b505050506040513d601f19601f8201168201806040525081019061198691906148c7565b8152602001600460009054906101000a90046001600160a01b03166001600160a01b0316632ecd3be46040518163ffffffff1660e01b8152600401602060405180830381865afa1580156119de573d6000803e3d6000fd5b505050506040513d601f19601f82011682018060405250810190611a0291906148c7565b8152602001600460009054906101000a90046001600160a01b03166001600160a01b031663a5f3d0036040518163ffffffff1660e01b8152600401602060405180830381865afa158015611a5a573d6000803e3d6000fd5b505050506040513d601f19601f82011682018060405250810190611a7e91906148c7565b8152602001838152602001600460009054906101000a90046001600160a01b03166001600160a01b031663d876d98e6040518163ffffffff1660e01b8152600401602060405180830381865afa158015611adc573d6000803e3d6000fd5b505050506040513d601f19601f82011682018060405250810190611b0091906148c7565b8152602001600460009054906101000a90046001600160a01b03166001600160a01b0316634433c5e86040518163ffffffff1660e01b8152600401602060405180830381865afa158015611b58573d6000803e3d6000fd5b505050506040513d601f19601f82011682018060405250810190611b7c91906148c7565b8152600060209182018190526001600160a01b03868116808352600d84526040808420865181546001600160a01b031990811691861691909117825595870151600182018054909716941693909317909455848401516002830155606085015160038301556080850151600483015560a0850151600583015560c0850151600683015560e0850151600783015561010085015160088301556101209094015160099091015590517f55dcc5a02a669292f3baba7762915a1182901a9c28a30cc15d3325afcbb4bccc9190a26040805160008152602081018490526001600160a01b038516917fc6a8c526618a1ece6f5d33564501b92330c354faa23902079359e52c8efd72f3910160405180910390a25b505050565b6010546001600160a01b03163314611cbd5760405163c4ff0b3560e01b815260040160405180910390fd5b6005546001600160a01b0383811691161415611cd7575050565b600654604051630787c49960e21b81526001600160a01b038481166004830152611d4e921690631e1f126490602401602060405180830381865afa158015611d23573d6000803e3d6000fd5b505050506040513d601f19601f82011682018060405250810190611d4791906148c7565b8290613a0d565b600554600480546040805163212c06df60e11b815290519495506001600160a01b03938416946340c10f19943094611dd594909116926342580dbe92818301926020928290030181865afa158015611daa573d6000803e3d6000fd5b505050506040513d601f19601f82011682018060405250810190611dce91906148c7565b8590613a0d565b6040516001600160e01b031960e085901b1681526001600160a01b0390921660048301526024820152604401600060405180830381600087803b158015611e1b57600080fd5b505af1158015611e2f573d6000803e3d6000fd5b50506005546009546004805460408051630bb34ef960e21b815290516001600160a01b0395861697506340c10f19965093851694611e9194921692632ecd3be49282820192602092908290030181865afa158015611daa573d6000803e3d6000fd5b6040516001600160e01b031960e085901b1681526001600160a01b0390921660048301526024820152604401600060405180830381600087803b158015611ed757600080fd5b505af1158015611eeb573d6000803e3d6000fd5b5050600554600a54600480546040805163a5f3d00360e01b815290516001600160a01b0395861697506340c10f19965093851694611f4d9492169263a5f3d0039282820192602092908290030181865afa158015611daa573d6000803e3d6000fd5b6040516001600160e01b031960e085901b1681526001600160a01b0390921660048301526024820152604401600060405180830381600087803b158015611f9357600080fd5b505af1158015611fa7573d6000803e3d6000fd5b505050505050565b611fb7614423565b6001600160a01b038084166000908152600d60209081526040918290208251610140810184528154851681526001820154909416918401919091526002810154918301919091526003810154606083015260048101546080830152600581015460a0830152600681015460c0830152600781015460e0830152600881015461010083015260090154610120820152610b829083613add565b6000805b600e548110156121385761211a600d6000600e600001848154811061207a5761207a61489a565b60009182526020808320909101546001600160a01b0390811684528382019490945260409283019091208251610140810184528154851681526001820154909416918401919091526002810154918301919091526003810154606083015260048101546080830152600581015460a0830152600681015460c0830152600781015460e0830152600881015461010083015260090154610120820152613c93565b6121249083614882565b9150806121308161495b565b915050612053565b50601060009054906101000a90046001600160a01b03166001600160a01b031663b26025aa6040518163ffffffff1660e01b8152600401602060405180830381865afa15801561218c573d6000803e3d6000fd5b505050506040513d601f19601f820116820180604052508101906121b091906148c7565b6121ba9082614882565b905090565b6121c7614423565b6001600160a01b038084166000908152600d60209081526040918290208251610140810184528154851681526001820154909416918401919091526002810154918301919091526003810154606083015260048101546080830152600581015460a0830152600681015460c0830152600781015460e0830152600881015461010083015260090154610120820152610b829083613d34565b6000546201000090046001600160a01b03163314612290576040516305e7700560e51b815260040160405180910390fd5b6001600160a01b0381166000908152600f60205260409020546122d157604051634cbfe6c960e11b81526001600160a01b0382166004820152602401610957565b6122dc600e82613efd565b15612372576001600160a01b0381166000818152600d602052604080822080546001600160a01b03199081168255600182018054909116905560028101839055600381018390556004810183905560058101839055600681018390556007810183905560088101839055600901829055517f6d08717837ebdfd34a4ddffe3e4566e0a68e8dde2464854e9242a8f7e6399a339190a25b50565b600e546060908067ffffffffffffffff81111561239457612394614976565b60405190808252806020026020018201604052801561242d57816020015b61241a60405180610140016040528060006001600160a01b0316815260200160006001600160a01b0316815260200160008152602001600081526020016000815260200160008152602001600081526020016000815260200160008152602001600081525090565b8152602001906001900390816123b25790505b50915060005b8181101561252257600d6000600e60000183815481106124555761245561489a565b60009182526020808320909101546001600160a01b0390811684528382019490945260409283019091208251610140810184528154851681526001820154909416918401919091526002810154918301919091526003810154606083015260048101546080830152600581015460a0830152600681015460c0830152600781015460e083015260088101546101008301526009015461012082015283518490839081106125045761250461489a565b6020026020010181905250808061251a9061495b565b915050612433565b505090565b60028054141561254a57604051633ee5aeb560e01b815260040160405180910390fd5b60028055600b548190811015806125885750600b818154811061256f5761256f61489a565b600091825260209091206001600c90920201015460ff16155b156125a9576040516372c4e6fd60e01b815260048101829052602401610957565b8160026125b582612d6f565b60028111156125c6576125c6614772565b14156125e857604051633d240fc360e01b815260048101829052602401610957565b600354600b80546001600160a01b03909216918590811061260b5761260b61489a565b600091825260209091206002600c9092020101546001600160a01b03161461264957604051635d64f43b60e01b815260048101849052602401610957565b600360009054906101000a90046001600160a01b03166001600160a01b031663d0e30db0346040518263ffffffff1660e01b81526004016000604051808303818588803b15801561269957600080fd5b505af11580156126ad573d6000803e3d6000fd5b50505050506126bc8334614036565b5050600160025550565b6002805414156126e957604051633ee5aeb560e01b815260040160405180910390fd5b60028055600b548290811015806127275750600b818154811061270e5761270e61489a565b600091825260209091206001600c90920201015460ff16155b15612748576040516372c4e6fd60e01b815260048101829052602401610957565b82600261275482612d6f565b600281111561276557612765614772565b141561278757604051633d240fc360e01b815260048101829052602401610957565b826127a557604051631d23e67d60e21b815260040160405180910390fd5b6000600b85815481106127ba576127ba61489a565b90600052602060002090600c02019050838160080160008282546127de91906148b0565b9091555050600554604051632770a7eb60e21b8152336004820152602481018690526001600160a01b0390911690639dc29fac90604401600060405180830381600087803b15801561282f57600080fd5b505af1158015612843573d6000803e3d6000fd5b505042600b840155505060088101541561289657847f552544cb36551120f07c66c5cd4b2987725a0c72198587f2ce796099bb66c58c8560405161288991815260200190565b60405180910390a2612aa7565b600981015460028201546000916128b6916001600160a01b031690613160565b60098084015460028501546001600160a01b03166000908152600d60205260408120909201805493945090929091906128f09084906148b0565b9091555050600060098301556005805490830154604051632770a7eb60e21b815230600482015260248101919091526001600160a01b0390911690639dc29fac90604401600060405180830381600087803b15801561294e57600080fd5b505af1158015612962573d6000803e3d6000fd5b50505060018301805460ff191690555060405186907f33a382daad6aace935340a474d09fec82af4bec7e2b69518d283231b03a65f2490600090a26002820154600160a01b900460ff166129dc57600182015460028301546129d7916001600160a01b03918216916101009091041683613202565b612aa5565b600354604051632e1a7d4d60e01b8152600481018390526001600160a01b0390911690632e1a7d4d90602401600060405180830381600087803b158015612a2257600080fd5b505af1158015612a36573d6000803e3d6000fd5b50506040516000925033915083908381818185875af1925050503d8060008114612a7c576040519150601f19603f3d011682016040523d82523d6000602084013e612a81565b606091505b5050905080612aa357604051638762150d60e01b815260040160405180910390fd5b505b505b50506001600255505050565b6001600160a01b0381166000908152600c60205260409020546060908067ffffffffffffffff811115612ae857612ae8614976565b604051908082528060200260200182016040528015612b2157816020015b612b0e614423565b815260200190600190039081612b065790505b50915060005b81811015612c7a576001600160a01b0384166000908152600c602052604090208054600b919083908110612b5d57612b5d61489a565b906000526020600020015481548110612b7857612b7861489a565b6000918252602091829020604080516101c081018252600c90930290910180548352600181015460ff8082161515958501959095526001600160a01b036101009182900481169385019390935260028201548084166060860152600160a01b900490941615156080840152600381015490911660a0830152600481015460c0830152600581015460e0830152600681015492820192909252600782015461012082015260088201546101408201526009820154610160820152600a820154610180820152600b909101546101a08201528351849083908110612c5c57612c5c61489a565b60200260200101819052508080612c729061495b565b915050612b27565b5050919050565b6000546201000090046001600160a01b03163314612cb2576040516305e7700560e51b815260040160405180910390fd5b6001600160a01b038216612cd95760405163604b48b960e11b815260040160405180910390fd5b6001600160a01b038216301415612d03576040516306b3e95d60e21b815260040160405180910390fd5b600180546001600160a01b0319166001600160a01b03841617905580612d6657600080546040516001600160a01b03808616936201000090930416917fc606c9af1451cadeb333f6ff7b24a5540974f4e800bac274fa7fff9edc305cb191a35050565b6116908261411b565b600080612d7b83610a91565b9050600460009054906101000a90046001600160a01b03166001600160a01b0316634433c5e86040518163ffffffff1660e01b8152600401602060405180830381865afa158015612dd0573d6000803e3d6000fd5b505050506040513d601f19601f82011682018060405250810190612df491906148c7565b811015612e7b576004805460408051636c3b6cc760e11b815290516001600160a01b039092169263d876d98e9282820192602092908290030181865afa158015612e42573d6000803e3d6000fd5b505050506040513d601f19601f82011682018060405250810190612e6691906148c7565b811015612e74576000610b82565b6001610b82565b60029392505050565b600b8181548110612e9457600080fd5b60009182526020909120600c9091020180546001820154600283015460038401546004850154600586015460068701546007880154600889015460098a0154600a8b0154600b909b0154999b5060ff808a169b610100909a046001600160a01b039081169b818b169b600160a01b909b0490921699981697908e565b600280541415612f3357604051633ee5aeb560e01b815260040160405180910390fd5b60028055600b54829081101580612f715750600b8181548110612f5857612f5861489a565b600091825260209091206001600c90920201015460ff16155b15612f92576040516372c4e6fd60e01b815260048101829052602401610957565b826002612f9e82612d6f565b6002811115612faf57612faf614772565b1415612fd157604051633d240fc360e01b815260048101829052602401610957565b61300f333085600b8881548110612fea57612fea61489a565b600091825260209091206002600c9092020101546001600160a01b031692919061392e565b6130198484614036565b505060016002555050565b600c602052816000526040600020818154811061304057600080fd5b90600052602060002001600091509150505481565b60005460ff1615801561306f5750600054610100900460ff165b1561308d57604051631ee1e30360e21b815260040160405180910390fd5b60005460ff161580156130aa576000805461ffff19166101011790555b6130b46001600255565b6130bd3361411b565b600380546001600160a01b03199081166001600160a01b038d8116919091179092556004805482168c84161790556005805482168b84161790556006805482168a8416179055601080548216898416179055600780548216888416179055600880548216878416179055600980548216868416179055600a80549091169184169190911790558015613154576000805460ff191690555b50505050505050505050565b600080836001600160a01b031663313ce5676040518163ffffffff1660e01b8152600401602060405180830381865afa1580156131a1573d6000803e3d6000fd5b505050506040513d601f19601f820116820180604052508101906131c59190614938565b6131d090601261498c565b6131db90600a614a93565b9050806001146131f7576131ef8184614aa2565b9150506131fc565b829150505b92915050565b6040516001600160a01b038316602482015260448101829052611c8d90849063a9059cbb60e01b906064015b60408051601f198184030181529190526020810180517bffffffffffffffffffffffffffffffffffffffffffffffffffffffff166001600160e01b031990931692909217909152614182565b613282614423565b6101408201516132a5576040516379d1504360e01b815260040160405180910390fd5b60048054604080516216d14b60e71b815290516001600160a01b0390921692630b68a5809282820192602092908290030181865afa1580156132eb573d6000803e3d6000fd5b505050506040513d601f19601f8201168201806040525081019061330f91906148c7565b826101400151101561333457604051631efe3f1960e11b815260040160405180910390fd5b60055460e08301516040516340c10f1960e01b815230600482015260248101919091526001600160a01b03909116906340c10f1990604401600060405180830381600087803b15801561338657600080fd5b505af115801561339a573d6000803e3d6000fd5b50506005546009546101008601516040516340c10f1960e01b81526001600160a01b0392831660048201526024810191909152911692506340c10f199150604401600060405180830381600087803b1580156133f557600080fd5b505af1158015613409573d6000803e3d6000fd5b5050600554600a546101208601516040516340c10f1960e01b81526001600160a01b0392831660048201526024810191909152911692506340c10f199150604401600060405180830381600087803b15801561346457600080fd5b505af1158015613478573d6000803e3d6000fd5b505060055460408581015161014087015191516340c10f1960e01b81526001600160a01b039182166004820152602481019290925290911692506340c10f199150604401600060405180830381600087803b1580156134d657600080fd5b505af11580156134ea573d6000803e3d6000fd5b505050506000600b80549050905080836000018181525050600b8390806001815401808255809150506001900390600052602060002090600c02016000909190919091506000820151816000015560208201518160010160006101000a81548160ff02191690831515021790555060408201518160010160016101000a8154816001600160a01b0302191690836001600160a01b0316021790555060608201518160020160006101000a8154816001600160a01b0302191690836001600160a01b0316021790555060808201518160020160146101000a81548160ff02191690831515021790555060a08201518160030160006101000a8154816001600160a01b0302191690836001600160a01b0316021790555060c0820151816004015560e08201518160050155610100820151816006015561012082015181600701556101408201518160080155610160820151816009015561018082015181600a01556101a082015181600b01555050600c600084604001516001600160a01b03166001600160a01b03168152602001908152602001600020819080600181540180825580915050600190039060005260206000200160009091909190915055826101600151600d600085606001516001600160a01b03166001600160a01b0316815260200190815260200160002060090160008282546136e89190614882565b90915550506060838101516040808601516101408701516101608801516001600160a01b039485166000818152600d6020908152908690206006015486519485529084019290925293820152919392169184917f1c719a9a8ef2d44db7255e8d65b4a18a23f44758d6ebc0d6b80fe018d25433fb910160405180910390a45090919050565b60008161014001516000141561378557506000919050565b6101608201516137985750600019919050565b6131fc6137a4836137b0565b61014084015190613988565b60a08101516060820151604051630787c49960e21b81526001600160a01b03918216600482015260009283921690631e1f126490602401602060405180830381865afa158015613804573d6000803e3d6000fd5b505050506040513d601f19601f8201168201806040525081019061382891906148c7565b610160840151909150610b829082613a0d565b613843614423565b60208301518351604051630787c49960e21b81526001600160a01b0391821660048201526000929190911690631e1f126490602401602060405180830381865afa158015613895573d6000803e3d6000fd5b505050506040513d601f19601f820116820180604052508101906138b991906148c7565b905060006138d88560c001518660400151613a0d90919063ffffffff16565b905060006139186138f1670de0b6b3a764000084614882565b6139128561390c8a60c001518a613a0d90919063ffffffff16565b90613a0d565b90613988565b90506139248682613d34565b9695505050505050565b6040516001600160a01b03808516602483015283166044820152606481018290526139669085906323b872dd60e01b9060840161322e565b50505050565b6000808212156139845761397f82614ac4565b6131fc565b5090565b6000610b8283670de0b6b3a76400008461420c565b6001600160a01b0381166000908152600183016020526040812054156139c5575060006131fc565b508154600180820184556000848152602080822090930180546001600160a01b0319166001600160a01b03959095169485179055845493815293810190915260409092205590565b60008080600019848609848602925082811083820303915050670de0b6b3a76400008110613a5f5760405163072fa3c960e31b815260048101829052670de0b6b3a76400006024820152604401610957565b600080670de0b6b3a76400008688099150506706f05b59d3b1ffff811182613a995780670de0b6b3a76400008504019450505050506131fc565b620400008285030493909111909103600160ee1b02919091177faccb18165bd6fe31ae1cf318dc5b51eee0e1ba569b88cd74c1773b91fac106690201905092915050565b613ae5614423565b60208301518351604051630787c49960e21b81526001600160a01b0391821660048201526000929190911690631e1f126490602401602060405180830381865afa158015613b37573d6000803e3d6000fd5b505050506040513d601f19601f82011682018060405250810190613b5b91906148c7565b90506000613b7a8261390c8760c0015187613a0d90919063ffffffff16565b60c0860151909150600090613b9e90613912611dce82670de0b6b3a76400006148b0565b90506000613bb9876060015183613a0d90919063ffffffff16565b90506000613bd4886080015184613a0d90919063ffffffff16565b90506000613bef8960a0015185613a0d90919063ffffffff16565b90506000613c0e87613912888d60400151613a0d90919063ffffffff16565b604080516101c0810182526000808252600160208084019190915233938301939093528d516001600160a01b03908116606084015260808301919091529c90910151909b1660a08c015260c08b01525060e08901929092526101008801526101208701525061014085015250506101608201524261018082018190526101a082015290565b600081610120015160001415613cab57506000919050565b60208201518251604051630787c49960e21b81526001600160a01b0391821660048201526000929190911690631e1f126490602401602060405180830381865afa158015613cfd573d6000803e3d6000fd5b505050506040513d601f19601f82011682018060405250810190613d2191906148c7565b610120840151909150610b829082613a0d565b613d3c614423565b60208301518351604051630787c49960e21b81526001600160a01b0391821660048201526000929190911690631e1f126490602401602060405180830381865afa158015613d8e573d6000803e3d6000fd5b505050506040513d601f19601f82011682018060405250810190613db291906148c7565b60c0850151909150600090613ddd90613912613dd682670de0b6b3a76400006148b0565b8790613a0d565b90506000613df8866060015183613a0d90919063ffffffff16565b90506000613e13876080015184613a0d90919063ffffffff16565b90506000613e2e8860a0015185613a0d90919063ffffffff16565b90506000613e53613e4c878b60c00151613a0d90919063ffffffff16565b8990613988565b90506000613e72876139128b8d60400151613a0d90919063ffffffff16565b604080516101c0810182526000808252600160208084019190915233938301939093528d516001600160a01b03908116606084015260808301919091529c90910151909b1660a08c015260c08b01525060e08901939093526101008801919091526101208701526101408601949094525050506101608201524261018082018190526101a082015290565b6001600160a01b038116600090815260018301602052604081205480613f275760009150506131fc565b6000613f346001836148b0565b905060006001613f42875490565b613f4c91906148b0565b9050808214613fd8576000866000018281548110613f6c57613f6c61489a565b60009182526020909120015487546001600160a01b0390911691508190889085908110613f9b57613f9b61489a565b600091825260208083209190910180546001600160a01b0319166001600160a01b0394851617905592909116815260018801909152604090208390555b8554869080613fe957613fe9614ae1565b60008281526020808220830160001990810180546001600160a01b03191690559092019092556001600160a01b038716825260018881019091526040822091909155935050505092915050565b8061405457604051635491c16d60e01b815260040160405180910390fd5b6000600b83815481106140695761406961489a565b6000918252602082206002600c9092020190810154909250614094906001600160a01b0316846142c7565b9050808260090160008282546140aa9190614882565b909155505042600a83015560028201546001600160a01b03166000908152600d6020526040812060090180548392906140e4908490614882565b909155505060405181815284907fa3af609bf46297028ce551832669030f9effef2b02606d02cbbcc40fe6b47c5590602001611171565b6000805475ffffffffffffffffffffffffffffffffffffffff00001916620100006001600160a01b0384811682810293909317808555604051939492900416917f564590b81987d147246f63910a8e1ee4eb09c4d64cc75ee975a8ffedfcc2210e9190a350565b6040805180820190915260208082527f5361666545524332303a206c6f772d6c6576656c2063616c6c206661696c65649082015282906000906141d1906001600160a01b038416908590614356565b80519091501561396657808060200190518101906141ef9190614af7565b61396657604051639b8d506160e01b815260040160405180910390fd5b6000808060001985870985870292508281108382030391505083811061424f5760405163072fa3c960e31b81526004810182905260248101859052604401610957565b8061425f57508290049050610b82565b600084868809600260036001881981018916988990049182028318808302840302808302840302808302840302808302840302808302840302918202909203026000889003889004909101858311909403939093029303949094049190911702949350505050565b600080836001600160a01b031663313ce5676040518163ffffffff1660e01b8152600401602060405180830381865afa158015614308573d6000803e3d6000fd5b505050506040513d601f19601f8201168201806040525081019061432c9190614938565b61433790601261498c565b61434290600a614a93565b9050806001146131f7576131ef8184614b14565b6060833b6143825760405163dc5dd7fd60e01b81526001600160a01b0385166004820152602401610957565b600080856001600160a01b03168560405161439d9190614b5f565b6000604051808303816000865af19150503d80600081146143da576040519150601f19603f3d011682016040523d82523d6000602084013e6143df565b606091505b5091509150613924828286606083156143f9575081610b82565b8251156144095782518060208501fd5b8160405162461bcd60e51b81526004016109579190614b7b565b604051806101c001604052806000815260200160001515815260200160006001600160a01b0316815260200160006001600160a01b0316815260200160001515815260200160006001600160a01b0316815260200160008152602001600081526020016000815260200160008152602001600081526020016000815260200160008152602001600081525090565b6000602082840312156144c357600080fd5b5035919050565b8051825260208101516144e1602084018215159052565b5060408101516144fc60408401826001600160a01b03169052565b50606081015161451760608401826001600160a01b03169052565b50608081015161452b608084018215159052565b5060a081015161454660a08401826001600160a01b03169052565b5060c0818101519083015260e08082015190830152610100808201519083015261012080820151908301526101408082015190830152610160808201519083015261018080820151908301526101a090810151910152565b6101c081016131fc82846144ca565b6001600160a01b038116811461237257600080fd5b6000602082840312156145d457600080fd5b8135610b82816145ad565b600080604083850312156145f257600080fd5b82356145fd816145ad565b946020939093013593505050565b602080825282518282018190526000919060409081850190868401855b828110156146ad57815180516001600160a01b0390811686528782015116878601528581015186860152606080820151908601526080808201519086015260a0808201519086015260c0808201519086015260e08082015190860152610100808201519086015261012090810151908501526101409093019290850190600101614628565b5091979650505050505050565b600080604083850312156146cd57600080fd5b50508035926020909101359150565b6020808252825182820181905260009190848201906040850190845b8181101561471f5761470b8385516144ca565b928401926101c092909201916001016146f8565b50909695505050505050565b801515811461237257600080fd5b6000806040838503121561474c57600080fd5b8235614757816145ad565b915060208301356147678161472b565b809150509250929050565b634e487b7160e01b600052602160045260246000fd5b60208101600383106147aa57634e487b7160e01b600052602160045260246000fd5b91905290565b60008060008060008060008060006101208a8c0312156147cf57600080fd5b89356147da816145ad565b985060208a01356147ea816145ad565b975060408a01356147fa816145ad565b965060608a013561480a816145ad565b955060808a013561481a816145ad565b945060a08a013561482a816145ad565b935060c08a013561483a816145ad565b925060e08a013561484a816145ad565b91506101008a013561485b816145ad565b809150509295985092959850929598565b634e487b7160e01b600052601160045260246000fd5b600082198211156148955761489561486c565b500190565b634e487b7160e01b600052603260045260246000fd5b6000828210156148c2576148c261486c565b500390565b6000602082840312156148d957600080fd5b5051919050565b60008083128015600160ff1b8501841216156148fe576148fe61486c565b837f7fffffffffffffffffffffffffffffffffffffffffffffffffffffffffffffff0183138116156149325761493261486c565b50500390565b60006020828403121561494a57600080fd5b815160ff81168114610b8257600080fd5b600060001982141561496f5761496f61486c565b5060010190565b634e487b7160e01b600052604160045260246000fd5b600060ff821660ff8416808210156149a6576149a661486c565b90039392505050565b600181815b808511156149ea5781600019048211156149d0576149d061486c565b808516156149dd57918102915b93841c93908002906149b4565b509250929050565b600082614a01575060016131fc565b81614a0e575060006131fc565b8160018114614a245760028114614a2e57614a4a565b60019150506131fc565b60ff841115614a3f57614a3f61486c565b50506001821b6131fc565b5060208310610133831016604e8410600b8410161715614a6d575081810a6131fc565b614a7783836149af565b8060001904821115614a8b57614a8b61486c565b029392505050565b6000610b8260ff8416836149f2565b600082614abf57634e487b7160e01b600052601260045260246000fd5b500490565b6000600160ff1b821415614ada57614ada61486c565b5060000390565b634e487b7160e01b600052603160045260246000fd5b600060208284031215614b0957600080fd5b8151610b828161472b565b6000816000190483118215151615614b2e57614b2e61486c565b500290565b60005b83811015614b4e578181015183820152602001614b36565b838111156139665750506000910152565b60008251614b71818460208701614b33565b9190910192915050565b6020815260008251806020840152614b9a816040850160208701614b33565b601f01601f1916919091016040019291505056fea164736f6c634300080a000a",
  "devdoc": {
    "author": "Andrey Gulitsky",
    "errors": {
      "BaksDAOBorrowBelowMinimumPrincipalAmount()": [
        {
          "details": "Thrown when trying to borrow below minimum principal amount."
        }
      ],
      "BaksDAOBorrowZeroAmount()": [
        {
          "details": "Thrown when borrowing a zero amount of stablecoin."
        }
      ],
      "BaksDAOCollateralTokenAlreadyListed(address)": [
        {
          "details": "Thrown when trying to list collateral token that's already listed.",
          "params": {
            "token": "The address of the collateral token contract."
          }
        }
      ],
      "BaksDAOCollateralTokenNotListed(address)": [
        {
          "details": "Thrown when trying to unlist collateral token that's not listed.",
          "params": {
            "token": "The address of the collateral token contract."
          }
        }
      ],
      "BaksDAOCollateralTokenTooLargeDecimals(address,uint8)": [
        {
          "details": "Thrown when trying to list collateral token that has too large decimals.",
          "params": {
            "token": "The address of the collateral token contract."
          }
        }
      ],
      "BaksDAOCollateralTokenZeroDecimals(address)": [
        {
          "details": "Thrown when trying to list collateral token that has zero decimals.",
          "params": {
            "token": "The address of the collateral token contract."
          }
        }
      ],
      "BaksDAODepositZeroAmount()": [
        {
          "details": "Thrown when depositing a zero amount of collateral token."
        }
      ],
      "BaksDAOInactiveLoan(uint256)": [
        {
          "details": "Thrown when trying to interact with inactive loan with `id` id.",
          "params": {
            "id": "The loan id."
          }
        }
      ],
      "BaksDAOInitialLoanToValueRatioTooHigh(address,uint256)": [
        {
          "details": "Thrown when trying to set initial loan-to-value ratio that higher than margin call or liquidation ones.",
          "params": {
            "initialLoanToValueRatio": "The initial loan-to-value ratio that was tried to set.",
            "token": "The address of the collateral token contract."
          }
        }
      ],
      "BaksDAOLoanIsSubjectToLiquidation(uint256)": [
        {
          "details": "Thrown when trying to interact with loan with `id` id that is subject to liquidation.",
          "params": {
            "id": "The loan id."
          }
        }
      ],
      "BaksDAOLoanNotSubjectToLiquidation(uint256)": [
        {
          "details": "Thrown when trying to liquidate healthy loan with `id` id.",
          "params": {
            "id": "The loan id."
          }
        }
      ],
      "BaksDAONativeCurrencyCollateralNotAllowed(uint256)": [
        {
          "details": "Thrown when trying to deposit native currency collateral to the non-wrapped native currency token loan with `id` id.",
          "params": {
            "id": "The loan id."
          }
        }
      ],
      "BaksDAONoNeedToRebalance()": [
        {
          "details": "Thrown when there's no need to rebalance the platform."
        }
      ],
      "BaksDAORepayZeroAmount()": [
        {
          "details": "Thrown when repaying a zero amount of stablecoin."
        }
      ],
      "BaksDAOStabilizationFundOutOfFunds(uint256)": [
        {
          "details": "Thrown when trying to rebalance the platform and there is a shortage of funds to burn.",
          "params": {
            "shortage": "Shoratge of funds to burn."
          }
        }
      ],
      "BaksDAOTokenNotAllowedAsCollateral(address)": [
        {
          "details": "Thrown when interacting with a token that's not allowed as collateral.",
          "params": {
            "token": "The address of the collateral token contract."
          }
        }
      ],
      "BaksDAOTokenNotAllowedToBeSalvaged(address)": [
        {
          "details": "Thrown when trying to salvage one of allowed collateral tokens or stablecoin.",
          "params": {
            "token": "The address of the token contract."
          }
        }
      ]
    },
    "kind": "dev",
    "methods": {
      "borrow(address,uint256)": {
        "details": "The caller must have allowed this contract to spend a sufficient amount of collateral tokens to cover initial loan-to-value ratio.",
        "params": {
          "amount": "The amount of stablecoin to borrow and issue.",
          "collateralToken": "The address of the collateral token contract."
        }
      },
      "deposit(uint256,uint256)": {
        "details": "The caller must have allowed this contract to spend `amount` of collateral tokens.",
        "params": {
          "amount": "The amount of collateral token to deposit.",
          "loanId": "The loan id."
        }
      },
      "repay(uint256,uint256)": {
        "params": {
          "amount": "The amount of stablecoin to repay.",
          "loanId": "The loan id."
        }
      }
    },
    "title": "Core smart contract of BaksDAO platform",
    "version": 1
  },
  "userdoc": {
    "kind": "user",
    "methods": {
      "borrow(address,uint256)": {
        "notice": "Increases loan's principal on `collateralToken` collateral token and mints `amount` of stablecoin."
      },
      "borrowInNativeCurrency(uint256)": {
        "notice": "Increases loan's principal on wrapped native currency token and mints stablecoin."
      },
      "deposit(uint256,uint256)": {
        "notice": "Deposits `amount` of collateral token to loan with `id` id."
      },
      "depositInNativeCurrency(uint256)": {
        "notice": "Deposits wrapped native currency token to loan with `id` id."
      },
      "repay(uint256,uint256)": {
        "notice": "Decreases principal of loan with `id` id by `amount` of stablecoin."
      }
    },
    "notice": "You should use this contract to interact with the BaksDAO platform.Only this contract can issue stablecoins.",
    "version": 1
  },
  "storageLayout": {
    "storage": [
      {
        "astId": 9711,
        "contract": "contracts/Bank.sol:Bank",
        "label": "initializing",
        "offset": 0,
        "slot": "0",
        "type": "t_bool"
      },
      {
        "astId": 9713,
        "contract": "contracts/Bank.sol:Bank",
        "label": "initialized",
        "offset": 1,
        "slot": "0",
        "type": "t_bool"
      },
      {
        "astId": 6325,
        "contract": "contracts/Bank.sol:Bank",
        "label": "governor",
        "offset": 2,
        "slot": "0",
        "type": "t_address"
      },
      {
        "astId": 6327,
        "contract": "contracts/Bank.sol:Bank",
        "label": "pendingGovernor",
        "offset": 0,
        "slot": "1",
        "type": "t_address"
      },
      {
        "astId": 9429,
        "contract": "contracts/Bank.sol:Bank",
        "label": "status",
        "offset": 0,
        "slot": "2",
        "type": "t_uint256"
      },
      {
        "astId": 186,
        "contract": "contracts/Bank.sol:Bank",
        "label": "wrappedNativeCurrency",
        "offset": 0,
        "slot": "3",
        "type": "t_contract(IWrappedNativeCurrency)6650"
      },
      {
        "astId": 189,
        "contract": "contracts/Bank.sol:Bank",
        "label": "core",
        "offset": 0,
        "slot": "4",
        "type": "t_contract(ICore)2959"
      },
      {
        "astId": 192,
        "contract": "contracts/Bank.sol:Bank",
        "label": "stablecoin",
        "offset": 0,
        "slot": "5",
        "type": "t_contract(IMintableAndBurnableERC20)6562"
      },
      {
        "astId": 195,
        "contract": "contracts/Bank.sol:Bank",
        "label": "priceOracle",
        "offset": 0,
        "slot": "6",
        "type": "t_contract(IPriceOracle)6635"
      },
      {
        "astId": 197,
        "contract": "contracts/Bank.sol:Bank",
        "label": "operator",
        "offset": 0,
        "slot": "7",
        "type": "t_address"
      },
      {
        "astId": 199,
        "contract": "contracts/Bank.sol:Bank",
        "label": "liquidator",
        "offset": 0,
        "slot": "8",
        "type": "t_address"
      },
      {
        "astId": 201,
        "contract": "contracts/Bank.sol:Bank",
        "label": "exchangeFund",
        "offset": 0,
        "slot": "9",
        "type": "t_address"
      },
      {
        "astId": 203,
        "contract": "contracts/Bank.sol:Bank",
        "label": "developmentFund",
        "offset": 0,
        "slot": "10",
        "type": "t_address"
      },
      {
        "astId": 207,
        "contract": "contracts/Bank.sol:Bank",
        "label": "loans",
        "offset": 0,
        "slot": "11",
        "type": "t_array(t_struct(Data)8934_storage)dyn_storage"
      },
      {
        "astId": 212,
        "contract": "contracts/Bank.sol:Bank",
        "label": "loanIds",
        "offset": 0,
        "slot": "12",
        "type": "t_mapping(t_address,t_array(t_uint256)dyn_storage)"
      },
      {
        "astId": 218,
        "contract": "contracts/Bank.sol:Bank",
        "label": "collateralTokens",
        "offset": 0,
        "slot": "13",
        "type": "t_mapping(t_contract(IERC20)6545,t_struct(Data)7054_storage)"
      },
      {
        "astId": 221,
        "contract": "contracts/Bank.sol:Bank",
        "label": "collateralTokensSet",
        "offset": 0,
        "slot": "14",
        "type": "t_struct(Set)7401_storage"
      },
      {
        "astId": 224,
        "contract": "contracts/Bank.sol:Bank",
        "label": "depositary",
        "offset": 0,
        "slot": "16",
        "type": "t_contract(IDepositary)3294"
      }
    ],
    "types": {
      "t_address": {
        "encoding": "inplace",
        "label": "address",
        "numberOfBytes": "20"
      },
      "t_array(t_address)dyn_storage": {
        "base": "t_address",
        "encoding": "dynamic_array",
        "label": "address[]",
        "numberOfBytes": "32"
      },
      "t_array(t_struct(Data)8934_storage)dyn_storage": {
        "base": "t_struct(Data)8934_storage",
        "encoding": "dynamic_array",
        "label": "struct Loan.Data[]",
        "numberOfBytes": "32"
      },
      "t_array(t_uint256)dyn_storage": {
        "base": "t_uint256",
        "encoding": "dynamic_array",
        "label": "uint256[]",
        "numberOfBytes": "32"
      },
      "t_bool": {
        "encoding": "inplace",
        "label": "bool",
        "numberOfBytes": "1"
      },
      "t_contract(ICore)2959": {
        "encoding": "inplace",
        "label": "contract ICore",
        "numberOfBytes": "20"
      },
      "t_contract(IDepositary)3294": {
        "encoding": "inplace",
        "label": "contract IDepositary",
        "numberOfBytes": "20"
      },
      "t_contract(IERC20)6545": {
        "encoding": "inplace",
        "label": "contract IERC20",
        "numberOfBytes": "20"
      },
      "t_contract(IMintableAndBurnableERC20)6562": {
        "encoding": "inplace",
        "label": "contract IMintableAndBurnableERC20",
        "numberOfBytes": "20"
      },
      "t_contract(IPriceOracle)6635": {
        "encoding": "inplace",
        "label": "contract IPriceOracle",
        "numberOfBytes": "20"
      },
      "t_contract(IWrappedNativeCurrency)6650": {
        "encoding": "inplace",
        "label": "contract IWrappedNativeCurrency",
        "numberOfBytes": "20"
      },
      "t_mapping(t_address,t_array(t_uint256)dyn_storage)": {
        "encoding": "mapping",
        "key": "t_address",
        "label": "mapping(address => uint256[])",
        "numberOfBytes": "32",
        "value": "t_array(t_uint256)dyn_storage"
      },
      "t_mapping(t_address,t_uint256)": {
        "encoding": "mapping",
        "key": "t_address",
        "label": "mapping(address => uint256)",
        "numberOfBytes": "32",
        "value": "t_uint256"
      },
      "t_mapping(t_contract(IERC20)6545,t_struct(Data)7054_storage)": {
        "encoding": "mapping",
        "key": "t_contract(IERC20)6545",
        "label": "mapping(contract IERC20 => struct CollateralToken.Data)",
        "numberOfBytes": "32",
        "value": "t_struct(Data)7054_storage"
      },
      "t_struct(Data)7054_storage": {
        "encoding": "inplace",
        "label": "struct CollateralToken.Data",
        "members": [
          {
            "astId": 7034,
            "contract": "contracts/Bank.sol:Bank",
            "label": "collateralToken",
            "offset": 0,
            "slot": "0",
            "type": "t_contract(IERC20)6545"
          },
          {
            "astId": 7037,
            "contract": "contracts/Bank.sol:Bank",
            "label": "priceOracle",
            "offset": 0,
            "slot": "1",
            "type": "t_contract(IPriceOracle)6635"
          },
          {
            "astId": 7039,
            "contract": "contracts/Bank.sol:Bank",
            "label": "stabilityFee",
            "offset": 0,
            "slot": "2",
            "type": "t_uint256"
          },
          {
            "astId": 7041,
            "contract": "contracts/Bank.sol:Bank",
            "label": "stabilizationFee",
            "offset": 0,
            "slot": "3",
            "type": "t_uint256"
          },
          {
            "astId": 7043,
            "contract": "contracts/Bank.sol:Bank",
            "label": "exchangeFee",
            "offset": 0,
            "slot": "4",
            "type": "t_uint256"
          },
          {
            "astId": 7045,
            "contract": "contracts/Bank.sol:Bank",
            "label": "developmentFee",
            "offset": 0,
            "slot": "5",
            "type": "t_uint256"
          },
          {
            "astId": 7047,
            "contract": "contracts/Bank.sol:Bank",
            "label": "initialLoanToValueRatio",
            "offset": 0,
            "slot": "6",
            "type": "t_uint256"
          },
          {
            "astId": 7049,
            "contract": "contracts/Bank.sol:Bank",
            "label": "marginCallLoanToValueRatio",
            "offset": 0,
            "slot": "7",
            "type": "t_uint256"
          },
          {
            "astId": 7051,
            "contract": "contracts/Bank.sol:Bank",
            "label": "liquidationLoanToValueRatio",
            "offset": 0,
            "slot": "8",
            "type": "t_uint256"
          },
          {
            "astId": 7053,
            "contract": "contracts/Bank.sol:Bank",
            "label": "collateralAmount",
            "offset": 0,
            "slot": "9",
            "type": "t_uint256"
          }
        ],
        "numberOfBytes": "320"
      },
      "t_struct(Data)8934_storage": {
        "encoding": "inplace",
        "label": "struct Loan.Data",
        "members": [
          {
            "astId": 8905,
            "contract": "contracts/Bank.sol:Bank",
            "label": "id",
            "offset": 0,
            "slot": "0",
            "type": "t_uint256"
          },
          {
            "astId": 8907,
            "contract": "contracts/Bank.sol:Bank",
            "label": "isActive",
            "offset": 0,
            "slot": "1",
            "type": "t_bool"
          },
          {
            "astId": 8909,
            "contract": "contracts/Bank.sol:Bank",
            "label": "borrower",
            "offset": 1,
            "slot": "1",
            "type": "t_address"
          },
          {
            "astId": 8912,
            "contract": "contracts/Bank.sol:Bank",
            "label": "collateralToken",
            "offset": 0,
            "slot": "2",
            "type": "t_contract(IERC20)6545"
          },
          {
            "astId": 8914,
            "contract": "contracts/Bank.sol:Bank",
            "label": "isNativeCurrency",
            "offset": 20,
            "slot": "2",
            "type": "t_bool"
          },
          {
            "astId": 8917,
            "contract": "contracts/Bank.sol:Bank",
            "label": "priceOracle",
            "offset": 0,
            "slot": "3",
            "type": "t_contract(IPriceOracle)6635"
          },
          {
            "astId": 8919,
            "contract": "contracts/Bank.sol:Bank",
            "label": "stabilityFee",
            "offset": 0,
            "slot": "4",
            "type": "t_uint256"
          },
          {
            "astId": 8921,
            "contract": "contracts/Bank.sol:Bank",
            "label": "stabilizationFee",
            "offset": 0,
            "slot": "5",
            "type": "t_uint256"
          },
          {
            "astId": 8923,
            "contract": "contracts/Bank.sol:Bank",
            "label": "exchangeFee",
            "offset": 0,
            "slot": "6",
            "type": "t_uint256"
          },
          {
            "astId": 8925,
            "contract": "contracts/Bank.sol:Bank",
            "label": "developmentFee",
            "offset": 0,
            "slot": "7",
            "type": "t_uint256"
          },
          {
            "astId": 8927,
            "contract": "contracts/Bank.sol:Bank",
            "label": "principalAmount",
            "offset": 0,
            "slot": "8",
            "type": "t_uint256"
          },
          {
            "astId": 8929,
            "contract": "contracts/Bank.sol:Bank",
            "label": "collateralAmount",
            "offset": 0,
            "slot": "9",
            "type": "t_uint256"
          },
          {
            "astId": 8931,
            "contract": "contracts/Bank.sol:Bank",
            "label": "lastDepositAt",
            "offset": 0,
            "slot": "10",
            "type": "t_uint256"
          },
          {
            "astId": 8933,
            "contract": "contracts/Bank.sol:Bank",
            "label": "lastRepaymentAt",
            "offset": 0,
            "slot": "11",
            "type": "t_uint256"
          }
        ],
        "numberOfBytes": "384"
      },
      "t_struct(Set)7401_storage": {
        "encoding": "inplace",
        "label": "struct EnumerableAddressSet.Set",
        "members": [
          {
            "astId": 7396,
            "contract": "contracts/Bank.sol:Bank",
            "label": "elements",
            "offset": 0,
            "slot": "0",
            "type": "t_array(t_address)dyn_storage"
          },
          {
            "astId": 7400,
            "contract": "contracts/Bank.sol:Bank",
            "label": "indexes",
            "offset": 0,
            "slot": "1",
            "type": "t_mapping(t_address,t_uint256)"
          }
        ],
        "numberOfBytes": "64"
      },
      "t_uint256": {
        "encoding": "inplace",
        "label": "uint256",
        "numberOfBytes": "32"
      }
    }
  }
}