{
  "address": "0xC21554456FAC7bCcFa5691800908542291889d0A",
  "abi": [
    {
      "inputs": [],
      "name": "BaksDAOBorrowBelowMinimumPrincipalAmount",
      "type": "error"
    },
    {
      "inputs": [],
      "name": "BaksDAOBorrowZeroAmount",
      "type": "error"
    },
    {
      "inputs": [
        {
          "internalType": "contract IERC20",
          "name": "token",
          "type": "address"
        }
      ],
      "name": "BaksDAOCollateralTokenAlreadyListed",
      "type": "error"
    },
    {
      "inputs": [
        {
          "internalType": "contract IERC20",
          "name": "token",
          "type": "address"
        }
      ],
      "name": "BaksDAOCollateralTokenNotListed",
      "type": "error"
    },
    {
      "inputs": [
        {
          "internalType": "contract IERC20",
          "name": "token",
          "type": "address"
        },
        {
          "internalType": "uint8",
          "name": "decimals",
          "type": "uint8"
        }
      ],
      "name": "BaksDAOCollateralTokenTooLargeDecimals",
      "type": "error"
    },
    {
      "inputs": [
        {
          "internalType": "contract IERC20",
          "name": "token",
          "type": "address"
        }
      ],
      "name": "BaksDAOCollateralTokenZeroDecimals",
      "type": "error"
    },
    {
      "inputs": [],
      "name": "BaksDAODepositZeroAmount",
      "type": "error"
    },
    {
      "inputs": [
        {
          "internalType": "uint256",
          "name": "id",
          "type": "uint256"
        }
      ],
      "name": "BaksDAOInactiveLoan",
      "type": "error"
    },
    {
      "inputs": [
        {
          "internalType": "contract IERC20",
          "name": "token",
          "type": "address"
        },
        {
          "internalType": "uint256",
          "name": "initialLoanToValueRatio",
          "type": "uint256"
        }
      ],
      "name": "BaksDAOInitialLoanToValueRatioTooHigh",
      "type": "error"
    },
    {
      "inputs": [
        {
          "internalType": "uint256",
          "name": "minimumRequiredSecurityAmount",
          "type": "uint256"
        }
      ],
      "name": "BaksDAOInsufficientSecurityAmount",
      "type": "error"
    },
    {
      "inputs": [
        {
          "internalType": "uint256",
          "name": "id",
          "type": "uint256"
        }
      ],
      "name": "BaksDAOLoanIsSubjectToLiquidation",
      "type": "error"
    },
    {
      "inputs": [
        {
          "internalType": "uint256",
          "name": "id",
          "type": "uint256"
        }
      ],
      "name": "BaksDAOLoanNotSubjectToLiquidation",
      "type": "error"
    },
    {
      "inputs": [
        {
          "internalType": "uint256",
          "name": "id",
          "type": "uint256"
        }
      ],
      "name": "BaksDAONativeCurrencyCollateralNotAllowed",
      "type": "error"
    },
    {
      "inputs": [],
      "name": "BaksDAONativeCurrencyTransferFailed",
      "type": "error"
    },
    {
      "inputs": [],
      "name": "BaksDAONoNeedToRebalance",
      "type": "error"
    },
    {
      "inputs": [],
      "name": "BaksDAOPlainNativeCurrencyTransferNotAllowed",
      "type": "error"
    },
    {
      "inputs": [],
      "name": "BaksDAORepayZeroAmount",
      "type": "error"
    },
    {
      "inputs": [
        {
          "internalType": "uint256",
          "name": "shortage",
          "type": "uint256"
        }
      ],
      "name": "BaksDAOStabilizationFundOutOfFunds",
      "type": "error"
    },
    {
      "inputs": [
        {
          "internalType": "contract IERC20",
          "name": "token",
          "type": "address"
        }
      ],
      "name": "BaksDAOTokenNotAllowedAsCollateral",
      "type": "error"
    },
    {
      "inputs": [
        {
          "internalType": "contract IERC20",
          "name": "token",
          "type": "address"
        }
      ],
      "name": "BaksDAOTokenNotAllowedToBeSalvaged",
      "type": "error"
    },
    {
      "inputs": [
        {
          "internalType": "address",
          "name": "target",
          "type": "address"
        }
      ],
      "name": "CallToNonContract",
      "type": "error"
    },
    {
      "inputs": [],
      "name": "ContractAlreadyInitialized",
      "type": "error"
    },
    {
      "inputs": [
        {
          "internalType": "uint256",
          "name": "prod1",
          "type": "uint256"
        },
        {
          "internalType": "uint256",
          "name": "denominator",
          "type": "uint256"
        }
      ],
      "name": "FixedPointMathMulDivOverflow",
      "type": "error"
    },
    {
      "inputs": [],
      "name": "GovernedCantGoverItself",
      "type": "error"
    },
    {
      "inputs": [],
      "name": "GovernedGovernorZeroAddress",
      "type": "error"
    },
    {
      "inputs": [],
      "name": "GovernedOnlyGovernorAllowedToCall",
      "type": "error"
    },
    {
      "inputs": [],
      "name": "GovernedOnlyPendingGovernorAllowedToCall",
      "type": "error"
    },
    {
      "inputs": [],
      "name": "ReentrancyGuardReentrantCall",
      "type": "error"
    },
    {
      "inputs": [],
      "name": "SafeERC20NoReturnData",
      "type": "error"
    },
    {
      "anonymous": false,
      "inputs": [
        {
          "indexed": true,
          "internalType": "uint256",
          "name": "id",
          "type": "uint256"
        },
        {
          "indexed": true,
          "internalType": "address",
          "name": "borrower",
          "type": "address"
        },
        {
          "indexed": true,
          "internalType": "contract IERC20",
          "name": "token",
          "type": "address"
        },
        {
          "indexed": false,
          "internalType": "uint256",
          "name": "principalAmount",
          "type": "uint256"
        },
        {
          "indexed": false,
          "internalType": "uint256",
          "name": "collateralAmount",
          "type": "uint256"
        },
        {
          "indexed": false,
          "internalType": "uint256",
          "name": "initialLoanToValueRatio",
          "type": "uint256"
        }
      ],
      "name": "Borrow",
      "type": "event"
    },
    {
      "anonymous": false,
      "inputs": [
        {
          "indexed": true,
          "internalType": "contract IERC20",
          "name": "token",
          "type": "address"
        }
      ],
      "name": "CollateralTokenListed",
      "type": "event"
    },
    {
      "anonymous": false,
      "inputs": [
        {
          "indexed": true,
          "internalType": "contract IERC20",
          "name": "token",
          "type": "address"
        }
      ],
      "name": "CollateralTokenUnlisted",
      "type": "event"
    },
    {
      "anonymous": false,
      "inputs": [
        {
          "indexed": true,
          "internalType": "uint256",
          "name": "id",
          "type": "uint256"
        },
        {
          "indexed": false,
          "internalType": "uint256",
          "name": "collateralAmount",
          "type": "uint256"
        }
      ],
      "name": "Deposit",
      "type": "event"
    },
    {
      "anonymous": false,
      "inputs": [
        {
          "indexed": true,
          "internalType": "address",
          "name": "governor",
          "type": "address"
        },
        {
          "indexed": true,
          "internalType": "address",
          "name": "newGovernor",
          "type": "address"
        }
      ],
      "name": "GovernanceTransited",
      "type": "event"
    },
    {
      "anonymous": false,
      "inputs": [
        {
          "indexed": true,
          "internalType": "contract IERC20",
          "name": "token",
          "type": "address"
        },
        {
          "indexed": false,
          "internalType": "uint256",
          "name": "initialLoanToValueRatio",
          "type": "uint256"
        },
        {
          "indexed": false,
          "internalType": "uint256",
          "name": "newInitialLoanToValueRatio",
          "type": "uint256"
        }
      ],
      "name": "InitialLoanToValueRatioUpdated",
      "type": "event"
    },
    {
      "anonymous": false,
      "inputs": [
        {
          "indexed": true,
          "internalType": "uint256",
          "name": "id",
          "type": "uint256"
        }
      ],
      "name": "Liquidated",
      "type": "event"
    },
    {
      "anonymous": false,
      "inputs": [
        {
          "indexed": true,
          "internalType": "address",
          "name": "governor",
          "type": "address"
        },
        {
          "indexed": true,
          "internalType": "address",
          "name": "newGovernor",
          "type": "address"
        }
      ],
      "name": "PendingGovernanceTransition",
      "type": "event"
    },
    {
      "anonymous": false,
      "inputs": [
        {
          "indexed": false,
          "internalType": "int256",
          "name": "delta",
          "type": "int256"
        }
      ],
      "name": "Rebalance",
      "type": "event"
    },
    {
      "anonymous": false,
      "inputs": [
        {
          "indexed": true,
          "internalType": "uint256",
          "name": "id",
          "type": "uint256"
        }
      ],
      "name": "Repaid",
      "type": "event"
    },
    {
      "anonymous": false,
      "inputs": [
        {
          "indexed": true,
          "internalType": "uint256",
          "name": "id",
          "type": "uint256"
        },
        {
          "indexed": false,
          "internalType": "uint256",
          "name": "principalAmount",
          "type": "uint256"
        }
      ],
      "name": "Repay",
      "type": "event"
    },
    {
      "inputs": [],
      "name": "acceptGovernance",
      "outputs": [],
      "stateMutability": "nonpayable",
      "type": "function"
    },
    {
      "inputs": [
        {
          "internalType": "contract IERC20",
          "name": "collateralToken",
          "type": "address"
        },
        {
          "internalType": "uint256",
          "name": "amount",
          "type": "uint256"
        }
      ],
      "name": "borrow",
      "outputs": [
        {
          "components": [
            {
              "internalType": "uint256",
              "name": "id",
              "type": "uint256"
            },
            {
              "internalType": "bool",
              "name": "isActive",
              "type": "bool"
            },
            {
              "internalType": "address",
              "name": "borrower",
              "type": "address"
            },
            {
              "internalType": "contract IERC20",
              "name": "collateralToken",
              "type": "address"
            },
            {
              "internalType": "bool",
              "name": "isNativeCurrency",
              "type": "bool"
            },
            {
              "internalType": "contract IPriceOracle",
              "name": "priceOracle",
              "type": "address"
            },
            {
              "internalType": "uint256",
              "name": "stabilityFee",
              "type": "uint256"
            },
            {
              "internalType": "uint256",
              "name": "stabilizationFee",
              "type": "uint256"
            },
            {
              "internalType": "uint256",
              "name": "exchangeFee",
              "type": "uint256"
            },
            {
              "internalType": "uint256",
              "name": "developmentFee",
              "type": "uint256"
            },
            {
              "internalType": "uint256",
              "name": "principalAmount",
              "type": "uint256"
            },
            {
              "internalType": "uint256",
              "name": "collateralAmount",
              "type": "uint256"
            },
            {
              "internalType": "uint256",
              "name": "lastDepositAt",
              "type": "uint256"
            },
            {
              "internalType": "uint256",
              "name": "lastRepaymentAt",
              "type": "uint256"
            }
          ],
          "internalType": "struct Loan.Data",
          "name": "",
          "type": "tuple"
        }
      ],
      "stateMutability": "nonpayable",
      "type": "function"
    },
    {
      "inputs": [
        {
          "internalType": "uint256",
          "name": "amount",
          "type": "uint256"
        }
      ],
      "name": "borrowInNativeCurrency",
      "outputs": [
        {
          "components": [
            {
              "internalType": "uint256",
              "name": "id",
              "type": "uint256"
            },
            {
              "internalType": "bool",
              "name": "isActive",
              "type": "bool"
            },
            {
              "internalType": "address",
              "name": "borrower",
              "type": "address"
            },
            {
              "internalType": "contract IERC20",
              "name": "collateralToken",
              "type": "address"
            },
            {
              "internalType": "bool",
              "name": "isNativeCurrency",
              "type": "bool"
            },
            {
              "internalType": "contract IPriceOracle",
              "name": "priceOracle",
              "type": "address"
            },
            {
              "internalType": "uint256",
              "name": "stabilityFee",
              "type": "uint256"
            },
            {
              "internalType": "uint256",
              "name": "stabilizationFee",
              "type": "uint256"
            },
            {
              "internalType": "uint256",
              "name": "exchangeFee",
              "type": "uint256"
            },
            {
              "internalType": "uint256",
              "name": "developmentFee",
              "type": "uint256"
            },
            {
              "internalType": "uint256",
              "name": "principalAmount",
              "type": "uint256"
            },
            {
              "internalType": "uint256",
              "name": "collateralAmount",
              "type": "uint256"
            },
            {
              "internalType": "uint256",
              "name": "lastDepositAt",
              "type": "uint256"
            },
            {
              "internalType": "uint256",
              "name": "lastRepaymentAt",
              "type": "uint256"
            }
          ],
          "internalType": "struct Loan.Data",
          "name": "",
          "type": "tuple"
        }
      ],
      "stateMutability": "payable",
      "type": "function"
    },
    {
      "inputs": [
        {
          "internalType": "contract IERC20",
          "name": "collateralToken",
          "type": "address"
        },
        {
          "internalType": "uint256",
          "name": "collateralAmount",
          "type": "uint256"
        }
      ],
      "name": "calculateLoanByCollateralAmount",
      "outputs": [
        {
          "components": [
            {
              "internalType": "uint256",
              "name": "id",
              "type": "uint256"
            },
            {
              "internalType": "bool",
              "name": "isActive",
              "type": "bool"
            },
            {
              "internalType": "address",
              "name": "borrower",
              "type": "address"
            },
            {
              "internalType": "contract IERC20",
              "name": "collateralToken",
              "type": "address"
            },
            {
              "internalType": "bool",
              "name": "isNativeCurrency",
              "type": "bool"
            },
            {
              "internalType": "contract IPriceOracle",
              "name": "priceOracle",
              "type": "address"
            },
            {
              "internalType": "uint256",
              "name": "stabilityFee",
              "type": "uint256"
            },
            {
              "internalType": "uint256",
              "name": "stabilizationFee",
              "type": "uint256"
            },
            {
              "internalType": "uint256",
              "name": "exchangeFee",
              "type": "uint256"
            },
            {
              "internalType": "uint256",
              "name": "developmentFee",
              "type": "uint256"
            },
            {
              "internalType": "uint256",
              "name": "principalAmount",
              "type": "uint256"
            },
            {
              "internalType": "uint256",
              "name": "collateralAmount",
              "type": "uint256"
            },
            {
              "internalType": "uint256",
              "name": "lastDepositAt",
              "type": "uint256"
            },
            {
              "internalType": "uint256",
              "name": "lastRepaymentAt",
              "type": "uint256"
            }
          ],
          "internalType": "struct Loan.Data",
          "name": "loan",
          "type": "tuple"
        }
      ],
      "stateMutability": "view",
      "type": "function"
    },
    {
      "inputs": [
        {
          "internalType": "contract IERC20",
          "name": "collateralToken",
          "type": "address"
        },
        {
          "internalType": "uint256",
          "name": "principalAmount",
          "type": "uint256"
        }
      ],
      "name": "calculateLoanByPrincipalAmount",
      "outputs": [
        {
          "components": [
            {
              "internalType": "uint256",
              "name": "id",
              "type": "uint256"
            },
            {
              "internalType": "bool",
              "name": "isActive",
              "type": "bool"
            },
            {
              "internalType": "address",
              "name": "borrower",
              "type": "address"
            },
            {
              "internalType": "contract IERC20",
              "name": "collateralToken",
              "type": "address"
            },
            {
              "internalType": "bool",
              "name": "isNativeCurrency",
              "type": "bool"
            },
            {
              "internalType": "contract IPriceOracle",
              "name": "priceOracle",
              "type": "address"
            },
            {
              "internalType": "uint256",
              "name": "stabilityFee",
              "type": "uint256"
            },
            {
              "internalType": "uint256",
              "name": "stabilizationFee",
              "type": "uint256"
            },
            {
              "internalType": "uint256",
              "name": "exchangeFee",
              "type": "uint256"
            },
            {
              "internalType": "uint256",
              "name": "developmentFee",
              "type": "uint256"
            },
            {
              "internalType": "uint256",
              "name": "principalAmount",
              "type": "uint256"
            },
            {
              "internalType": "uint256",
              "name": "collateralAmount",
              "type": "uint256"
            },
            {
              "internalType": "uint256",
              "name": "lastDepositAt",
              "type": "uint256"
            },
            {
              "internalType": "uint256",
              "name": "lastRepaymentAt",
              "type": "uint256"
            }
          ],
          "internalType": "struct Loan.Data",
          "name": "loan",
          "type": "tuple"
        }
      ],
      "stateMutability": "view",
      "type": "function"
    },
    {
      "inputs": [
        {
          "internalType": "contract IERC20",
          "name": "collateralToken",
          "type": "address"
        },
        {
          "internalType": "uint256",
          "name": "securityAmount",
          "type": "uint256"
        }
      ],
      "name": "calculateLoanBySecurityAmount",
      "outputs": [
        {
          "components": [
            {
              "internalType": "uint256",
              "name": "id",
              "type": "uint256"
            },
            {
              "internalType": "bool",
              "name": "isActive",
              "type": "bool"
            },
            {
              "internalType": "address",
              "name": "borrower",
              "type": "address"
            },
            {
              "internalType": "contract IERC20",
              "name": "collateralToken",
              "type": "address"
            },
            {
              "internalType": "bool",
              "name": "isNativeCurrency",
              "type": "bool"
            },
            {
              "internalType": "contract IPriceOracle",
              "name": "priceOracle",
              "type": "address"
            },
            {
              "internalType": "uint256",
              "name": "stabilityFee",
              "type": "uint256"
            },
            {
              "internalType": "uint256",
              "name": "stabilizationFee",
              "type": "uint256"
            },
            {
              "internalType": "uint256",
              "name": "exchangeFee",
              "type": "uint256"
            },
            {
              "internalType": "uint256",
              "name": "developmentFee",
              "type": "uint256"
            },
            {
              "internalType": "uint256",
              "name": "principalAmount",
              "type": "uint256"
            },
            {
              "internalType": "uint256",
              "name": "collateralAmount",
              "type": "uint256"
            },
            {
              "internalType": "uint256",
              "name": "lastDepositAt",
              "type": "uint256"
            },
            {
              "internalType": "uint256",
              "name": "lastRepaymentAt",
              "type": "uint256"
            }
          ],
          "internalType": "struct Loan.Data",
          "name": "loan",
          "type": "tuple"
        }
      ],
      "stateMutability": "view",
      "type": "function"
    },
    {
      "inputs": [
        {
          "internalType": "uint256",
          "name": "loanId",
          "type": "uint256"
        }
      ],
      "name": "checkHealth",
      "outputs": [
        {
          "internalType": "enum Bank.Health",
          "name": "health",
          "type": "uint8"
        }
      ],
      "stateMutability": "view",
      "type": "function"
    },
    {
      "inputs": [
        {
          "internalType": "contract IERC20",
          "name": "",
          "type": "address"
        }
      ],
      "name": "collateralTokens",
      "outputs": [
        {
          "internalType": "contract IERC20",
          "name": "collateralToken",
          "type": "address"
        },
        {
          "internalType": "contract IPriceOracle",
          "name": "priceOracle",
          "type": "address"
        },
        {
          "internalType": "uint256",
          "name": "stabilityFee",
          "type": "uint256"
        },
        {
          "internalType": "uint256",
          "name": "stabilizationFee",
          "type": "uint256"
        },
        {
          "internalType": "uint256",
          "name": "exchangeFee",
          "type": "uint256"
        },
        {
          "internalType": "uint256",
          "name": "developmentFee",
          "type": "uint256"
        },
        {
          "internalType": "uint256",
          "name": "initialLoanToValueRatio",
          "type": "uint256"
        },
        {
          "internalType": "uint256",
          "name": "marginCallLoanToValueRatio",
          "type": "uint256"
        },
        {
          "internalType": "uint256",
          "name": "liquidationLoanToValueRatio",
          "type": "uint256"
        },
        {
          "internalType": "uint256",
          "name": "collateralAmount",
          "type": "uint256"
        }
      ],
      "stateMutability": "view",
      "type": "function"
    },
    {
      "inputs": [],
      "name": "core",
      "outputs": [
        {
          "internalType": "contract ICore",
          "name": "",
          "type": "address"
        }
      ],
      "stateMutability": "view",
      "type": "function"
    },
    {
      "inputs": [
        {
          "internalType": "uint256",
          "name": "loanId",
          "type": "uint256"
        },
        {
          "internalType": "uint256",
          "name": "amount",
          "type": "uint256"
        }
      ],
      "name": "deposit",
      "outputs": [],
      "stateMutability": "nonpayable",
      "type": "function"
    },
    {
      "inputs": [
        {
          "internalType": "uint256",
          "name": "loanId",
          "type": "uint256"
        }
      ],
      "name": "depositInNativeCurrency",
      "outputs": [],
      "stateMutability": "payable",
      "type": "function"
    },
    {
      "inputs": [],
      "name": "developmentFund",
      "outputs": [
        {
          "internalType": "address",
          "name": "",
          "type": "address"
        }
      ],
      "stateMutability": "view",
      "type": "function"
    },
    {
      "inputs": [],
      "name": "exchangeFund",
      "outputs": [
        {
          "internalType": "address",
          "name": "",
          "type": "address"
        }
      ],
      "stateMutability": "view",
      "type": "function"
    },
    {
      "inputs": [],
      "name": "getAllowedCollateralTokens",
      "outputs": [
        {
          "components": [
            {
              "internalType": "contract IERC20",
              "name": "collateralToken",
              "type": "address"
            },
            {
              "internalType": "contract IPriceOracle",
              "name": "priceOracle",
              "type": "address"
            },
            {
              "internalType": "uint256",
              "name": "stabilityFee",
              "type": "uint256"
            },
            {
              "internalType": "uint256",
              "name": "stabilizationFee",
              "type": "uint256"
            },
            {
              "internalType": "uint256",
              "name": "exchangeFee",
              "type": "uint256"
            },
            {
              "internalType": "uint256",
              "name": "developmentFee",
              "type": "uint256"
            },
            {
              "internalType": "uint256",
              "name": "initialLoanToValueRatio",
              "type": "uint256"
            },
            {
              "internalType": "uint256",
              "name": "marginCallLoanToValueRatio",
              "type": "uint256"
            },
            {
              "internalType": "uint256",
              "name": "liquidationLoanToValueRatio",
              "type": "uint256"
            },
            {
              "internalType": "uint256",
              "name": "collateralAmount",
              "type": "uint256"
            }
          ],
          "internalType": "struct CollateralToken.Data[]",
          "name": "allowedCollateralTokens",
          "type": "tuple[]"
        }
      ],
      "stateMutability": "view",
      "type": "function"
    },
    {
      "inputs": [
        {
          "internalType": "uint256",
          "name": "loanId",
          "type": "uint256"
        }
      ],
      "name": "getLoanToValueRatio",
      "outputs": [
        {
          "internalType": "uint256",
          "name": "loanToValueRatio",
          "type": "uint256"
        }
      ],
      "stateMutability": "view",
      "type": "function"
    },
    {
      "inputs": [
        {
          "internalType": "address",
          "name": "borrower",
          "type": "address"
        }
      ],
      "name": "getLoans",
      "outputs": [
        {
          "components": [
            {
              "internalType": "uint256",
              "name": "id",
              "type": "uint256"
            },
            {
              "internalType": "bool",
              "name": "isActive",
              "type": "bool"
            },
            {
              "internalType": "address",
              "name": "borrower",
              "type": "address"
            },
            {
              "internalType": "contract IERC20",
              "name": "collateralToken",
              "type": "address"
            },
            {
              "internalType": "bool",
              "name": "isNativeCurrency",
              "type": "bool"
            },
            {
              "internalType": "contract IPriceOracle",
              "name": "priceOracle",
              "type": "address"
            },
            {
              "internalType": "uint256",
              "name": "stabilityFee",
              "type": "uint256"
            },
            {
              "internalType": "uint256",
              "name": "stabilizationFee",
              "type": "uint256"
            },
            {
              "internalType": "uint256",
              "name": "exchangeFee",
              "type": "uint256"
            },
            {
              "internalType": "uint256",
              "name": "developmentFee",
              "type": "uint256"
            },
            {
              "internalType": "uint256",
              "name": "principalAmount",
              "type": "uint256"
            },
            {
              "internalType": "uint256",
              "name": "collateralAmount",
              "type": "uint256"
            },
            {
              "internalType": "uint256",
              "name": "lastDepositAt",
              "type": "uint256"
            },
            {
              "internalType": "uint256",
              "name": "lastRepaymentAt",
              "type": "uint256"
            }
          ],
          "internalType": "struct Loan.Data[]",
          "name": "_loans",
          "type": "tuple[]"
        }
      ],
      "stateMutability": "view",
      "type": "function"
    },
    {
      "inputs": [],
      "name": "getTotalValueLocked",
      "outputs": [
        {
          "internalType": "uint256",
          "name": "totalValueLocked",
          "type": "uint256"
        }
      ],
      "stateMutability": "view",
      "type": "function"
    },
    {
      "inputs": [],
      "name": "governor",
      "outputs": [
        {
          "internalType": "address",
          "name": "",
          "type": "address"
        }
      ],
      "stateMutability": "view",
      "type": "function"
    },
    {
      "inputs": [
        {
          "internalType": "contract IWrappedNativeCurrency",
          "name": "_wrappedNativeCurrency",
          "type": "address"
        },
        {
          "internalType": "contract ICore",
          "name": "_core",
          "type": "address"
        },
        {
          "internalType": "contract IMintableAndBurnableERC20",
          "name": "_stablecoin",
          "type": "address"
        },
        {
          "internalType": "contract IPriceOracle",
          "name": "_priceOracle",
          "type": "address"
        },
        {
          "internalType": "address",
          "name": "_operator",
          "type": "address"
        },
        {
          "internalType": "address",
          "name": "_liquidator",
          "type": "address"
        },
        {
          "internalType": "address",
          "name": "_exchangeFund",
          "type": "address"
        },
        {
          "internalType": "address",
          "name": "_developmentFund",
          "type": "address"
        }
      ],
      "name": "initialize",
      "outputs": [],
      "stateMutability": "nonpayable",
      "type": "function"
    },
    {
      "inputs": [
        {
          "internalType": "uint256",
          "name": "loanId",
          "type": "uint256"
        }
      ],
      "name": "liquidate",
      "outputs": [],
      "stateMutability": "nonpayable",
      "type": "function"
    },
    {
      "inputs": [],
      "name": "liquidator",
      "outputs": [
        {
          "internalType": "address",
          "name": "",
          "type": "address"
        }
      ],
      "stateMutability": "view",
      "type": "function"
    },
    {
      "inputs": [
        {
          "internalType": "contract IERC20",
          "name": "token",
          "type": "address"
        },
        {
          "internalType": "uint256",
          "name": "initialLoanToValueRatio",
          "type": "uint256"
        }
      ],
      "name": "listCollateralToken",
      "outputs": [],
      "stateMutability": "nonpayable",
      "type": "function"
    },
    {
      "inputs": [
        {
          "internalType": "address",
          "name": "",
          "type": "address"
        },
        {
          "internalType": "uint256",
          "name": "",
          "type": "uint256"
        }
      ],
      "name": "loanIds",
      "outputs": [
        {
          "internalType": "uint256",
          "name": "",
          "type": "uint256"
        }
      ],
      "stateMutability": "view",
      "type": "function"
    },
    {
      "inputs": [
        {
          "internalType": "uint256",
          "name": "",
          "type": "uint256"
        }
      ],
      "name": "loans",
      "outputs": [
        {
          "internalType": "uint256",
          "name": "id",
          "type": "uint256"
        },
        {
          "internalType": "bool",
          "name": "isActive",
          "type": "bool"
        },
        {
          "internalType": "address",
          "name": "borrower",
          "type": "address"
        },
        {
          "internalType": "contract IERC20",
          "name": "collateralToken",
          "type": "address"
        },
        {
          "internalType": "bool",
          "name": "isNativeCurrency",
          "type": "bool"
        },
        {
          "internalType": "contract IPriceOracle",
          "name": "priceOracle",
          "type": "address"
        },
        {
          "internalType": "uint256",
          "name": "stabilityFee",
          "type": "uint256"
        },
        {
          "internalType": "uint256",
          "name": "stabilizationFee",
          "type": "uint256"
        },
        {
          "internalType": "uint256",
          "name": "exchangeFee",
          "type": "uint256"
        },
        {
          "internalType": "uint256",
          "name": "developmentFee",
          "type": "uint256"
        },
        {
          "internalType": "uint256",
          "name": "principalAmount",
          "type": "uint256"
        },
        {
          "internalType": "uint256",
          "name": "collateralAmount",
          "type": "uint256"
        },
        {
          "internalType": "uint256",
          "name": "lastDepositAt",
          "type": "uint256"
        },
        {
          "internalType": "uint256",
          "name": "lastRepaymentAt",
          "type": "uint256"
        }
      ],
      "stateMutability": "view",
      "type": "function"
    },
    {
      "inputs": [],
      "name": "operator",
      "outputs": [
        {
          "internalType": "address",
          "name": "",
          "type": "address"
        }
      ],
      "stateMutability": "view",
      "type": "function"
    },
    {
      "inputs": [],
      "name": "pendingGovernor",
      "outputs": [
        {
          "internalType": "address",
          "name": "",
          "type": "address"
        }
      ],
      "stateMutability": "view",
      "type": "function"
    },
    {
      "inputs": [],
      "name": "priceOracle",
      "outputs": [
        {
          "internalType": "contract IPriceOracle",
          "name": "",
          "type": "address"
        }
      ],
      "stateMutability": "view",
      "type": "function"
    },
    {
      "inputs": [],
      "name": "rebalance",
      "outputs": [],
      "stateMutability": "nonpayable",
      "type": "function"
    },
    {
      "inputs": [
        {
          "internalType": "uint256",
          "name": "loanId",
          "type": "uint256"
        },
        {
          "internalType": "uint256",
          "name": "amount",
          "type": "uint256"
        }
      ],
      "name": "repay",
      "outputs": [],
      "stateMutability": "nonpayable",
      "type": "function"
    },
    {
      "inputs": [
        {
          "internalType": "contract IERC20",
          "name": "token",
          "type": "address"
        }
      ],
      "name": "salvage",
      "outputs": [],
      "stateMutability": "nonpayable",
      "type": "function"
    },
    {
      "inputs": [
        {
          "internalType": "contract IERC20",
          "name": "token",
          "type": "address"
        },
        {
          "internalType": "uint256",
          "name": "newInitialLoanToValueRatio",
          "type": "uint256"
        }
      ],
      "name": "setInitialLoanToValueRatio",
      "outputs": [],
      "stateMutability": "nonpayable",
      "type": "function"
    },
    {
      "inputs": [],
      "name": "stablecoin",
      "outputs": [
        {
          "internalType": "contract IMintableAndBurnableERC20",
          "name": "",
          "type": "address"
        }
      ],
      "stateMutability": "view",
      "type": "function"
    },
    {
      "inputs": [
        {
          "internalType": "address",
          "name": "newGovernor",
          "type": "address"
        },
        {
          "internalType": "bool",
          "name": "force",
          "type": "bool"
        }
      ],
      "name": "transitGovernance",
      "outputs": [],
      "stateMutability": "nonpayable",
      "type": "function"
    },
    {
      "inputs": [
        {
          "internalType": "contract IERC20",
          "name": "token",
          "type": "address"
        }
      ],
      "name": "unlistCollateralToken",
      "outputs": [],
      "stateMutability": "nonpayable",
      "type": "function"
    },
    {
      "inputs": [],
      "name": "wrappedNativeCurrency",
      "outputs": [
        {
          "internalType": "contract IWrappedNativeCurrency",
          "name": "",
          "type": "address"
        }
      ],
      "stateMutability": "view",
      "type": "function"
    },
    {
      "stateMutability": "payable",
      "type": "receive"
    }
  ],
  "transactionHash": "0xdf76f50095c117270646f803f75571fc516c8d9a08c8748d474e3b1c2ec0d0a9",
  "args": [],
  "solcInputHash": "e55ff2d5620125d078bf2822362bfb18",
  "bytecode": "0x608060405234801561001057600080fd5b506001600255614851806100256000396000f3fe6080604052600436106102385760003560e01c80638fa1552e11610138578063ddc12526116100b0578063e3056a341161007f578063e7f3028c11610064578063e7f3028c146107ba578063e9cbd822146107da578063f2f4eb26146107fa57600080fd5b8063e3056a341461077a578063e39302491461079a57600080fd5b8063ddc1252614610673578063dfe8f67114610693578063e1ec3c68146106c0578063e2bbb1581461075a57600080fd5b8063cf17622511610107578063d34cf64c116100ec578063d34cf64c14610613578063d8aed14514610626578063d988ef201461064657600080fd5b8063cf17622514610523578063cffbc2971461054557600080fd5b80638fa1552e146104ae578063b26025aa146104ce578063b38e4816146104e3578063c78bede81461050357600080fd5b80634721f2db116101cb5780637d7c2a1c1161019a57806387eae8191161017f57806387eae8191461044e5780638a2381d71461046e5780638a29e2de1461048e57600080fd5b80637d7c2a1c14610419578063863a03e01461042e57600080fd5b80634721f2db146103995780634b8a3529146103b95780634c12d471146103d9578063570ca735146103f957600080fd5b80632630c12f116102075780632630c12f146103195780634046ebae14610339578063415f12401461035957806344dbdd901461037957600080fd5b80630b5a017a1461026f5780630c340a24146102985780631cec9e75146102d6578063238efcbc1461030457600080fd5b3661026a576003546001600160a01b0316331461026857604051634b908c4f60e01b815260040160405180910390fd5b005b600080fd5b61028261027d36600461415a565b61081a565b60405161028f9190614247565b60405180910390f35b3480156102a457600080fd5b506000546102be906201000090046001600160a01b031681565b6040516001600160a01b03909116815260200161028f565b3480156102e257600080fd5b506102f66102f136600461415a565b6109e0565b60405190815260200161028f565b34801561031057600080fd5b50610268610ad8565b34801561032557600080fd5b506006546102be906001600160a01b031681565b34801561034557600080fd5b506008546102be906001600160a01b031681565b34801561036557600080fd5b5061026861037436600461415a565b610b6d565b34801561038557600080fd5b5061028261039436600461426b565b610ede565b3480156103a557600080fd5b506102686103b436600461426b565b610f7e565b3480156103c557600080fd5b506102826103d436600461426b565b611093565b3480156103e557600080fd5b506009546102be906001600160a01b031681565b34801561040557600080fd5b506007546102be906001600160a01b031681565b34801561042557600080fd5b5061026861117b565b34801561043a57600080fd5b50610268610449366004614297565b6114be565b34801561045a57600080fd5b5061026861046936600461426b565b6115e4565b34801561047a57600080fd5b50600a546102be906001600160a01b031681565b34801561049a57600080fd5b506102686104a93660046142b4565b611c5a565b3480156104ba57600080fd5b506102826104c936600461426b565b611d4e565b3480156104da57600080fd5b506102f6611dee565b3480156104ef57600080fd5b506102826104fe36600461426b565b611edb565b34801561050f57600080fd5b5061026861051e366004614297565b611f7b565b34801561052f57600080fd5b50610538612091565b60405161028f919061435d565b34801561055157600080fd5b506105be610560366004614297565b600d6020526000908152604090208054600182015460028301546003840154600485015460058601546006870154600788015460088901546009909901546001600160a01b039889169997909816979596949593949293919290918a565b604080516001600160a01b039b8c1681529a90991660208b0152978901969096526060880194909452608087019290925260a086015260c085015260e08401526101008301526101208201526101400161028f565b61026861062136600461415a565b612243565b34801561063257600080fd5b5061026861064136600461440c565b6123e2565b34801561065257600080fd5b50610666610661366004614297565b6127cf565b60405161028f919061442e565b34801561067f57600080fd5b5061026861068e36600461448b565b61299d565b34801561069f57600080fd5b506106b36106ae36600461415a565b612a8b565b60405161028f91906144da565b3480156106cc57600080fd5b506106e06106db36600461415a565b612bbe565b604080519e8f529c151560208f01526001600160a01b039b8c169c8e019c909c52988a1660608d015296151560808c01529790941660a08a015260c089019290925260e08801526101008701526101208601526101408501929092526101608401919091526101808301526101a08201526101c00161028f565b34801561076657600080fd5b5061026861077536600461440c565b612c4a565b34801561078657600080fd5b506001546102be906001600160a01b031681565b3480156107a657600080fd5b506102f66107b536600461426b565b612d5e565b3480156107c657600080fd5b506003546102be906001600160a01b031681565b3480156107e657600080fd5b506005546102be906001600160a01b031681565b34801561080657600080fd5b506004546102be906001600160a01b031681565b6108226140cc565b60028054141561084557604051633ee5aeb560e01b815260040160405180910390fd5b60028055600354600090610862906001600160a01b031684611edb565b6001608082015260c08101516101608201519192506000916108849190614518565b9050803410156108af57604051631e59fc6f60e01b8152600481018290526024015b60405180910390fd5b600360009054906101000a90046001600160a01b03166001600160a01b031663d0e30db0826040518263ffffffff1660e01b81526004016000604051808303818588803b1580156108ff57600080fd5b505af1158015610913573d6000803e3d6000fd5b505060075460c086015160035461095395506001600160a01b039283169450610940935090911690612d8f565b6003546001600160a01b03169190612e40565b348181039082146109c957604051600090339083908381818185875af1925050503d80600081146109a0576040519150601f19603f3d011682016040523d82523d6000602084013e6109a5565b606091505b50509050806109c757604051638762150d60e01b815260040160405180910390fd5b505b6109d283612ed0565b600160025595945050505050565b600080600b83815481106109f6576109f6614530565b6000918252602091829020604080516101c081018252600c90930290910180548352600181015460ff8082161515958501959095526001600160a01b036101009182900481169385019390935260028201548084166060860152600160a01b900490941615156080840152600381015490911660a0830152600481015460c0830152600581015460e0830152600681015492820192909252600782015461012082015260088201546101408201526009820154610160820152600a820154610180820152600b909101546101a08201529050610ad1816133d2565b9392505050565b6001546001600160a01b03163314610b035760405163aec80d4b60e01b815260040160405180910390fd5b60015460008054620100006001600160a01b0393841681810275ffffffffffffffffffffffffffffffffffffffff00001990931692909217808455604051929491900416917f564590b81987d147246f63910a8e1ee4eb09c4d64cc75ee975a8ffedfcc2210e91a3565b600280541415610b9057604051633ee5aeb560e01b815260040160405180910390fd5b60028055600b54819081101580610bce5750600b8181548110610bb557610bb5614530565b600091825260209091206001600c90920201015460ff16155b15610bef576040516372c4e6fd60e01b8152600481018290526024016108a6565b816002610bfb82612a8b565b6002811115610c0c57610c0c6144c4565b14610c2c57604051621e4f3560e61b8152600481018290526024016108a6565b6000600b8481548110610c4157610c41614530565b600091825260208083206009600c909302018281015460028201546001600160a01b03168552600d90925260408420909201805492945090929091610c87908490614546565b909155505060085460098201546002830154610ccb926001600160a01b0390811692610cb69290911690612d8f565b60028401546001600160a01b03169190612e40565b604080516101c08101825282548152600183015460ff808216151560208401526001600160a01b036101009283900481169484019490945260028501548085166060850152600160a01b90041615156080830152600384015490921660a0820152600483015460c0820152600583015460e0820152600683015491810191909152600782015461012082015260088201546101408201526009820154610160820152600a820154610180820152600b8201546101a0820152600090610d8f90613415565b6005546008805490850154604051632770a7eb60e21b81526001600160a01b03928316600482015260248101919091529293501690639dc29fac90604401600060405180830381600087803b158015610de757600080fd5b505af1158015610dfb573d6000803e3d6000fd5b505060055460088501546001600160a01b039091169250639dc29fac91503090610e259085614546565b6040517fffffffff0000000000000000000000000000000000000000000000000000000060e085901b1681526001600160a01b0390921660048301526024820152604401600060405180830381600087803b158015610e8357600080fd5b505af1158015610e97573d6000803e3d6000fd5b50505060018301805460ff191690555060405185907fc9e9d7cf3944e82f1fe222573e1c9acf5a2f6cd29aa9639bc8078065f091bb6b90600090a250506001600255505050565b610ee66140cc565b6001600160a01b038084166000908152600d60209081526040918290208251610140810184528154851681526001820154909416918401919091526002810154918301919091526003810154606083015260048101546080830152600581015460a0830152600681015460c0830152600781015460e0830152600881015461010083015260090154610120820152610ad190836134af565b6000546201000090046001600160a01b03163314610faf576040516305e7700560e51b815260040160405180910390fd5b6001600160a01b0382166000908152600f6020526040902054610ff057604051634cbfe6c960e11b81526001600160a01b03831660048201526024016108a6565b6001600160a01b0382166000908152600d602052604090206007810154821061103e57604051630d12026b60e31b81526001600160a01b0384166004820152602481018390526044016108a6565b6006810180549083905560408051828152602081018590526001600160a01b038616917fc6a8c526618a1ece6f5d33564501b92330c354faa23902079359e52c8efd72f391015b60405180910390a250505050565b61109b6140cc565b6002805414156110be57604051633ee5aeb560e01b815260040160405180910390fd5b600280556001600160a01b0383166000908152600f60205260409020548390611105576040516308cfe49560e31b81526001600160a01b03821660048201526024016108a6565b60006111118585611edb565b60075460c082015191925061114c9133916001600160a01b039081169161113a918a1690612d8f565b6001600160a01b0389169291906135b1565b611172333061113a846101600151896001600160a01b0316612d8f90919063ffffffff16565b6109d281612ed0565b60028054141561119e57604051633ee5aeb560e01b815260040160405180910390fd5b6002805560006111ac611dee565b90506000600560009054906101000a90046001600160a01b03166001600160a01b03166318160ddd6040518163ffffffff1660e01b815260040160206040518083038186803b1580156111fe57600080fd5b505afa158015611212573d6000803e3d6000fd5b505050506040513d601f19601f82011682018060405250810190611236919061455d565b905060006112448383614576565b90506000611251826135ef565b9050600061125f8285613607565b9050600460009054906101000a90046001600160a01b03166001600160a01b031663ee0e54cb6040518163ffffffff1660e01b815260040160206040518083038186803b1580156112af57600080fd5b505afa1580156112c3573d6000803e3d6000fd5b505050506040513d601f19601f820116820180604052508101906112e7919061455d565b811015611307576040516363b74cfb60e01b815260040160405180910390fd5b600083131561141a57600554604051632770a7eb60e21b8152306004820152602481018490526001600160a01b0390911690639dc29fac90604401600060405180830381600087803b15801561135c57600080fd5b505af192505050801561136d575060015b611415576005546040516370a0823160e01b81523060048201526000916001600160a01b0316906370a082319060240160206040518083038186803b1580156113b557600080fd5b505afa1580156113c9573d6000803e3d6000fd5b505050506040513d601f19601f820116820180604052508101906113ed919061455d565b90506113f98184614546565b60405163dc14e6f760e01b81526004016108a691815260200190565b61147f565b6005546040516340c10f1960e01b8152306004820152602481018490526001600160a01b03909116906340c10f1990604401600060405180830381600087803b15801561146657600080fd5b505af115801561147a573d6000803e3d6000fd5b505050505b6040518381527fa3cc94864c69eaba081615f691669aa27c9f8697ad249e6c01a4d792b2aace949060200160405180910390a150506001600255505050565b6000546201000090046001600160a01b031633146114ef576040516305e7700560e51b815260040160405180910390fd5b60055481906001600160a01b038083169116148061152457506001600160a01b0381166000908152600f602052604090205415155b1561154c5760405162919e6d60e01b81526001600160a01b03831660048201526024016108a6565b6007546040516370a0823160e01b81523060048201526115e0916001600160a01b0390811691908516906370a082319060240160206040518083038186803b15801561159757600080fd5b505afa1580156115ab573d6000803e3d6000fd5b505050506040513d601f19601f820116820180604052508101906115cf919061455d565b6001600160a01b0385169190612e40565b5050565b6000546201000090046001600160a01b03163314611615576040516305e7700560e51b815260040160405180910390fd5b6001600160a01b0382166000908152600f6020526040902054156116575760405163ca6d908160e01b81526001600160a01b03831660048201526024016108a6565b6004805460408051636c3b6cc760e11b815290516001600160a01b039092169263d876d98e928282019260209290829003018186803b15801561169957600080fd5b505afa1580156116ad573d6000803e3d6000fd5b505050506040513d601f19601f820116820180604052508101906116d1919061455d565b811061170257604051630d12026b60e31b81526001600160a01b0383166004820152602481018290526044016108a6565b6000826001600160a01b031663313ce5676040518163ffffffff1660e01b815260040160206040518083038186803b15801561173d57600080fd5b505afa158015611751573d6000803e3d6000fd5b505050506040513d601f19601f8201168201806040525081019061177591906145ce565b905060ff81166117a35760405163016058a160e51b81526001600160a01b03841660048201526024016108a6565b601260ff821611156117dc5760405163dbba24db60e01b81526001600160a01b038416600482015260ff821660248201526044016108a6565b6117e7600e8461361c565b15611c555760408051610140810182526001600160a01b038086168252600654811660208084019190915260048054855163361416e160e01b815286519596870195919094169363361416e19381840193909291829003018186803b15801561184f57600080fd5b505afa158015611863573d6000803e3d6000fd5b505050506040513d601f19601f82011682018060405250810190611887919061455d565b8152602001600460009054906101000a90046001600160a01b03166001600160a01b03166342580dbe6040518163ffffffff1660e01b815260040160206040518083038186803b1580156118da57600080fd5b505afa1580156118ee573d6000803e3d6000fd5b505050506040513d601f19601f82011682018060405250810190611912919061455d565b8152602001600460009054906101000a90046001600160a01b03166001600160a01b0316632ecd3be46040518163ffffffff1660e01b815260040160206040518083038186803b15801561196557600080fd5b505afa158015611979573d6000803e3d6000fd5b505050506040513d601f19601f8201168201806040525081019061199d919061455d565b8152602001600460009054906101000a90046001600160a01b03166001600160a01b031663a5f3d0036040518163ffffffff1660e01b815260040160206040518083038186803b1580156119f057600080fd5b505afa158015611a04573d6000803e3d6000fd5b505050506040513d601f19601f82011682018060405250810190611a28919061455d565b8152602001838152602001600460009054906101000a90046001600160a01b03166001600160a01b031663d876d98e6040518163ffffffff1660e01b815260040160206040518083038186803b158015611a8157600080fd5b505afa158015611a95573d6000803e3d6000fd5b505050506040513d601f19601f82011682018060405250810190611ab9919061455d565b8152602001600460009054906101000a90046001600160a01b03166001600160a01b0316634433c5e86040518163ffffffff1660e01b815260040160206040518083038186803b158015611b0c57600080fd5b505afa158015611b20573d6000803e3d6000fd5b505050506040513d601f19601f82011682018060405250810190611b44919061455d565b8152600060209182018190526001600160a01b03868116808352600d84526040808420865181546001600160a01b031990811691861691909117825595870151600182018054909716941693909317909455848401516002830155606085015160038301556080850151600483015560a0850151600583015560c0850151600683015560e0850151600783015561010085015160088301556101209094015160099091015590517f55dcc5a02a669292f3baba7762915a1182901a9c28a30cc15d3325afcbb4bccc9190a26040805160008152602081018490526001600160a01b038516917fc6a8c526618a1ece6f5d33564501b92330c354faa23902079359e52c8efd72f3910160405180910390a25b505050565b60005460ff16158015611c745750600054610100900460ff165b15611c9257604051631ee1e30360e21b815260040160405180910390fd5b60005460ff16158015611caf576000805461ffff19166101011790555b611cb83361368c565b600380546001600160a01b03199081166001600160a01b038c8116919091179092556004805482168b84161790556005805482168a8416179055600680548216898416179055600780548216888416179055600880548216878416179055600980548216868416179055600a80549091169184169190911790558015611d43576000805460ff191690555b505050505050505050565b611d566140cc565b6001600160a01b038084166000908152600d60209081526040918290208251610140810184528154851681526001820154909416918401919091526002810154918301919091526003810154606083015260048101546080830152600581015460a0830152600681015460c0830152600781015460e0830152600881015461010083015260090154610120820152610ad190836136f3565b6000805b600e54811015611ed757611eb9600d6000600e6000018481548110611e1957611e19614530565b60009182526020808320909101546001600160a01b0390811684528382019490945260409283019091208251610140810184528154851681526001820154909416918401919091526002810154918301919091526003810154606083015260048101546080830152600581015460a0830152600681015460c0830152600781015460e08301526008810154610100830152600901546101208201526138bf565b611ec39083614518565b915080611ecf816145f1565b915050611df2565b5090565b611ee36140cc565b6001600160a01b038084166000908152600d60209081526040918290208251610140810184528154851681526001820154909416918401919091526002810154918301919091526003810154606083015260048101546080830152600581015460a0830152600681015460c0830152600781015460e0830152600881015461010083015260090154610120820152610ad19083613956565b6000546201000090046001600160a01b03163314611fac576040516305e7700560e51b815260040160405180910390fd5b6001600160a01b0381166000908152600f6020526040902054611fed57604051634cbfe6c960e11b81526001600160a01b03821660048201526024016108a6565b611ff8600e82613b2e565b1561208e576001600160a01b0381166000818152600d602052604080822080546001600160a01b03199081168255600182018054909116905560028101839055600381018390556004810183905560058101839055600681018390556007810183905560088101839055600901829055517f6d08717837ebdfd34a4ddffe3e4566e0a68e8dde2464854e9242a8f7e6399a339190a25b50565b600e546060908067ffffffffffffffff8111156120b0576120b061460c565b60405190808252806020026020018201604052801561214957816020015b61213660405180610140016040528060006001600160a01b0316815260200160006001600160a01b0316815260200160008152602001600081526020016000815260200160008152602001600081526020016000815260200160008152602001600081525090565b8152602001906001900390816120ce5790505b50915060005b8181101561223e57600d6000600e600001838154811061217157612171614530565b60009182526020808320909101546001600160a01b0390811684528382019490945260409283019091208251610140810184528154851681526001820154909416918401919091526002810154918301919091526003810154606083015260048101546080830152600581015460a0830152600681015460c0830152600781015460e0830152600881015461010083015260090154610120820152835184908390811061222057612220614530565b60200260200101819052508080612236906145f1565b91505061214f565b505090565b60028054141561226657604051633ee5aeb560e01b815260040160405180910390fd5b60028055600b548190811015806122a45750600b818154811061228b5761228b614530565b600091825260209091206001600c90920201015460ff16155b156122c5576040516372c4e6fd60e01b8152600481018290526024016108a6565b8160026122d182612a8b565b60028111156122e2576122e26144c4565b141561230457604051633d240fc360e01b8152600481018290526024016108a6565b600354600b80546001600160a01b03909216918590811061232757612327614530565b600091825260209091206002600c9092020101546001600160a01b03161461236557604051635d64f43b60e01b8152600481018490526024016108a6565b600360009054906101000a90046001600160a01b03166001600160a01b031663d0e30db0346040518263ffffffff1660e01b81526004016000604051808303818588803b1580156123b557600080fd5b505af11580156123c9573d6000803e3d6000fd5b50505050506123d88334613c67565b5050600160025550565b60028054141561240557604051633ee5aeb560e01b815260040160405180910390fd5b60028055600b548290811015806124435750600b818154811061242a5761242a614530565b600091825260209091206001600c90920201015460ff16155b15612464576040516372c4e6fd60e01b8152600481018290526024016108a6565b82600261247082612a8b565b6002811115612481576124816144c4565b14156124a357604051633d240fc360e01b8152600481018290526024016108a6565b826124c157604051631d23e67d60e21b815260040160405180910390fd5b6000600b85815481106124d6576124d6614530565b90600052602060002090600c02019050838160080160008282546124fa9190614546565b9091555050600554604051632770a7eb60e21b8152336004820152602481018690526001600160a01b0390911690639dc29fac90604401600060405180830381600087803b15801561254b57600080fd5b505af115801561255f573d6000803e3d6000fd5b505042600b84015550506008810154156125b257847f552544cb36551120f07c66c5cd4b2987725a0c72198587f2ce796099bb66c58c856040516125a591815260200190565b60405180910390a26127c3565b600981015460028201546000916125d2916001600160a01b031690612d8f565b60098084015460028501546001600160a01b03166000908152600d602052604081209092018054939450909290919061260c908490614546565b9091555050600060098301556005805490830154604051632770a7eb60e21b815230600482015260248101919091526001600160a01b0390911690639dc29fac90604401600060405180830381600087803b15801561266a57600080fd5b505af115801561267e573d6000803e3d6000fd5b50505060018301805460ff191690555060405186907f33a382daad6aace935340a474d09fec82af4bec7e2b69518d283231b03a65f2490600090a26002820154600160a01b900460ff166126f857600182015460028301546126f3916001600160a01b03918216916101009091041683612e40565b6127c1565b600354604051632e1a7d4d60e01b8152600481018390526001600160a01b0390911690632e1a7d4d90602401600060405180830381600087803b15801561273e57600080fd5b505af1158015612752573d6000803e3d6000fd5b50506040516000925033915083908381818185875af1925050503d8060008114612798576040519150601f19603f3d011682016040523d82523d6000602084013e61279d565b606091505b50509050806127bf57604051638762150d60e01b815260040160405180910390fd5b505b505b50506001600255505050565b6001600160a01b0381166000908152600c60205260409020546060908067ffffffffffffffff8111156128045761280461460c565b60405190808252806020026020018201604052801561283d57816020015b61282a6140cc565b8152602001906001900390816128225790505b50915060005b81811015612996576001600160a01b0384166000908152600c602052604090208054600b91908390811061287957612879614530565b90600052602060002001548154811061289457612894614530565b6000918252602091829020604080516101c081018252600c90930290910180548352600181015460ff8082161515958501959095526001600160a01b036101009182900481169385019390935260028201548084166060860152600160a01b900490941615156080840152600381015490911660a0830152600481015460c0830152600581015460e0830152600681015492820192909252600782015461012082015260088201546101408201526009820154610160820152600a820154610180820152600b909101546101a0820152835184908390811061297857612978614530565b6020026020010181905250808061298e906145f1565b915050612843565b5050919050565b6000546201000090046001600160a01b031633146129ce576040516305e7700560e51b815260040160405180910390fd5b6001600160a01b0382166129f55760405163604b48b960e11b815260040160405180910390fd5b6001600160a01b038216301415612a1f576040516306b3e95d60e21b815260040160405180910390fd5b600180546001600160a01b0319166001600160a01b03841617905580612a8257600080546040516001600160a01b03808616936201000090930416917fc606c9af1451cadeb333f6ff7b24a5540974f4e800bac274fa7fff9edc305cb191a35050565b6115e08261368c565b600080612a97836109e0565b9050600460009054906101000a90046001600160a01b03166001600160a01b0316634433c5e86040518163ffffffff1660e01b815260040160206040518083038186803b158015612ae757600080fd5b505afa158015612afb573d6000803e3d6000fd5b505050506040513d601f19601f82011682018060405250810190612b1f919061455d565b811015612bb5576004805460408051636c3b6cc760e11b815290516001600160a01b039092169263d876d98e928282019260209290829003018186803b158015612b6857600080fd5b505afa158015612b7c573d6000803e3d6000fd5b505050506040513d601f19601f82011682018060405250810190612ba0919061455d565b811015612bae576000610ad1565b6001610ad1565b60029392505050565b600b8181548110612bce57600080fd5b60009182526020909120600c9091020180546001820154600283015460038401546004850154600586015460068701546007880154600889015460098a0154600a8b0154600b909b0154999b5060ff808a169b610100909a046001600160a01b039081169b818b169b600160a01b909b0490921699981697908e565b600280541415612c6d57604051633ee5aeb560e01b815260040160405180910390fd5b60028055600b54829081101580612cab5750600b8181548110612c9257612c92614530565b600091825260209091206001600c90920201015460ff16155b15612ccc576040516372c4e6fd60e01b8152600481018290526024016108a6565b826002612cd882612a8b565b6002811115612ce957612ce96144c4565b1415612d0b57604051633d240fc360e01b8152600481018290526024016108a6565b612d49333085600b8881548110612d2457612d24614530565b600091825260209091206002600c9092020101546001600160a01b03169291906135b1565b612d538484613c67565b505060016002555050565b600c6020528160005260406000208181548110612d7a57600080fd5b90600052602060002001600091509150505481565b600080836001600160a01b031663313ce5676040518163ffffffff1660e01b815260040160206040518083038186803b158015612dcb57600080fd5b505afa158015612ddf573d6000803e3d6000fd5b505050506040513d601f19601f82011682018060405250810190612e0391906145ce565b612e0e906012614622565b612e1990600a614729565b905080600114612e3557612e2d8184614738565b915050612e3a565b829150505b92915050565b6040516001600160a01b038316602482015260448101829052611c5590849063a9059cbb60e01b906064015b60408051601f198184030181529190526020810180517bffffffffffffffffffffffffffffffffffffffffffffffffffffffff167fffffffff0000000000000000000000000000000000000000000000000000000090931692909217909152613d4c565b612ed86140cc565b610140820151612efb576040516379d1504360e01b815260040160405180910390fd5b60048054604080516216d14b60e71b815290516001600160a01b0390921692630b68a580928282019260209290829003018186803b158015612f3c57600080fd5b505afa158015612f50573d6000803e3d6000fd5b505050506040513d601f19601f82011682018060405250810190612f74919061455d565b8261014001511015612f9957604051631efe3f1960e11b815260040160405180910390fd5b60055460e08301516040516340c10f1960e01b815230600482015260248101919091526001600160a01b03909116906340c10f1990604401600060405180830381600087803b158015612feb57600080fd5b505af1158015612fff573d6000803e3d6000fd5b50506005546009546101008601516040516340c10f1960e01b81526001600160a01b0392831660048201526024810191909152911692506340c10f199150604401600060405180830381600087803b15801561305a57600080fd5b505af115801561306e573d6000803e3d6000fd5b5050600554600a546101208601516040516340c10f1960e01b81526001600160a01b0392831660048201526024810191909152911692506340c10f199150604401600060405180830381600087803b1580156130c957600080fd5b505af11580156130dd573d6000803e3d6000fd5b505060055460408581015161014087015191516340c10f1960e01b81526001600160a01b039182166004820152602481019290925290911692506340c10f199150604401600060405180830381600087803b15801561313b57600080fd5b505af115801561314f573d6000803e3d6000fd5b505050506000600b80549050905080836000018181525050600b8390806001815401808255809150506001900390600052602060002090600c02016000909190919091506000820151816000015560208201518160010160006101000a81548160ff02191690831515021790555060408201518160010160016101000a8154816001600160a01b0302191690836001600160a01b0316021790555060608201518160020160006101000a8154816001600160a01b0302191690836001600160a01b0316021790555060808201518160020160146101000a81548160ff02191690831515021790555060a08201518160030160006101000a8154816001600160a01b0302191690836001600160a01b0316021790555060c0820151816004015560e08201518160050155610100820151816006015561012082015181600701556101408201518160080155610160820151816009015561018082015181600a01556101a082015181600b01555050600c600084604001516001600160a01b03166001600160a01b03168152602001908152602001600020819080600181540180825580915050600190039060005260206000200160009091909190915055826101600151600d600085606001516001600160a01b03166001600160a01b03168152602001908152602001600020600901600082825461334d9190614518565b90915550506060838101516040808601516101408701516101608801516001600160a01b039485166000818152600d6020908152908690206006015486519485529084019290925293820152919392169184917f1c719a9a8ef2d44db7255e8d65b4a18a23f44758d6ebc0d6b80fe018d25433fb910160405180910390a45090919050565b6000816101400151600014156133ea57506000919050565b6101608201516133fd5750600019919050565b612e3a61340983613415565b61014084015190613607565b60a08101516060820151604051630787c49960e21b81526001600160a01b03918216600482015260009283921690631e1f12649060240160206040518083038186803b15801561346457600080fd5b505afa158015613478573d6000803e3d6000fd5b505050506040513d601f19601f8201168201806040525081019061349c919061455d565b610160840151909150610ad19082613dd6565b6134b76140cc565b60208301518351604051630787c49960e21b81526001600160a01b0391821660048201526000929190911690631e1f12649060240160206040518083038186803b15801561350457600080fd5b505afa158015613518573d6000803e3d6000fd5b505050506040513d601f19601f8201168201806040525081019061353c919061455d565b9050600061355b8560c001518660400151613dd690919063ffffffff16565b9050600061359b613574670de0b6b3a764000084614518565b6135958561358f8a60c001518a613dd690919063ffffffff16565b90613dd6565b90613607565b90506135a78682613956565b9695505050505050565b6040516001600160a01b03808516602483015283166044820152606481018290526135e99085906323b872dd60e01b90608401612e6c565b50505050565b600080821215611ed7576136028261475a565b612e3a565b6000610ad183670de0b6b3a764000084613ea6565b6001600160a01b03811660009081526001830160205260408120541561364457506000612e3a565b508154600180820184556000848152602080822090930180546001600160a01b0319166001600160a01b03959095169485179055845493815293810190915260409092205590565b6000805475ffffffffffffffffffffffffffffffffffffffff00001916620100006001600160a01b0384811682810293909317808555604051939492900416917f564590b81987d147246f63910a8e1ee4eb09c4d64cc75ee975a8ffedfcc2210e9190a350565b6136fb6140cc565b60208301518351604051630787c49960e21b81526001600160a01b0391821660048201526000929190911690631e1f12649060240160206040518083038186803b15801561374857600080fd5b505afa15801561375c573d6000803e3d6000fd5b505050506040513d601f19601f82011682018060405250810190613780919061455d565b9050600061379f8261358f8760c0015187613dd690919063ffffffff16565b60c08601519091506000906137ca906135956137c382670de0b6b3a7640000614546565b8590613dd6565b905060006137e5876060015183613dd690919063ffffffff16565b90506000613800886080015184613dd690919063ffffffff16565b9050600061381b8960a0015185613dd690919063ffffffff16565b9050600061383a87613595888d60400151613dd690919063ffffffff16565b604080516101c0810182526000808252600160208084019190915233938301939093528d516001600160a01b03908116606084015260808301919091529c90910151909b1660a08c015260c08b01525060e08901929092526101008801526101208701525061014085015250506101608201524261018082018190526101a082015290565b60208101518151604051630787c49960e21b81526001600160a01b03918216600482015260009283921690631e1f12649060240160206040518083038186803b15801561390b57600080fd5b505afa15801561391f573d6000803e3d6000fd5b505050506040513d601f19601f82011682018060405250810190613943919061455d565b610120840151909150610ad19082613dd6565b61395e6140cc565b60208301518351604051630787c49960e21b81526001600160a01b0391821660048201526000929190911690631e1f12649060240160206040518083038186803b1580156139ab57600080fd5b505afa1580156139bf573d6000803e3d6000fd5b505050506040513d601f19601f820116820180604052508101906139e3919061455d565b60c0850151909150600090613a0e90613595613a0782670de0b6b3a7640000614546565b8790613dd6565b90506000613a29866060015183613dd690919063ffffffff16565b90506000613a44876080015184613dd690919063ffffffff16565b90506000613a5f8860a0015185613dd690919063ffffffff16565b90506000613a84613a7d878b60c00151613dd690919063ffffffff16565b8990613607565b90506000613aa3876135958b8d60400151613dd690919063ffffffff16565b604080516101c0810182526000808252600160208084019190915233938301939093528d516001600160a01b03908116606084015260808301919091529c90910151909b1660a08c015260c08b01525060e08901939093526101008801919091526101208701526101408601949094525050506101608201524261018082018190526101a082015290565b6001600160a01b038116600090815260018301602052604081205480613b58576000915050612e3a565b6000613b65600183614546565b905060006001613b73875490565b613b7d9190614546565b9050808214613c09576000866000018281548110613b9d57613b9d614530565b60009182526020909120015487546001600160a01b0390911691508190889085908110613bcc57613bcc614530565b600091825260208083209190910180546001600160a01b0319166001600160a01b0394851617905592909116815260018801909152604090208390555b8554869080613c1a57613c1a614777565b60008281526020808220830160001990810180546001600160a01b03191690559092019092556001600160a01b038716825260018881019091526040822091909155935050505092915050565b80613c8557604051635491c16d60e01b815260040160405180910390fd5b6000600b8381548110613c9a57613c9a614530565b6000918252602082206002600c9092020190810154909250613cc5906001600160a01b031684613f61565b905080826009016000828254613cdb9190614518565b909155505042600a83015560028201546001600160a01b03166000908152600d602052604081206009018054839290613d15908490614518565b909155505060405181815284907fa3af609bf46297028ce551832669030f9effef2b02606d02cbbcc40fe6b47c5590602001611085565b6040805180820190915260208082527f5361666545524332303a206c6f772d6c6576656c2063616c6c206661696c6564908201528290600090613d9b906001600160a01b038416908590613fff565b8051909150156135e95780806020019051810190613db9919061478d565b6135e957604051639b8d506160e01b815260040160405180910390fd5b60008080600019848609848602925082811083820303915050670de0b6b3a76400008110613e285760405163072fa3c960e31b815260048101829052670de0b6b3a764000060248201526044016108a6565b600080670de0b6b3a76400008688099150506706f05b59d3b1ffff811182613e625780670de0b6b3a7640000850401945050505050612e3a565b620400008285030493909111909103600160ee1b02919091177faccb18165bd6fe31ae1cf318dc5b51eee0e1ba569b88cd74c1773b91fac106690201905092915050565b60008080600019858709858702925082811083820303915050838110613ee95760405163072fa3c960e31b815260048101829052602481018590526044016108a6565b80613ef957508290049050610ad1565b600084868809600260036001881981018916988990049182028318808302840302808302840302808302840302808302840302808302840302918202909203026000889003889004909101858311909403939093029303949094049190911702949350505050565b600080836001600160a01b031663313ce5676040518163ffffffff1660e01b815260040160206040518083038186803b158015613f9d57600080fd5b505afa158015613fb1573d6000803e3d6000fd5b505050506040513d601f19601f82011682018060405250810190613fd591906145ce565b613fe0906012614622565b613feb90600a614729565b905080600114612e3557612e2d81846147aa565b6060833b61402b5760405163dc5dd7fd60e01b81526001600160a01b03851660048201526024016108a6565b600080856001600160a01b03168560405161404691906147f5565b6000604051808303816000865af19150503d8060008114614083576040519150601f19603f3d011682016040523d82523d6000602084013e614088565b606091505b50915091506135a7828286606083156140a2575081610ad1565b8251156140b25782518060208501fd5b8160405162461bcd60e51b81526004016108a69190614811565b604051806101c001604052806000815260200160001515815260200160006001600160a01b0316815260200160006001600160a01b0316815260200160001515815260200160006001600160a01b0316815260200160008152602001600081526020016000815260200160008152602001600081526020016000815260200160008152602001600081525090565b60006020828403121561416c57600080fd5b5035919050565b80518252602081015161418a602084018215159052565b5060408101516141a560408401826001600160a01b03169052565b5060608101516141c060608401826001600160a01b03169052565b5060808101516141d4608084018215159052565b5060a08101516141ef60a08401826001600160a01b03169052565b5060c0818101519083015260e08082015190830152610100808201519083015261012080820151908301526101408082015190830152610160808201519083015261018080820151908301526101a090810151910152565b6101c08101612e3a8284614173565b6001600160a01b038116811461208e57600080fd5b6000806040838503121561427e57600080fd5b823561428981614256565b946020939093013593505050565b6000602082840312156142a957600080fd5b8135610ad181614256565b600080600080600080600080610100898b0312156142d157600080fd5b88356142dc81614256565b975060208901356142ec81614256565b965060408901356142fc81614256565b9550606089013561430c81614256565b9450608089013561431c81614256565b935060a089013561432c81614256565b925060c089013561433c81614256565b915060e089013561434c81614256565b809150509295985092959890939650565b602080825282518282018190526000919060409081850190868401855b828110156143ff57815180516001600160a01b0390811686528782015116878601528581015186860152606080820151908601526080808201519086015260a0808201519086015260c0808201519086015260e0808201519086015261010080820151908601526101209081015190850152610140909301929085019060010161437a565b5091979650505050505050565b6000806040838503121561441f57600080fd5b50508035926020909101359150565b6020808252825182820181905260009190848201906040850190845b818110156144715761445d838551614173565b928401926101c0929092019160010161444a565b50909695505050505050565b801515811461208e57600080fd5b6000806040838503121561449e57600080fd5b82356144a981614256565b915060208301356144b98161447d565b809150509250929050565b634e487b7160e01b600052602160045260246000fd5b60208101600383106144fc57634e487b7160e01b600052602160045260246000fd5b91905290565b634e487b7160e01b600052601160045260246000fd5b6000821982111561452b5761452b614502565b500190565b634e487b7160e01b600052603260045260246000fd5b60008282101561455857614558614502565b500390565b60006020828403121561456f57600080fd5b5051919050565b60008083128015600160ff1b85018412161561459457614594614502565b837f7fffffffffffffffffffffffffffffffffffffffffffffffffffffffffffffff0183138116156145c8576145c8614502565b50500390565b6000602082840312156145e057600080fd5b815160ff81168114610ad157600080fd5b600060001982141561460557614605614502565b5060010190565b634e487b7160e01b600052604160045260246000fd5b600060ff821660ff84168082101561463c5761463c614502565b90039392505050565b600181815b8085111561468057816000190482111561466657614666614502565b8085161561467357918102915b93841c939080029061464a565b509250929050565b60008261469757506001612e3a565b816146a457506000612e3a565b81600181146146ba57600281146146c4576146e0565b6001915050612e3a565b60ff8411156146d5576146d5614502565b50506001821b612e3a565b5060208310610133831016604e8410600b8410161715614703575081810a612e3a565b61470d8383614645565b806000190482111561472157614721614502565b029392505050565b6000610ad160ff841683614688565b60008261475557634e487b7160e01b600052601260045260246000fd5b500490565b6000600160ff1b82141561477057614770614502565b5060000390565b634e487b7160e01b600052603160045260246000fd5b60006020828403121561479f57600080fd5b8151610ad18161447d565b60008160001904831182151516156147c4576147c4614502565b500290565b60005b838110156147e45781810151838201526020016147cc565b838111156135e95750506000910152565b600082516148078184602087016147c9565b9190910192915050565b60208152600082518060208401526148308160408501602087016147c9565b601f01601f1916919091016040019291505056fea164736f6c6343000809000a",
  "devdoc": {
    "author": "Andrey Gulitsky",
    "errors": {
      "BaksDAOBorrowBelowMinimumPrincipalAmount()": [
        {
          "details": "Thrown when trying to borrow below minimum principal amount."
        }
      ],
      "BaksDAOBorrowZeroAmount()": [
        {
          "details": "Thrown when borrowing a zero amount of stablecoin."
        }
      ],
      "BaksDAOCollateralTokenAlreadyListed(address)": [
        {
          "details": "Thrown when trying to list collateral token that's already listed.",
          "params": {
            "token": "The address of the collateral token contract."
          }
        }
      ],
      "BaksDAOCollateralTokenNotListed(address)": [
        {
          "details": "Thrown when trying to unlist collateral token that's not listed.",
          "params": {
            "token": "The address of the collateral token contract."
          }
        }
      ],
      "BaksDAOCollateralTokenTooLargeDecimals(address,uint8)": [
        {
          "details": "Thrown when trying to list collateral token that has too large decimals.",
          "params": {
            "token": "The address of the collateral token contract."
          }
        }
      ],
      "BaksDAOCollateralTokenZeroDecimals(address)": [
        {
          "details": "Thrown when trying to list collateral token that has zero decimals.",
          "params": {
            "token": "The address of the collateral token contract."
          }
        }
      ],
      "BaksDAODepositZeroAmount()": [
        {
          "details": "Thrown when depositing a zero amount of collateral token."
        }
      ],
      "BaksDAOInactiveLoan(uint256)": [
        {
          "details": "Thrown when trying to interact with inactive loan with `id` id.",
          "params": {
            "id": "The loan id."
          }
        }
      ],
      "BaksDAOInitialLoanToValueRatioTooHigh(address,uint256)": [
        {
          "details": "Thrown when trying to set initial loan-to-value ratio that higher than margin call or liquidation ones.",
          "params": {
            "initialLoanToValueRatio": "The initial loan-to-value ratio that was tried to set.",
            "token": "The address of the collateral token contract."
          }
        }
      ],
      "BaksDAOLoanIsSubjectToLiquidation(uint256)": [
        {
          "details": "Thrown when trying to interact with loan with `id` id that is subject to liquidation.",
          "params": {
            "id": "The loan id."
          }
        }
      ],
      "BaksDAOLoanNotSubjectToLiquidation(uint256)": [
        {
          "details": "Thrown when trying to liquidate healthy loan with `id` id.",
          "params": {
            "id": "The loan id."
          }
        }
      ],
      "BaksDAONativeCurrencyCollateralNotAllowed(uint256)": [
        {
          "details": "Thrown when trying to deposit native currency collateral to the non-wrapped native currency token loan with `id` id.",
          "params": {
            "id": "The loan id."
          }
        }
      ],
      "BaksDAONoNeedToRebalance()": [
        {
          "details": "Thrown when there's no need to rebalance the platform."
        }
      ],
      "BaksDAORepayZeroAmount()": [
        {
          "details": "Thrown when repaying a zero amount of stablecoin."
        }
      ],
      "BaksDAOStabilizationFundOutOfFunds(uint256)": [
        {
          "details": "Thrown when trying to rebalance the platform and there is a shortage of funds to burn.",
          "params": {
            "shortage": "Shoratge of funds to burn."
          }
        }
      ],
      "BaksDAOTokenNotAllowedAsCollateral(address)": [
        {
          "details": "Thrown when interacting with a token that's not allowed as collateral.",
          "params": {
            "token": "The address of the collateral token contract."
          }
        }
      ],
      "BaksDAOTokenNotAllowedToBeSalvaged(address)": [
        {
          "details": "Thrown when trying to salvage one of allowed collateral tokens or stablecoin.",
          "params": {
            "token": "The address of the token contract."
          }
        }
      ]
    },
    "kind": "dev",
    "methods": {
      "borrow(address,uint256)": {
        "details": "The caller must have allowed this contract to spend a sufficient amount of collateral tokens to cover initial loan-to-value ratio.",
        "params": {
          "amount": "The amount of stablecoin to borrow and issue.",
          "collateralToken": "The address of the collateral token contract."
        }
      },
      "deposit(uint256,uint256)": {
        "details": "The caller must have allowed this contract to spend `amount` of collateral tokens.",
        "params": {
          "amount": "The amount of collateral token to deposit.",
          "loanId": "The loan id."
        }
      },
      "repay(uint256,uint256)": {
        "params": {
          "amount": "The amount of stablecoin to repay.",
          "loanId": "The loan id."
        }
      }
    },
    "title": "Core smart contract of BaksDAO platform",
    "version": 1
  },
  "userdoc": {
    "kind": "user",
    "methods": {
      "borrow(address,uint256)": {
        "notice": "Increases loan's principal on `collateralToken` collateral token and mints `amount` of stablecoin."
      },
      "borrowInNativeCurrency(uint256)": {
        "notice": "Increases loan's principal on wrapped native currency token and mints stablecoin."
      },
      "deposit(uint256,uint256)": {
        "notice": "Deposits `amount` of collateral token to loan with `id` id."
      },
      "depositInNativeCurrency(uint256)": {
        "notice": "Deposits wrapped native currency token to loan with `id` id."
      },
      "repay(uint256,uint256)": {
        "notice": "Decreases principal of loan with `id` id by `amount` of stablecoin."
      }
    },
    "notice": "You should use this contract to interact with the BaksDAO platform.Only this contract can issue stablecoins.",
    "version": 1
  },
  "storageLayout": {
    "storage": [
      {
        "astId": 6644,
        "contract": "contracts/Bank.sol:Bank",
        "label": "initializing",
        "offset": 0,
        "slot": "0",
        "type": "t_bool"
      },
      {
        "astId": 6646,
        "contract": "contracts/Bank.sol:Bank",
        "label": "initialized",
        "offset": 1,
        "slot": "0",
        "type": "t_bool"
      },
      {
        "astId": 4646,
        "contract": "contracts/Bank.sol:Bank",
        "label": "governor",
        "offset": 2,
        "slot": "0",
        "type": "t_address"
      },
      {
        "astId": 4648,
        "contract": "contracts/Bank.sol:Bank",
        "label": "pendingGovernor",
        "offset": 0,
        "slot": "1",
        "type": "t_address"
      },
      {
        "astId": 6362,
        "contract": "contracts/Bank.sol:Bank",
        "label": "status",
        "offset": 0,
        "slot": "2",
        "type": "t_uint256"
      },
      {
        "astId": 176,
        "contract": "contracts/Bank.sol:Bank",
        "label": "wrappedNativeCurrency",
        "offset": 0,
        "slot": "3",
        "type": "t_contract(IWrappedNativeCurrency)4971"
      },
      {
        "astId": 179,
        "contract": "contracts/Bank.sol:Bank",
        "label": "core",
        "offset": 0,
        "slot": "4",
        "type": "t_contract(ICore)2780"
      },
      {
        "astId": 182,
        "contract": "contracts/Bank.sol:Bank",
        "label": "stablecoin",
        "offset": 0,
        "slot": "5",
        "type": "t_contract(IMintableAndBurnableERC20)4883"
      },
      {
        "astId": 185,
        "contract": "contracts/Bank.sol:Bank",
        "label": "priceOracle",
        "offset": 0,
        "slot": "6",
        "type": "t_contract(IPriceOracle)4956"
      },
      {
        "astId": 187,
        "contract": "contracts/Bank.sol:Bank",
        "label": "operator",
        "offset": 0,
        "slot": "7",
        "type": "t_address"
      },
      {
        "astId": 189,
        "contract": "contracts/Bank.sol:Bank",
        "label": "liquidator",
        "offset": 0,
        "slot": "8",
        "type": "t_address"
      },
      {
        "astId": 191,
        "contract": "contracts/Bank.sol:Bank",
        "label": "exchangeFund",
        "offset": 0,
        "slot": "9",
        "type": "t_address"
      },
      {
        "astId": 193,
        "contract": "contracts/Bank.sol:Bank",
        "label": "developmentFund",
        "offset": 0,
        "slot": "10",
        "type": "t_address"
      },
      {
        "astId": 197,
        "contract": "contracts/Bank.sol:Bank",
        "label": "loans",
        "offset": 0,
        "slot": "11",
        "type": "t_array(t_struct(Data)6089_storage)dyn_storage"
      },
      {
        "astId": 202,
        "contract": "contracts/Bank.sol:Bank",
        "label": "loanIds",
        "offset": 0,
        "slot": "12",
        "type": "t_mapping(t_address,t_array(t_uint256)dyn_storage)"
      },
      {
        "astId": 208,
        "contract": "contracts/Bank.sol:Bank",
        "label": "collateralTokens",
        "offset": 0,
        "slot": "13",
        "type": "t_mapping(t_contract(IERC20)4866,t_struct(Data)5375_storage)"
      },
      {
        "astId": 211,
        "contract": "contracts/Bank.sol:Bank",
        "label": "collateralTokensSet",
        "offset": 0,
        "slot": "14",
        "type": "t_struct(Set)5674_storage"
      }
    ],
    "types": {
      "t_address": {
        "encoding": "inplace",
        "label": "address",
        "numberOfBytes": "20"
      },
      "t_array(t_address)dyn_storage": {
        "base": "t_address",
        "encoding": "dynamic_array",
        "label": "address[]",
        "numberOfBytes": "32"
      },
      "t_array(t_struct(Data)6089_storage)dyn_storage": {
        "base": "t_struct(Data)6089_storage",
        "encoding": "dynamic_array",
        "label": "struct Loan.Data[]",
        "numberOfBytes": "32"
      },
      "t_array(t_uint256)dyn_storage": {
        "base": "t_uint256",
        "encoding": "dynamic_array",
        "label": "uint256[]",
        "numberOfBytes": "32"
      },
      "t_bool": {
        "encoding": "inplace",
        "label": "bool",
        "numberOfBytes": "1"
      },
      "t_contract(ICore)2780": {
        "encoding": "inplace",
        "label": "contract ICore",
        "numberOfBytes": "20"
      },
      "t_contract(IERC20)4866": {
        "encoding": "inplace",
        "label": "contract IERC20",
        "numberOfBytes": "20"
      },
      "t_contract(IMintableAndBurnableERC20)4883": {
        "encoding": "inplace",
        "label": "contract IMintableAndBurnableERC20",
        "numberOfBytes": "20"
      },
      "t_contract(IPriceOracle)4956": {
        "encoding": "inplace",
        "label": "contract IPriceOracle",
        "numberOfBytes": "20"
      },
      "t_contract(IWrappedNativeCurrency)4971": {
        "encoding": "inplace",
        "label": "contract IWrappedNativeCurrency",
        "numberOfBytes": "20"
      },
      "t_mapping(t_address,t_array(t_uint256)dyn_storage)": {
        "encoding": "mapping",
        "key": "t_address",
        "label": "mapping(address => uint256[])",
        "numberOfBytes": "32",
        "value": "t_array(t_uint256)dyn_storage"
      },
      "t_mapping(t_address,t_uint256)": {
        "encoding": "mapping",
        "key": "t_address",
        "label": "mapping(address => uint256)",
        "numberOfBytes": "32",
        "value": "t_uint256"
      },
      "t_mapping(t_contract(IERC20)4866,t_struct(Data)5375_storage)": {
        "encoding": "mapping",
        "key": "t_contract(IERC20)4866",
        "label": "mapping(contract IERC20 => struct CollateralToken.Data)",
        "numberOfBytes": "32",
        "value": "t_struct(Data)5375_storage"
      },
      "t_struct(Data)5375_storage": {
        "encoding": "inplace",
        "label": "struct CollateralToken.Data",
        "members": [
          {
            "astId": 5355,
            "contract": "contracts/Bank.sol:Bank",
            "label": "collateralToken",
            "offset": 0,
            "slot": "0",
            "type": "t_contract(IERC20)4866"
          },
          {
            "astId": 5358,
            "contract": "contracts/Bank.sol:Bank",
            "label": "priceOracle",
            "offset": 0,
            "slot": "1",
            "type": "t_contract(IPriceOracle)4956"
          },
          {
            "astId": 5360,
            "contract": "contracts/Bank.sol:Bank",
            "label": "stabilityFee",
            "offset": 0,
            "slot": "2",
            "type": "t_uint256"
          },
          {
            "astId": 5362,
            "contract": "contracts/Bank.sol:Bank",
            "label": "stabilizationFee",
            "offset": 0,
            "slot": "3",
            "type": "t_uint256"
          },
          {
            "astId": 5364,
            "contract": "contracts/Bank.sol:Bank",
            "label": "exchangeFee",
            "offset": 0,
            "slot": "4",
            "type": "t_uint256"
          },
          {
            "astId": 5366,
            "contract": "contracts/Bank.sol:Bank",
            "label": "developmentFee",
            "offset": 0,
            "slot": "5",
            "type": "t_uint256"
          },
          {
            "astId": 5368,
            "contract": "contracts/Bank.sol:Bank",
            "label": "initialLoanToValueRatio",
            "offset": 0,
            "slot": "6",
            "type": "t_uint256"
          },
          {
            "astId": 5370,
            "contract": "contracts/Bank.sol:Bank",
            "label": "marginCallLoanToValueRatio",
            "offset": 0,
            "slot": "7",
            "type": "t_uint256"
          },
          {
            "astId": 5372,
            "contract": "contracts/Bank.sol:Bank",
            "label": "liquidationLoanToValueRatio",
            "offset": 0,
            "slot": "8",
            "type": "t_uint256"
          },
          {
            "astId": 5374,
            "contract": "contracts/Bank.sol:Bank",
            "label": "collateralAmount",
            "offset": 0,
            "slot": "9",
            "type": "t_uint256"
          }
        ],
        "numberOfBytes": "320"
      },
      "t_struct(Data)6089_storage": {
        "encoding": "inplace",
        "label": "struct Loan.Data",
        "members": [
          {
            "astId": 6060,
            "contract": "contracts/Bank.sol:Bank",
            "label": "id",
            "offset": 0,
            "slot": "0",
            "type": "t_uint256"
          },
          {
            "astId": 6062,
            "contract": "contracts/Bank.sol:Bank",
            "label": "isActive",
            "offset": 0,
            "slot": "1",
            "type": "t_bool"
          },
          {
            "astId": 6064,
            "contract": "contracts/Bank.sol:Bank",
            "label": "borrower",
            "offset": 1,
            "slot": "1",
            "type": "t_address"
          },
          {
            "astId": 6067,
            "contract": "contracts/Bank.sol:Bank",
            "label": "collateralToken",
            "offset": 0,
            "slot": "2",
            "type": "t_contract(IERC20)4866"
          },
          {
            "astId": 6069,
            "contract": "contracts/Bank.sol:Bank",
            "label": "isNativeCurrency",
            "offset": 20,
            "slot": "2",
            "type": "t_bool"
          },
          {
            "astId": 6072,
            "contract": "contracts/Bank.sol:Bank",
            "label": "priceOracle",
            "offset": 0,
            "slot": "3",
            "type": "t_contract(IPriceOracle)4956"
          },
          {
            "astId": 6074,
            "contract": "contracts/Bank.sol:Bank",
            "label": "stabilityFee",
            "offset": 0,
            "slot": "4",
            "type": "t_uint256"
          },
          {
            "astId": 6076,
            "contract": "contracts/Bank.sol:Bank",
            "label": "stabilizationFee",
            "offset": 0,
            "slot": "5",
            "type": "t_uint256"
          },
          {
            "astId": 6078,
            "contract": "contracts/Bank.sol:Bank",
            "label": "exchangeFee",
            "offset": 0,
            "slot": "6",
            "type": "t_uint256"
          },
          {
            "astId": 6080,
            "contract": "contracts/Bank.sol:Bank",
            "label": "developmentFee",
            "offset": 0,
            "slot": "7",
            "type": "t_uint256"
          },
          {
            "astId": 6082,
            "contract": "contracts/Bank.sol:Bank",
            "label": "principalAmount",
            "offset": 0,
            "slot": "8",
            "type": "t_uint256"
          },
          {
            "astId": 6084,
            "contract": "contracts/Bank.sol:Bank",
            "label": "collateralAmount",
            "offset": 0,
            "slot": "9",
            "type": "t_uint256"
          },
          {
            "astId": 6086,
            "contract": "contracts/Bank.sol:Bank",
            "label": "lastDepositAt",
            "offset": 0,
            "slot": "10",
            "type": "t_uint256"
          },
          {
            "astId": 6088,
            "contract": "contracts/Bank.sol:Bank",
            "label": "lastRepaymentAt",
            "offset": 0,
            "slot": "11",
            "type": "t_uint256"
          }
        ],
        "numberOfBytes": "384"
      },
      "t_struct(Set)5674_storage": {
        "encoding": "inplace",
        "label": "struct EnumerableAddressSet.Set",
        "members": [
          {
            "astId": 5669,
            "contract": "contracts/Bank.sol:Bank",
            "label": "elements",
            "offset": 0,
            "slot": "0",
            "type": "t_array(t_address)dyn_storage"
          },
          {
            "astId": 5673,
            "contract": "contracts/Bank.sol:Bank",
            "label": "indexes",
            "offset": 0,
            "slot": "1",
            "type": "t_mapping(t_address,t_uint256)"
          }
        ],
        "numberOfBytes": "64"
      },
      "t_uint256": {
        "encoding": "inplace",
        "label": "uint256",
        "numberOfBytes": "32"
      }
    }
  }
}