{
  "address": "0x6c4696A3dEF3D67378E885fD5bb223534B7e8695",
  "abi": [
    {
      "inputs": [
        {
          "internalType": "uint256",
          "name": "stabilizationFee",
          "type": "uint256"
        },
        {
          "internalType": "uint256",
          "name": "exchangeFee",
          "type": "uint256"
        },
        {
          "internalType": "uint256",
          "name": "developmentFee",
          "type": "uint256"
        }
      ],
      "name": "BaksDAOPlatformFeesDontSumUpToOne",
      "type": "error"
    },
    {
      "inputs": [],
      "name": "ContractAlreadyInitialized",
      "type": "error"
    },
    {
      "inputs": [],
      "name": "GovernedCantGoverItself",
      "type": "error"
    },
    {
      "inputs": [],
      "name": "GovernedGovernorZeroAddress",
      "type": "error"
    },
    {
      "inputs": [],
      "name": "GovernedOnlyGovernorAllowedToCall",
      "type": "error"
    },
    {
      "inputs": [],
      "name": "GovernedOnlyPendingGovernorAllowedToCall",
      "type": "error"
    },
    {
      "anonymous": false,
      "inputs": [
        {
          "indexed": true,
          "internalType": "address",
          "name": "governor",
          "type": "address"
        },
        {
          "indexed": true,
          "internalType": "address",
          "name": "newGovernor",
          "type": "address"
        }
      ],
      "name": "GovernanceTransited",
      "type": "event"
    },
    {
      "anonymous": false,
      "inputs": [
        {
          "indexed": false,
          "internalType": "uint256",
          "name": "liqudationLoanToValueRatio",
          "type": "uint256"
        },
        {
          "indexed": false,
          "internalType": "uint256",
          "name": "newLiquidationLoanToValueRatio",
          "type": "uint256"
        }
      ],
      "name": "LiquidationLoanToValueRatioUpdated",
      "type": "event"
    },
    {
      "anonymous": false,
      "inputs": [
        {
          "indexed": false,
          "internalType": "uint256",
          "name": "marginCallLoanToValueRatio",
          "type": "uint256"
        },
        {
          "indexed": false,
          "internalType": "uint256",
          "name": "newMarginCallLoanToValueRatio",
          "type": "uint256"
        }
      ],
      "name": "MarginCallLoanToValueRatioUpdated",
      "type": "event"
    },
    {
      "anonymous": false,
      "inputs": [
        {
          "indexed": false,
          "internalType": "uint256",
          "name": "minimumLiquidity",
          "type": "uint256"
        },
        {
          "indexed": false,
          "internalType": "uint256",
          "name": "newMinimumLiquidity",
          "type": "uint256"
        }
      ],
      "name": "MinimumLiquidityUpdated",
      "type": "event"
    },
    {
      "anonymous": false,
      "inputs": [
        {
          "indexed": false,
          "internalType": "uint256",
          "name": "minimumPrincipalAmount",
          "type": "uint256"
        },
        {
          "indexed": false,
          "internalType": "uint256",
          "name": "newMinimumPrincipalAmount",
          "type": "uint256"
        }
      ],
      "name": "MinimumPrincipalAmountUpdated",
      "type": "event"
    },
    {
      "anonymous": false,
      "inputs": [
        {
          "indexed": true,
          "internalType": "address",
          "name": "governor",
          "type": "address"
        },
        {
          "indexed": true,
          "internalType": "address",
          "name": "newGovernor",
          "type": "address"
        }
      ],
      "name": "PendingGovernanceTransition",
      "type": "event"
    },
    {
      "anonymous": false,
      "inputs": [
        {
          "indexed": false,
          "internalType": "uint256",
          "name": "stabilizationFee",
          "type": "uint256"
        },
        {
          "indexed": false,
          "internalType": "uint256",
          "name": "newStabilizationFee",
          "type": "uint256"
        },
        {
          "indexed": false,
          "internalType": "uint256",
          "name": "exchangeFee",
          "type": "uint256"
        },
        {
          "indexed": false,
          "internalType": "uint256",
          "name": "newExchangeFee",
          "type": "uint256"
        },
        {
          "indexed": false,
          "internalType": "uint256",
          "name": "developmentFee",
          "type": "uint256"
        },
        {
          "indexed": false,
          "internalType": "uint256",
          "name": "newDevelopmentFee",
          "type": "uint256"
        }
      ],
      "name": "PlatformFeesUpdated",
      "type": "event"
    },
    {
      "anonymous": false,
      "inputs": [
        {
          "indexed": false,
          "internalType": "uint256",
          "name": "rebalancingThreshold",
          "type": "uint256"
        },
        {
          "indexed": false,
          "internalType": "uint256",
          "name": "newRebalancingThreshold",
          "type": "uint256"
        }
      ],
      "name": "RebalancingThresholdUpdated",
      "type": "event"
    },
    {
      "anonymous": false,
      "inputs": [
        {
          "indexed": false,
          "internalType": "uint256",
          "name": "servicingThreshold",
          "type": "uint256"
        },
        {
          "indexed": false,
          "internalType": "uint256",
          "name": "newServicingThreshold",
          "type": "uint256"
        }
      ],
      "name": "ServicingThresholdUpdated",
      "type": "event"
    },
    {
      "anonymous": false,
      "inputs": [
        {
          "indexed": false,
          "internalType": "uint256",
          "name": "stabilityFee",
          "type": "uint256"
        },
        {
          "indexed": false,
          "internalType": "uint256",
          "name": "newStabilityFee",
          "type": "uint256"
        }
      ],
      "name": "StabilityFeeUpdated",
      "type": "event"
    },
    {
      "inputs": [],
      "name": "acceptGovernance",
      "outputs": [],
      "stateMutability": "nonpayable",
      "type": "function"
    },
    {
      "inputs": [],
      "name": "developmentFee",
      "outputs": [
        {
          "internalType": "uint256",
          "name": "",
          "type": "uint256"
        }
      ],
      "stateMutability": "view",
      "type": "function"
    },
    {
      "inputs": [],
      "name": "exchangeFee",
      "outputs": [
        {
          "internalType": "uint256",
          "name": "",
          "type": "uint256"
        }
      ],
      "stateMutability": "view",
      "type": "function"
    },
    {
      "inputs": [],
      "name": "governor",
      "outputs": [
        {
          "internalType": "address",
          "name": "",
          "type": "address"
        }
      ],
      "stateMutability": "view",
      "type": "function"
    },
    {
      "inputs": [],
      "name": "initialize",
      "outputs": [],
      "stateMutability": "nonpayable",
      "type": "function"
    },
    {
      "inputs": [],
      "name": "liquidationLoanToValueRatio",
      "outputs": [
        {
          "internalType": "uint256",
          "name": "",
          "type": "uint256"
        }
      ],
      "stateMutability": "view",
      "type": "function"
    },
    {
      "inputs": [],
      "name": "marginCallLoanToValueRatio",
      "outputs": [
        {
          "internalType": "uint256",
          "name": "",
          "type": "uint256"
        }
      ],
      "stateMutability": "view",
      "type": "function"
    },
    {
      "inputs": [],
      "name": "minimumLiquidity",
      "outputs": [
        {
          "internalType": "uint256",
          "name": "",
          "type": "uint256"
        }
      ],
      "stateMutability": "view",
      "type": "function"
    },
    {
      "inputs": [],
      "name": "minimumPrincipalAmount",
      "outputs": [
        {
          "internalType": "uint256",
          "name": "",
          "type": "uint256"
        }
      ],
      "stateMutability": "view",
      "type": "function"
    },
    {
      "inputs": [],
      "name": "pendingGovernor",
      "outputs": [
        {
          "internalType": "address",
          "name": "",
          "type": "address"
        }
      ],
      "stateMutability": "view",
      "type": "function"
    },
    {
      "inputs": [],
      "name": "rebalancingThreshold",
      "outputs": [
        {
          "internalType": "uint256",
          "name": "",
          "type": "uint256"
        }
      ],
      "stateMutability": "view",
      "type": "function"
    },
    {
      "inputs": [],
      "name": "servicingThreshold",
      "outputs": [
        {
          "internalType": "uint256",
          "name": "",
          "type": "uint256"
        }
      ],
      "stateMutability": "view",
      "type": "function"
    },
    {
      "inputs": [
        {
          "internalType": "uint256",
          "name": "newLiquidationLoanToValueRatio",
          "type": "uint256"
        }
      ],
      "name": "setLiquidationLoanToValueRatio",
      "outputs": [],
      "stateMutability": "nonpayable",
      "type": "function"
    },
    {
      "inputs": [
        {
          "internalType": "uint256",
          "name": "newMarginCallLoanToValueRatio",
          "type": "uint256"
        }
      ],
      "name": "setMarginCallLoanToValueRatio",
      "outputs": [],
      "stateMutability": "nonpayable",
      "type": "function"
    },
    {
      "inputs": [
        {
          "internalType": "uint256",
          "name": "newMinimumLiquidity",
          "type": "uint256"
        }
      ],
      "name": "setMinimumLiquidity",
      "outputs": [],
      "stateMutability": "nonpayable",
      "type": "function"
    },
    {
      "inputs": [
        {
          "internalType": "uint256",
          "name": "newMinimumPrincipalAmount",
          "type": "uint256"
        }
      ],
      "name": "setMinimumPrincipalAmount",
      "outputs": [],
      "stateMutability": "nonpayable",
      "type": "function"
    },
    {
      "inputs": [
        {
          "internalType": "uint256",
          "name": "newStabilizationFee",
          "type": "uint256"
        },
        {
          "internalType": "uint256",
          "name": "newExchangeFee",
          "type": "uint256"
        },
        {
          "internalType": "uint256",
          "name": "newDevelopmentFee",
          "type": "uint256"
        }
      ],
      "name": "setPlatformFees",
      "outputs": [],
      "stateMutability": "nonpayable",
      "type": "function"
    },
    {
      "inputs": [
        {
          "internalType": "uint256",
          "name": "newRebalancingThreshold",
          "type": "uint256"
        }
      ],
      "name": "setRebalancingThreshold",
      "outputs": [],
      "stateMutability": "nonpayable",
      "type": "function"
    },
    {
      "inputs": [
        {
          "internalType": "uint256",
          "name": "newServicingThreshold",
          "type": "uint256"
        }
      ],
      "name": "setServicingThreshold",
      "outputs": [],
      "stateMutability": "nonpayable",
      "type": "function"
    },
    {
      "inputs": [
        {
          "internalType": "uint256",
          "name": "newStabilityFee",
          "type": "uint256"
        }
      ],
      "name": "setStabilityFee",
      "outputs": [],
      "stateMutability": "nonpayable",
      "type": "function"
    },
    {
      "inputs": [],
      "name": "stabilityFee",
      "outputs": [
        {
          "internalType": "uint256",
          "name": "",
          "type": "uint256"
        }
      ],
      "stateMutability": "view",
      "type": "function"
    },
    {
      "inputs": [],
      "name": "stabilizationFee",
      "outputs": [
        {
          "internalType": "uint256",
          "name": "",
          "type": "uint256"
        }
      ],
      "stateMutability": "view",
      "type": "function"
    },
    {
      "inputs": [
        {
          "internalType": "address",
          "name": "newGovernor",
          "type": "address"
        },
        {
          "internalType": "bool",
          "name": "force",
          "type": "bool"
        }
      ],
      "name": "transitGovernance",
      "outputs": [],
      "stateMutability": "nonpayable",
      "type": "function"
    }
  ],
  "transactionHash": "0xd1c27ca942cd42a322833a3df9a89c9134b2d3f055a8d77eb4c8483cbb1081a8",
  "args": [],
  "solcInputHash": "67e2ed7d7f2989be5bf2e0d809ee7ccc",
  "bytecode": "0x608060405234801561001057600080fd5b50610ab0806100206000396000f3fe608060405234801561001057600080fd5b506004361061018d5760003560e01c8063736e1c26116100e3578063d876d98e1161008c578063e3056a3411610066578063e3056a34146102d1578063ee0e54cb146102e4578063fb4ca35b146102ed57600080fd5b8063d876d98e146102a2578063ddc12526146102ab578063e16da9f8146102be57600080fd5b8063a5f3d003116100bd578063a5f3d0031461027d578063af76a7ef14610286578063b56cf0111461029957600080fd5b8063736e1c261461024f57806377c4572d146102625780638129fc1c1461027557600080fd5b80632ecd3be41161014557806342580dbe1161011f57806342580dbe146102345780634433c5e81461023d578063453844b61461024657600080fd5b80632ecd3be41461020f578063361416e1146102185780633f8189ea1461022157600080fd5b8063238efcbc11610176578063238efcbc146101df578063282567b4146101e95780632b3c3892146101fc57600080fd5b80630b68a580146101925780630c340a24146101ae575b600080fd5b61019b60025481565b6040519081526020015b60405180910390f35b6000546101c7906201000090046001600160a01b031681565b6040516001600160a01b0390911681526020016101a5565b6101e7610300565b005b6101e76101f73660046109ee565b610395565b6101e761020a3660046109ee565b610407565b61019b60055481565b61019b60035481565b6101e761022f3660046109ee565b610479565b61019b60045481565b61019b60085481565b61019b600a5481565b6101e761025d3660046109ee565b6104eb565b6101e76102703660046109ee565b61055d565b6101e76105cf565b61019b60065481565b6101e76102943660046109ee565b6106ac565b61019b600b5481565b61019b60075481565b6101e76102b9366004610a07565b61071e565b6101e76102cc366004610a51565b610828565b6001546101c7906001600160a01b031681565b61019b60095481565b6101e76102fb3660046109ee565b610915565b6001546001600160a01b0316331461032b5760405163aec80d4b60e01b815260040160405180910390fd5b60015460008054620100006001600160a01b0393841681810275ffffffffffffffffffffffffffffffffffffffff00001990931692909217808455604051929491900416917f564590b81987d147246f63910a8e1ee4eb09c4d64cc75ee975a8ffedfcc2210e91a3565b6000546201000090046001600160a01b031633146103c6576040516305e7700560e51b815260040160405180910390fd5b600b5460408051918252602082018390527fd18c85fe8a5776467c327fa33312c6113129233ddb47deabaa91b8396b815879910160405180910390a1600b55565b6000546201000090046001600160a01b03163314610438576040516305e7700560e51b815260040160405180910390fd5b60025460408051918252602082018390527fde9fa07b6ca9d540214c05366e57cb33adf8f132014d9d1b2802a5b89a99512a910160405180910390a1600255565b6000546201000090046001600160a01b031633146104aa576040516305e7700560e51b815260040160405180910390fd5b60085460408051918252602082018390527fa466548b1a7b7c581a6b5b6e38ebed0f41846451118fb8582b71f8605b960cd8910160405180910390a1600855565b6000546201000090046001600160a01b0316331461051c576040516305e7700560e51b815260040160405180910390fd5b600a5460408051918252602082018390527f157d4d2c2eb9bbd85c7f6da0c13113a3799cc3df5c817cba85d84832176459bc910160405180910390a1600a55565b6000546201000090046001600160a01b0316331461058e576040516305e7700560e51b815260040160405180910390fd5b60075460408051918252602082018390527fd2a3e4f854a80a895407f8743c1363ac14b698c432d22d8c65519e13a9e4983d910160405180910390a1600755565b60005460ff161580156105e95750600054610100900460ff165b1561060757604051631ee1e30360e21b815260040160405180910390fd5b60005460ff16158015610624576000805461ffff19166101011790555b61062d33610987565b6802b5e3af16b1880000600255666a94d74f430000600355670bcbce7f1b150000600455670214e8348c4f00006005556000600655670a688906bd8b0000600755670b84c09a3b930000600855662386f26fc100006009819055600a55690a968163f0a57b400000600b5580156106a9576000805460ff191690555b50565b6000546201000090046001600160a01b031633146106dd576040516305e7700560e51b815260040160405180910390fd5b60095460408051918252602082018390527f5eb53b71d73d0607121e658859e0125d7bbbf83c4288d44c18438d4fe94d1e07910160405180910390a1600955565b6000546201000090046001600160a01b0316331461074f576040516305e7700560e51b815260040160405180910390fd5b6001600160a01b0382166107765760405163604b48b960e11b815260040160405180910390fd5b6001600160a01b0382163014156107a0576040516306b3e95d60e21b815260040160405180910390fd5b600180547fffffffffffffffffffffffff0000000000000000000000000000000000000000166001600160a01b0384161790558061081b57600080546040516001600160a01b03808616936201000090930416917fc606c9af1451cadeb333f6ff7b24a5540974f4e800bac274fa7fff9edc305cb191a35050565b61082482610987565b5050565b6000546201000090046001600160a01b03163314610859576040516305e7700560e51b815260040160405180910390fd5b670de0b6b3a76400008161086d8486610a7d565b6108779190610a7d565b146108aa5760405163245c170760e21b815260048101849052602481018390526044810182905260640160405180910390fd5b600454600554600654604080519384526020840187905283019190915260608201849052608082015260a081018290527f1f7068a9be898db6fcd350ac2ff32fc5f1e6fc46c8e6cc973cde53793ff3ab5e9060c00160405180910390a1600492909255600555600655565b6000546201000090046001600160a01b03163314610946576040516305e7700560e51b815260040160405180910390fd5b60035460408051918252602082018390527fde9fa07b6ca9d540214c05366e57cb33adf8f132014d9d1b2802a5b89a99512a910160405180910390a1600355565b6000805475ffffffffffffffffffffffffffffffffffffffff00001916620100006001600160a01b0384811682810293909317808555604051939492900416917f564590b81987d147246f63910a8e1ee4eb09c4d64cc75ee975a8ffedfcc2210e9190a350565b600060208284031215610a0057600080fd5b5035919050565b60008060408385031215610a1a57600080fd5b82356001600160a01b0381168114610a3157600080fd5b915060208301358015158114610a4657600080fd5b809150509250929050565b600080600060608486031215610a6657600080fd5b505081359360208301359350604090920135919050565b60008219821115610a9e57634e487b7160e01b600052601160045260246000fd5b50019056fea164736f6c634300080a000a",
  "devdoc": {
    "errors": {
      "BaksDAOPlatformFeesDontSumUpToOne(uint256,uint256,uint256)": [
        {
          "details": "Thrown when trying to set platform fees that don't sum up to one.",
          "params": {
            "developmentFee": "The stabilization fee that was tried to set.",
            "exchangeFee": "The stabilization fee that was tried to set.",
            "stabilizationFee": "The stabilization fee that was tried to set."
          }
        }
      ]
    },
    "kind": "dev",
    "methods": {},
    "version": 1
  },
  "userdoc": {
    "kind": "user",
    "methods": {},
    "version": 1
  },
  "storageLayout": {
    "storage": [
      {
        "astId": 6723,
        "contract": "contracts/Core.sol:Core",
        "label": "initializing",
        "offset": 0,
        "slot": "0",
        "type": "t_bool"
      },
      {
        "astId": 6725,
        "contract": "contracts/Core.sol:Core",
        "label": "initialized",
        "offset": 1,
        "slot": "0",
        "type": "t_bool"
      },
      {
        "astId": 4725,
        "contract": "contracts/Core.sol:Core",
        "label": "governor",
        "offset": 2,
        "slot": "0",
        "type": "t_address"
      },
      {
        "astId": 4727,
        "contract": "contracts/Core.sol:Core",
        "label": "pendingGovernor",
        "offset": 0,
        "slot": "1",
        "type": "t_address"
      },
      {
        "astId": 2871,
        "contract": "contracts/Core.sol:Core",
        "label": "minimumPrincipalAmount",
        "offset": 0,
        "slot": "2",
        "type": "t_uint256"
      },
      {
        "astId": 2874,
        "contract": "contracts/Core.sol:Core",
        "label": "stabilityFee",
        "offset": 0,
        "slot": "3",
        "type": "t_uint256"
      },
      {
        "astId": 2877,
        "contract": "contracts/Core.sol:Core",
        "label": "stabilizationFee",
        "offset": 0,
        "slot": "4",
        "type": "t_uint256"
      },
      {
        "astId": 2880,
        "contract": "contracts/Core.sol:Core",
        "label": "exchangeFee",
        "offset": 0,
        "slot": "5",
        "type": "t_uint256"
      },
      {
        "astId": 2883,
        "contract": "contracts/Core.sol:Core",
        "label": "developmentFee",
        "offset": 0,
        "slot": "6",
        "type": "t_uint256"
      },
      {
        "astId": 2886,
        "contract": "contracts/Core.sol:Core",
        "label": "marginCallLoanToValueRatio",
        "offset": 0,
        "slot": "7",
        "type": "t_uint256"
      },
      {
        "astId": 2889,
        "contract": "contracts/Core.sol:Core",
        "label": "liquidationLoanToValueRatio",
        "offset": 0,
        "slot": "8",
        "type": "t_uint256"
      },
      {
        "astId": 2892,
        "contract": "contracts/Core.sol:Core",
        "label": "rebalancingThreshold",
        "offset": 0,
        "slot": "9",
        "type": "t_uint256"
      },
      {
        "astId": 2895,
        "contract": "contracts/Core.sol:Core",
        "label": "servicingThreshold",
        "offset": 0,
        "slot": "10",
        "type": "t_uint256"
      },
      {
        "astId": 2898,
        "contract": "contracts/Core.sol:Core",
        "label": "minimumLiquidity",
        "offset": 0,
        "slot": "11",
        "type": "t_uint256"
      }
    ],
    "types": {
      "t_address": {
        "encoding": "inplace",
        "label": "address",
        "numberOfBytes": "20"
      },
      "t_bool": {
        "encoding": "inplace",
        "label": "bool",
        "numberOfBytes": "1"
      },
      "t_uint256": {
        "encoding": "inplace",
        "label": "uint256",
        "numberOfBytes": "32"
      }
    }
  }
}