{
  "address": "0xF179B1F7B9A27e5AF4a4bC572d8186B99c66577F",
  "abi": [
    {
      "inputs": [
        {
          "internalType": "uint256",
          "name": "stabilizationFee",
          "type": "uint256"
        },
        {
          "internalType": "uint256",
          "name": "exchangeFee",
          "type": "uint256"
        },
        {
          "internalType": "uint256",
          "name": "developmentFee",
          "type": "uint256"
        }
      ],
      "name": "BaksDAOPlatformFeesDontSumUpToOne",
      "type": "error"
    },
    {
      "inputs": [],
      "name": "ContractAlreadyInitialized",
      "type": "error"
    },
    {
      "inputs": [],
      "name": "GovernedCantGoverItself",
      "type": "error"
    },
    {
      "inputs": [],
      "name": "GovernedGovernorZeroAddress",
      "type": "error"
    },
    {
      "inputs": [],
      "name": "GovernedOnlyGovernorAllowedToCall",
      "type": "error"
    },
    {
      "inputs": [],
      "name": "GovernedOnlyPendingGovernorAllowedToCall",
      "type": "error"
    },
    {
      "anonymous": false,
      "inputs": [
        {
          "indexed": false,
          "internalType": "address",
          "name": "bank",
          "type": "address"
        },
        {
          "indexed": false,
          "internalType": "address",
          "name": "newBank",
          "type": "address"
        }
      ],
      "name": "BankUpdated",
      "type": "event"
    },
    {
      "anonymous": false,
      "inputs": [
        {
          "indexed": false,
          "internalType": "address",
          "name": "depositary",
          "type": "address"
        },
        {
          "indexed": false,
          "internalType": "address",
          "name": "newDepositary",
          "type": "address"
        }
      ],
      "name": "DepositaryUpdated",
      "type": "event"
    },
    {
      "anonymous": false,
      "inputs": [
        {
          "indexed": false,
          "internalType": "address",
          "name": "developmentFund",
          "type": "address"
        },
        {
          "indexed": false,
          "internalType": "address",
          "name": "newDevelopmentFund",
          "type": "address"
        }
      ],
      "name": "DevelopmentFundUpdated",
      "type": "event"
    },
    {
      "anonymous": false,
      "inputs": [
        {
          "indexed": false,
          "internalType": "address",
          "name": "exchangeFund",
          "type": "address"
        },
        {
          "indexed": false,
          "internalType": "address",
          "name": "newExchangeFund",
          "type": "address"
        }
      ],
      "name": "ExchangeFundUpdated",
      "type": "event"
    },
    {
      "anonymous": false,
      "inputs": [
        {
          "indexed": true,
          "internalType": "address",
          "name": "governor",
          "type": "address"
        },
        {
          "indexed": true,
          "internalType": "address",
          "name": "newGovernor",
          "type": "address"
        }
      ],
      "name": "GovernanceTransited",
      "type": "event"
    },
    {
      "anonymous": false,
      "inputs": [
        {
          "indexed": false,
          "internalType": "uint256",
          "name": "liqudationLoanToValueRatio",
          "type": "uint256"
        },
        {
          "indexed": false,
          "internalType": "uint256",
          "name": "newLiquidationLoanToValueRatio",
          "type": "uint256"
        }
      ],
      "name": "LiquidationLoanToValueRatioUpdated",
      "type": "event"
    },
    {
      "anonymous": false,
      "inputs": [
        {
          "indexed": false,
          "internalType": "uint256",
          "name": "marginCallLoanToValueRatio",
          "type": "uint256"
        },
        {
          "indexed": false,
          "internalType": "uint256",
          "name": "newMarginCallLoanToValueRatio",
          "type": "uint256"
        }
      ],
      "name": "MarginCallLoanToValueRatioUpdated",
      "type": "event"
    },
    {
      "anonymous": false,
      "inputs": [
        {
          "indexed": false,
          "internalType": "uint256",
          "name": "minimumLiquidity",
          "type": "uint256"
        },
        {
          "indexed": false,
          "internalType": "uint256",
          "name": "newMinimumLiquidity",
          "type": "uint256"
        }
      ],
      "name": "MinimumLiquidityUpdated",
      "type": "event"
    },
    {
      "anonymous": false,
      "inputs": [
        {
          "indexed": false,
          "internalType": "uint256",
          "name": "minimumPrincipalAmount",
          "type": "uint256"
        },
        {
          "indexed": false,
          "internalType": "uint256",
          "name": "newMinimumPrincipalAmount",
          "type": "uint256"
        }
      ],
      "name": "MinimumPrincipalAmountUpdated",
      "type": "event"
    },
    {
      "anonymous": false,
      "inputs": [
        {
          "indexed": true,
          "internalType": "address",
          "name": "governor",
          "type": "address"
        },
        {
          "indexed": true,
          "internalType": "address",
          "name": "newGovernor",
          "type": "address"
        }
      ],
      "name": "PendingGovernanceTransition",
      "type": "event"
    },
    {
      "anonymous": false,
      "inputs": [
        {
          "indexed": false,
          "internalType": "uint256",
          "name": "stabilizationFee",
          "type": "uint256"
        },
        {
          "indexed": false,
          "internalType": "uint256",
          "name": "newStabilizationFee",
          "type": "uint256"
        },
        {
          "indexed": false,
          "internalType": "uint256",
          "name": "exchangeFee",
          "type": "uint256"
        },
        {
          "indexed": false,
          "internalType": "uint256",
          "name": "newExchangeFee",
          "type": "uint256"
        },
        {
          "indexed": false,
          "internalType": "uint256",
          "name": "developmentFee",
          "type": "uint256"
        },
        {
          "indexed": false,
          "internalType": "uint256",
          "name": "newDevelopmentFee",
          "type": "uint256"
        }
      ],
      "name": "PlatformFeesUpdated",
      "type": "event"
    },
    {
      "anonymous": false,
      "inputs": [
        {
          "indexed": false,
          "internalType": "address",
          "name": "priceOracle",
          "type": "address"
        },
        {
          "indexed": false,
          "internalType": "address",
          "name": "newPriceOracle",
          "type": "address"
        }
      ],
      "name": "PriceOracleUpdated",
      "type": "event"
    },
    {
      "anonymous": false,
      "inputs": [
        {
          "indexed": false,
          "internalType": "uint256",
          "name": "rebalancingThreshold",
          "type": "uint256"
        },
        {
          "indexed": false,
          "internalType": "uint256",
          "name": "newRebalancingThreshold",
          "type": "uint256"
        }
      ],
      "name": "RebalancingThresholdUpdated",
      "type": "event"
    },
    {
      "anonymous": false,
      "inputs": [
        {
          "indexed": false,
          "internalType": "uint256",
          "name": "servicingThreshold",
          "type": "uint256"
        },
        {
          "indexed": false,
          "internalType": "uint256",
          "name": "newServicingThreshold",
          "type": "uint256"
        }
      ],
      "name": "ServicingThresholdUpdated",
      "type": "event"
    },
    {
      "anonymous": false,
      "inputs": [
        {
          "indexed": false,
          "internalType": "uint256",
          "name": "stabilityFee",
          "type": "uint256"
        },
        {
          "indexed": false,
          "internalType": "uint256",
          "name": "newStabilityFee",
          "type": "uint256"
        }
      ],
      "name": "StabilityFeeUpdated",
      "type": "event"
    },
    {
      "inputs": [],
      "name": "acceptGovernance",
      "outputs": [],
      "stateMutability": "nonpayable",
      "type": "function"
    },
    {
      "inputs": [],
      "name": "bank",
      "outputs": [
        {
          "internalType": "address",
          "name": "",
          "type": "address"
        }
      ],
      "stateMutability": "view",
      "type": "function"
    },
    {
      "inputs": [],
      "name": "depositary",
      "outputs": [
        {
          "internalType": "address",
          "name": "",
          "type": "address"
        }
      ],
      "stateMutability": "view",
      "type": "function"
    },
    {
      "inputs": [],
      "name": "developmentFee",
      "outputs": [
        {
          "internalType": "uint256",
          "name": "",
          "type": "uint256"
        }
      ],
      "stateMutability": "view",
      "type": "function"
    },
    {
      "inputs": [],
      "name": "developmentFund",
      "outputs": [
        {
          "internalType": "address",
          "name": "",
          "type": "address"
        }
      ],
      "stateMutability": "view",
      "type": "function"
    },
    {
      "inputs": [],
      "name": "exchangeFee",
      "outputs": [
        {
          "internalType": "uint256",
          "name": "",
          "type": "uint256"
        }
      ],
      "stateMutability": "view",
      "type": "function"
    },
    {
      "inputs": [],
      "name": "exchangeFund",
      "outputs": [
        {
          "internalType": "address",
          "name": "",
          "type": "address"
        }
      ],
      "stateMutability": "view",
      "type": "function"
    },
    {
      "inputs": [],
      "name": "governor",
      "outputs": [
        {
          "internalType": "address",
          "name": "",
          "type": "address"
        }
      ],
      "stateMutability": "view",
      "type": "function"
    },
    {
      "inputs": [],
      "name": "initialize",
      "outputs": [],
      "stateMutability": "nonpayable",
      "type": "function"
    },
    {
      "inputs": [],
      "name": "liquidationLoanToValueRatio",
      "outputs": [
        {
          "internalType": "uint256",
          "name": "",
          "type": "uint256"
        }
      ],
      "stateMutability": "view",
      "type": "function"
    },
    {
      "inputs": [],
      "name": "marginCallLoanToValueRatio",
      "outputs": [
        {
          "internalType": "uint256",
          "name": "",
          "type": "uint256"
        }
      ],
      "stateMutability": "view",
      "type": "function"
    },
    {
      "inputs": [],
      "name": "minimumLiquidity",
      "outputs": [
        {
          "internalType": "uint256",
          "name": "",
          "type": "uint256"
        }
      ],
      "stateMutability": "view",
      "type": "function"
    },
    {
      "inputs": [],
      "name": "minimumPrincipalAmount",
      "outputs": [
        {
          "internalType": "uint256",
          "name": "",
          "type": "uint256"
        }
      ],
      "stateMutability": "view",
      "type": "function"
    },
    {
      "inputs": [],
      "name": "pendingGovernor",
      "outputs": [
        {
          "internalType": "address",
          "name": "",
          "type": "address"
        }
      ],
      "stateMutability": "view",
      "type": "function"
    },
    {
      "inputs": [],
      "name": "priceOracle",
      "outputs": [
        {
          "internalType": "address",
          "name": "",
          "type": "address"
        }
      ],
      "stateMutability": "view",
      "type": "function"
    },
    {
      "inputs": [],
      "name": "rebalancingThreshold",
      "outputs": [
        {
          "internalType": "uint256",
          "name": "",
          "type": "uint256"
        }
      ],
      "stateMutability": "view",
      "type": "function"
    },
    {
      "inputs": [],
      "name": "servicingThreshold",
      "outputs": [
        {
          "internalType": "uint256",
          "name": "",
          "type": "uint256"
        }
      ],
      "stateMutability": "view",
      "type": "function"
    },
    {
      "inputs": [
        {
          "internalType": "address",
          "name": "newBank",
          "type": "address"
        }
      ],
      "name": "setBank",
      "outputs": [],
      "stateMutability": "nonpayable",
      "type": "function"
    },
    {
      "inputs": [
        {
          "internalType": "uint256",
          "name": "newLiquidationLoanToValueRatio",
          "type": "uint256"
        }
      ],
      "name": "setLiquidationLoanToValueRatio",
      "outputs": [],
      "stateMutability": "nonpayable",
      "type": "function"
    },
    {
      "inputs": [
        {
          "internalType": "uint256",
          "name": "newMarginCallLoanToValueRatio",
          "type": "uint256"
        }
      ],
      "name": "setMarginCallLoanToValueRatio",
      "outputs": [],
      "stateMutability": "nonpayable",
      "type": "function"
    },
    {
      "inputs": [
        {
          "internalType": "uint256",
          "name": "newMinimumLiquidity",
          "type": "uint256"
        }
      ],
      "name": "setMinimumLiquidity",
      "outputs": [],
      "stateMutability": "nonpayable",
      "type": "function"
    },
    {
      "inputs": [
        {
          "internalType": "uint256",
          "name": "newMinimumPrincipalAmount",
          "type": "uint256"
        }
      ],
      "name": "setMinimumPrincipalAmount",
      "outputs": [],
      "stateMutability": "nonpayable",
      "type": "function"
    },
    {
      "inputs": [
        {
          "internalType": "uint256",
          "name": "newStabilizationFee",
          "type": "uint256"
        },
        {
          "internalType": "uint256",
          "name": "newExchangeFee",
          "type": "uint256"
        },
        {
          "internalType": "uint256",
          "name": "newDevelopmentFee",
          "type": "uint256"
        }
      ],
      "name": "setPlatformFees",
      "outputs": [],
      "stateMutability": "nonpayable",
      "type": "function"
    },
    {
      "inputs": [
        {
          "internalType": "uint256",
          "name": "newRebalancingThreshold",
          "type": "uint256"
        }
      ],
      "name": "setRebalancingThreshold",
      "outputs": [],
      "stateMutability": "nonpayable",
      "type": "function"
    },
    {
      "inputs": [
        {
          "internalType": "uint256",
          "name": "newServicingThreshold",
          "type": "uint256"
        }
      ],
      "name": "setServicingThreshold",
      "outputs": [],
      "stateMutability": "nonpayable",
      "type": "function"
    },
    {
      "inputs": [
        {
          "internalType": "uint256",
          "name": "newStabilityFee",
          "type": "uint256"
        }
      ],
      "name": "setStabilityFee",
      "outputs": [],
      "stateMutability": "nonpayable",
      "type": "function"
    },
    {
      "inputs": [],
      "name": "stabilityFee",
      "outputs": [
        {
          "internalType": "uint256",
          "name": "",
          "type": "uint256"
        }
      ],
      "stateMutability": "view",
      "type": "function"
    },
    {
      "inputs": [],
      "name": "stabilizationFee",
      "outputs": [
        {
          "internalType": "uint256",
          "name": "",
          "type": "uint256"
        }
      ],
      "stateMutability": "view",
      "type": "function"
    },
    {
      "inputs": [
        {
          "internalType": "address",
          "name": "newGovernor",
          "type": "address"
        },
        {
          "internalType": "bool",
          "name": "force",
          "type": "bool"
        }
      ],
      "name": "transitGovernance",
      "outputs": [],
      "stateMutability": "nonpayable",
      "type": "function"
    }
  ],
  "transactionHash": "0x44ca67ad1affb086cc46fb31915d10b8bd1a37a0ccf7792f5cc54297727bf38d",
  "args": [],
  "solcInputHash": "d70e0a1a4ce6895a490d16c22c98594c",
  "bytecode": "0x608060405234801561001057600080fd5b50610c30806100206000396000f3fe608060405234801561001057600080fd5b50600436106101cf5760003560e01c80634c12d47111610104578063af76a7ef116100a2578063e16da9f811610071578063e16da9f814610372578063e3056a3414610385578063ee0e54cb14610398578063fb4ca35b146103a157600080fd5b8063af76a7ef1461033a578063b56cf0111461034d578063d876d98e14610356578063ddc125261461035f57600080fd5b806377c4572d116100de57806377c4572d146103035780638129fc1c146103165780638a2381d71461031e578063a5f3d0031461033157600080fd5b80634c12d471146102ca578063736e1c26146102dd57806376cdb03b146102f057600080fd5b80632b3c3892116101715780633f8189ea1161014b5780633f8189ea1461029c57806342580dbe146102af5780634433c5e8146102b8578063453844b6146102c157600080fd5b80632b3c3892146102775780632ecd3be41461028a578063361416e11461029357600080fd5b80630e060378116101ad5780630e06037814610236578063238efcbc146102495780632630c12f14610251578063282567b41461026457600080fd5b8063090d23b9146101d45780630b68a580146101e95780630c340a2414610205575b600080fd5b6101e76101e2366004610b5a565b6103b4565b005b6101f260025481565b6040519081526020015b60405180910390f35b60005461021e906201000090046001600160a01b031681565b6040516001600160a01b0390911681526020016101fc565b600e5461021e906001600160a01b031681565b6101e761045b565b600c5461021e906001600160a01b031681565b6101e7610272366004610b7c565b6104f0565b6101e7610285366004610b7c565b610562565b6101f260055481565b6101f260035481565b6101e76102aa366004610b7c565b6105d4565b6101f260045481565b6101f260085481565b6101f2600a5481565b600f5461021e906001600160a01b031681565b6101e76102eb366004610b7c565b610646565b600d5461021e906001600160a01b031681565b6101e7610311366004610b7c565b6106b8565b6101e761072a565b60105461021e906001600160a01b031681565b6101f260065481565b6101e7610348366004610b7c565b610807565b6101f2600b5481565b6101f260075481565b6101e761036d366004610b95565b610879565b6101e7610380366004610bd1565b610978565b60015461021e906001600160a01b031681565b6101f260095481565b6101e76103af366004610b7c565b610a65565b6000546201000090046001600160a01b031633146103e5576040516305e7700560e51b815260040160405180910390fd5b600d54604080516001600160a01b03928316815291831660208301527f6b13d0b6d0f96f25f42864a97c7a29b23b8b2ee5b36a253eabfb1eb7ffaae857910160405180910390a1600d805473ffffffffffffffffffffffffffffffffffffffff19166001600160a01b0392909216919091179055565b6001546001600160a01b031633146104865760405163aec80d4b60e01b815260040160405180910390fd5b60015460008054620100006001600160a01b0393841681810275ffffffffffffffffffffffffffffffffffffffff00001990931692909217808455604051929491900416917f564590b81987d147246f63910a8e1ee4eb09c4d64cc75ee975a8ffedfcc2210e91a3565b6000546201000090046001600160a01b03163314610521576040516305e7700560e51b815260040160405180910390fd5b600b5460408051918252602082018390527fd18c85fe8a5776467c327fa33312c6113129233ddb47deabaa91b8396b815879910160405180910390a1600b55565b6000546201000090046001600160a01b03163314610593576040516305e7700560e51b815260040160405180910390fd5b60025460408051918252602082018390527fde9fa07b6ca9d540214c05366e57cb33adf8f132014d9d1b2802a5b89a99512a910160405180910390a1600255565b6000546201000090046001600160a01b03163314610605576040516305e7700560e51b815260040160405180910390fd5b60085460408051918252602082018390527fa466548b1a7b7c581a6b5b6e38ebed0f41846451118fb8582b71f8605b960cd8910160405180910390a1600855565b6000546201000090046001600160a01b03163314610677576040516305e7700560e51b815260040160405180910390fd5b600a5460408051918252602082018390527f157d4d2c2eb9bbd85c7f6da0c13113a3799cc3df5c817cba85d84832176459bc910160405180910390a1600a55565b6000546201000090046001600160a01b031633146106e9576040516305e7700560e51b815260040160405180910390fd5b60075460408051918252602082018390527fd2a3e4f854a80a895407f8743c1363ac14b698c432d22d8c65519e13a9e4983d910160405180910390a1600755565b60005460ff161580156107445750600054610100900460ff165b1561076257604051631ee1e30360e21b815260040160405180910390fd5b60005460ff1615801561077f576000805461ffff19166101011790555b61078833610ad7565b6802b5e3af16b1880000600255666a94d74f430000600355670bcbce7f1b150000600455670214e8348c4f00006005556000600655670a688906bd8b0000600755670b84c09a3b930000600855662386f26fc100006009819055600a55690a968163f0a57b400000600b558015610804576000805460ff191690555b50565b6000546201000090046001600160a01b03163314610838576040516305e7700560e51b815260040160405180910390fd5b60095460408051918252602082018390527f5eb53b71d73d0607121e658859e0125d7bbbf83c4288d44c18438d4fe94d1e07910160405180910390a1600955565b6000546201000090046001600160a01b031633146108aa576040516305e7700560e51b815260040160405180910390fd5b6001600160a01b0382166108d15760405163604b48b960e11b815260040160405180910390fd5b6001600160a01b0382163014156108fb576040516306b3e95d60e21b815260040160405180910390fd5b6001805473ffffffffffffffffffffffffffffffffffffffff19166001600160a01b0384161790558061096b57600080546040516001600160a01b03808616936201000090930416917fc606c9af1451cadeb333f6ff7b24a5540974f4e800bac274fa7fff9edc305cb191a35050565b61097482610ad7565b5050565b6000546201000090046001600160a01b031633146109a9576040516305e7700560e51b815260040160405180910390fd5b670de0b6b3a7640000816109bd8486610bfd565b6109c79190610bfd565b146109fa5760405163245c170760e21b815260048101849052602481018390526044810182905260640160405180910390fd5b600454600554600654604080519384526020840187905283019190915260608201849052608082015260a081018290527f1f7068a9be898db6fcd350ac2ff32fc5f1e6fc46c8e6cc973cde53793ff3ab5e9060c00160405180910390a1600492909255600555600655565b6000546201000090046001600160a01b03163314610a96576040516305e7700560e51b815260040160405180910390fd5b60035460408051918252602082018390527fde9fa07b6ca9d540214c05366e57cb33adf8f132014d9d1b2802a5b89a99512a910160405180910390a1600355565b6000805475ffffffffffffffffffffffffffffffffffffffff00001916620100006001600160a01b0384811682810293909317808555604051939492900416917f564590b81987d147246f63910a8e1ee4eb09c4d64cc75ee975a8ffedfcc2210e9190a350565b80356001600160a01b0381168114610b5557600080fd5b919050565b600060208284031215610b6c57600080fd5b610b7582610b3e565b9392505050565b600060208284031215610b8e57600080fd5b5035919050565b60008060408385031215610ba857600080fd5b610bb183610b3e565b915060208301358015158114610bc657600080fd5b809150509250929050565b600080600060608486031215610be657600080fd5b505081359360208301359350604090920135919050565b60008219821115610c1e57634e487b7160e01b600052601160045260246000fd5b50019056fea164736f6c634300080a000a",
  "devdoc": {
    "errors": {
      "BaksDAOPlatformFeesDontSumUpToOne(uint256,uint256,uint256)": [
        {
          "details": "Thrown when trying to set platform fees that don't sum up to one.",
          "params": {
            "developmentFee": "The stabilization fee that was tried to set.",
            "exchangeFee": "The stabilization fee that was tried to set.",
            "stabilizationFee": "The stabilization fee that was tried to set."
          }
        }
      ]
    },
    "kind": "dev",
    "methods": {},
    "version": 1
  },
  "userdoc": {
    "kind": "user",
    "methods": {},
    "version": 1
  },
  "storageLayout": {
    "storage": [
      {
        "astId": 9692,
        "contract": "contracts/Core.sol:Core",
        "label": "initializing",
        "offset": 0,
        "slot": "0",
        "type": "t_bool"
      },
      {
        "astId": 9694,
        "contract": "contracts/Core.sol:Core",
        "label": "initialized",
        "offset": 1,
        "slot": "0",
        "type": "t_bool"
      },
      {
        "astId": 6306,
        "contract": "contracts/Core.sol:Core",
        "label": "governor",
        "offset": 2,
        "slot": "0",
        "type": "t_address"
      },
      {
        "astId": 6308,
        "contract": "contracts/Core.sol:Core",
        "label": "pendingGovernor",
        "offset": 0,
        "slot": "1",
        "type": "t_address"
      },
      {
        "astId": 2964,
        "contract": "contracts/Core.sol:Core",
        "label": "minimumPrincipalAmount",
        "offset": 0,
        "slot": "2",
        "type": "t_uint256"
      },
      {
        "astId": 2967,
        "contract": "contracts/Core.sol:Core",
        "label": "stabilityFee",
        "offset": 0,
        "slot": "3",
        "type": "t_uint256"
      },
      {
        "astId": 2970,
        "contract": "contracts/Core.sol:Core",
        "label": "stabilizationFee",
        "offset": 0,
        "slot": "4",
        "type": "t_uint256"
      },
      {
        "astId": 2973,
        "contract": "contracts/Core.sol:Core",
        "label": "exchangeFee",
        "offset": 0,
        "slot": "5",
        "type": "t_uint256"
      },
      {
        "astId": 2976,
        "contract": "contracts/Core.sol:Core",
        "label": "developmentFee",
        "offset": 0,
        "slot": "6",
        "type": "t_uint256"
      },
      {
        "astId": 2979,
        "contract": "contracts/Core.sol:Core",
        "label": "marginCallLoanToValueRatio",
        "offset": 0,
        "slot": "7",
        "type": "t_uint256"
      },
      {
        "astId": 2982,
        "contract": "contracts/Core.sol:Core",
        "label": "liquidationLoanToValueRatio",
        "offset": 0,
        "slot": "8",
        "type": "t_uint256"
      },
      {
        "astId": 2985,
        "contract": "contracts/Core.sol:Core",
        "label": "rebalancingThreshold",
        "offset": 0,
        "slot": "9",
        "type": "t_uint256"
      },
      {
        "astId": 2988,
        "contract": "contracts/Core.sol:Core",
        "label": "servicingThreshold",
        "offset": 0,
        "slot": "10",
        "type": "t_uint256"
      },
      {
        "astId": 2991,
        "contract": "contracts/Core.sol:Core",
        "label": "minimumLiquidity",
        "offset": 0,
        "slot": "11",
        "type": "t_uint256"
      },
      {
        "astId": 2994,
        "contract": "contracts/Core.sol:Core",
        "label": "priceOracle",
        "offset": 0,
        "slot": "12",
        "type": "t_address"
      },
      {
        "astId": 2997,
        "contract": "contracts/Core.sol:Core",
        "label": "bank",
        "offset": 0,
        "slot": "13",
        "type": "t_address"
      },
      {
        "astId": 3000,
        "contract": "contracts/Core.sol:Core",
        "label": "depositary",
        "offset": 0,
        "slot": "14",
        "type": "t_address"
      },
      {
        "astId": 3003,
        "contract": "contracts/Core.sol:Core",
        "label": "exchangeFund",
        "offset": 0,
        "slot": "15",
        "type": "t_address"
      },
      {
        "astId": 3006,
        "contract": "contracts/Core.sol:Core",
        "label": "developmentFund",
        "offset": 0,
        "slot": "16",
        "type": "t_address"
      }
    ],
    "types": {
      "t_address": {
        "encoding": "inplace",
        "label": "address",
        "numberOfBytes": "20"
      },
      "t_bool": {
        "encoding": "inplace",
        "label": "bool",
        "numberOfBytes": "1"
      },
      "t_uint256": {
        "encoding": "inplace",
        "label": "uint256",
        "numberOfBytes": "32"
      }
    }
  }
}