{
  "address": "0xC510bE9C28c7b71aEfd3A55121B9a8135Df97519",
  "abi": [
    {
      "inputs": [
        {
          "internalType": "address",
          "name": "magister",
          "type": "address"
        }
      ],
      "name": "BaksDAOMagisterAlreadyWhitelisted",
      "type": "error"
    },
    {
      "inputs": [
        {
          "internalType": "address",
          "name": "magister",
          "type": "address"
        }
      ],
      "name": "BaksDAOMagisterBlacklisted",
      "type": "error"
    },
    {
      "inputs": [],
      "name": "BaksDAOOnlyDepositorOrMagisterAllowed",
      "type": "error"
    },
    {
      "inputs": [],
      "name": "BaksDAOWithdrawAmountExceedsPrincipal",
      "type": "error"
    },
    {
      "inputs": [
        {
          "internalType": "address",
          "name": "target",
          "type": "address"
        }
      ],
      "name": "CallToNonContract",
      "type": "error"
    },
    {
      "inputs": [],
      "name": "ContractAlreadyInitialized",
      "type": "error"
    },
    {
      "inputs": [
        {
          "internalType": "uint256",
          "name": "a",
          "type": "uint256"
        }
      ],
      "name": "FixedPointMathExp2ArgumentTooBig",
      "type": "error"
    },
    {
      "inputs": [
        {
          "internalType": "uint256",
          "name": "a",
          "type": "uint256"
        }
      ],
      "name": "FixedPointMathExpArgumentTooBig",
      "type": "error"
    },
    {
      "inputs": [
        {
          "internalType": "uint256",
          "name": "prod1",
          "type": "uint256"
        },
        {
          "internalType": "uint256",
          "name": "denominator",
          "type": "uint256"
        }
      ],
      "name": "FixedPointMathMulDivOverflow",
      "type": "error"
    },
    {
      "inputs": [],
      "name": "GovernedCantGoverItself",
      "type": "error"
    },
    {
      "inputs": [],
      "name": "GovernedGovernorZeroAddress",
      "type": "error"
    },
    {
      "inputs": [],
      "name": "GovernedOnlyGovernorAllowedToCall",
      "type": "error"
    },
    {
      "inputs": [],
      "name": "GovernedOnlyPendingGovernorAllowedToCall",
      "type": "error"
    },
    {
      "inputs": [],
      "name": "SafeERC20NoReturnData",
      "type": "error"
    },
    {
      "anonymous": false,
      "inputs": [
        {
          "indexed": true,
          "internalType": "address",
          "name": "governor",
          "type": "address"
        },
        {
          "indexed": true,
          "internalType": "address",
          "name": "newGovernor",
          "type": "address"
        }
      ],
      "name": "GovernanceTransited",
      "type": "event"
    },
    {
      "anonymous": false,
      "inputs": [
        {
          "indexed": true,
          "internalType": "address",
          "name": "magister",
          "type": "address"
        }
      ],
      "name": "MagisterBlacklisted",
      "type": "event"
    },
    {
      "anonymous": false,
      "inputs": [
        {
          "indexed": true,
          "internalType": "address",
          "name": "magister",
          "type": "address"
        }
      ],
      "name": "MagisterWhitelisted",
      "type": "event"
    },
    {
      "anonymous": false,
      "inputs": [
        {
          "indexed": true,
          "internalType": "address",
          "name": "governor",
          "type": "address"
        },
        {
          "indexed": true,
          "internalType": "address",
          "name": "newGovernor",
          "type": "address"
        }
      ],
      "name": "PendingGovernanceTransition",
      "type": "event"
    },
    {
      "inputs": [],
      "name": "acceptGovernance",
      "outputs": [],
      "stateMutability": "nonpayable",
      "type": "function"
    },
    {
      "inputs": [
        {
          "internalType": "contract IERC20",
          "name": "depositToken",
          "type": "address"
        },
        {
          "internalType": "bool",
          "name": "isCompounding",
          "type": "bool"
        },
        {
          "internalType": "uint256",
          "name": "depositorApr",
          "type": "uint256"
        },
        {
          "internalType": "uint256",
          "name": "magisterApr",
          "type": "uint256"
        },
        {
          "internalType": "uint256",
          "name": "depositorBonusApr",
          "type": "uint256"
        },
        {
          "internalType": "uint256",
          "name": "magisterBonusApr",
          "type": "uint256"
        }
      ],
      "name": "addPool",
      "outputs": [],
      "stateMutability": "nonpayable",
      "type": "function"
    },
    {
      "inputs": [],
      "name": "bank",
      "outputs": [
        {
          "internalType": "contract IBank",
          "name": "",
          "type": "address"
        }
      ],
      "stateMutability": "view",
      "type": "function"
    },
    {
      "inputs": [
        {
          "internalType": "address",
          "name": "magister",
          "type": "address"
        }
      ],
      "name": "blacklistMagister",
      "outputs": [],
      "stateMutability": "nonpayable",
      "type": "function"
    },
    {
      "inputs": [],
      "name": "bonusToken",
      "outputs": [
        {
          "internalType": "contract IERC20",
          "name": "",
          "type": "address"
        }
      ],
      "stateMutability": "view",
      "type": "function"
    },
    {
      "inputs": [
        {
          "internalType": "uint256",
          "name": "",
          "type": "uint256"
        },
        {
          "internalType": "address",
          "name": "",
          "type": "address"
        }
      ],
      "name": "currentDepositIds",
      "outputs": [
        {
          "internalType": "uint256",
          "name": "",
          "type": "uint256"
        }
      ],
      "stateMutability": "view",
      "type": "function"
    },
    {
      "inputs": [
        {
          "internalType": "uint256",
          "name": "poolId",
          "type": "uint256"
        },
        {
          "internalType": "uint256",
          "name": "amount",
          "type": "uint256"
        },
        {
          "internalType": "address",
          "name": "magister",
          "type": "address"
        }
      ],
      "name": "deposit",
      "outputs": [],
      "stateMutability": "nonpayable",
      "type": "function"
    },
    {
      "inputs": [
        {
          "internalType": "uint256",
          "name": "poolId",
          "type": "uint256"
        },
        {
          "internalType": "uint256",
          "name": "amount",
          "type": "uint256"
        }
      ],
      "name": "deposit",
      "outputs": [],
      "stateMutability": "nonpayable",
      "type": "function"
    },
    {
      "inputs": [
        {
          "internalType": "uint256",
          "name": "",
          "type": "uint256"
        }
      ],
      "name": "deposits",
      "outputs": [
        {
          "internalType": "uint256",
          "name": "id",
          "type": "uint256"
        },
        {
          "internalType": "bool",
          "name": "isActive",
          "type": "bool"
        },
        {
          "internalType": "address",
          "name": "depositor",
          "type": "address"
        },
        {
          "internalType": "address",
          "name": "magister",
          "type": "address"
        },
        {
          "internalType": "uint256",
          "name": "poolId",
          "type": "uint256"
        },
        {
          "internalType": "uint256",
          "name": "principal",
          "type": "uint256"
        },
        {
          "internalType": "uint256",
          "name": "depositorTotalAccruedRewards",
          "type": "uint256"
        },
        {
          "internalType": "uint256",
          "name": "depositorWithdrawnRewards",
          "type": "uint256"
        },
        {
          "internalType": "uint256",
          "name": "magisterTotalAccruedRewards",
          "type": "uint256"
        },
        {
          "internalType": "uint256",
          "name": "magisterWithdrawnRewards",
          "type": "uint256"
        },
        {
          "internalType": "uint256",
          "name": "createdAt",
          "type": "uint256"
        },
        {
          "internalType": "uint256",
          "name": "lastDepositAt",
          "type": "uint256"
        },
        {
          "internalType": "uint256",
          "name": "lastInteractionAt",
          "type": "uint256"
        },
        {
          "internalType": "uint256",
          "name": "closedAt",
          "type": "uint256"
        }
      ],
      "stateMutability": "view",
      "type": "function"
    },
    {
      "inputs": [],
      "name": "earlyWithdrawalFee",
      "outputs": [
        {
          "internalType": "uint256",
          "name": "",
          "type": "uint256"
        }
      ],
      "stateMutability": "view",
      "type": "function"
    },
    {
      "inputs": [],
      "name": "earlyWithdrawalPeriod",
      "outputs": [
        {
          "internalType": "uint256",
          "name": "",
          "type": "uint256"
        }
      ],
      "stateMutability": "view",
      "type": "function"
    },
    {
      "inputs": [],
      "name": "getActiveMagisterAddresses",
      "outputs": [
        {
          "internalType": "address[]",
          "name": "activeMagisterAddresses",
          "type": "address[]"
        }
      ],
      "stateMutability": "view",
      "type": "function"
    },
    {
      "inputs": [],
      "name": "getActiveMagisters",
      "outputs": [
        {
          "components": [
            {
              "internalType": "bool",
              "name": "isActive",
              "type": "bool"
            },
            {
              "internalType": "uint256",
              "name": "createdAt",
              "type": "uint256"
            },
            {
              "internalType": "address",
              "name": "addr",
              "type": "address"
            },
            {
              "internalType": "uint256",
              "name": "totalIncome",
              "type": "uint256"
            },
            {
              "internalType": "uint256[]",
              "name": "depositIds",
              "type": "uint256[]"
            }
          ],
          "internalType": "struct Magister.Data[]",
          "name": "activeMagisters",
          "type": "tuple[]"
        }
      ],
      "stateMutability": "view",
      "type": "function"
    },
    {
      "inputs": [
        {
          "internalType": "address",
          "name": "magister",
          "type": "address"
        }
      ],
      "name": "getMagisterDepositIds",
      "outputs": [
        {
          "internalType": "uint256[]",
          "name": "",
          "type": "uint256[]"
        }
      ],
      "stateMutability": "view",
      "type": "function"
    },
    {
      "inputs": [],
      "name": "getPools",
      "outputs": [
        {
          "components": [
            {
              "internalType": "uint256",
              "name": "id",
              "type": "uint256"
            },
            {
              "internalType": "contract IERC20",
              "name": "depositToken",
              "type": "address"
            },
            {
              "internalType": "contract IPriceOracle",
              "name": "priceOracle",
              "type": "address"
            },
            {
              "internalType": "bool",
              "name": "isCompounding",
              "type": "bool"
            },
            {
              "internalType": "uint256",
              "name": "depositsAmount",
              "type": "uint256"
            },
            {
              "internalType": "uint256",
              "name": "depositorApr",
              "type": "uint256"
            },
            {
              "internalType": "uint256",
              "name": "magisterApr",
              "type": "uint256"
            },
            {
              "internalType": "uint256",
              "name": "depositorBonusApr",
              "type": "uint256"
            },
            {
              "internalType": "uint256",
              "name": "magisterBonusApr",
              "type": "uint256"
            }
          ],
          "internalType": "struct Pool.Data[]",
          "name": "",
          "type": "tuple[]"
        }
      ],
      "stateMutability": "view",
      "type": "function"
    },
    {
      "inputs": [],
      "name": "getPoolsCount",
      "outputs": [
        {
          "internalType": "uint256",
          "name": "",
          "type": "uint256"
        }
      ],
      "stateMutability": "view",
      "type": "function"
    },
    {
      "inputs": [
        {
          "internalType": "uint256",
          "name": "depositId",
          "type": "uint256"
        }
      ],
      "name": "getRewards",
      "outputs": [
        {
          "internalType": "uint256",
          "name": "depositorRewards",
          "type": "uint256"
        },
        {
          "internalType": "uint256",
          "name": "magisterRewards",
          "type": "uint256"
        }
      ],
      "stateMutability": "view",
      "type": "function"
    },
    {
      "inputs": [],
      "name": "getTotalValueLocked",
      "outputs": [
        {
          "internalType": "uint256",
          "name": "totalValueLocked",
          "type": "uint256"
        }
      ],
      "stateMutability": "view",
      "type": "function"
    },
    {
      "inputs": [],
      "name": "governor",
      "outputs": [
        {
          "internalType": "address",
          "name": "",
          "type": "address"
        }
      ],
      "stateMutability": "view",
      "type": "function"
    },
    {
      "inputs": [
        {
          "internalType": "contract IERC20",
          "name": "_stablecoin",
          "type": "address"
        },
        {
          "internalType": "contract IERC20",
          "name": "_bonusToken",
          "type": "address"
        },
        {
          "internalType": "contract IPriceOracle",
          "name": "_priceOracle",
          "type": "address"
        },
        {
          "internalType": "contract IBank",
          "name": "_bank",
          "type": "address"
        }
      ],
      "name": "initialize",
      "outputs": [],
      "stateMutability": "nonpayable",
      "type": "function"
    },
    {
      "inputs": [
        {
          "internalType": "uint256",
          "name": "depositId",
          "type": "uint256"
        }
      ],
      "name": "isMagister",
      "outputs": [
        {
          "internalType": "bool",
          "name": "",
          "type": "bool"
        }
      ],
      "stateMutability": "view",
      "type": "function"
    },
    {
      "inputs": [
        {
          "internalType": "address",
          "name": "",
          "type": "address"
        }
      ],
      "name": "magisters",
      "outputs": [
        {
          "internalType": "bool",
          "name": "isActive",
          "type": "bool"
        },
        {
          "internalType": "uint256",
          "name": "createdAt",
          "type": "uint256"
        },
        {
          "internalType": "address",
          "name": "addr",
          "type": "address"
        },
        {
          "internalType": "uint256",
          "name": "totalIncome",
          "type": "uint256"
        }
      ],
      "stateMutability": "view",
      "type": "function"
    },
    {
      "inputs": [],
      "name": "pendingGovernor",
      "outputs": [
        {
          "internalType": "address",
          "name": "",
          "type": "address"
        }
      ],
      "stateMutability": "view",
      "type": "function"
    },
    {
      "inputs": [
        {
          "internalType": "uint256",
          "name": "",
          "type": "uint256"
        }
      ],
      "name": "pools",
      "outputs": [
        {
          "internalType": "uint256",
          "name": "id",
          "type": "uint256"
        },
        {
          "internalType": "contract IERC20",
          "name": "depositToken",
          "type": "address"
        },
        {
          "internalType": "contract IPriceOracle",
          "name": "priceOracle",
          "type": "address"
        },
        {
          "internalType": "bool",
          "name": "isCompounding",
          "type": "bool"
        },
        {
          "internalType": "uint256",
          "name": "depositsAmount",
          "type": "uint256"
        },
        {
          "internalType": "uint256",
          "name": "depositorApr",
          "type": "uint256"
        },
        {
          "internalType": "uint256",
          "name": "magisterApr",
          "type": "uint256"
        },
        {
          "internalType": "uint256",
          "name": "depositorBonusApr",
          "type": "uint256"
        },
        {
          "internalType": "uint256",
          "name": "magisterBonusApr",
          "type": "uint256"
        }
      ],
      "stateMutability": "view",
      "type": "function"
    },
    {
      "inputs": [],
      "name": "priceOracle",
      "outputs": [
        {
          "internalType": "contract IPriceOracle",
          "name": "",
          "type": "address"
        }
      ],
      "stateMutability": "view",
      "type": "function"
    },
    {
      "inputs": [
        {
          "internalType": "contract IBank",
          "name": "_bank",
          "type": "address"
        }
      ],
      "name": "setBank",
      "outputs": [],
      "stateMutability": "nonpayable",
      "type": "function"
    },
    {
      "inputs": [
        {
          "internalType": "uint256",
          "name": "_workFee",
          "type": "uint256"
        }
      ],
      "name": "setWorkFee",
      "outputs": [],
      "stateMutability": "nonpayable",
      "type": "function"
    },
    {
      "inputs": [],
      "name": "stablecoin",
      "outputs": [
        {
          "internalType": "contract IERC20",
          "name": "",
          "type": "address"
        }
      ],
      "stateMutability": "view",
      "type": "function"
    },
    {
      "inputs": [
        {
          "internalType": "address",
          "name": "newGovernor",
          "type": "address"
        },
        {
          "internalType": "bool",
          "name": "force",
          "type": "bool"
        }
      ],
      "name": "transitGovernance",
      "outputs": [],
      "stateMutability": "nonpayable",
      "type": "function"
    },
    {
      "inputs": [
        {
          "internalType": "uint256",
          "name": "poolId",
          "type": "uint256"
        },
        {
          "internalType": "bool",
          "name": "isCompounding",
          "type": "bool"
        },
        {
          "internalType": "uint256",
          "name": "depositorApr",
          "type": "uint256"
        },
        {
          "internalType": "uint256",
          "name": "magisterApr",
          "type": "uint256"
        },
        {
          "internalType": "uint256",
          "name": "depositorBonusApr",
          "type": "uint256"
        },
        {
          "internalType": "uint256",
          "name": "magisterBonusApr",
          "type": "uint256"
        }
      ],
      "name": "updatePool",
      "outputs": [],
      "stateMutability": "nonpayable",
      "type": "function"
    },
    {
      "inputs": [
        {
          "internalType": "address",
          "name": "magister",
          "type": "address"
        }
      ],
      "name": "whitelistMagister",
      "outputs": [],
      "stateMutability": "nonpayable",
      "type": "function"
    },
    {
      "inputs": [
        {
          "internalType": "uint256",
          "name": "depositId",
          "type": "uint256"
        },
        {
          "internalType": "uint256",
          "name": "amount",
          "type": "uint256"
        }
      ],
      "name": "withdraw",
      "outputs": [],
      "stateMutability": "nonpayable",
      "type": "function"
    },
    {
      "inputs": [],
      "name": "workFee",
      "outputs": [
        {
          "internalType": "uint256",
          "name": "",
          "type": "uint256"
        }
      ],
      "stateMutability": "view",
      "type": "function"
    }
  ],
  "transactionHash": "0xeff38a9c6ba135154d99940ebd8f0bc3730c308fa37fc58be75be761c558c71c",
  "args": [],
  "solcInputHash": "ec0af5b9c8d7f1e92f8b42cb7156d274",
  "bytecode": "0x608060405234801561001057600080fd5b50613c31806100206000396000f3fe608060405234801561001057600080fd5b506004361061020b5760003560e01c806383b116521161012a578063c0d8012c116100bd578063e9cbd8221161008c578063f119821a11610071578063f119821a1461059f578063f3a4a6f6146105b4578063f8c8765e146105df57600080fd5b8063e9cbd82214610579578063eb907b221461058c57600080fd5b8063c0d8012c14610518578063ddc1252614610540578063e2bbb15814610553578063e3056a341461056657600080fd5b8063ac4afa38116100f9578063ac4afa381461041e578063b02c43d014610481578063b26025aa14610508578063b4ac68601461051057600080fd5b806383b11652146103625780638dbdbe6d14610375578063a2b4f32514610388578063a47b4410146103fe57600080fd5b806343853ae3116101a25780635a59a1b2116101715780635a59a1b214610314578063610f347b14610327578063673a2a1f1461033a57806376cdb03b1461034f57600080fd5b806343853ae3146102c2578063441a3e70146102e5578063493310a4146102f857806351adfe491461030b57600080fd5b8063238efcbc116101de578063238efcbc1461028b5780632630c12f146102935780633a5017b4146102a657806341d4a1ab146102af57600080fd5b8063017b5f2e14610210578063090d23b91461022e5780630c340a241461024357806316330d4014610274575b600080fd5b6102186105f2565b6040516102259190613598565b60405180910390f35b61024161023c3660046135fa565b610657565b005b60005461025c906201000090046001600160a01b031681565b6040516001600160a01b039091168152602001610225565b61027d60065481565b604051908152602001610225565b6102416106aa565b60025461025c906001600160a01b031681565b61027d600d5481565b60045461025c906001600160a01b031681565b6102d56102d0366004613617565b61073f565b6040519015158152602001610225565b6102416102f3366004613630565b61077b565b610241610306366004613660565b610afe565b61027d60055481565b6102416103223660046135fa565b610bae565b6102416103353660046135fa565b610c7f565b610342610d83565b60405161022591906136b0565b600e5461025c906001600160a01b031681565b610241610370366004613764565b610e4e565b610241610383366004613798565b611070565b6103cd6103963660046135fa565b600760205260009081526040902080546001820154600283015460039093015460ff9092169290916001600160a01b039091169084565b6040516102259493929190931515845260208401929092526001600160a01b03166040830152606082015260800190565b61041161040c3660046135fa565b61153b565b604051610225919061380c565b61043161042c366004613617565b6115aa565b60408051998a526001600160a01b0398891660208b015296909716958801959095529215156060870152608086019190915260a085015260c084015260e083015261010082015261012001610225565b61049461048f366004613617565b611618565b604080519e8f529c151560208f01526001600160a01b039b8c169c8e019c909c529990981660608c015260808b019690965260a08a019490945260c089019290925260e08801526101008701526101208601526101408501526101608401526101808301526101a08201526101c001610225565b61027d6116a8565b600a5461027d565b61052b610526366004613617565b611782565b60408051928352602083019190915201610225565b61024161054e36600461381f565b6118b8565b610241610561366004613630565b6119aa565b60015461025c906001600160a01b031681565b60035461025c906001600160a01b031681565b61024161059a366004613617565b6119b5565b6105a76119eb565b6040516102259190613858565b61027d6105c23660046138f8565b600c60209081526000928352604080842090915290825290205481565b6102416105ed36600461391d565b611b86565b6060600860000180548060200260200160405190810160405280929190818152602001828054801561064d57602002820191906000526020600020905b81546001600160a01b0316815260019091019060200180831161062f575b5050505050905090565b6000546201000090046001600160a01b03163314610688576040516305e7700560e51b815260040160405180910390fd5b600e80546001600160a01b0319166001600160a01b0392909216919091179055565b6001546001600160a01b031633146106d55760405163aec80d4b60e01b815260040160405180910390fd5b60015460008054620100006001600160a01b0393841681810275ffffffffffffffffffffffffffffffffffffffff00001990931692909217808455604051929491900416917f564590b81987d147246f63910a8e1ee4eb09c4d64cc75ee975a8ffedfcc2210e91a3565b600080600b838154811061075557610755613979565b60009182526020909120600d90910201600201546001600160a01b031633149392505050565b6000600b838154811061079057610790613979565b90600052602060002090600d020190506000600a8260030154815481106107b9576107b9613979565b600091825260209091206001840154600890920201915061010090046001600160a01b03163314806107f7575060028201546001600160a01b031633145b61081457604051633b382fcd60e21b815260040160405180910390fd5b600181015460009061082f906001600160a01b031685611fa9565b905061083e836000015461204b565b600061085d8460080154856007015461085791906139a5565b83612252565b9050600080600080610887886003015489600601548a6005015461088191906139a5565b8761226a565b60028c0154939750919550935091506001600160a01b03163314156109095760028801546003546108c5916001600160a01b039182169116846124d9565b80156108ea5760028801546004546108ea916001600160a01b039182169116836124d9565b848860080160008282546108fe91906139bc565b90915550610aae9050565b876004015486111561092e57604051630e0e9e5d60e31b815260040160405180910390fd5b6002870154600090600160a01b900460ff16156109915750600d54600554600a8a015461095b91906139bc565b4210156109725760065461096f90826139bc565b90505b61098e61098782670de0b6b3a76400006139a5565b869061256e565b94505b60035460018901546001600160a01b039081169116146109d2576001808a0154908901546109d2916001600160a01b039182169161010090910416896124d9565b6001808a0154600354918a0154610a21926001600160a01b03610100909304831692918216911614610a045786610a0e565b610a0e878a6139bc565b6003546001600160a01b031691906124d9565b8315610a4c576001890154600454610a4c916001600160a01b039182169161010090910416866124d9565b86886003016000828254610a6091906139a5565b9250508190555086896004016000828254610a7b91906139a5565b9091555050600689015460058a0154610a9491906139a5565b896006016000828254610aa791906139bc565b9091555050505b42600b8901556004880154610af25760018801805460ff1916905542600c808a01919091556003890154600090815260209182526040808220338352909252908120555b50505050505050505050565b6000546201000090046001600160a01b03163314610b2f576040516305e7700560e51b815260040160405180910390fd5b6000600a8781548110610b4457610b44613979565b6000918252602090912060026008909202019081018054971515600160a01b027fffffffffffffffffffffff00ffffffffffffffffffffffffffffffffffffffff909816979097179096555060048501939093556005840191909155600683015560079091015550565b6000546201000090046001600160a01b03163314610bdf576040516305e7700560e51b815260040160405180910390fd5b6001600160a01b038116600090815260096020526040902054610c255760405163c3a9f00560e01b81526001600160a01b03821660048201526024015b60405180910390fd5b610c3060088261263e565b15610c7c576001600160a01b038116600081815260076020526040808220805460ff19169055517feac1eada73853c49d4c41fc681d6ac5332005e489babcae0b54f4024150601d79190a25b50565b6000546201000090046001600160a01b03163314610cb0576040516305e7700560e51b815260040160405180910390fd5b6001600160a01b03811660009081526009602052604090205415610cf257604051630a0e5acf60e21b81526001600160a01b0382166004820152602401610c1c565b610cfd600882612777565b15610c7c576001600160a01b03811660008181526007602052604090206002810180546001600160a01b0319169092179091556001810154610d40574260018201555b805460ff191660011781556040516001600160a01b038316907fb41dc55c7c8ff45cc4ee01390b83d63e2c93edf7952c5ef3f4ba55a4af6b6a9690600090a25050565b6060600a805480602002602001604051908101604052809291908181526020016000905b82821015610e45576000848152602090819020604080516101208101825260088602909201805483526001808201546001600160a01b0390811685870152600283015490811693850193909352600160a01b90920460ff161515606084015260038101546080840152600481015460a0840152600581015460c0840152600681015460e0840152600701546101008301529083529092019101610da7565b50505050905090565b6000546201000090046001600160a01b03163314610e7f576040516305e7700560e51b815260040160405180910390fd5b600a805460408051610120810182528281526001600160a01b03998a16602082019081526002548b169282019283529815156060820190815260006080830181815260a084019a8b5260c08401998a5260e084019889526101008401978852600186018755959052905160089093027fc65a7bb8d6351c1cf70c95a316cc6a92839c986682d98bc35f958f4883f9d2a881019390935597517fc65a7bb8d6351c1cf70c95a316cc6a92839c986682d98bc35f958f4883f9d2a983018054918b166001600160a01b0319909216919091179055517fc65a7bb8d6351c1cf70c95a316cc6a92839c986682d98bc35f958f4883f9d2aa8201805498511515600160a01b027fffffffffffffffffffffff00000000000000000000000000000000000000000090991691909916179690961790965594517fc65a7bb8d6351c1cf70c95a316cc6a92839c986682d98bc35f958f4883f9d2ab85015591517fc65a7bb8d6351c1cf70c95a316cc6a92839c986682d98bc35f958f4883f9d2ac840155517fc65a7bb8d6351c1cf70c95a316cc6a92839c986682d98bc35f958f4883f9d2ad830155517fc65a7bb8d6351c1cf70c95a316cc6a92839c986682d98bc35f958f4883f9d2ae82015590517fc65a7bb8d6351c1cf70c95a316cc6a92839c986682d98bc35f958f4883f9d2af90910155565b6001600160a01b0381163314806110b357506001600160a01b0381163014806110b157506001600160a01b03811660009081526007602052604090205460ff165b155b156110dc5760405163c3a9f00560e01b81526001600160a01b0382166004820152602401610c1c565b6000600a84815481106110f1576110f1613979565b60009182526020909120600890910201600181015490915061111e906001600160a01b03163330866127e7565b6001810154600090611139906001600160a01b031685611fa9565b90508082600301600082825461114f91906139bc565b90915550506000858152600c6020908152604080832033845290915290205461141d576000600b805490509050600b604051806101c00160405280838152602001600115158152602001336001600160a01b03168152602001866001600160a01b0316815260200188815260200184815260200160008152602001600081526020016000815260200160008152602001428152602001428152602001428152602001600081525090806001815401808255809150506001900390600052602060002090600d02016000909190919091506000820151816000015560208201518160010160006101000a81548160ff02191690831515021790555060408201518160010160016101000a8154816001600160a01b0302191690836001600160a01b0316021790555060608201518160020160006101000a8154816001600160a01b0302191690836001600160a01b031602179055506080820151816003015560a0820151816004015560c0820151816005015560e0820151816006015561010082015181600701556101208201518160080155610140820151816009015561016082015181600a015561018082015181600b01556101a082015181600c0155505080600c60008881526020019081526020016000206000336001600160a01b03166001600160a01b0316815260200190815260200160002081905550306001600160a01b0316846001600160a01b031614611392576001600160a01b0384166000908152600760209081526040822060040180546001810182559083529120018190555b60035460018401546001600160a01b0390811691161461141757600e546001840154604051638e877d9960e01b81526001600160a01b03918216600482015260248101859052911690638e877d9990604401600060405180830381600087803b1580156113fe57600080fd5b505af1158015611412573d6000803e3d6000fd5b505050505b50611534565b6000858152600c60209081526040808320338452909152812054600b8054909190811061144c5761144c613979565b90600052602060002090600d02019050611469816000015461204b565b60008160060154826005015461147f91906139a5565b9050600080611494846003015484600061226a565b505060018601546003549294509092506114c0916001600160a01b0390811691610100900416846124d9565b80156114eb5760018401546004546114eb916001600160a01b039182169161010090910416836124d9565b848460040160008282546114ff91906139bc565b925050819055508284600601600082825461151a91906139bc565b909155505042600a8501819055600b909401939093555050505b5050505050565b6001600160a01b03811660009081526007602090815260409182902060040180548351818402810184019094528084526060939283018282801561159e57602002820191906000526020600020905b81548152602001906001019080831161158a575b50505050509050919050565b600a81815481106115ba57600080fd5b6000918252602090912060089091020180546001820154600283015460038401546004850154600586015460068701546007909701549597506001600160a01b039485169694841695600160a01b90940460ff169492939192909189565b600b818154811061162857600080fd5b60009182526020909120600d9091020180546001820154600283015460038401546004850154600586015460068701546007880154600889015460098a0154600a8b0154600b8c0154600c909c01549a9c5060ff8a169b610100909a046001600160a01b039081169b99169997989697959694959394929391929091908e565b6000805b600a5481101561177e57611760600a82815481106116cc576116cc613979565b600091825260209182902060408051610120810182526008939093029091018054835260018101546001600160a01b0390811694840194909452600281015493841691830191909152600160a01b90920460ff161515606082015260038201546080820152600482015460a0820152600582015460c0820152600682015460e0820152600790910154610100820152612825565b61176a90836139bc565b915080611776816139d4565b9150506116ac565b5090565b6000806000600b848154811061179a5761179a613979565b60009182526020808320604080516101c081018252600d90940290910180548452600181015460ff81161515938501939093526001600160a01b03610100938490048116928501929092526002810154909116606084015260038101546080840152600481015460a0840152600581015460c0840152600681015460e084015260078101549183019190915260088101546101208301526009810154610140830152600a810154610160830152600b810154610180830152600c01546101a0820152915080611868866128c6565b915091508260e001518360c001518361188191906139bc565b61188b91906139a5565b9450826101200151836101000151826118a491906139bc565b6118ae91906139a5565b9350505050915091565b6000546201000090046001600160a01b031633146118e9576040516305e7700560e51b815260040160405180910390fd5b6001600160a01b0382166119105760405163604b48b960e11b815260040160405180910390fd5b6001600160a01b03821630141561193a576040516306b3e95d60e21b815260040160405180910390fd5b600180546001600160a01b0319166001600160a01b0384161790558061199d57600080546040516001600160a01b03808616936201000090930416917fc606c9af1451cadeb333f6ff7b24a5540974f4e800bac274fa7fff9edc305cb191a35050565b6119a682612ac9565b5050565b6119a6828230611070565b6000546201000090046001600160a01b031633146119e6576040516305e7700560e51b815260040160405180910390fd5b600d55565b6008546060908067ffffffffffffffff811115611a0a57611a0a6139ef565b604051908082528060200260200182016040528015611a7857816020015b611a656040518060a001604052806000151581526020016000815260200160006001600160a01b0316815260200160008152602001606081525090565b815260200190600190039081611a285790505b50915060005b81811015611b81576007600060086000018381548110611aa057611aa0613979565b60009182526020808320909101546001600160a01b039081168452838201949094526040928301909120825160a081018452815460ff16151581526001820154818401526002820154909416848401526003810154606085015260048101805484518185028101850190955280855291936080860193909290830182828015611b4857602002820191906000526020600020905b815481526020019060010190808311611b34575b505050505081525050838281518110611b6357611b63613979565b60200260200101819052508080611b79906139d4565b915050611a7e565b505090565b60005460ff16158015611ba05750600054610100900460ff165b15611bbe57604051631ee1e30360e21b815260040160405180910390fd5b60005460ff16158015611bdb576000805461ffff19166101011790555b611be433612ac9565b6203f48060058190555066038d7ea4c6800060068190555066470de4df820000600d8190555084600360006101000a8154816001600160a01b0302191690836001600160a01b0316021790555083600460006101000a8154816001600160a01b0302191690836001600160a01b0316021790555082600260006101000a8154816001600160a01b0302191690836001600160a01b0316021790555081600e60006101000a8154816001600160a01b0302191690836001600160a01b03160217905550600b604051806101c001604052806000815260200160001515815260200160006001600160a01b0316815260200160006001600160a01b031681526020016000815260200160008152602001600081526020016000815260200160008152602001600081526020014281526020014281526020014281526020014281525090806001815401808255809150506001900390600052602060002090600d02016000909190919091506000820151816000015560208201518160010160006101000a81548160ff02191690831515021790555060408201518160010160016101000a8154816001600160a01b0302191690836001600160a01b0316021790555060608201518160020160006101000a8154816001600160a01b0302191690836001600160a01b031602179055506080820151816003015560a0820151816004015560c0820151816005015560e0820151816006015561010082015181600701556101208201518160080155610140820151816009015561016082015181600a015561018082015181600b01556101a082015181600c01555050600a6040518061012001604052806000815260200160006001600160a01b03168152602001600260009054906101000a90046001600160a01b03166001600160a01b0316815260200160001515815260200160008152602001600081526020016000815260200160008152602001600081525090806001815401808255809150506001900390600052602060002090600802016000909190919091506000820151816000015560208201518160010160006101000a8154816001600160a01b0302191690836001600160a01b0316021790555060408201518160020160006101000a8154816001600160a01b0302191690836001600160a01b0316021790555060608201518160020160146101000a81548160ff0219169083151502179055506080820151816003015560a0820151816004015560c0820151816005015560e08201518160060155610100820151816007015550508015611534576000805460ff191690555050505050565b600080836001600160a01b031663313ce5676040518163ffffffff1660e01b8152600401602060405180830381865afa158015611fea573d6000803e3d6000fd5b505050506040513d601f19601f8201168201806040525081019061200e9190613a05565b612019906012613a28565b61202490600a613b2f565b905080600114612040576120388184613b3e565b915050612045565b829150505b92915050565b600080612057836128c6565b915091506000600b848154811061207057612070613979565b90600052602060002090600d020190506000600a82600301548154811061209957612099613979565b600091825260208220600160089092020101546003546001600160a01b03918216935016821461213657600254604051630787c49960e21b81526001600160a01b03848116600483015290911690631e1f126490602401602060405180830381865afa15801561210d573d6000803e3d6000fd5b505050506040513d601f19601f820116820180604052508101906121319190613b5d565b612140565b670de0b6b3a76400005b60028401549091506001600160a01b0316301480159061217c575060028301546001600160a01b031660009081526007602052604090205460ff165b156121da578383600701600082825461219591906139bc565b909155506121a59050848261256e565b60028401546001600160a01b0316600090815260076020526040812060030180549091906121d49084906139bc565b90915550505b848360050160008282546121ee91906139bc565b90915550503360009081526007602052604090205460ff161561224a57612215858261256e565b60028401546001600160a01b0316600090815260076020526040812060030180549091906122449084906139bc565b90915550505b505050505050565b60008183106122615781612263565b825b9392505050565b6000806000806000600a888154811061228557612285613979565b6000918252602080832060408051610120810182526008949094029091018054845260018101546001600160a01b0390811693850193909352600281015492831691840191909152600160a01b90910460ff161515606083015260038101546080830152600481015460a0830152600581015460c0830152600681015460e083015260070154610100820152915061231c82612b30565b9050600061232983612b46565b60035460208501519192506000916001600160a01b039081169116146123c0576002546020850151604051630787c49960e21b81526001600160a01b039182166004820152911690631e1f126490602401602060405180830381865afa158015612397573d6000803e3d6000fd5b505050506040513d601f19601f820116820180604052508101906123bb9190613b5d565b6123ca565b670de0b6b3a76400005b90506123d68a8261256e565b97506123e2898261256e565b60025460048054604051630787c49960e21b81526001600160a01b0391821692810192909252929850911690631e1f126490602401602060405180830381865afa925050508015612450575060408051601f3d908101601f1916820190925261244d91810190613b5d565b60015b612459576124cc565b80156124ca5760e085015161247a90612472908361256e565b8a9086612b5d565b975061249f6124978287610100015161256e90919063ffffffff16565b889085612b5d565b60a08601519096506124b3908a9086612b5d565b60c08601519099506124c790889085612b5d565b96505b505b5050505093509350935093565b6040516001600160a01b03831660248201526044810182905261256990849063a9059cbb60e01b906064015b60408051601f198184030181529190526020810180517bffffffffffffffffffffffffffffffffffffffffffffffffffffffff167fffffffff0000000000000000000000000000000000000000000000000000000090931692909217909152612c18565b505050565b60008080600019848609848602925082811083820303915050670de0b6b3a764000081106125c05760405163072fa3c960e31b815260048101829052670de0b6b3a76400006024820152604401610c1c565b600080670de0b6b3a76400008688099150506706f05b59d3b1ffff8111826125fa5780670de0b6b3a7640000850401945050505050612045565b620400008285030493909111909103600160ee1b02919091177faccb18165bd6fe31ae1cf318dc5b51eee0e1ba569b88cd74c1773b91fac106690201905092915050565b6001600160a01b038116600090815260018301602052604081205480612668576000915050612045565b60006126756001836139a5565b905060006001612683875490565b61268d91906139a5565b90508082146127195760008660000182815481106126ad576126ad613979565b60009182526020909120015487546001600160a01b03909116915081908890859081106126dc576126dc613979565b600091825260208083209190910180546001600160a01b0319166001600160a01b0394851617905592909116815260018801909152604090208390555b855486908061272a5761272a613b76565b60008281526020808220830160001990810180546001600160a01b03191690559092019092556001600160a01b038716825260018881019091526040822091909155935050505092915050565b6001600160a01b03811660009081526001830160205260408120541561279f57506000612045565b508154600180820184556000848152602080822090930180546001600160a01b0319166001600160a01b03959095169485179055845493815293810190915260409092205590565b6040516001600160a01b038085166024830152831660448201526064810182905261281f9085906323b872dd60e01b90608401612505565b50505050565b600081608001516000141561283c57506000919050565b60408083015160208401519151630787c49960e21b81526001600160a01b03928316600482015260009290911690631e1f126490602401602060405180830381865afa158015612890573d6000803e3d6000fd5b505050506040513d601f19601f820116820180604052508101906128b49190613b5d565b6080840151909150612263908261256e565b6000806000600b84815481106128de576128de613979565b60009182526020808320604080516101c081018252600d90940290910180548452600181015460ff81161515938501939093526001600160a01b036101009384900481169285019290925260028101549091166060840152600381015460808401819052600482015460a0850152600582015460c0850152600682015460e085015260078201549284019290925260088101546101208401526009810154610140840152600a80820154610160850152600b820154610180850152600c909101546101a084015280549294509181106129b9576129b9613979565b6000918252602080832060408051610120810182526008949094029091018054845260018101546001600160a01b0390811693850193909352600281015492831691840191909152600160a01b90910460ff161515606083015260038101546080830152600481015460a0830152600581015460c0830152600681015460e083015260070154610100820152610180840151909250612a8d90612a8290612a7b90670de0b6b3a7640000906301e1338090612a7490426139a5565b9190612b5d565b8490612ca2565b60a08501519061256e565b90506000612a9a83612cf9565b9050612ab0612aa884612b30565b839083612b5d565b9550612abe612aa884612b46565b945050505050915091565b6000805475ffffffffffffffffffffffffffffffffffffffff00001916620100006001600160a01b0384811682810293909317808555604051939492900416917f564590b81987d147246f63910a8e1ee4eb09c4d64cc75ee975a8ffedfcc2210e9190a350565b60008160e001518260a0015161204591906139bc565b60008161010001518260c0015161204591906139bc565b60008080600019858709858702925082811083820303915050838110612ba05760405163072fa3c960e31b81526004810182905260248101859052604401610c1c565b80612bb057508290049050612263565b600084868809600260036001881981018916988990049182028318808302840302808302840302808302840302808302840302808302840302918202909203026000889003889004909101858311909403939093029303949094049190911702949350505050565b6040805180820190915260208082527f5361666545524332303a206c6f772d6c6576656c2063616c6c206661696c6564908201528290600090612c67906001600160a01b038416908590612d17565b80519091501561281f5780806020019051810190612c859190613b8c565b61281f57604051639b8d506160e01b815260040160405180910390fd5b600080612cae84612cf9565b90508360600151612cca57612cc3818461256e565b9150612cf2565b670de0b6b3a7640000612ce5612ce0838661256e565b612dba565b612cef91906139a5565b91505b5092915050565b6000612d0482612b46565b612d0d83612b30565b61204591906139bc565b6060833b612d435760405163dc5dd7fd60e01b81526001600160a01b0385166004820152602401610c1c565b600080856001600160a01b031685604051612d5e9190613bd5565b6000604051808303816000865af19150503d8060008114612d9b576040519150601f19603f3d011682016040523d82523d6000602084013e612da0565b606091505b5091509150612db0828286612e10565b9695505050505050565b6000680736ea4425c11ac6318210612de857604051632864fd0160e11b815260048101839052602401610c1c565b6714057b7ef767814f8202612263670de0b6b3a76400006706f05b59d3b20000830104612e49565b60608315612e1f575081612263565b825115612e2f5782518060208501fd5b8160405162461bcd60e51b8152600401610c1c9190613bf1565b6000680a688906bd8b0000008210612e7757604051632132de2160e01b815260048101839052602401610c1c565b50670de0b6b3a764000060409190911b0477800000000000000000000000000000000000000000000000678000000000000000821615612ec05768016a09e667f3bcc9090260401c5b674000000000000000821615612edf576801306fe0a31b7152df0260401c5b672000000000000000821615612efe576801172b83c7d517adce0260401c5b671000000000000000821615612f1d5768010b5586cf9890f62a0260401c5b670800000000000000821615612f3c576801059b0d31585743ae0260401c5b670400000000000000821615612f5b57680102c9a3e778060ee70260401c5b670200000000000000821615612f7a5768010163da9fb33356d80260401c5b670100000000000000821615612f9957680100b1afa5abcbed610260401c5b6680000000000000821615612fb75768010058c86da1c09ea20260401c5b6640000000000000821615612fd5576801002c605e2e8cec500260401c5b6620000000000000821615612ff357680100162f3904051fa10260401c5b6610000000000000821615613011576801000b175effdc76ba0260401c5b660800000000000082161561302f57680100058ba01fb9f96d0260401c5b660400000000000082161561304d5768010002c5cc37da94920260401c5b660200000000000082161561306b576801000162e525ee05470260401c5b66010000000000008216156130895768010000b17255775c040260401c5b658000000000008216156130a6576801000058b91b5bc9ae0260401c5b654000000000008216156130c357680100002c5c89d5ec6d0260401c5b652000000000008216156130e05768010000162e43f4f8310260401c5b651000000000008216156130fd57680100000b1721bcfc9a0260401c5b6508000000000082161561311a5768010000058b90cf1e6e0260401c5b65040000000000821615613137576801000002c5c863b73f0260401c5b6502000000000082161561315457680100000162e430e5a20260401c5b65010000000000821615613171576801000000b1721835510260401c5b64800000000082161561318d57680100000058b90c0b490260401c5b6440000000008216156131a95768010000002c5c8601cc0260401c5b6420000000008216156131c5576801000000162e42fff00260401c5b6410000000008216156131e15768010000000b17217fbb0260401c5b6408000000008216156131fd576801000000058b90bfce0260401c5b64040000000082161561321957680100000002c5c85fe30260401c5b6402000000008216156132355768010000000162e42ff10260401c5b64010000000082161561325157680100000000b17217f80260401c5b638000000082161561326c5768010000000058b90bfc0260401c5b6340000000821615613287576801000000002c5c85fe0260401c5b63200000008216156132a257680100000000162e42ff0260401c5b63100000008216156132bd576801000000000b17217f0260401c5b63080000008216156132d857680100000000058b90c00260401c5b63040000008216156132f35768010000000002c5c8600260401c5b630200000082161561330e576801000000000162e4300260401c5b63010000008216156133295768010000000000b172180260401c5b62800000821615613343576801000000000058b90c0260401c5b6240000082161561335d57680100000000002c5c860260401c5b622000008216156133775768010000000000162e430260401c5b6210000082161561339157680100000000000b17210260401c5b620800008216156133ab5768010000000000058b910260401c5b620400008216156133c5576801000000000002c5c80260401c5b620200008216156133df57680100000000000162e40260401c5b620100008216156133f9576801000000000000b1720260401c5b61800082161561341257680100000000000058b90260401c5b61400082161561342b5768010000000000002c5d0260401c5b612000821615613444576801000000000000162e0260401c5b61100082161561345d5768010000000000000b170260401c5b610800821615613476576801000000000000058c0260401c5b61040082161561348f57680100000000000002c60260401c5b6102008216156134a857680100000000000001630260401c5b6101008216156134c157680100000000000000b10260401c5b60808216156134d957680100000000000000590260401c5b60408216156134f1576801000000000000002c0260401c5b602082161561350957680100000000000000160260401c5b6010821615613521576801000000000000000b0260401c5b600882161561353957680100000000000000060260401c5b600482161561355157680100000000000000030260401c5b600282161561356957680100000000000000010260401c5b600182161561358157680100000000000000010260401c5b670de0b6b3a76400000260409190911c60bf031c90565b6020808252825182820181905260009190848201906040850190845b818110156135d95783516001600160a01b0316835292840192918401916001016135b4565b50909695505050505050565b6001600160a01b0381168114610c7c57600080fd5b60006020828403121561360c57600080fd5b8135612263816135e5565b60006020828403121561362957600080fd5b5035919050565b6000806040838503121561364357600080fd5b50508035926020909101359150565b8015158114610c7c57600080fd5b60008060008060008060c0878903121561367957600080fd5b86359550602087013561368b81613652565b95989597505050506040840135936060810135936080820135935060a0909101359150565b602080825282518282018190526000919060409081850190868401855b82811015613757578151805185526001600160a01b0387820151168786015285810151613704878701826001600160a01b03169052565b506060818101511515908601526080808201519086015260a0808201519086015260c0808201519086015260e08082015190860152610100908101519085015261012090930192908501906001016136cd565b5091979650505050505050565b60008060008060008060c0878903121561377d57600080fd5b8635613788816135e5565b9550602087013561368b81613652565b6000806000606084860312156137ad57600080fd5b833592506020840135915060408401356137c6816135e5565b809150509250925092565b600081518084526020808501945080840160005b83811015613801578151875295820195908201906001016137e5565b509495945050505050565b60208152600061226360208301846137d1565b6000806040838503121561383257600080fd5b823561383d816135e5565b9150602083013561384d81613652565b809150509250929050565b60006020808301818452808551808352604092508286019150828160051b87010184880160005b838110156138ea57888303603f1901855281518051151584528781015188850152868101516001600160a01b0316878501526060808201519085015260809081015160a0918501829052906138d6818601836137d1565b96890196945050509086019060010161387f565b509098975050505050505050565b6000806040838503121561390b57600080fd5b82359150602083013561384d816135e5565b6000806000806080858703121561393357600080fd5b843561393e816135e5565b9350602085013561394e816135e5565b9250604085013561395e816135e5565b9150606085013561396e816135e5565b939692955090935050565b634e487b7160e01b600052603260045260246000fd5b634e487b7160e01b600052601160045260246000fd5b6000828210156139b7576139b761398f565b500390565b600082198211156139cf576139cf61398f565b500190565b60006000198214156139e8576139e861398f565b5060010190565b634e487b7160e01b600052604160045260246000fd5b600060208284031215613a1757600080fd5b815160ff8116811461226357600080fd5b600060ff821660ff841680821015613a4257613a4261398f565b90039392505050565b600181815b80851115613a86578160001904821115613a6c57613a6c61398f565b80851615613a7957918102915b93841c9390800290613a50565b509250929050565b600082613a9d57506001612045565b81613aaa57506000612045565b8160018114613ac05760028114613aca57613ae6565b6001915050612045565b60ff841115613adb57613adb61398f565b50506001821b612045565b5060208310610133831016604e8410600b8410161715613b09575081810a612045565b613b138383613a4b565b8060001904821115613b2757613b2761398f565b029392505050565b600061226360ff841683613a8e565b6000816000190483118215151615613b5857613b5861398f565b500290565b600060208284031215613b6f57600080fd5b5051919050565b634e487b7160e01b600052603160045260246000fd5b600060208284031215613b9e57600080fd5b815161226381613652565b60005b83811015613bc4578181015183820152602001613bac565b8381111561281f5750506000910152565b60008251613be7818460208701613ba9565b9190910192915050565b6020815260008251806020840152613c10816040850160208701613ba9565b601f01601f1916919091016040019291505056fea164736f6c634300080a000a",
  "devdoc": {
    "kind": "dev",
    "methods": {},
    "version": 1
  },
  "userdoc": {
    "kind": "user",
    "methods": {},
    "version": 1
  },
  "storageLayout": {
    "storage": [
      {
        "astId": 9711,
        "contract": "contracts/Depositary.sol:Depositary",
        "label": "initializing",
        "offset": 0,
        "slot": "0",
        "type": "t_bool"
      },
      {
        "astId": 9713,
        "contract": "contracts/Depositary.sol:Depositary",
        "label": "initialized",
        "offset": 1,
        "slot": "0",
        "type": "t_bool"
      },
      {
        "astId": 6325,
        "contract": "contracts/Depositary.sol:Depositary",
        "label": "governor",
        "offset": 2,
        "slot": "0",
        "type": "t_address"
      },
      {
        "astId": 6327,
        "contract": "contracts/Depositary.sol:Depositary",
        "label": "pendingGovernor",
        "offset": 0,
        "slot": "1",
        "type": "t_address"
      },
      {
        "astId": 3331,
        "contract": "contracts/Depositary.sol:Depositary",
        "label": "priceOracle",
        "offset": 0,
        "slot": "2",
        "type": "t_contract(IPriceOracle)6635"
      },
      {
        "astId": 3334,
        "contract": "contracts/Depositary.sol:Depositary",
        "label": "stablecoin",
        "offset": 0,
        "slot": "3",
        "type": "t_contract(IERC20)6545"
      },
      {
        "astId": 3337,
        "contract": "contracts/Depositary.sol:Depositary",
        "label": "bonusToken",
        "offset": 0,
        "slot": "4",
        "type": "t_contract(IERC20)6545"
      },
      {
        "astId": 3339,
        "contract": "contracts/Depositary.sol:Depositary",
        "label": "earlyWithdrawalPeriod",
        "offset": 0,
        "slot": "5",
        "type": "t_uint256"
      },
      {
        "astId": 3341,
        "contract": "contracts/Depositary.sol:Depositary",
        "label": "earlyWithdrawalFee",
        "offset": 0,
        "slot": "6",
        "type": "t_uint256"
      },
      {
        "astId": 3346,
        "contract": "contracts/Depositary.sol:Depositary",
        "label": "magisters",
        "offset": 0,
        "slot": "7",
        "type": "t_mapping(t_address,t_struct(Data)9022_storage)"
      },
      {
        "astId": 3349,
        "contract": "contracts/Depositary.sol:Depositary",
        "label": "magistersSet",
        "offset": 0,
        "slot": "8",
        "type": "t_struct(Set)7401_storage"
      },
      {
        "astId": 3353,
        "contract": "contracts/Depositary.sol:Depositary",
        "label": "pools",
        "offset": 0,
        "slot": "10",
        "type": "t_array(t_struct(Data)9284_storage)dyn_storage"
      },
      {
        "astId": 3357,
        "contract": "contracts/Depositary.sol:Depositary",
        "label": "deposits",
        "offset": 0,
        "slot": "11",
        "type": "t_array(t_struct(Data)7390_storage)dyn_storage"
      },
      {
        "astId": 3363,
        "contract": "contracts/Depositary.sol:Depositary",
        "label": "currentDepositIds",
        "offset": 0,
        "slot": "12",
        "type": "t_mapping(t_uint256,t_mapping(t_address,t_uint256))"
      },
      {
        "astId": 3365,
        "contract": "contracts/Depositary.sol:Depositary",
        "label": "workFee",
        "offset": 0,
        "slot": "13",
        "type": "t_uint256"
      },
      {
        "astId": 3368,
        "contract": "contracts/Depositary.sol:Depositary",
        "label": "bank",
        "offset": 0,
        "slot": "14",
        "type": "t_contract(IBank)3288"
      }
    ],
    "types": {
      "t_address": {
        "encoding": "inplace",
        "label": "address",
        "numberOfBytes": "20"
      },
      "t_array(t_address)dyn_storage": {
        "base": "t_address",
        "encoding": "dynamic_array",
        "label": "address[]",
        "numberOfBytes": "32"
      },
      "t_array(t_struct(Data)7390_storage)dyn_storage": {
        "base": "t_struct(Data)7390_storage",
        "encoding": "dynamic_array",
        "label": "struct Deposit.Data[]",
        "numberOfBytes": "32"
      },
      "t_array(t_struct(Data)9284_storage)dyn_storage": {
        "base": "t_struct(Data)9284_storage",
        "encoding": "dynamic_array",
        "label": "struct Pool.Data[]",
        "numberOfBytes": "32"
      },
      "t_array(t_uint256)dyn_storage": {
        "base": "t_uint256",
        "encoding": "dynamic_array",
        "label": "uint256[]",
        "numberOfBytes": "32"
      },
      "t_bool": {
        "encoding": "inplace",
        "label": "bool",
        "numberOfBytes": "1"
      },
      "t_contract(IBank)3288": {
        "encoding": "inplace",
        "label": "contract IBank",
        "numberOfBytes": "20"
      },
      "t_contract(IERC20)6545": {
        "encoding": "inplace",
        "label": "contract IERC20",
        "numberOfBytes": "20"
      },
      "t_contract(IPriceOracle)6635": {
        "encoding": "inplace",
        "label": "contract IPriceOracle",
        "numberOfBytes": "20"
      },
      "t_mapping(t_address,t_struct(Data)9022_storage)": {
        "encoding": "mapping",
        "key": "t_address",
        "label": "mapping(address => struct Magister.Data)",
        "numberOfBytes": "32",
        "value": "t_struct(Data)9022_storage"
      },
      "t_mapping(t_address,t_uint256)": {
        "encoding": "mapping",
        "key": "t_address",
        "label": "mapping(address => uint256)",
        "numberOfBytes": "32",
        "value": "t_uint256"
      },
      "t_mapping(t_uint256,t_mapping(t_address,t_uint256))": {
        "encoding": "mapping",
        "key": "t_uint256",
        "label": "mapping(uint256 => mapping(address => uint256))",
        "numberOfBytes": "32",
        "value": "t_mapping(t_address,t_uint256)"
      },
      "t_struct(Data)7390_storage": {
        "encoding": "inplace",
        "label": "struct Deposit.Data",
        "members": [
          {
            "astId": 7363,
            "contract": "contracts/Depositary.sol:Depositary",
            "label": "id",
            "offset": 0,
            "slot": "0",
            "type": "t_uint256"
          },
          {
            "astId": 7365,
            "contract": "contracts/Depositary.sol:Depositary",
            "label": "isActive",
            "offset": 0,
            "slot": "1",
            "type": "t_bool"
          },
          {
            "astId": 7367,
            "contract": "contracts/Depositary.sol:Depositary",
            "label": "depositor",
            "offset": 1,
            "slot": "1",
            "type": "t_address"
          },
          {
            "astId": 7369,
            "contract": "contracts/Depositary.sol:Depositary",
            "label": "magister",
            "offset": 0,
            "slot": "2",
            "type": "t_address"
          },
          {
            "astId": 7371,
            "contract": "contracts/Depositary.sol:Depositary",
            "label": "poolId",
            "offset": 0,
            "slot": "3",
            "type": "t_uint256"
          },
          {
            "astId": 7373,
            "contract": "contracts/Depositary.sol:Depositary",
            "label": "principal",
            "offset": 0,
            "slot": "4",
            "type": "t_uint256"
          },
          {
            "astId": 7375,
            "contract": "contracts/Depositary.sol:Depositary",
            "label": "depositorTotalAccruedRewards",
            "offset": 0,
            "slot": "5",
            "type": "t_uint256"
          },
          {
            "astId": 7377,
            "contract": "contracts/Depositary.sol:Depositary",
            "label": "depositorWithdrawnRewards",
            "offset": 0,
            "slot": "6",
            "type": "t_uint256"
          },
          {
            "astId": 7379,
            "contract": "contracts/Depositary.sol:Depositary",
            "label": "magisterTotalAccruedRewards",
            "offset": 0,
            "slot": "7",
            "type": "t_uint256"
          },
          {
            "astId": 7381,
            "contract": "contracts/Depositary.sol:Depositary",
            "label": "magisterWithdrawnRewards",
            "offset": 0,
            "slot": "8",
            "type": "t_uint256"
          },
          {
            "astId": 7383,
            "contract": "contracts/Depositary.sol:Depositary",
            "label": "createdAt",
            "offset": 0,
            "slot": "9",
            "type": "t_uint256"
          },
          {
            "astId": 7385,
            "contract": "contracts/Depositary.sol:Depositary",
            "label": "lastDepositAt",
            "offset": 0,
            "slot": "10",
            "type": "t_uint256"
          },
          {
            "astId": 7387,
            "contract": "contracts/Depositary.sol:Depositary",
            "label": "lastInteractionAt",
            "offset": 0,
            "slot": "11",
            "type": "t_uint256"
          },
          {
            "astId": 7389,
            "contract": "contracts/Depositary.sol:Depositary",
            "label": "closedAt",
            "offset": 0,
            "slot": "12",
            "type": "t_uint256"
          }
        ],
        "numberOfBytes": "416"
      },
      "t_struct(Data)9022_storage": {
        "encoding": "inplace",
        "label": "struct Magister.Data",
        "members": [
          {
            "astId": 9012,
            "contract": "contracts/Depositary.sol:Depositary",
            "label": "isActive",
            "offset": 0,
            "slot": "0",
            "type": "t_bool"
          },
          {
            "astId": 9014,
            "contract": "contracts/Depositary.sol:Depositary",
            "label": "createdAt",
            "offset": 0,
            "slot": "1",
            "type": "t_uint256"
          },
          {
            "astId": 9016,
            "contract": "contracts/Depositary.sol:Depositary",
            "label": "addr",
            "offset": 0,
            "slot": "2",
            "type": "t_address"
          },
          {
            "astId": 9018,
            "contract": "contracts/Depositary.sol:Depositary",
            "label": "totalIncome",
            "offset": 0,
            "slot": "3",
            "type": "t_uint256"
          },
          {
            "astId": 9021,
            "contract": "contracts/Depositary.sol:Depositary",
            "label": "depositIds",
            "offset": 0,
            "slot": "4",
            "type": "t_array(t_uint256)dyn_storage"
          }
        ],
        "numberOfBytes": "160"
      },
      "t_struct(Data)9284_storage": {
        "encoding": "inplace",
        "label": "struct Pool.Data",
        "members": [
          {
            "astId": 9265,
            "contract": "contracts/Depositary.sol:Depositary",
            "label": "id",
            "offset": 0,
            "slot": "0",
            "type": "t_uint256"
          },
          {
            "astId": 9268,
            "contract": "contracts/Depositary.sol:Depositary",
            "label": "depositToken",
            "offset": 0,
            "slot": "1",
            "type": "t_contract(IERC20)6545"
          },
          {
            "astId": 9271,
            "contract": "contracts/Depositary.sol:Depositary",
            "label": "priceOracle",
            "offset": 0,
            "slot": "2",
            "type": "t_contract(IPriceOracle)6635"
          },
          {
            "astId": 9273,
            "contract": "contracts/Depositary.sol:Depositary",
            "label": "isCompounding",
            "offset": 20,
            "slot": "2",
            "type": "t_bool"
          },
          {
            "astId": 9275,
            "contract": "contracts/Depositary.sol:Depositary",
            "label": "depositsAmount",
            "offset": 0,
            "slot": "3",
            "type": "t_uint256"
          },
          {
            "astId": 9277,
            "contract": "contracts/Depositary.sol:Depositary",
            "label": "depositorApr",
            "offset": 0,
            "slot": "4",
            "type": "t_uint256"
          },
          {
            "astId": 9279,
            "contract": "contracts/Depositary.sol:Depositary",
            "label": "magisterApr",
            "offset": 0,
            "slot": "5",
            "type": "t_uint256"
          },
          {
            "astId": 9281,
            "contract": "contracts/Depositary.sol:Depositary",
            "label": "depositorBonusApr",
            "offset": 0,
            "slot": "6",
            "type": "t_uint256"
          },
          {
            "astId": 9283,
            "contract": "contracts/Depositary.sol:Depositary",
            "label": "magisterBonusApr",
            "offset": 0,
            "slot": "7",
            "type": "t_uint256"
          }
        ],
        "numberOfBytes": "256"
      },
      "t_struct(Set)7401_storage": {
        "encoding": "inplace",
        "label": "struct EnumerableAddressSet.Set",
        "members": [
          {
            "astId": 7396,
            "contract": "contracts/Depositary.sol:Depositary",
            "label": "elements",
            "offset": 0,
            "slot": "0",
            "type": "t_array(t_address)dyn_storage"
          },
          {
            "astId": 7400,
            "contract": "contracts/Depositary.sol:Depositary",
            "label": "indexes",
            "offset": 0,
            "slot": "1",
            "type": "t_mapping(t_address,t_uint256)"
          }
        ],
        "numberOfBytes": "64"
      },
      "t_uint256": {
        "encoding": "inplace",
        "label": "uint256",
        "numberOfBytes": "32"
      }
    }
  }
}