{
  "address": "0x4d401b7d54fd335722FDb08a28095cc1Af7E796b",
  "abi": [
    {
      "inputs": [
        {
          "internalType": "contract IERC20",
          "name": "_wrappedNativeCurrency",
          "type": "address"
        }
      ],
      "stateMutability": "nonpayable",
      "type": "constructor"
    },
    {
      "inputs": [],
      "name": "GovernedCantGoverItself",
      "type": "error"
    },
    {
      "inputs": [],
      "name": "GovernedGovernorZeroAddress",
      "type": "error"
    },
    {
      "inputs": [],
      "name": "GovernedOnlyGovernorAllowedToCall",
      "type": "error"
    },
    {
      "inputs": [],
      "name": "GovernedOnlyPendingGovernorAllowedToCall",
      "type": "error"
    },
    {
      "anonymous": false,
      "inputs": [
        {
          "indexed": true,
          "internalType": "address",
          "name": "governor",
          "type": "address"
        },
        {
          "indexed": true,
          "internalType": "address",
          "name": "newGovernor",
          "type": "address"
        }
      ],
      "name": "GovernanceTransited",
      "type": "event"
    },
    {
      "anonymous": false,
      "inputs": [
        {
          "indexed": true,
          "internalType": "address",
          "name": "governor",
          "type": "address"
        },
        {
          "indexed": true,
          "internalType": "address",
          "name": "newGovernor",
          "type": "address"
        }
      ],
      "name": "PendingGovernanceTransition",
      "type": "event"
    },
    {
      "inputs": [],
      "name": "acceptGovernance",
      "outputs": [],
      "stateMutability": "nonpayable",
      "type": "function"
    },
    {
      "inputs": [
        {
          "internalType": "contract IERC20",
          "name": "token",
          "type": "address"
        }
      ],
      "name": "getNormalizedPrice",
      "outputs": [
        {
          "internalType": "uint256",
          "name": "normalizedPrice",
          "type": "uint256"
        }
      ],
      "stateMutability": "view",
      "type": "function"
    },
    {
      "inputs": [],
      "name": "governor",
      "outputs": [
        {
          "internalType": "address",
          "name": "",
          "type": "address"
        }
      ],
      "stateMutability": "view",
      "type": "function"
    },
    {
      "inputs": [],
      "name": "pendingGovernor",
      "outputs": [
        {
          "internalType": "address",
          "name": "",
          "type": "address"
        }
      ],
      "stateMutability": "view",
      "type": "function"
    },
    {
      "inputs": [
        {
          "internalType": "contract IERC20",
          "name": "",
          "type": "address"
        }
      ],
      "name": "prices",
      "outputs": [
        {
          "internalType": "uint256",
          "name": "",
          "type": "uint256"
        }
      ],
      "stateMutability": "view",
      "type": "function"
    },
    {
      "inputs": [
        {
          "internalType": "contract IERC20",
          "name": "token",
          "type": "address"
        },
        {
          "internalType": "uint256",
          "name": "price",
          "type": "uint256"
        }
      ],
      "name": "setPrice",
      "outputs": [],
      "stateMutability": "nonpayable",
      "type": "function"
    },
    {
      "inputs": [
        {
          "internalType": "address",
          "name": "newGovernor",
          "type": "address"
        }
      ],
      "name": "transitGovernance",
      "outputs": [],
      "stateMutability": "nonpayable",
      "type": "function"
    },
    {
      "inputs": [],
      "name": "wrappedNativeCurrency",
      "outputs": [
        {
          "internalType": "contract IERC20",
          "name": "",
          "type": "address"
        }
      ],
      "stateMutability": "view",
      "type": "function"
    }
  ],
  "transactionHash": "0x9a2183c516356b4baad309bba36224aec5ecbe986d820cf563409d49bcea3395",
  "args": [
    "0x2Cf210ad0a8f31D8A7b5742931B9C3ECb663cdB8"
  ],
  "solcInputHash": "37e44ceb5ade6fd628df41eb5d70582d",
  "bytecode": "0x60a060405234801561001057600080fd5b5060405161049938038061049983398101604081905261002f916100b8565b600080546001600160a01b0319163390811782556040519091907fc606c9af1451cadeb333f6ff7b24a5540974f4e800bac274fa7fff9edc305cb1908290a3600080546040516001600160a01b0390911691907f564590b81987d147246f63910a8e1ee4eb09c4d64cc75ee975a8ffedfcc2210e908290a36001600160a01b03166080526100e8565b6000602082840312156100ca57600080fd5b81516001600160a01b03811681146100e157600080fd5b9392505050565b608051610396610103600039600061015b01526103966000f3fe608060405234801561001057600080fd5b50600436106100875760003560e01c8063631aa9e21161005b578063631aa9e214610110578063cfed246b14610123578063e3056a3414610143578063e7f3028c1461015657600080fd5b8062e4768b1461008c5780630c340a24146100a15780631e1f1264146100d1578063238efcbc14610108575b600080fd5b61009f61009a366004610339565b61017d565b005b6000546100b4906001600160a01b031681565b6040516001600160a01b0390911681526020015b60405180910390f35b6100fa6100df366004610365565b6001600160a01b031660009081526002602052604090205490565b6040519081526020016100c8565b61009f6101c4565b61009f61011e366004610365565b610247565b6100fa610131366004610365565b60026020526000908152604090205481565b6001546100b4906001600160a01b031681565b6100b47f000000000000000000000000000000000000000000000000000000000000000081565b6000546001600160a01b031633146101a8576040516305e7700560e51b815260040160405180910390fd5b6001600160a01b03909116600090815260026020526040902055565b6001546001600160a01b031633146101ef5760405163aec80d4b60e01b815260040160405180910390fd5b6001546000805473ffffffffffffffffffffffffffffffffffffffff19166001600160a01b03909216918217815560405182917f564590b81987d147246f63910a8e1ee4eb09c4d64cc75ee975a8ffedfcc2210e91a3565b6000546001600160a01b03163314610272576040516305e7700560e51b815260040160405180910390fd5b6001600160a01b0381166102995760405163604b48b960e11b815260040160405180910390fd5b6001600160a01b0381163014156102c3576040516306b3e95d60e21b815260040160405180910390fd5b6001805473ffffffffffffffffffffffffffffffffffffffff19166001600160a01b0383811691821790925560008054604051929316917fc606c9af1451cadeb333f6ff7b24a5540974f4e800bac274fa7fff9edc305cb19190a350565b6001600160a01b038116811461033657600080fd5b50565b6000806040838503121561034c57600080fd5b823561035781610321565b946020939093013593505050565b60006020828403121561037757600080fd5b813561038281610321565b939250505056fea164736f6c6343000809000a",
  "devdoc": {
    "kind": "dev",
    "methods": {
      "getNormalizedPrice(address)": {
        "params": {
          "token": "The address of the token contract."
        },
        "returns": {
          "normalizedPrice": "Normalized price."
        }
      }
    },
    "version": 1
  },
  "userdoc": {
    "kind": "user",
    "methods": {
      "getNormalizedPrice(address)": {
        "notice": "Gets normalized to 18 decimals price for the `token` token."
      }
    },
    "version": 1
  },
  "storageLayout": {
    "storage": [
      {
        "astId": 4002,
        "contract": "contracts/test/DummyPriceOracle.sol:DummyPriceOracle",
        "label": "governor",
        "offset": 0,
        "slot": "0",
        "type": "t_address"
      },
      {
        "astId": 4004,
        "contract": "contracts/test/DummyPriceOracle.sol:DummyPriceOracle",
        "label": "pendingGovernor",
        "offset": 0,
        "slot": "1",
        "type": "t_address"
      },
      {
        "astId": 5755,
        "contract": "contracts/test/DummyPriceOracle.sol:DummyPriceOracle",
        "label": "prices",
        "offset": 0,
        "slot": "2",
        "type": "t_mapping(t_contract(IERC20)4263,t_uint256)"
      }
    ],
    "types": {
      "t_address": {
        "encoding": "inplace",
        "label": "address",
        "numberOfBytes": "20"
      },
      "t_contract(IERC20)4263": {
        "encoding": "inplace",
        "label": "contract IERC20",
        "numberOfBytes": "20"
      },
      "t_mapping(t_contract(IERC20)4263,t_uint256)": {
        "encoding": "mapping",
        "key": "t_contract(IERC20)4263",
        "label": "mapping(contract IERC20 => uint256)",
        "numberOfBytes": "32",
        "value": "t_uint256"
      },
      "t_uint256": {
        "encoding": "inplace",
        "label": "uint256",
        "numberOfBytes": "32"
      }
    }
  }
}