{
  "address": "0x995a47e8cF011B8Fe8075Fa787fa08ca5401bCAe",
  "abi": [
    {
      "inputs": [],
      "name": "ContractAlreadyInitialized",
      "type": "error"
    },
    {
      "inputs": [],
      "name": "GovernedCantGoverItself",
      "type": "error"
    },
    {
      "inputs": [],
      "name": "GovernedGovernorZeroAddress",
      "type": "error"
    },
    {
      "inputs": [],
      "name": "GovernedOnlyGovernorAllowedToCall",
      "type": "error"
    },
    {
      "inputs": [],
      "name": "GovernedOnlyPendingGovernorAllowedToCall",
      "type": "error"
    },
    {
      "anonymous": false,
      "inputs": [
        {
          "indexed": true,
          "internalType": "address",
          "name": "governor",
          "type": "address"
        },
        {
          "indexed": true,
          "internalType": "address",
          "name": "newGovernor",
          "type": "address"
        }
      ],
      "name": "GovernanceTransited",
      "type": "event"
    },
    {
      "anonymous": false,
      "inputs": [
        {
          "indexed": true,
          "internalType": "address",
          "name": "governor",
          "type": "address"
        },
        {
          "indexed": true,
          "internalType": "address",
          "name": "newGovernor",
          "type": "address"
        }
      ],
      "name": "PendingGovernanceTransition",
      "type": "event"
    },
    {
      "inputs": [],
      "name": "acceptGovernance",
      "outputs": [],
      "stateMutability": "nonpayable",
      "type": "function"
    },
    {
      "inputs": [
        {
          "internalType": "contract IERC20",
          "name": "token",
          "type": "address"
        }
      ],
      "name": "getNormalizedPrice",
      "outputs": [
        {
          "internalType": "uint256",
          "name": "normalizedPrice",
          "type": "uint256"
        }
      ],
      "stateMutability": "view",
      "type": "function"
    },
    {
      "inputs": [],
      "name": "governor",
      "outputs": [
        {
          "internalType": "address",
          "name": "",
          "type": "address"
        }
      ],
      "stateMutability": "view",
      "type": "function"
    },
    {
      "inputs": [
        {
          "internalType": "contract IERC20",
          "name": "_wrappedNativeCurrency",
          "type": "address"
        }
      ],
      "name": "initialize",
      "outputs": [],
      "stateMutability": "nonpayable",
      "type": "function"
    },
    {
      "inputs": [],
      "name": "pendingGovernor",
      "outputs": [
        {
          "internalType": "address",
          "name": "",
          "type": "address"
        }
      ],
      "stateMutability": "view",
      "type": "function"
    },
    {
      "inputs": [
        {
          "internalType": "contract IERC20",
          "name": "",
          "type": "address"
        }
      ],
      "name": "prices",
      "outputs": [
        {
          "internalType": "uint256",
          "name": "",
          "type": "uint256"
        }
      ],
      "stateMutability": "view",
      "type": "function"
    },
    {
      "inputs": [
        {
          "internalType": "contract IERC20",
          "name": "token",
          "type": "address"
        },
        {
          "internalType": "uint256",
          "name": "price",
          "type": "uint256"
        }
      ],
      "name": "setPrice",
      "outputs": [],
      "stateMutability": "nonpayable",
      "type": "function"
    },
    {
      "inputs": [
        {
          "internalType": "address",
          "name": "newGovernor",
          "type": "address"
        },
        {
          "internalType": "bool",
          "name": "force",
          "type": "bool"
        }
      ],
      "name": "transitGovernance",
      "outputs": [],
      "stateMutability": "nonpayable",
      "type": "function"
    },
    {
      "inputs": [],
      "name": "wrappedNativeCurrency",
      "outputs": [
        {
          "internalType": "contract IERC20",
          "name": "",
          "type": "address"
        }
      ],
      "stateMutability": "view",
      "type": "function"
    }
  ],
  "transactionHash": "0x69d4bfb165eb3473e6505560bcf829c28917e59c2f0679c9b042632e2e2f86b7",
  "args": [],
  "solcInputHash": "bc61a727c19226a6a876172a110a900c",
  "bytecode": "0x608060405234801561001057600080fd5b5061052b806100206000396000f3fe608060405234801561001057600080fd5b50600436106100a25760003560e01c8063c4d66de811610076578063ddc125261161005b578063ddc1252614610164578063e3056a3414610177578063e7f3028c1461018a57600080fd5b8063c4d66de814610131578063cfed246b1461014457600080fd5b8062e4768b146100a75780630c340a24146100bc5780631e1f1264146100f2578063238efcbc14610129575b600080fd5b6100ba6100b5366004610490565b61019d565b005b6000546100d5906201000090046001600160a01b031681565b6040516001600160a01b0390911681526020015b60405180910390f35b61011b6101003660046104bc565b6001600160a01b031660009081526003602052604090205490565b6040519081526020016100e9565b6100ba6101ea565b6100ba61013f3660046104bc565b61027f565b61011b6101523660046104bc565b60036020526000908152604090205481565b6100ba6101723660046104e0565b61031a565b6001546100d5906001600160a01b031681565b6002546100d5906001600160a01b031681565b6000546201000090046001600160a01b031633146101ce576040516305e7700560e51b815260040160405180910390fd5b6001600160a01b03909116600090815260036020526040902055565b6001546001600160a01b031633146102155760405163aec80d4b60e01b815260040160405180910390fd5b60015460008054620100006001600160a01b0393841681810275ffffffffffffffffffffffffffffffffffffffff00001990931692909217808455604051929491900416917f564590b81987d147246f63910a8e1ee4eb09c4d64cc75ee975a8ffedfcc2210e91a3565b60005460ff161580156102995750600054610100900460ff165b156102b757604051631ee1e30360e21b815260040160405180910390fd5b60005460ff161580156102d4576000805461ffff19166101011790555b6102dd33610411565b6002805473ffffffffffffffffffffffffffffffffffffffff19166001600160a01b0384161790558015610316576000805460ff191690555b5050565b6000546201000090046001600160a01b0316331461034b576040516305e7700560e51b815260040160405180910390fd5b6001600160a01b0382166103725760405163604b48b960e11b815260040160405180910390fd5b6001600160a01b03821630141561039c576040516306b3e95d60e21b815260040160405180910390fd5b6001805473ffffffffffffffffffffffffffffffffffffffff19166001600160a01b0384161790558061040c57600080546040516001600160a01b03808616936201000090930416917fc606c9af1451cadeb333f6ff7b24a5540974f4e800bac274fa7fff9edc305cb191a35050565b610316825b6000805475ffffffffffffffffffffffffffffffffffffffff00001916620100006001600160a01b0384811682810293909317808555604051939492900416917f564590b81987d147246f63910a8e1ee4eb09c4d64cc75ee975a8ffedfcc2210e9190a350565b6001600160a01b038116811461048d57600080fd5b50565b600080604083850312156104a357600080fd5b82356104ae81610478565b946020939093013593505050565b6000602082840312156104ce57600080fd5b81356104d981610478565b9392505050565b600080604083850312156104f357600080fd5b82356104fe81610478565b91506020830135801515811461051357600080fd5b80915050925092905056fea164736f6c6343000809000a",
  "devdoc": {
    "kind": "dev",
    "methods": {
      "getNormalizedPrice(address)": {
        "params": {
          "token": "The address of the token contract."
        },
        "returns": {
          "normalizedPrice": "Normalized price."
        }
      }
    },
    "version": 1
  },
  "userdoc": {
    "kind": "user",
    "methods": {
      "getNormalizedPrice(address)": {
        "notice": "Gets normalized to 18 decimals price for the `token` token."
      }
    },
    "version": 1
  },
  "storageLayout": {
    "storage": [
      {
        "astId": 5927,
        "contract": "contracts/test/DummyPriceOracle.sol:DummyPriceOracle",
        "label": "initializing",
        "offset": 0,
        "slot": "0",
        "type": "t_bool"
      },
      {
        "astId": 5929,
        "contract": "contracts/test/DummyPriceOracle.sol:DummyPriceOracle",
        "label": "initialized",
        "offset": 1,
        "slot": "0",
        "type": "t_bool"
      },
      {
        "astId": 4117,
        "contract": "contracts/test/DummyPriceOracle.sol:DummyPriceOracle",
        "label": "governor",
        "offset": 2,
        "slot": "0",
        "type": "t_address"
      },
      {
        "astId": 4119,
        "contract": "contracts/test/DummyPriceOracle.sol:DummyPriceOracle",
        "label": "pendingGovernor",
        "offset": 0,
        "slot": "1",
        "type": "t_address"
      },
      {
        "astId": 5985,
        "contract": "contracts/test/DummyPriceOracle.sol:DummyPriceOracle",
        "label": "wrappedNativeCurrency",
        "offset": 0,
        "slot": "2",
        "type": "t_contract(IERC20)4337"
      },
      {
        "astId": 5990,
        "contract": "contracts/test/DummyPriceOracle.sol:DummyPriceOracle",
        "label": "prices",
        "offset": 0,
        "slot": "3",
        "type": "t_mapping(t_contract(IERC20)4337,t_uint256)"
      }
    ],
    "types": {
      "t_address": {
        "encoding": "inplace",
        "label": "address",
        "numberOfBytes": "20"
      },
      "t_bool": {
        "encoding": "inplace",
        "label": "bool",
        "numberOfBytes": "1"
      },
      "t_contract(IERC20)4337": {
        "encoding": "inplace",
        "label": "contract IERC20",
        "numberOfBytes": "20"
      },
      "t_mapping(t_contract(IERC20)4337,t_uint256)": {
        "encoding": "mapping",
        "key": "t_contract(IERC20)4337",
        "label": "mapping(contract IERC20 => uint256)",
        "numberOfBytes": "32",
        "value": "t_uint256"
      },
      "t_uint256": {
        "encoding": "inplace",
        "label": "uint256",
        "numberOfBytes": "32"
      }
    }
  }
}