{
  "address": "0x784ec6EbB1bD791401205B1376704854146B7ace",
  "abi": [
    {
      "inputs": [
        {
          "internalType": "address",
          "name": "target",
          "type": "address"
        }
      ],
      "name": "CallToNonContract",
      "type": "error"
    },
    {
      "inputs": [],
      "name": "ContractAlreadyInitialized",
      "type": "error"
    },
    {
      "inputs": [
        {
          "internalType": "contract IERC20",
          "name": "token",
          "type": "address"
        }
      ],
      "name": "ExchangeFundDepositableTokenAlreadyListed",
      "type": "error"
    },
    {
      "inputs": [
        {
          "internalType": "contract IERC20",
          "name": "token",
          "type": "address"
        }
      ],
      "name": "ExchangeFundDepositableTokenNotListed",
      "type": "error"
    },
    {
      "inputs": [
        {
          "internalType": "contract IERC20",
          "name": "token",
          "type": "address"
        },
        {
          "internalType": "uint8",
          "name": "decimals",
          "type": "uint8"
        }
      ],
      "name": "ExchangeFundDepositableTokenTooLargeDecimals",
      "type": "error"
    },
    {
      "inputs": [
        {
          "internalType": "contract IERC20",
          "name": "token",
          "type": "address"
        }
      ],
      "name": "ExchangeFundDepositableTokenZeroDecimals",
      "type": "error"
    },
    {
      "inputs": [],
      "name": "ExchangeFundInsufficientDeposits",
      "type": "error"
    },
    {
      "inputs": [],
      "name": "ExchangeFundInsufficientLiquidity",
      "type": "error"
    },
    {
      "inputs": [
        {
          "internalType": "contract IERC20",
          "name": "token",
          "type": "address"
        }
      ],
      "name": "ExchangeFundNoNeedToService",
      "type": "error"
    },
    {
      "inputs": [
        {
          "internalType": "contract IERC20",
          "name": "token",
          "type": "address"
        }
      ],
      "name": "ExchangeFundSameTokenSwap",
      "type": "error"
    },
    {
      "inputs": [
        {
          "internalType": "contract IERC20",
          "name": "token",
          "type": "address"
        }
      ],
      "name": "ExchangeFundTokenNotAllowedToBeDeposited",
      "type": "error"
    },
    {
      "inputs": [
        {
          "internalType": "contract IERC20",
          "name": "token",
          "type": "address"
        }
      ],
      "name": "ExchangeFundTokenNotAllowedToBeSalvaged",
      "type": "error"
    },
    {
      "inputs": [
        {
          "internalType": "contract IERC20",
          "name": "token",
          "type": "address"
        }
      ],
      "name": "ExchangeFundTokenNotAllowedToBeSwapped",
      "type": "error"
    },
    {
      "inputs": [
        {
          "internalType": "contract IERC20",
          "name": "token",
          "type": "address"
        }
      ],
      "name": "ExchangeFundTokenNotAllowedToBeWithdrawn",
      "type": "error"
    },
    {
      "inputs": [
        {
          "internalType": "uint256",
          "name": "prod1",
          "type": "uint256"
        },
        {
          "internalType": "uint256",
          "name": "denominator",
          "type": "uint256"
        }
      ],
      "name": "FixedPointMathMulDivOverflow",
      "type": "error"
    },
    {
      "inputs": [],
      "name": "GovernedCantGoverItself",
      "type": "error"
    },
    {
      "inputs": [],
      "name": "GovernedGovernorZeroAddress",
      "type": "error"
    },
    {
      "inputs": [],
      "name": "GovernedOnlyGovernorAllowedToCall",
      "type": "error"
    },
    {
      "inputs": [],
      "name": "GovernedOnlyPendingGovernorAllowedToCall",
      "type": "error"
    },
    {
      "inputs": [],
      "name": "ReentrancyGuardReentrantCall",
      "type": "error"
    },
    {
      "inputs": [],
      "name": "SafeERC20NoReturnData",
      "type": "error"
    },
    {
      "anonymous": false,
      "inputs": [
        {
          "indexed": true,
          "internalType": "address",
          "name": "account",
          "type": "address"
        },
        {
          "indexed": true,
          "internalType": "contract IERC20",
          "name": "token",
          "type": "address"
        },
        {
          "indexed": false,
          "internalType": "uint256",
          "name": "amount",
          "type": "uint256"
        }
      ],
      "name": "Deposit",
      "type": "event"
    },
    {
      "anonymous": false,
      "inputs": [
        {
          "indexed": true,
          "internalType": "contract IERC20",
          "name": "token",
          "type": "address"
        },
        {
          "indexed": false,
          "internalType": "contract IUniswapV2Pair",
          "name": "pair",
          "type": "address"
        }
      ],
      "name": "DepositableTokenListed",
      "type": "event"
    },
    {
      "anonymous": false,
      "inputs": [
        {
          "indexed": true,
          "internalType": "contract IERC20",
          "name": "token",
          "type": "address"
        }
      ],
      "name": "DepositableTokenUnlisted",
      "type": "event"
    },
    {
      "anonymous": false,
      "inputs": [
        {
          "indexed": true,
          "internalType": "address",
          "name": "account",
          "type": "address"
        },
        {
          "indexed": true,
          "internalType": "contract IERC20",
          "name": "token",
          "type": "address"
        },
        {
          "indexed": false,
          "internalType": "uint256",
          "name": "amount",
          "type": "uint256"
        }
      ],
      "name": "Divest",
      "type": "event"
    },
    {
      "anonymous": false,
      "inputs": [
        {
          "indexed": true,
          "internalType": "address",
          "name": "governor",
          "type": "address"
        },
        {
          "indexed": true,
          "internalType": "address",
          "name": "newGovernor",
          "type": "address"
        }
      ],
      "name": "GovernanceTransited",
      "type": "event"
    },
    {
      "anonymous": false,
      "inputs": [
        {
          "indexed": true,
          "internalType": "address",
          "name": "account",
          "type": "address"
        },
        {
          "indexed": true,
          "internalType": "contract IERC20",
          "name": "token",
          "type": "address"
        },
        {
          "indexed": false,
          "internalType": "uint256",
          "name": "amount",
          "type": "uint256"
        }
      ],
      "name": "Invest",
      "type": "event"
    },
    {
      "anonymous": false,
      "inputs": [
        {
          "indexed": true,
          "internalType": "address",
          "name": "governor",
          "type": "address"
        },
        {
          "indexed": true,
          "internalType": "address",
          "name": "newGovernor",
          "type": "address"
        }
      ],
      "name": "PendingGovernanceTransition",
      "type": "event"
    },
    {
      "anonymous": false,
      "inputs": [
        {
          "indexed": true,
          "internalType": "address",
          "name": "account",
          "type": "address"
        },
        {
          "indexed": true,
          "internalType": "contract IERC20",
          "name": "token",
          "type": "address"
        }
      ],
      "name": "Service",
      "type": "event"
    },
    {
      "anonymous": false,
      "inputs": [
        {
          "indexed": false,
          "internalType": "uint256",
          "name": "slippageTolerance",
          "type": "uint256"
        },
        {
          "indexed": false,
          "internalType": "uint256",
          "name": "newSlippageTolerance",
          "type": "uint256"
        }
      ],
      "name": "SlippageToleranceUpdated",
      "type": "event"
    },
    {
      "anonymous": false,
      "inputs": [
        {
          "indexed": true,
          "internalType": "address",
          "name": "account",
          "type": "address"
        },
        {
          "indexed": true,
          "internalType": "contract IERC20",
          "name": "tokenA",
          "type": "address"
        },
        {
          "indexed": true,
          "internalType": "contract IERC20",
          "name": "tokenB",
          "type": "address"
        },
        {
          "indexed": false,
          "internalType": "uint256",
          "name": "amountA",
          "type": "uint256"
        },
        {
          "indexed": false,
          "internalType": "uint256",
          "name": "amountB",
          "type": "uint256"
        }
      ],
      "name": "Swap",
      "type": "event"
    },
    {
      "anonymous": false,
      "inputs": [
        {
          "indexed": false,
          "internalType": "uint256",
          "name": "swapDeadline",
          "type": "uint256"
        },
        {
          "indexed": false,
          "internalType": "uint256",
          "name": "newSwapDeadline",
          "type": "uint256"
        }
      ],
      "name": "SwapDeadlineUpdated",
      "type": "event"
    },
    {
      "anonymous": false,
      "inputs": [
        {
          "indexed": true,
          "internalType": "address",
          "name": "account",
          "type": "address"
        },
        {
          "indexed": true,
          "internalType": "contract IERC20",
          "name": "token",
          "type": "address"
        },
        {
          "indexed": false,
          "internalType": "uint256",
          "name": "amount",
          "type": "uint256"
        }
      ],
      "name": "Withdrawal",
      "type": "event"
    },
    {
      "inputs": [],
      "name": "acceptGovernance",
      "outputs": [],
      "stateMutability": "nonpayable",
      "type": "function"
    },
    {
      "inputs": [],
      "name": "core",
      "outputs": [
        {
          "internalType": "contract ICore",
          "name": "",
          "type": "address"
        }
      ],
      "stateMutability": "view",
      "type": "function"
    },
    {
      "inputs": [
        {
          "internalType": "contract IERC20",
          "name": "token",
          "type": "address"
        },
        {
          "internalType": "uint256",
          "name": "amount",
          "type": "uint256"
        }
      ],
      "name": "deposit",
      "outputs": [],
      "stateMutability": "nonpayable",
      "type": "function"
    },
    {
      "inputs": [
        {
          "internalType": "contract IERC20",
          "name": "",
          "type": "address"
        }
      ],
      "name": "depositableTokens",
      "outputs": [
        {
          "internalType": "bool",
          "name": "",
          "type": "bool"
        }
      ],
      "stateMutability": "view",
      "type": "function"
    },
    {
      "inputs": [
        {
          "internalType": "address",
          "name": "",
          "type": "address"
        },
        {
          "internalType": "contract IERC20",
          "name": "",
          "type": "address"
        }
      ],
      "name": "deposits",
      "outputs": [
        {
          "internalType": "uint256",
          "name": "",
          "type": "uint256"
        }
      ],
      "stateMutability": "view",
      "type": "function"
    },
    {
      "inputs": [
        {
          "internalType": "contract IERC20",
          "name": "token",
          "type": "address"
        },
        {
          "internalType": "uint256",
          "name": "amount",
          "type": "uint256"
        }
      ],
      "name": "divest",
      "outputs": [],
      "stateMutability": "nonpayable",
      "type": "function"
    },
    {
      "inputs": [],
      "name": "getDepositableTokens",
      "outputs": [
        {
          "internalType": "contract IERC20[]",
          "name": "tokens",
          "type": "address[]"
        }
      ],
      "stateMutability": "view",
      "type": "function"
    },
    {
      "inputs": [],
      "name": "governor",
      "outputs": [
        {
          "internalType": "address",
          "name": "",
          "type": "address"
        }
      ],
      "stateMutability": "view",
      "type": "function"
    },
    {
      "inputs": [
        {
          "internalType": "contract IERC20",
          "name": "_wrappedNativeCurrency",
          "type": "address"
        },
        {
          "internalType": "contract ICore",
          "name": "_core",
          "type": "address"
        },
        {
          "internalType": "contract IERC20",
          "name": "_stablecoin",
          "type": "address"
        },
        {
          "internalType": "contract IPriceOracle",
          "name": "_priceOracle",
          "type": "address"
        },
        {
          "internalType": "contract IUniswapV2Router",
          "name": "_uniswapV2Router",
          "type": "address"
        },
        {
          "internalType": "address",
          "name": "_operator",
          "type": "address"
        }
      ],
      "name": "initialize",
      "outputs": [],
      "stateMutability": "nonpayable",
      "type": "function"
    },
    {
      "inputs": [
        {
          "internalType": "contract IERC20",
          "name": "token",
          "type": "address"
        },
        {
          "internalType": "uint256",
          "name": "amount",
          "type": "uint256"
        }
      ],
      "name": "invest",
      "outputs": [],
      "stateMutability": "nonpayable",
      "type": "function"
    },
    {
      "inputs": [
        {
          "internalType": "address",
          "name": "",
          "type": "address"
        },
        {
          "internalType": "contract IERC20",
          "name": "",
          "type": "address"
        }
      ],
      "name": "liquidity",
      "outputs": [
        {
          "internalType": "uint256",
          "name": "",
          "type": "uint256"
        }
      ],
      "stateMutability": "view",
      "type": "function"
    },
    {
      "inputs": [
        {
          "internalType": "contract IERC20",
          "name": "token",
          "type": "address"
        }
      ],
      "name": "listDepositableToken",
      "outputs": [],
      "stateMutability": "nonpayable",
      "type": "function"
    },
    {
      "inputs": [],
      "name": "operator",
      "outputs": [
        {
          "internalType": "address",
          "name": "",
          "type": "address"
        }
      ],
      "stateMutability": "view",
      "type": "function"
    },
    {
      "inputs": [],
      "name": "pendingGovernor",
      "outputs": [
        {
          "internalType": "address",
          "name": "",
          "type": "address"
        }
      ],
      "stateMutability": "view",
      "type": "function"
    },
    {
      "inputs": [],
      "name": "priceOracle",
      "outputs": [
        {
          "internalType": "contract IPriceOracle",
          "name": "",
          "type": "address"
        }
      ],
      "stateMutability": "view",
      "type": "function"
    },
    {
      "inputs": [
        {
          "internalType": "contract IERC20",
          "name": "token",
          "type": "address"
        }
      ],
      "name": "salvage",
      "outputs": [],
      "stateMutability": "nonpayable",
      "type": "function"
    },
    {
      "inputs": [
        {
          "internalType": "contract IERC20",
          "name": "token",
          "type": "address"
        }
      ],
      "name": "service",
      "outputs": [],
      "stateMutability": "nonpayable",
      "type": "function"
    },
    {
      "inputs": [
        {
          "internalType": "uint256",
          "name": "newSlippageTolerance",
          "type": "uint256"
        }
      ],
      "name": "setSlippageTolerance",
      "outputs": [],
      "stateMutability": "nonpayable",
      "type": "function"
    },
    {
      "inputs": [
        {
          "internalType": "uint256",
          "name": "newSwapDeadline",
          "type": "uint256"
        }
      ],
      "name": "setSwapDeadline",
      "outputs": [],
      "stateMutability": "nonpayable",
      "type": "function"
    },
    {
      "inputs": [],
      "name": "slippageTolerance",
      "outputs": [
        {
          "internalType": "uint256",
          "name": "",
          "type": "uint256"
        }
      ],
      "stateMutability": "view",
      "type": "function"
    },
    {
      "inputs": [],
      "name": "stablecoin",
      "outputs": [
        {
          "internalType": "contract IERC20",
          "name": "",
          "type": "address"
        }
      ],
      "stateMutability": "view",
      "type": "function"
    },
    {
      "inputs": [
        {
          "internalType": "contract IERC20",
          "name": "tokenA",
          "type": "address"
        },
        {
          "internalType": "contract IERC20",
          "name": "tokenB",
          "type": "address"
        },
        {
          "internalType": "uint256",
          "name": "amount",
          "type": "uint256"
        },
        {
          "internalType": "bool",
          "name": "useWrappedNativeCurrencyAsIntermediateToken",
          "type": "bool"
        }
      ],
      "name": "swap",
      "outputs": [],
      "stateMutability": "nonpayable",
      "type": "function"
    },
    {
      "inputs": [],
      "name": "swapDeadline",
      "outputs": [
        {
          "internalType": "uint256",
          "name": "",
          "type": "uint256"
        }
      ],
      "stateMutability": "view",
      "type": "function"
    },
    {
      "inputs": [
        {
          "internalType": "address",
          "name": "newGovernor",
          "type": "address"
        },
        {
          "internalType": "bool",
          "name": "force",
          "type": "bool"
        }
      ],
      "name": "transitGovernance",
      "outputs": [],
      "stateMutability": "nonpayable",
      "type": "function"
    },
    {
      "inputs": [],
      "name": "uniswapV2Router",
      "outputs": [
        {
          "internalType": "contract IUniswapV2Router",
          "name": "",
          "type": "address"
        }
      ],
      "stateMutability": "view",
      "type": "function"
    },
    {
      "inputs": [
        {
          "internalType": "contract IERC20",
          "name": "token",
          "type": "address"
        }
      ],
      "name": "unlistDepositableToken",
      "outputs": [],
      "stateMutability": "nonpayable",
      "type": "function"
    },
    {
      "inputs": [
        {
          "internalType": "contract IERC20",
          "name": "token",
          "type": "address"
        },
        {
          "internalType": "uint256",
          "name": "amount",
          "type": "uint256"
        }
      ],
      "name": "withdraw",
      "outputs": [],
      "stateMutability": "nonpayable",
      "type": "function"
    },
    {
      "inputs": [],
      "name": "wrappedNativeCurrency",
      "outputs": [
        {
          "internalType": "contract IERC20",
          "name": "",
          "type": "address"
        }
      ],
      "stateMutability": "view",
      "type": "function"
    }
  ],
  "transactionHash": "0x6dd1618ef9b9314653db033cde62da7b694dc395d3508fba6ec827bae424dd4e",
  "args": [],
  "solcInputHash": "e55ff2d5620125d078bf2822362bfb18",
  "bytecode": "0x608060405234801561001057600080fd5b50600160025561396e806100256000396000f3fe608060405234801561001057600080fd5b50600436106101c45760003560e01c806393ad9f17116100f9578063d03153aa11610097578063e7f3028c11610071578063e7f3028c146103f7578063e9cbd8221461040a578063f2f4eb261461041d578063f3fef3a31461043057600080fd5b8063d03153aa146103c8578063ddc12526146103d1578063e3056a34146103e457600080fd5b8063b9b8c246116100d3578063b9b8c2461461035c578063bb5043171461036f578063c14edd7914610382578063cc2a9a5b146103b557600080fd5b806393ad9f1714610315578063942dbff414610328578063b22172811461033157600080fd5b80634bd84701116101665780637e83f7d7116101405780637e83f7d7146102a357806385881e2a146102b6578063863a03e0146102c95780638f601f66146102dc57600080fd5b80634bd8470114610268578063570ca7351461027b5780635e6fdf431461028e57600080fd5b8063238efcbc116101a2578063238efcbc146102275780632630c12f1461022f57806347e7ef241461024257806348be77191461025557600080fd5b80630c340a24146101c9578063117da1ee146101ff5780631694505e14610214575b600080fd5b6000546101e2906201000090046001600160a01b031681565b6040516001600160a01b0390911681526020015b60405180910390f35b61021261020d3660046131f8565b610443565b005b6007546101e2906001600160a01b031681565b6102126104b5565b6006546101e2906001600160a01b031681565b610212610250366004613226565b61054a565b610212610263366004613252565b61065c565b610212610276366004613252565b610944565b6008546101e2906001600160a01b031681565b610296610d13565b6040516101f691906132b3565b6102126102b13660046132d4565b610ddc565b6102126102c4366004613252565b611345565b6102126102d7366004613252565b6117b7565b6103076102ea366004613327565b600b60209081526000928352604080842090915290825290205481565b6040519081526020016101f6565b6102126103233660046131f8565b6118c9565b610307600a5481565b61030761033f366004613327565b600c60209081526000928352604080842090915290825290205481565b61021261036a366004613226565b61193b565b61021261037d366004613226565b611bdb565b6103a5610390366004613252565b600d6020526000908152604090205460ff1681565b60405190151581526020016101f6565b6102126103c3366004613360565b611df2565b61030760095481565b6102126103df3660046133e2565b611f5d565b6001546101e2906001600160a01b031681565b6003546101e2906001600160a01b031681565b6005546101e2906001600160a01b031681565b6004546101e2906001600160a01b031681565b61021261043e366004613226565b61204b565b6000546201000090046001600160a01b03163314610474576040516305e7700560e51b815260040160405180910390fd5b60095460408051918252602082018390527fddd31550b26e9ef8ade466958be83ff8a014d9b4f36d546b61a6847a45306575910160405180910390a1600955565b6001546001600160a01b031633146104e05760405163aec80d4b60e01b815260040160405180910390fd5b60015460008054620100006001600160a01b0393841681810275ffffffffffffffffffffffffffffffffffffffff00001990931692909217808455604051929491900416917f564590b81987d147246f63910a8e1ee4eb09c4d64cc75ee975a8ffedfcc2210e91a3565b60028054141561056d57604051633ee5aeb560e01b815260040160405180910390fd5b600280558161057d600e82612192565b6105aa5760405163497e1e0360e01b81526001600160a01b03821660048201526024015b60405180910390fd5b6105bf6001600160a01b0384163330856121b6565b60006105d46001600160a01b0385168461223c565b336000908152600b602090815260408083206001600160a01b038916845290915281208054929350839290919061060c908490613426565b90915550506040518181526001600160a01b0385169033907f5548c837ab068cf56a2c2479df0882a4922fd203edb7517321831d95078c5f629060200160405180910390a3505060016002555050565b6000546201000090046001600160a01b0316331461068d576040516305e7700560e51b815260040160405180910390fd5b610698600e82612192565b6106c05760405163635c3e1f60e11b81526001600160a01b03821660048201526024016105a1565b6106cb600e826122ea565b156109415760075460405163095ea7b360e01b81526001600160a01b039182166004820152600060248201529082169063095ea7b390604401602060405180830381600087803b15801561071e57600080fd5b505af1158015610732573d6000803e3d6000fd5b505050506040513d601f19601f82011682018060405250810190610756919061343e565b506007546040805163c45a015560e01b815290516000926001600160a01b03169163c45a0155916004808301926020929190829003018186803b15801561079c57600080fd5b505afa1580156107b0573d6000803e3d6000fd5b505050506040513d601f19601f820116820180604052508101906107d4919061345b565b60055460405163e6a4390560e01b81526001600160a01b03918216600482015284821660248201529192506000919083169063e6a439059060440160206040518083038186803b15801561082757600080fd5b505afa15801561083b573d6000803e3d6000fd5b505050506040513d601f19601f8201168201806040525081019061085f919061345b565b90506001600160a01b038116156108f85760075460405163095ea7b360e01b81526001600160a01b039182166004820152600060248201529082169063095ea7b390604401602060405180830381600087803b1580156108be57600080fd5b505af11580156108d2573d6000803e3d6000fd5b505050506040513d601f19601f820116820180604052508101906108f6919061343e565b505b6001600160a01b0383166000818152600d6020526040808220805460ff19169055517fbd6c0ac05a911841e71daa23bb8022779f3957fad4fa3546eb22a1782c747c839190a250505b50565b60008061095083612423565b90925090506109686001600160a01b0384168261223c565b600654604051630787c49960e21b81526001600160a01b03868116600483015292935060009290911690631e1f12649060240160206040518083038186803b1580156109b357600080fd5b505afa1580156109c7573d6000803e3d6000fd5b505050506040513d601f19601f820116820180604052508101906109eb9190613478565b905060006109f984846125f1565b90506000670de0b6b3a7640000610a1083856125f1565b610a1a9190613491565b9050600460009054906101000a90046001600160a01b03166001600160a01b031663453844b66040518163ffffffff1660e01b815260040160206040518083038186803b158015610a6a57600080fd5b505afa158015610a7e573d6000803e3d6000fd5b505050506040513d601f19601f82011682018060405250810190610aa29190613478565b610aab8261260d565b1015610ad5576040516358cbbf3f60e11b81526001600160a01b03871660048201526024016105a1565b6040805160028082526060820183526000928392919060208301908036833701905050905084841115610b955786610b1f610b1a87610b14848b612629565b90612629565b6126f9565b610b299190613491565b91508781600081518110610b3f57610b3f6134ff565b6001600160a01b039283166020918202929092010152600554825191169082906001908110610b7057610b706134ff565b60200260200101906001600160a01b031690816001600160a01b031681525050610c26565b85610ba4610b1a898389612724565b610bae9190613491565b60055482519193506001600160a01b0316908290600090610bd157610bd16134ff565b60200260200101906001600160a01b031690816001600160a01b0316815250508781600181518110610c0557610c056134ff565b60200260200101906001600160a01b031690816001600160a01b0316815250505b6007546001600160a01b0316638803dbee610c408461260d565b6000198430600a5442610c539190613426565b6040518663ffffffff1660e01b8152600401610c73959493929190613515565b600060405180830381600087803b158015610c8d57600080fd5b505af1158015610ca1573d6000803e3d6000fd5b505050506040513d6000823e601f3d908101601f19168201604052610cc99190810190613551565b50610cd3886127df565b6040516001600160a01b0389169033907f6d9de21666ebb28b54314f1615b914f9807eaa05e80a86c76d97ec1c376d7e0390600090a35050505050505050565b600e546060908067ffffffffffffffff811115610d3257610d326134e9565b604051908082528060200260200182016040528015610d5b578160200160208202803683370190505b50915060005b81811015610dd757600e805482908110610d7d57610d7d6134ff565b9060005260206000200160009054906101000a90046001600160a01b0316838281518110610dad57610dad6134ff565b6001600160a01b039092166020928302919091019091015280610dcf8161360f565b915050610d61565b505090565b600280541415610dff57604051633ee5aeb560e01b815260040160405180910390fd5b6002805560055484906001600160a01b03808316911614801590610e2b5750610e29600e82612192565b155b15610e545760405163569695af60e01b81526001600160a01b03821660048201526024016105a1565b60055484906001600160a01b03808316911614801590610e7c5750610e7a600e82612192565b155b15610ea55760405163569695af60e01b81526001600160a01b03821660048201526024016105a1565b6000610eba6001600160a01b0388168661223c565b336000908152600b602090815260408083206001600160a01b038c168452909152902054909150811115610f015760405163c0993c3760e01b815260040160405180910390fd5b856001600160a01b0316876001600160a01b03161415610f3f57604051630e9f73ab60e21b81526001600160a01b03881660048201526024016105a1565b600084610f4d576002610f50565b60035b60ff1667ffffffffffffffff811115610f6b57610f6b6134e9565b604051908082528060200260200182016040528015610f94578160200160208202803683370190505b5090508781600081518110610fab57610fab6134ff565b60200260200101906001600160a01b031690816001600160a01b03168152505084610fd65786610fe3565b6003546001600160a01b03165b81600181518110610ff657610ff66134ff565b60200260200101906001600160a01b031690816001600160a01b0316815250508415611051578681600281518110611030576110306134ff565b60200260200101906001600160a01b031690816001600160a01b0316815250505b60075460405163d06ca61f60e01b81526000916001600160a01b03169063d06ca61f90611084908a90869060040161362a565b60006040518083038186803b15801561109c57600080fd5b505afa1580156110b0573d6000803e3d6000fd5b505050506040513d6000823e601f3d908101601f191682016040526110d89190810190613551565b9050600061111e82600184516110ee919061364b565b815181106110fe576110fe6134ff565b60200260200101518a6001600160a01b031661223c90919063ffffffff16565b6007546009549192506001600160a01b0316906338ed1739908a9061116a9061115a9061115390670de0b6b3a764000061364b565b8690612629565b6001600160a01b038e1690612a6d565b8630600a544261117a9190613426565b6040518663ffffffff1660e01b815260040161119a959493929190613515565b600060405180830381600087803b1580156111b457600080fd5b505af11580156111c8573d6000803e3d6000fd5b505050506040513d6000823e601f3d908101601f191682016040526111f09190810190613551565b9150600061122a8360008151811061120a5761120a6134ff565b60200260200101518c6001600160a01b031661223c90919063ffffffff16565b905060006112508460018651611240919061364b565b8151811061120a5761120a6134ff565b905081600b6000336001600160a01b03166001600160a01b0316815260200190815260200160002060008e6001600160a01b03166001600160a01b0316815260200190815260200160002060008282546112aa919061364b565b9091555050336000908152600b602090815260408083206001600160a01b038f168452909152812080548392906112e2908490613426565b909155505060408051838152602081018390526001600160a01b03808e1692908f169133917fcd3829a3813dc3cdd188fd3d01dcf3268c16be2fdd2dd21d0665418816e46062910160405180910390a45050600160025550505050505050505050565b6000546201000090046001600160a01b03163314611376576040516305e7700560e51b815260040160405180910390fd5b611381600e82612192565b156113aa576040516382cce5f360e01b81526001600160a01b03821660048201526024016105a1565b6000816001600160a01b031663313ce5676040518163ffffffff1660e01b815260040160206040518083038186803b1580156113e557600080fd5b505afa1580156113f9573d6000803e3d6000fd5b505050506040513d601f19601f8201168201806040525081019061141d9190613662565b905060ff811661144b576040516316d13e4960e21b81526001600160a01b03831660048201526024016105a1565b601260ff82161115611484576040516321b3807960e11b81526001600160a01b038316600482015260ff821660248201526044016105a1565b61148f600e83612b0b565b156117b35760075460405163095ea7b360e01b81526001600160a01b03918216600482015260001960248201529083169063095ea7b390604401602060405180830381600087803b1580156114e357600080fd5b505af11580156114f7573d6000803e3d6000fd5b505050506040513d601f19601f8201168201806040525081019061151b919061343e565b506007546040805163c45a015560e01b815290516000926001600160a01b03169163c45a0155916004808301926020929190829003018186803b15801561156157600080fd5b505afa158015611575573d6000803e3d6000fd5b505050506040513d601f19601f82011682018060405250810190611599919061345b565b60055460405163e6a4390560e01b81526001600160a01b03918216600482015285821660248201529192506000919083169063e6a439059060440160206040518083038186803b1580156115ec57600080fd5b505afa158015611600573d6000803e3d6000fd5b505050506040513d601f19601f82011682018060405250810190611624919061345b565b90506001600160a01b0381166116be576005546040516364e329cb60e11b81526001600160a01b03918216600482015285821660248201529083169063c9c6539690604401602060405180830381600087803b15801561168357600080fd5b505af1158015611697573d6000803e3d6000fd5b505050506040513d601f19601f820116820180604052508101906116bb919061345b565b90505b60075460405163095ea7b360e01b81526001600160a01b03918216600482015260001960248201529082169063095ea7b390604401602060405180830381600087803b15801561170d57600080fd5b505af1158015611721573d6000803e3d6000fd5b505050506040513d601f19601f82011682018060405250810190611745919061343e565b506001600160a01b0384166000818152600d602052604090819020805460ff19166001179055517f55011b433ad455f23aa134ee4f1fcd2190a063cb514134436b32358ead356ada906117a89084906001600160a01b0391909116815260200190565b60405180910390a250505b5050565b6000546201000090046001600160a01b031633146117e8576040516305e7700560e51b815260040160405180910390fd5b60055481906001600160a01b038083169116148061180c575061180c600e82612192565b1561183557604051631af19dff60e01b81526001600160a01b03831660048201526024016105a1565b6008546040516370a0823160e01b81523060048201526117b3916001600160a01b0390811691908516906370a082319060240160206040518083038186803b15801561188057600080fd5b505afa158015611894573d6000803e3d6000fd5b505050506040513d601f19601f820116820180604052508101906118b89190613478565b6001600160a01b0385169190612b6c565b6000546201000090046001600160a01b031633146118fa576040516305e7700560e51b815260040160405180910390fd5b600a5460408051918252602082018390527f801306575ef2eb7d5ec12da38bf892a7872d76caf0beb1cec0779abeb71ff3a9910160405180910390a1600a55565b60028054141561195e57604051633ee5aeb560e01b815260040160405180910390fd5b6002805560006119776001600160a01b0384168361223c565b336000908152600b602090815260408083206001600160a01b03881684529091529020549091508111156119be5760405163c0993c3760e01b815260040160405180910390fd5b60006119ca8484612b9c565b60075460055460095492935060009283926001600160a01b039081169263e8e3370092911690899087908a90611a1390611a0c90670de0b6b3a764000061364b565b8a90612629565b611a46611a36600954670de0b6b3a7640000611a2f919061364b565b8d90612629565b6001600160a01b038f1690612a6d565b30600a5442611a559190613426565b60405160e08a901b6001600160e01b03191681526001600160a01b039889166004820152968816602488015260448701959095526064860193909352608485019190915260a484015290921660c482015260e481019190915261010401606060405180830381600087803b158015611acc57600080fd5b505af1158015611ae0573d6000803e3d6000fd5b505050506040513d601f19601f82011682018060405250810190611b049190613685565b9093509150611b1e90506001600160a01b0387168361223c565b336000908152600b602090815260408083206001600160a01b038b16845290915281208054909190611b5190849061364b565b9091555050336000908152600c602090815260408083206001600160a01b038a16845290915281208054839290611b89908490613426565b90915550506040518481526001600160a01b0387169033907f0657e0c8fff72ae811b8683a3411c30ebb5098754ec5e814687711e97cbd6db29060200160405180910390a35050600160025550505050565b600280541415611bfe57604051633ee5aeb560e01b815260040160405180910390fd5b60028055336000908152600c602090815260408083206001600160a01b0386168452909152902054811115611c465760405163dc93df4560e01b815260040160405180910390fd5b600754600554600a546000926001600160a01b039081169263baa2abde9291169086908690869081903090611c7b9042613426565b60405160e089901b6001600160e01b03191681526001600160a01b039788166004820152958716602487015260448601949094526064850192909252608484015290921660a482015260c481019190915260e4016040805180830381600087803b158015611ce857600080fd5b505af1158015611cfc573d6000803e3d6000fd5b505050506040513d601f19601f82011682018060405250810190611d2091906136b3565b9150611d3790506001600160a01b0384168261223c565b336000908152600b602090815260408083206001600160a01b038816845290915281208054909190611d6a908490613426565b9091555050336000908152600c602090815260408083206001600160a01b038716845290915281208054849290611da290849061364b565b90915550506040518281526001600160a01b0384169033907f8c6e1d3aa13e82e61da9350057ab35ded0bd548b8905b82dfa012876992b8ef5906020015b60405180910390a35050600160025550565b60005460ff16158015611e0c5750600054610100900460ff165b15611e2a57604051631ee1e30360e21b815260040160405180910390fd5b60005460ff16158015611e47576000805461ffff19166101011790555b611e5033612f2a565b600380546001600160a01b03199081166001600160a01b038a81169190911790925560048054821689841617815560058054831689851690811790915560068054841689861617905560078054841688861690811790915560088054909416948716949094179092556611c37937e080006009556104b0600a5560405163095ea7b360e01b81529081019290925260001960248301529063095ea7b390604401602060405180830381600087803b158015611f0a57600080fd5b505af1158015611f1e573d6000803e3d6000fd5b505050506040513d601f19601f82011682018060405250810190611f42919061343e565b508015611f54576000805460ff191690555b50505050505050565b6000546201000090046001600160a01b03163314611f8e576040516305e7700560e51b815260040160405180910390fd5b6001600160a01b038216611fb55760405163604b48b960e11b815260040160405180910390fd5b6001600160a01b038216301415611fdf576040516306b3e95d60e21b815260040160405180910390fd5b600180546001600160a01b0319166001600160a01b0384161790558061204257600080546040516001600160a01b03808616936201000090930416917fc606c9af1451cadeb333f6ff7b24a5540974f4e800bac274fa7fff9edc305cb191a35050565b6117b382612f2a565b60028054141561206e57604051633ee5aeb560e01b815260040160405180910390fd5b600280556005546001600160a01b03838116911614156120ac5760405163f099c8a560e01b81526001600160a01b03831660048201526024016105a1565b60006120c16001600160a01b0384168361223c565b336000908152600b602090815260408083206001600160a01b03881684529091529020549091508111156121085760405163c0993c3760e01b815260040160405180910390fd5b336000908152600b602090815260408083206001600160a01b03871684529091528120805483929061213b90849061364b565b9091555061215590506001600160a01b0384163384612b6c565b6040518181526001600160a01b0384169033907f2717ead6b9200dd235aad468c9809ea400fe33ac69b5bfaa6d3e90fc922b639890602001611de0565b6001600160a01b038116600090815260018301602052604090205415155b92915050565b6040516001600160a01b03808516602483015283166044820152606481018290526122369085906323b872dd60e01b906084015b60408051601f198184030181529190526020810180517bffffffffffffffffffffffffffffffffffffffffffffffffffffffff166001600160e01b031990931692909217909152612f91565b50505050565b600080836001600160a01b031663313ce5676040518163ffffffff1660e01b815260040160206040518083038186803b15801561227857600080fd5b505afa15801561228c573d6000803e3d6000fd5b505050506040513d601f19601f820116820180604052508101906122b09190613662565b6122bb9060126136d7565b6122c690600a6137de565b9050806001146122e2576122da81846137ed565b9150506121b0565b509092915050565b6001600160a01b0381166000908152600183016020526040812054806123145760009150506121b0565b600061232160018361364b565b90506000600161232f875490565b612339919061364b565b90508082146123c5576000866000018281548110612359576123596134ff565b60009182526020909120015487546001600160a01b0390911691508190889085908110612388576123886134ff565b600091825260208083209190910180546001600160a01b0319166001600160a01b0394851617905592909116815260018801909152604090208390555b85548690806123d6576123d661380c565b60008281526020808220830160001990810180546001600160a01b03191690559092019092556001600160a01b038716825260018881019091526040822091909155935050505092915050565b6000806000600760009054906101000a90046001600160a01b03166001600160a01b031663c45a01556040518163ffffffff1660e01b815260040160206040518083038186803b15801561247657600080fd5b505afa15801561248a573d6000803e3d6000fd5b505050506040513d601f19601f820116820180604052508101906124ae919061345b565b60055460405163e6a4390560e01b81526001600160a01b039182166004820152868216602482015291169063e6a439059060440160206040518083038186803b1580156124fa57600080fd5b505afa15801561250e573d6000803e3d6000fd5b505050506040513d601f19601f82011682018060405250810190612532919061345b565b9050600080826001600160a01b0316630902f1ac6040518163ffffffff1660e01b815260040160606040518083038186803b15801561257057600080fd5b505afa158015612584573d6000803e3d6000fd5b505050506040513d601f19601f820116820180604052508101906125a89190613840565b506005546dffffffffffffffffffffffffffff9283169450911691506001600160a01b03808816911610156125e2578194508093506125e9565b8193508094505b505050915091565b600061260683670de0b6b3a764000084612724565b9392505050565b6000808212156126255761262082613890565b6121b0565b5090565b60008080600019848609848602925082811083820303915050670de0b6b3a7640000811061267b5760405163072fa3c960e31b815260048101829052670de0b6b3a764000060248201526044016105a1565b600080670de0b6b3a76400008688099150506706f05b59d3b1ffff8111826126b55780670de0b6b3a76400008504019450505050506121b0565b620400008285030493909111909103600160ee1b02919091177faccb18165bd6fe31ae1cf318dc5b51eee0e1ba569b88cd74c1773b91fac106690201905092915050565b60008161270857506000919050565b6127118261301b565b6121b090633b9aca006137ed565b919050565b600080806000198587098587029250828110838203039150508381106127675760405163072fa3c960e31b815260048101829052602481018590526044016105a1565b8061277757508290049050612606565b600084868809600260036001881981018916988990049182028318808302840302808302840302808302840302808302840302808302840302918202909203026000889003889004909101858311909403939093029303949094049190911702949350505050565b6000806127eb83612423565b90925090506128036001600160a01b0384168261223c565b905081600460009054906101000a90046001600160a01b03166001600160a01b031663b56cf0116040518163ffffffff1660e01b815260040160206040518083038186803b15801561285457600080fd5b505afa158015612868573d6000803e3d6000fd5b505050506040513d601f19601f8201168201806040525081019061288c9190613478565b1115612a6857600480546040805163b56cf01160e01b8152905160009386936001600160a01b03169263b56cf0119281830192602092829003018186803b1580156128d657600080fd5b505afa1580156128ea573d6000803e3d6000fd5b505050506040513d601f19601f8201168201806040525081019061290e9190613478565b612918919061364b565b9050600061294361293361292c86866125f1565b84906125f1565b6001600160a01b03871690612a6d565b6007546005546009549293506001600160a01b039182169263e8e3370092909116908890869086906129889061298190670de0b6b3a764000061364b565b8990612629565b6129a461115a600954670de0b6b3a7640000611a0c919061364b565b30600a54426129b39190613426565b60405160e08a901b6001600160e01b03191681526001600160a01b039889166004820152968816602488015260448701959095526064860193909352608485019190915260a484015290921660c482015260e481019190915261010401606060405180830381600087803b158015612a2a57600080fd5b505af1158015612a3e573d6000803e3d6000fd5b505050506040513d601f19601f82011682018060405250810190612a629190613685565b50505050505b505050565b600080836001600160a01b031663313ce5676040518163ffffffff1660e01b815260040160206040518083038186803b158015612aa957600080fd5b505afa158015612abd573d6000803e3d6000fd5b505050506040513d601f19601f82011682018060405250810190612ae19190613662565b612aec9060126136d7565b612af790600a6137de565b9050806001146122e2576122da81846138ad565b6000612b178383612192565b15612b24575060006121b0565b508154600180820184556000848152602080822090930180546001600160a01b0319166001600160a01b03959095169485179055845493815293810190915260409092205590565b6040516001600160a01b038316602482015260448101829052612a6890849063a9059cbb60e01b906064016121ea565b600080600760009054906101000a90046001600160a01b03166001600160a01b031663c45a01556040518163ffffffff1660e01b815260040160206040518083038186803b158015612bed57600080fd5b505afa158015612c01573d6000803e3d6000fd5b505050506040513d601f19601f82011682018060405250810190612c25919061345b565b60055460405163e6a4390560e01b81526001600160a01b039182166004820152868216602482015291169063e6a439059060440160206040518083038186803b158015612c7157600080fd5b505afa158015612c85573d6000803e3d6000fd5b505050506040513d601f19601f82011682018060405250810190612ca9919061345b565b9050600080826001600160a01b0316630902f1ac6040518163ffffffff1660e01b815260040160606040518083038186803b158015612ce757600080fd5b505afa158015612cfb573d6000803e3d6000fd5b505050506040513d601f19601f82011682018060405250810190612d1f9190613840565b506dffffffffffffffffffffffffffff1691506dffffffffffffffffffffffffffff1691508160001480612d51575080155b15612df257600654604051630787c49960e21b81526001600160a01b038881166004830152612de8921690631e1f12649060240160206040518083038186803b158015612d9d57600080fd5b505afa158015612db1573d6000803e3d6000fd5b505050506040513d601f19601f82011682018060405250810190612dd59190613478565b610b146001600160a01b0389168861223c565b93505050506121b0565b6005546001600160a01b03808816911610612e9657600754604051632b58577b60e21b81526004810187905260248101849052604481018390526001600160a01b039091169063ad615dec9060640160206040518083038186803b158015612e5957600080fd5b505afa158015612e6d573d6000803e3d6000fd5b505050506040513d601f19601f82011682018060405250810190612e919190613478565b612f20565b600754604051632b58577b60e21b81526004810187905260248101839052604481018490526001600160a01b039091169063ad615dec9060640160206040518083038186803b158015612ee857600080fd5b505afa158015612efc573d6000803e3d6000fd5b505050506040513d601f19601f82011682018060405250810190612f209190613478565b9695505050505050565b6000805475ffffffffffffffffffffffffffffffffffffffff00001916620100006001600160a01b0384811682810293909317808555604051939492900416917f564590b81987d147246f63910a8e1ee4eb09c4d64cc75ee975a8ffedfcc2210e9190a350565b6040805180820190915260208082527f5361666545524332303a206c6f772d6c6576656c2063616c6c206661696c6564908201528290600090612fe0906001600160a01b03841690859061312b565b8051909150156122365780806020019051810190612ffe919061343e565b61223657604051639b8d506160e01b815260040160405180910390fd5b60008161302a57506000919050565b5060018170010000000000000000000000000000000081106130515760409190911b9060801c5b68010000000000000000811061306c5760209190911b9060401c5b64010000000081106130835760109190911b9060201c5b6201000081106130985760089190911b9060101c5b61010081106130ac5760049190911b9060081c5b601081106130bf5760029190911b9060041c5b600881106130cf57600182901b91505b60075b80156131045760016130e484866138ad565b6130ee9085613426565b901c9250806130fc816138cf565b9150506130d2565b600061311084866138ad565b9050808410156131205783613122565b805b95945050505050565b6060833b6131575760405163dc5dd7fd60e01b81526001600160a01b03851660048201526024016105a1565b600080856001600160a01b0316856040516131729190613912565b6000604051808303816000865af19150503d80600081146131af576040519150601f19603f3d011682016040523d82523d6000602084013e6131b4565b606091505b5091509150612f20828286606083156131ce575081612606565b8251156131de5782518060208501fd5b8160405162461bcd60e51b81526004016105a1919061392e565b60006020828403121561320a57600080fd5b5035919050565b6001600160a01b038116811461094157600080fd5b6000806040838503121561323957600080fd5b823561324481613211565b946020939093013593505050565b60006020828403121561326457600080fd5b813561260681613211565b600081518084526020808501945080840160005b838110156132a85781516001600160a01b031687529582019590820190600101613283565b509495945050505050565b602081526000612606602083018461326f565b801515811461094157600080fd5b600080600080608085870312156132ea57600080fd5b84356132f581613211565b9350602085013561330581613211565b925060408501359150606085013561331c816132c6565b939692955090935050565b6000806040838503121561333a57600080fd5b823561334581613211565b9150602083013561335581613211565b809150509250929050565b60008060008060008060c0878903121561337957600080fd5b863561338481613211565b9550602087013561339481613211565b945060408701356133a481613211565b935060608701356133b481613211565b925060808701356133c481613211565b915060a08701356133d481613211565b809150509295509295509295565b600080604083850312156133f557600080fd5b823561340081613211565b91506020830135613355816132c6565b634e487b7160e01b600052601160045260246000fd5b6000821982111561343957613439613410565b500190565b60006020828403121561345057600080fd5b8151612606816132c6565b60006020828403121561346d57600080fd5b815161260681613211565b60006020828403121561348a57600080fd5b5051919050565b60008083128015600160ff1b8501841216156134af576134af613410565b837f7fffffffffffffffffffffffffffffffffffffffffffffffffffffffffffffff0183138116156134e3576134e3613410565b50500390565b634e487b7160e01b600052604160045260246000fd5b634e487b7160e01b600052603260045260246000fd5b85815284602082015260a06040820152600061353460a083018661326f565b6001600160a01b0394909416606083015250608001529392505050565b6000602080838503121561356457600080fd5b825167ffffffffffffffff8082111561357c57600080fd5b818501915085601f83011261359057600080fd5b8151818111156135a2576135a26134e9565b8060051b604051601f19603f830116810181811085821117156135c7576135c76134e9565b6040529182528482019250838101850191888311156135e557600080fd5b938501935b82851015613603578451845293850193928501926135ea565b98975050505050505050565b600060001982141561362357613623613410565b5060010190565b828152604060208201526000613643604083018461326f565b949350505050565b60008282101561365d5761365d613410565b500390565b60006020828403121561367457600080fd5b815160ff8116811461260657600080fd5b60008060006060848603121561369a57600080fd5b8351925060208401519150604084015190509250925092565b600080604083850312156136c657600080fd5b505080516020909101519092909150565b600060ff821660ff8416808210156136f1576136f1613410565b90039392505050565b600181815b8085111561373557816000190482111561371b5761371b613410565b8085161561372857918102915b93841c93908002906136ff565b509250929050565b60008261374c575060016121b0565b81613759575060006121b0565b816001811461376f576002811461377957613795565b60019150506121b0565b60ff84111561378a5761378a613410565b50506001821b6121b0565b5060208310610133831016604e8410600b84101617156137b8575081810a6121b0565b6137c283836136fa565b80600019048211156137d6576137d6613410565b029392505050565b600061260660ff84168361373d565b600081600019048311821515161561380757613807613410565b500290565b634e487b7160e01b600052603160045260246000fd5b80516dffffffffffffffffffffffffffff8116811461271f57600080fd5b60008060006060848603121561385557600080fd5b61385e84613822565b925061386c60208501613822565b9150604084015163ffffffff8116811461388557600080fd5b809150509250925092565b6000600160ff1b8214156138a6576138a6613410565b5060000390565b6000826138ca57634e487b7160e01b600052601260045260246000fd5b500490565b6000816138de576138de613410565b506000190190565b60005b838110156139015781810151838201526020016138e9565b838111156122365750506000910152565b600082516139248184602087016138e6565b9190910192915050565b602081526000825180602084015261394d8160408501602087016138e6565b601f01601f1916919091016040019291505056fea164736f6c6343000809000a",
  "devdoc": {
    "errors": {
      "ExchangeFundDepositableTokenAlreadyListed(address)": [
        {
          "details": "Thrown when trying to list depositable token that's already listed.",
          "params": {
            "token": "The address of the token contract."
          }
        }
      ],
      "ExchangeFundDepositableTokenNotListed(address)": [
        {
          "details": "Thrown when trying to unlist depositable token that's not listed.",
          "params": {
            "token": "The address of the token contract."
          }
        }
      ],
      "ExchangeFundDepositableTokenTooLargeDecimals(address,uint8)": [
        {
          "details": "Thrown when trying to list depositable token that has too large decimals.",
          "params": {
            "token": "The address of the token contract."
          }
        }
      ],
      "ExchangeFundDepositableTokenZeroDecimals(address)": [
        {
          "details": "Thrown when trying to list depositable token that has zero decimals.",
          "params": {
            "token": "The address of the token contract."
          }
        }
      ],
      "ExchangeFundNoNeedToService(address)": [
        {
          "details": "Thrown when there's no need to service the `token`/stablecoin pair cause the difference between target and pair price does not exceed servicing threshold.",
          "params": {
            "token": "The address of the token contract."
          }
        }
      ],
      "ExchangeFundTokenNotAllowedToBeDeposited(address)": [
        {
          "details": "Thrown when interacting with a token that's not allowed to be deposited.",
          "params": {
            "token": "The address of the token contract."
          }
        }
      ],
      "ExchangeFundTokenNotAllowedToBeSalvaged(address)": [
        {
          "details": "Thrown when trying to salvage one of depositable tokens or stablecoin.",
          "params": {
            "token": "The address of the token contract."
          }
        }
      ],
      "ExchangeFundTokenNotAllowedToBeSwapped(address)": [
        {
          "details": "Thrown when trying to swap token that's not allowed to be swapped.",
          "params": {
            "token": "The address of the token contract."
          }
        }
      ],
      "ExchangeFundTokenNotAllowedToBeWithdrawn(address)": [
        {
          "details": "Thrown when interacting with a token that's not allowed to be withdrawn.",
          "params": {
            "token": "The address of the token contract."
          }
        }
      ]
    },
    "kind": "dev",
    "methods": {},
    "version": 1
  },
  "userdoc": {
    "kind": "user",
    "methods": {},
    "version": 1
  },
  "storageLayout": {
    "storage": [
      {
        "astId": 6644,
        "contract": "contracts/ExchangeFund.sol:ExchangeFund",
        "label": "initializing",
        "offset": 0,
        "slot": "0",
        "type": "t_bool"
      },
      {
        "astId": 6646,
        "contract": "contracts/ExchangeFund.sol:ExchangeFund",
        "label": "initialized",
        "offset": 1,
        "slot": "0",
        "type": "t_bool"
      },
      {
        "astId": 4646,
        "contract": "contracts/ExchangeFund.sol:ExchangeFund",
        "label": "governor",
        "offset": 2,
        "slot": "0",
        "type": "t_address"
      },
      {
        "astId": 4648,
        "contract": "contracts/ExchangeFund.sol:ExchangeFund",
        "label": "pendingGovernor",
        "offset": 0,
        "slot": "1",
        "type": "t_address"
      },
      {
        "astId": 6362,
        "contract": "contracts/ExchangeFund.sol:ExchangeFund",
        "label": "status",
        "offset": 0,
        "slot": "2",
        "type": "t_uint256"
      },
      {
        "astId": 3177,
        "contract": "contracts/ExchangeFund.sol:ExchangeFund",
        "label": "wrappedNativeCurrency",
        "offset": 0,
        "slot": "3",
        "type": "t_contract(IERC20)4866"
      },
      {
        "astId": 3180,
        "contract": "contracts/ExchangeFund.sol:ExchangeFund",
        "label": "core",
        "offset": 0,
        "slot": "4",
        "type": "t_contract(ICore)2780"
      },
      {
        "astId": 3183,
        "contract": "contracts/ExchangeFund.sol:ExchangeFund",
        "label": "stablecoin",
        "offset": 0,
        "slot": "5",
        "type": "t_contract(IERC20)4866"
      },
      {
        "astId": 3186,
        "contract": "contracts/ExchangeFund.sol:ExchangeFund",
        "label": "priceOracle",
        "offset": 0,
        "slot": "6",
        "type": "t_contract(IPriceOracle)4956"
      },
      {
        "astId": 3189,
        "contract": "contracts/ExchangeFund.sol:ExchangeFund",
        "label": "uniswapV2Router",
        "offset": 0,
        "slot": "7",
        "type": "t_contract(IUniswapV2Router)5140"
      },
      {
        "astId": 3191,
        "contract": "contracts/ExchangeFund.sol:ExchangeFund",
        "label": "operator",
        "offset": 0,
        "slot": "8",
        "type": "t_address"
      },
      {
        "astId": 3193,
        "contract": "contracts/ExchangeFund.sol:ExchangeFund",
        "label": "slippageTolerance",
        "offset": 0,
        "slot": "9",
        "type": "t_uint256"
      },
      {
        "astId": 3195,
        "contract": "contracts/ExchangeFund.sol:ExchangeFund",
        "label": "swapDeadline",
        "offset": 0,
        "slot": "10",
        "type": "t_uint256"
      },
      {
        "astId": 3202,
        "contract": "contracts/ExchangeFund.sol:ExchangeFund",
        "label": "deposits",
        "offset": 0,
        "slot": "11",
        "type": "t_mapping(t_address,t_mapping(t_contract(IERC20)4866,t_uint256))"
      },
      {
        "astId": 3209,
        "contract": "contracts/ExchangeFund.sol:ExchangeFund",
        "label": "liquidity",
        "offset": 0,
        "slot": "12",
        "type": "t_mapping(t_address,t_mapping(t_contract(IERC20)4866,t_uint256))"
      },
      {
        "astId": 3214,
        "contract": "contracts/ExchangeFund.sol:ExchangeFund",
        "label": "depositableTokens",
        "offset": 0,
        "slot": "13",
        "type": "t_mapping(t_contract(IERC20)4866,t_bool)"
      },
      {
        "astId": 3217,
        "contract": "contracts/ExchangeFund.sol:ExchangeFund",
        "label": "depositableTokensSet",
        "offset": 0,
        "slot": "14",
        "type": "t_struct(Set)5674_storage"
      }
    ],
    "types": {
      "t_address": {
        "encoding": "inplace",
        "label": "address",
        "numberOfBytes": "20"
      },
      "t_array(t_address)dyn_storage": {
        "base": "t_address",
        "encoding": "dynamic_array",
        "label": "address[]",
        "numberOfBytes": "32"
      },
      "t_bool": {
        "encoding": "inplace",
        "label": "bool",
        "numberOfBytes": "1"
      },
      "t_contract(ICore)2780": {
        "encoding": "inplace",
        "label": "contract ICore",
        "numberOfBytes": "20"
      },
      "t_contract(IERC20)4866": {
        "encoding": "inplace",
        "label": "contract IERC20",
        "numberOfBytes": "20"
      },
      "t_contract(IPriceOracle)4956": {
        "encoding": "inplace",
        "label": "contract IPriceOracle",
        "numberOfBytes": "20"
      },
      "t_contract(IUniswapV2Router)5140": {
        "encoding": "inplace",
        "label": "contract IUniswapV2Router",
        "numberOfBytes": "20"
      },
      "t_mapping(t_address,t_mapping(t_contract(IERC20)4866,t_uint256))": {
        "encoding": "mapping",
        "key": "t_address",
        "label": "mapping(address => mapping(contract IERC20 => uint256))",
        "numberOfBytes": "32",
        "value": "t_mapping(t_contract(IERC20)4866,t_uint256)"
      },
      "t_mapping(t_address,t_uint256)": {
        "encoding": "mapping",
        "key": "t_address",
        "label": "mapping(address => uint256)",
        "numberOfBytes": "32",
        "value": "t_uint256"
      },
      "t_mapping(t_contract(IERC20)4866,t_bool)": {
        "encoding": "mapping",
        "key": "t_contract(IERC20)4866",
        "label": "mapping(contract IERC20 => bool)",
        "numberOfBytes": "32",
        "value": "t_bool"
      },
      "t_mapping(t_contract(IERC20)4866,t_uint256)": {
        "encoding": "mapping",
        "key": "t_contract(IERC20)4866",
        "label": "mapping(contract IERC20 => uint256)",
        "numberOfBytes": "32",
        "value": "t_uint256"
      },
      "t_struct(Set)5674_storage": {
        "encoding": "inplace",
        "label": "struct EnumerableAddressSet.Set",
        "members": [
          {
            "astId": 5669,
            "contract": "contracts/ExchangeFund.sol:ExchangeFund",
            "label": "elements",
            "offset": 0,
            "slot": "0",
            "type": "t_array(t_address)dyn_storage"
          },
          {
            "astId": 5673,
            "contract": "contracts/ExchangeFund.sol:ExchangeFund",
            "label": "indexes",
            "offset": 0,
            "slot": "1",
            "type": "t_mapping(t_address,t_uint256)"
          }
        ],
        "numberOfBytes": "64"
      },
      "t_uint256": {
        "encoding": "inplace",
        "label": "uint256",
        "numberOfBytes": "32"
      }
    }
  }
}