{
  "address": "0x997d7FE2b4B193cB893F52496BEE709Dc212bc46",
  "abi": [
    {
      "inputs": [
        {
          "internalType": "address",
          "name": "target",
          "type": "address"
        }
      ],
      "name": "CallToNonContract",
      "type": "error"
    },
    {
      "inputs": [],
      "name": "ContractAlreadyInitialized",
      "type": "error"
    },
    {
      "inputs": [
        {
          "internalType": "contract IERC20",
          "name": "token",
          "type": "address"
        }
      ],
      "name": "ExchangeFundDepositableTokenAlreadyListed",
      "type": "error"
    },
    {
      "inputs": [
        {
          "internalType": "contract IERC20",
          "name": "token",
          "type": "address"
        }
      ],
      "name": "ExchangeFundDepositableTokenNotListed",
      "type": "error"
    },
    {
      "inputs": [
        {
          "internalType": "contract IERC20",
          "name": "token",
          "type": "address"
        },
        {
          "internalType": "uint8",
          "name": "decimals",
          "type": "uint8"
        }
      ],
      "name": "ExchangeFundDepositableTokenTooLargeDecimals",
      "type": "error"
    },
    {
      "inputs": [
        {
          "internalType": "contract IERC20",
          "name": "token",
          "type": "address"
        }
      ],
      "name": "ExchangeFundDepositableTokenZeroDecimals",
      "type": "error"
    },
    {
      "inputs": [],
      "name": "ExchangeFundInsufficientDeposits",
      "type": "error"
    },
    {
      "inputs": [],
      "name": "ExchangeFundInsufficientLiquidity",
      "type": "error"
    },
    {
      "inputs": [
        {
          "internalType": "contract IERC20",
          "name": "token",
          "type": "address"
        }
      ],
      "name": "ExchangeFundNoNeedToService",
      "type": "error"
    },
    {
      "inputs": [
        {
          "internalType": "contract IERC20",
          "name": "token",
          "type": "address"
        }
      ],
      "name": "ExchangeFundSameTokenSwap",
      "type": "error"
    },
    {
      "inputs": [
        {
          "internalType": "contract IERC20",
          "name": "token",
          "type": "address"
        }
      ],
      "name": "ExchangeFundTokenNotAllowedToBeDeposited",
      "type": "error"
    },
    {
      "inputs": [
        {
          "internalType": "contract IERC20",
          "name": "token",
          "type": "address"
        }
      ],
      "name": "ExchangeFundTokenNotAllowedToBeSalvaged",
      "type": "error"
    },
    {
      "inputs": [
        {
          "internalType": "contract IERC20",
          "name": "token",
          "type": "address"
        }
      ],
      "name": "ExchangeFundTokenNotAllowedToBeSwapped",
      "type": "error"
    },
    {
      "inputs": [
        {
          "internalType": "contract IERC20",
          "name": "token",
          "type": "address"
        }
      ],
      "name": "ExchangeFundTokenNotAllowedToBeWithdrawn",
      "type": "error"
    },
    {
      "inputs": [
        {
          "internalType": "uint256",
          "name": "prod1",
          "type": "uint256"
        },
        {
          "internalType": "uint256",
          "name": "denominator",
          "type": "uint256"
        }
      ],
      "name": "FixedPointMathMulDivOverflow",
      "type": "error"
    },
    {
      "inputs": [],
      "name": "GovernedCantGoverItself",
      "type": "error"
    },
    {
      "inputs": [],
      "name": "GovernedGovernorZeroAddress",
      "type": "error"
    },
    {
      "inputs": [],
      "name": "GovernedOnlyGovernorAllowedToCall",
      "type": "error"
    },
    {
      "inputs": [],
      "name": "GovernedOnlyPendingGovernorAllowedToCall",
      "type": "error"
    },
    {
      "inputs": [],
      "name": "ReentrancyGuardReentrantCall",
      "type": "error"
    },
    {
      "inputs": [],
      "name": "SafeERC20NoReturnData",
      "type": "error"
    },
    {
      "anonymous": false,
      "inputs": [
        {
          "indexed": true,
          "internalType": "address",
          "name": "account",
          "type": "address"
        },
        {
          "indexed": true,
          "internalType": "contract IERC20",
          "name": "token",
          "type": "address"
        },
        {
          "indexed": false,
          "internalType": "uint256",
          "name": "amount",
          "type": "uint256"
        }
      ],
      "name": "Deposit",
      "type": "event"
    },
    {
      "anonymous": false,
      "inputs": [
        {
          "indexed": true,
          "internalType": "contract IERC20",
          "name": "token",
          "type": "address"
        },
        {
          "indexed": false,
          "internalType": "contract IUniswapV2Pair",
          "name": "pair",
          "type": "address"
        }
      ],
      "name": "DepositableTokenListed",
      "type": "event"
    },
    {
      "anonymous": false,
      "inputs": [
        {
          "indexed": true,
          "internalType": "contract IERC20",
          "name": "token",
          "type": "address"
        }
      ],
      "name": "DepositableTokenUnlisted",
      "type": "event"
    },
    {
      "anonymous": false,
      "inputs": [
        {
          "indexed": true,
          "internalType": "address",
          "name": "account",
          "type": "address"
        },
        {
          "indexed": true,
          "internalType": "contract IERC20",
          "name": "token",
          "type": "address"
        },
        {
          "indexed": false,
          "internalType": "uint256",
          "name": "amount",
          "type": "uint256"
        }
      ],
      "name": "Divest",
      "type": "event"
    },
    {
      "anonymous": false,
      "inputs": [
        {
          "indexed": true,
          "internalType": "address",
          "name": "governor",
          "type": "address"
        },
        {
          "indexed": true,
          "internalType": "address",
          "name": "newGovernor",
          "type": "address"
        }
      ],
      "name": "GovernanceTransited",
      "type": "event"
    },
    {
      "anonymous": false,
      "inputs": [
        {
          "indexed": true,
          "internalType": "address",
          "name": "account",
          "type": "address"
        },
        {
          "indexed": true,
          "internalType": "contract IERC20",
          "name": "token",
          "type": "address"
        },
        {
          "indexed": false,
          "internalType": "uint256",
          "name": "amount",
          "type": "uint256"
        }
      ],
      "name": "Invest",
      "type": "event"
    },
    {
      "anonymous": false,
      "inputs": [
        {
          "indexed": true,
          "internalType": "address",
          "name": "governor",
          "type": "address"
        },
        {
          "indexed": true,
          "internalType": "address",
          "name": "newGovernor",
          "type": "address"
        }
      ],
      "name": "PendingGovernanceTransition",
      "type": "event"
    },
    {
      "anonymous": false,
      "inputs": [
        {
          "indexed": true,
          "internalType": "address",
          "name": "account",
          "type": "address"
        },
        {
          "indexed": true,
          "internalType": "contract IERC20",
          "name": "token",
          "type": "address"
        }
      ],
      "name": "Service",
      "type": "event"
    },
    {
      "anonymous": false,
      "inputs": [
        {
          "indexed": false,
          "internalType": "uint256",
          "name": "slippageTolerance",
          "type": "uint256"
        },
        {
          "indexed": false,
          "internalType": "uint256",
          "name": "newSlippageTolerance",
          "type": "uint256"
        }
      ],
      "name": "SlippageToleranceUpdated",
      "type": "event"
    },
    {
      "anonymous": false,
      "inputs": [
        {
          "indexed": true,
          "internalType": "address",
          "name": "account",
          "type": "address"
        },
        {
          "indexed": true,
          "internalType": "contract IERC20",
          "name": "tokenA",
          "type": "address"
        },
        {
          "indexed": true,
          "internalType": "contract IERC20",
          "name": "tokenB",
          "type": "address"
        },
        {
          "indexed": false,
          "internalType": "uint256",
          "name": "amountA",
          "type": "uint256"
        },
        {
          "indexed": false,
          "internalType": "uint256",
          "name": "amountB",
          "type": "uint256"
        }
      ],
      "name": "Swap",
      "type": "event"
    },
    {
      "anonymous": false,
      "inputs": [
        {
          "indexed": false,
          "internalType": "uint256",
          "name": "swapDeadline",
          "type": "uint256"
        },
        {
          "indexed": false,
          "internalType": "uint256",
          "name": "newSwapDeadline",
          "type": "uint256"
        }
      ],
      "name": "SwapDeadlineUpdated",
      "type": "event"
    },
    {
      "anonymous": false,
      "inputs": [
        {
          "indexed": true,
          "internalType": "address",
          "name": "account",
          "type": "address"
        },
        {
          "indexed": true,
          "internalType": "contract IERC20",
          "name": "token",
          "type": "address"
        },
        {
          "indexed": false,
          "internalType": "uint256",
          "name": "amount",
          "type": "uint256"
        }
      ],
      "name": "Withdrawal",
      "type": "event"
    },
    {
      "inputs": [],
      "name": "acceptGovernance",
      "outputs": [],
      "stateMutability": "nonpayable",
      "type": "function"
    },
    {
      "inputs": [],
      "name": "core",
      "outputs": [
        {
          "internalType": "contract ICore",
          "name": "",
          "type": "address"
        }
      ],
      "stateMutability": "view",
      "type": "function"
    },
    {
      "inputs": [
        {
          "internalType": "contract IERC20",
          "name": "token",
          "type": "address"
        },
        {
          "internalType": "uint256",
          "name": "amount",
          "type": "uint256"
        }
      ],
      "name": "deposit",
      "outputs": [],
      "stateMutability": "nonpayable",
      "type": "function"
    },
    {
      "inputs": [
        {
          "internalType": "contract IERC20",
          "name": "",
          "type": "address"
        }
      ],
      "name": "depositableTokens",
      "outputs": [
        {
          "internalType": "bool",
          "name": "",
          "type": "bool"
        }
      ],
      "stateMutability": "view",
      "type": "function"
    },
    {
      "inputs": [
        {
          "internalType": "address",
          "name": "",
          "type": "address"
        },
        {
          "internalType": "contract IERC20",
          "name": "",
          "type": "address"
        }
      ],
      "name": "deposits",
      "outputs": [
        {
          "internalType": "uint256",
          "name": "",
          "type": "uint256"
        }
      ],
      "stateMutability": "view",
      "type": "function"
    },
    {
      "inputs": [
        {
          "internalType": "contract IERC20",
          "name": "token",
          "type": "address"
        },
        {
          "internalType": "uint256",
          "name": "amount",
          "type": "uint256"
        }
      ],
      "name": "divest",
      "outputs": [],
      "stateMutability": "nonpayable",
      "type": "function"
    },
    {
      "inputs": [],
      "name": "getDepositableTokens",
      "outputs": [
        {
          "internalType": "contract IERC20[]",
          "name": "tokens",
          "type": "address[]"
        }
      ],
      "stateMutability": "view",
      "type": "function"
    },
    {
      "inputs": [],
      "name": "governor",
      "outputs": [
        {
          "internalType": "address",
          "name": "",
          "type": "address"
        }
      ],
      "stateMutability": "view",
      "type": "function"
    },
    {
      "inputs": [
        {
          "internalType": "contract IERC20",
          "name": "_wrappedNativeCurrency",
          "type": "address"
        },
        {
          "internalType": "contract ICore",
          "name": "_core",
          "type": "address"
        },
        {
          "internalType": "contract IERC20",
          "name": "_stablecoin",
          "type": "address"
        },
        {
          "internalType": "contract IPriceOracle",
          "name": "_priceOracle",
          "type": "address"
        },
        {
          "internalType": "contract IUniswapV2Router",
          "name": "_uniswapV2Router",
          "type": "address"
        },
        {
          "internalType": "address",
          "name": "_operator",
          "type": "address"
        }
      ],
      "name": "initialize",
      "outputs": [],
      "stateMutability": "nonpayable",
      "type": "function"
    },
    {
      "inputs": [
        {
          "internalType": "contract IERC20",
          "name": "token",
          "type": "address"
        },
        {
          "internalType": "uint256",
          "name": "amount",
          "type": "uint256"
        }
      ],
      "name": "invest",
      "outputs": [],
      "stateMutability": "nonpayable",
      "type": "function"
    },
    {
      "inputs": [
        {
          "internalType": "address",
          "name": "",
          "type": "address"
        },
        {
          "internalType": "contract IERC20",
          "name": "",
          "type": "address"
        }
      ],
      "name": "liquidity",
      "outputs": [
        {
          "internalType": "uint256",
          "name": "",
          "type": "uint256"
        }
      ],
      "stateMutability": "view",
      "type": "function"
    },
    {
      "inputs": [
        {
          "internalType": "contract IERC20",
          "name": "token",
          "type": "address"
        }
      ],
      "name": "listDepositableToken",
      "outputs": [],
      "stateMutability": "nonpayable",
      "type": "function"
    },
    {
      "inputs": [],
      "name": "operator",
      "outputs": [
        {
          "internalType": "address",
          "name": "",
          "type": "address"
        }
      ],
      "stateMutability": "view",
      "type": "function"
    },
    {
      "inputs": [],
      "name": "pendingGovernor",
      "outputs": [
        {
          "internalType": "address",
          "name": "",
          "type": "address"
        }
      ],
      "stateMutability": "view",
      "type": "function"
    },
    {
      "inputs": [],
      "name": "priceOracle",
      "outputs": [
        {
          "internalType": "contract IPriceOracle",
          "name": "",
          "type": "address"
        }
      ],
      "stateMutability": "view",
      "type": "function"
    },
    {
      "inputs": [
        {
          "internalType": "contract IERC20",
          "name": "token",
          "type": "address"
        },
        {
          "internalType": "uint256",
          "name": "amount",
          "type": "uint256"
        }
      ],
      "name": "quote",
      "outputs": [
        {
          "internalType": "uint256",
          "name": "stablecoinAmount",
          "type": "uint256"
        }
      ],
      "stateMutability": "view",
      "type": "function"
    },
    {
      "inputs": [
        {
          "internalType": "contract IERC20",
          "name": "token",
          "type": "address"
        }
      ],
      "name": "salvage",
      "outputs": [],
      "stateMutability": "nonpayable",
      "type": "function"
    },
    {
      "inputs": [
        {
          "internalType": "contract IERC20",
          "name": "token",
          "type": "address"
        }
      ],
      "name": "service",
      "outputs": [],
      "stateMutability": "nonpayable",
      "type": "function"
    },
    {
      "inputs": [
        {
          "internalType": "uint256",
          "name": "newSlippageTolerance",
          "type": "uint256"
        }
      ],
      "name": "setSlippageTolerance",
      "outputs": [],
      "stateMutability": "nonpayable",
      "type": "function"
    },
    {
      "inputs": [
        {
          "internalType": "uint256",
          "name": "newSwapDeadline",
          "type": "uint256"
        }
      ],
      "name": "setSwapDeadline",
      "outputs": [],
      "stateMutability": "nonpayable",
      "type": "function"
    },
    {
      "inputs": [],
      "name": "slippageTolerance",
      "outputs": [
        {
          "internalType": "uint256",
          "name": "",
          "type": "uint256"
        }
      ],
      "stateMutability": "view",
      "type": "function"
    },
    {
      "inputs": [],
      "name": "stablecoin",
      "outputs": [
        {
          "internalType": "contract IERC20",
          "name": "",
          "type": "address"
        }
      ],
      "stateMutability": "view",
      "type": "function"
    },
    {
      "inputs": [
        {
          "internalType": "contract IERC20",
          "name": "tokenA",
          "type": "address"
        },
        {
          "internalType": "contract IERC20",
          "name": "tokenB",
          "type": "address"
        },
        {
          "internalType": "uint256",
          "name": "amount",
          "type": "uint256"
        },
        {
          "internalType": "bool",
          "name": "useWrappedNativeCurrencyAsIntermediateToken",
          "type": "bool"
        }
      ],
      "name": "swap",
      "outputs": [],
      "stateMutability": "nonpayable",
      "type": "function"
    },
    {
      "inputs": [],
      "name": "swapDeadline",
      "outputs": [
        {
          "internalType": "uint256",
          "name": "",
          "type": "uint256"
        }
      ],
      "stateMutability": "view",
      "type": "function"
    },
    {
      "inputs": [
        {
          "internalType": "address",
          "name": "newGovernor",
          "type": "address"
        },
        {
          "internalType": "bool",
          "name": "force",
          "type": "bool"
        }
      ],
      "name": "transitGovernance",
      "outputs": [],
      "stateMutability": "nonpayable",
      "type": "function"
    },
    {
      "inputs": [],
      "name": "uniswapV2Router",
      "outputs": [
        {
          "internalType": "contract IUniswapV2Router",
          "name": "",
          "type": "address"
        }
      ],
      "stateMutability": "view",
      "type": "function"
    },
    {
      "inputs": [
        {
          "internalType": "contract IERC20",
          "name": "token",
          "type": "address"
        }
      ],
      "name": "unlistDepositableToken",
      "outputs": [],
      "stateMutability": "nonpayable",
      "type": "function"
    },
    {
      "inputs": [
        {
          "internalType": "contract IERC20",
          "name": "token",
          "type": "address"
        },
        {
          "internalType": "uint256",
          "name": "amount",
          "type": "uint256"
        }
      ],
      "name": "withdraw",
      "outputs": [],
      "stateMutability": "nonpayable",
      "type": "function"
    },
    {
      "inputs": [],
      "name": "wrappedNativeCurrency",
      "outputs": [
        {
          "internalType": "contract IERC20",
          "name": "",
          "type": "address"
        }
      ],
      "stateMutability": "view",
      "type": "function"
    }
  ],
  "transactionHash": "0x975537155c5f56c5a67c2f9f455ab095c600e95573f7c11fa9e6e0bec555ec5c",
  "args": [],
  "solcInputHash": "f47bd1bda1fe172daaa81b720402d145",
  "bytecode": "0x608060405234801561001057600080fd5b5060016002556137f1806100256000396000f3fe608060405234801561001057600080fd5b50600436106101cf5760003560e01c80638f79306e11610104578063cc2a9a5b116100a2578063e7f3028c11610071578063e7f3028c14610415578063e9cbd82214610428578063f2f4eb261461043b578063f3fef3a31461044e57600080fd5b8063cc2a9a5b146103d3578063d03153aa146103e6578063ddc12526146103ef578063e3056a341461040257600080fd5b8063b2217281116100de578063b22172811461034f578063b9b8c2461461037a578063bb5043171461038d578063c14edd79146103a057600080fd5b80638f79306e1461032057806393ad9f1714610333578063942dbff41461034657600080fd5b80634bd84701116101715780637e83f7d71161014b5780637e83f7d7146102ae57806385881e2a146102c1578063863a03e0146102d45780638f601f66146102e757600080fd5b80634bd8470114610273578063570ca735146102865780635e6fdf431461029957600080fd5b8063238efcbc116101ad578063238efcbc146102325780632630c12f1461023a57806347e7ef241461024d57806348be77191461026057600080fd5b80630c340a24146101d4578063117da1ee1461020a5780631694505e1461021f575b600080fd5b6000546101ed906201000090046001600160a01b031681565b6040516001600160a01b0390911681526020015b60405180910390f35b61021d61021836600461307b565b610461565b005b6007546101ed906001600160a01b031681565b61021d6104d3565b6006546101ed906001600160a01b031681565b61021d61025b3660046130a9565b610568565b61021d61026e3660046130d5565b610689565b61021d6102813660046130d5565b610943565b6008546101ed906001600160a01b031681565b6102a1610ce5565b6040516102019190613136565b61021d6102bc366004613157565b610dae565b61021d6102cf3660046130d5565b611315565b61021d6102e23660046130d5565b61173b565b6103126102f53660046131aa565b600b60209081526000928352604080842090915290825290205481565b604051908152602001610201565b61031261032e3660046130a9565b61184f565b61021d61034136600461307b565b611b85565b610312600a5481565b61031261035d3660046131aa565b600c60209081526000928352604080842090915290825290205481565b61021d6103883660046130a9565b611bf7565b61021d61039b3660046130a9565b611e88565b6103c36103ae3660046130d5565b600d6020526000908152604090205460ff1681565b6040519015158152602001610201565b61021d6103e13660046131e3565b612090565b61031260095481565b61021d6103fd366004613265565b6121ec565b6001546101ed906001600160a01b031681565b6003546101ed906001600160a01b031681565b6005546101ed906001600160a01b031681565b6004546101ed906001600160a01b031681565b61021d61045c3660046130a9565b6122da565b6000546201000090046001600160a01b03163314610492576040516305e7700560e51b815260040160405180910390fd5b60095460408051918252602082018390527fddd31550b26e9ef8ade466958be83ff8a014d9b4f36d546b61a6847a45306575910160405180910390a1600955565b6001546001600160a01b031633146104fe5760405163aec80d4b60e01b815260040160405180910390fd5b60015460008054620100006001600160a01b0393841681810275ffffffffffffffffffffffffffffffffffffffff00001990931692909217808455604051929491900416917f564590b81987d147246f63910a8e1ee4eb09c4d64cc75ee975a8ffedfcc2210e91a3565b60028054141561058b57604051633ee5aeb560e01b815260040160405180910390fd5b600280556001600160a01b0382166000908152600f602052604090205482906105d75760405163497e1e0360e01b81526001600160a01b03821660048201526024015b60405180910390fd5b6105ec6001600160a01b038416333085612421565b60006106016001600160a01b038516846124a7565b336000908152600b602090815260408083206001600160a01b03891684529091528120805492935083929091906106399084906132a9565b90915550506040518181526001600160a01b0385169033907f5548c837ab068cf56a2c2479df0882a4922fd203edb7517321831d95078c5f629060200160405180910390a3505060016002555050565b6000546201000090046001600160a01b031633146106ba576040516305e7700560e51b815260040160405180910390fd5b6001600160a01b0381166000908152600f60205260409020546106fb5760405163635c3e1f60e11b81526001600160a01b03821660048201526024016105ce565b610706600e82612546565b156109405760075460405163095ea7b360e01b81526001600160a01b039182166004820152600060248201529082169063095ea7b3906044016020604051808303816000875af115801561075e573d6000803e3d6000fd5b505050506040513d601f19601f8201168201806040525081019061078291906132c1565b506007546040805163c45a015560e01b815290516000926001600160a01b03169163c45a01559160048083019260209291908290030181865afa1580156107cd573d6000803e3d6000fd5b505050506040513d601f19601f820116820180604052508101906107f191906132de565b60055460405163e6a4390560e01b81526001600160a01b03918216600482015284821660248201529192506000919083169063e6a4390590604401602060405180830381865afa158015610849573d6000803e3d6000fd5b505050506040513d601f19601f8201168201806040525081019061086d91906132de565b90506001600160a01b038116156108f75760075460405163095ea7b360e01b81526001600160a01b039182166004820152600060248201529082169063095ea7b3906044016020604051808303816000875af11580156108d1573d6000803e3d6000fd5b505050506040513d601f19601f820116820180604052508101906108f591906132c1565b505b6001600160a01b0383166000818152600d6020526040808220805460ff19169055517fbd6c0ac05a911841e71daa23bb8022779f3957fad4fa3546eb22a1782c747c839190a250505b50565b60008061094f8361267f565b90925090506109676001600160a01b038416826124a7565b600654604051630787c49960e21b81526001600160a01b03868116600483015292935060009290911690631e1f126490602401602060405180830381865afa1580156109b7573d6000803e3d6000fd5b505050506040513d601f19601f820116820180604052508101906109db91906132fb565b905060006109e98484612820565b90506000670de0b6b3a7640000610a008385612820565b610a0a9190613314565b9050600460009054906101000a90046001600160a01b03166001600160a01b031663453844b66040518163ffffffff1660e01b8152600401602060405180830381865afa158015610a5f573d6000803e3d6000fd5b505050506040513d601f19601f82011682018060405250810190610a8391906132fb565b610a8c8261283c565b1015610ab6576040516358cbbf3f60e11b81526001600160a01b03871660048201526024016105ce565b6040805160028082526060820183526000928392919060208301908036833701905050905084841115610b765786610b00610afb87610af5848b612858565b90612858565b612928565b610b0a9190613314565b91508781600081518110610b2057610b20613382565b6001600160a01b039283166020918202929092010152600554825191169082906001908110610b5157610b51613382565b60200260200101906001600160a01b031690816001600160a01b031681525050610c07565b85610b85610afb898389612953565b610b8f9190613314565b60055482519193506001600160a01b0316908290600090610bb257610bb2613382565b60200260200101906001600160a01b031690816001600160a01b0316815250508781600181518110610be657610be6613382565b60200260200101906001600160a01b031690816001600160a01b0316815250505b6007546001600160a01b0316638803dbee610c218461283c565b6000198430600a5442610c3491906132a9565b6040518663ffffffff1660e01b8152600401610c54959493929190613398565b6000604051808303816000875af1158015610c73573d6000803e3d6000fd5b505050506040513d6000823e601f3d908101601f19168201604052610c9b91908101906133d4565b50610ca588612a0e565b6040516001600160a01b0389169033907f6d9de21666ebb28b54314f1615b914f9807eaa05e80a86c76d97ec1c376d7e0390600090a35050505050505050565b600e546060908067ffffffffffffffff811115610d0457610d0461336c565b604051908082528060200260200182016040528015610d2d578160200160208202803683370190505b50915060005b81811015610da957600e805482908110610d4f57610d4f613382565b9060005260206000200160009054906101000a90046001600160a01b0316838281518110610d7f57610d7f613382565b6001600160a01b039092166020928302919091019091015280610da181613492565b915050610d33565b505090565b600280541415610dd157604051633ee5aeb560e01b815260040160405180910390fd5b6002805560055484906001600160a01b03808316911614801590610e0b57506001600160a01b0381166000908152600f6020526040902054155b15610e345760405163569695af60e01b81526001600160a01b03821660048201526024016105ce565b60055484906001600160a01b03808316911614801590610e6a57506001600160a01b0381166000908152600f6020526040902054155b15610e935760405163569695af60e01b81526001600160a01b03821660048201526024016105ce565b6000610ea86001600160a01b038816866124a7565b336000908152600b602090815260408083206001600160a01b038c168452909152902054909150811115610eef5760405163c0993c3760e01b815260040160405180910390fd5b856001600160a01b0316876001600160a01b03161415610f2d57604051630e9f73ab60e21b81526001600160a01b03881660048201526024016105ce565b600084610f3b576002610f3e565b60035b60ff1667ffffffffffffffff811115610f5957610f5961336c565b604051908082528060200260200182016040528015610f82578160200160208202803683370190505b5090508781600081518110610f9957610f99613382565b60200260200101906001600160a01b031690816001600160a01b03168152505084610fc45786610fd1565b6003546001600160a01b03165b81600181518110610fe457610fe4613382565b60200260200101906001600160a01b031690816001600160a01b031681525050841561103f57868160028151811061101e5761101e613382565b60200260200101906001600160a01b031690816001600160a01b0316815250505b60075460405163d06ca61f60e01b81526000916001600160a01b03169063d06ca61f90611072908a9086906004016134ad565b600060405180830381865afa15801561108f573d6000803e3d6000fd5b505050506040513d6000823e601f3d908101601f191682016040526110b791908101906133d4565b905060006110fd82600184516110cd91906134ce565b815181106110dd576110dd613382565b60200260200101518a6001600160a01b03166124a790919063ffffffff16565b6007546009549192506001600160a01b0316906338ed1739908a90611149906111399061113290670de0b6b3a76400006134ce565b8690612858565b6001600160a01b038e1690612c6f565b8630600a544261115991906132a9565b6040518663ffffffff1660e01b8152600401611179959493929190613398565b6000604051808303816000875af1158015611198573d6000803e3d6000fd5b505050506040513d6000823e601f3d908101601f191682016040526111c091908101906133d4565b915060006111fa836000815181106111da576111da613382565b60200260200101518c6001600160a01b03166124a790919063ffffffff16565b90506000611220846001865161121091906134ce565b815181106111da576111da613382565b905081600b6000336001600160a01b03166001600160a01b0316815260200190815260200160002060008e6001600160a01b03166001600160a01b03168152602001908152602001600020600082825461127a91906134ce565b9091555050336000908152600b602090815260408083206001600160a01b038f168452909152812080548392906112b29084906132a9565b909155505060408051838152602081018390526001600160a01b03808e1692908f169133917fcd3829a3813dc3cdd188fd3d01dcf3268c16be2fdd2dd21d0665418816e46062910160405180910390a45050600160025550505050505050505050565b6000546201000090046001600160a01b03163314611346576040516305e7700560e51b815260040160405180910390fd5b6001600160a01b0381166000908152600f602052604090205415611388576040516382cce5f360e01b81526001600160a01b03821660048201526024016105ce565b6000816001600160a01b031663313ce5676040518163ffffffff1660e01b8152600401602060405180830381865afa1580156113c8573d6000803e3d6000fd5b505050506040513d601f19601f820116820180604052508101906113ec91906134e5565b905060ff811661141a576040516316d13e4960e21b81526001600160a01b03831660048201526024016105ce565b601260ff82161115611453576040516321b3807960e11b81526001600160a01b038316600482015260ff821660248201526044016105ce565b61145e600e83612cfe565b156117375760075460405163095ea7b360e01b81526001600160a01b03918216600482015260001960248201529083169063095ea7b3906044016020604051808303816000875af11580156114b7573d6000803e3d6000fd5b505050506040513d601f19601f820116820180604052508101906114db91906132c1565b506007546040805163c45a015560e01b815290516000926001600160a01b03169163c45a01559160048083019260209291908290030181865afa158015611526573d6000803e3d6000fd5b505050506040513d601f19601f8201168201806040525081019061154a91906132de565b60055460405163e6a4390560e01b81526001600160a01b03918216600482015285821660248201529192506000919083169063e6a4390590604401602060405180830381865afa1580156115a2573d6000803e3d6000fd5b505050506040513d601f19601f820116820180604052508101906115c691906132de565b90506001600160a01b038116611651576005546040516364e329cb60e11b81526001600160a01b03918216600482015285821660248201529083169063c9c65396906044016020604051808303816000875af115801561162a573d6000803e3d6000fd5b505050506040513d601f19601f8201168201806040525081019061164e91906132de565b90505b60075460405163095ea7b360e01b81526001600160a01b03918216600482015260001960248201529082169063095ea7b3906044016020604051808303816000875af11580156116a5573d6000803e3d6000fd5b505050506040513d601f19601f820116820180604052508101906116c991906132c1565b506001600160a01b0384166000818152600d602052604090819020805460ff19166001179055517f55011b433ad455f23aa134ee4f1fcd2190a063cb514134436b32358ead356ada9061172c9084906001600160a01b0391909116815260200190565b60405180910390a250505b5050565b6000546201000090046001600160a01b0316331461176c576040516305e7700560e51b815260040160405180910390fd5b60055481906001600160a01b03808316911614806117a157506001600160a01b0381166000908152600f602052604090205415155b156117ca57604051631af19dff60e01b81526001600160a01b03831660048201526024016105ce565b6008546040516370a0823160e01b8152306004820152611737916001600160a01b0390811691908516906370a0823190602401602060405180830381865afa15801561181a573d6000803e3d6000fd5b505050506040513d601f19601f8201168201806040525081019061183e91906132fb565b6001600160a01b0385169190612d6e565b600080600760009054906101000a90046001600160a01b03166001600160a01b031663c45a01556040518163ffffffff1660e01b8152600401602060405180830381865afa1580156118a5573d6000803e3d6000fd5b505050506040513d601f19601f820116820180604052508101906118c991906132de565b60055460405163e6a4390560e01b81526001600160a01b039182166004820152868216602482015291169063e6a4390590604401602060405180830381865afa15801561191a573d6000803e3d6000fd5b505050506040513d601f19601f8201168201806040525081019061193e91906132de565b9050600080826001600160a01b0316630902f1ac6040518163ffffffff1660e01b8152600401606060405180830381865afa158015611981573d6000803e3d6000fd5b505050506040513d601f19601f820116820180604052508101906119a59190613526565b506dffffffffffffffffffffffffffff1691506dffffffffffffffffffffffffffff16915081600014806119d7575080155b15611a6957600654604051630787c49960e21b81526001600160a01b038881166004830152611a5f921690631e1f126490602401602060405180830381865afa158015611a28573d6000803e3d6000fd5b505050506040513d601f19601f82011682018060405250810190611a4c91906132fb565b610af56001600160a01b038916886124a7565b9350505050611b7f565b6005546001600160a01b03808816911610611afe57600754604051632b58577b60e21b81526004810187905260248101849052604481018390526001600160a01b039091169063ad615dec90606401602060405180830381865afa158015611ad5573d6000803e3d6000fd5b505050506040513d601f19601f82011682018060405250810190611af991906132fb565b611b79565b600754604051632b58577b60e21b81526004810187905260248101839052604481018490526001600160a01b039091169063ad615dec90606401602060405180830381865afa158015611b55573d6000803e3d6000fd5b505050506040513d601f19601f82011682018060405250810190611b7991906132fb565b93505050505b92915050565b6000546201000090046001600160a01b03163314611bb6576040516305e7700560e51b815260040160405180910390fd5b600a5460408051918252602082018390527f801306575ef2eb7d5ec12da38bf892a7872d76caf0beb1cec0779abeb71ff3a9910160405180910390a1600a55565b600280541415611c1a57604051633ee5aeb560e01b815260040160405180910390fd5b600280556000611c336001600160a01b038416836124a7565b336000908152600b602090815260408083206001600160a01b0388168452909152902054909150811115611c7a5760405163c0993c3760e01b815260040160405180910390fd5b6000611c86848461184f565b60075460055460095492935060009283926001600160a01b039081169263e8e3370092911690899087908a90611ccf90611cc890670de0b6b3a76400006134ce565b8a90612858565b611d02611cf2600954670de0b6b3a7640000611ceb91906134ce565b8d90612858565b6001600160a01b038f1690612c6f565b30600a5442611d1191906132a9565b60405160e08a901b6001600160e01b03191681526001600160a01b039889166004820152968816602488015260448701959095526064860193909352608485019190915260a484015290921660c482015260e4810191909152610104016060604051808303816000875af1158015611d8d573d6000803e3d6000fd5b505050506040513d601f19601f82011682018060405250810190611db19190613576565b9093509150611dcb90506001600160a01b038716836124a7565b336000908152600b602090815260408083206001600160a01b038b16845290915281208054909190611dfe9084906134ce565b9091555050336000908152600c602090815260408083206001600160a01b038a16845290915281208054839290611e369084906132a9565b90915550506040518481526001600160a01b0387169033907f0657e0c8fff72ae811b8683a3411c30ebb5098754ec5e814687711e97cbd6db29060200160405180910390a35050600160025550505050565b600280541415611eab57604051633ee5aeb560e01b815260040160405180910390fd5b60028055336000908152600c602090815260408083206001600160a01b0386168452909152902054811115611ef35760405163dc93df4560e01b815260040160405180910390fd5b600754600554600a546000926001600160a01b039081169263baa2abde9291169086908690869081903090611f2890426132a9565b60405160e089901b6001600160e01b03191681526001600160a01b039788166004820152958716602487015260448601949094526064850192909252608484015290921660a482015260c481019190915260e40160408051808303816000875af1158015611f9a573d6000803e3d6000fd5b505050506040513d601f19601f82011682018060405250810190611fbe91906135a4565b9150611fd590506001600160a01b038416826124a7565b336000908152600b602090815260408083206001600160a01b0388168452909152812080549091906120089084906132a9565b9091555050336000908152600c602090815260408083206001600160a01b0387168452909152812080548492906120409084906134ce565b90915550506040518281526001600160a01b0384169033907f8c6e1d3aa13e82e61da9350057ab35ded0bd548b8905b82dfa012876992b8ef5906020015b60405180910390a35050600160025550565b60005460ff161580156120aa5750600054610100900460ff165b156120c857604051631ee1e30360e21b815260040160405180910390fd5b60005460ff161580156120e5576000805461ffff19166101011790555b6120ee33612d9e565b600380546001600160a01b03199081166001600160a01b038a81169190911790925560048054821689841617815560058054831689851690811790915560068054841689861617905560078054841688861690811790915560088054909416948716949094179092556611c37937e080006009556104b0600a5560405163095ea7b360e01b81529081019290925260001960248301529063095ea7b3906044016020604051808303816000875af11580156121ad573d6000803e3d6000fd5b505050506040513d601f19601f820116820180604052508101906121d191906132c1565b5080156121e3576000805460ff191690555b50505050505050565b6000546201000090046001600160a01b0316331461221d576040516305e7700560e51b815260040160405180910390fd5b6001600160a01b0382166122445760405163604b48b960e11b815260040160405180910390fd5b6001600160a01b03821630141561226e576040516306b3e95d60e21b815260040160405180910390fd5b600180546001600160a01b0319166001600160a01b038416179055806122d157600080546040516001600160a01b03808616936201000090930416917fc606c9af1451cadeb333f6ff7b24a5540974f4e800bac274fa7fff9edc305cb191a35050565b61173782612d9e565b6002805414156122fd57604051633ee5aeb560e01b815260040160405180910390fd5b600280556005546001600160a01b038381169116141561233b5760405163f099c8a560e01b81526001600160a01b03831660048201526024016105ce565b60006123506001600160a01b038416836124a7565b336000908152600b602090815260408083206001600160a01b03881684529091529020549091508111156123975760405163c0993c3760e01b815260040160405180910390fd5b336000908152600b602090815260408083206001600160a01b0387168452909152812080548392906123ca9084906134ce565b909155506123e490506001600160a01b0384163384612d6e565b6040518181526001600160a01b0384169033907f2717ead6b9200dd235aad468c9809ea400fe33ac69b5bfaa6d3e90fc922b63989060200161207e565b6040516001600160a01b03808516602483015283166044820152606481018290526124a19085906323b872dd60e01b906084015b60408051601f198184030181529190526020810180517bffffffffffffffffffffffffffffffffffffffffffffffffffffffff166001600160e01b031990931692909217909152612e05565b50505050565b600080836001600160a01b031663313ce5676040518163ffffffff1660e01b8152600401602060405180830381865afa1580156124e8573d6000803e3d6000fd5b505050506040513d601f19601f8201168201806040525081019061250c91906134e5565b6125179060126135c8565b61252290600a6136cf565b90508060011461253e5761253681846136de565b915050611b7f565b509092915050565b6001600160a01b038116600090815260018301602052604081205480612570576000915050611b7f565b600061257d6001836134ce565b90506000600161258b875490565b61259591906134ce565b90508082146126215760008660000182815481106125b5576125b5613382565b60009182526020909120015487546001600160a01b03909116915081908890859081106125e4576125e4613382565b600091825260208083209190910180546001600160a01b0319166001600160a01b0394851617905592909116815260018801909152604090208390555b8554869080612632576126326136fd565b60008281526020808220830160001990810180546001600160a01b03191690559092019092556001600160a01b038716825260018881019091526040822091909155935050505092915050565b6000806000600760009054906101000a90046001600160a01b03166001600160a01b031663c45a01556040518163ffffffff1660e01b8152600401602060405180830381865afa1580156126d7573d6000803e3d6000fd5b505050506040513d601f19601f820116820180604052508101906126fb91906132de565b60055460405163e6a4390560e01b81526001600160a01b039182166004820152868216602482015291169063e6a4390590604401602060405180830381865afa15801561274c573d6000803e3d6000fd5b505050506040513d601f19601f8201168201806040525081019061277091906132de565b9050600080826001600160a01b0316630902f1ac6040518163ffffffff1660e01b8152600401606060405180830381865afa1580156127b3573d6000803e3d6000fd5b505050506040513d601f19601f820116820180604052508101906127d79190613526565b506005546dffffffffffffffffffffffffffff9283169450911691506001600160a01b038088169116101561281157819450809350612818565b8193508094505b505050915091565b600061283583670de0b6b3a764000084612953565b9392505050565b6000808212156128545761284f82613713565b611b7f565b5090565b60008080600019848609848602925082811083820303915050670de0b6b3a764000081106128aa5760405163072fa3c960e31b815260048101829052670de0b6b3a764000060248201526044016105ce565b600080670de0b6b3a76400008688099150506706f05b59d3b1ffff8111826128e45780670de0b6b3a7640000850401945050505050611b7f565b620400008285030493909111909103600160ee1b02919091177faccb18165bd6fe31ae1cf318dc5b51eee0e1ba569b88cd74c1773b91fac106690201905092915050565b60008161293757506000919050565b61294082612e8f565b611b7f90633b9aca006136de565b919050565b600080806000198587098587029250828110838203039150508381106129965760405163072fa3c960e31b815260048101829052602481018590526044016105ce565b806129a657508290049050612835565b600084868809600260036001881981018916988990049182028318808302840302808302840302808302840302808302840302808302840302918202909203026000889003889004909101858311909403939093029303949094049190911702949350505050565b600080612a1a8361267f565b9092509050612a326001600160a01b038416826124a7565b905081600460009054906101000a90046001600160a01b03166001600160a01b031663b56cf0116040518163ffffffff1660e01b8152600401602060405180830381865afa158015612a88573d6000803e3d6000fd5b505050506040513d601f19601f82011682018060405250810190612aac91906132fb565b1115612c6a57600480546040805163b56cf01160e01b8152905160009386936001600160a01b03169263b56cf01192818301926020928290030181865afa158015612afb573d6000803e3d6000fd5b505050506040513d601f19601f82011682018060405250810190612b1f91906132fb565b612b2991906134ce565b90506000612b54612b44612b3d8686612820565b8490612820565b6001600160a01b03871690612c6f565b6007546005546009549293506001600160a01b039182169263e8e337009290911690889086908690612b9990612b9290670de0b6b3a76400006134ce565b8990612858565b612bb5611139600954670de0b6b3a7640000611cc891906134ce565b30600a5442612bc491906132a9565b60405160e08a901b6001600160e01b03191681526001600160a01b039889166004820152968816602488015260448701959095526064860193909352608485019190915260a484015290921660c482015260e4810191909152610104016060604051808303816000875af1158015612c40573d6000803e3d6000fd5b505050506040513d601f19601f82011682018060405250810190612c649190613576565b50505050505b505050565b600080836001600160a01b031663313ce5676040518163ffffffff1660e01b8152600401602060405180830381865afa158015612cb0573d6000803e3d6000fd5b505050506040513d601f19601f82011682018060405250810190612cd491906134e5565b612cdf9060126135c8565b612cea90600a6136cf565b90508060011461253e576125368184613730565b6001600160a01b038116600090815260018301602052604081205415612d2657506000611b7f565b508154600180820184556000848152602080822090930180546001600160a01b0319166001600160a01b03959095169485179055845493815293810190915260409092205590565b6040516001600160a01b038316602482015260448101829052612c6a90849063a9059cbb60e01b90606401612455565b6000805475ffffffffffffffffffffffffffffffffffffffff00001916620100006001600160a01b0384811682810293909317808555604051939492900416917f564590b81987d147246f63910a8e1ee4eb09c4d64cc75ee975a8ffedfcc2210e9190a350565b6040805180820190915260208082527f5361666545524332303a206c6f772d6c6576656c2063616c6c206661696c6564908201528290600090612e54906001600160a01b038416908590612f9f565b8051909150156124a15780806020019051810190612e7291906132c1565b6124a157604051639b8d506160e01b815260040160405180910390fd5b600081612e9e57506000919050565b506001817001000000000000000000000000000000008110612ec55760409190911b9060801c5b680100000000000000008110612ee05760209190911b9060401c5b6401000000008110612ef75760109190911b9060201c5b620100008110612f0c5760089190911b9060101c5b6101008110612f205760049190911b9060081c5b60108110612f335760029190911b9060041c5b60088110612f4357600182901b91505b60075b8015612f78576001612f588486613730565b612f6290856132a9565b901c925080612f7081613752565b915050612f46565b6000612f848486613730565b905080841015612f945783612f96565b805b95945050505050565b6060833b612fcb5760405163dc5dd7fd60e01b81526001600160a01b03851660048201526024016105ce565b600080856001600160a01b031685604051612fe69190613795565b6000604051808303816000865af19150503d8060008114613023576040519150601f19603f3d011682016040523d82523d6000602084013e613028565b606091505b5091509150613038828286613042565b9695505050505050565b60608315613051575081612835565b8251156130615782518060208501fd5b8160405162461bcd60e51b81526004016105ce91906137b1565b60006020828403121561308d57600080fd5b5035919050565b6001600160a01b038116811461094057600080fd5b600080604083850312156130bc57600080fd5b82356130c781613094565b946020939093013593505050565b6000602082840312156130e757600080fd5b813561283581613094565b600081518084526020808501945080840160005b8381101561312b5781516001600160a01b031687529582019590820190600101613106565b509495945050505050565b60208152600061283560208301846130f2565b801515811461094057600080fd5b6000806000806080858703121561316d57600080fd5b843561317881613094565b9350602085013561318881613094565b925060408501359150606085013561319f81613149565b939692955090935050565b600080604083850312156131bd57600080fd5b82356131c881613094565b915060208301356131d881613094565b809150509250929050565b60008060008060008060c087890312156131fc57600080fd5b863561320781613094565b9550602087013561321781613094565b9450604087013561322781613094565b9350606087013561323781613094565b9250608087013561324781613094565b915060a087013561325781613094565b809150509295509295509295565b6000806040838503121561327857600080fd5b823561328381613094565b915060208301356131d881613149565b634e487b7160e01b600052601160045260246000fd5b600082198211156132bc576132bc613293565b500190565b6000602082840312156132d357600080fd5b815161283581613149565b6000602082840312156132f057600080fd5b815161283581613094565b60006020828403121561330d57600080fd5b5051919050565b60008083128015600160ff1b85018412161561333257613332613293565b837f7fffffffffffffffffffffffffffffffffffffffffffffffffffffffffffffff01831381161561336657613366613293565b50500390565b634e487b7160e01b600052604160045260246000fd5b634e487b7160e01b600052603260045260246000fd5b85815284602082015260a0604082015260006133b760a08301866130f2565b6001600160a01b0394909416606083015250608001529392505050565b600060208083850312156133e757600080fd5b825167ffffffffffffffff808211156133ff57600080fd5b818501915085601f83011261341357600080fd5b8151818111156134255761342561336c565b8060051b604051601f19603f8301168101818110858211171561344a5761344a61336c565b60405291825284820192508381018501918883111561346857600080fd5b938501935b828510156134865784518452938501939285019261346d565b98975050505050505050565b60006000198214156134a6576134a6613293565b5060010190565b8281526040602082015260006134c660408301846130f2565b949350505050565b6000828210156134e0576134e0613293565b500390565b6000602082840312156134f757600080fd5b815160ff8116811461283557600080fd5b80516dffffffffffffffffffffffffffff8116811461294e57600080fd5b60008060006060848603121561353b57600080fd5b61354484613508565b925061355260208501613508565b9150604084015163ffffffff8116811461356b57600080fd5b809150509250925092565b60008060006060848603121561358b57600080fd5b8351925060208401519150604084015190509250925092565b600080604083850312156135b757600080fd5b505080516020909101519092909150565b600060ff821660ff8416808210156135e2576135e2613293565b90039392505050565b600181815b8085111561362657816000190482111561360c5761360c613293565b8085161561361957918102915b93841c93908002906135f0565b509250929050565b60008261363d57506001611b7f565b8161364a57506000611b7f565b8160018114613660576002811461366a57613686565b6001915050611b7f565b60ff84111561367b5761367b613293565b50506001821b611b7f565b5060208310610133831016604e8410600b84101617156136a9575081810a611b7f565b6136b383836135eb565b80600019048211156136c7576136c7613293565b029392505050565b600061283560ff84168361362e565b60008160001904831182151516156136f8576136f8613293565b500290565b634e487b7160e01b600052603160045260246000fd5b6000600160ff1b82141561372957613729613293565b5060000390565b60008261374d57634e487b7160e01b600052601260045260246000fd5b500490565b60008161376157613761613293565b506000190190565b60005b8381101561378457818101518382015260200161376c565b838111156124a15750506000910152565b600082516137a7818460208701613769565b9190910192915050565b60208152600082518060208401526137d0816040850160208701613769565b601f01601f1916919091016040019291505056fea164736f6c634300080a000a",
  "devdoc": {
    "errors": {
      "ExchangeFundDepositableTokenAlreadyListed(address)": [
        {
          "details": "Thrown when trying to list depositable token that's already listed.",
          "params": {
            "token": "The address of the token contract."
          }
        }
      ],
      "ExchangeFundDepositableTokenNotListed(address)": [
        {
          "details": "Thrown when trying to unlist depositable token that's not listed.",
          "params": {
            "token": "The address of the token contract."
          }
        }
      ],
      "ExchangeFundDepositableTokenTooLargeDecimals(address,uint8)": [
        {
          "details": "Thrown when trying to list depositable token that has too large decimals.",
          "params": {
            "token": "The address of the token contract."
          }
        }
      ],
      "ExchangeFundDepositableTokenZeroDecimals(address)": [
        {
          "details": "Thrown when trying to list depositable token that has zero decimals.",
          "params": {
            "token": "The address of the token contract."
          }
        }
      ],
      "ExchangeFundNoNeedToService(address)": [
        {
          "details": "Thrown when there's no need to service the `token`/stablecoin pair cause the difference between target and pair price does not exceed servicing threshold.",
          "params": {
            "token": "The address of the token contract."
          }
        }
      ],
      "ExchangeFundTokenNotAllowedToBeDeposited(address)": [
        {
          "details": "Thrown when interacting with a token that's not allowed to be deposited.",
          "params": {
            "token": "The address of the token contract."
          }
        }
      ],
      "ExchangeFundTokenNotAllowedToBeSalvaged(address)": [
        {
          "details": "Thrown when trying to salvage one of depositable tokens or stablecoin.",
          "params": {
            "token": "The address of the token contract."
          }
        }
      ],
      "ExchangeFundTokenNotAllowedToBeSwapped(address)": [
        {
          "details": "Thrown when trying to swap token that's not allowed to be swapped.",
          "params": {
            "token": "The address of the token contract."
          }
        }
      ],
      "ExchangeFundTokenNotAllowedToBeWithdrawn(address)": [
        {
          "details": "Thrown when interacting with a token that's not allowed to be withdrawn.",
          "params": {
            "token": "The address of the token contract."
          }
        }
      ]
    },
    "kind": "dev",
    "methods": {},
    "version": 1
  },
  "userdoc": {
    "kind": "user",
    "methods": {},
    "version": 1
  },
  "storageLayout": {
    "storage": [
      {
        "astId": 6857,
        "contract": "contracts/ExchangeFund.sol:ExchangeFund",
        "label": "initializing",
        "offset": 0,
        "slot": "0",
        "type": "t_bool"
      },
      {
        "astId": 6859,
        "contract": "contracts/ExchangeFund.sol:ExchangeFund",
        "label": "initialized",
        "offset": 1,
        "slot": "0",
        "type": "t_bool"
      },
      {
        "astId": 4836,
        "contract": "contracts/ExchangeFund.sol:ExchangeFund",
        "label": "governor",
        "offset": 2,
        "slot": "0",
        "type": "t_address"
      },
      {
        "astId": 4838,
        "contract": "contracts/ExchangeFund.sol:ExchangeFund",
        "label": "pendingGovernor",
        "offset": 0,
        "slot": "1",
        "type": "t_address"
      },
      {
        "astId": 6575,
        "contract": "contracts/ExchangeFund.sol:ExchangeFund",
        "label": "status",
        "offset": 0,
        "slot": "2",
        "type": "t_uint256"
      },
      {
        "astId": 3367,
        "contract": "contracts/ExchangeFund.sol:ExchangeFund",
        "label": "wrappedNativeCurrency",
        "offset": 0,
        "slot": "3",
        "type": "t_contract(IERC20)5056"
      },
      {
        "astId": 3370,
        "contract": "contracts/ExchangeFund.sol:ExchangeFund",
        "label": "core",
        "offset": 0,
        "slot": "4",
        "type": "t_contract(ICore)2970"
      },
      {
        "astId": 3373,
        "contract": "contracts/ExchangeFund.sol:ExchangeFund",
        "label": "stablecoin",
        "offset": 0,
        "slot": "5",
        "type": "t_contract(IERC20)5056"
      },
      {
        "astId": 3376,
        "contract": "contracts/ExchangeFund.sol:ExchangeFund",
        "label": "priceOracle",
        "offset": 0,
        "slot": "6",
        "type": "t_contract(IPriceOracle)5146"
      },
      {
        "astId": 3379,
        "contract": "contracts/ExchangeFund.sol:ExchangeFund",
        "label": "uniswapV2Router",
        "offset": 0,
        "slot": "7",
        "type": "t_contract(IUniswapV2Router)5330"
      },
      {
        "astId": 3381,
        "contract": "contracts/ExchangeFund.sol:ExchangeFund",
        "label": "operator",
        "offset": 0,
        "slot": "8",
        "type": "t_address"
      },
      {
        "astId": 3383,
        "contract": "contracts/ExchangeFund.sol:ExchangeFund",
        "label": "slippageTolerance",
        "offset": 0,
        "slot": "9",
        "type": "t_uint256"
      },
      {
        "astId": 3385,
        "contract": "contracts/ExchangeFund.sol:ExchangeFund",
        "label": "swapDeadline",
        "offset": 0,
        "slot": "10",
        "type": "t_uint256"
      },
      {
        "astId": 3392,
        "contract": "contracts/ExchangeFund.sol:ExchangeFund",
        "label": "deposits",
        "offset": 0,
        "slot": "11",
        "type": "t_mapping(t_address,t_mapping(t_contract(IERC20)5056,t_uint256))"
      },
      {
        "astId": 3399,
        "contract": "contracts/ExchangeFund.sol:ExchangeFund",
        "label": "liquidity",
        "offset": 0,
        "slot": "12",
        "type": "t_mapping(t_address,t_mapping(t_contract(IERC20)5056,t_uint256))"
      },
      {
        "astId": 3404,
        "contract": "contracts/ExchangeFund.sol:ExchangeFund",
        "label": "depositableTokens",
        "offset": 0,
        "slot": "13",
        "type": "t_mapping(t_contract(IERC20)5056,t_bool)"
      },
      {
        "astId": 3407,
        "contract": "contracts/ExchangeFund.sol:ExchangeFund",
        "label": "depositableTokensSet",
        "offset": 0,
        "slot": "14",
        "type": "t_struct(Set)5887_storage"
      }
    ],
    "types": {
      "t_address": {
        "encoding": "inplace",
        "label": "address",
        "numberOfBytes": "20"
      },
      "t_array(t_address)dyn_storage": {
        "base": "t_address",
        "encoding": "dynamic_array",
        "label": "address[]",
        "numberOfBytes": "32"
      },
      "t_bool": {
        "encoding": "inplace",
        "label": "bool",
        "numberOfBytes": "1"
      },
      "t_contract(ICore)2970": {
        "encoding": "inplace",
        "label": "contract ICore",
        "numberOfBytes": "20"
      },
      "t_contract(IERC20)5056": {
        "encoding": "inplace",
        "label": "contract IERC20",
        "numberOfBytes": "20"
      },
      "t_contract(IPriceOracle)5146": {
        "encoding": "inplace",
        "label": "contract IPriceOracle",
        "numberOfBytes": "20"
      },
      "t_contract(IUniswapV2Router)5330": {
        "encoding": "inplace",
        "label": "contract IUniswapV2Router",
        "numberOfBytes": "20"
      },
      "t_mapping(t_address,t_mapping(t_contract(IERC20)5056,t_uint256))": {
        "encoding": "mapping",
        "key": "t_address",
        "label": "mapping(address => mapping(contract IERC20 => uint256))",
        "numberOfBytes": "32",
        "value": "t_mapping(t_contract(IERC20)5056,t_uint256)"
      },
      "t_mapping(t_address,t_uint256)": {
        "encoding": "mapping",
        "key": "t_address",
        "label": "mapping(address => uint256)",
        "numberOfBytes": "32",
        "value": "t_uint256"
      },
      "t_mapping(t_contract(IERC20)5056,t_bool)": {
        "encoding": "mapping",
        "key": "t_contract(IERC20)5056",
        "label": "mapping(contract IERC20 => bool)",
        "numberOfBytes": "32",
        "value": "t_bool"
      },
      "t_mapping(t_contract(IERC20)5056,t_uint256)": {
        "encoding": "mapping",
        "key": "t_contract(IERC20)5056",
        "label": "mapping(contract IERC20 => uint256)",
        "numberOfBytes": "32",
        "value": "t_uint256"
      },
      "t_struct(Set)5887_storage": {
        "encoding": "inplace",
        "label": "struct EnumerableAddressSet.Set",
        "members": [
          {
            "astId": 5882,
            "contract": "contracts/ExchangeFund.sol:ExchangeFund",
            "label": "elements",
            "offset": 0,
            "slot": "0",
            "type": "t_array(t_address)dyn_storage"
          },
          {
            "astId": 5886,
            "contract": "contracts/ExchangeFund.sol:ExchangeFund",
            "label": "indexes",
            "offset": 0,
            "slot": "1",
            "type": "t_mapping(t_address,t_uint256)"
          }
        ],
        "numberOfBytes": "64"
      },
      "t_uint256": {
        "encoding": "inplace",
        "label": "uint256",
        "numberOfBytes": "32"
      }
    }
  }
}