{
  "address": "0x3FCe37328Fa373B1DDa44d99eB533f5Ba44E0529",
  "abi": [
    {
      "inputs": [],
      "name": "GovernedCantGoverItself",
      "type": "error"
    },
    {
      "inputs": [],
      "name": "GovernedGovernorZeroAddress",
      "type": "error"
    },
    {
      "inputs": [],
      "name": "GovernedOnlyPendingGovernorAllowedToCall",
      "type": "error"
    },
    {
      "anonymous": false,
      "inputs": [
        {
          "indexed": true,
          "internalType": "address",
          "name": "governor",
          "type": "address"
        },
        {
          "indexed": true,
          "internalType": "address",
          "name": "newGovernor",
          "type": "address"
        }
      ],
      "name": "GovernanceTransited",
      "type": "event"
    },
    {
      "anonymous": false,
      "inputs": [
        {
          "indexed": true,
          "internalType": "address",
          "name": "governor",
          "type": "address"
        },
        {
          "indexed": true,
          "internalType": "address",
          "name": "newGovernor",
          "type": "address"
        }
      ],
      "name": "PendingGovernanceTransition",
      "type": "event"
    },
    {
      "inputs": [],
      "name": "acceptGovernance",
      "outputs": [],
      "stateMutability": "nonpayable",
      "type": "function"
    },
    {
      "inputs": [],
      "name": "governor",
      "outputs": [
        {
          "internalType": "address",
          "name": "",
          "type": "address"
        }
      ],
      "stateMutability": "view",
      "type": "function"
    },
    {
      "inputs": [],
      "name": "pendingGovernor",
      "outputs": [
        {
          "internalType": "address",
          "name": "",
          "type": "address"
        }
      ],
      "stateMutability": "view",
      "type": "function"
    },
    {
      "inputs": [
        {
          "internalType": "address",
          "name": "newGovernor",
          "type": "address"
        }
      ],
      "name": "transitGovernance",
      "outputs": [],
      "stateMutability": "nonpayable",
      "type": "function"
    }
  ],
  "transactionHash": "0x9a589b35468cbaf20c5c2b74f421ef8881c3ec63cb49513d3ef4cb8bfab3d8e8",
  "args": [],
  "solcInputHash": "ee81eac0b6770a7f9008729207f6bf31",
  "bytecode": "0x608060405234801561001057600080fd5b50600080546001600160a01b0319163390811782556040519091907fc606c9af1451cadeb333f6ff7b24a5540974f4e800bac274fa7fff9edc305cb1908290a3600080546040516001600160a01b0390911691907f564590b81987d147246f63910a8e1ee4eb09c4d64cc75ee975a8ffedfcc2210e908290a361021f806100986000396000f3fe608060405234801561001057600080fd5b506004361061004c5760003560e01c80630c340a2414610051578063238efcbc14610080578063631aa9e21461008a578063e3056a341461009d575b600080fd5b600054610064906001600160a01b031681565b6040516001600160a01b03909116815260200160405180910390f35b6100886100b0565b005b6100886100983660046101e2565b610133565b600154610064906001600160a01b031681565b6001546001600160a01b031633146100db5760405163aec80d4b60e01b815260040160405180910390fd5b6001546000805473ffffffffffffffffffffffffffffffffffffffff19166001600160a01b03909216918217815560405182917f564590b81987d147246f63910a8e1ee4eb09c4d64cc75ee975a8ffedfcc2210e91a3565b6001600160a01b03811661015a5760405163604b48b960e11b815260040160405180910390fd5b6001600160a01b038116301415610184576040516306b3e95d60e21b815260040160405180910390fd5b6001805473ffffffffffffffffffffffffffffffffffffffff19166001600160a01b0383811691821790925560008054604051929316917fc606c9af1451cadeb333f6ff7b24a5540974f4e800bac274fa7fff9edc305cb19190a350565b6000602082840312156101f457600080fd5b81356001600160a01b038116811461020b57600080fd5b939250505056fea164736f6c6343000807000a",
  "devdoc": {
    "kind": "dev",
    "methods": {},
    "version": 1
  },
  "userdoc": {
    "kind": "user",
    "methods": {},
    "version": 1
  },
  "storageLayout": {
    "storage": [
      {
        "astId": 3431,
        "contract": "contracts/InvestmentFund.sol:InvestmentFund",
        "label": "governor",
        "offset": 0,
        "slot": "0",
        "type": "t_address"
      },
      {
        "astId": 3433,
        "contract": "contracts/InvestmentFund.sol:InvestmentFund",
        "label": "pendingGovernor",
        "offset": 0,
        "slot": "1",
        "type": "t_address"
      }
    ],
    "types": {
      "t_address": {
        "encoding": "inplace",
        "label": "address",
        "numberOfBytes": "20"
      }
    }
  }
}