{
  "address": "0x0aCC11d67c866fd44ff58D2EC7b6bE42A0cFDE95",
  "abi": [
    {
      "inputs": [],
      "name": "BaksDAOBorrowBelowMinimumPrincipalAmount",
      "type": "error"
    },
    {
      "inputs": [],
      "name": "BaksDAOBorrowZeroAmount",
      "type": "error"
    },
    {
      "inputs": [
        {
          "internalType": "contract IERC20",
          "name": "token",
          "type": "address"
        }
      ],
      "name": "BaksDAOCollateralTokenAlreadyListed",
      "type": "error"
    },
    {
      "inputs": [
        {
          "internalType": "contract IERC20",
          "name": "token",
          "type": "address"
        }
      ],
      "name": "BaksDAOCollateralTokenNotListed",
      "type": "error"
    },
    {
      "inputs": [
        {
          "internalType": "contract IERC20",
          "name": "token",
          "type": "address"
        },
        {
          "internalType": "uint8",
          "name": "decimals",
          "type": "uint8"
        }
      ],
      "name": "BaksDAOCollateralTokenTooLargeDecimals",
      "type": "error"
    },
    {
      "inputs": [
        {
          "internalType": "contract IERC20",
          "name": "token",
          "type": "address"
        }
      ],
      "name": "BaksDAOCollateralTokenZeroDecimals",
      "type": "error"
    },
    {
      "inputs": [],
      "name": "BaksDAODepositZeroAmount",
      "type": "error"
    },
    {
      "inputs": [
        {
          "internalType": "uint256",
          "name": "id",
          "type": "uint256"
        }
      ],
      "name": "BaksDAOInactiveLoan",
      "type": "error"
    },
    {
      "inputs": [
        {
          "internalType": "contract IERC20",
          "name": "token",
          "type": "address"
        },
        {
          "internalType": "uint256",
          "name": "initialLoanToValueRatio",
          "type": "uint256"
        }
      ],
      "name": "BaksDAOInitialLoanToValueRatioTooHigh",
      "type": "error"
    },
    {
      "inputs": [
        {
          "internalType": "uint256",
          "name": "minimumRequiredSecurityAmount",
          "type": "uint256"
        }
      ],
      "name": "BaksDAOInsufficientSecurityAmount",
      "type": "error"
    },
    {
      "inputs": [
        {
          "internalType": "uint256",
          "name": "id",
          "type": "uint256"
        }
      ],
      "name": "BaksDAOLoanIsSubjectToLiquidation",
      "type": "error"
    },
    {
      "inputs": [
        {
          "internalType": "uint256",
          "name": "id",
          "type": "uint256"
        }
      ],
      "name": "BaksDAOLoanNotSubjectToLiquidation",
      "type": "error"
    },
    {
      "inputs": [
        {
          "internalType": "uint256",
          "name": "id",
          "type": "uint256"
        }
      ],
      "name": "BaksDAONativeCurrencyCollateralNotAllowed",
      "type": "error"
    },
    {
      "inputs": [],
      "name": "BaksDAONativeCurrencyTransferFailed",
      "type": "error"
    },
    {
      "inputs": [],
      "name": "BaksDAONoNeedToRebalance",
      "type": "error"
    },
    {
      "inputs": [],
      "name": "BaksDAOOnlyDepositaryAllowed",
      "type": "error"
    },
    {
      "inputs": [],
      "name": "BaksDAOPlainNativeCurrencyTransferNotAllowed",
      "type": "error"
    },
    {
      "inputs": [],
      "name": "BaksDAORepayZeroAmount",
      "type": "error"
    },
    {
      "inputs": [
        {
          "internalType": "uint256",
          "name": "shortage",
          "type": "uint256"
        }
      ],
      "name": "BaksDAOStabilizationFundOutOfFunds",
      "type": "error"
    },
    {
      "inputs": [
        {
          "internalType": "contract IERC20",
          "name": "token",
          "type": "address"
        }
      ],
      "name": "BaksDAOTokenNotAllowedAsCollateral",
      "type": "error"
    },
    {
      "inputs": [
        {
          "internalType": "contract IERC20",
          "name": "token",
          "type": "address"
        }
      ],
      "name": "BaksDAOTokenNotAllowedToBeSalvaged",
      "type": "error"
    },
    {
      "inputs": [
        {
          "internalType": "address",
          "name": "target",
          "type": "address"
        }
      ],
      "name": "CallToNonContract",
      "type": "error"
    },
    {
      "inputs": [],
      "name": "ContractAlreadyInitialized",
      "type": "error"
    },
    {
      "inputs": [
        {
          "internalType": "uint256",
          "name": "prod1",
          "type": "uint256"
        },
        {
          "internalType": "uint256",
          "name": "denominator",
          "type": "uint256"
        }
      ],
      "name": "FixedPointMathMulDivOverflow",
      "type": "error"
    },
    {
      "inputs": [],
      "name": "GovernedCantGoverItself",
      "type": "error"
    },
    {
      "inputs": [],
      "name": "GovernedGovernorZeroAddress",
      "type": "error"
    },
    {
      "inputs": [],
      "name": "GovernedOnlyGovernorAllowedToCall",
      "type": "error"
    },
    {
      "inputs": [],
      "name": "GovernedOnlyPendingGovernorAllowedToCall",
      "type": "error"
    },
    {
      "inputs": [],
      "name": "ReentrancyGuardReentrantCall",
      "type": "error"
    },
    {
      "inputs": [],
      "name": "SafeERC20NoReturnData",
      "type": "error"
    },
    {
      "anonymous": false,
      "inputs": [
        {
          "indexed": true,
          "internalType": "uint256",
          "name": "id",
          "type": "uint256"
        },
        {
          "indexed": true,
          "internalType": "address",
          "name": "borrower",
          "type": "address"
        },
        {
          "indexed": true,
          "internalType": "contract IERC20",
          "name": "token",
          "type": "address"
        },
        {
          "indexed": false,
          "internalType": "uint256",
          "name": "principalAmount",
          "type": "uint256"
        },
        {
          "indexed": false,
          "internalType": "uint256",
          "name": "collateralAmount",
          "type": "uint256"
        },
        {
          "indexed": false,
          "internalType": "uint256",
          "name": "initialLoanToValueRatio",
          "type": "uint256"
        }
      ],
      "name": "Borrow",
      "type": "event"
    },
    {
      "anonymous": false,
      "inputs": [
        {
          "indexed": true,
          "internalType": "contract IERC20",
          "name": "token",
          "type": "address"
        }
      ],
      "name": "CollateralTokenListed",
      "type": "event"
    },
    {
      "anonymous": false,
      "inputs": [
        {
          "indexed": true,
          "internalType": "contract IERC20",
          "name": "token",
          "type": "address"
        }
      ],
      "name": "CollateralTokenUnlisted",
      "type": "event"
    },
    {
      "anonymous": false,
      "inputs": [
        {
          "indexed": true,
          "internalType": "uint256",
          "name": "id",
          "type": "uint256"
        },
        {
          "indexed": false,
          "internalType": "uint256",
          "name": "collateralAmount",
          "type": "uint256"
        }
      ],
      "name": "Deposit",
      "type": "event"
    },
    {
      "anonymous": false,
      "inputs": [
        {
          "indexed": true,
          "internalType": "address",
          "name": "governor",
          "type": "address"
        },
        {
          "indexed": true,
          "internalType": "address",
          "name": "newGovernor",
          "type": "address"
        }
      ],
      "name": "GovernanceTransited",
      "type": "event"
    },
    {
      "anonymous": false,
      "inputs": [
        {
          "indexed": true,
          "internalType": "contract IERC20",
          "name": "token",
          "type": "address"
        },
        {
          "indexed": false,
          "internalType": "uint256",
          "name": "initialLoanToValueRatio",
          "type": "uint256"
        },
        {
          "indexed": false,
          "internalType": "uint256",
          "name": "newInitialLoanToValueRatio",
          "type": "uint256"
        }
      ],
      "name": "InitialLoanToValueRatioUpdated",
      "type": "event"
    },
    {
      "anonymous": false,
      "inputs": [
        {
          "indexed": true,
          "internalType": "uint256",
          "name": "id",
          "type": "uint256"
        }
      ],
      "name": "Liquidated",
      "type": "event"
    },
    {
      "anonymous": false,
      "inputs": [
        {
          "indexed": true,
          "internalType": "address",
          "name": "governor",
          "type": "address"
        },
        {
          "indexed": true,
          "internalType": "address",
          "name": "newGovernor",
          "type": "address"
        }
      ],
      "name": "PendingGovernanceTransition",
      "type": "event"
    },
    {
      "anonymous": false,
      "inputs": [
        {
          "indexed": false,
          "internalType": "int256",
          "name": "delta",
          "type": "int256"
        },
        {
          "indexed": false,
          "internalType": "uint256",
          "name": "voiceMinted",
          "type": "uint256"
        }
      ],
      "name": "Rebalance",
      "type": "event"
    },
    {
      "anonymous": false,
      "inputs": [
        {
          "indexed": true,
          "internalType": "uint256",
          "name": "id",
          "type": "uint256"
        }
      ],
      "name": "Repaid",
      "type": "event"
    },
    {
      "anonymous": false,
      "inputs": [
        {
          "indexed": true,
          "internalType": "uint256",
          "name": "id",
          "type": "uint256"
        },
        {
          "indexed": false,
          "internalType": "uint256",
          "name": "principalAmount",
          "type": "uint256"
        }
      ],
      "name": "Repay",
      "type": "event"
    },
    {
      "inputs": [],
      "name": "acceptGovernance",
      "outputs": [],
      "stateMutability": "nonpayable",
      "type": "function"
    },
    {
      "inputs": [
        {
          "internalType": "contract IERC20",
          "name": "collateralToken",
          "type": "address"
        },
        {
          "internalType": "uint256",
          "name": "amount",
          "type": "uint256"
        }
      ],
      "name": "borrow",
      "outputs": [
        {
          "components": [
            {
              "internalType": "uint256",
              "name": "id",
              "type": "uint256"
            },
            {
              "internalType": "bool",
              "name": "isActive",
              "type": "bool"
            },
            {
              "internalType": "address",
              "name": "borrower",
              "type": "address"
            },
            {
              "internalType": "contract IERC20",
              "name": "collateralToken",
              "type": "address"
            },
            {
              "internalType": "bool",
              "name": "isNativeCurrency",
              "type": "bool"
            },
            {
              "internalType": "contract IPriceOracle",
              "name": "priceOracle",
              "type": "address"
            },
            {
              "internalType": "uint256",
              "name": "interest",
              "type": "uint256"
            },
            {
              "internalType": "uint256",
              "name": "stabilizationFee",
              "type": "uint256"
            },
            {
              "internalType": "uint256",
              "name": "principalAmount",
              "type": "uint256"
            },
            {
              "internalType": "uint256",
              "name": "interestAmount",
              "type": "uint256"
            },
            {
              "internalType": "uint256",
              "name": "collateralAmount",
              "type": "uint256"
            },
            {
              "internalType": "uint256",
              "name": "lastInteractionAt",
              "type": "uint256"
            }
          ],
          "internalType": "struct Loan.Data",
          "name": "",
          "type": "tuple"
        }
      ],
      "stateMutability": "nonpayable",
      "type": "function"
    },
    {
      "inputs": [
        {
          "internalType": "uint256",
          "name": "amount",
          "type": "uint256"
        }
      ],
      "name": "borrowInNativeCurrency",
      "outputs": [
        {
          "components": [
            {
              "internalType": "uint256",
              "name": "id",
              "type": "uint256"
            },
            {
              "internalType": "bool",
              "name": "isActive",
              "type": "bool"
            },
            {
              "internalType": "address",
              "name": "borrower",
              "type": "address"
            },
            {
              "internalType": "contract IERC20",
              "name": "collateralToken",
              "type": "address"
            },
            {
              "internalType": "bool",
              "name": "isNativeCurrency",
              "type": "bool"
            },
            {
              "internalType": "contract IPriceOracle",
              "name": "priceOracle",
              "type": "address"
            },
            {
              "internalType": "uint256",
              "name": "interest",
              "type": "uint256"
            },
            {
              "internalType": "uint256",
              "name": "stabilizationFee",
              "type": "uint256"
            },
            {
              "internalType": "uint256",
              "name": "principalAmount",
              "type": "uint256"
            },
            {
              "internalType": "uint256",
              "name": "interestAmount",
              "type": "uint256"
            },
            {
              "internalType": "uint256",
              "name": "collateralAmount",
              "type": "uint256"
            },
            {
              "internalType": "uint256",
              "name": "lastInteractionAt",
              "type": "uint256"
            }
          ],
          "internalType": "struct Loan.Data",
          "name": "",
          "type": "tuple"
        }
      ],
      "stateMutability": "payable",
      "type": "function"
    },
    {
      "inputs": [
        {
          "internalType": "contract IERC20",
          "name": "collateralToken",
          "type": "address"
        },
        {
          "internalType": "uint256",
          "name": "collateralAmount",
          "type": "uint256"
        }
      ],
      "name": "calculateLoanByCollateralAmount",
      "outputs": [
        {
          "components": [
            {
              "internalType": "uint256",
              "name": "id",
              "type": "uint256"
            },
            {
              "internalType": "bool",
              "name": "isActive",
              "type": "bool"
            },
            {
              "internalType": "address",
              "name": "borrower",
              "type": "address"
            },
            {
              "internalType": "contract IERC20",
              "name": "collateralToken",
              "type": "address"
            },
            {
              "internalType": "bool",
              "name": "isNativeCurrency",
              "type": "bool"
            },
            {
              "internalType": "contract IPriceOracle",
              "name": "priceOracle",
              "type": "address"
            },
            {
              "internalType": "uint256",
              "name": "interest",
              "type": "uint256"
            },
            {
              "internalType": "uint256",
              "name": "stabilizationFee",
              "type": "uint256"
            },
            {
              "internalType": "uint256",
              "name": "principalAmount",
              "type": "uint256"
            },
            {
              "internalType": "uint256",
              "name": "interestAmount",
              "type": "uint256"
            },
            {
              "internalType": "uint256",
              "name": "collateralAmount",
              "type": "uint256"
            },
            {
              "internalType": "uint256",
              "name": "lastInteractionAt",
              "type": "uint256"
            }
          ],
          "internalType": "struct Loan.Data",
          "name": "loan",
          "type": "tuple"
        },
        {
          "internalType": "uint256",
          "name": "exchangeFee",
          "type": "uint256"
        },
        {
          "internalType": "uint256",
          "name": "developmentFee",
          "type": "uint256"
        },
        {
          "internalType": "uint256",
          "name": "stabilityFee",
          "type": "uint256"
        }
      ],
      "stateMutability": "view",
      "type": "function"
    },
    {
      "inputs": [
        {
          "internalType": "contract IERC20",
          "name": "collateralToken",
          "type": "address"
        },
        {
          "internalType": "uint256",
          "name": "principalAmount",
          "type": "uint256"
        }
      ],
      "name": "calculateLoanByPrincipalAmount",
      "outputs": [
        {
          "components": [
            {
              "internalType": "uint256",
              "name": "id",
              "type": "uint256"
            },
            {
              "internalType": "bool",
              "name": "isActive",
              "type": "bool"
            },
            {
              "internalType": "address",
              "name": "borrower",
              "type": "address"
            },
            {
              "internalType": "contract IERC20",
              "name": "collateralToken",
              "type": "address"
            },
            {
              "internalType": "bool",
              "name": "isNativeCurrency",
              "type": "bool"
            },
            {
              "internalType": "contract IPriceOracle",
              "name": "priceOracle",
              "type": "address"
            },
            {
              "internalType": "uint256",
              "name": "interest",
              "type": "uint256"
            },
            {
              "internalType": "uint256",
              "name": "stabilizationFee",
              "type": "uint256"
            },
            {
              "internalType": "uint256",
              "name": "principalAmount",
              "type": "uint256"
            },
            {
              "internalType": "uint256",
              "name": "interestAmount",
              "type": "uint256"
            },
            {
              "internalType": "uint256",
              "name": "collateralAmount",
              "type": "uint256"
            },
            {
              "internalType": "uint256",
              "name": "lastInteractionAt",
              "type": "uint256"
            }
          ],
          "internalType": "struct Loan.Data",
          "name": "loan",
          "type": "tuple"
        },
        {
          "internalType": "uint256",
          "name": "exchangeFee",
          "type": "uint256"
        },
        {
          "internalType": "uint256",
          "name": "developmentFee",
          "type": "uint256"
        },
        {
          "internalType": "uint256",
          "name": "stabilityFee",
          "type": "uint256"
        }
      ],
      "stateMutability": "view",
      "type": "function"
    },
    {
      "inputs": [
        {
          "internalType": "contract IERC20",
          "name": "collateralToken",
          "type": "address"
        },
        {
          "internalType": "uint256",
          "name": "securityAmount",
          "type": "uint256"
        }
      ],
      "name": "calculateLoanBySecurityAmount",
      "outputs": [
        {
          "components": [
            {
              "internalType": "uint256",
              "name": "id",
              "type": "uint256"
            },
            {
              "internalType": "bool",
              "name": "isActive",
              "type": "bool"
            },
            {
              "internalType": "address",
              "name": "borrower",
              "type": "address"
            },
            {
              "internalType": "contract IERC20",
              "name": "collateralToken",
              "type": "address"
            },
            {
              "internalType": "bool",
              "name": "isNativeCurrency",
              "type": "bool"
            },
            {
              "internalType": "contract IPriceOracle",
              "name": "priceOracle",
              "type": "address"
            },
            {
              "internalType": "uint256",
              "name": "interest",
              "type": "uint256"
            },
            {
              "internalType": "uint256",
              "name": "stabilizationFee",
              "type": "uint256"
            },
            {
              "internalType": "uint256",
              "name": "principalAmount",
              "type": "uint256"
            },
            {
              "internalType": "uint256",
              "name": "interestAmount",
              "type": "uint256"
            },
            {
              "internalType": "uint256",
              "name": "collateralAmount",
              "type": "uint256"
            },
            {
              "internalType": "uint256",
              "name": "lastInteractionAt",
              "type": "uint256"
            }
          ],
          "internalType": "struct Loan.Data",
          "name": "loan",
          "type": "tuple"
        },
        {
          "internalType": "uint256",
          "name": "exchangeFee",
          "type": "uint256"
        },
        {
          "internalType": "uint256",
          "name": "developmentFee",
          "type": "uint256"
        },
        {
          "internalType": "uint256",
          "name": "stabilityFee",
          "type": "uint256"
        }
      ],
      "stateMutability": "view",
      "type": "function"
    },
    {
      "inputs": [
        {
          "internalType": "uint256",
          "name": "loanId",
          "type": "uint256"
        }
      ],
      "name": "checkHealth",
      "outputs": [
        {
          "internalType": "enum Bank.Health",
          "name": "health",
          "type": "uint8"
        }
      ],
      "stateMutability": "view",
      "type": "function"
    },
    {
      "inputs": [
        {
          "internalType": "contract IERC20",
          "name": "",
          "type": "address"
        }
      ],
      "name": "collateralTokens",
      "outputs": [
        {
          "internalType": "contract IERC20",
          "name": "collateralToken",
          "type": "address"
        },
        {
          "internalType": "contract IPriceOracle",
          "name": "priceOracle",
          "type": "address"
        },
        {
          "internalType": "uint256",
          "name": "stabilityFee",
          "type": "uint256"
        },
        {
          "internalType": "uint256",
          "name": "stabilizationFee",
          "type": "uint256"
        },
        {
          "internalType": "uint256",
          "name": "exchangeFee",
          "type": "uint256"
        },
        {
          "internalType": "uint256",
          "name": "developmentFee",
          "type": "uint256"
        },
        {
          "internalType": "uint256",
          "name": "initialLoanToValueRatio",
          "type": "uint256"
        },
        {
          "internalType": "uint256",
          "name": "marginCallLoanToValueRatio",
          "type": "uint256"
        },
        {
          "internalType": "uint256",
          "name": "liquidationLoanToValueRatio",
          "type": "uint256"
        },
        {
          "internalType": "uint256",
          "name": "collateralAmount",
          "type": "uint256"
        }
      ],
      "stateMutability": "view",
      "type": "function"
    },
    {
      "inputs": [],
      "name": "core",
      "outputs": [
        {
          "internalType": "contract ICore",
          "name": "",
          "type": "address"
        }
      ],
      "stateMutability": "view",
      "type": "function"
    },
    {
      "inputs": [
        {
          "internalType": "uint256",
          "name": "loanId",
          "type": "uint256"
        },
        {
          "internalType": "uint256",
          "name": "amount",
          "type": "uint256"
        }
      ],
      "name": "deposit",
      "outputs": [],
      "stateMutability": "nonpayable",
      "type": "function"
    },
    {
      "inputs": [
        {
          "internalType": "uint256",
          "name": "loanId",
          "type": "uint256"
        }
      ],
      "name": "depositInNativeCurrency",
      "outputs": [],
      "stateMutability": "payable",
      "type": "function"
    },
    {
      "inputs": [],
      "name": "getAllowedCollateralTokens",
      "outputs": [
        {
          "components": [
            {
              "internalType": "contract IERC20",
              "name": "collateralToken",
              "type": "address"
            },
            {
              "internalType": "contract IPriceOracle",
              "name": "priceOracle",
              "type": "address"
            },
            {
              "internalType": "uint256",
              "name": "stabilityFee",
              "type": "uint256"
            },
            {
              "internalType": "uint256",
              "name": "stabilizationFee",
              "type": "uint256"
            },
            {
              "internalType": "uint256",
              "name": "exchangeFee",
              "type": "uint256"
            },
            {
              "internalType": "uint256",
              "name": "developmentFee",
              "type": "uint256"
            },
            {
              "internalType": "uint256",
              "name": "initialLoanToValueRatio",
              "type": "uint256"
            },
            {
              "internalType": "uint256",
              "name": "marginCallLoanToValueRatio",
              "type": "uint256"
            },
            {
              "internalType": "uint256",
              "name": "liquidationLoanToValueRatio",
              "type": "uint256"
            },
            {
              "internalType": "uint256",
              "name": "collateralAmount",
              "type": "uint256"
            }
          ],
          "internalType": "struct CollateralToken.Data[]",
          "name": "allowedCollateralTokens",
          "type": "tuple[]"
        }
      ],
      "stateMutability": "view",
      "type": "function"
    },
    {
      "inputs": [
        {
          "internalType": "uint256",
          "name": "loanId",
          "type": "uint256"
        }
      ],
      "name": "getLoanAccruedInterest",
      "outputs": [
        {
          "internalType": "uint256",
          "name": "accruedInterest",
          "type": "uint256"
        }
      ],
      "stateMutability": "view",
      "type": "function"
    },
    {
      "inputs": [
        {
          "internalType": "uint256",
          "name": "loanId",
          "type": "uint256"
        }
      ],
      "name": "getLoanToValueRatio",
      "outputs": [
        {
          "internalType": "uint256",
          "name": "loanToValueRatio",
          "type": "uint256"
        }
      ],
      "stateMutability": "view",
      "type": "function"
    },
    {
      "inputs": [
        {
          "internalType": "address",
          "name": "borrower",
          "type": "address"
        }
      ],
      "name": "getLoans",
      "outputs": [
        {
          "components": [
            {
              "internalType": "uint256",
              "name": "id",
              "type": "uint256"
            },
            {
              "internalType": "bool",
              "name": "isActive",
              "type": "bool"
            },
            {
              "internalType": "address",
              "name": "borrower",
              "type": "address"
            },
            {
              "internalType": "contract IERC20",
              "name": "collateralToken",
              "type": "address"
            },
            {
              "internalType": "bool",
              "name": "isNativeCurrency",
              "type": "bool"
            },
            {
              "internalType": "contract IPriceOracle",
              "name": "priceOracle",
              "type": "address"
            },
            {
              "internalType": "uint256",
              "name": "interest",
              "type": "uint256"
            },
            {
              "internalType": "uint256",
              "name": "stabilizationFee",
              "type": "uint256"
            },
            {
              "internalType": "uint256",
              "name": "principalAmount",
              "type": "uint256"
            },
            {
              "internalType": "uint256",
              "name": "interestAmount",
              "type": "uint256"
            },
            {
              "internalType": "uint256",
              "name": "collateralAmount",
              "type": "uint256"
            },
            {
              "internalType": "uint256",
              "name": "lastInteractionAt",
              "type": "uint256"
            }
          ],
          "internalType": "struct Loan.Data[]",
          "name": "_loans",
          "type": "tuple[]"
        }
      ],
      "stateMutability": "view",
      "type": "function"
    },
    {
      "inputs": [],
      "name": "getTotalValueLocked",
      "outputs": [
        {
          "internalType": "uint256",
          "name": "totalValueLocked",
          "type": "uint256"
        }
      ],
      "stateMutability": "view",
      "type": "function"
    },
    {
      "inputs": [],
      "name": "governor",
      "outputs": [
        {
          "internalType": "address",
          "name": "",
          "type": "address"
        }
      ],
      "stateMutability": "view",
      "type": "function"
    },
    {
      "inputs": [
        {
          "internalType": "contract ICore",
          "name": "_core",
          "type": "address"
        }
      ],
      "name": "initialize",
      "outputs": [],
      "stateMutability": "nonpayable",
      "type": "function"
    },
    {
      "inputs": [
        {
          "internalType": "uint256",
          "name": "loanId",
          "type": "uint256"
        }
      ],
      "name": "liquidate",
      "outputs": [],
      "stateMutability": "nonpayable",
      "type": "function"
    },
    {
      "inputs": [
        {
          "internalType": "contract IERC20",
          "name": "token",
          "type": "address"
        },
        {
          "internalType": "uint256",
          "name": "initialLoanToValueRatio",
          "type": "uint256"
        }
      ],
      "name": "listCollateralToken",
      "outputs": [],
      "stateMutability": "nonpayable",
      "type": "function"
    },
    {
      "inputs": [
        {
          "internalType": "address",
          "name": "",
          "type": "address"
        },
        {
          "internalType": "uint256",
          "name": "",
          "type": "uint256"
        }
      ],
      "name": "loanIds",
      "outputs": [
        {
          "internalType": "uint256",
          "name": "",
          "type": "uint256"
        }
      ],
      "stateMutability": "view",
      "type": "function"
    },
    {
      "inputs": [
        {
          "internalType": "uint256",
          "name": "",
          "type": "uint256"
        }
      ],
      "name": "loans",
      "outputs": [
        {
          "internalType": "uint256",
          "name": "id",
          "type": "uint256"
        },
        {
          "internalType": "bool",
          "name": "isActive",
          "type": "bool"
        },
        {
          "internalType": "address",
          "name": "borrower",
          "type": "address"
        },
        {
          "internalType": "contract IERC20",
          "name": "collateralToken",
          "type": "address"
        },
        {
          "internalType": "bool",
          "name": "isNativeCurrency",
          "type": "bool"
        },
        {
          "internalType": "contract IPriceOracle",
          "name": "priceOracle",
          "type": "address"
        },
        {
          "internalType": "uint256",
          "name": "interest",
          "type": "uint256"
        },
        {
          "internalType": "uint256",
          "name": "stabilizationFee",
          "type": "uint256"
        },
        {
          "internalType": "uint256",
          "name": "principalAmount",
          "type": "uint256"
        },
        {
          "internalType": "uint256",
          "name": "interestAmount",
          "type": "uint256"
        },
        {
          "internalType": "uint256",
          "name": "collateralAmount",
          "type": "uint256"
        },
        {
          "internalType": "uint256",
          "name": "lastInteractionAt",
          "type": "uint256"
        }
      ],
      "stateMutability": "view",
      "type": "function"
    },
    {
      "inputs": [
        {
          "internalType": "contract IERC20",
          "name": "token",
          "type": "address"
        },
        {
          "internalType": "uint256",
          "name": "amount",
          "type": "uint256"
        }
      ],
      "name": "onNewDeposit",
      "outputs": [],
      "stateMutability": "nonpayable",
      "type": "function"
    },
    {
      "inputs": [],
      "name": "pendingGovernor",
      "outputs": [
        {
          "internalType": "address",
          "name": "",
          "type": "address"
        }
      ],
      "stateMutability": "view",
      "type": "function"
    },
    {
      "inputs": [],
      "name": "rebalance",
      "outputs": [],
      "stateMutability": "nonpayable",
      "type": "function"
    },
    {
      "inputs": [
        {
          "internalType": "uint256",
          "name": "loanId",
          "type": "uint256"
        },
        {
          "internalType": "uint256",
          "name": "amount",
          "type": "uint256"
        }
      ],
      "name": "repay",
      "outputs": [],
      "stateMutability": "nonpayable",
      "type": "function"
    },
    {
      "inputs": [
        {
          "internalType": "contract IERC20",
          "name": "token",
          "type": "address"
        }
      ],
      "name": "salvage",
      "outputs": [],
      "stateMutability": "nonpayable",
      "type": "function"
    },
    {
      "inputs": [
        {
          "internalType": "contract IERC20",
          "name": "token",
          "type": "address"
        },
        {
          "internalType": "uint256",
          "name": "newInitialLoanToValueRatio",
          "type": "uint256"
        }
      ],
      "name": "setInitialLoanToValueRatio",
      "outputs": [],
      "stateMutability": "nonpayable",
      "type": "function"
    },
    {
      "inputs": [
        {
          "internalType": "address",
          "name": "newGovernor",
          "type": "address"
        },
        {
          "internalType": "bool",
          "name": "force",
          "type": "bool"
        }
      ],
      "name": "transitGovernance",
      "outputs": [],
      "stateMutability": "nonpayable",
      "type": "function"
    },
    {
      "inputs": [
        {
          "internalType": "contract IERC20",
          "name": "token",
          "type": "address"
        }
      ],
      "name": "unlistCollateralToken",
      "outputs": [],
      "stateMutability": "nonpayable",
      "type": "function"
    },
    {
      "stateMutability": "payable",
      "type": "receive"
    }
  ],
  "transactionHash": "0xdbd0537bc03dc7232a0c92c00fd1948dfae3a88b702840edf08ebd55acd582c2",
  "args": [],
  "solcInputHash": "f6458b6806c3745c33b8a0e0dafb00db",
  "bytecode": "0x608060405234801561001057600080fd5b5061557780620000216000396000f3fe6080604052600436106101d15760003560e01c8063b38e4816116100f7578063d988ef2011610095578063e2bbb15811610064578063e2bbb1581461070a578063e3056a341461072a578063e39302491461074a578063f2f4eb261461076a57600080fd5b8063d988ef2014610605578063ddc1252614610632578063dfe8f67114610652578063e1ec3c681461067f57600080fd5b8063cf176225116100d1578063cf176225146104e1578063cffbc29714610503578063d34cf64c146105d2578063d8aed145146105e557600080fd5b8063b38e481614610481578063c4d66de8146104a1578063c78bede8146104c157600080fd5b80634b8a35291161016f5780638e877d991161013e5780638e877d991461040c5780638fa1552e1461042c5780639a5872f41461044c578063b26025aa1461046c57600080fd5b80634b8a3529146103975780637d7c2a1c146103b7578063863a03e0146103cc57806387eae819146103ec57600080fd5b8063238efcbc116101ab578063238efcbc14610312578063415f12401461032757806344dbdd90146103475780634721f2db1461037757600080fd5b80630b5a017a146102835780630c340a24146102ac5780631cec9e75146102e457600080fd5b3661027e5760008054906101000a90046001600160a01b03166001600160a01b031663e7f3028c6040518163ffffffff1660e01b8152600401602060405180830381865afa158015610227573d6000803e3d6000fd5b505050506040513d601f19601f8201168201806040525081019061024b9190614f0a565b6001600160a01b0316336001600160a01b03161461027c57604051634b908c4f60e01b815260040160405180910390fd5b005b600080fd5b610296610291366004614f27565b61078a565b6040516102a39190614ffe565b60405180910390f35b3480156102b857600080fd5b506001546102cc906001600160a01b031681565b6040516001600160a01b0390911681526020016102a3565b3480156102f057600080fd5b506103046102ff366004614f27565b610a0f565b6040519081526020016102a3565b34801561031e57600080fd5b5061027c610af1565b34801561033357600080fd5b5061027c610342366004614f27565b610b6a565b34801561035357600080fd5b5061036761036236600461500d565b610fd4565b6040516102a39493929190615039565b34801561038357600080fd5b5061027c61039236600461500d565b611084565b3480156103a357600080fd5b506102966103b236600461500d565b611193565b3480156103c357600080fd5b5061027c6112d1565b3480156103d857600080fd5b5061027c6103e7366004615066565b61161b565b3480156103f857600080fd5b5061027c61040736600461500d565b6117fd565b34801561041857600080fd5b5061027c61042736600461500d565b611e7c565b34801561043857600080fd5b5061036761044736600461500d565b6123eb565b34801561045857600080fd5b50610304610467366004614f27565b61248b565b34801561047857600080fd5b50610304612566565b34801561048d57600080fd5b5061036761049c36600461500d565b612735565b3480156104ad57600080fd5b5061027c6104bc366004615066565b6127d5565b3480156104cd57600080fd5b5061027c6104dc366004615066565b6128dd565b3480156104ed57600080fd5b506104f66129f0565b6040516102a39190615083565b34801561050f57600080fd5b5061057d61051e366004615066565b600660208190526000918252604090912080546001820154600283015460038401546004850154600586015496860154600787015460088801546009909801546001600160a01b0397881699979096169794969395929491929091908a565b604080516001600160a01b039b8c1681529a90991660208b0152978901969096526060880194909452608087019290925260a086015260c085015260e0840152610100830152610120820152610140016102a3565b61027c6105e0366004614f27565b612ba2565b3480156105f157600080fd5b5061027c610600366004615132565b612da3565b34801561061157600080fd5b50610625610620366004615066565b613357565b6040516102a39190615154565b34801561063e57600080fd5b5061027c61064d3660046151b1565b61350f565b34801561065e57600080fd5b5061067261066d366004614f27565b6135f2565b6040516102a39190615200565b34801561068b57600080fd5b5061069f61069a366004614f27565b61370f565b604080519c8d529a151560208d01526001600160a01b03998a169a8c019a909a5296881660608b015294151560808a01529590921660a088015260c087015260e0860152610100850192909252610120840191909152610140830152610160820152610180016102a3565b34801561071657600080fd5b5061027c610725366004615132565b613791565b34801561073657600080fd5b506002546102cc906001600160a01b031681565b34801561075657600080fd5b5061030461076536600461500d565b613879565b34801561077657600080fd5b506000546102cc906001600160a01b031681565b610792614e75565b600260035414156107b657604051633ee5aeb560e01b815260040160405180910390fd5b600260035560008054604080516339fcc0a360e21b815290516001600160a01b039092169163e7f3028c916004808201926020929091908290030181865afa158015610806573d6000803e3d6000fd5b505050506040513d601f19601f8201168201806040525081019061082a9190614f0a565b905060008060008061083c8588612735565b600160808501526101408401519397509195509350915060009061086190839061523e565b90508034101561088c57604051631e59fc6f60e01b8152600481018290526024015b60405180910390fd5b856001600160a01b031663d0e30db0826040518263ffffffff1660e01b81526004016000604051808303818588803b1580156108c757600080fd5b505af11580156108db573d6000803e3d6000fd5b505050505061097c60008054906101000a90046001600160a01b03166001600160a01b031663570ca7356040518163ffffffff1660e01b8152600401602060405180830381865afa158015610934573d6000803e3d6000fd5b505050506040513d601f19601f820116820180604052508101906109589190614f0a565b61096b6001600160a01b038916856138aa565b6001600160a01b038916919061394c565b348181039082146109f257604051600090339083908381818185875af1925050503d80600081146109c9576040519150601f19603f3d011682016040523d82523d6000602084013e6109ce565b606091505b50509050806109f057604051638762150d60e01b815260040160405180910390fd5b505b6109fd8686866139c4565b60016003559998505050505050505050565b60008060048381548110610a2557610a25615256565b60009182526020918290206040805161018081018252600a90930290910180548352600181015460ff8082161515958501959095526001600160a01b036101009182900481169385019390935260028201548084166060860152600160a01b900490941615156080840152600381015490911660a0830152600481015460c0830152600581015460e0830152600681015492820192909252600782015461012082015260088201546101408201526009909101546101608201529050610aea81614074565b9392505050565b6002546001600160a01b03163314610b1c5760405163aec80d4b60e01b815260040160405180910390fd5b600254600180546001600160a01b0319166001600160a01b03909216918217905560405181907f564590b81987d147246f63910a8e1ee4eb09c4d64cc75ee975a8ffedfcc2210e90600090a3565b600454819081101580610ba4575060048181548110610b8b57610b8b615256565b600091825260209091206001600a90920201015460ff16155b15610bc5576040516372c4e6fd60e01b815260048101829052602401610883565b816002610bd1826135f2565b6002811115610be257610be26151ea565b14610c0257604051621e4f3560e61b815260048101829052602401610883565b600060048481548110610c1757610c17615256565b600091825260208083206008600a909302019182015460028301546001600160a01b03168452600690915260408320600901805492945090929091610c5d90849061526c565b909155505060005460408051638a2381d760e01b81529051610d05926001600160a01b031691638a2381d79160048083019260209291908290030181865afa158015610cad573d6000803e3d6000fd5b505050506040513d601f19601f82011682018060405250810190610cd19190614f0a565b60088301546002840154610cf0916001600160a01b03909116906138aa565b60028401546001600160a01b0316919061394c565b60008060009054906101000a90046001600160a01b03166001600160a01b0316634c4e61e96040518163ffffffff1660e01b8152600401602060405180830381865afa158015610d59573d6000803e3d6000fd5b505050506040513d601f19601f82011682018060405250810190610d7d9190614f0a565b604080516101808101825284548152600185015460ff808216151560208401526001600160a01b036101009283900481169484019490945260028701548085166060850152600160a01b90041615156080830152600386015490921660a0820152600485015460c0820152600585015460e0820152600685015491810191909152600784015461012082015260088401546101408201526009840154610160820152909150600090610e2e906140ca565b9050816001600160a01b0316639dc29fac60008054906101000a90046001600160a01b03166001600160a01b0316634046ebae6040518163ffffffff1660e01b8152600401602060405180830381865afa158015610e90573d6000803e3d6000fd5b505050506040513d601f19601f82011682018060405250810190610eb49190614f0a565b60068601546040516001600160e01b031960e085901b1681526001600160a01b0390921660048301526024820152604401600060405180830381600087803b158015610eff57600080fd5b505af1158015610f13573d6000803e3d6000fd5b50505050816001600160a01b0316639dc29fac30856006015484610f37919061526c565b6040516001600160e01b031960e085901b1681526001600160a01b0390921660048301526024820152604401600060405180830381600087803b158015610f7d57600080fd5b505af1158015610f91573d6000803e3d6000fd5b50505060018401805460ff191690555060405186907fc9e9d7cf3944e82f1fe222573e1c9acf5a2f6cd29aa9639bc8078065f091bb6b90600090a2505050505050565b610fdc614e75565b6001600160a01b0380841660009081526006602081815260408084208151610140810183528154871681526001820154909616928601929092526002820154908501526003810154606085015260048101546080850152600581015460a08501529081015460c0840152600781015460e084015260088101546101008401526009015461012083015290819081906110749086614155565b9299919850965090945092505050565b6001546001600160a01b031633146110af576040516305e7700560e51b815260040160405180910390fd5b6001600160a01b0382166000908152600860205260409020546110f057604051634cbfe6c960e11b81526001600160a01b0383166004820152602401610883565b6001600160a01b03821660009081526006602052604090206007810154821061113e57604051630d12026b60e31b81526001600160a01b038416600482015260248101839052604401610883565b6006810180549083905560408051828152602081018590526001600160a01b038616917fc6a8c526618a1ece6f5d33564501b92330c354faa23902079359e52c8efd72f391015b60405180910390a250505050565b61119b614e75565b6001600160a01b03831660009081526008602052604090205483906111de576040516308cfe49560e31b81526001600160a01b0382166004820152602401610883565b6000806000806111ee8888612735565b93509350935093506112943360008054906101000a90046001600160a01b03166001600160a01b031663570ca7356040518163ffffffff1660e01b8152600401602060405180830381865afa15801561124b573d6000803e3d6000fd5b505050506040513d601f19601f8201168201806040525081019061126f9190614f0a565b6112826001600160a01b038c16856138aa565b6001600160a01b038c16929190614251565b6112ba33306112828761014001518c6001600160a01b03166138aa90919063ffffffff16565b6112c58484846139c4565b98975050505050505050565b60008060009054906101000a90046001600160a01b03166001600160a01b0316634c4e61e96040518163ffffffff1660e01b8152600401602060405180830381865afa158015611325573d6000803e3d6000fd5b505050506040513d601f19601f820116820180604052508101906113499190614f0a565b90506000611355612566565b90506000826001600160a01b03166318160ddd6040518163ffffffff1660e01b8152600401602060405180830381865afa158015611397573d6000803e3d6000fd5b505050506040513d601f19601f820116820180604052508101906113bb9190615283565b905060006113c9838361529c565b905060006113d682614289565b905060006113e482856142a5565b905060008054906101000a90046001600160a01b03166001600160a01b031663ee0e54cb6040518163ffffffff1660e01b8152600401602060405180830381865afa158015611437573d6000803e3d6000fd5b505050506040513d601f19601f8201168201806040525081019061145b9190615283565b81101561147b576040516363b74cfb60e01b815260040160405180910390fd5b600083131561157957604051632770a7eb60e21b8152306004820152602481018390526001600160a01b03871690639dc29fac90604401600060405180830381600087803b1580156114cc57600080fd5b505af19250505080156114dd575060015b611574576040516370a0823160e01b81523060048201526000906001600160a01b038816906370a0823190602401602060405180830381865afa158015611528573d6000803e3d6000fd5b505050506040513d601f19601f8201168201806040525081019061154c9190615283565b9050611558818461526c565b60405163dc14e6f760e01b815260040161088391815260200190565b6115da565b6040516340c10f1960e01b8152306004820152602481018390526001600160a01b038716906340c10f1990604401600060405180830381600087803b1580156115c157600080fd5b505af11580156115d5573d6000803e3d6000fd5b505050505b60408051848152600060208201527fa28b2542ba9417cd775031511e43f71654a0b34eeb1acafae2c5d5a06b365abc910160405180910390a1505050505050565b6001546001600160a01b03163314611646576040516305e7700560e51b815260040160405180910390fd5b60005460408051634c4e61e960e01b8152905183926001600160a01b031691634c4e61e99160048083019260209291908290030181865afa15801561168f573d6000803e3d6000fd5b505050506040513d601f19601f820116820180604052508101906116b39190614f0a565b6001600160a01b0316816001600160a01b031614806116e957506001600160a01b03811660009081526008602052604090205415155b156117115760405162919e6d60e01b81526001600160a01b0383166004820152602401610883565b6000546040805163570ca73560e01b815290516117f9926001600160a01b03169163570ca7359160048083019260209291908290030181865afa15801561175c573d6000803e3d6000fd5b505050506040513d601f19601f820116820180604052508101906117809190614f0a565b6040516370a0823160e01b81523060048201526001600160a01b038516906370a0823190602401602060405180830381865afa1580156117c4573d6000803e3d6000fd5b505050506040513d601f19601f820116820180604052508101906117e89190615283565b6001600160a01b038516919061394c565b5050565b6001546001600160a01b03163314611828576040516305e7700560e51b815260040160405180910390fd5b6001600160a01b0382166000908152600860205260409020541561186a5760405163ca6d908160e01b81526001600160a01b0383166004820152602401610883565b60008054906101000a90046001600160a01b03166001600160a01b031663d876d98e6040518163ffffffff1660e01b8152600401602060405180830381865afa1580156118bb573d6000803e3d6000fd5b505050506040513d601f19601f820116820180604052508101906118df9190615283565b811061191057604051630d12026b60e31b81526001600160a01b038316600482015260248101829052604401610883565b6000826001600160a01b031663313ce5676040518163ffffffff1660e01b8152600401602060405180830381865afa158015611950573d6000803e3d6000fd5b505050506040513d601f19601f8201168201806040525081019061197491906152f4565b905060ff81166119a25760405163016058a160e51b81526001600160a01b0384166004820152602401610883565b601260ff821611156119db5760405163dbba24db60e01b81526001600160a01b038416600482015260ff82166024820152604401610883565b6119e66007846142ba565b15611e7757604051806101400160405280846001600160a01b0316815260200160008054906101000a90046001600160a01b03166001600160a01b0316632630c12f6040518163ffffffff1660e01b8152600401602060405180830381865afa158015611a57573d6000803e3d6000fd5b505050506040513d601f19601f82011682018060405250810190611a7b9190614f0a565b6001600160a01b0316815260200160008054906101000a90046001600160a01b03166001600160a01b031663361416e16040518163ffffffff1660e01b8152600401602060405180830381865afa158015611ada573d6000803e3d6000fd5b505050506040513d601f19601f82011682018060405250810190611afe9190615283565b815260200160008054906101000a90046001600160a01b03166001600160a01b03166342580dbe6040518163ffffffff1660e01b8152600401602060405180830381865afa158015611b54573d6000803e3d6000fd5b505050506040513d601f19601f82011682018060405250810190611b789190615283565b815260200160008054906101000a90046001600160a01b03166001600160a01b0316632ecd3be46040518163ffffffff1660e01b8152600401602060405180830381865afa158015611bce573d6000803e3d6000fd5b505050506040513d601f19601f82011682018060405250810190611bf29190615283565b815260200160008054906101000a90046001600160a01b03166001600160a01b031663a5f3d0036040518163ffffffff1660e01b8152600401602060405180830381865afa158015611c48573d6000803e3d6000fd5b505050506040513d601f19601f82011682018060405250810190611c6c9190615283565b815260200183815260200160008054906101000a90046001600160a01b03166001600160a01b031663d876d98e6040518163ffffffff1660e01b8152600401602060405180830381865afa158015611cc8573d6000803e3d6000fd5b505050506040513d601f19601f82011682018060405250810190611cec9190615283565b815260200160008054906101000a90046001600160a01b03166001600160a01b0316634433c5e86040518163ffffffff1660e01b8152600401602060405180830381865afa158015611d42573d6000803e3d6000fd5b505050506040513d601f19601f82011682018060405250810190611d669190615283565b8152600060209182018190526001600160a01b0386811680835260068085526040808520875181546001600160a01b031990811691871691909117825596880151600182018054909816951694909417909555858501516002840155606086015160038401556080860151600484015560a0860151600584015560c08601519083015560e0850151600783015561010085015160088301556101209094015160099091015590517f55dcc5a02a669292f3baba7762915a1182901a9c28a30cc15d3325afcbb4bccc9190a26040805160008152602081018490526001600160a01b038516917fc6a8c526618a1ece6f5d33564501b92330c354faa23902079359e52c8efd72f3910160405180910390a25b505050565b60008054906101000a90046001600160a01b03166001600160a01b0316630e0603786040518163ffffffff1660e01b8152600401602060405180830381865afa158015611ecd573d6000803e3d6000fd5b505050506040513d601f19601f82011682018060405250810190611ef19190614f0a565b6001600160a01b0316336001600160a01b031614611f225760405163c4ff0b3560e01b815260040160405180910390fd5b60008060009054906101000a90046001600160a01b03166001600160a01b0316634c4e61e96040518163ffffffff1660e01b8152600401602060405180830381865afa158015611f76573d6000803e3d6000fd5b505050506040513d601f19601f82011682018060405250810190611f9a9190614f0a565b9050806001600160a01b0316836001600160a01b03161415611fbb57505050565b60005460408051632630c12f60e01b8152905161209d926001600160a01b031691632630c12f9160048083019260209291908290030181865afa158015612006573d6000803e3d6000fd5b505050506040513d601f19601f8201168201806040525081019061202a9190614f0a565b604051630787c49960e21b81526001600160a01b0386811660048301529190911690631e1f126490602401602060405180830381865afa158015612072573d6000803e3d6000fd5b505050506040513d601f19601f820116820180604052508101906120969190615283565b839061432a565b9150806001600160a01b03166340c10f193061212e60008054906101000a90046001600160a01b03166001600160a01b03166342580dbe6040518163ffffffff1660e01b8152600401602060405180830381865afa158015612103573d6000803e3d6000fd5b505050506040513d601f19601f820116820180604052508101906121279190615283565b869061432a565b6040516001600160e01b031960e085901b1681526001600160a01b0390921660048301526024820152604401600060405180830381600087803b15801561217457600080fd5b505af1158015612188573d6000803e3d6000fd5b50505050806001600160a01b03166340c10f1960008054906101000a90046001600160a01b03166001600160a01b0316634c12d4716040518163ffffffff1660e01b8152600401602060405180830381865afa1580156121ec573d6000803e3d6000fd5b505050506040513d601f19601f820116820180604052508101906122109190614f0a565b60005460408051630bb34ef960e21b8152905161225b926001600160a01b031691632ecd3be49160048083019260209291908290030181865afa158015612103573d6000803e3d6000fd5b6040516001600160e01b031960e085901b1681526001600160a01b0390921660048301526024820152604401600060405180830381600087803b1580156122a157600080fd5b505af11580156122b5573d6000803e3d6000fd5b50505050806001600160a01b03166340c10f1960008054906101000a90046001600160a01b03166001600160a01b0316638a2381d76040518163ffffffff1660e01b8152600401602060405180830381865afa158015612319573d6000803e3d6000fd5b505050506040513d601f19601f8201168201806040525081019061233d9190614f0a565b6000546040805163a5f3d00360e01b81529051612388926001600160a01b03169163a5f3d0039160048083019260209291908290030181865afa158015612103573d6000803e3d6000fd5b6040516001600160e01b031960e085901b1681526001600160a01b0390921660048301526024820152604401600060405180830381600087803b1580156123ce57600080fd5b505af11580156123e2573d6000803e3d6000fd5b50505050505050565b6123f3614e75565b6001600160a01b0380841660009081526006602081815260408084208151610140810183528154871681526001820154909616928601929092526002820154908501526003810154606085015260048101546080850152600581015460a08501529081015460c0840152600781015460e0840152600881015461010084015260090154610120830152908190819061107490866143fa565b600080600483815481106124a1576124a1615256565b60009182526020918290206040805161018081018252600a90930290910180548352600181015460ff8082161515958501959095526001600160a01b036101009182900481169385019390935260028201548084166060860152600160a01b900490941615156080840152600381015490911660a0830152600481015460c0830152600581015460e0830152600681015492820192909252600782015461012082015260088201546101408201526009909101546101608201529050610aea816145c1565b6000805b60075481101561264f57612631600660006007600001848154811061259157612591615256565b60009182526020808320909101546001600160a01b0390811684528382019490945260409283019091208251610140810184528154851681526001820154909416918401919091526002810154918301919091526003810154606083015260048101546080830152600581015460a0830152600681015460c0830152600781015460e0830152600881015461010083015260090154610120820152614603565b61263b908361523e565b91508061264781615317565b91505061256a565b5060008054906101000a90046001600160a01b03166001600160a01b0316630e0603786040518163ffffffff1660e01b8152600401602060405180830381865afa1580156126a1573d6000803e3d6000fd5b505050506040513d601f19601f820116820180604052508101906126c59190614f0a565b6001600160a01b031663b26025aa6040518163ffffffff1660e01b8152600401602060405180830381865afa158015612702573d6000803e3d6000fd5b505050506040513d601f19601f820116820180604052508101906127269190615283565b612730908261523e565b905090565b61273d614e75565b6001600160a01b0380841660009081526006602081815260408084208151610140810183528154871681526001820154909616928601929092526002820154908501526003810154606085015260048101546080850152600581015460a08501529081015460c0840152600781015460e0840152600881015461010084015260090154610120830152908190819061107490866146a4565b600254600160a01b900460ff1615801561280a57506002547501000000000000000000000000000000000000000000900460ff165b1561282857604051631ee1e30360e21b815260040160405180910390fd5b600254600160a01b900460ff1615801561287d57600280547fffffffffffffffffffff0000ffffffffffffffffffffffffffffffffffffffff1675010100000000000000000000000000000000000000001790555b6128876001600355565b600080546001600160a01b0319166001600160a01b0384161790556128ab33614871565b80156117f957600280547fffffffffffffffffffffff00ffffffffffffffffffffffffffffffffffffffff1690555050565b6001546001600160a01b03163314612908576040516305e7700560e51b815260040160405180910390fd5b6001600160a01b03811660009081526008602052604090205461294957604051634cbfe6c960e11b81526001600160a01b0382166004820152602401610883565b6129546007826148bd565b156129ed576001600160a01b038116600081815260066020819052604080832080546001600160a01b0319908116825560018201805490911690556002810184905560038101849055600481018490556005810184905591820183905560078201839055600882018390556009909101829055517f6d08717837ebdfd34a4ddffe3e4566e0a68e8dde2464854e9242a8f7e6399a339190a25b50565b6007546060908067ffffffffffffffff811115612a0f57612a0f615332565b604051908082528060200260200182016040528015612aa857816020015b612a9560405180610140016040528060006001600160a01b0316815260200160006001600160a01b0316815260200160008152602001600081526020016000815260200160008152602001600081526020016000815260200160008152602001600081525090565b815260200190600190039081612a2d5790505b50915060005b81811015612b9d576006600060076000018381548110612ad057612ad0615256565b60009182526020808320909101546001600160a01b0390811684528382019490945260409283019091208251610140810184528154851681526001820154909416918401919091526002810154918301919091526003810154606083015260048101546080830152600581015460a0830152600681015460c0830152600781015460e08301526008810154610100830152600901546101208201528351849083908110612b7f57612b7f615256565b60200260200101819052508080612b9590615317565b915050612aae565b505090565b60026003541415612bc657604051633ee5aeb560e01b815260040160405180910390fd5b6002600355600454819081101580612c05575060048181548110612bec57612bec615256565b600091825260209091206001600a90920201015460ff16155b15612c26576040516372c4e6fd60e01b815260048101829052602401610883565b816002612c32826135f2565b6002811115612c4357612c436151ea565b1415612c6557604051633d240fc360e01b815260048101829052602401610883565b60008060009054906101000a90046001600160a01b03166001600160a01b031663e7f3028c6040518163ffffffff1660e01b8152600401602060405180830381865afa158015612cb9573d6000803e3d6000fd5b505050506040513d601f19601f82011682018060405250810190612cdd9190614f0a565b9050806001600160a01b031660048581548110612cfc57612cfc615256565b600091825260209091206002600a9092020101546001600160a01b031614612d3a57604051635d64f43b60e01b815260048101859052602401610883565b806001600160a01b031663d0e30db0346040518263ffffffff1660e01b81526004016000604051808303818588803b158015612d7557600080fd5b505af1158015612d89573d6000803e3d6000fd5b5050505050612d9884346149f6565b505060016003555050565b60026003541415612dc757604051633ee5aeb560e01b815260040160405180910390fd5b6002600355600454829081101580612e06575060048181548110612ded57612ded615256565b600091825260209091206001600a90920201015460ff16155b15612e27576040516372c4e6fd60e01b815260048101829052602401610883565b826002612e33826135f2565b6002811115612e4457612e446151ea565b1415612e6657604051633d240fc360e01b815260048101829052602401610883565b82612e8457604051631d23e67d60e21b815260040160405180910390fd5b600060048581548110612e9957612e99615256565b90600052602060002090600a02019050612eb281614ae8565b612ecf81600701548260060154612ec9919061523e565b85614bae565b93506000808583600701541015612f1d576007830154612eef908761526c565b90508260070154915080836006016000828254612f0c919061526c565b909155505060006007840155612f3a565b85915081836007016000828254612f34919061526c565b90915550505b60008060009054906101000a90046001600160a01b03166001600160a01b0316634c4e61e96040518163ffffffff1660e01b8152600401602060405180830381865afa158015612f8e573d6000803e3d6000fd5b505050506040513d601f19601f82011682018060405250810190612fb29190614f0a565b90508215613045576130453360008054906101000a90046001600160a01b03166001600160a01b0316638a2381d76040518163ffffffff1660e01b8152600401602060405180830381865afa15801561300f573d6000803e3d6000fd5b505050506040513d601f19601f820116820180604052508101906130339190614f0a565b6001600160a01b038416919086614251565b8115613060576130606001600160a01b038216333085614251565b4260098501556006840154156130af57877f552544cb36551120f07c66c5cd4b2987725a0c72198587f2ce796099bb66c58c886040516130a291815260200190565b60405180910390a2613348565b600884015460028501546000916130cf916001600160a01b0316906138aa565b600886015460028701546001600160a01b031660009081526006602052604081206009018054939450919261310590849061526c565b90915550506000600886015560058501546001600160a01b03831690639dc29fac903090613133908c61523e565b6040516001600160e01b031960e085901b1681526001600160a01b0390921660048301526024820152604401600060405180830381600087803b15801561317957600080fd5b505af115801561318d573d6000803e3d6000fd5b50505060018601805460ff191690555060405189907f33a382daad6aace935340a474d09fec82af4bec7e2b69518d283231b03a65f2490600090a26002850154600160a01b900460ff166132075760018501546002860154613202916001600160a01b0391821691610100909104168361394c565b613346565b60008054906101000a90046001600160a01b03166001600160a01b031663e7f3028c6040518163ffffffff1660e01b8152600401602060405180830381865afa158015613258573d6000803e3d6000fd5b505050506040513d601f19601f8201168201806040525081019061327c9190614f0a565b6001600160a01b0316632e1a7d4d826040518263ffffffff1660e01b81526004016132a991815260200190565b600060405180830381600087803b1580156132c357600080fd5b505af11580156132d7573d6000803e3d6000fd5b50506040516000925033915083908381818185875af1925050503d806000811461331d576040519150601f19603f3d011682016040523d82523d6000602084013e613322565b606091505b505090508061334457604051638762150d60e01b815260040160405180910390fd5b505b505b50506001600355505050505050565b6001600160a01b0381166000908152600560205260409020546060908067ffffffffffffffff81111561338c5761338c615332565b6040519080825280602002602001820160405280156133c557816020015b6133b2614e75565b8152602001906001900390816133aa5790505b50915060005b81811015613508576001600160a01b03841660009081526005602052604090208054600491908390811061340157613401615256565b90600052602060002001548154811061341c5761341c615256565b60009182526020918290206040805161018081018252600a90930290910180548352600181015460ff8082161515958501959095526001600160a01b036101009182900481169385019390935260028201548084166060860152600160a01b900490941615156080840152600381015490911660a0830152600481015460c0830152600581015460e08301526006810154928201929092526007820154610120820152600882015461014082015260099091015461016082015283518490839081106134ea576134ea615256565b6020026020010181905250808061350090615317565b9150506133cb565b5050919050565b6001546001600160a01b0316331461353a576040516305e7700560e51b815260040160405180910390fd5b6001600160a01b0382166135615760405163604b48b960e11b815260040160405180910390fd5b6001600160a01b03821630141561358b576040516306b3e95d60e21b815260040160405180910390fd5b600280546001600160a01b0319166001600160a01b038416179055806135e9576001546040516001600160a01b038085169216907fc606c9af1451cadeb333f6ff7b24a5540974f4e800bac274fa7fff9edc305cb190600090a35050565b6117f982614871565b6000806135fe83610a0f565b905060008054906101000a90046001600160a01b03166001600160a01b0316634433c5e86040518163ffffffff1660e01b8152600401602060405180830381865afa158015613651573d6000803e3d6000fd5b505050506040513d601f19601f820116820180604052508101906136759190615283565b8110156137065760008054906101000a90046001600160a01b03166001600160a01b031663d876d98e6040518163ffffffff1660e01b8152600401602060405180830381865afa1580156136cd573d6000803e3d6000fd5b505050506040513d601f19601f820116820180604052508101906136f19190615283565b8110156136ff576000610aea565b6001610aea565b60029392505050565b6004818154811061371f57600080fd5b60009182526020909120600a9091020180546001820154600283015460038401546004850154600586015460068701546007880154600889015460099099015497995060ff808816996101009098046001600160a01b039081169981891699600160a01b90990490921697961695908c565b6004548290811015806137cb5750600481815481106137b2576137b2615256565b600091825260209091206001600a90920201015460ff16155b156137ec576040516372c4e6fd60e01b815260048101829052602401610883565b8260026137f8826135f2565b6002811115613809576138096151ea565b141561382b57604051633d240fc360e01b815260048101829052602401610883565b6138693330856004888154811061384457613844615256565b600091825260209091206002600a9092020101546001600160a01b0316929190614251565b61387384846149f6565b50505050565b6005602052816000526040600020818154811061389557600080fd5b90600052602060002001600091509150505481565b600080836001600160a01b031663313ce5676040518163ffffffff1660e01b8152600401602060405180830381865afa1580156138eb573d6000803e3d6000fd5b505050506040513d601f19601f8201168201806040525081019061390f91906152f4565b61391a906012615348565b61392590600a61544f565b90508060011461394157613939818461545e565b915050613946565b829150505b92915050565b6040516001600160a01b038316602482015260448101829052611e7790849063a9059cbb60e01b906064015b60408051601f198184030181529190526020810180517bffffffffffffffffffffffffffffffffffffffffffffffffffffffff166001600160e01b031990931692909217909152614bc4565b6139cc614e75565b6101008401516139ef576040516379d1504360e01b815260040160405180910390fd5b60008054906101000a90046001600160a01b03166001600160a01b0316630b68a5806040518163ffffffff1660e01b8152600401602060405180830381865afa158015613a40573d6000803e3d6000fd5b505050506040513d601f19601f82011682018060405250810190613a649190615283565b8461010001511015613a8957604051631efe3f1960e11b815260040160405180910390fd5b60008060009054906101000a90046001600160a01b03166001600160a01b0316634c4e61e96040518163ffffffff1660e01b8152600401602060405180830381865afa158015613add573d6000803e3d6000fd5b505050506040513d601f19601f82011682018060405250810190613b019190614f0a565b60e08601516040516340c10f1960e01b815230600482015260248101919091529091506001600160a01b038216906340c10f1990604401600060405180830381600087803b158015613b5257600080fd5b505af1158015613b66573d6000803e3d6000fd5b50505050806001600160a01b03166340c10f1960008054906101000a90046001600160a01b03166001600160a01b0316634c12d4716040518163ffffffff1660e01b8152600401602060405180830381865afa158015613bca573d6000803e3d6000fd5b505050506040513d601f19601f82011682018060405250810190613bee9190614f0a565b6040516001600160e01b031960e084901b1681526001600160a01b03909116600482015260248101879052604401600060405180830381600087803b158015613c3657600080fd5b505af1158015613c4a573d6000803e3d6000fd5b50505050806001600160a01b03166340c10f1960008054906101000a90046001600160a01b03166001600160a01b0316638a2381d76040518163ffffffff1660e01b8152600401602060405180830381865afa158015613cae573d6000803e3d6000fd5b505050506040513d601f19601f82011682018060405250810190613cd29190614f0a565b6040516001600160e01b031960e084901b1681526001600160a01b03909116600482015260248101869052604401600060405180830381600087803b158015613d1a57600080fd5b505af1158015613d2e573d6000803e3d6000fd5b5050505060408581015161010087015191516340c10f1960e01b81526001600160a01b03918216600482015260248101929092528216906340c10f1990604401600060405180830381600087803b158015613d8857600080fd5b505af1158015613d9c573d6000803e3d6000fd5b505060048054808952600054604080516361c97bb360e11b815290519295506001600160a01b03909116935063c392f76692818101926020929091908290030181865afa158015613df1573d6000803e3d6000fd5b505050506040513d601f19601f82011682018060405250810190613e159190615283565b8660c001818152505060048690806001815401808255809150506001900390600052602060002090600a02016000909190919091506000820151816000015560208201518160010160006101000a81548160ff02191690831515021790555060408201518160010160016101000a8154816001600160a01b0302191690836001600160a01b0316021790555060608201518160020160006101000a8154816001600160a01b0302191690836001600160a01b0316021790555060808201518160020160146101000a81548160ff02191690831515021790555060a08201518160030160006101000a8154816001600160a01b0302191690836001600160a01b0316021790555060c0820151816004015560e08201518160050155610100820151816006015561012082015181600701556101408201518160080155610160820151816009015550506005600087604001516001600160a01b03166001600160a01b031681526020019081526020016000208190806001815401808255809150506001900390600052602060002001600090919091909150558561014001516006600088606001516001600160a01b03166001600160a01b031681526020019081526020016000206009016000828254613fee919061523e565b90915550506060808701516040808901516101008a01516101408b01516001600160a01b0394851660008181526006602081815291879020015486519485529084019290925293820152919392169184917f1c719a9a8ef2d44db7255e8d65b4a18a23f44758d6ebc0d6b80fe018d25433fb910160405180910390a45093949350505050565b60008161010001516000141561408c57506000919050565b61014082015161409f5750600019919050565b6139466140ab836140ca565b6140b4846145c1565b8461010001516140c4919061523e565b906142a5565b60a08101516060820151604051630787c49960e21b81526001600160a01b03918216600482015260009283921690631e1f126490602401602060405180830381865afa15801561411e573d6000803e3d6000fd5b505050506040513d601f19601f820116820180604052508101906141429190615283565b610140840151909150610aea908261432a565b61415d614e75565b60208301518351604051630787c49960e21b81526001600160a01b0391821660048201526000928392839283929190911690631e1f126490602401602060405180830381865afa1580156141b5573d6000803e3d6000fd5b505050506040513d601f19601f820116820180604052508101906141d99190615283565b905060006141f88860c00151896040015161432a90919063ffffffff16565b90506000614232614211670de0b6b3a76400008461523e565b6140c48561422c8d60c001518d61432a90919063ffffffff16565b9061432a565b905061423e89826146a4565b929c919b50995090975095505050505050565b6040516001600160a01b03808516602483015283166044820152606481018290526138739085906323b872dd60e01b90608401613978565b6000808212156142a15761429c82615480565b613946565b5090565b6000610aea83670de0b6b3a764000084614c4e565b6001600160a01b0381166000908152600183016020526040812054156142e257506000613946565b508154600180820184556000848152602080822090930180546001600160a01b0319166001600160a01b03959095169485179055845493815293810190915260409092205590565b60008080600019848609848602925082811083820303915050670de0b6b3a7640000811061437c5760405163072fa3c960e31b815260048101829052670de0b6b3a76400006024820152604401610883565b600080670de0b6b3a76400008688099150506706f05b59d3b1ffff8111826143b65780670de0b6b3a7640000850401945050505050613946565b620400008285030493909111909103600160ee1b02919091177faccb18165bd6fe31ae1cf318dc5b51eee0e1ba569b88cd74c1773b91fac106690201905092915050565b614402614e75565b60208301518351604051630787c49960e21b81526001600160a01b0391821660048201526000928392839283929190911690631e1f126490602401602060405180830381865afa15801561445a573d6000803e3d6000fd5b505050506040513d601f19601f8201168201806040525081019061447e9190615283565b9050600061449d8261422c8a60c001518a61432a90919063ffffffff16565b60c08901519091506000906144c8906140c46144c182670de0b6b3a764000061526c565b859061432a565b905060006144e38a606001518361432a90919063ffffffff16565b90506144fc8a608001518361432a90919063ffffffff16565b96506145158a60a001518361432a90919063ffffffff16565b9550614532846140c4858d6040015161432a90919063ffffffff16565b945060405180610180016040528060008152602001600115158152602001336001600160a01b031681526020018b600001516001600160a01b031681526020016000151581526020018b602001516001600160a01b0316815260200160008152602001828152602001848152602001600081526020018a81526020014281525097505050505092959194509250565b60006139466145ef670de0b6b3a76400006301e187e0856101600151426145e8919061526c565b9190614c4e565b60c084015161010085015161422c9161432a565b60008161012001516000141561461b57506000919050565b60208201518251604051630787c49960e21b81526001600160a01b0391821660048201526000929190911690631e1f126490602401602060405180830381865afa15801561466d573d6000803e3d6000fd5b505050506040513d601f19601f820116820180604052508101906146919190615283565b610120840151909150610aea908261432a565b6146ac614e75565b60208301518351604051630787c49960e21b81526001600160a01b0391821660048201526000928392839283929190911690631e1f126490602401602060405180830381865afa158015614704573d6000803e3d6000fd5b505050506040513d601f19601f820116820180604052508101906147289190615283565b60c0880151909150600090614753906140c461474c82670de0b6b3a764000061526c565b8a9061432a565b9050600061476e89606001518361432a90919063ffffffff16565b905061478789608001518361432a90919063ffffffff16565b95506147a08960a001518361432a90919063ffffffff16565b945060006147c56147be858c60c0015161432a90919063ffffffff16565b8a906142a5565b90506147e2846140c48b8d6040015161432a90919063ffffffff16565b945060405180610180016040528060008152602001600115158152602001336001600160a01b031681526020018b600001516001600160a01b031681526020016000151581526020018b602001516001600160a01b03168152602001600081526020018381526020018a8152602001600081526020018281526020014281525097505050505092959194509250565b600180546001600160a01b0319166001600160a01b03831690811790915560405181907f564590b81987d147246f63910a8e1ee4eb09c4d64cc75ee975a8ffedfcc2210e90600090a350565b6001600160a01b0381166000908152600183016020526040812054806148e7576000915050613946565b60006148f460018361526c565b905060006001614902875490565b61490c919061526c565b905080821461499857600086600001828154811061492c5761492c615256565b60009182526020909120015487546001600160a01b039091169150819088908590811061495b5761495b615256565b600091825260208083209190910180546001600160a01b0319166001600160a01b0394851617905592909116815260018801909152604090208390555b85548690806149a9576149a961549d565b60008281526020808220830160001990810180546001600160a01b03191690559092019092556001600160a01b038716825260018881019091526040822091909155935050505092915050565b80614a1457604051635491c16d60e01b815260040160405180910390fd5b600060048381548110614a2957614a29615256565b90600052602060002090600a02019050614a4281614ae8565b6002810154600090614a5d906001600160a01b031684614d0a565b905080826008016000828254614a73919061523e565b90915550504260098084019190915560028301546001600160a01b031660009081526006602052604081209091018054839290614ab190849061523e565b909155505060405181815284907fa3af609bf46297028ce551832669030f9effef2b02606d02cbbcc40fe6b47c5590602001611185565b604080516101808101825282548152600183015460ff808216151560208401526001600160a01b036101009283900481169484019490945260028501548085166060850152600160a01b90041615156080830152600384015490921660a0820152600483015460c0820152600583015460e0820152600683015491810191909152600782015461012082015260088201546101408201526009820154610160820152614b93906145c1565b816007016000828254614ba6919061523e565b909155505050565b6000818310614bbd5781610aea565b5090919050565b6040805180820190915260208082527f5361666545524332303a206c6f772d6c6576656c2063616c6c206661696c6564908201528290600090614c13906001600160a01b038416908590614d99565b8051909150156138735780806020019051810190614c3191906154b3565b61387357604051639b8d506160e01b815260040160405180910390fd5b60008080600019858709858702925082811083820303915050838110614c915760405163072fa3c960e31b81526004810182905260248101859052604401610883565b80614ca157508290049050610aea565b60008486880960026001871981018816978890046003810283188082028403028082028403028082028403028082028403028082028403029081029092039091026000889003889004909101858311909403939093029303949094049190911702949350505050565b600080836001600160a01b031663313ce5676040518163ffffffff1660e01b8152600401602060405180830381865afa158015614d4b573d6000803e3d6000fd5b505050506040513d601f19601f82011682018060405250810190614d6f91906152f4565b614d7a906012615348565b614d8590600a61544f565b9050806001146139415761393981846154d0565b6060833b614dc55760405163dc5dd7fd60e01b81526001600160a01b0385166004820152602401610883565b600080856001600160a01b031685604051614de0919061551b565b6000604051808303816000865af19150503d8060008114614e1d576040519150601f19603f3d011682016040523d82523d6000602084013e614e22565b606091505b5091509150614e32828286614e3c565b9695505050505050565b60608315614e4b575081610aea565b825115614e5b5782518060208501fd5b8160405162461bcd60e51b81526004016108839190615537565b6040518061018001604052806000815260200160001515815260200160006001600160a01b0316815260200160006001600160a01b0316815260200160001515815260200160006001600160a01b031681526020016000815260200160008152602001600081526020016000815260200160008152602001600081525090565b6001600160a01b03811681146129ed57600080fd5b600060208284031215614f1c57600080fd5b8151610aea81614ef5565b600060208284031215614f3957600080fd5b5035919050565b805182526020810151614f57602084018215159052565b506040810151614f7260408401826001600160a01b03169052565b506060810151614f8d60608401826001600160a01b03169052565b506080810151614fa1608084018215159052565b5060a0810151614fbc60a08401826001600160a01b03169052565b5060c0818101519083015260e0808201519083015261010080820151908301526101208082015190830152610140808201519083015261016090810151910152565b61018081016139468284614f40565b6000806040838503121561502057600080fd5b823561502b81614ef5565b946020939093013593505050565b6101e081016150488287614f40565b84610180830152836101a0830152826101c083015295945050505050565b60006020828403121561507857600080fd5b8135610aea81614ef5565b602080825282518282018190526000919060409081850190868401855b8281101561512557815180516001600160a01b0390811686528782015116878601528581015186860152606080820151908601526080808201519086015260a0808201519086015260c0808201519086015260e080820151908601526101008082015190860152610120908101519085015261014090930192908501906001016150a0565b5091979650505050505050565b6000806040838503121561514557600080fd5b50508035926020909101359150565b6020808252825182820181905260009190848201906040850190845b8181101561519757615183838551614f40565b928401926101809290920191600101615170565b50909695505050505050565b80151581146129ed57600080fd5b600080604083850312156151c457600080fd5b82356151cf81614ef5565b915060208301356151df816151a3565b809150509250929050565b634e487b7160e01b600052602160045260246000fd5b602081016003831061522257634e487b7160e01b600052602160045260246000fd5b91905290565b634e487b7160e01b600052601160045260246000fd5b6000821982111561525157615251615228565b500190565b634e487b7160e01b600052603260045260246000fd5b60008282101561527e5761527e615228565b500390565b60006020828403121561529557600080fd5b5051919050565b60008083128015600160ff1b8501841216156152ba576152ba615228565b837f7fffffffffffffffffffffffffffffffffffffffffffffffffffffffffffffff0183138116156152ee576152ee615228565b50500390565b60006020828403121561530657600080fd5b815160ff81168114610aea57600080fd5b600060001982141561532b5761532b615228565b5060010190565b634e487b7160e01b600052604160045260246000fd5b600060ff821660ff84168082101561536257615362615228565b90039392505050565b600181815b808511156153a657816000190482111561538c5761538c615228565b8085161561539957918102915b93841c9390800290615370565b509250929050565b6000826153bd57506001613946565b816153ca57506000613946565b81600181146153e057600281146153ea57615406565b6001915050613946565b60ff8411156153fb576153fb615228565b50506001821b613946565b5060208310610133831016604e8410600b8410161715615429575081810a613946565b615433838361536b565b806000190482111561544757615447615228565b029392505050565b6000610aea60ff8416836153ae565b60008261547b57634e487b7160e01b600052601260045260246000fd5b500490565b6000600160ff1b82141561549657615496615228565b5060000390565b634e487b7160e01b600052603160045260246000fd5b6000602082840312156154c557600080fd5b8151610aea816151a3565b60008160001904831182151516156154ea576154ea615228565b500290565b60005b8381101561550a5781810151838201526020016154f2565b838111156138735750506000910152565b6000825161552d8184602087016154ef565b9190910192915050565b60208152600082518060208401526155568160408501602087016154ef565b601f01601f1916919091016040019291505056fea164736f6c634300080a000a",
  "devdoc": {
    "author": "BaksDAO",
    "errors": {
      "BaksDAOBorrowBelowMinimumPrincipalAmount()": [
        {
          "details": "Thrown when trying to borrow below minimum principal amount."
        }
      ],
      "BaksDAOBorrowZeroAmount()": [
        {
          "details": "Thrown when borrowing a zero amount of stablecoin."
        }
      ],
      "BaksDAOCollateralTokenAlreadyListed(address)": [
        {
          "details": "Thrown when trying to list collateral token that's already listed.",
          "params": {
            "token": "The address of the collateral token contract."
          }
        }
      ],
      "BaksDAOCollateralTokenNotListed(address)": [
        {
          "details": "Thrown when trying to unlist collateral token that's not listed.",
          "params": {
            "token": "The address of the collateral token contract."
          }
        }
      ],
      "BaksDAOCollateralTokenTooLargeDecimals(address,uint8)": [
        {
          "details": "Thrown when trying to list collateral token that has too large decimals.",
          "params": {
            "token": "The address of the collateral token contract."
          }
        }
      ],
      "BaksDAOCollateralTokenZeroDecimals(address)": [
        {
          "details": "Thrown when trying to list collateral token that has zero decimals.",
          "params": {
            "token": "The address of the collateral token contract."
          }
        }
      ],
      "BaksDAODepositZeroAmount()": [
        {
          "details": "Thrown when depositing a zero amount of collateral token."
        }
      ],
      "BaksDAOInactiveLoan(uint256)": [
        {
          "details": "Thrown when trying to interact with inactive loan with `id` id.",
          "params": {
            "id": "The loan id."
          }
        }
      ],
      "BaksDAOInitialLoanToValueRatioTooHigh(address,uint256)": [
        {
          "details": "Thrown when trying to set initial loan-to-value ratio that higher than margin call or liquidation ones.",
          "params": {
            "initialLoanToValueRatio": "The initial loan-to-value ratio that was tried to set.",
            "token": "The address of the collateral token contract."
          }
        }
      ],
      "BaksDAOLoanIsSubjectToLiquidation(uint256)": [
        {
          "details": "Thrown when trying to interact with loan with `id` id that is subject to liquidation.",
          "params": {
            "id": "The loan id."
          }
        }
      ],
      "BaksDAOLoanNotSubjectToLiquidation(uint256)": [
        {
          "details": "Thrown when trying to liquidate healthy loan with `id` id.",
          "params": {
            "id": "The loan id."
          }
        }
      ],
      "BaksDAONativeCurrencyCollateralNotAllowed(uint256)": [
        {
          "details": "Thrown when trying to deposit native currency collateral to the non-wrapped native currency token loan with `id` id.",
          "params": {
            "id": "The loan id."
          }
        }
      ],
      "BaksDAONoNeedToRebalance()": [
        {
          "details": "Thrown when there's no need to rebalance the platform."
        }
      ],
      "BaksDAORepayZeroAmount()": [
        {
          "details": "Thrown when repaying a zero amount of stablecoin."
        }
      ],
      "BaksDAOStabilizationFundOutOfFunds(uint256)": [
        {
          "details": "Thrown when trying to rebalance the platform and there is a shortage of funds to burn.",
          "params": {
            "shortage": "Shoratge of funds to burn."
          }
        }
      ],
      "BaksDAOTokenNotAllowedAsCollateral(address)": [
        {
          "details": "Thrown when interacting with a token that's not allowed as collateral.",
          "params": {
            "token": "The address of the collateral token contract."
          }
        }
      ],
      "BaksDAOTokenNotAllowedToBeSalvaged(address)": [
        {
          "details": "Thrown when trying to salvage one of allowed collateral tokens or stablecoin.",
          "params": {
            "token": "The address of the token contract."
          }
        }
      ]
    },
    "kind": "dev",
    "methods": {
      "borrow(address,uint256)": {
        "details": "The caller must have allowed this contract to spend a sufficient amount of collateral tokens to cover initial loan-to-value ratio.",
        "params": {
          "amount": "The amount of stablecoin to borrow and issue.",
          "collateralToken": "The address of the collateral token contract."
        }
      },
      "deposit(uint256,uint256)": {
        "details": "The caller must have allowed this contract to spend `amount` of collateral tokens.",
        "params": {
          "amount": "The amount of collateral token to deposit.",
          "loanId": "The loan id."
        }
      },
      "repay(uint256,uint256)": {
        "params": {
          "amount": "The amount of stablecoin to repay.",
          "loanId": "The loan id."
        }
      }
    },
    "title": "Core smart contract of BaksDAO platform",
    "version": 1
  },
  "userdoc": {
    "kind": "user",
    "methods": {
      "borrow(address,uint256)": {
        "notice": "Increases loan's principal on `collateralToken` collateral token and mints `amount` of stablecoin."
      },
      "borrowInNativeCurrency(uint256)": {
        "notice": "Increases loan's principal on wrapped native currency token and mints stablecoin."
      },
      "deposit(uint256,uint256)": {
        "notice": "Deposits `amount` of collateral token to loan with `id` id."
      },
      "depositInNativeCurrency(uint256)": {
        "notice": "Deposits wrapped native currency token to loan with `id` id."
      },
      "repay(uint256,uint256)": {
        "notice": "Decreases principal of loan with `id` id by `amount` of stablecoin."
      }
    },
    "notice": "You should use this contract to interact with the BaksDAO platform.Only this contract can issue BAKS and BDV tokens.",
    "version": 1
  },
  "storageLayout": {
    "storage": [
      {
        "astId": 3805,
        "contract": "contracts/Bank.sol:Bank",
        "label": "core",
        "offset": 0,
        "slot": "0",
        "type": "t_contract(ICore)3214"
      },
      {
        "astId": 7101,
        "contract": "contracts/Bank.sol:Bank",
        "label": "governor",
        "offset": 0,
        "slot": "1",
        "type": "t_address"
      },
      {
        "astId": 7103,
        "contract": "contracts/Bank.sol:Bank",
        "label": "pendingGovernor",
        "offset": 0,
        "slot": "2",
        "type": "t_address"
      },
      {
        "astId": 10868,
        "contract": "contracts/Bank.sol:Bank",
        "label": "initializing",
        "offset": 20,
        "slot": "2",
        "type": "t_bool"
      },
      {
        "astId": 10870,
        "contract": "contracts/Bank.sol:Bank",
        "label": "initialized",
        "offset": 21,
        "slot": "2",
        "type": "t_bool"
      },
      {
        "astId": 10586,
        "contract": "contracts/Bank.sol:Bank",
        "label": "status",
        "offset": 0,
        "slot": "3",
        "type": "t_uint256"
      },
      {
        "astId": 195,
        "contract": "contracts/Bank.sol:Bank",
        "label": "loans",
        "offset": 0,
        "slot": "4",
        "type": "t_array(t_struct(Data)9889_storage)dyn_storage"
      },
      {
        "astId": 200,
        "contract": "contracts/Bank.sol:Bank",
        "label": "loanIds",
        "offset": 0,
        "slot": "5",
        "type": "t_mapping(t_address,t_array(t_uint256)dyn_storage)"
      },
      {
        "astId": 206,
        "contract": "contracts/Bank.sol:Bank",
        "label": "collateralTokens",
        "offset": 0,
        "slot": "6",
        "type": "t_mapping(t_contract(IERC20)7339,t_struct(Data)7869_storage)"
      },
      {
        "astId": 209,
        "contract": "contracts/Bank.sol:Bank",
        "label": "collateralTokensSet",
        "offset": 0,
        "slot": "7",
        "type": "t_struct(Set)8232_storage"
      }
    ],
    "types": {
      "t_address": {
        "encoding": "inplace",
        "label": "address",
        "numberOfBytes": "20"
      },
      "t_array(t_address)dyn_storage": {
        "base": "t_address",
        "encoding": "dynamic_array",
        "label": "address[]",
        "numberOfBytes": "32"
      },
      "t_array(t_struct(Data)9889_storage)dyn_storage": {
        "base": "t_struct(Data)9889_storage",
        "encoding": "dynamic_array",
        "label": "struct Loan.Data[]",
        "numberOfBytes": "32"
      },
      "t_array(t_uint256)dyn_storage": {
        "base": "t_uint256",
        "encoding": "dynamic_array",
        "label": "uint256[]",
        "numberOfBytes": "32"
      },
      "t_bool": {
        "encoding": "inplace",
        "label": "bool",
        "numberOfBytes": "1"
      },
      "t_contract(ICore)3214": {
        "encoding": "inplace",
        "label": "contract ICore",
        "numberOfBytes": "20"
      },
      "t_contract(IERC20)7339": {
        "encoding": "inplace",
        "label": "contract IERC20",
        "numberOfBytes": "20"
      },
      "t_contract(IPriceOracle)7450": {
        "encoding": "inplace",
        "label": "contract IPriceOracle",
        "numberOfBytes": "20"
      },
      "t_mapping(t_address,t_array(t_uint256)dyn_storage)": {
        "encoding": "mapping",
        "key": "t_address",
        "label": "mapping(address => uint256[])",
        "numberOfBytes": "32",
        "value": "t_array(t_uint256)dyn_storage"
      },
      "t_mapping(t_address,t_uint256)": {
        "encoding": "mapping",
        "key": "t_address",
        "label": "mapping(address => uint256)",
        "numberOfBytes": "32",
        "value": "t_uint256"
      },
      "t_mapping(t_contract(IERC20)7339,t_struct(Data)7869_storage)": {
        "encoding": "mapping",
        "key": "t_contract(IERC20)7339",
        "label": "mapping(contract IERC20 => struct CollateralToken.Data)",
        "numberOfBytes": "32",
        "value": "t_struct(Data)7869_storage"
      },
      "t_struct(Data)7869_storage": {
        "encoding": "inplace",
        "label": "struct CollateralToken.Data",
        "members": [
          {
            "astId": 7849,
            "contract": "contracts/Bank.sol:Bank",
            "label": "collateralToken",
            "offset": 0,
            "slot": "0",
            "type": "t_contract(IERC20)7339"
          },
          {
            "astId": 7852,
            "contract": "contracts/Bank.sol:Bank",
            "label": "priceOracle",
            "offset": 0,
            "slot": "1",
            "type": "t_contract(IPriceOracle)7450"
          },
          {
            "astId": 7854,
            "contract": "contracts/Bank.sol:Bank",
            "label": "stabilityFee",
            "offset": 0,
            "slot": "2",
            "type": "t_uint256"
          },
          {
            "astId": 7856,
            "contract": "contracts/Bank.sol:Bank",
            "label": "stabilizationFee",
            "offset": 0,
            "slot": "3",
            "type": "t_uint256"
          },
          {
            "astId": 7858,
            "contract": "contracts/Bank.sol:Bank",
            "label": "exchangeFee",
            "offset": 0,
            "slot": "4",
            "type": "t_uint256"
          },
          {
            "astId": 7860,
            "contract": "contracts/Bank.sol:Bank",
            "label": "developmentFee",
            "offset": 0,
            "slot": "5",
            "type": "t_uint256"
          },
          {
            "astId": 7862,
            "contract": "contracts/Bank.sol:Bank",
            "label": "initialLoanToValueRatio",
            "offset": 0,
            "slot": "6",
            "type": "t_uint256"
          },
          {
            "astId": 7864,
            "contract": "contracts/Bank.sol:Bank",
            "label": "marginCallLoanToValueRatio",
            "offset": 0,
            "slot": "7",
            "type": "t_uint256"
          },
          {
            "astId": 7866,
            "contract": "contracts/Bank.sol:Bank",
            "label": "liquidationLoanToValueRatio",
            "offset": 0,
            "slot": "8",
            "type": "t_uint256"
          },
          {
            "astId": 7868,
            "contract": "contracts/Bank.sol:Bank",
            "label": "collateralAmount",
            "offset": 0,
            "slot": "9",
            "type": "t_uint256"
          }
        ],
        "numberOfBytes": "320"
      },
      "t_struct(Data)9889_storage": {
        "encoding": "inplace",
        "label": "struct Loan.Data",
        "members": [
          {
            "astId": 9864,
            "contract": "contracts/Bank.sol:Bank",
            "label": "id",
            "offset": 0,
            "slot": "0",
            "type": "t_uint256"
          },
          {
            "astId": 9866,
            "contract": "contracts/Bank.sol:Bank",
            "label": "isActive",
            "offset": 0,
            "slot": "1",
            "type": "t_bool"
          },
          {
            "astId": 9868,
            "contract": "contracts/Bank.sol:Bank",
            "label": "borrower",
            "offset": 1,
            "slot": "1",
            "type": "t_address"
          },
          {
            "astId": 9871,
            "contract": "contracts/Bank.sol:Bank",
            "label": "collateralToken",
            "offset": 0,
            "slot": "2",
            "type": "t_contract(IERC20)7339"
          },
          {
            "astId": 9873,
            "contract": "contracts/Bank.sol:Bank",
            "label": "isNativeCurrency",
            "offset": 20,
            "slot": "2",
            "type": "t_bool"
          },
          {
            "astId": 9876,
            "contract": "contracts/Bank.sol:Bank",
            "label": "priceOracle",
            "offset": 0,
            "slot": "3",
            "type": "t_contract(IPriceOracle)7450"
          },
          {
            "astId": 9878,
            "contract": "contracts/Bank.sol:Bank",
            "label": "interest",
            "offset": 0,
            "slot": "4",
            "type": "t_uint256"
          },
          {
            "astId": 9880,
            "contract": "contracts/Bank.sol:Bank",
            "label": "stabilizationFee",
            "offset": 0,
            "slot": "5",
            "type": "t_uint256"
          },
          {
            "astId": 9882,
            "contract": "contracts/Bank.sol:Bank",
            "label": "principalAmount",
            "offset": 0,
            "slot": "6",
            "type": "t_uint256"
          },
          {
            "astId": 9884,
            "contract": "contracts/Bank.sol:Bank",
            "label": "interestAmount",
            "offset": 0,
            "slot": "7",
            "type": "t_uint256"
          },
          {
            "astId": 9886,
            "contract": "contracts/Bank.sol:Bank",
            "label": "collateralAmount",
            "offset": 0,
            "slot": "8",
            "type": "t_uint256"
          },
          {
            "astId": 9888,
            "contract": "contracts/Bank.sol:Bank",
            "label": "lastInteractionAt",
            "offset": 0,
            "slot": "9",
            "type": "t_uint256"
          }
        ],
        "numberOfBytes": "320"
      },
      "t_struct(Set)8232_storage": {
        "encoding": "inplace",
        "label": "struct EnumerableAddressSet.Set",
        "members": [
          {
            "astId": 8227,
            "contract": "contracts/Bank.sol:Bank",
            "label": "elements",
            "offset": 0,
            "slot": "0",
            "type": "t_array(t_address)dyn_storage"
          },
          {
            "astId": 8231,
            "contract": "contracts/Bank.sol:Bank",
            "label": "indexes",
            "offset": 0,
            "slot": "1",
            "type": "t_mapping(t_address,t_uint256)"
          }
        ],
        "numberOfBytes": "64"
      },
      "t_uint256": {
        "encoding": "inplace",
        "label": "uint256",
        "numberOfBytes": "32"
      }
    }
  }
}