{
  "address": "0xFc440209bA8DFc8295E5c5b67e157A9b35235c9F",
  "abi": [
    {
      "inputs": [
        {
          "internalType": "uint256",
          "name": "stabilizationFee",
          "type": "uint256"
        },
        {
          "internalType": "uint256",
          "name": "exchangeFee",
          "type": "uint256"
        },
        {
          "internalType": "uint256",
          "name": "developmentFee",
          "type": "uint256"
        }
      ],
      "name": "BaksDAOPlatformFeesDontSumUpToOne",
      "type": "error"
    },
    {
      "inputs": [],
      "name": "ContractAlreadyInitialized",
      "type": "error"
    },
    {
      "inputs": [],
      "name": "GovernedCantGoverItself",
      "type": "error"
    },
    {
      "inputs": [],
      "name": "GovernedGovernorZeroAddress",
      "type": "error"
    },
    {
      "inputs": [],
      "name": "GovernedOnlyGovernorAllowedToCall",
      "type": "error"
    },
    {
      "inputs": [],
      "name": "GovernedOnlyPendingGovernorAllowedToCall",
      "type": "error"
    },
    {
      "anonymous": false,
      "inputs": [
        {
          "indexed": false,
          "internalType": "address",
          "name": "baks",
          "type": "address"
        },
        {
          "indexed": false,
          "internalType": "address",
          "name": "newBaks",
          "type": "address"
        }
      ],
      "name": "BaksUpdated",
      "type": "event"
    },
    {
      "anonymous": false,
      "inputs": [
        {
          "indexed": false,
          "internalType": "address",
          "name": "bank",
          "type": "address"
        },
        {
          "indexed": false,
          "internalType": "address",
          "name": "newBank",
          "type": "address"
        }
      ],
      "name": "BankUpdated",
      "type": "event"
    },
    {
      "anonymous": false,
      "inputs": [
        {
          "indexed": false,
          "internalType": "address",
          "name": "depositary",
          "type": "address"
        },
        {
          "indexed": false,
          "internalType": "address",
          "name": "newDepositary",
          "type": "address"
        }
      ],
      "name": "DepositaryUpdated",
      "type": "event"
    },
    {
      "anonymous": false,
      "inputs": [
        {
          "indexed": false,
          "internalType": "address",
          "name": "developmentFund",
          "type": "address"
        },
        {
          "indexed": false,
          "internalType": "address",
          "name": "newDevelopmentFund",
          "type": "address"
        }
      ],
      "name": "DevelopmentFundUpdated",
      "type": "event"
    },
    {
      "anonymous": false,
      "inputs": [
        {
          "indexed": false,
          "internalType": "uint256",
          "name": "earlyWithdrawalFee",
          "type": "uint256"
        },
        {
          "indexed": false,
          "internalType": "uint256",
          "name": "newEarlyWithdrawalFee",
          "type": "uint256"
        }
      ],
      "name": "EarlyWithdrawalFeeUpdated",
      "type": "event"
    },
    {
      "anonymous": false,
      "inputs": [
        {
          "indexed": false,
          "internalType": "uint256",
          "name": "earlyWithdrawalPeriod",
          "type": "uint256"
        },
        {
          "indexed": false,
          "internalType": "uint256",
          "name": "newEarlyWithdrawalPeriod",
          "type": "uint256"
        }
      ],
      "name": "EarlyWithdrawalPeriodUpdated",
      "type": "event"
    },
    {
      "anonymous": false,
      "inputs": [
        {
          "indexed": false,
          "internalType": "address",
          "name": "exchangeFund",
          "type": "address"
        },
        {
          "indexed": false,
          "internalType": "address",
          "name": "newExchangeFund",
          "type": "address"
        }
      ],
      "name": "ExchangeFundUpdated",
      "type": "event"
    },
    {
      "anonymous": false,
      "inputs": [
        {
          "indexed": true,
          "internalType": "address",
          "name": "governor",
          "type": "address"
        },
        {
          "indexed": true,
          "internalType": "address",
          "name": "newGovernor",
          "type": "address"
        }
      ],
      "name": "GovernanceTransited",
      "type": "event"
    },
    {
      "anonymous": false,
      "inputs": [
        {
          "indexed": false,
          "internalType": "uint256",
          "name": "interest",
          "type": "uint256"
        },
        {
          "indexed": false,
          "internalType": "uint256",
          "name": "newInterest",
          "type": "uint256"
        }
      ],
      "name": "InterestUpdated",
      "type": "event"
    },
    {
      "anonymous": false,
      "inputs": [
        {
          "indexed": false,
          "internalType": "uint256",
          "name": "liqudationLoanToValueRatio",
          "type": "uint256"
        },
        {
          "indexed": false,
          "internalType": "uint256",
          "name": "newLiquidationLoanToValueRatio",
          "type": "uint256"
        }
      ],
      "name": "LiquidationLoanToValueRatioUpdated",
      "type": "event"
    },
    {
      "anonymous": false,
      "inputs": [
        {
          "indexed": false,
          "internalType": "address",
          "name": "liquidator",
          "type": "address"
        },
        {
          "indexed": false,
          "internalType": "address",
          "name": "newLiquidator",
          "type": "address"
        }
      ],
      "name": "LiquidatorUpdated",
      "type": "event"
    },
    {
      "anonymous": false,
      "inputs": [
        {
          "indexed": false,
          "internalType": "uint256",
          "name": "marginCallLoanToValueRatio",
          "type": "uint256"
        },
        {
          "indexed": false,
          "internalType": "uint256",
          "name": "newMarginCallLoanToValueRatio",
          "type": "uint256"
        }
      ],
      "name": "MarginCallLoanToValueRatioUpdated",
      "type": "event"
    },
    {
      "anonymous": false,
      "inputs": [
        {
          "indexed": false,
          "internalType": "uint256",
          "name": "minimumLiquidity",
          "type": "uint256"
        },
        {
          "indexed": false,
          "internalType": "uint256",
          "name": "newMinimumLiquidity",
          "type": "uint256"
        }
      ],
      "name": "MinimumLiquidityUpdated",
      "type": "event"
    },
    {
      "anonymous": false,
      "inputs": [
        {
          "indexed": false,
          "internalType": "uint256",
          "name": "minimumMagisterDepositAmount",
          "type": "uint256"
        },
        {
          "indexed": false,
          "internalType": "uint256",
          "name": "newMinimumMagisterDepositAmount",
          "type": "uint256"
        }
      ],
      "name": "MinimumMagisterDepositAmountUpdated",
      "type": "event"
    },
    {
      "anonymous": false,
      "inputs": [
        {
          "indexed": false,
          "internalType": "uint256",
          "name": "minimumPrincipalAmount",
          "type": "uint256"
        },
        {
          "indexed": false,
          "internalType": "uint256",
          "name": "newMinimumPrincipalAmount",
          "type": "uint256"
        }
      ],
      "name": "MinimumPrincipalAmountUpdated",
      "type": "event"
    },
    {
      "anonymous": false,
      "inputs": [
        {
          "indexed": false,
          "internalType": "address",
          "name": "operator",
          "type": "address"
        },
        {
          "indexed": false,
          "internalType": "address",
          "name": "newOperator",
          "type": "address"
        }
      ],
      "name": "OperatorUpdated",
      "type": "event"
    },
    {
      "anonymous": false,
      "inputs": [
        {
          "indexed": true,
          "internalType": "address",
          "name": "governor",
          "type": "address"
        },
        {
          "indexed": true,
          "internalType": "address",
          "name": "newGovernor",
          "type": "address"
        }
      ],
      "name": "PendingGovernanceTransition",
      "type": "event"
    },
    {
      "anonymous": false,
      "inputs": [
        {
          "indexed": false,
          "internalType": "uint256",
          "name": "stabilizationFee",
          "type": "uint256"
        },
        {
          "indexed": false,
          "internalType": "uint256",
          "name": "newStabilizationFee",
          "type": "uint256"
        },
        {
          "indexed": false,
          "internalType": "uint256",
          "name": "exchangeFee",
          "type": "uint256"
        },
        {
          "indexed": false,
          "internalType": "uint256",
          "name": "newExchangeFee",
          "type": "uint256"
        },
        {
          "indexed": false,
          "internalType": "uint256",
          "name": "developmentFee",
          "type": "uint256"
        },
        {
          "indexed": false,
          "internalType": "uint256",
          "name": "newDevelopmentFee",
          "type": "uint256"
        }
      ],
      "name": "PlatformFeesUpdated",
      "type": "event"
    },
    {
      "anonymous": false,
      "inputs": [
        {
          "indexed": false,
          "internalType": "address",
          "name": "priceOracle",
          "type": "address"
        },
        {
          "indexed": false,
          "internalType": "address",
          "name": "newPriceOracle",
          "type": "address"
        }
      ],
      "name": "PriceOracleUpdated",
      "type": "event"
    },
    {
      "anonymous": false,
      "inputs": [
        {
          "indexed": false,
          "internalType": "uint256",
          "name": "rebalancingThreshold",
          "type": "uint256"
        },
        {
          "indexed": false,
          "internalType": "uint256",
          "name": "newRebalancingThreshold",
          "type": "uint256"
        }
      ],
      "name": "RebalancingThresholdUpdated",
      "type": "event"
    },
    {
      "anonymous": false,
      "inputs": [
        {
          "indexed": false,
          "internalType": "uint256",
          "name": "servicingThreshold",
          "type": "uint256"
        },
        {
          "indexed": false,
          "internalType": "uint256",
          "name": "newServicingThreshold",
          "type": "uint256"
        }
      ],
      "name": "ServicingThresholdUpdated",
      "type": "event"
    },
    {
      "anonymous": false,
      "inputs": [
        {
          "indexed": false,
          "internalType": "uint256",
          "name": "stabilityFee",
          "type": "uint256"
        },
        {
          "indexed": false,
          "internalType": "uint256",
          "name": "newStabilityFee",
          "type": "uint256"
        }
      ],
      "name": "StabilityFeeUpdated",
      "type": "event"
    },
    {
      "anonymous": false,
      "inputs": [
        {
          "indexed": false,
          "internalType": "address",
          "name": "voice",
          "type": "address"
        },
        {
          "indexed": false,
          "internalType": "address",
          "name": "newVoice",
          "type": "address"
        }
      ],
      "name": "VoiceUpdated",
      "type": "event"
    },
    {
      "anonymous": false,
      "inputs": [
        {
          "indexed": false,
          "internalType": "uint256",
          "name": "workFee",
          "type": "uint256"
        },
        {
          "indexed": false,
          "internalType": "uint256",
          "name": "newWorkFee",
          "type": "uint256"
        }
      ],
      "name": "WorkFeeUpdated",
      "type": "event"
    },
    {
      "inputs": [],
      "name": "acceptGovernance",
      "outputs": [],
      "stateMutability": "nonpayable",
      "type": "function"
    },
    {
      "inputs": [],
      "name": "baks",
      "outputs": [
        {
          "internalType": "address",
          "name": "",
          "type": "address"
        }
      ],
      "stateMutability": "view",
      "type": "function"
    },
    {
      "inputs": [],
      "name": "bank",
      "outputs": [
        {
          "internalType": "address",
          "name": "",
          "type": "address"
        }
      ],
      "stateMutability": "view",
      "type": "function"
    },
    {
      "inputs": [],
      "name": "depositary",
      "outputs": [
        {
          "internalType": "address",
          "name": "",
          "type": "address"
        }
      ],
      "stateMutability": "view",
      "type": "function"
    },
    {
      "inputs": [],
      "name": "developmentFee",
      "outputs": [
        {
          "internalType": "uint256",
          "name": "",
          "type": "uint256"
        }
      ],
      "stateMutability": "view",
      "type": "function"
    },
    {
      "inputs": [],
      "name": "developmentFund",
      "outputs": [
        {
          "internalType": "address",
          "name": "",
          "type": "address"
        }
      ],
      "stateMutability": "view",
      "type": "function"
    },
    {
      "inputs": [],
      "name": "earlyWithdrawalFee",
      "outputs": [
        {
          "internalType": "uint256",
          "name": "",
          "type": "uint256"
        }
      ],
      "stateMutability": "view",
      "type": "function"
    },
    {
      "inputs": [],
      "name": "earlyWithdrawalPeriod",
      "outputs": [
        {
          "internalType": "uint256",
          "name": "",
          "type": "uint256"
        }
      ],
      "stateMutability": "view",
      "type": "function"
    },
    {
      "inputs": [],
      "name": "exchangeFee",
      "outputs": [
        {
          "internalType": "uint256",
          "name": "",
          "type": "uint256"
        }
      ],
      "stateMutability": "view",
      "type": "function"
    },
    {
      "inputs": [],
      "name": "exchangeFund",
      "outputs": [
        {
          "internalType": "address",
          "name": "",
          "type": "address"
        }
      ],
      "stateMutability": "view",
      "type": "function"
    },
    {
      "inputs": [],
      "name": "governor",
      "outputs": [
        {
          "internalType": "address",
          "name": "",
          "type": "address"
        }
      ],
      "stateMutability": "view",
      "type": "function"
    },
    {
      "inputs": [
        {
          "internalType": "address",
          "name": "_wrappedNativeCurrency",
          "type": "address"
        },
        {
          "internalType": "address",
          "name": "_uniswapV2Router",
          "type": "address"
        },
        {
          "internalType": "address",
          "name": "_operator",
          "type": "address"
        },
        {
          "internalType": "address",
          "name": "_liquidator",
          "type": "address"
        }
      ],
      "name": "initialize",
      "outputs": [],
      "stateMutability": "nonpayable",
      "type": "function"
    },
    {
      "inputs": [],
      "name": "interest",
      "outputs": [
        {
          "internalType": "uint256",
          "name": "",
          "type": "uint256"
        }
      ],
      "stateMutability": "view",
      "type": "function"
    },
    {
      "inputs": [],
      "name": "liquidationLoanToValueRatio",
      "outputs": [
        {
          "internalType": "uint256",
          "name": "",
          "type": "uint256"
        }
      ],
      "stateMutability": "view",
      "type": "function"
    },
    {
      "inputs": [],
      "name": "liquidator",
      "outputs": [
        {
          "internalType": "address",
          "name": "",
          "type": "address"
        }
      ],
      "stateMutability": "view",
      "type": "function"
    },
    {
      "inputs": [],
      "name": "marginCallLoanToValueRatio",
      "outputs": [
        {
          "internalType": "uint256",
          "name": "",
          "type": "uint256"
        }
      ],
      "stateMutability": "view",
      "type": "function"
    },
    {
      "inputs": [],
      "name": "minimumLiquidity",
      "outputs": [
        {
          "internalType": "uint256",
          "name": "",
          "type": "uint256"
        }
      ],
      "stateMutability": "view",
      "type": "function"
    },
    {
      "inputs": [],
      "name": "minimumMagisterDepositAmount",
      "outputs": [
        {
          "internalType": "uint256",
          "name": "",
          "type": "uint256"
        }
      ],
      "stateMutability": "view",
      "type": "function"
    },
    {
      "inputs": [],
      "name": "minimumPrincipalAmount",
      "outputs": [
        {
          "internalType": "uint256",
          "name": "",
          "type": "uint256"
        }
      ],
      "stateMutability": "view",
      "type": "function"
    },
    {
      "inputs": [],
      "name": "operator",
      "outputs": [
        {
          "internalType": "address",
          "name": "",
          "type": "address"
        }
      ],
      "stateMutability": "view",
      "type": "function"
    },
    {
      "inputs": [],
      "name": "pendingGovernor",
      "outputs": [
        {
          "internalType": "address",
          "name": "",
          "type": "address"
        }
      ],
      "stateMutability": "view",
      "type": "function"
    },
    {
      "inputs": [],
      "name": "priceOracle",
      "outputs": [
        {
          "internalType": "address",
          "name": "",
          "type": "address"
        }
      ],
      "stateMutability": "view",
      "type": "function"
    },
    {
      "inputs": [],
      "name": "rebalancingThreshold",
      "outputs": [
        {
          "internalType": "uint256",
          "name": "",
          "type": "uint256"
        }
      ],
      "stateMutability": "view",
      "type": "function"
    },
    {
      "inputs": [],
      "name": "servicingThreshold",
      "outputs": [
        {
          "internalType": "uint256",
          "name": "",
          "type": "uint256"
        }
      ],
      "stateMutability": "view",
      "type": "function"
    },
    {
      "inputs": [
        {
          "internalType": "address",
          "name": "newBaks",
          "type": "address"
        }
      ],
      "name": "setBaks",
      "outputs": [],
      "stateMutability": "nonpayable",
      "type": "function"
    },
    {
      "inputs": [
        {
          "internalType": "address",
          "name": "newBank",
          "type": "address"
        }
      ],
      "name": "setBank",
      "outputs": [],
      "stateMutability": "nonpayable",
      "type": "function"
    },
    {
      "inputs": [
        {
          "internalType": "address",
          "name": "newDepositary",
          "type": "address"
        }
      ],
      "name": "setDepositary",
      "outputs": [],
      "stateMutability": "nonpayable",
      "type": "function"
    },
    {
      "inputs": [
        {
          "internalType": "address",
          "name": "newDevelopmentFund",
          "type": "address"
        }
      ],
      "name": "setDevelopmentFund",
      "outputs": [],
      "stateMutability": "nonpayable",
      "type": "function"
    },
    {
      "inputs": [
        {
          "internalType": "uint256",
          "name": "newEarlyWithdrawalFee",
          "type": "uint256"
        }
      ],
      "name": "setEarlyWithdrawalFee",
      "outputs": [],
      "stateMutability": "nonpayable",
      "type": "function"
    },
    {
      "inputs": [
        {
          "internalType": "uint256",
          "name": "newEarlyWithdrawalPeriod",
          "type": "uint256"
        }
      ],
      "name": "setEarlyWithdrawalPeriod",
      "outputs": [],
      "stateMutability": "nonpayable",
      "type": "function"
    },
    {
      "inputs": [
        {
          "internalType": "address",
          "name": "newExchangeFund",
          "type": "address"
        }
      ],
      "name": "setExchangeFund",
      "outputs": [],
      "stateMutability": "nonpayable",
      "type": "function"
    },
    {
      "inputs": [
        {
          "internalType": "uint256",
          "name": "newInterest",
          "type": "uint256"
        }
      ],
      "name": "setInterest",
      "outputs": [],
      "stateMutability": "nonpayable",
      "type": "function"
    },
    {
      "inputs": [
        {
          "internalType": "uint256",
          "name": "newLiquidationLoanToValueRatio",
          "type": "uint256"
        }
      ],
      "name": "setLiquidationLoanToValueRatio",
      "outputs": [],
      "stateMutability": "nonpayable",
      "type": "function"
    },
    {
      "inputs": [
        {
          "internalType": "address",
          "name": "newLiquidator",
          "type": "address"
        }
      ],
      "name": "setLiquidator",
      "outputs": [],
      "stateMutability": "nonpayable",
      "type": "function"
    },
    {
      "inputs": [
        {
          "internalType": "uint256",
          "name": "newMarginCallLoanToValueRatio",
          "type": "uint256"
        }
      ],
      "name": "setMarginCallLoanToValueRatio",
      "outputs": [],
      "stateMutability": "nonpayable",
      "type": "function"
    },
    {
      "inputs": [
        {
          "internalType": "uint256",
          "name": "newMinimumLiquidity",
          "type": "uint256"
        }
      ],
      "name": "setMinimumLiquidity",
      "outputs": [],
      "stateMutability": "nonpayable",
      "type": "function"
    },
    {
      "inputs": [
        {
          "internalType": "uint256",
          "name": "newMinimumMagisterDepositAmount",
          "type": "uint256"
        }
      ],
      "name": "setMinimumMagisterDepositAmount",
      "outputs": [],
      "stateMutability": "nonpayable",
      "type": "function"
    },
    {
      "inputs": [
        {
          "internalType": "uint256",
          "name": "newMinimumPrincipalAmount",
          "type": "uint256"
        }
      ],
      "name": "setMinimumPrincipalAmount",
      "outputs": [],
      "stateMutability": "nonpayable",
      "type": "function"
    },
    {
      "inputs": [
        {
          "internalType": "address",
          "name": "newOperator",
          "type": "address"
        }
      ],
      "name": "setOperator",
      "outputs": [],
      "stateMutability": "nonpayable",
      "type": "function"
    },
    {
      "inputs": [
        {
          "internalType": "uint256",
          "name": "newStabilizationFee",
          "type": "uint256"
        },
        {
          "internalType": "uint256",
          "name": "newExchangeFee",
          "type": "uint256"
        },
        {
          "internalType": "uint256",
          "name": "newDevelopmentFee",
          "type": "uint256"
        }
      ],
      "name": "setPlatformFees",
      "outputs": [],
      "stateMutability": "nonpayable",
      "type": "function"
    },
    {
      "inputs": [
        {
          "internalType": "address",
          "name": "newPriceOracle",
          "type": "address"
        }
      ],
      "name": "setPriceOracle",
      "outputs": [],
      "stateMutability": "nonpayable",
      "type": "function"
    },
    {
      "inputs": [
        {
          "internalType": "uint256",
          "name": "newRebalancingThreshold",
          "type": "uint256"
        }
      ],
      "name": "setRebalancingThreshold",
      "outputs": [],
      "stateMutability": "nonpayable",
      "type": "function"
    },
    {
      "inputs": [
        {
          "internalType": "uint256",
          "name": "newServicingThreshold",
          "type": "uint256"
        }
      ],
      "name": "setServicingThreshold",
      "outputs": [],
      "stateMutability": "nonpayable",
      "type": "function"
    },
    {
      "inputs": [
        {
          "internalType": "uint256",
          "name": "newStabilityFee",
          "type": "uint256"
        }
      ],
      "name": "setStabilityFee",
      "outputs": [],
      "stateMutability": "nonpayable",
      "type": "function"
    },
    {
      "inputs": [
        {
          "internalType": "address",
          "name": "newVoice",
          "type": "address"
        }
      ],
      "name": "setVoice",
      "outputs": [],
      "stateMutability": "nonpayable",
      "type": "function"
    },
    {
      "inputs": [
        {
          "internalType": "uint256",
          "name": "newWorkFee",
          "type": "uint256"
        }
      ],
      "name": "setWorkFee",
      "outputs": [],
      "stateMutability": "nonpayable",
      "type": "function"
    },
    {
      "inputs": [],
      "name": "stabilityFee",
      "outputs": [
        {
          "internalType": "uint256",
          "name": "",
          "type": "uint256"
        }
      ],
      "stateMutability": "view",
      "type": "function"
    },
    {
      "inputs": [],
      "name": "stabilizationFee",
      "outputs": [
        {
          "internalType": "uint256",
          "name": "",
          "type": "uint256"
        }
      ],
      "stateMutability": "view",
      "type": "function"
    },
    {
      "inputs": [
        {
          "internalType": "address",
          "name": "newGovernor",
          "type": "address"
        },
        {
          "internalType": "bool",
          "name": "force",
          "type": "bool"
        }
      ],
      "name": "transitGovernance",
      "outputs": [],
      "stateMutability": "nonpayable",
      "type": "function"
    },
    {
      "inputs": [],
      "name": "uniswapV2Router",
      "outputs": [
        {
          "internalType": "address",
          "name": "",
          "type": "address"
        }
      ],
      "stateMutability": "view",
      "type": "function"
    },
    {
      "inputs": [],
      "name": "voice",
      "outputs": [
        {
          "internalType": "address",
          "name": "",
          "type": "address"
        }
      ],
      "stateMutability": "view",
      "type": "function"
    },
    {
      "inputs": [],
      "name": "workFee",
      "outputs": [
        {
          "internalType": "uint256",
          "name": "",
          "type": "uint256"
        }
      ],
      "stateMutability": "view",
      "type": "function"
    },
    {
      "inputs": [],
      "name": "wrappedNativeCurrency",
      "outputs": [
        {
          "internalType": "address",
          "name": "",
          "type": "address"
        }
      ],
      "stateMutability": "view",
      "type": "function"
    }
  ],
  "transactionHash": "0xf3db0a9f049fb6622f8874adb26053ff322fc2a434cb53f4215881e34a448459",
  "args": [],
  "solcInputHash": "f6458b6806c3745c33b8a0e0dafb00db",
  "bytecode": "0x608060405234801561001057600080fd5b5061171c806100206000396000f3fe608060405234801561001057600080fd5b50600436106103575760003560e01c806351adfe49116101c8578063af76a7ef11610104578063e3056a34116100a2578063ee0e54cb1161007c578063ee0e54cb1461069b578063f826ed2e146106a4578063f8c8765e146106b7578063fb4ca35b146106ca57600080fd5b8063e3056a3414610662578063e7f3028c14610675578063eb907b221461068857600080fd5b8063c392f766116100de578063c392f7661461062a578063d876d98e14610633578063ddc125261461063c578063e16da9f81461064f57600080fd5b8063af76a7ef146105fb578063b3ab15fb1461060e578063b56cf0111461062157600080fd5b806377c4572d116101715780638b02d3171161014b5780638b02d317146105c35780639cc3c0d4146105d6578063a0230d50146105e9578063a5f3d003146105f257600080fd5b806377c4572d1461058a5780637c6802861461059d5780638a2381d7146105b057600080fd5b80635838815f116101a25780635838815f14610551578063736e1c261461056457806376cdb03b1461057757600080fd5b806351adfe4914610522578063530e784f1461052b578063570ca7351461053e57600080fd5b80632b3c3892116102975780633f8189ea116102405780634433c5e81161021a5780634433c5e8146104ea578063453844b6146104f35780634c12d471146104fc5780634c4e61e91461050f57600080fd5b80633f8189ea146104bb5780634046ebae146104ce57806342580dbe146104e157600080fd5b806334dbf19e1161027157806334dbf19e14610496578063361416e1146104a95780633a5017b4146104b257600080fd5b80632b3c3892146104675780632ecd3be41461047a57806334b61a151461048357600080fd5b80631694505e116103045780632231ffaf116102de5780632231ffaf14610426578063238efcbc146104395780632630c12f14610441578063282567b41461045457600080fd5b80631694505e146103ed5780631805d668146104005780631d0867201461041357600080fd5b80630c340a24116103355780630c340a24146103a05780630e060378146103d157806316330d40146103e457600080fd5b806301c76f811461035c578063090d23b9146103715780630b68a58014610384575b600080fd5b61036f61036a3660046115f2565b6106dd565b005b61036f61037f3660046115f2565b610777565b61038d600e5481565b6040519081526020015b60405180910390f35b6000546103b9906201000090046001600160a01b031681565b6040516001600160a01b039091168152602001610397565b6008546103b9906001600160a01b031681565b61038d60195481565b6003546103b9906001600160a01b031681565b61036f61040e3660046115f2565b610811565b61036f610421366004611614565b6108ab565b61036f6104343660046115f2565b61091d565b61036f6109b7565b6004546103b9906001600160a01b031681565b61036f610462366004611614565b610a4c565b61036f610475366004611614565b610abe565b61038d60115481565b61036f6104913660046115f2565b610b30565b61036f6104a43660046115f2565b610bca565b61038d600f5481565b61038d60175481565b61036f6104c9366004611614565b610c64565b600c546103b9906001600160a01b031681565b61038d60105481565b61038d60145481565b61038d601a5481565b6009546103b9906001600160a01b031681565b6005546103b9906001600160a01b031681565b61038d60185481565b61036f6105393660046115f2565b610cd6565b600b546103b9906001600160a01b031681565b61036f61055f366004611614565b610d70565b61036f610572366004611614565b610de2565b6007546103b9906001600160a01b031681565b61036f610598366004611614565b610e54565b61036f6105ab3660046115f2565b610ec6565b600a546103b9906001600160a01b031681565b6006546103b9906001600160a01b031681565b61036f6105e4366004611614565b610f60565b61038d60165481565b61038d60125481565b61036f610609366004611614565b610fd2565b61036f61061c3660046115f2565b611044565b61038d601b5481565b61038d600d5481565b61038d60135481565b61036f61064a36600461162d565b6110de565b61036f61065d366004611669565b6111d0565b6001546103b9906001600160a01b031681565b6002546103b9906001600160a01b031681565b61036f610696366004611614565b6112bd565b61038d60155481565b61036f6106b2366004611614565b61132f565b61036f6106c5366004611695565b6113a1565b61036f6106d8366004611614565b6114fd565b6000546201000090046001600160a01b0316331461070e576040516305e7700560e51b815260040160405180910390fd5b600c54604080516001600160a01b03928316815291831660208301527fbeefc50872111fb9c2028f8772e06e99ec622d34506eec7ac0e85afd9de7889d910160405180910390a1600c80546001600160a01b0319166001600160a01b0392909216919091179055565b6000546201000090046001600160a01b031633146107a8576040516305e7700560e51b815260040160405180910390fd5b600754604080516001600160a01b03928316815291831660208301527f6b13d0b6d0f96f25f42864a97c7a29b23b8b2ee5b36a253eabfb1eb7ffaae857910160405180910390a1600780546001600160a01b0319166001600160a01b0392909216919091179055565b6000546201000090046001600160a01b03163314610842576040516305e7700560e51b815260040160405180910390fd5b600954604080516001600160a01b03928316815291831660208301527f26b19e8e52229d412c9484193160fe978f9f2d6a9348204dfe33888820688cb9910160405180910390a1600980546001600160a01b0319166001600160a01b0392909216919091179055565b6000546201000090046001600160a01b031633146108dc576040516305e7700560e51b815260040160405180910390fd5b600d5460408051918252602082018390527f46ba83b1bb5d30bf76865a9c4d50e868ef6092e32e9dbca33926fe6d81c1a129910160405180910390a1600d55565b6000546201000090046001600160a01b0316331461094e576040516305e7700560e51b815260040160405180910390fd5b600854604080516001600160a01b03928316815291831660208301527f2d4ee1d7f376d00cf396d38b08067a5ec3f3b71d966ca4db5a379ba3b1ea797d910160405180910390a1600880546001600160a01b0319166001600160a01b0392909216919091179055565b6001546001600160a01b031633146109e25760405163aec80d4b60e01b815260040160405180910390fd5b60015460008054620100006001600160a01b0393841681810275ffffffffffffffffffffffffffffffffffffffff00001990931692909217808455604051929491900416917f564590b81987d147246f63910a8e1ee4eb09c4d64cc75ee975a8ffedfcc2210e91a3565b6000546201000090046001600160a01b03163314610a7d576040516305e7700560e51b815260040160405180910390fd5b601b5460408051918252602082018390527fd18c85fe8a5776467c327fa33312c6113129233ddb47deabaa91b8396b815879910160405180910390a1601b55565b6000546201000090046001600160a01b03163314610aef576040516305e7700560e51b815260040160405180910390fd5b600e5460408051918252602082018390527fde9fa07b6ca9d540214c05366e57cb33adf8f132014d9d1b2802a5b89a99512a910160405180910390a1600e55565b6000546201000090046001600160a01b03163314610b61576040516305e7700560e51b815260040160405180910390fd5b600554604080516001600160a01b03928316815291831660208301527fc0451bcadaef87367fc2de908531ac97476502a83c5bbfb1d50b5623869142d0910160405180910390a1600580546001600160a01b0319166001600160a01b0392909216919091179055565b6000546201000090046001600160a01b03163314610bfb576040516305e7700560e51b815260040160405180910390fd5b600a54604080516001600160a01b03928316815291831660208301527f890d67e11a87724c3e924031bc5edde282c8c2a5090de71c4d3c98df6c293e44910160405180910390a1600a80546001600160a01b0319166001600160a01b0392909216919091179055565b6000546201000090046001600160a01b03163314610c95576040516305e7700560e51b815260040160405180910390fd5b60145460408051918252602082018390527fa466548b1a7b7c581a6b5b6e38ebed0f41846451118fb8582b71f8605b960cd8910160405180910390a1601455565b6000546201000090046001600160a01b03163314610d07576040516305e7700560e51b815260040160405180910390fd5b600454604080516001600160a01b03928316815291831660208301527f56b5f80d8cac1479698aa7d01605fd6111e90b15fc4d2b377417f46034876cbd910160405180910390a1600480546001600160a01b0319166001600160a01b0392909216919091179055565b6000546201000090046001600160a01b03163314610da1576040516305e7700560e51b815260040160405180910390fd5b60165460408051918252602082018390527f4fb8587c5a3f8cf9e57d22189b561f07db407b875d0088af925ba5def959e302910160405180910390a1601655565b6000546201000090046001600160a01b03163314610e13576040516305e7700560e51b815260040160405180910390fd5b601a5460408051918252602082018390527f157d4d2c2eb9bbd85c7f6da0c13113a3799cc3df5c817cba85d84832176459bc910160405180910390a1601a55565b6000546201000090046001600160a01b03163314610e85576040516305e7700560e51b815260040160405180910390fd5b60135460408051918252602082018390527fd2a3e4f854a80a895407f8743c1363ac14b698c432d22d8c65519e13a9e4983d910160405180910390a1601355565b6000546201000090046001600160a01b03163314610ef7576040516305e7700560e51b815260040160405180910390fd5b600654604080516001600160a01b03928316815291831660208301527f84a99d2bd54dc2cc9a7a0f569fdf3dfd12ad1bc01d0fbaaede284310730067f6910160405180910390a1600680546001600160a01b0319166001600160a01b0392909216919091179055565b6000546201000090046001600160a01b03163314610f91576040516305e7700560e51b815260040160405180910390fd5b60185460408051918252602082018390527f852e5c58e234ad1a0ba40f41c39fa15df7c5494ad6198a802fcdffa3e8e4a0c5910160405180910390a1601855565b6000546201000090046001600160a01b03163314611003576040516305e7700560e51b815260040160405180910390fd5b60155460408051918252602082018390527f5eb53b71d73d0607121e658859e0125d7bbbf83c4288d44c18438d4fe94d1e07910160405180910390a1601555565b6000546201000090046001600160a01b03163314611075576040516305e7700560e51b815260040160405180910390fd5b600b54604080516001600160a01b03928316815291831660208301527ffbe5b6cbafb274f445d7fed869dc77a838d8243a22c460de156560e8857cad03910160405180910390a1600b80546001600160a01b0319166001600160a01b0392909216919091179055565b6000546201000090046001600160a01b0316331461110f576040516305e7700560e51b815260040160405180910390fd5b6001600160a01b0382166111365760405163604b48b960e11b815260040160405180910390fd5b6001600160a01b038216301415611160576040516306b3e95d60e21b815260040160405180910390fd5b600180546001600160a01b0319166001600160a01b038416179055806111c357600080546040516001600160a01b03808616936201000090930416917fc606c9af1451cadeb333f6ff7b24a5540974f4e800bac274fa7fff9edc305cb191a35050565b6111cc8261156f565b5050565b6000546201000090046001600160a01b03163314611201576040516305e7700560e51b815260040160405180910390fd5b670de0b6b3a76400008161121584866116e9565b61121f91906116e9565b146112525760405163245c170760e21b815260048101849052602481018390526044810182905260640160405180910390fd5b601054601154601254604080519384526020840187905283019190915260608201849052608082015260a081018290527f1f7068a9be898db6fcd350ac2ff32fc5f1e6fc46c8e6cc973cde53793ff3ab5e9060c00160405180910390a1601092909255601155601255565b6000546201000090046001600160a01b031633146112ee576040516305e7700560e51b815260040160405180910390fd5b60175460408051918252602082018390527f7dcd30db94569ddb363e830c535d2ab4561ba0521e93e7b04af6352851c95953910160405180910390a1601755565b6000546201000090046001600160a01b03163314611360576040516305e7700560e51b815260040160405180910390fd5b60195460408051918252602082018390527f1e1bc70f0e861e459ffcc21bee51703c1f518199b9fa24001c912cbb6d0f198e910160405180910390a1601955565b60005460ff161580156113bb5750600054610100900460ff165b156113d957604051631ee1e30360e21b815260040160405180910390fd5b60005460ff161580156113f6576000805461ffff19166101011790555b6113ff3361156f565b600280546001600160a01b038088166001600160a01b03199283161790925560038054878416908316179055600b8054868416908316179055600c805492851692909116919091179055670186cc6acd4b0000600d556802b5e3af16b1880000600e5566354a6ba7a18000600f55670bcbce7f1b150000601055670214e8348c4f00006011556000601255670a688906bd8b0000601355670b84c09a3b930000601455662386f26fc100006015819055690a968163f0a57b400000601681905566470de4df8200006017556203f48060185566038d7ea4c68000601955601a91909155601b5580156114f6576000805460ff191690555b5050505050565b6000546201000090046001600160a01b0316331461152e576040516305e7700560e51b815260040160405180910390fd5b600f5460408051918252602082018390527fde9fa07b6ca9d540214c05366e57cb33adf8f132014d9d1b2802a5b89a99512a910160405180910390a1600f55565b6000805475ffffffffffffffffffffffffffffffffffffffff00001916620100006001600160a01b0384811682810293909317808555604051939492900416917f564590b81987d147246f63910a8e1ee4eb09c4d64cc75ee975a8ffedfcc2210e9190a350565b80356001600160a01b03811681146115ed57600080fd5b919050565b60006020828403121561160457600080fd5b61160d826115d6565b9392505050565b60006020828403121561162657600080fd5b5035919050565b6000806040838503121561164057600080fd5b611649836115d6565b91506020830135801515811461165e57600080fd5b809150509250929050565b60008060006060848603121561167e57600080fd5b505081359360208301359350604090920135919050565b600080600080608085870312156116ab57600080fd5b6116b4856115d6565b93506116c2602086016115d6565b92506116d0604086016115d6565b91506116de606086016115d6565b905092959194509250565b6000821982111561170a57634e487b7160e01b600052601160045260246000fd5b50019056fea164736f6c634300080a000a",
  "devdoc": {
    "errors": {
      "BaksDAOPlatformFeesDontSumUpToOne(uint256,uint256,uint256)": [
        {
          "details": "Thrown when trying to set platform fees that don't sum up to one.",
          "params": {
            "developmentFee": "The stabilization fee that was tried to set.",
            "exchangeFee": "The stabilization fee that was tried to set.",
            "stabilizationFee": "The stabilization fee that was tried to set."
          }
        }
      ]
    },
    "kind": "dev",
    "methods": {},
    "version": 1
  },
  "userdoc": {
    "kind": "user",
    "methods": {},
    "version": 1
  },
  "storageLayout": {
    "storage": [
      {
        "astId": 10868,
        "contract": "contracts/Core.sol:Core",
        "label": "initializing",
        "offset": 0,
        "slot": "0",
        "type": "t_bool"
      },
      {
        "astId": 10870,
        "contract": "contracts/Core.sol:Core",
        "label": "initialized",
        "offset": 1,
        "slot": "0",
        "type": "t_bool"
      },
      {
        "astId": 7101,
        "contract": "contracts/Core.sol:Core",
        "label": "governor",
        "offset": 2,
        "slot": "0",
        "type": "t_address"
      },
      {
        "astId": 7103,
        "contract": "contracts/Core.sol:Core",
        "label": "pendingGovernor",
        "offset": 0,
        "slot": "1",
        "type": "t_address"
      },
      {
        "astId": 3226,
        "contract": "contracts/Core.sol:Core",
        "label": "wrappedNativeCurrency",
        "offset": 0,
        "slot": "2",
        "type": "t_address"
      },
      {
        "astId": 3229,
        "contract": "contracts/Core.sol:Core",
        "label": "uniswapV2Router",
        "offset": 0,
        "slot": "3",
        "type": "t_address"
      },
      {
        "astId": 3232,
        "contract": "contracts/Core.sol:Core",
        "label": "priceOracle",
        "offset": 0,
        "slot": "4",
        "type": "t_address"
      },
      {
        "astId": 3235,
        "contract": "contracts/Core.sol:Core",
        "label": "baks",
        "offset": 0,
        "slot": "5",
        "type": "t_address"
      },
      {
        "astId": 3238,
        "contract": "contracts/Core.sol:Core",
        "label": "voice",
        "offset": 0,
        "slot": "6",
        "type": "t_address"
      },
      {
        "astId": 3241,
        "contract": "contracts/Core.sol:Core",
        "label": "bank",
        "offset": 0,
        "slot": "7",
        "type": "t_address"
      },
      {
        "astId": 3244,
        "contract": "contracts/Core.sol:Core",
        "label": "depositary",
        "offset": 0,
        "slot": "8",
        "type": "t_address"
      },
      {
        "astId": 3247,
        "contract": "contracts/Core.sol:Core",
        "label": "exchangeFund",
        "offset": 0,
        "slot": "9",
        "type": "t_address"
      },
      {
        "astId": 3250,
        "contract": "contracts/Core.sol:Core",
        "label": "developmentFund",
        "offset": 0,
        "slot": "10",
        "type": "t_address"
      },
      {
        "astId": 3253,
        "contract": "contracts/Core.sol:Core",
        "label": "operator",
        "offset": 0,
        "slot": "11",
        "type": "t_address"
      },
      {
        "astId": 3256,
        "contract": "contracts/Core.sol:Core",
        "label": "liquidator",
        "offset": 0,
        "slot": "12",
        "type": "t_address"
      },
      {
        "astId": 3259,
        "contract": "contracts/Core.sol:Core",
        "label": "interest",
        "offset": 0,
        "slot": "13",
        "type": "t_uint256"
      },
      {
        "astId": 3262,
        "contract": "contracts/Core.sol:Core",
        "label": "minimumPrincipalAmount",
        "offset": 0,
        "slot": "14",
        "type": "t_uint256"
      },
      {
        "astId": 3265,
        "contract": "contracts/Core.sol:Core",
        "label": "stabilityFee",
        "offset": 0,
        "slot": "15",
        "type": "t_uint256"
      },
      {
        "astId": 3268,
        "contract": "contracts/Core.sol:Core",
        "label": "stabilizationFee",
        "offset": 0,
        "slot": "16",
        "type": "t_uint256"
      },
      {
        "astId": 3271,
        "contract": "contracts/Core.sol:Core",
        "label": "exchangeFee",
        "offset": 0,
        "slot": "17",
        "type": "t_uint256"
      },
      {
        "astId": 3274,
        "contract": "contracts/Core.sol:Core",
        "label": "developmentFee",
        "offset": 0,
        "slot": "18",
        "type": "t_uint256"
      },
      {
        "astId": 3277,
        "contract": "contracts/Core.sol:Core",
        "label": "marginCallLoanToValueRatio",
        "offset": 0,
        "slot": "19",
        "type": "t_uint256"
      },
      {
        "astId": 3280,
        "contract": "contracts/Core.sol:Core",
        "label": "liquidationLoanToValueRatio",
        "offset": 0,
        "slot": "20",
        "type": "t_uint256"
      },
      {
        "astId": 3283,
        "contract": "contracts/Core.sol:Core",
        "label": "rebalancingThreshold",
        "offset": 0,
        "slot": "21",
        "type": "t_uint256"
      },
      {
        "astId": 3286,
        "contract": "contracts/Core.sol:Core",
        "label": "minimumMagisterDepositAmount",
        "offset": 0,
        "slot": "22",
        "type": "t_uint256"
      },
      {
        "astId": 3289,
        "contract": "contracts/Core.sol:Core",
        "label": "workFee",
        "offset": 0,
        "slot": "23",
        "type": "t_uint256"
      },
      {
        "astId": 3292,
        "contract": "contracts/Core.sol:Core",
        "label": "earlyWithdrawalPeriod",
        "offset": 0,
        "slot": "24",
        "type": "t_uint256"
      },
      {
        "astId": 3295,
        "contract": "contracts/Core.sol:Core",
        "label": "earlyWithdrawalFee",
        "offset": 0,
        "slot": "25",
        "type": "t_uint256"
      },
      {
        "astId": 3298,
        "contract": "contracts/Core.sol:Core",
        "label": "servicingThreshold",
        "offset": 0,
        "slot": "26",
        "type": "t_uint256"
      },
      {
        "astId": 3301,
        "contract": "contracts/Core.sol:Core",
        "label": "minimumLiquidity",
        "offset": 0,
        "slot": "27",
        "type": "t_uint256"
      }
    ],
    "types": {
      "t_address": {
        "encoding": "inplace",
        "label": "address",
        "numberOfBytes": "20"
      },
      "t_bool": {
        "encoding": "inplace",
        "label": "bool",
        "numberOfBytes": "1"
      },
      "t_uint256": {
        "encoding": "inplace",
        "label": "uint256",
        "numberOfBytes": "32"
      }
    }
  }
}