{
  "address": "0xB83482E163684C58280532111A4d61e0CaCFFD3A",
  "abi": [
    {
      "inputs": [
        {
          "internalType": "uint256",
          "name": "stabilizationFee",
          "type": "uint256"
        },
        {
          "internalType": "uint256",
          "name": "exchangeFee",
          "type": "uint256"
        },
        {
          "internalType": "uint256",
          "name": "developmentFee",
          "type": "uint256"
        }
      ],
      "name": "BaksDAOFeesDontSumUpToOne",
      "type": "error"
    },
    {
      "inputs": [],
      "name": "ContractAlreadyInitialized",
      "type": "error"
    },
    {
      "inputs": [],
      "name": "GovernedCantGoverItself",
      "type": "error"
    },
    {
      "inputs": [],
      "name": "GovernedGovernorZeroAddress",
      "type": "error"
    },
    {
      "inputs": [],
      "name": "GovernedOnlyGovernorAllowedToCall",
      "type": "error"
    },
    {
      "inputs": [],
      "name": "GovernedOnlyPendingGovernorAllowedToCall",
      "type": "error"
    },
    {
      "anonymous": false,
      "inputs": [
        {
          "indexed": false,
          "internalType": "address",
          "name": "baks",
          "type": "address"
        },
        {
          "indexed": false,
          "internalType": "address",
          "name": "newBaks",
          "type": "address"
        }
      ],
      "name": "BaksUpdated",
      "type": "event"
    },
    {
      "anonymous": false,
      "inputs": [
        {
          "indexed": false,
          "internalType": "address",
          "name": "bank",
          "type": "address"
        },
        {
          "indexed": false,
          "internalType": "address",
          "name": "newBank",
          "type": "address"
        }
      ],
      "name": "BankUpdated",
      "type": "event"
    },
    {
      "anonymous": false,
      "inputs": [
        {
          "indexed": false,
          "internalType": "uint256",
          "name": "stabilizationFee",
          "type": "uint256"
        },
        {
          "indexed": false,
          "internalType": "uint256",
          "name": "newStabilizationFee",
          "type": "uint256"
        },
        {
          "indexed": false,
          "internalType": "uint256",
          "name": "exchangeFee",
          "type": "uint256"
        },
        {
          "indexed": false,
          "internalType": "uint256",
          "name": "newExchangeFee",
          "type": "uint256"
        },
        {
          "indexed": false,
          "internalType": "uint256",
          "name": "developmentFee",
          "type": "uint256"
        },
        {
          "indexed": false,
          "internalType": "uint256",
          "name": "newDevelopmentFee",
          "type": "uint256"
        }
      ],
      "name": "DepositFeesUpdated",
      "type": "event"
    },
    {
      "anonymous": false,
      "inputs": [
        {
          "indexed": false,
          "internalType": "address",
          "name": "depositary",
          "type": "address"
        },
        {
          "indexed": false,
          "internalType": "address",
          "name": "newDepositary",
          "type": "address"
        }
      ],
      "name": "DepositaryUpdated",
      "type": "event"
    },
    {
      "anonymous": false,
      "inputs": [
        {
          "indexed": false,
          "internalType": "address",
          "name": "developmentFund",
          "type": "address"
        },
        {
          "indexed": false,
          "internalType": "address",
          "name": "newDevelopmentFund",
          "type": "address"
        }
      ],
      "name": "DevelopmentFundUpdated",
      "type": "event"
    },
    {
      "anonymous": false,
      "inputs": [
        {
          "indexed": false,
          "internalType": "uint256",
          "name": "earlyWithdrawalFee",
          "type": "uint256"
        },
        {
          "indexed": false,
          "internalType": "uint256",
          "name": "newEarlyWithdrawalFee",
          "type": "uint256"
        }
      ],
      "name": "EarlyWithdrawalFeeUpdated",
      "type": "event"
    },
    {
      "anonymous": false,
      "inputs": [
        {
          "indexed": false,
          "internalType": "uint256",
          "name": "earlyWithdrawalPeriod",
          "type": "uint256"
        },
        {
          "indexed": false,
          "internalType": "uint256",
          "name": "newEarlyWithdrawalPeriod",
          "type": "uint256"
        }
      ],
      "name": "EarlyWithdrawalPeriodUpdated",
      "type": "event"
    },
    {
      "anonymous": false,
      "inputs": [
        {
          "indexed": false,
          "internalType": "address",
          "name": "exchangeFund",
          "type": "address"
        },
        {
          "indexed": false,
          "internalType": "address",
          "name": "newExchangeFund",
          "type": "address"
        }
      ],
      "name": "ExchangeFundUpdated",
      "type": "event"
    },
    {
      "anonymous": false,
      "inputs": [
        {
          "indexed": true,
          "internalType": "address",
          "name": "governor",
          "type": "address"
        },
        {
          "indexed": true,
          "internalType": "address",
          "name": "newGovernor",
          "type": "address"
        }
      ],
      "name": "GovernanceTransited",
      "type": "event"
    },
    {
      "anonymous": false,
      "inputs": [
        {
          "indexed": false,
          "internalType": "uint256",
          "name": "interest",
          "type": "uint256"
        },
        {
          "indexed": false,
          "internalType": "uint256",
          "name": "newInterest",
          "type": "uint256"
        }
      ],
      "name": "InterestUpdated",
      "type": "event"
    },
    {
      "anonymous": false,
      "inputs": [
        {
          "indexed": false,
          "internalType": "uint256",
          "name": "liqudationLoanToValueRatio",
          "type": "uint256"
        },
        {
          "indexed": false,
          "internalType": "uint256",
          "name": "newLiquidationLoanToValueRatio",
          "type": "uint256"
        }
      ],
      "name": "LiquidationLoanToValueRatioUpdated",
      "type": "event"
    },
    {
      "anonymous": false,
      "inputs": [
        {
          "indexed": false,
          "internalType": "address",
          "name": "liquidator",
          "type": "address"
        },
        {
          "indexed": false,
          "internalType": "address",
          "name": "newLiquidator",
          "type": "address"
        }
      ],
      "name": "LiquidatorUpdated",
      "type": "event"
    },
    {
      "anonymous": false,
      "inputs": [
        {
          "indexed": false,
          "internalType": "uint256",
          "name": "marginCallLoanToValueRatio",
          "type": "uint256"
        },
        {
          "indexed": false,
          "internalType": "uint256",
          "name": "newMarginCallLoanToValueRatio",
          "type": "uint256"
        }
      ],
      "name": "MarginCallLoanToValueRatioUpdated",
      "type": "event"
    },
    {
      "anonymous": false,
      "inputs": [
        {
          "indexed": false,
          "internalType": "uint256",
          "name": "minimumLiquidity",
          "type": "uint256"
        },
        {
          "indexed": false,
          "internalType": "uint256",
          "name": "newMinimumLiquidity",
          "type": "uint256"
        }
      ],
      "name": "MinimumLiquidityUpdated",
      "type": "event"
    },
    {
      "anonymous": false,
      "inputs": [
        {
          "indexed": false,
          "internalType": "uint256",
          "name": "minimumMagisterDepositAmount",
          "type": "uint256"
        },
        {
          "indexed": false,
          "internalType": "uint256",
          "name": "newMinimumMagisterDepositAmount",
          "type": "uint256"
        }
      ],
      "name": "MinimumMagisterDepositAmountUpdated",
      "type": "event"
    },
    {
      "anonymous": false,
      "inputs": [
        {
          "indexed": false,
          "internalType": "uint256",
          "name": "minimumPrincipalAmount",
          "type": "uint256"
        },
        {
          "indexed": false,
          "internalType": "uint256",
          "name": "newMinimumPrincipalAmount",
          "type": "uint256"
        }
      ],
      "name": "MinimumPrincipalAmountUpdated",
      "type": "event"
    },
    {
      "anonymous": false,
      "inputs": [
        {
          "indexed": false,
          "internalType": "address",
          "name": "operator",
          "type": "address"
        },
        {
          "indexed": false,
          "internalType": "address",
          "name": "newOperator",
          "type": "address"
        }
      ],
      "name": "OperatorUpdated",
      "type": "event"
    },
    {
      "anonymous": false,
      "inputs": [
        {
          "indexed": true,
          "internalType": "address",
          "name": "governor",
          "type": "address"
        },
        {
          "indexed": true,
          "internalType": "address",
          "name": "newGovernor",
          "type": "address"
        }
      ],
      "name": "PendingGovernanceTransition",
      "type": "event"
    },
    {
      "anonymous": false,
      "inputs": [
        {
          "indexed": false,
          "internalType": "uint256",
          "name": "stabilizationFee",
          "type": "uint256"
        },
        {
          "indexed": false,
          "internalType": "uint256",
          "name": "newStabilizationFee",
          "type": "uint256"
        },
        {
          "indexed": false,
          "internalType": "uint256",
          "name": "exchangeFee",
          "type": "uint256"
        },
        {
          "indexed": false,
          "internalType": "uint256",
          "name": "newExchangeFee",
          "type": "uint256"
        },
        {
          "indexed": false,
          "internalType": "uint256",
          "name": "developmentFee",
          "type": "uint256"
        },
        {
          "indexed": false,
          "internalType": "uint256",
          "name": "newDevelopmentFee",
          "type": "uint256"
        }
      ],
      "name": "PlatformFeesUpdated",
      "type": "event"
    },
    {
      "anonymous": false,
      "inputs": [
        {
          "indexed": false,
          "internalType": "address",
          "name": "priceOracle",
          "type": "address"
        },
        {
          "indexed": false,
          "internalType": "address",
          "name": "newPriceOracle",
          "type": "address"
        }
      ],
      "name": "PriceOracleUpdated",
      "type": "event"
    },
    {
      "anonymous": false,
      "inputs": [
        {
          "indexed": false,
          "internalType": "uint256",
          "name": "rebalancingThreshold",
          "type": "uint256"
        },
        {
          "indexed": false,
          "internalType": "uint256",
          "name": "newRebalancingThreshold",
          "type": "uint256"
        }
      ],
      "name": "RebalancingThresholdUpdated",
      "type": "event"
    },
    {
      "anonymous": false,
      "inputs": [
        {
          "indexed": false,
          "internalType": "uint256",
          "name": "servicingThreshold",
          "type": "uint256"
        },
        {
          "indexed": false,
          "internalType": "uint256",
          "name": "newServicingThreshold",
          "type": "uint256"
        }
      ],
      "name": "ServicingThresholdUpdated",
      "type": "event"
    },
    {
      "anonymous": false,
      "inputs": [
        {
          "indexed": false,
          "internalType": "uint256",
          "name": "stabilityFee",
          "type": "uint256"
        },
        {
          "indexed": false,
          "internalType": "uint256",
          "name": "newStabilityFee",
          "type": "uint256"
        }
      ],
      "name": "StabilityFeeUpdated",
      "type": "event"
    },
    {
      "anonymous": false,
      "inputs": [
        {
          "indexed": false,
          "internalType": "address",
          "name": "voice",
          "type": "address"
        },
        {
          "indexed": false,
          "internalType": "address",
          "name": "newVoice",
          "type": "address"
        }
      ],
      "name": "VoiceUpdated",
      "type": "event"
    },
    {
      "anonymous": false,
      "inputs": [
        {
          "indexed": false,
          "internalType": "uint256",
          "name": "workFee",
          "type": "uint256"
        },
        {
          "indexed": false,
          "internalType": "uint256",
          "name": "newWorkFee",
          "type": "uint256"
        }
      ],
      "name": "WorkFeeUpdated",
      "type": "event"
    },
    {
      "inputs": [],
      "name": "acceptGovernance",
      "outputs": [],
      "stateMutability": "nonpayable",
      "type": "function"
    },
    {
      "inputs": [
        {
          "internalType": "address",
          "name": "account",
          "type": "address"
        }
      ],
      "name": "addSuperUser",
      "outputs": [],
      "stateMutability": "nonpayable",
      "type": "function"
    },
    {
      "inputs": [],
      "name": "baks",
      "outputs": [
        {
          "internalType": "address",
          "name": "",
          "type": "address"
        }
      ],
      "stateMutability": "view",
      "type": "function"
    },
    {
      "inputs": [],
      "name": "bank",
      "outputs": [
        {
          "internalType": "address",
          "name": "",
          "type": "address"
        }
      ],
      "stateMutability": "view",
      "type": "function"
    },
    {
      "inputs": [],
      "name": "depositDevelopmentFee",
      "outputs": [
        {
          "internalType": "uint256",
          "name": "",
          "type": "uint256"
        }
      ],
      "stateMutability": "view",
      "type": "function"
    },
    {
      "inputs": [],
      "name": "depositExchangeFee",
      "outputs": [
        {
          "internalType": "uint256",
          "name": "",
          "type": "uint256"
        }
      ],
      "stateMutability": "view",
      "type": "function"
    },
    {
      "inputs": [],
      "name": "depositStabilizationFee",
      "outputs": [
        {
          "internalType": "uint256",
          "name": "",
          "type": "uint256"
        }
      ],
      "stateMutability": "view",
      "type": "function"
    },
    {
      "inputs": [],
      "name": "depositary",
      "outputs": [
        {
          "internalType": "address",
          "name": "",
          "type": "address"
        }
      ],
      "stateMutability": "view",
      "type": "function"
    },
    {
      "inputs": [],
      "name": "developmentFee",
      "outputs": [
        {
          "internalType": "uint256",
          "name": "",
          "type": "uint256"
        }
      ],
      "stateMutability": "view",
      "type": "function"
    },
    {
      "inputs": [],
      "name": "developmentFund",
      "outputs": [
        {
          "internalType": "address",
          "name": "",
          "type": "address"
        }
      ],
      "stateMutability": "view",
      "type": "function"
    },
    {
      "inputs": [],
      "name": "earlyWithdrawalFee",
      "outputs": [
        {
          "internalType": "uint256",
          "name": "",
          "type": "uint256"
        }
      ],
      "stateMutability": "view",
      "type": "function"
    },
    {
      "inputs": [],
      "name": "earlyWithdrawalPeriod",
      "outputs": [
        {
          "internalType": "uint256",
          "name": "",
          "type": "uint256"
        }
      ],
      "stateMutability": "view",
      "type": "function"
    },
    {
      "inputs": [],
      "name": "exchangeFee",
      "outputs": [
        {
          "internalType": "uint256",
          "name": "",
          "type": "uint256"
        }
      ],
      "stateMutability": "view",
      "type": "function"
    },
    {
      "inputs": [],
      "name": "exchangeFund",
      "outputs": [
        {
          "internalType": "address",
          "name": "",
          "type": "address"
        }
      ],
      "stateMutability": "view",
      "type": "function"
    },
    {
      "inputs": [],
      "name": "governor",
      "outputs": [
        {
          "internalType": "address",
          "name": "",
          "type": "address"
        }
      ],
      "stateMutability": "view",
      "type": "function"
    },
    {
      "inputs": [
        {
          "internalType": "address",
          "name": "_wrappedNativeCurrency",
          "type": "address"
        },
        {
          "internalType": "address",
          "name": "_uniswapV2Router",
          "type": "address"
        },
        {
          "internalType": "address",
          "name": "_operator",
          "type": "address"
        },
        {
          "internalType": "address",
          "name": "_liquidator",
          "type": "address"
        }
      ],
      "name": "initialize",
      "outputs": [],
      "stateMutability": "nonpayable",
      "type": "function"
    },
    {
      "inputs": [],
      "name": "interest",
      "outputs": [
        {
          "internalType": "uint256",
          "name": "",
          "type": "uint256"
        }
      ],
      "stateMutability": "view",
      "type": "function"
    },
    {
      "inputs": [
        {
          "internalType": "address",
          "name": "",
          "type": "address"
        }
      ],
      "name": "isSuperUser",
      "outputs": [
        {
          "internalType": "bool",
          "name": "",
          "type": "bool"
        }
      ],
      "stateMutability": "view",
      "type": "function"
    },
    {
      "inputs": [],
      "name": "liquidationLoanToValueRatio",
      "outputs": [
        {
          "internalType": "uint256",
          "name": "",
          "type": "uint256"
        }
      ],
      "stateMutability": "view",
      "type": "function"
    },
    {
      "inputs": [],
      "name": "liquidator",
      "outputs": [
        {
          "internalType": "address",
          "name": "",
          "type": "address"
        }
      ],
      "stateMutability": "view",
      "type": "function"
    },
    {
      "inputs": [],
      "name": "marginCallLoanToValueRatio",
      "outputs": [
        {
          "internalType": "uint256",
          "name": "",
          "type": "uint256"
        }
      ],
      "stateMutability": "view",
      "type": "function"
    },
    {
      "inputs": [],
      "name": "minimumLiquidity",
      "outputs": [
        {
          "internalType": "uint256",
          "name": "",
          "type": "uint256"
        }
      ],
      "stateMutability": "view",
      "type": "function"
    },
    {
      "inputs": [],
      "name": "minimumMagisterDepositAmount",
      "outputs": [
        {
          "internalType": "uint256",
          "name": "",
          "type": "uint256"
        }
      ],
      "stateMutability": "view",
      "type": "function"
    },
    {
      "inputs": [],
      "name": "minimumPrincipalAmount",
      "outputs": [
        {
          "internalType": "uint256",
          "name": "",
          "type": "uint256"
        }
      ],
      "stateMutability": "view",
      "type": "function"
    },
    {
      "inputs": [],
      "name": "operator",
      "outputs": [
        {
          "internalType": "address",
          "name": "",
          "type": "address"
        }
      ],
      "stateMutability": "view",
      "type": "function"
    },
    {
      "inputs": [],
      "name": "pendingGovernor",
      "outputs": [
        {
          "internalType": "address",
          "name": "",
          "type": "address"
        }
      ],
      "stateMutability": "view",
      "type": "function"
    },
    {
      "inputs": [],
      "name": "priceOracle",
      "outputs": [
        {
          "internalType": "address",
          "name": "",
          "type": "address"
        }
      ],
      "stateMutability": "view",
      "type": "function"
    },
    {
      "inputs": [],
      "name": "rebalancingThreshold",
      "outputs": [
        {
          "internalType": "uint256",
          "name": "",
          "type": "uint256"
        }
      ],
      "stateMutability": "view",
      "type": "function"
    },
    {
      "inputs": [
        {
          "internalType": "address",
          "name": "account",
          "type": "address"
        }
      ],
      "name": "removeSuperUser",
      "outputs": [],
      "stateMutability": "nonpayable",
      "type": "function"
    },
    {
      "inputs": [],
      "name": "servicingThreshold",
      "outputs": [
        {
          "internalType": "uint256",
          "name": "",
          "type": "uint256"
        }
      ],
      "stateMutability": "view",
      "type": "function"
    },
    {
      "inputs": [
        {
          "internalType": "address",
          "name": "newBaks",
          "type": "address"
        }
      ],
      "name": "setBaks",
      "outputs": [],
      "stateMutability": "nonpayable",
      "type": "function"
    },
    {
      "inputs": [
        {
          "internalType": "address",
          "name": "newBank",
          "type": "address"
        }
      ],
      "name": "setBank",
      "outputs": [],
      "stateMutability": "nonpayable",
      "type": "function"
    },
    {
      "inputs": [
        {
          "internalType": "uint256",
          "name": "newDepositStabilizationFee",
          "type": "uint256"
        },
        {
          "internalType": "uint256",
          "name": "newDepositExchangeFee",
          "type": "uint256"
        },
        {
          "internalType": "uint256",
          "name": "newDepositDevelopmentFee",
          "type": "uint256"
        }
      ],
      "name": "setDepositFees",
      "outputs": [],
      "stateMutability": "nonpayable",
      "type": "function"
    },
    {
      "inputs": [
        {
          "internalType": "address",
          "name": "newDepositary",
          "type": "address"
        }
      ],
      "name": "setDepositary",
      "outputs": [],
      "stateMutability": "nonpayable",
      "type": "function"
    },
    {
      "inputs": [
        {
          "internalType": "address",
          "name": "newDevelopmentFund",
          "type": "address"
        }
      ],
      "name": "setDevelopmentFund",
      "outputs": [],
      "stateMutability": "nonpayable",
      "type": "function"
    },
    {
      "inputs": [
        {
          "internalType": "uint256",
          "name": "newEarlyWithdrawalFee",
          "type": "uint256"
        }
      ],
      "name": "setEarlyWithdrawalFee",
      "outputs": [],
      "stateMutability": "nonpayable",
      "type": "function"
    },
    {
      "inputs": [
        {
          "internalType": "uint256",
          "name": "newEarlyWithdrawalPeriod",
          "type": "uint256"
        }
      ],
      "name": "setEarlyWithdrawalPeriod",
      "outputs": [],
      "stateMutability": "nonpayable",
      "type": "function"
    },
    {
      "inputs": [
        {
          "internalType": "address",
          "name": "newExchangeFund",
          "type": "address"
        }
      ],
      "name": "setExchangeFund",
      "outputs": [],
      "stateMutability": "nonpayable",
      "type": "function"
    },
    {
      "inputs": [
        {
          "internalType": "uint256",
          "name": "newInterest",
          "type": "uint256"
        }
      ],
      "name": "setInterest",
      "outputs": [],
      "stateMutability": "nonpayable",
      "type": "function"
    },
    {
      "inputs": [
        {
          "internalType": "uint256",
          "name": "newLiquidationLoanToValueRatio",
          "type": "uint256"
        }
      ],
      "name": "setLiquidationLoanToValueRatio",
      "outputs": [],
      "stateMutability": "nonpayable",
      "type": "function"
    },
    {
      "inputs": [
        {
          "internalType": "address",
          "name": "newLiquidator",
          "type": "address"
        }
      ],
      "name": "setLiquidator",
      "outputs": [],
      "stateMutability": "nonpayable",
      "type": "function"
    },
    {
      "inputs": [
        {
          "internalType": "uint256",
          "name": "newMarginCallLoanToValueRatio",
          "type": "uint256"
        }
      ],
      "name": "setMarginCallLoanToValueRatio",
      "outputs": [],
      "stateMutability": "nonpayable",
      "type": "function"
    },
    {
      "inputs": [
        {
          "internalType": "uint256",
          "name": "newMinimumLiquidity",
          "type": "uint256"
        }
      ],
      "name": "setMinimumLiquidity",
      "outputs": [],
      "stateMutability": "nonpayable",
      "type": "function"
    },
    {
      "inputs": [
        {
          "internalType": "uint256",
          "name": "newMinimumMagisterDepositAmount",
          "type": "uint256"
        }
      ],
      "name": "setMinimumMagisterDepositAmount",
      "outputs": [],
      "stateMutability": "nonpayable",
      "type": "function"
    },
    {
      "inputs": [
        {
          "internalType": "uint256",
          "name": "newMinimumPrincipalAmount",
          "type": "uint256"
        }
      ],
      "name": "setMinimumPrincipalAmount",
      "outputs": [],
      "stateMutability": "nonpayable",
      "type": "function"
    },
    {
      "inputs": [
        {
          "internalType": "address",
          "name": "newOperator",
          "type": "address"
        }
      ],
      "name": "setOperator",
      "outputs": [],
      "stateMutability": "nonpayable",
      "type": "function"
    },
    {
      "inputs": [
        {
          "internalType": "uint256",
          "name": "newStabilizationFee",
          "type": "uint256"
        },
        {
          "internalType": "uint256",
          "name": "newExchangeFee",
          "type": "uint256"
        },
        {
          "internalType": "uint256",
          "name": "newDevelopmentFee",
          "type": "uint256"
        }
      ],
      "name": "setPlatformFees",
      "outputs": [],
      "stateMutability": "nonpayable",
      "type": "function"
    },
    {
      "inputs": [
        {
          "internalType": "address",
          "name": "newPriceOracle",
          "type": "address"
        }
      ],
      "name": "setPriceOracle",
      "outputs": [],
      "stateMutability": "nonpayable",
      "type": "function"
    },
    {
      "inputs": [
        {
          "internalType": "uint256",
          "name": "newRebalancingThreshold",
          "type": "uint256"
        }
      ],
      "name": "setRebalancingThreshold",
      "outputs": [],
      "stateMutability": "nonpayable",
      "type": "function"
    },
    {
      "inputs": [
        {
          "internalType": "uint256",
          "name": "newServicingThreshold",
          "type": "uint256"
        }
      ],
      "name": "setServicingThreshold",
      "outputs": [],
      "stateMutability": "nonpayable",
      "type": "function"
    },
    {
      "inputs": [
        {
          "internalType": "uint256",
          "name": "newStabilityFee",
          "type": "uint256"
        }
      ],
      "name": "setStabilityFee",
      "outputs": [],
      "stateMutability": "nonpayable",
      "type": "function"
    },
    {
      "inputs": [
        {
          "internalType": "address",
          "name": "newVoice",
          "type": "address"
        }
      ],
      "name": "setVoice",
      "outputs": [],
      "stateMutability": "nonpayable",
      "type": "function"
    },
    {
      "inputs": [
        {
          "internalType": "uint256[]",
          "name": "beneficiaries",
          "type": "uint256[]"
        }
      ],
      "name": "setVoiceMintingBeneficiaries",
      "outputs": [],
      "stateMutability": "nonpayable",
      "type": "function"
    },
    {
      "inputs": [
        {
          "internalType": "uint256",
          "name": "newWorkFee",
          "type": "uint256"
        }
      ],
      "name": "setWorkFee",
      "outputs": [],
      "stateMutability": "nonpayable",
      "type": "function"
    },
    {
      "inputs": [],
      "name": "stabilityFee",
      "outputs": [
        {
          "internalType": "uint256",
          "name": "",
          "type": "uint256"
        }
      ],
      "stateMutability": "view",
      "type": "function"
    },
    {
      "inputs": [],
      "name": "stabilizationFee",
      "outputs": [
        {
          "internalType": "uint256",
          "name": "",
          "type": "uint256"
        }
      ],
      "stateMutability": "view",
      "type": "function"
    },
    {
      "inputs": [
        {
          "internalType": "address",
          "name": "newGovernor",
          "type": "address"
        },
        {
          "internalType": "bool",
          "name": "force",
          "type": "bool"
        }
      ],
      "name": "transitGovernance",
      "outputs": [],
      "stateMutability": "nonpayable",
      "type": "function"
    },
    {
      "inputs": [],
      "name": "uniswapV2Router",
      "outputs": [
        {
          "internalType": "address",
          "name": "",
          "type": "address"
        }
      ],
      "stateMutability": "view",
      "type": "function"
    },
    {
      "inputs": [],
      "name": "voice",
      "outputs": [
        {
          "internalType": "address",
          "name": "",
          "type": "address"
        }
      ],
      "stateMutability": "view",
      "type": "function"
    },
    {
      "inputs": [],
      "name": "voiceMintingBeneficiaries",
      "outputs": [
        {
          "internalType": "uint256[]",
          "name": "",
          "type": "uint256[]"
        }
      ],
      "stateMutability": "view",
      "type": "function"
    },
    {
      "inputs": [],
      "name": "voiceMintingSchedule",
      "outputs": [
        {
          "internalType": "uint256[]",
          "name": "",
          "type": "uint256[]"
        }
      ],
      "stateMutability": "view",
      "type": "function"
    },
    {
      "inputs": [],
      "name": "voiceTotalShares",
      "outputs": [
        {
          "internalType": "uint256",
          "name": "",
          "type": "uint256"
        }
      ],
      "stateMutability": "view",
      "type": "function"
    },
    {
      "inputs": [],
      "name": "workFee",
      "outputs": [
        {
          "internalType": "uint256",
          "name": "",
          "type": "uint256"
        }
      ],
      "stateMutability": "view",
      "type": "function"
    },
    {
      "inputs": [],
      "name": "wrappedNativeCurrency",
      "outputs": [
        {
          "internalType": "address",
          "name": "",
          "type": "address"
        }
      ],
      "stateMutability": "view",
      "type": "function"
    }
  ],
  "transactionHash": "0x5dc16e783ddabb769d5eb93280b389cbaf4977126f8bb458d16370e79aeafd92",
  "args": [],
  "solcInputHash": "af56aab726d69dd04c0941a58a5e4aa3",
  "bytecode": "0x608060405234801561001057600080fd5b50611fab806100206000396000f3fe608060405234801561001057600080fd5b50600436106103cf5760003560e01c8063570ca735116101ff578063c13600231161011a578063e5265d88116100ad578063f826ed2e1161007c578063f826ed2e146107c9578063f8c8765e146107dc578063fb1a12d1146107ef578063fb4ca35b1461080257600080fd5b8063e5265d8814610792578063e7f3028c1461079a578063eb907b22146107ad578063ee0e54cb146107c057600080fd5b8063d876d98e116100e9578063d876d98e14610750578063ddc1252614610759578063e16da9f81461076c578063e3056a341461077f57600080fd5b8063c136002314610702578063c392f7661461070b578063c475e36b14610714578063cd784d1b1461071d57600080fd5b80638b02d31711610192578063a5f3d00311610161578063a5f3d003146106ca578063af76a7ef146106d3578063b3ab15fb146106e6578063b56cf011146106f957600080fd5b80638b02d317146106865780639cc3c0d4146106995780639dca3fe3146106ac578063a0230d50146106c157600080fd5b806376cdb03b116101ce57806376cdb03b1461063a57806377c4572d1461064d5780637c680286146106605780638a2381d71461067357600080fd5b8063570ca735146105f85780635747cb131461060b5780635838815f14610614578063736e1c261461062757600080fd5b8063282567b4116102ef5780634046ebae116102825780634c12d471116102515780634c12d471146105b65780634c4e61e9146105c957806351adfe49146105dc578063530e784f146105e557600080fd5b80634046ebae1461058857806342580dbe1461059b5780634433c5e8146105a4578063453844b6146105ad57600080fd5b806334dbf19e116102be57806334dbf19e14610550578063361416e1146105635780633a5017b41461056c5780633f8189ea1461057557600080fd5b8063282567b41461050e5780632b3c3892146105215780632ecd3be41461053457806334b61a151461053d57600080fd5b80630e060378116103675780631d086720116103365780631d086720146104cd5780632231ffaf146104e0578063238efcbc146104f35780632630c12f146104fb57600080fd5b80630e0603781461048b57806316330d401461049e5780631694505e146104a75780631805d668146104ba57600080fd5b8063090d23b9116103a3578063090d23b91461042b5780630b68a5801461043e5780630c340a24146104475780630cfb61491461047857600080fd5b80623ba82e146103d457806301c76f81146103e957806302556fff146103fc578063047de1e81461040f575b600080fd5b6103e76103e2366004611d8f565b610815565b005b6103e76103f7366004611d8f565b61086a565b6103e761040a366004611d8f565b610904565b61041860225481565b6040519081526020015b60405180910390f35b6103e7610439366004611d8f565b610956565b610418600e5481565b600054610460906201000090046001600160a01b031681565b6040516001600160a01b039091168152602001610422565b6103e7610486366004611db1565b6109f0565b600854610460906001600160a01b031681565b61041860195481565b600354610460906001600160a01b031681565b6103e76104c8366004611d8f565b610adf565b6103e76104db366004611ddd565b610b79565b6103e76104ee366004611d8f565b610beb565b6103e7610c85565b600454610460906001600160a01b031681565b6103e761051c366004611ddd565b610d1a565b6103e761052f366004611ddd565b610d8c565b61041860115481565b6103e761054b366004611d8f565b610dfe565b6103e761055e366004611d8f565b610e98565b610418600f5481565b61041860175481565b6103e7610583366004611ddd565b610f32565b600c54610460906001600160a01b031681565b61041860105481565b61041860145481565b610418601a5481565b600954610460906001600160a01b031681565b600554610460906001600160a01b031681565b61041860185481565b6103e76105f3366004611d8f565b610fa4565b600b54610460906001600160a01b031681565b610418601e5481565b6103e7610622366004611ddd565b61103e565b6103e7610635366004611ddd565b6110b0565b600754610460906001600160a01b031681565b6103e761065b366004611ddd565b611122565b6103e761066e366004611d8f565b611194565b600a54610460906001600160a01b031681565b600654610460906001600160a01b031681565b6103e76106a7366004611ddd565b61122e565b6106b46112a0565b6040516104229190611df6565b61041860165481565b61041860125481565b6103e76106e1366004611ddd565b6112f8565b6103e76106f4366004611d8f565b61136a565b610418601b5481565b61041860215481565b610418600d5481565b61041860205481565b61074061072b366004611d8f565b601f6020526000908152604090205460ff1681565b6040519015158152602001610422565b61041860135481565b6103e7610767366004611e3a565b611404565b6103e761077a366004611db1565b6114f6565b600154610460906001600160a01b031681565b6106b46115df565b600254610460906001600160a01b031681565b6103e76107bb366004611ddd565b611635565b61041860155481565b6103e76107d7366004611ddd565b6116a7565b6103e76107ea366004611e76565b611719565b6103e76107fd366004611eca565b611af1565b6103e7610810366004611ddd565b611bbe565b6000546201000090046001600160a01b03163314610846576040516305e7700560e51b815260040160405180910390fd5b6001600160a01b03166000908152601f60205260409020805460ff19166001179055565b6000546201000090046001600160a01b0316331461089b576040516305e7700560e51b815260040160405180910390fd5b600c54604080516001600160a01b03928316815291831660208301527fbeefc50872111fb9c2028f8772e06e99ec622d34506eec7ac0e85afd9de7889d910160405180910390a1600c80546001600160a01b0319166001600160a01b0392909216919091179055565b6000546201000090046001600160a01b03163314610935576040516305e7700560e51b815260040160405180910390fd5b6001600160a01b03166000908152601f60205260409020805460ff19169055565b6000546201000090046001600160a01b03163314610987576040516305e7700560e51b815260040160405180910390fd5b600754604080516001600160a01b03928316815291831660208301527f6b13d0b6d0f96f25f42864a97c7a29b23b8b2ee5b36a253eabfb1eb7ffaae857910160405180910390a1600780546001600160a01b0319166001600160a01b0392909216919091179055565b6000546201000090046001600160a01b03163314610a21576040516305e7700560e51b815260040160405180910390fd5b670de0b6b3a764000081610a358486611f55565b610a3f9190611f55565b14610a73576040516308fa80c160e31b81526004810184905260248101839052604481018290526064015b60405180910390fd5b60208054602154602254604080519384529383018790529282015260608101849052608081019190915260a081018290527fe88e32dda4c3303c84842a4e0d8269f0f23ae5dc53bbba333f46981ab5f1706b9060c00160405180910390a1602092909255602155602255565b6000546201000090046001600160a01b03163314610b10576040516305e7700560e51b815260040160405180910390fd5b600954604080516001600160a01b03928316815291831660208301527f26b19e8e52229d412c9484193160fe978f9f2d6a9348204dfe33888820688cb9910160405180910390a1600980546001600160a01b0319166001600160a01b0392909216919091179055565b6000546201000090046001600160a01b03163314610baa576040516305e7700560e51b815260040160405180910390fd5b600d5460408051918252602082018390527f46ba83b1bb5d30bf76865a9c4d50e868ef6092e32e9dbca33926fe6d81c1a129910160405180910390a1600d55565b6000546201000090046001600160a01b03163314610c1c576040516305e7700560e51b815260040160405180910390fd5b600854604080516001600160a01b03928316815291831660208301527f2d4ee1d7f376d00cf396d38b08067a5ec3f3b71d966ca4db5a379ba3b1ea797d910160405180910390a1600880546001600160a01b0319166001600160a01b0392909216919091179055565b6001546001600160a01b03163314610cb05760405163aec80d4b60e01b815260040160405180910390fd5b60015460008054620100006001600160a01b0393841681810275ffffffffffffffffffffffffffffffffffffffff00001990931692909217808455604051929491900416917f564590b81987d147246f63910a8e1ee4eb09c4d64cc75ee975a8ffedfcc2210e91a3565b6000546201000090046001600160a01b03163314610d4b576040516305e7700560e51b815260040160405180910390fd5b601b5460408051918252602082018390527fd18c85fe8a5776467c327fa33312c6113129233ddb47deabaa91b8396b815879910160405180910390a1601b55565b6000546201000090046001600160a01b03163314610dbd576040516305e7700560e51b815260040160405180910390fd5b600e5460408051918252602082018390527fde9fa07b6ca9d540214c05366e57cb33adf8f132014d9d1b2802a5b89a99512a910160405180910390a1600e55565b6000546201000090046001600160a01b03163314610e2f576040516305e7700560e51b815260040160405180910390fd5b600554604080516001600160a01b03928316815291831660208301527fc0451bcadaef87367fc2de908531ac97476502a83c5bbfb1d50b5623869142d0910160405180910390a1600580546001600160a01b0319166001600160a01b0392909216919091179055565b6000546201000090046001600160a01b03163314610ec9576040516305e7700560e51b815260040160405180910390fd5b600a54604080516001600160a01b03928316815291831660208301527f890d67e11a87724c3e924031bc5edde282c8c2a5090de71c4d3c98df6c293e44910160405180910390a1600a80546001600160a01b0319166001600160a01b0392909216919091179055565b6000546201000090046001600160a01b03163314610f63576040516305e7700560e51b815260040160405180910390fd5b60145460408051918252602082018390527fa466548b1a7b7c581a6b5b6e38ebed0f41846451118fb8582b71f8605b960cd8910160405180910390a1601455565b6000546201000090046001600160a01b03163314610fd5576040516305e7700560e51b815260040160405180910390fd5b600454604080516001600160a01b03928316815291831660208301527f56b5f80d8cac1479698aa7d01605fd6111e90b15fc4d2b377417f46034876cbd910160405180910390a1600480546001600160a01b0319166001600160a01b0392909216919091179055565b6000546201000090046001600160a01b0316331461106f576040516305e7700560e51b815260040160405180910390fd5b60165460408051918252602082018390527f4fb8587c5a3f8cf9e57d22189b561f07db407b875d0088af925ba5def959e302910160405180910390a1601655565b6000546201000090046001600160a01b031633146110e1576040516305e7700560e51b815260040160405180910390fd5b601a5460408051918252602082018390527f157d4d2c2eb9bbd85c7f6da0c13113a3799cc3df5c817cba85d84832176459bc910160405180910390a1601a55565b6000546201000090046001600160a01b03163314611153576040516305e7700560e51b815260040160405180910390fd5b60135460408051918252602082018390527fd2a3e4f854a80a895407f8743c1363ac14b698c432d22d8c65519e13a9e4983d910160405180910390a1601355565b6000546201000090046001600160a01b031633146111c5576040516305e7700560e51b815260040160405180910390fd5b600654604080516001600160a01b03928316815291831660208301527f84a99d2bd54dc2cc9a7a0f569fdf3dfd12ad1bc01d0fbaaede284310730067f6910160405180910390a1600680546001600160a01b0319166001600160a01b0392909216919091179055565b6000546201000090046001600160a01b0316331461125f576040516305e7700560e51b815260040160405180910390fd5b60185460408051918252602082018390527f852e5c58e234ad1a0ba40f41c39fa15df7c5494ad6198a802fcdffa3e8e4a0c5910160405180910390a1601855565b6060601c8054806020026020016040519081016040528092919081815260200182805480156112ee57602002820191906000526020600020905b8154815260200190600101908083116112da575b5050505050905090565b6000546201000090046001600160a01b03163314611329576040516305e7700560e51b815260040160405180910390fd5b60155460408051918252602082018390527f5eb53b71d73d0607121e658859e0125d7bbbf83c4288d44c18438d4fe94d1e07910160405180910390a1601555565b6000546201000090046001600160a01b0316331461139b576040516305e7700560e51b815260040160405180910390fd5b600b54604080516001600160a01b03928316815291831660208301527ffbe5b6cbafb274f445d7fed869dc77a838d8243a22c460de156560e8857cad03910160405180910390a1600b80546001600160a01b0319166001600160a01b0392909216919091179055565b6000546201000090046001600160a01b03163314611435576040516305e7700560e51b815260040160405180910390fd5b6001600160a01b03821661145c5760405163604b48b960e11b815260040160405180910390fd5b6001600160a01b038216301415611486576040516306b3e95d60e21b815260040160405180910390fd5b600180546001600160a01b0319166001600160a01b038416179055806114e957600080546040516001600160a01b03808616936201000090930416917fc606c9af1451cadeb333f6ff7b24a5540974f4e800bac274fa7fff9edc305cb191a35050565b6114f282611c30565b5050565b6000546201000090046001600160a01b03163314611527576040516305e7700560e51b815260040160405180910390fd5b670de0b6b3a76400008161153b8486611f55565b6115459190611f55565b14611574576040516308fa80c160e31b8152600481018490526024810183905260448101829052606401610a6a565b601054601154601254604080519384526020840187905283019190915260608201849052608082015260a081018290527f1f7068a9be898db6fcd350ac2ff32fc5f1e6fc46c8e6cc973cde53793ff3ab5e9060c00160405180910390a1601092909255601155601255565b6060601d8054806020026020016040519081016040528092919081815260200182805480156112ee57602002820191906000526020600020908154815260200190600101908083116112da575050505050905090565b6000546201000090046001600160a01b03163314611666576040516305e7700560e51b815260040160405180910390fd5b60175460408051918252602082018390527f7dcd30db94569ddb363e830c535d2ab4561ba0521e93e7b04af6352851c95953910160405180910390a1601755565b6000546201000090046001600160a01b031633146116d8576040516305e7700560e51b815260040160405180910390fd5b60195460408051918252602082018390527f1e1bc70f0e861e459ffcc21bee51703c1f518199b9fa24001c912cbb6d0f198e910160405180910390a1601955565b60005460ff161580156117335750600054610100900460ff165b1561175157604051631ee1e30360e21b815260040160405180910390fd5b60005460ff1615801561176e576000805461ffff19166101011790555b61177733611c30565b600280546001600160a01b038088166001600160a01b03199283161790925560038054878416908316179055600b8054868416908316179055600c805492851692909116919091179055670186cc6acd4b0000600d556802b5e3af16b1880000600e5566354a6ba7a18000600f55670bcbce7f1b1500006010819055670214e8348c4f0000601181815560006012819055670a688906bd8b0000601355670b84c09a3b930000601455662386f26fc100006015819055690a968163f0a57b400000601681905566470de4df8200006017556203f48060185566038d7ea4c68000601955601a91909155601b55602092835560219390935560229290925560408051610220810182526a295be96e6406697200000081527a0422ca8b0a00a4250000000000000000295be96e64066972000000928101929092527a084595161401484a000000000000000052b7d2dcc80cd2e4000000908201527a108b2a2c28029094000000000000000052b7d2dcc80cd2e400000060608201527a2116545850052128000000000000000052b7d2dcc80cd2e400000060808201527a422ca8b0a00a4250000000000000000052b7d2dcc80cd2e400000060a08201527a84595161401484a0000000000000000052b7d2dcc80cd2e400000060c08201527b0108b2a2c280290940000000000000000052b7d2dcc80cd2e400000060e08201527b014adf4b7320334b90000000000000000052b7d2dcc80cd2e40000006101008201527b018d0bf423c03d8de0000000000000000052b7d2dcc80cd2e40000006101208201527b01cf389cd46047d030000000000000000052b7d2dcc80cd2e40000006101408201527b021165458500521280000000000000000052b7d2dcc80cd2e40000006101608201527b025391ee35a05c54d0000000000000000052b7d2dcc80cd2e40000006101808201527b0295be96e6406697200000000000000000a56fa5b99019a5c80000006101a08201527b02d7eb3f96e070d9700000000000000000a56fa5b99019a5c80000006101c08201527b031a17e847807b1bc00000000000000000a56fa5b99019a5c80000006101e08201527b035c4490f820855e100000000000000000a56fa5b99019a5c8000000610200820152611abe91601c9190611c97565b50336000908152601f60205260409020805460ff191660011790558015611aea576000805460ff191690555b5050505050565b6000546201000090046001600160a01b03163314611b22576040516305e7700560e51b815260040160405180910390fd5b611b2e601d6000611d02565b611b3a601d8383611d23565b506000601e8190555b601d54811015611bb9576000611b8a601d8381548110611b6557611b65611f6d565b9060005260206000200154606081901c916bffffffffffffffffffffffff9190911690565b91505080601e6000828254611b9f9190611f55565b90915550829150611bb1905081611f83565b915050611b43565b505050565b6000546201000090046001600160a01b03163314611bef576040516305e7700560e51b815260040160405180910390fd5b600f5460408051918252602082018390527fde9fa07b6ca9d540214c05366e57cb33adf8f132014d9d1b2802a5b89a99512a910160405180910390a1600f55565b6000805475ffffffffffffffffffffffffffffffffffffffff00001916620100006001600160a01b0384811682810293909317808555604051939492900416917f564590b81987d147246f63910a8e1ee4eb09c4d64cc75ee975a8ffedfcc2210e9190a350565b828054828255906000526020600020908101928215611cf2579160200282015b82811115611cf257825182907bffffffffffffffffffffffffffffffffffffffffffffffffffffffff16905591602001919060010190611cb7565b50611cfe929150611d5e565b5090565b5080546000825590600052602060002090810190611d209190611d5e565b50565b828054828255906000526020600020908101928215611cf2579160200282015b82811115611cf2578235825591602001919060010190611d43565b5b80821115611cfe5760008155600101611d5f565b80356001600160a01b0381168114611d8a57600080fd5b919050565b600060208284031215611da157600080fd5b611daa82611d73565b9392505050565b600080600060608486031215611dc657600080fd5b505081359360208301359350604090920135919050565b600060208284031215611def57600080fd5b5035919050565b6020808252825182820181905260009190848201906040850190845b81811015611e2e57835183529284019291840191600101611e12565b50909695505050505050565b60008060408385031215611e4d57600080fd5b611e5683611d73565b915060208301358015158114611e6b57600080fd5b809150509250929050565b60008060008060808587031215611e8c57600080fd5b611e9585611d73565b9350611ea360208601611d73565b9250611eb160408601611d73565b9150611ebf60608601611d73565b905092959194509250565b60008060208385031215611edd57600080fd5b823567ffffffffffffffff80821115611ef557600080fd5b818501915085601f830112611f0957600080fd5b813581811115611f1857600080fd5b8660208260051b8501011115611f2d57600080fd5b60209290920196919550909350505050565b634e487b7160e01b600052601160045260246000fd5b60008219821115611f6857611f68611f3f565b500190565b634e487b7160e01b600052603260045260246000fd5b6000600019821415611f9757611f97611f3f565b506001019056fea164736f6c634300080a000a",
  "devdoc": {
    "errors": {
      "BaksDAOFeesDontSumUpToOne(uint256,uint256,uint256)": [
        {
          "details": "Thrown when trying to set fees that don't sum up to one.",
          "params": {
            "developmentFee": "The stabilization fee that was tried to set.",
            "exchangeFee": "The stabilization fee that was tried to set.",
            "stabilizationFee": "The stabilization fee that was tried to set."
          }
        }
      ]
    },
    "kind": "dev",
    "methods": {},
    "version": 1
  },
  "userdoc": {
    "kind": "user",
    "methods": {},
    "version": 1
  },
  "storageLayout": {
    "storage": [
      {
        "astId": 11488,
        "contract": "contracts/Core.sol:Core",
        "label": "initializing",
        "offset": 0,
        "slot": "0",
        "type": "t_bool"
      },
      {
        "astId": 11490,
        "contract": "contracts/Core.sol:Core",
        "label": "initialized",
        "offset": 1,
        "slot": "0",
        "type": "t_bool"
      },
      {
        "astId": 7647,
        "contract": "contracts/Core.sol:Core",
        "label": "governor",
        "offset": 2,
        "slot": "0",
        "type": "t_address"
      },
      {
        "astId": 7649,
        "contract": "contracts/Core.sol:Core",
        "label": "pendingGovernor",
        "offset": 0,
        "slot": "1",
        "type": "t_address"
      },
      {
        "astId": 3474,
        "contract": "contracts/Core.sol:Core",
        "label": "wrappedNativeCurrency",
        "offset": 0,
        "slot": "2",
        "type": "t_address"
      },
      {
        "astId": 3477,
        "contract": "contracts/Core.sol:Core",
        "label": "uniswapV2Router",
        "offset": 0,
        "slot": "3",
        "type": "t_address"
      },
      {
        "astId": 3480,
        "contract": "contracts/Core.sol:Core",
        "label": "priceOracle",
        "offset": 0,
        "slot": "4",
        "type": "t_address"
      },
      {
        "astId": 3483,
        "contract": "contracts/Core.sol:Core",
        "label": "baks",
        "offset": 0,
        "slot": "5",
        "type": "t_address"
      },
      {
        "astId": 3486,
        "contract": "contracts/Core.sol:Core",
        "label": "voice",
        "offset": 0,
        "slot": "6",
        "type": "t_address"
      },
      {
        "astId": 3489,
        "contract": "contracts/Core.sol:Core",
        "label": "bank",
        "offset": 0,
        "slot": "7",
        "type": "t_address"
      },
      {
        "astId": 3492,
        "contract": "contracts/Core.sol:Core",
        "label": "depositary",
        "offset": 0,
        "slot": "8",
        "type": "t_address"
      },
      {
        "astId": 3495,
        "contract": "contracts/Core.sol:Core",
        "label": "exchangeFund",
        "offset": 0,
        "slot": "9",
        "type": "t_address"
      },
      {
        "astId": 3498,
        "contract": "contracts/Core.sol:Core",
        "label": "developmentFund",
        "offset": 0,
        "slot": "10",
        "type": "t_address"
      },
      {
        "astId": 3501,
        "contract": "contracts/Core.sol:Core",
        "label": "operator",
        "offset": 0,
        "slot": "11",
        "type": "t_address"
      },
      {
        "astId": 3504,
        "contract": "contracts/Core.sol:Core",
        "label": "liquidator",
        "offset": 0,
        "slot": "12",
        "type": "t_address"
      },
      {
        "astId": 3507,
        "contract": "contracts/Core.sol:Core",
        "label": "interest",
        "offset": 0,
        "slot": "13",
        "type": "t_uint256"
      },
      {
        "astId": 3510,
        "contract": "contracts/Core.sol:Core",
        "label": "minimumPrincipalAmount",
        "offset": 0,
        "slot": "14",
        "type": "t_uint256"
      },
      {
        "astId": 3513,
        "contract": "contracts/Core.sol:Core",
        "label": "stabilityFee",
        "offset": 0,
        "slot": "15",
        "type": "t_uint256"
      },
      {
        "astId": 3516,
        "contract": "contracts/Core.sol:Core",
        "label": "stabilizationFee",
        "offset": 0,
        "slot": "16",
        "type": "t_uint256"
      },
      {
        "astId": 3519,
        "contract": "contracts/Core.sol:Core",
        "label": "exchangeFee",
        "offset": 0,
        "slot": "17",
        "type": "t_uint256"
      },
      {
        "astId": 3522,
        "contract": "contracts/Core.sol:Core",
        "label": "developmentFee",
        "offset": 0,
        "slot": "18",
        "type": "t_uint256"
      },
      {
        "astId": 3525,
        "contract": "contracts/Core.sol:Core",
        "label": "marginCallLoanToValueRatio",
        "offset": 0,
        "slot": "19",
        "type": "t_uint256"
      },
      {
        "astId": 3528,
        "contract": "contracts/Core.sol:Core",
        "label": "liquidationLoanToValueRatio",
        "offset": 0,
        "slot": "20",
        "type": "t_uint256"
      },
      {
        "astId": 3531,
        "contract": "contracts/Core.sol:Core",
        "label": "rebalancingThreshold",
        "offset": 0,
        "slot": "21",
        "type": "t_uint256"
      },
      {
        "astId": 3534,
        "contract": "contracts/Core.sol:Core",
        "label": "minimumMagisterDepositAmount",
        "offset": 0,
        "slot": "22",
        "type": "t_uint256"
      },
      {
        "astId": 3537,
        "contract": "contracts/Core.sol:Core",
        "label": "workFee",
        "offset": 0,
        "slot": "23",
        "type": "t_uint256"
      },
      {
        "astId": 3540,
        "contract": "contracts/Core.sol:Core",
        "label": "earlyWithdrawalPeriod",
        "offset": 0,
        "slot": "24",
        "type": "t_uint256"
      },
      {
        "astId": 3543,
        "contract": "contracts/Core.sol:Core",
        "label": "earlyWithdrawalFee",
        "offset": 0,
        "slot": "25",
        "type": "t_uint256"
      },
      {
        "astId": 3546,
        "contract": "contracts/Core.sol:Core",
        "label": "servicingThreshold",
        "offset": 0,
        "slot": "26",
        "type": "t_uint256"
      },
      {
        "astId": 3549,
        "contract": "contracts/Core.sol:Core",
        "label": "minimumLiquidity",
        "offset": 0,
        "slot": "27",
        "type": "t_uint256"
      },
      {
        "astId": 3552,
        "contract": "contracts/Core.sol:Core",
        "label": "_voiceMintingSchedule",
        "offset": 0,
        "slot": "28",
        "type": "t_array(t_uint256)dyn_storage"
      },
      {
        "astId": 3555,
        "contract": "contracts/Core.sol:Core",
        "label": "_voiceMintingBeneficiaries",
        "offset": 0,
        "slot": "29",
        "type": "t_array(t_uint256)dyn_storage"
      },
      {
        "astId": 3558,
        "contract": "contracts/Core.sol:Core",
        "label": "voiceTotalShares",
        "offset": 0,
        "slot": "30",
        "type": "t_uint256"
      },
      {
        "astId": 3563,
        "contract": "contracts/Core.sol:Core",
        "label": "isSuperUser",
        "offset": 0,
        "slot": "31",
        "type": "t_mapping(t_address,t_bool)"
      },
      {
        "astId": 3566,
        "contract": "contracts/Core.sol:Core",
        "label": "depositStabilizationFee",
        "offset": 0,
        "slot": "32",
        "type": "t_uint256"
      },
      {
        "astId": 3569,
        "contract": "contracts/Core.sol:Core",
        "label": "depositExchangeFee",
        "offset": 0,
        "slot": "33",
        "type": "t_uint256"
      },
      {
        "astId": 3572,
        "contract": "contracts/Core.sol:Core",
        "label": "depositDevelopmentFee",
        "offset": 0,
        "slot": "34",
        "type": "t_uint256"
      }
    ],
    "types": {
      "t_address": {
        "encoding": "inplace",
        "label": "address",
        "numberOfBytes": "20"
      },
      "t_array(t_uint256)dyn_storage": {
        "base": "t_uint256",
        "encoding": "dynamic_array",
        "label": "uint256[]",
        "numberOfBytes": "32"
      },
      "t_bool": {
        "encoding": "inplace",
        "label": "bool",
        "numberOfBytes": "1"
      },
      "t_mapping(t_address,t_bool)": {
        "encoding": "mapping",
        "key": "t_address",
        "label": "mapping(address => bool)",
        "numberOfBytes": "32",
        "value": "t_bool"
      },
      "t_uint256": {
        "encoding": "inplace",
        "label": "uint256",
        "numberOfBytes": "32"
      }
    }
  }
}