{
  "address": "0x75B0f2E6E37025DbD5Afb0F37682E787c4D52741",
  "abi": [
    {
      "inputs": [],
      "name": "BaksDAOBelowMinimumMagisterDepositAmount",
      "type": "error"
    },
    {
      "inputs": [],
      "name": "BaksDAODepositZeroAmount",
      "type": "error"
    },
    {
      "inputs": [
        {
          "internalType": "address",
          "name": "magister",
          "type": "address"
        }
      ],
      "name": "BaksDAOMagisterAlreadyWhitelisted",
      "type": "error"
    },
    {
      "inputs": [
        {
          "internalType": "address",
          "name": "magister",
          "type": "address"
        }
      ],
      "name": "BaksDAOMagisterBlacklisted",
      "type": "error"
    },
    {
      "inputs": [],
      "name": "BaksDAOOnlyDepositaryAllowed",
      "type": "error"
    },
    {
      "inputs": [],
      "name": "BaksDAOOnlyDepositorOrMagisterAllowed",
      "type": "error"
    },
    {
      "inputs": [],
      "name": "BaksDAOWithdrawAmountExceedsPrincipal",
      "type": "error"
    },
    {
      "inputs": [
        {
          "internalType": "address",
          "name": "target",
          "type": "address"
        }
      ],
      "name": "CallToNonContract",
      "type": "error"
    },
    {
      "inputs": [],
      "name": "ContractAlreadyInitialized",
      "type": "error"
    },
    {
      "inputs": [
        {
          "internalType": "uint256",
          "name": "a",
          "type": "uint256"
        }
      ],
      "name": "FixedPointMathExp2ArgumentTooBig",
      "type": "error"
    },
    {
      "inputs": [
        {
          "internalType": "uint256",
          "name": "a",
          "type": "uint256"
        }
      ],
      "name": "FixedPointMathLog2ArgumentTooBig",
      "type": "error"
    },
    {
      "inputs": [
        {
          "internalType": "uint256",
          "name": "prod1",
          "type": "uint256"
        },
        {
          "internalType": "uint256",
          "name": "denominator",
          "type": "uint256"
        }
      ],
      "name": "FixedPointMathMulDivOverflow",
      "type": "error"
    },
    {
      "inputs": [],
      "name": "GovernedCantGoverItself",
      "type": "error"
    },
    {
      "inputs": [],
      "name": "GovernedGovernorZeroAddress",
      "type": "error"
    },
    {
      "inputs": [],
      "name": "GovernedOnlyGovernorAllowedToCall",
      "type": "error"
    },
    {
      "inputs": [],
      "name": "GovernedOnlyPendingGovernorAllowedToCall",
      "type": "error"
    },
    {
      "inputs": [],
      "name": "SafeERC20NoReturnData",
      "type": "error"
    },
    {
      "anonymous": false,
      "inputs": [
        {
          "indexed": true,
          "internalType": "address",
          "name": "governor",
          "type": "address"
        },
        {
          "indexed": true,
          "internalType": "address",
          "name": "newGovernor",
          "type": "address"
        }
      ],
      "name": "GovernanceTransited",
      "type": "event"
    },
    {
      "anonymous": false,
      "inputs": [
        {
          "indexed": true,
          "internalType": "address",
          "name": "magister",
          "type": "address"
        }
      ],
      "name": "MagisterBlacklisted",
      "type": "event"
    },
    {
      "anonymous": false,
      "inputs": [
        {
          "indexed": true,
          "internalType": "address",
          "name": "magister",
          "type": "address"
        }
      ],
      "name": "MagisterWhitelisted",
      "type": "event"
    },
    {
      "anonymous": false,
      "inputs": [
        {
          "indexed": true,
          "internalType": "address",
          "name": "governor",
          "type": "address"
        },
        {
          "indexed": true,
          "internalType": "address",
          "name": "newGovernor",
          "type": "address"
        }
      ],
      "name": "PendingGovernanceTransition",
      "type": "event"
    },
    {
      "inputs": [],
      "name": "acceptGovernance",
      "outputs": [],
      "stateMutability": "nonpayable",
      "type": "function"
    },
    {
      "inputs": [
        {
          "internalType": "contract IERC20",
          "name": "depositToken",
          "type": "address"
        },
        {
          "internalType": "bool",
          "name": "isCompounding",
          "type": "bool"
        },
        {
          "internalType": "uint256",
          "name": "depositorApr",
          "type": "uint256"
        },
        {
          "internalType": "uint256",
          "name": "magisterApr",
          "type": "uint256"
        },
        {
          "internalType": "uint256",
          "name": "depositorBonusApr",
          "type": "uint256"
        },
        {
          "internalType": "uint256",
          "name": "magisterBonusApr",
          "type": "uint256"
        }
      ],
      "name": "addPool",
      "outputs": [],
      "stateMutability": "nonpayable",
      "type": "function"
    },
    {
      "inputs": [
        {
          "internalType": "address",
          "name": "magister",
          "type": "address"
        }
      ],
      "name": "blacklistMagister",
      "outputs": [],
      "stateMutability": "nonpayable",
      "type": "function"
    },
    {
      "inputs": [],
      "name": "core",
      "outputs": [
        {
          "internalType": "contract ICore",
          "name": "",
          "type": "address"
        }
      ],
      "stateMutability": "view",
      "type": "function"
    },
    {
      "inputs": [
        {
          "internalType": "uint256",
          "name": "",
          "type": "uint256"
        },
        {
          "internalType": "address",
          "name": "",
          "type": "address"
        }
      ],
      "name": "currentDepositIds",
      "outputs": [
        {
          "internalType": "uint256",
          "name": "",
          "type": "uint256"
        }
      ],
      "stateMutability": "view",
      "type": "function"
    },
    {
      "inputs": [
        {
          "internalType": "uint256",
          "name": "poolId",
          "type": "uint256"
        },
        {
          "internalType": "uint256",
          "name": "amount",
          "type": "uint256"
        },
        {
          "internalType": "address",
          "name": "magister",
          "type": "address"
        }
      ],
      "name": "deposit",
      "outputs": [],
      "stateMutability": "nonpayable",
      "type": "function"
    },
    {
      "inputs": [
        {
          "internalType": "uint256",
          "name": "poolId",
          "type": "uint256"
        },
        {
          "internalType": "uint256",
          "name": "amount",
          "type": "uint256"
        }
      ],
      "name": "deposit",
      "outputs": [],
      "stateMutability": "nonpayable",
      "type": "function"
    },
    {
      "inputs": [
        {
          "internalType": "uint256",
          "name": "",
          "type": "uint256"
        }
      ],
      "name": "deposits",
      "outputs": [
        {
          "internalType": "uint256",
          "name": "id",
          "type": "uint256"
        },
        {
          "internalType": "bool",
          "name": "isActive",
          "type": "bool"
        },
        {
          "internalType": "address",
          "name": "depositor",
          "type": "address"
        },
        {
          "internalType": "address",
          "name": "magister",
          "type": "address"
        },
        {
          "internalType": "uint256",
          "name": "poolId",
          "type": "uint256"
        },
        {
          "internalType": "uint256",
          "name": "principal",
          "type": "uint256"
        },
        {
          "internalType": "uint256",
          "name": "depositorTotalAccruedRewards",
          "type": "uint256"
        },
        {
          "internalType": "uint256",
          "name": "depositorWithdrawnRewards",
          "type": "uint256"
        },
        {
          "internalType": "uint256",
          "name": "magisterTotalAccruedRewards",
          "type": "uint256"
        },
        {
          "internalType": "uint256",
          "name": "magisterWithdrawnRewards",
          "type": "uint256"
        },
        {
          "internalType": "uint256",
          "name": "createdAt",
          "type": "uint256"
        },
        {
          "internalType": "uint256",
          "name": "lastDepositAt",
          "type": "uint256"
        },
        {
          "internalType": "uint256",
          "name": "lastInteractionAt",
          "type": "uint256"
        },
        {
          "internalType": "uint256",
          "name": "closedAt",
          "type": "uint256"
        }
      ],
      "stateMutability": "view",
      "type": "function"
    },
    {
      "inputs": [],
      "name": "getActiveMagisterAddresses",
      "outputs": [
        {
          "internalType": "address[]",
          "name": "activeMagisterAddresses",
          "type": "address[]"
        }
      ],
      "stateMutability": "view",
      "type": "function"
    },
    {
      "inputs": [],
      "name": "getActiveMagisters",
      "outputs": [
        {
          "components": [
            {
              "internalType": "bool",
              "name": "isActive",
              "type": "bool"
            },
            {
              "internalType": "uint256",
              "name": "createdAt",
              "type": "uint256"
            },
            {
              "internalType": "address",
              "name": "addr",
              "type": "address"
            },
            {
              "internalType": "uint256",
              "name": "totalIncome",
              "type": "uint256"
            },
            {
              "internalType": "uint256[]",
              "name": "depositIds",
              "type": "uint256[]"
            }
          ],
          "internalType": "struct Magister.Data[]",
          "name": "activeMagisters",
          "type": "tuple[]"
        }
      ],
      "stateMutability": "view",
      "type": "function"
    },
    {
      "inputs": [
        {
          "internalType": "address",
          "name": "magister",
          "type": "address"
        }
      ],
      "name": "getMagisterDepositIds",
      "outputs": [
        {
          "internalType": "uint256[]",
          "name": "",
          "type": "uint256[]"
        }
      ],
      "stateMutability": "view",
      "type": "function"
    },
    {
      "inputs": [],
      "name": "getPools",
      "outputs": [
        {
          "components": [
            {
              "internalType": "uint256",
              "name": "id",
              "type": "uint256"
            },
            {
              "internalType": "contract IERC20",
              "name": "depositToken",
              "type": "address"
            },
            {
              "internalType": "contract IPriceOracle",
              "name": "priceOracle",
              "type": "address"
            },
            {
              "internalType": "bool",
              "name": "isCompounding",
              "type": "bool"
            },
            {
              "internalType": "uint256",
              "name": "depositsAmount",
              "type": "uint256"
            },
            {
              "internalType": "uint256",
              "name": "depositorApr",
              "type": "uint256"
            },
            {
              "internalType": "uint256",
              "name": "magisterApr",
              "type": "uint256"
            },
            {
              "internalType": "uint256",
              "name": "depositorBonusApr",
              "type": "uint256"
            },
            {
              "internalType": "uint256",
              "name": "magisterBonusApr",
              "type": "uint256"
            }
          ],
          "internalType": "struct Pool.Data[]",
          "name": "",
          "type": "tuple[]"
        }
      ],
      "stateMutability": "view",
      "type": "function"
    },
    {
      "inputs": [],
      "name": "getPoolsCount",
      "outputs": [
        {
          "internalType": "uint256",
          "name": "",
          "type": "uint256"
        }
      ],
      "stateMutability": "view",
      "type": "function"
    },
    {
      "inputs": [
        {
          "internalType": "uint256",
          "name": "depositId",
          "type": "uint256"
        }
      ],
      "name": "getRewards",
      "outputs": [
        {
          "internalType": "uint256",
          "name": "depositorRewards",
          "type": "uint256"
        },
        {
          "internalType": "uint256",
          "name": "magisterRewards",
          "type": "uint256"
        }
      ],
      "stateMutability": "view",
      "type": "function"
    },
    {
      "inputs": [],
      "name": "getTotalValueLocked",
      "outputs": [
        {
          "internalType": "uint256",
          "name": "totalValueLocked",
          "type": "uint256"
        }
      ],
      "stateMutability": "view",
      "type": "function"
    },
    {
      "inputs": [],
      "name": "governor",
      "outputs": [
        {
          "internalType": "address",
          "name": "",
          "type": "address"
        }
      ],
      "stateMutability": "view",
      "type": "function"
    },
    {
      "inputs": [
        {
          "internalType": "contract ICore",
          "name": "_core",
          "type": "address"
        }
      ],
      "name": "initialize",
      "outputs": [],
      "stateMutability": "nonpayable",
      "type": "function"
    },
    {
      "inputs": [
        {
          "internalType": "address",
          "name": "",
          "type": "address"
        }
      ],
      "name": "magisters",
      "outputs": [
        {
          "internalType": "bool",
          "name": "isActive",
          "type": "bool"
        },
        {
          "internalType": "uint256",
          "name": "createdAt",
          "type": "uint256"
        },
        {
          "internalType": "address",
          "name": "addr",
          "type": "address"
        },
        {
          "internalType": "uint256",
          "name": "totalIncome",
          "type": "uint256"
        }
      ],
      "stateMutability": "view",
      "type": "function"
    },
    {
      "inputs": [],
      "name": "pendingGovernor",
      "outputs": [
        {
          "internalType": "address",
          "name": "",
          "type": "address"
        }
      ],
      "stateMutability": "view",
      "type": "function"
    },
    {
      "inputs": [
        {
          "internalType": "uint256",
          "name": "",
          "type": "uint256"
        }
      ],
      "name": "pools",
      "outputs": [
        {
          "internalType": "uint256",
          "name": "id",
          "type": "uint256"
        },
        {
          "internalType": "contract IERC20",
          "name": "depositToken",
          "type": "address"
        },
        {
          "internalType": "contract IPriceOracle",
          "name": "priceOracle",
          "type": "address"
        },
        {
          "internalType": "bool",
          "name": "isCompounding",
          "type": "bool"
        },
        {
          "internalType": "uint256",
          "name": "depositsAmount",
          "type": "uint256"
        },
        {
          "internalType": "uint256",
          "name": "depositorApr",
          "type": "uint256"
        },
        {
          "internalType": "uint256",
          "name": "magisterApr",
          "type": "uint256"
        },
        {
          "internalType": "uint256",
          "name": "depositorBonusApr",
          "type": "uint256"
        },
        {
          "internalType": "uint256",
          "name": "magisterBonusApr",
          "type": "uint256"
        }
      ],
      "stateMutability": "view",
      "type": "function"
    },
    {
      "inputs": [
        {
          "internalType": "address",
          "name": "newGovernor",
          "type": "address"
        },
        {
          "internalType": "bool",
          "name": "force",
          "type": "bool"
        }
      ],
      "name": "transitGovernance",
      "outputs": [],
      "stateMutability": "nonpayable",
      "type": "function"
    },
    {
      "inputs": [
        {
          "internalType": "uint256",
          "name": "poolId",
          "type": "uint256"
        },
        {
          "internalType": "bool",
          "name": "isCompounding",
          "type": "bool"
        },
        {
          "internalType": "uint256",
          "name": "depositorApr",
          "type": "uint256"
        },
        {
          "internalType": "uint256",
          "name": "magisterApr",
          "type": "uint256"
        },
        {
          "internalType": "uint256",
          "name": "depositorBonusApr",
          "type": "uint256"
        },
        {
          "internalType": "uint256",
          "name": "magisterBonusApr",
          "type": "uint256"
        }
      ],
      "name": "updatePool",
      "outputs": [],
      "stateMutability": "nonpayable",
      "type": "function"
    },
    {
      "inputs": [
        {
          "internalType": "address",
          "name": "magister",
          "type": "address"
        }
      ],
      "name": "whitelistMagister",
      "outputs": [],
      "stateMutability": "nonpayable",
      "type": "function"
    },
    {
      "inputs": [
        {
          "internalType": "uint256",
          "name": "depositId",
          "type": "uint256"
        },
        {
          "internalType": "uint256",
          "name": "amount",
          "type": "uint256"
        }
      ],
      "name": "withdraw",
      "outputs": [],
      "stateMutability": "nonpayable",
      "type": "function"
    }
  ],
  "transactionHash": "0x7e579565357721ab12afd11b59a16a3e4690d89d9e54623c9152292b06e2ad20",
  "args": [],
  "solcInputHash": "cbb0e8df0a1423b680927d4c7cdfda5a",
  "bytecode": "0x608060405234801561001057600080fd5b506147f9806100206000396000f3fe608060405234801561001057600080fd5b50600436106101985760003560e01c8063ac4afa38116100e3578063ddc125261161008c578063f119821a11610066578063f119821a14610488578063f2f4eb261461049d578063f3a4a6f6146104b057600080fd5b8063ddc125261461044f578063e2bbb15814610462578063e3056a341461047557600080fd5b8063b4ac6860116100bd578063b4ac68601461040c578063c0d8012c14610414578063c4d66de81461043c57600080fd5b8063ac4afa381461030c578063b02c43d01461036f578063b26025aa146103f657600080fd5b8063610f347b116101455780638dbdbe6d1161011f5780638dbdbe6d14610264578063a2b4f32514610277578063a47b4410146102ec57600080fd5b8063610f347b14610229578063673a2a1f1461023c57806383b116521461025157600080fd5b8063441a3e7011610176578063441a3e70146101f0578063493310a4146102035780635a59a1b21461021657600080fd5b8063017b5f2e1461019d5780630c340a24146101bb578063238efcbc146101e6575b600080fd5b6101a56104db565b6040516101b2919061419f565b60405180910390f35b6001546101ce906001600160a01b031681565b6040516001600160a01b0390911681526020016101b2565b6101ee610540565b005b6101ee6101fe3660046141ec565b6105b9565b6101ee61021136600461421c565b610ed4565b6101ee610224366004614281565b610f63565b6101ee610237366004614281565b61102e565b61024461112c565b6040516101b2919061429e565b6101ee61025f366004614352565b6111f7565b6101ee610272366004614386565b6113b3565b6102bb610285366004614281565b6003602081905260009182526040909120805460018201546002830154929093015460ff90911692916001600160a01b03169084565b6040516101b29493929190931515845260208401929092526001600160a01b03166040830152606082015260800190565b6102ff6102fa366004614281565b611d23565b6040516101b291906143fa565b61031f61031a36600461440d565b611d92565b60408051998a526001600160a01b0398891660208b015296909716958801959095529215156060870152608086019190915260a085015260c084015260e0830152610100820152610120016101b2565b61038261037d36600461440d565b611e00565b604080519e8f529c151560208f01526001600160a01b039b8c169c8e019c909c529990981660608c015260808b019690965260a08a019490945260c089019290925260e08801526101008701526101208601526101408501526101608401526101808301526101a08201526101c0016101b2565b6103fe611e90565b6040519081526020016101b2565b6006546103fe565b61042761042236600461440d565b611f6a565b604080519283526020830191909152016101b2565b6101ee61044a366004614281565b6120a0565b6101ee61045d366004614426565b612495565b6101ee6104703660046141ec565b612578565b6002546101ce906001600160a01b031681565b610490612583565b6040516101b2919061445f565b6000546101ce906001600160a01b031681565b6103fe6104be3660046144ff565b600860209081526000928352604080842090915290825290205481565b6060600460000180548060200260200160405190810160405280929190818152602001828054801561053657602002820191906000526020600020905b81546001600160a01b03168152600190910190602001808311610518575b5050505050905090565b6002546001600160a01b0316331461056b5760405163aec80d4b60e01b815260040160405180910390fd5b600254600180546001600160a01b0319166001600160a01b03909216918217905560405181907f564590b81987d147246f63910a8e1ee4eb09c4d64cc75ee975a8ffedfcc2210e90600090a3565b6000600783815481106105ce576105ce614524565b90600052602060002090600d02019050600060068260030154815481106105f7576105f7614524565b600091825260209091206001840154600890920201915061010090046001600160a01b0316331480610635575060028201546001600160a01b031633145b61065257604051633b382fcd60e21b815260040160405180910390fd5b600181015460009061066d906001600160a01b03168561271e565b905061067c83600001546127c0565b600061069b846008015485600701546106959190614550565b83612aac565b90506000806000806106c5886003015489600601548a600501546106bf9190614550565b87612ac4565b60028c0154939750919550935091506001600160a01b03163314156108c05760005460408051634c12d47160e01b815290516107da926001600160a01b031691634c12d4719160048083019260209291908290030181865afa15801561072f573d6000803e3d6000fd5b505050506040513d601f19601f820116820180604052508101906107539190614567565b60028a015460005460408051634c4e61e960e01b815290516001600160a01b039384169388931691634c4e61e99160048083019260209291908290030181865afa1580156107a5573d6000803e3d6000fd5b505050506040513d601f19601f820116820180604052508101906107c99190614567565b6001600160a01b0316929190612eb2565b80156108a15760005460408051634c12d47160e01b815290516108a1926001600160a01b031691634c12d4719160048083019260209291908290030181865afa15801561082b573d6000803e3d6000fd5b505050506040513d601f19601f8201168201806040525081019061084f9190614567565b60028a015460005460408051638b02d31760e01b815290516001600160a01b039384169387931691638b02d3179160048083019260209291908290030181865afa1580156107a5573d6000803e3d6000fd5b848860080160008282546108b59190614584565b90915550610e879050565b87600401548611156108e557604051630e0e9e5d60e31b815260040160405180910390fd5b6002870154600090600160a01b900460ff1615610a9f5760008054906101000a90046001600160a01b03166001600160a01b0316633a5017b46040518163ffffffff1660e01b8152600401602060405180830381865afa15801561094d573d6000803e3d6000fd5b505050506040513d601f19601f82011682018060405250810190610971919061459c565b905060008054906101000a90046001600160a01b03166001600160a01b03166351adfe496040518163ffffffff1660e01b8152600401602060405180830381865afa1580156109c4573d6000803e3d6000fd5b505050506040513d601f19601f820116820180604052508101906109e8919061459c565b89600a01546109f79190614584565b421015610a805760008054906101000a90046001600160a01b03166001600160a01b03166316330d406040518163ffffffff1660e01b8152600401602060405180830381865afa158015610a4f573d6000803e3d6000fd5b505050506040513d601f19601f82011682018060405250810190610a73919061459c565b610a7d9082614584565b90505b610a9c610a9582670de0b6b3a7640000614550565b8690612f50565b94505b60008054906101000a90046001600160a01b03166001600160a01b0316634c4e61e96040518163ffffffff1660e01b8152600401602060405180830381865afa158015610af0573d6000803e3d6000fd5b505050506040513d601f19601f82011682018060405250810190610b149190614567565b60018901546001600160a01b03908116911614801590610bb9575060008054906101000a90046001600160a01b03166001600160a01b0316638b02d3176040518163ffffffff1660e01b8152600401602060405180830381865afa158015610b80573d6000803e3d6000fd5b505050506040513d601f19601f82011682018060405250810190610ba49190614567565b60018901546001600160a01b03908116911614155b15610be5576001808a015490890154610be5916001600160a01b03918216916101009091041689613020565b60005460408051634c12d47160e01b81529051610d59926001600160a01b031691634c12d4719160048083019260209291908290030181865afa158015610c30573d6000803e3d6000fd5b505050506040513d601f19601f82011682018060405250810190610c549190614567565b8a60010160019054906101000a90046001600160a01b031660008054906101000a90046001600160a01b03166001600160a01b0316634c4e61e96040518163ffffffff1660e01b8152600401602060405180830381865afa158015610cbd573d6000803e3d6000fd5b505050506040513d601f19601f82011682018060405250810190610ce19190614567565b60018c01546001600160a01b03908116911614610cfe5787610d08565b610d08888b614584565b60008054906101000a90046001600160a01b03166001600160a01b0316634c4e61e96040518163ffffffff1660e01b8152600401602060405180830381865afa1580156107a5573d6000803e3d6000fd5b8315610e255760005460408051634c12d47160e01b81529051610e25926001600160a01b031691634c12d4719160048083019260209291908290030181865afa158015610daa573d6000803e3d6000fd5b505050506040513d601f19601f82011682018060405250810190610dce9190614567565b60018b015460005460408051638b02d31760e01b815290516001600160a01b036101009094048416938a931691638b02d3179160048083019260209291908290030181865afa1580156107a5573d6000803e3d6000fd5b86886003016000828254610e399190614550565b9250508190555086896004016000828254610e549190614550565b9091555050600689015460058a0154610e6d9190614550565b896006016000828254610e809190614584565b9091555050505b42600b8901556004880154610ec85760018801805460ff1916905542600c890155600388015460009081526008602090815260408083203384529091528120555b50505050505050505050565b6001546001600160a01b03163314610eff576040516305e7700560e51b815260040160405180910390fd5b600060068781548110610f1457610f14614524565b6000918252602090912060026008909202019081018054971515600160a01b0260ff60a01b19909816979097179096555060048501939093556005840191909155600683015560079091015550565b6001546001600160a01b03163314610f8e576040516305e7700560e51b815260040160405180910390fd5b6001600160a01b038116600090815260056020526040902054610fd45760405163c3a9f00560e01b81526001600160a01b03821660048201526024015b60405180910390fd5b610fdf600482613055565b1561102b576001600160a01b038116600081815260036020526040808220805460ff19169055517feac1eada73853c49d4c41fc681d6ac5332005e489babcae0b54f4024150601d79190a25b50565b6001546001600160a01b03163314611059576040516305e7700560e51b815260040160405180910390fd5b6001600160a01b0381166000908152600560205260409020541561109b57604051630a0e5acf60e21b81526001600160a01b0382166004820152602401610fcb565b6110a660048261318e565b1561102b576001600160a01b03811660008181526003602052604090206002810180546001600160a01b03191690921790915560018101546110e9574260018201555b805460ff191660011781556040516001600160a01b038316907fb41dc55c7c8ff45cc4ee01390b83d63e2c93edf7952c5ef3f4ba55a4af6b6a9690600090a25050565b60606006805480602002602001604051908101604052809291908181526020016000905b828210156111ee576000848152602090819020604080516101208101825260088602909201805483526001808201546001600160a01b0390811685870152600283015490811693850193909352600160a01b90920460ff161515606084015260038101546080840152600481015460a0840152600581015460c0840152600681015460e0840152600701546101008301529083529092019101611150565b50505050905090565b6001546001600160a01b03163314611222576040516305e7700560e51b815260040160405180910390fd5b600060068054905090506006604051806101200160405280838152602001896001600160a01b0316815260200160008054906101000a90046001600160a01b03166001600160a01b0316632630c12f6040518163ffffffff1660e01b8152600401602060405180830381865afa1580156112a0573d6000803e3d6000fd5b505050506040513d601f19601f820116820180604052508101906112c49190614567565b6001600160a01b0390811682529815156020808301919091526000604080840182905260608085019b909b5260808085019a909a5260a08085019990995260c093840197909752845460018181018755958252908290208451600890920201908155908301519381018054948b166001600160a01b03199095169490941790935593810151600283018054988301511515600160a01b0274ffffffffffffffffffffffffffffffffffffffffff19909916919099161796909617909655509183015160038501558201516004840155810151600583015560e08101516006830155610100015160079091015550565b6001600160a01b0381163314806113f657506001600160a01b0381163014806113f457506001600160a01b03811660009081526003602052604090205460ff165b155b1561141f5760405163c3a9f00560e01b81526001600160a01b0382166004820152602401610fcb565b60008060009054906101000a90046001600160a01b03166001600160a01b0316634c4e61e96040518163ffffffff1660e01b8152600401602060405180830381865afa158015611473573d6000803e3d6000fd5b505050506040513d601f19601f820116820180604052508101906114979190614567565b905060008060009054906101000a90046001600160a01b03166001600160a01b0316638b02d3176040518163ffffffff1660e01b8152600401602060405180830381865afa1580156114ed573d6000803e3d6000fd5b505050506040513d601f19601f820116820180604052508101906115119190614567565b905060006006868154811061152857611528614524565b9060005260206000209060080201905061161733846001600160a01b03168360010160009054906101000a90046001600160a01b03166001600160a01b03161480611582575060018301546001600160a01b038581169116145b61158c5730611601565b60008054906101000a90046001600160a01b03166001600160a01b0316634c12d4716040518163ffffffff1660e01b8152600401602060405180830381865afa1580156115dd573d6000803e3d6000fd5b505050506040513d601f19601f820116820180604052508101906116019190614567565b60018401546001600160a01b0316919088612eb2565b6001810154600090611632906001600160a01b03168761271e565b9050808260030160008282546116489190614584565b90915550506000878152600860209081526040808320338452909152902054611b2b578561168957604051635491c16d60e01b815260040160405180910390fd5b600060078054905090506007604051806101c00160405280838152602001600115158152602001336001600160a01b03168152602001886001600160a01b031681526020018a815260200184815260200160008152602001600081526020016000815260200160008152602001428152602001428152602001428152602001600081525090806001815401808255809150506001900390600052602060002090600d02016000909190919091506000820151816000015560208201518160010160006101000a81548160ff02191690831515021790555060408201518160010160016101000a8154816001600160a01b0302191690836001600160a01b0316021790555060608201518160020160006101000a8154816001600160a01b0302191690836001600160a01b031602179055506080820151816003015560a0820151816004015560c0820151816005015560e0820151816006015561010082015181600701556101208201518160080155610140820151816009015561016082015181600a015561018082015181600b01556101a082015181600c0155505080600860008a81526020019081526020016000206000336001600160a01b03166001600160a01b0316815260200190815260200160002081905550306001600160a01b0316866001600160a01b031614611a315760008060009054906101000a90046001600160a01b03166001600160a01b0316632630c12f6040518163ffffffff1660e01b8152600401602060405180830381865afa1580156118ce573d6000803e3d6000fd5b505050506040513d601f19601f820116820180604052508101906118f29190614567565b6001850154604051630787c49960e21b81526001600160a01b039182166004820152911690631e1f126490602401602060405180830381865afa15801561193d573d6000803e3d6000fd5b505050506040513d601f19601f82011682018060405250810190611961919061459c565b905060008054906101000a90046001600160a01b03166001600160a01b031663a0230d506040518163ffffffff1660e01b8152600401602060405180830381865afa1580156119b4573d6000803e3d6000fd5b505050506040513d601f19601f820116820180604052508101906119d8919061459c565b6119e28483612f50565b1015611a0157604051630dbb391160e21b815260040160405180910390fd5b506001600160a01b0386166000908152600360209081526040822060040180546001810182559083529120018190555b60018301546001600160a01b03868116911614611b255760008054906101000a90046001600160a01b03166001600160a01b03166376cdb03b6040518163ffffffff1660e01b8152600401602060405180830381865afa158015611a99573d6000803e3d6000fd5b505050506040513d601f19601f82011682018060405250810190611abd9190614567565b6001840154604051638e877d9960e01b81526001600160a01b03918216600482015260248101859052911690638e877d9990604401600060405180830381600087803b158015611b0c57600080fd5b505af1158015611b20573d6000803e3d6000fd5b505050505b50611d1a565b6000878152600860209081526040808320338452909152812054600780549091908110611b5a57611b5a614524565b90600052602060002090600d02019050611b7781600001546127c0565b600081600601548260050154611b8d9190614550565b9050600080611ba28460030154846000612ac4565b505091509150611c3e60008054906101000a90046001600160a01b03166001600160a01b0316634c12d4716040518163ffffffff1660e01b8152600401602060405180830381865afa158015611bfc573d6000803e3d6000fd5b505050506040513d601f19601f82011682018060405250810190611c209190614567565b60018601546001600160a01b038b8116929161010090041685612eb2565b8015611cd15760005460408051634c12d47160e01b81529051611cd1926001600160a01b031691634c12d4719160048083019260209291908290030181865afa158015611c8f573d6000803e3d6000fd5b505050506040513d601f19601f82011682018060405250810190611cb39190614567565b60018601546001600160a01b038a8116929161010090041684612eb2565b84846004016000828254611ce59190614584565b9250508190555082846006016000828254611d009190614584565b909155505042600a8501819055600b909401939093555050505b50505050505050565b6001600160a01b038116600090815260036020908152604091829020600401805483518184028101840190945280845260609392830182828015611d8657602002820191906000526020600020905b815481526020019060010190808311611d72575b50505050509050919050565b60068181548110611da257600080fd5b6000918252602090912060089091020180546001820154600283015460038401546004850154600586015460068701546007909701549597506001600160a01b039485169694841695600160a01b90940460ff169492939192909189565b60078181548110611e1057600080fd5b60009182526020909120600d9091020180546001820154600283015460038401546004850154600586015460068701546007880154600889015460098a0154600a8b0154600b8c0154600c909c01549a9c5060ff8a169b610100909a046001600160a01b039081169b99169997989697959694959394929391929091908e565b6000805b600654811015611f6657611f4860068281548110611eb457611eb4614524565b600091825260209182902060408051610120810182526008939093029091018054835260018101546001600160a01b0390811694840194909452600281015493841691830191909152600160a01b90920460ff161515606082015260038201546080820152600482015460a0820152600582015460c0820152600682015460e08201526007909101546101008201526131fe565b611f529083614584565b915080611f5e816145b5565b915050611e94565b5090565b600080600060078481548110611f8257611f82614524565b60009182526020808320604080516101c081018252600d90940290910180548452600181015460ff81161515938501939093526001600160a01b03610100938490048116928501929092526002810154909116606084015260038101546080840152600481015460a0840152600581015460c0840152600681015460e084015260078101549183019190915260088101546101208301526009810154610140830152600a810154610160830152600b810154610180830152600c01546101a08201529150806120508661329f565b915091508260e001518360c00151836120699190614584565b6120739190614550565b94508261012001518361010001518261208c9190614584565b6120969190614550565b9350505050915091565b600254600160a01b900460ff161580156120d557506002547501000000000000000000000000000000000000000000900460ff165b156120f357604051631ee1e30360e21b815260040160405180910390fd5b600254600160a01b900460ff1615801561214857600280547fffffffffffffffffffff0000ffffffffffffffffffffffffffffffffffffffff1675010100000000000000000000000000000000000000001790555b600080546001600160a01b0319166001600160a01b03841617905561216c336134e2565b6007604051806101c001604052806000815260200160001515815260200160006001600160a01b0316815260200160006001600160a01b031681526020016000815260200160008152602001600081526020016000815260200160008152602001600081526020014281526020014281526020014281526020014281525090806001815401808255809150506001900390600052602060002090600d02016000909190919091506000820151816000015560208201518160010160006101000a81548160ff02191690831515021790555060408201518160010160016101000a8154816001600160a01b0302191690836001600160a01b0316021790555060608201518160020160006101000a8154816001600160a01b0302191690836001600160a01b031602179055506080820151816003015560a0820151816004015560c0820151816005015560e0820151816006015561010082015181600701556101208201518160080155610140820151816009015561016082015181600a015561018082015181600b01556101a082015181600c0155505060066040518061012001604052806000815260200160006001600160a01b0316815260200160008054906101000a90046001600160a01b03166001600160a01b0316632630c12f6040518163ffffffff1660e01b8152600401602060405180830381865afa158015612379573d6000803e3d6000fd5b505050506040513d601f19601f8201168201806040525081019061239d9190614567565b6001600160a01b0390811682526000602080840182905260408085018390526060808601849052608080870185905260a080880186905260c0978801869052895460018181018c559a87529585902089516008909702019586559388015198850180549987166001600160a01b0319909a169990991790985590860151600284018054928801511515600160a01b0274ffffffffffffffffffffffffffffffffffffffffff199093169190951617179092559383015160038501558201516004840155810151600583015560e0810151600683015561010001516007909101558015612491576002805460ff60a01b191690555b5050565b6001546001600160a01b031633146124c0576040516305e7700560e51b815260040160405180910390fd5b6001600160a01b0382166124e75760405163604b48b960e11b815260040160405180910390fd5b6001600160a01b038216301415612511576040516306b3e95d60e21b815260040160405180910390fd5b600280546001600160a01b0319166001600160a01b0384161790558061256f576001546040516001600160a01b038085169216907fc606c9af1451cadeb333f6ff7b24a5540974f4e800bac274fa7fff9edc305cb190600090a35050565b612491826134e2565b6124918282306113b3565b6004546060908067ffffffffffffffff8111156125a2576125a26145d0565b60405190808252806020026020018201604052801561261057816020015b6125fd6040518060a001604052806000151581526020016000815260200160006001600160a01b0316815260200160008152602001606081525090565b8152602001906001900390816125c05790505b50915060005b8181101561271957600360006004600001838154811061263857612638614524565b60009182526020808320909101546001600160a01b039081168452838201949094526040928301909120825160a081018452815460ff161515815260018201548184015260028201549094168484015260038101546060850152600481018054845181850281018501909552808552919360808601939092908301828280156126e057602002820191906000526020600020905b8154815260200190600101908083116126cc575b5050505050815250508382815181106126fb576126fb614524565b60200260200101819052508080612711906145b5565b915050612616565b505090565b600080836001600160a01b031663313ce5676040518163ffffffff1660e01b8152600401602060405180830381865afa15801561275f573d6000803e3d6000fd5b505050506040513d601f19601f8201168201806040525081019061278391906145e6565b61278e906012614609565b61279990600a614710565b9050806001146127b5576127ad818461471f565b9150506127ba565b829150505b92915050565b6000806127cc8361329f565b915091506000600784815481106127e5576127e5614524565b90600052602060002090600d020190506000600682600301548154811061280e5761280e614524565b6000918252602080832060089290920290910160010154825460408051634c4e61e960e01b815290516001600160a01b0393841696509290911692634c4e61e9926004808401938290030181865afa15801561286e573d6000803e3d6000fd5b505050506040513d601f19601f820116820180604052508101906128929190614567565b6001600160a01b0316826001600160a01b0316146129905760008054906101000a90046001600160a01b03166001600160a01b0316632630c12f6040518163ffffffff1660e01b8152600401602060405180830381865afa1580156128fb573d6000803e3d6000fd5b505050506040513d601f19601f8201168201806040525081019061291f9190614567565b604051630787c49960e21b81526001600160a01b0384811660048301529190911690631e1f126490602401602060405180830381865afa158015612967573d6000803e3d6000fd5b505050506040513d601f19601f8201168201806040525081019061298b919061459c565b61299a565b670de0b6b3a76400005b60028401549091506001600160a01b031630148015906129d6575060028301546001600160a01b031660009081526003602052604090205460ff165b15612a3457838360070160008282546129ef9190614584565b909155506129ff90508482612f50565b60028401546001600160a01b031660009081526003602081905260408220018054909190612a2e908490614584565b90915550505b84836005016000828254612a489190614584565b90915550503360009081526003602052604090205460ff1615612aa457612a6f8582612f50565b60028401546001600160a01b031660009081526003602081905260408220018054909190612a9e908490614584565b90915550505b505050505050565b6000818310612abb5781612abd565b825b9392505050565b60008060008060008060009054906101000a90046001600160a01b03166001600160a01b0316632630c12f6040518163ffffffff1660e01b8152600401602060405180830381865afa158015612b1e573d6000803e3d6000fd5b505050506040513d601f19601f82011682018060405250810190612b429190614567565b9050600060068981548110612b5957612b59614524565b6000918252602080832060408051610120810182526008949094029091018054845260018101546001600160a01b0390811693850193909352600281015492831691840191909152600160a01b90910460ff161515606083015260038101546080830152600481015460a0830152600581015460c0830152600681015460e0830152600701546101008201529150612bf08261352e565b90506000612bfd83613544565b905060008060009054906101000a90046001600160a01b03166001600160a01b0316634c4e61e96040518163ffffffff1660e01b8152600401602060405180830381865afa158015612c53573d6000803e3d6000fd5b505050506040513d601f19601f82011682018060405250810190612c779190614567565b6001600160a01b031684602001516001600160a01b031614612d08576020840151604051630787c49960e21b81526001600160a01b03918216600482015290861690631e1f126490602401602060405180830381865afa158015612cdf573d6000803e3d6000fd5b505050506040513d601f19601f82011682018060405250810190612d03919061459c565b612d12565b670de0b6b3a76400005b9050612d1e8b82612f50565b9850612d2a8a82612f50565b9650846001600160a01b0316631e1f126460008054906101000a90046001600160a01b03166001600160a01b0316638b02d3176040518163ffffffff1660e01b8152600401602060405180830381865afa158015612d8c573d6000803e3d6000fd5b505050506040513d601f19601f82011682018060405250810190612db09190614567565b6040517fffffffff0000000000000000000000000000000000000000000000000000000060e084901b1681526001600160a01b039091166004820152602401602060405180830381865afa925050508015612e28575060408051601f3d908101601f19168201909252612e259181019061459c565b60015b612e3157612ea4565b8015612ea25760e0850151612e5290612e4a9083612f50565b8b908661355b565b9850612e77612e6f82876101000151612f5090919063ffffffff16565b89908561355b565b60a0860151909750612e8b908b908661355b565b60c0860151909a50612e9f9089908561355b565b97505b505b505050505093509350935093565b6040516001600160a01b0380851660248301528316604482015260648101829052612f4a9085906323b872dd60e01b906084015b60408051601f198184030181529190526020810180517bffffffffffffffffffffffffffffffffffffffffffffffffffffffff167fffffffff0000000000000000000000000000000000000000000000000000000090931692909217909152613616565b50505050565b60008080600019848609848602925082811083820303915050670de0b6b3a76400008110612fa25760405163072fa3c960e31b815260048101829052670de0b6b3a76400006024820152604401610fcb565b600080670de0b6b3a76400008688099150506706f05b59d3b1ffff811182612fdc5780670de0b6b3a76400008504019450505050506127ba565b620400008285030493909111909103600160ee1b02919091177faccb18165bd6fe31ae1cf318dc5b51eee0e1ba569b88cd74c1773b91fac106690201905092915050565b6040516001600160a01b03831660248201526044810182905261305090849063a9059cbb60e01b90606401612ee6565b505050565b6001600160a01b03811660009081526001830160205260408120548061307f5760009150506127ba565b600061308c600183614550565b90506000600161309a875490565b6130a49190614550565b90508082146131305760008660000182815481106130c4576130c4614524565b60009182526020909120015487546001600160a01b03909116915081908890859081106130f3576130f3614524565b600091825260208083209190910180546001600160a01b0319166001600160a01b0394851617905592909116815260018801909152604090208390555b85548690806131415761314161473e565b60008281526020808220830160001990810180546001600160a01b03191690559092019092556001600160a01b038716825260018881019091526040822091909155935050505092915050565b6001600160a01b0381166000908152600183016020526040812054156131b6575060006127ba565b508154600180820184556000848152602080822090930180546001600160a01b0319166001600160a01b03959095169485179055845493815293810190915260409092205590565b600081608001516000141561321557506000919050565b60408083015160208401519151630787c49960e21b81526001600160a01b03928316600482015260009290911690631e1f126490602401602060405180830381865afa158015613269573d6000803e3d6000fd5b505050506040513d601f19601f8201168201806040525081019061328d919061459c565b6080840151909150612abd9082612f50565b6000806000600784815481106132b7576132b7614524565b60009182526020808320604080516101c081018252600d90940290910180548452600181015460ff81161515938501939093526001600160a01b036101009384900481169285019290925260028101549091166060840152600381015460808401819052600482015460a0850152600582015460c085015260068083015460e086015260078301549385019390935260088201546101208501526009820154610140850152600a820154610160850152600b820154610180850152600c909101546101a084015281549294509091811061339357613393614524565b60009182526020808320604080516101208101825260089094029091018054845260018101546001600160a01b039081168585015260028201548082168685015260ff600160a01b90910416151560608601526003820154608086015260048083015460a0870152600583015460c0870152600683015460e087015260079092015461010086015285548351630e9405ed60e21b815293519597506134a69561349b959190921693633a5017b49381810193918290030181865afa15801561345f573d6000803e3d6000fd5b505050506040513d601f19601f82011682018060405250810190613483919061459c565b6101808601516134939042614550565b8591906136a0565b60a085015190612f50565b905060006134b38361375c565b90506134c96134c18461352e565b83908361355b565b95506134d76134c184613544565b945050505050915091565b600180546001600160a01b0319166001600160a01b03831690811790915560405181907f564590b81987d147246f63910a8e1ee4eb09c4d64cc75ee975a8ffedfcc2210e90600090a350565b60008160e001518260a001516127ba9190614584565b60008161010001518260c001516127ba9190614584565b6000808060001985870985870292508281108382030391505083811061359e5760405163072fa3c960e31b81526004810182905260248101859052604401610fcb565b806135ae57508290049050612abd565b600084868809600260036001881981018916988990049182028318808302840302808302840302808302840302808302840302808302840302918202909203026000889003889004909101858311909403939093029303949094049190911702949350505050565b6040805180820190915260208082527f5361666545524332303a206c6f772d6c6576656c2063616c6c206661696c6564908201528290600090613665906001600160a01b03841690859061377a565b805190915015612f4a57808060200190518101906136839190614754565b612f4a57604051639b8d506160e01b815260040160405180910390fd5b6000806136ac8561375c565b905084606001516136df576136d86136d184670de0b6b3a76400006301e187e061355b565b8290612f50565b9150613754565b670de0b6b3a764000061374761371e6136fc836301e187e061471f565b613718856137128a670de0b6b3a7640000614550565b90612f50565b9061381d565b61373090670de0b6b3a7640000614584565b613742670de0b6b3a76400008761471f565b613832565b6137519190614550565b91505b509392505050565b600061376782613544565b6137708361352e565b6127ba9190614584565b6060833b6137a65760405163dc5dd7fd60e01b81526001600160a01b0385166004820152602401610fcb565b600080856001600160a01b0316856040516137c1919061479d565b6000604051808303816000865af19150503d80600081146137fe576040519150601f19603f3d011682016040523d82523d6000602084013e613803565b606091505b5091509150613813828286613871565b9695505050505050565b6000612abd83670de0b6b3a76400008461355b565b600082613857578115613846576000613850565b670de0b6b3a76400005b90506127ba565b612abd61386c613866856138aa565b84612f50565b61395a565b60608315613880575081612abd565b8251156138905782518060208501fd5b8160405162461bcd60e51b8152600401610fcb91906147b9565b6000670de0b6b3a76400008210156138d85760405163c427d0c960e01b815260048101839052602401610fcb565b60006138ed670de0b6b3a764000084046140a9565b670de0b6b3a7640000808202935090915083821c90811415613910575050919050565b6706f05b59d3b200005b801561395257670de0b6b3a7640000828002049150671bc16d674ec80000821061394a579283019260019190911c905b60011c61391a565b505050919050565b6000680a688906bd8b000000821061398857604051632132de2160e01b815260048101839052602401610fcb565b50670de0b6b3a764000060409190911b04778000000000000000000000000000000000000000000000006780000000000000008216156139d15768016a09e667f3bcc9090260401c5b6740000000000000008216156139f0576801306fe0a31b7152df0260401c5b672000000000000000821615613a0f576801172b83c7d517adce0260401c5b671000000000000000821615613a2e5768010b5586cf9890f62a0260401c5b670800000000000000821615613a4d576801059b0d31585743ae0260401c5b670400000000000000821615613a6c57680102c9a3e778060ee70260401c5b670200000000000000821615613a8b5768010163da9fb33356d80260401c5b670100000000000000821615613aaa57680100b1afa5abcbed610260401c5b6680000000000000821615613ac85768010058c86da1c09ea20260401c5b6640000000000000821615613ae6576801002c605e2e8cec500260401c5b6620000000000000821615613b0457680100162f3904051fa10260401c5b6610000000000000821615613b22576801000b175effdc76ba0260401c5b6608000000000000821615613b4057680100058ba01fb9f96d0260401c5b6604000000000000821615613b5e5768010002c5cc37da94920260401c5b6602000000000000821615613b7c576801000162e525ee05470260401c5b6601000000000000821615613b9a5768010000b17255775c040260401c5b65800000000000821615613bb7576801000058b91b5bc9ae0260401c5b65400000000000821615613bd457680100002c5c89d5ec6d0260401c5b65200000000000821615613bf15768010000162e43f4f8310260401c5b65100000000000821615613c0e57680100000b1721bcfc9a0260401c5b65080000000000821615613c2b5768010000058b90cf1e6e0260401c5b65040000000000821615613c48576801000002c5c863b73f0260401c5b65020000000000821615613c6557680100000162e430e5a20260401c5b65010000000000821615613c82576801000000b1721835510260401c5b648000000000821615613c9e57680100000058b90c0b490260401c5b644000000000821615613cba5768010000002c5c8601cc0260401c5b642000000000821615613cd6576801000000162e42fff00260401c5b641000000000821615613cf25768010000000b17217fbb0260401c5b640800000000821615613d0e576801000000058b90bfce0260401c5b640400000000821615613d2a57680100000002c5c85fe30260401c5b640200000000821615613d465768010000000162e42ff10260401c5b640100000000821615613d6257680100000000b17217f80260401c5b6380000000821615613d7d5768010000000058b90bfc0260401c5b6340000000821615613d98576801000000002c5c85fe0260401c5b6320000000821615613db357680100000000162e42ff0260401c5b6310000000821615613dce576801000000000b17217f0260401c5b6308000000821615613de957680100000000058b90c00260401c5b6304000000821615613e045768010000000002c5c8600260401c5b6302000000821615613e1f576801000000000162e4300260401c5b6301000000821615613e3a5768010000000000b172180260401c5b62800000821615613e54576801000000000058b90c0260401c5b62400000821615613e6e57680100000000002c5c860260401c5b62200000821615613e885768010000000000162e430260401c5b62100000821615613ea257680100000000000b17210260401c5b62080000821615613ebc5768010000000000058b910260401c5b62040000821615613ed6576801000000000002c5c80260401c5b62020000821615613ef057680100000000000162e40260401c5b62010000821615613f0a576801000000000000b1720260401c5b618000821615613f2357680100000000000058b90260401c5b614000821615613f3c5768010000000000002c5d0260401c5b612000821615613f55576801000000000000162e0260401c5b611000821615613f6e5768010000000000000b170260401c5b610800821615613f87576801000000000000058c0260401c5b610400821615613fa057680100000000000002c60260401c5b610200821615613fb957680100000000000001630260401c5b610100821615613fd257680100000000000000b10260401c5b6080821615613fea57680100000000000000590260401c5b6040821615614002576801000000000000002c0260401c5b602082161561401a57680100000000000000160260401c5b6010821615614032576801000000000000000b0260401c5b600882161561404a57680100000000000000060260401c5b600482161561406257680100000000000000030260401c5b600282161561407a57680100000000000000010260401c5b600182161561409257680100000000000000010260401c5b670de0b6b3a76400000260409190911c60bf031c90565b600070010000000000000000000000000000000082106140d657608091821c916140d39082614584565b90505b6801000000000000000082106140f957604091821c916140f69082614584565b90505b640100000000821061411857602091821c916141159082614584565b90505b62010000821061413557601091821c916141329082614584565b90505b610100821061415157600891821c9161414e9082614584565b90505b6010821061416c57600491821c916141699082614584565b90505b6004821061418757600291821c916141849082614584565b90505b6002821061419a576127ba600182614584565b919050565b6020808252825182820181905260009190848201906040850190845b818110156141e05783516001600160a01b0316835292840192918401916001016141bb565b50909695505050505050565b600080604083850312156141ff57600080fd5b50508035926020909101359150565b801515811461102b57600080fd5b60008060008060008060c0878903121561423557600080fd5b8635955060208701356142478161420e565b95989597505050506040840135936060810135936080820135935060a0909101359150565b6001600160a01b038116811461102b57600080fd5b60006020828403121561429357600080fd5b8135612abd8161426c565b602080825282518282018190526000919060409081850190868401855b82811015614345578151805185526001600160a01b03878201511687860152858101516142f2878701826001600160a01b03169052565b506060818101511515908601526080808201519086015260a0808201519086015260c0808201519086015260e08082015190860152610100908101519085015261012090930192908501906001016142bb565b5091979650505050505050565b60008060008060008060c0878903121561436b57600080fd5b86356143768161426c565b955060208701356142478161420e565b60008060006060848603121561439b57600080fd5b833592506020840135915060408401356143b48161426c565b809150509250925092565b600081518084526020808501945080840160005b838110156143ef578151875295820195908201906001016143d3565b509495945050505050565b602081526000612abd60208301846143bf565b60006020828403121561441f57600080fd5b5035919050565b6000806040838503121561443957600080fd5b82356144448161426c565b915060208301356144548161420e565b809150509250929050565b60006020808301818452808551808352604092508286019150828160051b87010184880160005b838110156144f157888303603f1901855281518051151584528781015188850152868101516001600160a01b0316878501526060808201519085015260809081015160a0918501829052906144dd818601836143bf565b968901969450505090860190600101614486565b509098975050505050505050565b6000806040838503121561451257600080fd5b8235915060208301356144548161426c565b634e487b7160e01b600052603260045260246000fd5b634e487b7160e01b600052601160045260246000fd5b6000828210156145625761456261453a565b500390565b60006020828403121561457957600080fd5b8151612abd8161426c565b600082198211156145975761459761453a565b500190565b6000602082840312156145ae57600080fd5b5051919050565b60006000198214156145c9576145c961453a565b5060010190565b634e487b7160e01b600052604160045260246000fd5b6000602082840312156145f857600080fd5b815160ff81168114612abd57600080fd5b600060ff821660ff8416808210156146235761462361453a565b90039392505050565b600181815b8085111561466757816000190482111561464d5761464d61453a565b8085161561465a57918102915b93841c9390800290614631565b509250929050565b60008261467e575060016127ba565b8161468b575060006127ba565b81600181146146a157600281146146ab576146c7565b60019150506127ba565b60ff8411156146bc576146bc61453a565b50506001821b6127ba565b5060208310610133831016604e8410600b84101617156146ea575081810a6127ba565b6146f4838361462c565b80600019048211156147085761470861453a565b029392505050565b6000612abd60ff84168361466f565b60008160001904831182151516156147395761473961453a565b500290565b634e487b7160e01b600052603160045260246000fd5b60006020828403121561476657600080fd5b8151612abd8161420e565b60005b8381101561478c578181015183820152602001614774565b83811115612f4a5750506000910152565b600082516147af818460208701614771565b9190910192915050565b60208152600082518060208401526147d8816040850160208701614771565b601f01601f1916919091016040019291505056fea164736f6c634300080a000a",
  "devdoc": {
    "kind": "dev",
    "methods": {},
    "version": 1
  },
  "userdoc": {
    "kind": "user",
    "methods": {},
    "version": 1
  },
  "storageLayout": {
    "storage": [
      {
        "astId": 3778,
        "contract": "contracts/Depositary.sol:Depositary",
        "label": "core",
        "offset": 0,
        "slot": "0",
        "type": "t_contract(ICore)3191"
      },
      {
        "astId": 7074,
        "contract": "contracts/Depositary.sol:Depositary",
        "label": "governor",
        "offset": 0,
        "slot": "1",
        "type": "t_address"
      },
      {
        "astId": 7076,
        "contract": "contracts/Depositary.sol:Depositary",
        "label": "pendingGovernor",
        "offset": 0,
        "slot": "2",
        "type": "t_address"
      },
      {
        "astId": 10841,
        "contract": "contracts/Depositary.sol:Depositary",
        "label": "initializing",
        "offset": 20,
        "slot": "2",
        "type": "t_bool"
      },
      {
        "astId": 10843,
        "contract": "contracts/Depositary.sol:Depositary",
        "label": "initialized",
        "offset": 21,
        "slot": "2",
        "type": "t_bool"
      },
      {
        "astId": 3892,
        "contract": "contracts/Depositary.sol:Depositary",
        "label": "magisters",
        "offset": 0,
        "slot": "3",
        "type": "t_mapping(t_address,t_struct(Data)10006_storage)"
      },
      {
        "astId": 3895,
        "contract": "contracts/Depositary.sol:Depositary",
        "label": "magistersSet",
        "offset": 0,
        "slot": "4",
        "type": "t_struct(Set)8205_storage"
      },
      {
        "astId": 3899,
        "contract": "contracts/Depositary.sol:Depositary",
        "label": "pools",
        "offset": 0,
        "slot": "6",
        "type": "t_array(t_struct(Data)10392_storage)dyn_storage"
      },
      {
        "astId": 3903,
        "contract": "contracts/Depositary.sol:Depositary",
        "label": "deposits",
        "offset": 0,
        "slot": "7",
        "type": "t_array(t_struct(Data)8194_storage)dyn_storage"
      },
      {
        "astId": 3909,
        "contract": "contracts/Depositary.sol:Depositary",
        "label": "currentDepositIds",
        "offset": 0,
        "slot": "8",
        "type": "t_mapping(t_uint256,t_mapping(t_address,t_uint256))"
      }
    ],
    "types": {
      "t_address": {
        "encoding": "inplace",
        "label": "address",
        "numberOfBytes": "20"
      },
      "t_array(t_address)dyn_storage": {
        "base": "t_address",
        "encoding": "dynamic_array",
        "label": "address[]",
        "numberOfBytes": "32"
      },
      "t_array(t_struct(Data)10392_storage)dyn_storage": {
        "base": "t_struct(Data)10392_storage",
        "encoding": "dynamic_array",
        "label": "struct Pool.Data[]",
        "numberOfBytes": "32"
      },
      "t_array(t_struct(Data)8194_storage)dyn_storage": {
        "base": "t_struct(Data)8194_storage",
        "encoding": "dynamic_array",
        "label": "struct Deposit.Data[]",
        "numberOfBytes": "32"
      },
      "t_array(t_uint256)dyn_storage": {
        "base": "t_uint256",
        "encoding": "dynamic_array",
        "label": "uint256[]",
        "numberOfBytes": "32"
      },
      "t_bool": {
        "encoding": "inplace",
        "label": "bool",
        "numberOfBytes": "1"
      },
      "t_contract(ICore)3191": {
        "encoding": "inplace",
        "label": "contract ICore",
        "numberOfBytes": "20"
      },
      "t_contract(IERC20)7312": {
        "encoding": "inplace",
        "label": "contract IERC20",
        "numberOfBytes": "20"
      },
      "t_contract(IPriceOracle)7423": {
        "encoding": "inplace",
        "label": "contract IPriceOracle",
        "numberOfBytes": "20"
      },
      "t_mapping(t_address,t_struct(Data)10006_storage)": {
        "encoding": "mapping",
        "key": "t_address",
        "label": "mapping(address => struct Magister.Data)",
        "numberOfBytes": "32",
        "value": "t_struct(Data)10006_storage"
      },
      "t_mapping(t_address,t_uint256)": {
        "encoding": "mapping",
        "key": "t_address",
        "label": "mapping(address => uint256)",
        "numberOfBytes": "32",
        "value": "t_uint256"
      },
      "t_mapping(t_uint256,t_mapping(t_address,t_uint256))": {
        "encoding": "mapping",
        "key": "t_uint256",
        "label": "mapping(uint256 => mapping(address => uint256))",
        "numberOfBytes": "32",
        "value": "t_mapping(t_address,t_uint256)"
      },
      "t_struct(Data)10006_storage": {
        "encoding": "inplace",
        "label": "struct Magister.Data",
        "members": [
          {
            "astId": 9996,
            "contract": "contracts/Depositary.sol:Depositary",
            "label": "isActive",
            "offset": 0,
            "slot": "0",
            "type": "t_bool"
          },
          {
            "astId": 9998,
            "contract": "contracts/Depositary.sol:Depositary",
            "label": "createdAt",
            "offset": 0,
            "slot": "1",
            "type": "t_uint256"
          },
          {
            "astId": 10000,
            "contract": "contracts/Depositary.sol:Depositary",
            "label": "addr",
            "offset": 0,
            "slot": "2",
            "type": "t_address"
          },
          {
            "astId": 10002,
            "contract": "contracts/Depositary.sol:Depositary",
            "label": "totalIncome",
            "offset": 0,
            "slot": "3",
            "type": "t_uint256"
          },
          {
            "astId": 10005,
            "contract": "contracts/Depositary.sol:Depositary",
            "label": "depositIds",
            "offset": 0,
            "slot": "4",
            "type": "t_array(t_uint256)dyn_storage"
          }
        ],
        "numberOfBytes": "160"
      },
      "t_struct(Data)10392_storage": {
        "encoding": "inplace",
        "label": "struct Pool.Data",
        "members": [
          {
            "astId": 10373,
            "contract": "contracts/Depositary.sol:Depositary",
            "label": "id",
            "offset": 0,
            "slot": "0",
            "type": "t_uint256"
          },
          {
            "astId": 10376,
            "contract": "contracts/Depositary.sol:Depositary",
            "label": "depositToken",
            "offset": 0,
            "slot": "1",
            "type": "t_contract(IERC20)7312"
          },
          {
            "astId": 10379,
            "contract": "contracts/Depositary.sol:Depositary",
            "label": "priceOracle",
            "offset": 0,
            "slot": "2",
            "type": "t_contract(IPriceOracle)7423"
          },
          {
            "astId": 10381,
            "contract": "contracts/Depositary.sol:Depositary",
            "label": "isCompounding",
            "offset": 20,
            "slot": "2",
            "type": "t_bool"
          },
          {
            "astId": 10383,
            "contract": "contracts/Depositary.sol:Depositary",
            "label": "depositsAmount",
            "offset": 0,
            "slot": "3",
            "type": "t_uint256"
          },
          {
            "astId": 10385,
            "contract": "contracts/Depositary.sol:Depositary",
            "label": "depositorApr",
            "offset": 0,
            "slot": "4",
            "type": "t_uint256"
          },
          {
            "astId": 10387,
            "contract": "contracts/Depositary.sol:Depositary",
            "label": "magisterApr",
            "offset": 0,
            "slot": "5",
            "type": "t_uint256"
          },
          {
            "astId": 10389,
            "contract": "contracts/Depositary.sol:Depositary",
            "label": "depositorBonusApr",
            "offset": 0,
            "slot": "6",
            "type": "t_uint256"
          },
          {
            "astId": 10391,
            "contract": "contracts/Depositary.sol:Depositary",
            "label": "magisterBonusApr",
            "offset": 0,
            "slot": "7",
            "type": "t_uint256"
          }
        ],
        "numberOfBytes": "256"
      },
      "t_struct(Data)8194_storage": {
        "encoding": "inplace",
        "label": "struct Deposit.Data",
        "members": [
          {
            "astId": 8167,
            "contract": "contracts/Depositary.sol:Depositary",
            "label": "id",
            "offset": 0,
            "slot": "0",
            "type": "t_uint256"
          },
          {
            "astId": 8169,
            "contract": "contracts/Depositary.sol:Depositary",
            "label": "isActive",
            "offset": 0,
            "slot": "1",
            "type": "t_bool"
          },
          {
            "astId": 8171,
            "contract": "contracts/Depositary.sol:Depositary",
            "label": "depositor",
            "offset": 1,
            "slot": "1",
            "type": "t_address"
          },
          {
            "astId": 8173,
            "contract": "contracts/Depositary.sol:Depositary",
            "label": "magister",
            "offset": 0,
            "slot": "2",
            "type": "t_address"
          },
          {
            "astId": 8175,
            "contract": "contracts/Depositary.sol:Depositary",
            "label": "poolId",
            "offset": 0,
            "slot": "3",
            "type": "t_uint256"
          },
          {
            "astId": 8177,
            "contract": "contracts/Depositary.sol:Depositary",
            "label": "principal",
            "offset": 0,
            "slot": "4",
            "type": "t_uint256"
          },
          {
            "astId": 8179,
            "contract": "contracts/Depositary.sol:Depositary",
            "label": "depositorTotalAccruedRewards",
            "offset": 0,
            "slot": "5",
            "type": "t_uint256"
          },
          {
            "astId": 8181,
            "contract": "contracts/Depositary.sol:Depositary",
            "label": "depositorWithdrawnRewards",
            "offset": 0,
            "slot": "6",
            "type": "t_uint256"
          },
          {
            "astId": 8183,
            "contract": "contracts/Depositary.sol:Depositary",
            "label": "magisterTotalAccruedRewards",
            "offset": 0,
            "slot": "7",
            "type": "t_uint256"
          },
          {
            "astId": 8185,
            "contract": "contracts/Depositary.sol:Depositary",
            "label": "magisterWithdrawnRewards",
            "offset": 0,
            "slot": "8",
            "type": "t_uint256"
          },
          {
            "astId": 8187,
            "contract": "contracts/Depositary.sol:Depositary",
            "label": "createdAt",
            "offset": 0,
            "slot": "9",
            "type": "t_uint256"
          },
          {
            "astId": 8189,
            "contract": "contracts/Depositary.sol:Depositary",
            "label": "lastDepositAt",
            "offset": 0,
            "slot": "10",
            "type": "t_uint256"
          },
          {
            "astId": 8191,
            "contract": "contracts/Depositary.sol:Depositary",
            "label": "lastInteractionAt",
            "offset": 0,
            "slot": "11",
            "type": "t_uint256"
          },
          {
            "astId": 8193,
            "contract": "contracts/Depositary.sol:Depositary",
            "label": "closedAt",
            "offset": 0,
            "slot": "12",
            "type": "t_uint256"
          }
        ],
        "numberOfBytes": "416"
      },
      "t_struct(Set)8205_storage": {
        "encoding": "inplace",
        "label": "struct EnumerableAddressSet.Set",
        "members": [
          {
            "astId": 8200,
            "contract": "contracts/Depositary.sol:Depositary",
            "label": "elements",
            "offset": 0,
            "slot": "0",
            "type": "t_array(t_address)dyn_storage"
          },
          {
            "astId": 8204,
            "contract": "contracts/Depositary.sol:Depositary",
            "label": "indexes",
            "offset": 0,
            "slot": "1",
            "type": "t_mapping(t_address,t_uint256)"
          }
        ],
        "numberOfBytes": "64"
      },
      "t_uint256": {
        "encoding": "inplace",
        "label": "uint256",
        "numberOfBytes": "32"
      }
    }
  }
}