{
  "address": "0xdC13906f9a28fc86b13c236f89057E0281AfE2e8",
  "abi": [
    {
      "inputs": [],
      "name": "BaksDAOOnlyDepositaryAllowed",
      "type": "error"
    },
    {
      "inputs": [],
      "name": "BaksDAOOnlySuperUserAllowed",
      "type": "error"
    },
    {
      "inputs": [
        {
          "internalType": "address",
          "name": "target",
          "type": "address"
        }
      ],
      "name": "CallToNonContract",
      "type": "error"
    },
    {
      "inputs": [],
      "name": "ContractAlreadyInitialized",
      "type": "error"
    },
    {
      "inputs": [
        {
          "internalType": "contract IERC20",
          "name": "token",
          "type": "address"
        }
      ],
      "name": "ExchangeFundDepositableTokenAlreadyListed",
      "type": "error"
    },
    {
      "inputs": [
        {
          "internalType": "contract IERC20",
          "name": "token",
          "type": "address"
        }
      ],
      "name": "ExchangeFundDepositableTokenNotListed",
      "type": "error"
    },
    {
      "inputs": [
        {
          "internalType": "contract IERC20",
          "name": "token",
          "type": "address"
        },
        {
          "internalType": "uint8",
          "name": "decimals",
          "type": "uint8"
        }
      ],
      "name": "ExchangeFundDepositableTokenTooLargeDecimals",
      "type": "error"
    },
    {
      "inputs": [
        {
          "internalType": "contract IERC20",
          "name": "token",
          "type": "address"
        }
      ],
      "name": "ExchangeFundDepositableTokenZeroDecimals",
      "type": "error"
    },
    {
      "inputs": [],
      "name": "ExchangeFundInsufficientDeposits",
      "type": "error"
    },
    {
      "inputs": [],
      "name": "ExchangeFundInsufficientLiquidity",
      "type": "error"
    },
    {
      "inputs": [
        {
          "internalType": "contract IERC20",
          "name": "token",
          "type": "address"
        }
      ],
      "name": "ExchangeFundNoNeedToService",
      "type": "error"
    },
    {
      "inputs": [
        {
          "internalType": "contract IERC20",
          "name": "token",
          "type": "address"
        }
      ],
      "name": "ExchangeFundSameTokenSwap",
      "type": "error"
    },
    {
      "inputs": [
        {
          "internalType": "contract IERC20",
          "name": "token",
          "type": "address"
        }
      ],
      "name": "ExchangeFundTokenNotAllowedToBeDeposited",
      "type": "error"
    },
    {
      "inputs": [
        {
          "internalType": "contract IERC20",
          "name": "token",
          "type": "address"
        }
      ],
      "name": "ExchangeFundTokenNotAllowedToBeSalvaged",
      "type": "error"
    },
    {
      "inputs": [
        {
          "internalType": "contract IERC20",
          "name": "token",
          "type": "address"
        }
      ],
      "name": "ExchangeFundTokenNotAllowedToBeSwapped",
      "type": "error"
    },
    {
      "inputs": [
        {
          "internalType": "contract IERC20",
          "name": "token",
          "type": "address"
        }
      ],
      "name": "ExchangeFundTokenNotAllowedToBeWithdrawn",
      "type": "error"
    },
    {
      "inputs": [
        {
          "internalType": "uint256",
          "name": "prod1",
          "type": "uint256"
        },
        {
          "internalType": "uint256",
          "name": "denominator",
          "type": "uint256"
        }
      ],
      "name": "FixedPointMathMulDivOverflow",
      "type": "error"
    },
    {
      "inputs": [],
      "name": "GovernedCantGoverItself",
      "type": "error"
    },
    {
      "inputs": [],
      "name": "GovernedGovernorZeroAddress",
      "type": "error"
    },
    {
      "inputs": [],
      "name": "GovernedOnlyGovernorAllowedToCall",
      "type": "error"
    },
    {
      "inputs": [],
      "name": "GovernedOnlyPendingGovernorAllowedToCall",
      "type": "error"
    },
    {
      "inputs": [],
      "name": "SafeERC20NoReturnData",
      "type": "error"
    },
    {
      "anonymous": false,
      "inputs": [
        {
          "indexed": true,
          "internalType": "address",
          "name": "account",
          "type": "address"
        },
        {
          "indexed": true,
          "internalType": "contract IERC20",
          "name": "token",
          "type": "address"
        },
        {
          "indexed": false,
          "internalType": "uint256",
          "name": "amount",
          "type": "uint256"
        }
      ],
      "name": "Deposit",
      "type": "event"
    },
    {
      "anonymous": false,
      "inputs": [
        {
          "indexed": true,
          "internalType": "contract IERC20",
          "name": "token",
          "type": "address"
        },
        {
          "indexed": false,
          "internalType": "contract IUniswapV2Pair",
          "name": "pair",
          "type": "address"
        }
      ],
      "name": "DepositableTokenListed",
      "type": "event"
    },
    {
      "anonymous": false,
      "inputs": [
        {
          "indexed": true,
          "internalType": "contract IERC20",
          "name": "token",
          "type": "address"
        }
      ],
      "name": "DepositableTokenUnlisted",
      "type": "event"
    },
    {
      "anonymous": false,
      "inputs": [
        {
          "indexed": true,
          "internalType": "address",
          "name": "account",
          "type": "address"
        },
        {
          "indexed": true,
          "internalType": "contract IERC20",
          "name": "token",
          "type": "address"
        },
        {
          "indexed": false,
          "internalType": "uint256",
          "name": "amount",
          "type": "uint256"
        }
      ],
      "name": "Divest",
      "type": "event"
    },
    {
      "anonymous": false,
      "inputs": [
        {
          "indexed": true,
          "internalType": "address",
          "name": "governor",
          "type": "address"
        },
        {
          "indexed": true,
          "internalType": "address",
          "name": "newGovernor",
          "type": "address"
        }
      ],
      "name": "GovernanceTransited",
      "type": "event"
    },
    {
      "anonymous": false,
      "inputs": [
        {
          "indexed": true,
          "internalType": "address",
          "name": "account",
          "type": "address"
        },
        {
          "indexed": true,
          "internalType": "contract IERC20",
          "name": "token",
          "type": "address"
        },
        {
          "indexed": false,
          "internalType": "uint256",
          "name": "amount",
          "type": "uint256"
        }
      ],
      "name": "Invest",
      "type": "event"
    },
    {
      "anonymous": false,
      "inputs": [
        {
          "indexed": true,
          "internalType": "address",
          "name": "governor",
          "type": "address"
        },
        {
          "indexed": true,
          "internalType": "address",
          "name": "newGovernor",
          "type": "address"
        }
      ],
      "name": "PendingGovernanceTransition",
      "type": "event"
    },
    {
      "anonymous": false,
      "inputs": [
        {
          "indexed": true,
          "internalType": "address",
          "name": "account",
          "type": "address"
        },
        {
          "indexed": true,
          "internalType": "contract IERC20",
          "name": "token",
          "type": "address"
        }
      ],
      "name": "Service",
      "type": "event"
    },
    {
      "anonymous": false,
      "inputs": [
        {
          "indexed": false,
          "internalType": "uint256",
          "name": "slippageTolerance",
          "type": "uint256"
        },
        {
          "indexed": false,
          "internalType": "uint256",
          "name": "newSlippageTolerance",
          "type": "uint256"
        }
      ],
      "name": "SlippageToleranceUpdated",
      "type": "event"
    },
    {
      "anonymous": false,
      "inputs": [
        {
          "indexed": true,
          "internalType": "address",
          "name": "account",
          "type": "address"
        },
        {
          "indexed": true,
          "internalType": "contract IERC20",
          "name": "tokenA",
          "type": "address"
        },
        {
          "indexed": true,
          "internalType": "contract IERC20",
          "name": "tokenB",
          "type": "address"
        },
        {
          "indexed": false,
          "internalType": "uint256",
          "name": "amountA",
          "type": "uint256"
        },
        {
          "indexed": false,
          "internalType": "uint256",
          "name": "amountB",
          "type": "uint256"
        }
      ],
      "name": "Swap",
      "type": "event"
    },
    {
      "anonymous": false,
      "inputs": [
        {
          "indexed": false,
          "internalType": "uint256",
          "name": "swapDeadline",
          "type": "uint256"
        },
        {
          "indexed": false,
          "internalType": "uint256",
          "name": "newSwapDeadline",
          "type": "uint256"
        }
      ],
      "name": "SwapDeadlineUpdated",
      "type": "event"
    },
    {
      "anonymous": false,
      "inputs": [
        {
          "indexed": true,
          "internalType": "address",
          "name": "account",
          "type": "address"
        },
        {
          "indexed": true,
          "internalType": "contract IERC20",
          "name": "token",
          "type": "address"
        },
        {
          "indexed": false,
          "internalType": "uint256",
          "name": "amount",
          "type": "uint256"
        }
      ],
      "name": "Withdrawal",
      "type": "event"
    },
    {
      "inputs": [],
      "name": "acceptGovernance",
      "outputs": [],
      "stateMutability": "nonpayable",
      "type": "function"
    },
    {
      "inputs": [],
      "name": "core",
      "outputs": [
        {
          "internalType": "contract ICore",
          "name": "",
          "type": "address"
        }
      ],
      "stateMutability": "view",
      "type": "function"
    },
    {
      "inputs": [
        {
          "internalType": "contract IERC20",
          "name": "token",
          "type": "address"
        },
        {
          "internalType": "uint256",
          "name": "amount",
          "type": "uint256"
        }
      ],
      "name": "deposit",
      "outputs": [],
      "stateMutability": "nonpayable",
      "type": "function"
    },
    {
      "inputs": [
        {
          "internalType": "contract IERC20",
          "name": "",
          "type": "address"
        }
      ],
      "name": "depositableTokens",
      "outputs": [
        {
          "internalType": "bool",
          "name": "",
          "type": "bool"
        }
      ],
      "stateMutability": "view",
      "type": "function"
    },
    {
      "inputs": [
        {
          "internalType": "address",
          "name": "",
          "type": "address"
        },
        {
          "internalType": "contract IERC20",
          "name": "",
          "type": "address"
        }
      ],
      "name": "deposits",
      "outputs": [
        {
          "internalType": "uint256",
          "name": "",
          "type": "uint256"
        }
      ],
      "stateMutability": "view",
      "type": "function"
    },
    {
      "inputs": [
        {
          "internalType": "contract IERC20",
          "name": "token",
          "type": "address"
        },
        {
          "internalType": "uint256",
          "name": "amount",
          "type": "uint256"
        }
      ],
      "name": "divest",
      "outputs": [],
      "stateMutability": "nonpayable",
      "type": "function"
    },
    {
      "inputs": [],
      "name": "getDepositableTokens",
      "outputs": [
        {
          "internalType": "contract IERC20[]",
          "name": "tokens",
          "type": "address[]"
        }
      ],
      "stateMutability": "view",
      "type": "function"
    },
    {
      "inputs": [],
      "name": "governor",
      "outputs": [
        {
          "internalType": "address",
          "name": "",
          "type": "address"
        }
      ],
      "stateMutability": "view",
      "type": "function"
    },
    {
      "inputs": [
        {
          "internalType": "contract ICore",
          "name": "_core",
          "type": "address"
        }
      ],
      "name": "initialize",
      "outputs": [],
      "stateMutability": "nonpayable",
      "type": "function"
    },
    {
      "inputs": [
        {
          "internalType": "contract IERC20",
          "name": "token",
          "type": "address"
        },
        {
          "internalType": "uint256",
          "name": "amount",
          "type": "uint256"
        }
      ],
      "name": "invest",
      "outputs": [],
      "stateMutability": "nonpayable",
      "type": "function"
    },
    {
      "inputs": [
        {
          "internalType": "address",
          "name": "",
          "type": "address"
        },
        {
          "internalType": "contract IERC20",
          "name": "",
          "type": "address"
        }
      ],
      "name": "liquidity",
      "outputs": [
        {
          "internalType": "uint256",
          "name": "",
          "type": "uint256"
        }
      ],
      "stateMutability": "view",
      "type": "function"
    },
    {
      "inputs": [
        {
          "internalType": "contract IERC20",
          "name": "token",
          "type": "address"
        }
      ],
      "name": "listDepositableToken",
      "outputs": [],
      "stateMutability": "nonpayable",
      "type": "function"
    },
    {
      "inputs": [],
      "name": "pendingGovernor",
      "outputs": [
        {
          "internalType": "address",
          "name": "",
          "type": "address"
        }
      ],
      "stateMutability": "view",
      "type": "function"
    },
    {
      "inputs": [
        {
          "internalType": "contract IERC20",
          "name": "token",
          "type": "address"
        },
        {
          "internalType": "uint256",
          "name": "amount",
          "type": "uint256"
        }
      ],
      "name": "quote",
      "outputs": [
        {
          "internalType": "uint256",
          "name": "baksAmount",
          "type": "uint256"
        }
      ],
      "stateMutability": "view",
      "type": "function"
    },
    {
      "inputs": [
        {
          "internalType": "contract IERC20",
          "name": "token",
          "type": "address"
        }
      ],
      "name": "salvage",
      "outputs": [],
      "stateMutability": "nonpayable",
      "type": "function"
    },
    {
      "inputs": [
        {
          "internalType": "contract IERC20",
          "name": "token",
          "type": "address"
        }
      ],
      "name": "service",
      "outputs": [],
      "stateMutability": "nonpayable",
      "type": "function"
    },
    {
      "inputs": [
        {
          "internalType": "uint256",
          "name": "newSlippageTolerance",
          "type": "uint256"
        }
      ],
      "name": "setSlippageTolerance",
      "outputs": [],
      "stateMutability": "nonpayable",
      "type": "function"
    },
    {
      "inputs": [
        {
          "internalType": "uint256",
          "name": "newSwapDeadline",
          "type": "uint256"
        }
      ],
      "name": "setSwapDeadline",
      "outputs": [],
      "stateMutability": "nonpayable",
      "type": "function"
    },
    {
      "inputs": [],
      "name": "slippageTolerance",
      "outputs": [
        {
          "internalType": "uint256",
          "name": "",
          "type": "uint256"
        }
      ],
      "stateMutability": "view",
      "type": "function"
    },
    {
      "inputs": [
        {
          "internalType": "contract IERC20",
          "name": "tokenA",
          "type": "address"
        },
        {
          "internalType": "contract IERC20",
          "name": "tokenB",
          "type": "address"
        },
        {
          "internalType": "uint256",
          "name": "amount",
          "type": "uint256"
        },
        {
          "internalType": "bool",
          "name": "useWrappedNativeCurrencyAsIntermediateToken",
          "type": "bool"
        }
      ],
      "name": "swap",
      "outputs": [],
      "stateMutability": "nonpayable",
      "type": "function"
    },
    {
      "inputs": [],
      "name": "swapDeadline",
      "outputs": [
        {
          "internalType": "uint256",
          "name": "",
          "type": "uint256"
        }
      ],
      "stateMutability": "view",
      "type": "function"
    },
    {
      "inputs": [
        {
          "internalType": "uint256",
          "name": "amount",
          "type": "uint256"
        }
      ],
      "name": "transferBaksToBank",
      "outputs": [],
      "stateMutability": "nonpayable",
      "type": "function"
    },
    {
      "inputs": [
        {
          "internalType": "address",
          "name": "newGovernor",
          "type": "address"
        },
        {
          "internalType": "bool",
          "name": "force",
          "type": "bool"
        }
      ],
      "name": "transitGovernance",
      "outputs": [],
      "stateMutability": "nonpayable",
      "type": "function"
    },
    {
      "inputs": [
        {
          "internalType": "contract IERC20",
          "name": "token",
          "type": "address"
        }
      ],
      "name": "unlistDepositableToken",
      "outputs": [],
      "stateMutability": "nonpayable",
      "type": "function"
    },
    {
      "inputs": [
        {
          "internalType": "contract IERC20",
          "name": "token",
          "type": "address"
        },
        {
          "internalType": "uint256",
          "name": "amount",
          "type": "uint256"
        }
      ],
      "name": "withdraw",
      "outputs": [],
      "stateMutability": "nonpayable",
      "type": "function"
    }
  ],
  "transactionHash": "0xf0f39cf9c15d8b9839e0b0e076db458874267e885d70ae82776e389e673f4653",
  "args": [],
  "solcInputHash": "c83a42cfca7e8c70b49f18eade1c38b1",
  "bytecode": "0x608060405234801561001057600080fd5b506146dd806100206000396000f3fe608060405234801561001057600080fd5b50600436106101a35760003560e01c80638f79306e116100ee578063c14edd7911610097578063ddc1252611610071578063ddc1252614610397578063e3056a34146103aa578063f2f4eb26146103bd578063f3fef3a3146103d057600080fd5b8063c14edd7914610348578063c4d66de81461037b578063d03153aa1461038e57600080fd5b8063b2217281116100c8578063b2217281146102f7578063b9b8c24614610322578063bb5043171461033557600080fd5b80638f79306e146102c857806393ad9f17146102db578063942dbff4146102ee57600080fd5b80635e6fdf431161015057806385881e2a1161012a57806385881e2a14610269578063863a03e01461027c5780638f601f661461028f57600080fd5b80635e6fdf431461022e5780637e83f7d71461024357806383ad86b21461025657600080fd5b806347e7ef241161018157806347e7ef24146101f557806348be7719146102085780634bd847011461021b57600080fd5b80630c340a24146101a8578063117da1ee146101d8578063238efcbc146101ed575b600080fd5b6001546101bb906001600160a01b031681565b6040516001600160a01b0390911681526020015b60405180910390f35b6101eb6101e6366004613fe9565b6103e3565b005b6101eb61044f565b6101eb610203366004614017565b6104c8565b6101eb610216366004614043565b6105bd565b6101eb610229366004614043565b610958565b610236610eca565b6040516101cf91906140a4565b6101eb6102513660046140c5565b610f93565b6101eb610264366004613fe9565b6116c1565b6101eb610277366004614043565b611836565b6101eb61028a366004614043565b611d34565b6102ba61029d366004614118565b600560209081526000928352604080842090915290825290205481565b6040519081526020016101cf565b6102ba6102d6366004614017565b611f13565b6101eb6102e9366004613fe9565b612387565b6102ba60045481565b6102ba610305366004614118565b600660209081526000928352604080842090915290825290205481565b6101eb610330366004614017565b6123f3565b6101eb610343366004614017565b61271f565b61036b610356366004614043565b60076020526000908152604090205460ff1681565b60405190151581526020016101cf565b6101eb610389366004614043565b6129d5565b6102ba60035481565b6101eb6103a5366004614151565b612fae565b6002546101bb906001600160a01b031681565b6000546101bb906001600160a01b031681565b6101eb6103de366004614017565b613091565b6001546001600160a01b0316331461040e576040516305e7700560e51b815260040160405180910390fd5b60035460408051918252602082018390527fddd31550b26e9ef8ade466958be83ff8a014d9b4f36d546b61a6847a45306575910160405180910390a1600355565b6002546001600160a01b0316331461047a5760405163aec80d4b60e01b815260040160405180910390fd5b600254600180546001600160a01b0319166001600160a01b03909216918217905560405181907f564590b81987d147246f63910a8e1ee4eb09c4d64cc75ee975a8ffedfcc2210e90600090a3565b6001600160a01b03821660009081526009602052604090205482906105105760405163497e1e0360e01b81526001600160a01b03821660048201526024015b60405180910390fd5b6105256001600160a01b038416333085613229565b600061053a6001600160a01b038516846132af565b3360009081526005602090815260408083206001600160a01b0389168452909152812080549293508392909190610572908490614195565b90915550506040518181526001600160a01b0385169033907f5548c837ab068cf56a2c2479df0882a4922fd203edb7517321831d95078c5f629060200160405180910390a350505050565b6001546001600160a01b031633146105e8576040516305e7700560e51b815260040160405180910390fd5b6001600160a01b0381166000908152600960205260409020546106295760405163635c3e1f60e11b81526001600160a01b0382166004820152602401610507565b61063460088261334e565b156109555760008060009054906101000a90046001600160a01b03166001600160a01b0316631694505e6040518163ffffffff1660e01b8152600401602060405180830381865afa15801561068d573d6000803e3d6000fd5b505050506040513d601f19601f820116820180604052508101906106b191906141ad565b60405163095ea7b360e01b81526001600160a01b038083166004830152600060248301529192509083169063095ea7b3906044016020604051808303816000875af1158015610704573d6000803e3d6000fd5b505050506040513d601f19601f8201168201806040525081019061072891906141ca565b506000816001600160a01b031663c45a01556040518163ffffffff1660e01b8152600401602060405180830381865afa158015610769573d6000803e3d6000fd5b505050506040513d601f19601f8201168201806040525081019061078d91906141ad565b90506000816001600160a01b031663e6a4390560008054906101000a90046001600160a01b03166001600160a01b0316634c4e61e96040518163ffffffff1660e01b8152600401602060405180830381865afa1580156107f1573d6000803e3d6000fd5b505050506040513d601f19601f8201168201806040525081019061081591906141ad565b6040516001600160e01b031960e084901b1681526001600160a01b0391821660048201529087166024820152604401602060405180830381865afa158015610861573d6000803e3d6000fd5b505050506040513d601f19601f8201168201806040525081019061088591906141ad565b90506001600160a01b0381161561090b5760405163095ea7b360e01b81526001600160a01b0384811660048301526000602483015282169063095ea7b3906044016020604051808303816000875af11580156108e5573d6000803e3d6000fd5b505050506040513d601f19601f8201168201806040525081019061090991906141ca565b505b6001600160a01b038416600081815260076020526040808220805460ff19169055517fbd6c0ac05a911841e71daa23bb8022779f3957fad4fa3546eb22a1782c747c839190a25050505b50565b60008061096483613487565b909250905061097c6001600160a01b038416826132af565b905060008060008054906101000a90046001600160a01b03166001600160a01b0316632630c12f6040518163ffffffff1660e01b8152600401602060405180830381865afa1580156109d2573d6000803e3d6000fd5b505050506040513d601f19601f820116820180604052508101906109f691906141ad565b604051630787c49960e21b81526001600160a01b0387811660048301529190911690631e1f126490602401602060405180830381865afa158015610a3e573d6000803e3d6000fd5b505050506040513d601f19601f82011682018060405250810190610a6291906141e7565b90506000610a708585613712565b90506000670de0b6b3a7640000610a878385613712565b610a919190614200565b905060008054906101000a90046001600160a01b03166001600160a01b031663453844b66040518163ffffffff1660e01b8152600401602060405180830381865afa158015610ae4573d6000803e3d6000fd5b505050506040513d601f19601f82011682018060405250810190610b0891906141e7565b610b118261372e565b10610e53576040805160028082526060820183526000928392919060208301908036833701905050905084841115610c4d5787610b60610b5b87610b55848c61374a565b9061374a565b61381a565b610b6a9190614200565b91508881600081518110610b8057610b8061426e565b60200260200101906001600160a01b031690816001600160a01b03168152505060008054906101000a90046001600160a01b03166001600160a01b0316634c4e61e96040518163ffffffff1660e01b8152600401602060405180830381865afa158015610bf1573d6000803e3d6000fd5b505050506040513d601f19601f82011682018060405250810190610c1591906141ad565b81600181518110610c2857610c2861426e565b60200260200101906001600160a01b031690816001600160a01b031681525050610d45565b86610c5c610b5b8a8389613845565b610c669190614200565b915060008054906101000a90046001600160a01b03166001600160a01b0316634c4e61e96040518163ffffffff1660e01b8152600401602060405180830381865afa158015610cb9573d6000803e3d6000fd5b505050506040513d601f19601f82011682018060405250810190610cdd91906141ad565b81600081518110610cf057610cf061426e565b60200260200101906001600160a01b031690816001600160a01b0316815250508881600181518110610d2457610d2461426e565b60200260200101906001600160a01b031690816001600160a01b0316815250505b60008054906101000a90046001600160a01b03166001600160a01b0316631694505e6040518163ffffffff1660e01b8152600401602060405180830381865afa158015610d96573d6000803e3d6000fd5b505050506040513d601f19601f82011682018060405250810190610dba91906141ad565b6001600160a01b0316638803dbee610dd18461372e565b600019843060045442610de49190614195565b6040518663ffffffff1660e01b8152600401610e04959493929190614284565b6000604051808303816000875af1158015610e23573d6000803e3d6000fd5b505050506040513d6000823e601f3d908101601f19168201604052610e4b91908101906142c0565b506001955050505b8380610e635750610e6387613900565b610e8b576040516358cbbf3f60e11b81526001600160a01b0388166004820152602401610507565b6040516001600160a01b0388169033907f6d9de21666ebb28b54314f1615b914f9807eaa05e80a86c76d97ec1c376d7e0390600090a350505050505050565b6008546060908067ffffffffffffffff811115610ee957610ee9614258565b604051908082528060200260200182016040528015610f12578160200160208202803683370190505b50915060005b81811015610f8e576008805482908110610f3457610f3461426e565b9060005260206000200160009054906101000a90046001600160a01b0316838281518110610f6457610f6461426e565b6001600160a01b039092166020928302919091019091015280610f868161437e565b915050610f18565b505090565b60005460408051634c4e61e960e01b8152905186926001600160a01b031691634c4e61e99160048083019260209291908290030181865afa158015610fdc573d6000803e3d6000fd5b505050506040513d601f19601f8201168201806040525081019061100091906141ad565b6001600160a01b0316816001600160a01b03161415801561103757506001600160a01b038116600090815260096020526040902054155b156110605760405163569695af60e01b81526001600160a01b0382166004820152602401610507565b60005460408051634c4e61e960e01b8152905186926001600160a01b031691634c4e61e99160048083019260209291908290030181865afa1580156110a9573d6000803e3d6000fd5b505050506040513d601f19601f820116820180604052508101906110cd91906141ad565b6001600160a01b0316816001600160a01b03161415801561110457506001600160a01b038116600090815260096020526040902054155b1561112d5760405163569695af60e01b81526001600160a01b0382166004820152602401610507565b60006111426001600160a01b038816866132af565b3360009081526005602090815260408083206001600160a01b038c1684529091529020549091508111156111895760405163c0993c3760e01b815260040160405180910390fd5b856001600160a01b0316876001600160a01b031614156111c757604051630e9f73ab60e21b81526001600160a01b0388166004820152602401610507565b6000846111d55760026111d8565b60035b60ff1667ffffffffffffffff8111156111f3576111f3614258565b60405190808252806020026020018201604052801561121c578160200160208202803683370190505b50905087816000815181106112335761123361426e565b60200260200101906001600160a01b031690816001600160a01b0316815250508461125e57866112d3565b60008054906101000a90046001600160a01b03166001600160a01b031663e7f3028c6040518163ffffffff1660e01b8152600401602060405180830381865afa1580156112af573d6000803e3d6000fd5b505050506040513d601f19601f820116820180604052508101906112d391906141ad565b816001815181106112e6576112e661426e565b60200260200101906001600160a01b031690816001600160a01b03168152505084156113415786816002815181106113205761132061426e565b60200260200101906001600160a01b031690816001600160a01b0316815250505b60008060009054906101000a90046001600160a01b03166001600160a01b0316631694505e6040518163ffffffff1660e01b8152600401602060405180830381865afa158015611395573d6000803e3d6000fd5b505050506040513d601f19601f820116820180604052508101906113b991906141ad565b90506000816001600160a01b031663d06ca61f89856040518363ffffffff1660e01b81526004016113eb929190614399565b600060405180830381865afa158015611408573d6000803e3d6000fd5b505050506040513d6000823e601f3d908101601f1916820160405261143091908101906142c0565b90506000611476826001845161144691906143ba565b815181106114565761145661426e565b60200260200101518b6001600160a01b03166132af90919063ffffffff16565b9050826001600160a01b03166338ed17398a6114bb6114ab600354670de0b6b3a76400006114a491906143ba565b869061374a565b6001600160a01b038f1690613bf3565b8730600454426114cb9190614195565b6040518663ffffffff1660e01b81526004016114eb959493929190614284565b6000604051808303816000875af115801561150a573d6000803e3d6000fd5b505050506040513d6000823e601f3d908101601f1916820160405261153291908101906142c0565b9150600061156c8360008151811061154c5761154c61426e565b60200260200101518d6001600160a01b03166132af90919063ffffffff16565b90506000611592846001865161158291906143ba565b8151811061154c5761154c61426e565b90508160056000336001600160a01b03166001600160a01b0316815260200190815260200160002060008f6001600160a01b03166001600160a01b0316815260200190815260200160002060008282546115ec91906143ba565b925050819055508060056000336001600160a01b03166001600160a01b0316815260200190815260200160002060008e6001600160a01b03166001600160a01b03168152602001908152602001600020600082825461164b9190614195565b925050819055508b6001600160a01b03168d6001600160a01b0316336001600160a01b03167fcd3829a3813dc3cdd188fd3d01dcf3268c16be2fdd2dd21d0665418816e4606285856040516116aa929190918252602082015260400190565b60405180910390a450505050505050505050505050565b60005460405163cd784d1b60e01b81523360048201526001600160a01b039091169063cd784d1b90602401602060405180830381865afa158015611709573d6000803e3d6000fd5b505050506040513d601f19601f8201168201806040525081019061172d91906141ca565b61174a576040516337b31c9d60e21b815260040160405180910390fd5b600054604080516376cdb03b60e01b81529051610955926001600160a01b0316916376cdb03b9160048083019260209291908290030181865afa158015611795573d6000803e3d6000fd5b505050506040513d601f19601f820116820180604052508101906117b991906141ad565b60005460408051634c4e61e960e01b8152905185926001600160a01b031691634c4e61e99160048083019260209291908290030181865afa158015611802573d6000803e3d6000fd5b505050506040513d601f19601f8201168201806040525081019061182691906141ad565b6001600160a01b03169190613c82565b6001546001600160a01b03163314611861576040516305e7700560e51b815260040160405180910390fd5b6001600160a01b038116600090815260096020526040902054156118a3576040516382cce5f360e01b81526001600160a01b0382166004820152602401610507565b6000816001600160a01b031663313ce5676040518163ffffffff1660e01b8152600401602060405180830381865afa1580156118e3573d6000803e3d6000fd5b505050506040513d601f19601f8201168201806040525081019061190791906143d1565b905060ff8116611935576040516316d13e4960e21b81526001600160a01b0383166004820152602401610507565b601260ff8216111561196e576040516321b3807960e11b81526001600160a01b038316600482015260ff82166024820152604401610507565b611979600883613cb7565b15611d305760008060009054906101000a90046001600160a01b03166001600160a01b0316634c4e61e96040518163ffffffff1660e01b8152600401602060405180830381865afa1580156119d2573d6000803e3d6000fd5b505050506040513d601f19601f820116820180604052508101906119f691906141ad565b905060008060009054906101000a90046001600160a01b03166001600160a01b0316631694505e6040518163ffffffff1660e01b8152600401602060405180830381865afa158015611a4c573d6000803e3d6000fd5b505050506040513d601f19601f82011682018060405250810190611a7091906141ad565b60405163095ea7b360e01b81526001600160a01b03808316600483015260001960248301529192509085169063095ea7b3906044016020604051808303816000875af1158015611ac4573d6000803e3d6000fd5b505050506040513d601f19601f82011682018060405250810190611ae891906141ca565b506000816001600160a01b031663c45a01556040518163ffffffff1660e01b8152600401602060405180830381865afa158015611b29573d6000803e3d6000fd5b505050506040513d601f19601f82011682018060405250810190611b4d91906141ad565b60405163e6a4390560e01b81526001600160a01b038581166004830152878116602483015291925060009183169063e6a4390590604401602060405180830381865afa158015611ba1573d6000803e3d6000fd5b505050506040513d601f19601f82011682018060405250810190611bc591906141ad565b90506001600160a01b038116611c4c576040516364e329cb60e11b81526001600160a01b038581166004830152878116602483015283169063c9c65396906044016020604051808303816000875af1158015611c25573d6000803e3d6000fd5b505050506040513d601f19601f82011682018060405250810190611c4991906141ad565b90505b60405163095ea7b360e01b81526001600160a01b038481166004830152600019602483015282169063095ea7b3906044016020604051808303816000875af1158015611c9c573d6000803e3d6000fd5b505050506040513d601f19601f82011682018060405250810190611cc091906141ca565b506001600160a01b03861660008181526007602052604090819020805460ff19166001179055517f55011b433ad455f23aa134ee4f1fcd2190a063cb514134436b32358ead356ada90611d239084906001600160a01b0391909116815260200190565b60405180910390a2505050505b5050565b6001546001600160a01b03163314611d5f576040516305e7700560e51b815260040160405180910390fd5b60005460408051634c4e61e960e01b8152905183926001600160a01b031691634c4e61e99160048083019260209291908290030181865afa158015611da8573d6000803e3d6000fd5b505050506040513d601f19601f82011682018060405250810190611dcc91906141ad565b6001600160a01b0316826001600160a01b03161480611e0257506001600160a01b03811660009081526009602052604090205415155b15611e2b57604051631af19dff60e01b81526001600160a01b0383166004820152602401610507565b6000546040805163570ca73560e01b81529051611d30926001600160a01b03169163570ca7359160048083019260209291908290030181865afa158015611e76573d6000803e3d6000fd5b505050506040513d601f19601f82011682018060405250810190611e9a91906141ad565b6040516370a0823160e01b81523060048201526001600160a01b038516906370a0823190602401602060405180830381865afa158015611ede573d6000803e3d6000fd5b505050506040513d601f19601f82011682018060405250810190611f0291906141e7565b6001600160a01b0385169190613c82565b6000805460408051634c4e61e960e01b8152905183926001600160a01b031691634c4e61e99160048083019260209291908290030181865afa158015611f5d573d6000803e3d6000fd5b505050506040513d601f19601f82011682018060405250810190611f8191906141ad565b905060008060009054906101000a90046001600160a01b03166001600160a01b0316631694505e6040518163ffffffff1660e01b8152600401602060405180830381865afa158015611fd7573d6000803e3d6000fd5b505050506040513d601f19601f82011682018060405250810190611ffb91906141ad565b90506000816001600160a01b031663c45a01556040518163ffffffff1660e01b8152600401602060405180830381865afa15801561203d573d6000803e3d6000fd5b505050506040513d601f19601f8201168201806040525081019061206191906141ad565b60405163e6a4390560e01b81526001600160a01b0385811660048301528881166024830152919091169063e6a4390590604401602060405180830381865afa1580156120b1573d6000803e3d6000fd5b505050506040513d601f19601f820116820180604052508101906120d591906141ad565b9050600080826001600160a01b0316630902f1ac6040518163ffffffff1660e01b8152600401606060405180830381865afa158015612118573d6000803e3d6000fd5b505050506040513d601f19601f8201168201806040525081019061213c9190614412565b506dffffffffffffffffffffffffffff1691506dffffffffffffffffffffffffffff169150816000148061216e575080155b1561226d5760005460408051632630c12f60e01b81529051612261926001600160a01b031691632630c12f9160048083019260209291908290030181865afa1580156121be573d6000803e3d6000fd5b505050506040513d601f19601f820116820180604052508101906121e291906141ad565b604051630787c49960e21b81526001600160a01b038b811660048301529190911690631e1f126490602401602060405180830381865afa15801561222a573d6000803e3d6000fd5b505050506040513d601f19601f8201168201806040525081019061224e91906141e7565b610b556001600160a01b038b168a6132af565b95505050505050612381565b876001600160a01b0316856001600160a01b03161061230257604051632b58577b60e21b81526004810188905260248101839052604481018290526001600160a01b0385169063ad615dec90606401602060405180830381865afa1580156122d9573d6000803e3d6000fd5b505050506040513d601f19601f820116820180604052508101906122fd91906141e7565b612379565b604051632b58577b60e21b81526004810188905260248101829052604481018390526001600160a01b0385169063ad615dec90606401602060405180830381865afa158015612355573d6000803e3d6000fd5b505050506040513d601f19601f8201168201806040525081019061237991906141e7565b955050505050505b92915050565b6001546001600160a01b031633146123b2576040516305e7700560e51b815260040160405180910390fd5b60045460408051918252602082018390527f801306575ef2eb7d5ec12da38bf892a7872d76caf0beb1cec0779abeb71ff3a9910160405180910390a1600455565b60006124086001600160a01b038416836132af565b3360009081526005602090815260408083206001600160a01b038816845290915290205490915081111561244f5760405163c0993c3760e01b815260040160405180910390fd5b600061245b8484611f13565b905060008060008054906101000a90046001600160a01b03166001600160a01b0316631694505e6040518163ffffffff1660e01b8152600401602060405180830381865afa1580156124b1573d6000803e3d6000fd5b505050506040513d601f19601f820116820180604052508101906124d591906141ad565b6001600160a01b031663e8e3370060008054906101000a90046001600160a01b03166001600160a01b0316634c4e61e96040518163ffffffff1660e01b8152600401602060405180830381865afa158015612534573d6000803e3d6000fd5b505050506040513d601f19601f8201168201806040525081019061255891906141ad565b88868961257b600354670de0b6b3a764000061257491906143ba565b8a9061374a565b61259e6114ab600354670de0b6b3a764000061259791906143ba565b8d9061374a565b30600454426125ad9190614195565b60405160e08a901b6001600160e01b03191681526001600160a01b039889166004820152968816602488015260448701959095526064860193909352608485019190915260a484015290921660c482015260e4810191909152610104016060604051808303816000875af1158015612629573d6000803e3d6000fd5b505050506040513d601f19601f8201168201806040525081019061264d9190614462565b909350915061266790506001600160a01b038716836132af565b3360009081526005602090815260408083206001600160a01b038b1684529091528120805490919061269a9084906143ba565b90915550503360009081526006602090815260408083206001600160a01b038a168452909152812080548392906126d2908490614195565b90915550506040518481526001600160a01b0387169033907f0657e0c8fff72ae811b8683a3411c30ebb5098754ec5e814687711e97cbd6db29060200160405180910390a3505050505050565b3360009081526006602090815260408083206001600160a01b03861684529091529020548111156127635760405163dc93df4560e01b815260040160405180910390fd5b60008060009054906101000a90046001600160a01b03166001600160a01b0316631694505e6040518163ffffffff1660e01b8152600401602060405180830381865afa1580156127b7573d6000803e3d6000fd5b505050506040513d601f19601f820116820180604052508101906127db91906141ad565b6001600160a01b031663baa2abde60008054906101000a90046001600160a01b03166001600160a01b0316634c4e61e96040518163ffffffff1660e01b8152600401602060405180830381865afa15801561283a573d6000803e3d6000fd5b505050506040513d601f19601f8201168201806040525081019061285e91906141ad565b858560008030600454426128729190614195565b60405160e089901b6001600160e01b03191681526001600160a01b039788166004820152958716602487015260448601949094526064850192909252608484015290921660a482015260c481019190915260e40160408051808303816000875af11580156128e4573d6000803e3d6000fd5b505050506040513d601f19601f820116820180604052508101906129089190614490565b915061291f90506001600160a01b038416826132af565b3360009081526005602090815260408083206001600160a01b038816845290915281208054909190612952908490614195565b90915550503360009081526006602090815260408083206001600160a01b03871684529091528120805484929061298a9084906143ba565b90915550506040518281526001600160a01b0384169033907f8c6e1d3aa13e82e61da9350057ab35ded0bd548b8905b82dfa012876992b8ef5906020015b60405180910390a3505050565b600254600160a01b900460ff16158015612a0a57506002547501000000000000000000000000000000000000000000900460ff165b15612a2857604051631ee1e30360e21b815260040160405180910390fd5b600254600160a01b900460ff16158015612a7d57600280547fffffffffffffffffffff0000ffffffffffffffffffffffffffffffffffffffff1675010100000000000000000000000000000000000000001790555b600080546001600160a01b0319166001600160a01b038416179055612aa133613d27565b6611c37937e080006003556104b060049081556000805460408051634c4e61e960e01b8152905192936001600160a01b0390921692634c4e61e9928281019260209291908290030181865afa158015612afe573d6000803e3d6000fd5b505050506040513d601f19601f82011682018060405250810190612b2291906141ad565b905060008060009054906101000a90046001600160a01b03166001600160a01b0316638b02d3176040518163ffffffff1660e01b8152600401602060405180830381865afa158015612b78573d6000803e3d6000fd5b505050506040513d601f19601f82011682018060405250810190612b9c91906141ad565b9050816001600160a01b031663095ea7b360008054906101000a90046001600160a01b03166001600160a01b0316631694505e6040518163ffffffff1660e01b8152600401602060405180830381865afa158015612bfe573d6000803e3d6000fd5b505050506040513d601f19601f82011682018060405250810190612c2291906141ad565b6040516001600160e01b031960e084901b1681526001600160a01b03909116600482015260001960248201526044016020604051808303816000875af1158015612c70573d6000803e3d6000fd5b505050506040513d601f19601f82011682018060405250810190612c9491906141ca565b50816001600160a01b031663095ea7b360008054906101000a90046001600160a01b03166001600160a01b0316630e0603786040518163ffffffff1660e01b8152600401602060405180830381865afa158015612cf5573d6000803e3d6000fd5b505050506040513d601f19601f82011682018060405250810190612d1991906141ad565b6040516001600160e01b031960e084901b1681526001600160a01b03909116600482015260001960248201526044016020604051808303816000875af1158015612d67573d6000803e3d6000fd5b505050506040513d601f19601f82011682018060405250810190612d8b91906141ca565b50806001600160a01b031663095ea7b360008054906101000a90046001600160a01b03166001600160a01b0316631694505e6040518163ffffffff1660e01b8152600401602060405180830381865afa158015612dec573d6000803e3d6000fd5b505050506040513d601f19601f82011682018060405250810190612e1091906141ad565b6040516001600160e01b031960e084901b1681526001600160a01b03909116600482015260001960248201526044016020604051808303816000875af1158015612e5e573d6000803e3d6000fd5b505050506040513d601f19601f82011682018060405250810190612e8291906141ca565b50806001600160a01b031663095ea7b360008054906101000a90046001600160a01b03166001600160a01b0316630e0603786040518163ffffffff1660e01b8152600401602060405180830381865afa158015612ee3573d6000803e3d6000fd5b505050506040513d601f19601f82011682018060405250810190612f0791906141ad565b6040516001600160e01b031960e084901b1681526001600160a01b03909116600482015260001960248201526044016020604051808303816000875af1158015612f55573d6000803e3d6000fd5b505050506040513d601f19601f82011682018060405250810190612f7991906141ca565b5050508015611d3057600280547fffffffffffffffffffffff00ffffffffffffffffffffffffffffffffffffffff1690555050565b6001546001600160a01b03163314612fd9576040516305e7700560e51b815260040160405180910390fd5b6001600160a01b0382166130005760405163604b48b960e11b815260040160405180910390fd5b6001600160a01b03821630141561302a576040516306b3e95d60e21b815260040160405180910390fd5b600280546001600160a01b0319166001600160a01b03841617905580613088576001546040516001600160a01b038085169216907fc606c9af1451cadeb333f6ff7b24a5540974f4e800bac274fa7fff9edc305cb190600090a35050565b611d3082613d27565b60008054906101000a90046001600160a01b03166001600160a01b0316634c4e61e96040518163ffffffff1660e01b8152600401602060405180830381865afa1580156130e2573d6000803e3d6000fd5b505050506040513d601f19601f8201168201806040525081019061310691906141ad565b6001600160a01b0316826001600160a01b031614156131435760405163f099c8a560e01b81526001600160a01b0383166004820152602401610507565b60006131586001600160a01b038416836132af565b3360009081526005602090815260408083206001600160a01b038816845290915290205490915081111561319f5760405163c0993c3760e01b815260040160405180910390fd5b3360009081526005602090815260408083206001600160a01b0387168452909152812080548392906131d29084906143ba565b909155506131ec90506001600160a01b0384163384613c82565b6040518181526001600160a01b0384169033907f2717ead6b9200dd235aad468c9809ea400fe33ac69b5bfaa6d3e90fc922b6398906020016129c8565b6040516001600160a01b03808516602483015283166044820152606481018290526132a99085906323b872dd60e01b906084015b60408051601f198184030181529190526020810180517bffffffffffffffffffffffffffffffffffffffffffffffffffffffff166001600160e01b031990931692909217909152613d73565b50505050565b600080836001600160a01b031663313ce5676040518163ffffffff1660e01b8152600401602060405180830381865afa1580156132f0573d6000803e3d6000fd5b505050506040513d601f19601f8201168201806040525081019061331491906143d1565b61331f9060126144b4565b61332a90600a6145bb565b9050806001146133465761333e81846145ca565b915050612381565b509092915050565b6001600160a01b038116600090815260018301602052604081205480613378576000915050612381565b60006133856001836143ba565b905060006001613393875490565b61339d91906143ba565b90508082146134295760008660000182815481106133bd576133bd61426e565b60009182526020909120015487546001600160a01b03909116915081908890859081106133ec576133ec61426e565b600091825260208083209190910180546001600160a01b0319166001600160a01b0394851617905592909116815260018801909152604090208390555b855486908061343a5761343a6145e9565b60008281526020808220830160001990810180546001600160a01b03191690559092019092556001600160a01b038716825260018881019091526040822091909155935050505092915050565b60008060008060009054906101000a90046001600160a01b03166001600160a01b0316634c4e61e96040518163ffffffff1660e01b8152600401602060405180830381865afa1580156134de573d6000803e3d6000fd5b505050506040513d601f19601f8201168201806040525081019061350291906141ad565b905060008060009054906101000a90046001600160a01b03166001600160a01b0316631694505e6040518163ffffffff1660e01b8152600401602060405180830381865afa158015613558573d6000803e3d6000fd5b505050506040513d601f19601f8201168201806040525081019061357c91906141ad565b6001600160a01b031663c45a01556040518163ffffffff1660e01b8152600401602060405180830381865afa1580156135b9573d6000803e3d6000fd5b505050506040513d601f19601f820116820180604052508101906135dd91906141ad565b60405163e6a4390560e01b81526001600160a01b0384811660048301528781166024830152919091169063e6a4390590604401602060405180830381865afa15801561362d573d6000803e3d6000fd5b505050506040513d601f19601f8201168201806040525081019061365191906141ad565b9050600080826001600160a01b0316630902f1ac6040518163ffffffff1660e01b8152600401606060405180830381865afa158015613694573d6000803e3d6000fd5b505050506040513d601f19601f820116820180604052508101906136b89190614412565b506dffffffffffffffffffffffffffff1691506dffffffffffffffffffffffffffff169150866001600160a01b0316846001600160a01b0316101561370257819550809450613709565b8194508095505b50505050915091565b600061372783670de0b6b3a764000084613845565b9392505050565b60008082121561374657613741826145ff565b612381565b5090565b60008080600019848609848602925082811083820303915050670de0b6b3a7640000811061379c5760405163072fa3c960e31b815260048101829052670de0b6b3a76400006024820152604401610507565b600080670de0b6b3a76400008688099150506706f05b59d3b1ffff8111826137d65780670de0b6b3a7640000850401945050505050612381565b620400008285030493909111909103600160ee1b02919091177faccb18165bd6fe31ae1cf318dc5b51eee0e1ba569b88cd74c1773b91fac106690201905092915050565b60008161382957506000919050565b61383282613dfd565b61238190633b9aca006145ca565b919050565b600080806000198587098587029250828110838203039150508381106138885760405163072fa3c960e31b81526004810182905260248101859052604401610507565b8061389857508290049050613727565b600084868809600260036001881981018916988990049182028318808302840302808302840302808302840302808302840302808302840302918202909203026000889003889004909101858311909403939093029303949094049190911702949350505050565b600080600061390e84613487565b90925090506139266001600160a01b038516826132af565b905060008060009054906101000a90046001600160a01b03166001600160a01b031663b56cf0116040518163ffffffff1660e01b8152600401602060405180830381865afa15801561397c573d6000803e3d6000fd5b505050506040513d601f19601f820116820180604052508101906139a091906141e7565b905080831015613beb5760006139b684836143ba565b905060006139e16139d16139ca8787613712565b8490613712565b6001600160a01b03891690613bf3565b905060008054906101000a90046001600160a01b03166001600160a01b0316631694505e6040518163ffffffff1660e01b8152600401602060405180830381865afa158015613a34573d6000803e3d6000fd5b505050506040513d601f19601f82011682018060405250810190613a5891906141ad565b6001600160a01b031663e8e3370060008054906101000a90046001600160a01b03166001600160a01b0316634c4e61e96040518163ffffffff1660e01b8152600401602060405180830381865afa158015613ab7573d6000803e3d6000fd5b505050506040513d601f19601f82011682018060405250810190613adb91906141ad565b898585613afe600354670de0b6b3a7640000613af791906143ba565b899061374a565b613b32613b1a600354670de0b6b3a764000061257491906143ba565b8f6001600160a01b0316613bf390919063ffffffff16565b3060045442613b419190614195565b60405160e08a901b6001600160e01b03191681526001600160a01b039889166004820152968816602488015260448701959095526064860193909352608485019190915260a484015290921660c482015260e4810191909152610104016060604051808303816000875af1158015613bbd573d6000803e3d6000fd5b505050506040513d601f19601f82011682018060405250810190613be19190614462565b5050506001955050505b505050919050565b600080836001600160a01b031663313ce5676040518163ffffffff1660e01b8152600401602060405180830381865afa158015613c34573d6000803e3d6000fd5b505050506040513d601f19601f82011682018060405250810190613c5891906143d1565b613c639060126144b4565b613c6e90600a6145bb565b9050806001146133465761333e818461461c565b6040516001600160a01b038316602482015260448101829052613cb290849063a9059cbb60e01b9060640161325d565b505050565b6001600160a01b038116600090815260018301602052604081205415613cdf57506000612381565b508154600180820184556000848152602080822090930180546001600160a01b0319166001600160a01b03959095169485179055845493815293810190915260409092205590565b600180546001600160a01b0319166001600160a01b03831690811790915560405181907f564590b81987d147246f63910a8e1ee4eb09c4d64cc75ee975a8ffedfcc2210e90600090a350565b6040805180820190915260208082527f5361666545524332303a206c6f772d6c6576656c2063616c6c206661696c6564908201528290600090613dc2906001600160a01b038416908590613f0d565b8051909150156132a95780806020019051810190613de091906141ca565b6132a957604051639b8d506160e01b815260040160405180910390fd5b600081613e0c57506000919050565b506001817001000000000000000000000000000000008110613e335760409190911b9060801c5b680100000000000000008110613e4e5760209190911b9060401c5b6401000000008110613e655760109190911b9060201c5b620100008110613e7a5760089190911b9060101c5b6101008110613e8e5760049190911b9060081c5b60108110613ea15760029190911b9060041c5b60088110613eb157600182901b91505b60075b8015613ee6576001613ec6848661461c565b613ed09085614195565b901c925080613ede8161463e565b915050613eb4565b6000613ef2848661461c565b905080841015613f025783613f04565b805b95945050505050565b6060833b613f395760405163dc5dd7fd60e01b81526001600160a01b0385166004820152602401610507565b600080856001600160a01b031685604051613f549190614681565b6000604051808303816000865af19150503d8060008114613f91576040519150601f19603f3d011682016040523d82523d6000602084013e613f96565b606091505b5091509150613fa6828286613fb0565b9695505050505050565b60608315613fbf575081613727565b825115613fcf5782518060208501fd5b8160405162461bcd60e51b8152600401610507919061469d565b600060208284031215613ffb57600080fd5b5035919050565b6001600160a01b038116811461095557600080fd5b6000806040838503121561402a57600080fd5b823561403581614002565b946020939093013593505050565b60006020828403121561405557600080fd5b813561372781614002565b600081518084526020808501945080840160005b838110156140995781516001600160a01b031687529582019590820190600101614074565b509495945050505050565b6020815260006137276020830184614060565b801515811461095557600080fd5b600080600080608085870312156140db57600080fd5b84356140e681614002565b935060208501356140f681614002565b925060408501359150606085013561410d816140b7565b939692955090935050565b6000806040838503121561412b57600080fd5b823561413681614002565b9150602083013561414681614002565b809150509250929050565b6000806040838503121561416457600080fd5b823561416f81614002565b91506020830135614146816140b7565b634e487b7160e01b600052601160045260246000fd5b600082198211156141a8576141a861417f565b500190565b6000602082840312156141bf57600080fd5b815161372781614002565b6000602082840312156141dc57600080fd5b8151613727816140b7565b6000602082840312156141f957600080fd5b5051919050565b60008083128015600160ff1b85018412161561421e5761421e61417f565b837f7fffffffffffffffffffffffffffffffffffffffffffffffffffffffffffffff0183138116156142525761425261417f565b50500390565b634e487b7160e01b600052604160045260246000fd5b634e487b7160e01b600052603260045260246000fd5b85815284602082015260a0604082015260006142a360a0830186614060565b6001600160a01b0394909416606083015250608001529392505050565b600060208083850312156142d357600080fd5b825167ffffffffffffffff808211156142eb57600080fd5b818501915085601f8301126142ff57600080fd5b81518181111561431157614311614258565b8060051b604051601f19603f8301168101818110858211171561433657614336614258565b60405291825284820192508381018501918883111561435457600080fd5b938501935b8285101561437257845184529385019392850192614359565b98975050505050505050565b60006000198214156143925761439261417f565b5060010190565b8281526040602082015260006143b26040830184614060565b949350505050565b6000828210156143cc576143cc61417f565b500390565b6000602082840312156143e357600080fd5b815160ff8116811461372757600080fd5b80516dffffffffffffffffffffffffffff8116811461384057600080fd5b60008060006060848603121561442757600080fd5b614430846143f4565b925061443e602085016143f4565b9150604084015163ffffffff8116811461445757600080fd5b809150509250925092565b60008060006060848603121561447757600080fd5b8351925060208401519150604084015190509250925092565b600080604083850312156144a357600080fd5b505080516020909101519092909150565b600060ff821660ff8416808210156144ce576144ce61417f565b90039392505050565b600181815b808511156145125781600019048211156144f8576144f861417f565b8085161561450557918102915b93841c93908002906144dc565b509250929050565b60008261452957506001612381565b8161453657506000612381565b816001811461454c576002811461455657614572565b6001915050612381565b60ff8411156145675761456761417f565b50506001821b612381565b5060208310610133831016604e8410600b8410161715614595575081810a612381565b61459f83836144d7565b80600019048211156145b3576145b361417f565b029392505050565b600061372760ff84168361451a565b60008160001904831182151516156145e4576145e461417f565b500290565b634e487b7160e01b600052603160045260246000fd5b6000600160ff1b8214156146155761461561417f565b5060000390565b60008261463957634e487b7160e01b600052601260045260246000fd5b500490565b60008161464d5761464d61417f565b506000190190565b60005b83811015614670578181015183820152602001614658565b838111156132a95750506000910152565b60008251614693818460208701614655565b9190910192915050565b60208152600082518060208401526146bc816040850160208701614655565b601f01601f1916919091016040019291505056fea164736f6c634300080a000a",
  "devdoc": {
    "errors": {
      "ExchangeFundDepositableTokenAlreadyListed(address)": [
        {
          "details": "Thrown when trying to list depositable token that's already listed.",
          "params": {
            "token": "The address of the token contract."
          }
        }
      ],
      "ExchangeFundDepositableTokenNotListed(address)": [
        {
          "details": "Thrown when trying to unlist depositable token that's not listed.",
          "params": {
            "token": "The address of the token contract."
          }
        }
      ],
      "ExchangeFundDepositableTokenTooLargeDecimals(address,uint8)": [
        {
          "details": "Thrown when trying to list depositable token that has too large decimals.",
          "params": {
            "token": "The address of the token contract."
          }
        }
      ],
      "ExchangeFundDepositableTokenZeroDecimals(address)": [
        {
          "details": "Thrown when trying to list depositable token that has zero decimals.",
          "params": {
            "token": "The address of the token contract."
          }
        }
      ],
      "ExchangeFundNoNeedToService(address)": [
        {
          "details": "Thrown when there's no need to service the `token`/BAKS pair cause the difference between target and pair price does not exceed servicing threshold.",
          "params": {
            "token": "The address of the token contract."
          }
        }
      ],
      "ExchangeFundTokenNotAllowedToBeDeposited(address)": [
        {
          "details": "Thrown when interacting with a token that's not allowed to be deposited.",
          "params": {
            "token": "The address of the token contract."
          }
        }
      ],
      "ExchangeFundTokenNotAllowedToBeSalvaged(address)": [
        {
          "details": "Thrown when trying to salvage one of depositable tokens or BAKS.",
          "params": {
            "token": "The address of the token contract."
          }
        }
      ],
      "ExchangeFundTokenNotAllowedToBeSwapped(address)": [
        {
          "details": "Thrown when trying to swap token that's not allowed to be swapped.",
          "params": {
            "token": "The address of the token contract."
          }
        }
      ],
      "ExchangeFundTokenNotAllowedToBeWithdrawn(address)": [
        {
          "details": "Thrown when interacting with a token that's not allowed to be withdrawn.",
          "params": {
            "token": "The address of the token contract."
          }
        }
      ]
    },
    "kind": "dev",
    "methods": {},
    "version": 1
  },
  "userdoc": {
    "kind": "user",
    "methods": {},
    "version": 1
  },
  "storageLayout": {
    "storage": [
      {
        "astId": 4258,
        "contract": "contracts/ExchangeFund.sol:ExchangeFund",
        "label": "core",
        "offset": 0,
        "slot": "0",
        "type": "t_contract(ICore)3462"
      },
      {
        "astId": 7645,
        "contract": "contracts/ExchangeFund.sol:ExchangeFund",
        "label": "governor",
        "offset": 0,
        "slot": "1",
        "type": "t_address"
      },
      {
        "astId": 7647,
        "contract": "contracts/ExchangeFund.sol:ExchangeFund",
        "label": "pendingGovernor",
        "offset": 0,
        "slot": "2",
        "type": "t_address"
      },
      {
        "astId": 11482,
        "contract": "contracts/ExchangeFund.sol:ExchangeFund",
        "label": "initializing",
        "offset": 20,
        "slot": "2",
        "type": "t_bool"
      },
      {
        "astId": 11484,
        "contract": "contracts/ExchangeFund.sol:ExchangeFund",
        "label": "initialized",
        "offset": 21,
        "slot": "2",
        "type": "t_bool"
      },
      {
        "astId": 6009,
        "contract": "contracts/ExchangeFund.sol:ExchangeFund",
        "label": "slippageTolerance",
        "offset": 0,
        "slot": "3",
        "type": "t_uint256"
      },
      {
        "astId": 6011,
        "contract": "contracts/ExchangeFund.sol:ExchangeFund",
        "label": "swapDeadline",
        "offset": 0,
        "slot": "4",
        "type": "t_uint256"
      },
      {
        "astId": 6018,
        "contract": "contracts/ExchangeFund.sol:ExchangeFund",
        "label": "deposits",
        "offset": 0,
        "slot": "5",
        "type": "t_mapping(t_address,t_mapping(t_contract(IERC20)7883,t_uint256))"
      },
      {
        "astId": 6025,
        "contract": "contracts/ExchangeFund.sol:ExchangeFund",
        "label": "liquidity",
        "offset": 0,
        "slot": "6",
        "type": "t_mapping(t_address,t_mapping(t_contract(IERC20)7883,t_uint256))"
      },
      {
        "astId": 6030,
        "contract": "contracts/ExchangeFund.sol:ExchangeFund",
        "label": "depositableTokens",
        "offset": 0,
        "slot": "7",
        "type": "t_mapping(t_contract(IERC20)7883,t_bool)"
      },
      {
        "astId": 6033,
        "contract": "contracts/ExchangeFund.sol:ExchangeFund",
        "label": "depositableTokensSet",
        "offset": 0,
        "slot": "8",
        "type": "t_struct(Set)8821_storage"
      }
    ],
    "types": {
      "t_address": {
        "encoding": "inplace",
        "label": "address",
        "numberOfBytes": "20"
      },
      "t_array(t_address)dyn_storage": {
        "base": "t_address",
        "encoding": "dynamic_array",
        "label": "address[]",
        "numberOfBytes": "32"
      },
      "t_bool": {
        "encoding": "inplace",
        "label": "bool",
        "numberOfBytes": "1"
      },
      "t_contract(ICore)3462": {
        "encoding": "inplace",
        "label": "contract ICore",
        "numberOfBytes": "20"
      },
      "t_contract(IERC20)7883": {
        "encoding": "inplace",
        "label": "contract IERC20",
        "numberOfBytes": "20"
      },
      "t_mapping(t_address,t_mapping(t_contract(IERC20)7883,t_uint256))": {
        "encoding": "mapping",
        "key": "t_address",
        "label": "mapping(address => mapping(contract IERC20 => uint256))",
        "numberOfBytes": "32",
        "value": "t_mapping(t_contract(IERC20)7883,t_uint256)"
      },
      "t_mapping(t_address,t_uint256)": {
        "encoding": "mapping",
        "key": "t_address",
        "label": "mapping(address => uint256)",
        "numberOfBytes": "32",
        "value": "t_uint256"
      },
      "t_mapping(t_contract(IERC20)7883,t_bool)": {
        "encoding": "mapping",
        "key": "t_contract(IERC20)7883",
        "label": "mapping(contract IERC20 => bool)",
        "numberOfBytes": "32",
        "value": "t_bool"
      },
      "t_mapping(t_contract(IERC20)7883,t_uint256)": {
        "encoding": "mapping",
        "key": "t_contract(IERC20)7883",
        "label": "mapping(contract IERC20 => uint256)",
        "numberOfBytes": "32",
        "value": "t_uint256"
      },
      "t_struct(Set)8821_storage": {
        "encoding": "inplace",
        "label": "struct EnumerableAddressSet.Set",
        "members": [
          {
            "astId": 8816,
            "contract": "contracts/ExchangeFund.sol:ExchangeFund",
            "label": "elements",
            "offset": 0,
            "slot": "0",
            "type": "t_array(t_address)dyn_storage"
          },
          {
            "astId": 8820,
            "contract": "contracts/ExchangeFund.sol:ExchangeFund",
            "label": "indexes",
            "offset": 0,
            "slot": "1",
            "type": "t_mapping(t_address,t_uint256)"
          }
        ],
        "numberOfBytes": "64"
      },
      "t_uint256": {
        "encoding": "inplace",
        "label": "uint256",
        "numberOfBytes": "32"
      }
    }
  }
}