{
  "address": "0xa0FAA6b48ea73DCd1D4717782bAE389bD36C5F2C",
  "abi": [
    {
      "inputs": [
        {
          "internalType": "address",
          "name": "minter",
          "type": "address"
        }
      ],
      "stateMutability": "nonpayable",
      "type": "constructor"
    },
    {
      "inputs": [
        {
          "internalType": "address",
          "name": "spender",
          "type": "address"
        },
        {
          "internalType": "uint256",
          "name": "amount",
          "type": "uint256"
        }
      ],
      "name": "ApproveFromZeroAddress",
      "type": "error"
    },
    {
      "inputs": [
        {
          "internalType": "address",
          "name": "owner",
          "type": "address"
        },
        {
          "internalType": "uint256",
          "name": "amount",
          "type": "uint256"
        }
      ],
      "name": "ApproveToZeroAddress",
      "type": "error"
    },
    {
      "inputs": [
        {
          "internalType": "address",
          "name": "from",
          "type": "address"
        },
        {
          "internalType": "uint256",
          "name": "amount",
          "type": "uint256"
        },
        {
          "internalType": "uint256",
          "name": "balance",
          "type": "uint256"
        }
      ],
      "name": "BurnAmountExceedsBalance",
      "type": "error"
    },
    {
      "inputs": [
        {
          "internalType": "uint256",
          "name": "amount",
          "type": "uint256"
        }
      ],
      "name": "BurnFromZeroAddress",
      "type": "error"
    },
    {
      "inputs": [
        {
          "internalType": "address",
          "name": "owner",
          "type": "address"
        },
        {
          "internalType": "address",
          "name": "signer",
          "type": "address"
        }
      ],
      "name": "EIP2612InvalidSignature",
      "type": "error"
    },
    {
      "inputs": [
        {
          "internalType": "uint256",
          "name": "deadline",
          "type": "uint256"
        }
      ],
      "name": "EIP2612PermissionExpired",
      "type": "error"
    },
    {
      "inputs": [],
      "name": "GovernedCantGoverItself",
      "type": "error"
    },
    {
      "inputs": [],
      "name": "GovernedGovernorZeroAddress",
      "type": "error"
    },
    {
      "inputs": [],
      "name": "GovernedOnlyGovernorAllowedToCall",
      "type": "error"
    },
    {
      "inputs": [],
      "name": "GovernedOnlyPendingGovernorAllowedToCall",
      "type": "error"
    },
    {
      "inputs": [
        {
          "internalType": "uint256",
          "name": "amount",
          "type": "uint256"
        }
      ],
      "name": "MintToZeroAddress",
      "type": "error"
    },
    {
      "inputs": [],
      "name": "MinterZeroAddress",
      "type": "error"
    },
    {
      "inputs": [],
      "name": "OnlyMinterAllowed",
      "type": "error"
    },
    {
      "inputs": [
        {
          "internalType": "address",
          "name": "from",
          "type": "address"
        },
        {
          "internalType": "address",
          "name": "to",
          "type": "address"
        },
        {
          "internalType": "uint256",
          "name": "amount",
          "type": "uint256"
        },
        {
          "internalType": "uint256",
          "name": "allowance",
          "type": "uint256"
        }
      ],
      "name": "TransferAmountExceedsAllowance",
      "type": "error"
    },
    {
      "inputs": [
        {
          "internalType": "address",
          "name": "from",
          "type": "address"
        },
        {
          "internalType": "address",
          "name": "to",
          "type": "address"
        },
        {
          "internalType": "uint256",
          "name": "amount",
          "type": "uint256"
        },
        {
          "internalType": "uint256",
          "name": "balance",
          "type": "uint256"
        }
      ],
      "name": "TransferAmountExceedsBalance",
      "type": "error"
    },
    {
      "inputs": [
        {
          "internalType": "address",
          "name": "to",
          "type": "address"
        },
        {
          "internalType": "uint256",
          "name": "amount",
          "type": "uint256"
        }
      ],
      "name": "TransferFromZeroAddress",
      "type": "error"
    },
    {
      "inputs": [
        {
          "internalType": "address",
          "name": "from",
          "type": "address"
        },
        {
          "internalType": "uint256",
          "name": "amount",
          "type": "uint256"
        }
      ],
      "name": "TransferToZeroAddress",
      "type": "error"
    },
    {
      "anonymous": false,
      "inputs": [
        {
          "indexed": true,
          "internalType": "address",
          "name": "owner",
          "type": "address"
        },
        {
          "indexed": true,
          "internalType": "address",
          "name": "spender",
          "type": "address"
        },
        {
          "indexed": false,
          "internalType": "uint256",
          "name": "amount",
          "type": "uint256"
        }
      ],
      "name": "Approval",
      "type": "event"
    },
    {
      "anonymous": false,
      "inputs": [
        {
          "indexed": true,
          "internalType": "address",
          "name": "governor",
          "type": "address"
        },
        {
          "indexed": true,
          "internalType": "address",
          "name": "newGovernor",
          "type": "address"
        }
      ],
      "name": "GovernanceTransited",
      "type": "event"
    },
    {
      "anonymous": false,
      "inputs": [
        {
          "indexed": true,
          "internalType": "address",
          "name": "minter",
          "type": "address"
        },
        {
          "indexed": true,
          "internalType": "address",
          "name": "newMinter",
          "type": "address"
        }
      ],
      "name": "MinterChanged",
      "type": "event"
    },
    {
      "anonymous": false,
      "inputs": [
        {
          "indexed": true,
          "internalType": "address",
          "name": "governor",
          "type": "address"
        },
        {
          "indexed": true,
          "internalType": "address",
          "name": "newGovernor",
          "type": "address"
        }
      ],
      "name": "PendingGovernanceTransition",
      "type": "event"
    },
    {
      "anonymous": false,
      "inputs": [
        {
          "indexed": true,
          "internalType": "address",
          "name": "from",
          "type": "address"
        },
        {
          "indexed": true,
          "internalType": "address",
          "name": "to",
          "type": "address"
        },
        {
          "indexed": false,
          "internalType": "uint256",
          "name": "amount",
          "type": "uint256"
        }
      ],
      "name": "Transfer",
      "type": "event"
    },
    {
      "inputs": [],
      "name": "DOMAIN_SEPARATOR",
      "outputs": [
        {
          "internalType": "bytes32",
          "name": "",
          "type": "bytes32"
        }
      ],
      "stateMutability": "view",
      "type": "function"
    },
    {
      "inputs": [],
      "name": "acceptGovernance",
      "outputs": [],
      "stateMutability": "nonpayable",
      "type": "function"
    },
    {
      "inputs": [
        {
          "internalType": "address",
          "name": "",
          "type": "address"
        },
        {
          "internalType": "address",
          "name": "",
          "type": "address"
        }
      ],
      "name": "allowance",
      "outputs": [
        {
          "internalType": "uint256",
          "name": "",
          "type": "uint256"
        }
      ],
      "stateMutability": "view",
      "type": "function"
    },
    {
      "inputs": [
        {
          "internalType": "address",
          "name": "spender",
          "type": "address"
        },
        {
          "internalType": "uint256",
          "name": "amount",
          "type": "uint256"
        }
      ],
      "name": "approve",
      "outputs": [
        {
          "internalType": "bool",
          "name": "",
          "type": "bool"
        }
      ],
      "stateMutability": "nonpayable",
      "type": "function"
    },
    {
      "inputs": [
        {
          "internalType": "address",
          "name": "",
          "type": "address"
        }
      ],
      "name": "balanceOf",
      "outputs": [
        {
          "internalType": "uint256",
          "name": "",
          "type": "uint256"
        }
      ],
      "stateMutability": "view",
      "type": "function"
    },
    {
      "inputs": [
        {
          "internalType": "address",
          "name": "from",
          "type": "address"
        },
        {
          "internalType": "uint256",
          "name": "amount",
          "type": "uint256"
        }
      ],
      "name": "burn",
      "outputs": [],
      "stateMutability": "nonpayable",
      "type": "function"
    },
    {
      "inputs": [],
      "name": "decimals",
      "outputs": [
        {
          "internalType": "uint8",
          "name": "",
          "type": "uint8"
        }
      ],
      "stateMutability": "view",
      "type": "function"
    },
    {
      "inputs": [],
      "name": "governor",
      "outputs": [
        {
          "internalType": "address",
          "name": "",
          "type": "address"
        }
      ],
      "stateMutability": "view",
      "type": "function"
    },
    {
      "inputs": [
        {
          "internalType": "address",
          "name": "to",
          "type": "address"
        },
        {
          "internalType": "uint256",
          "name": "amount",
          "type": "uint256"
        }
      ],
      "name": "mint",
      "outputs": [],
      "stateMutability": "nonpayable",
      "type": "function"
    },
    {
      "inputs": [],
      "name": "minter",
      "outputs": [
        {
          "internalType": "address",
          "name": "",
          "type": "address"
        }
      ],
      "stateMutability": "view",
      "type": "function"
    },
    {
      "inputs": [],
      "name": "name",
      "outputs": [
        {
          "internalType": "string",
          "name": "",
          "type": "string"
        }
      ],
      "stateMutability": "view",
      "type": "function"
    },
    {
      "inputs": [
        {
          "internalType": "address",
          "name": "",
          "type": "address"
        }
      ],
      "name": "nonces",
      "outputs": [
        {
          "internalType": "uint256",
          "name": "",
          "type": "uint256"
        }
      ],
      "stateMutability": "view",
      "type": "function"
    },
    {
      "inputs": [],
      "name": "pendingGovernor",
      "outputs": [
        {
          "internalType": "address",
          "name": "",
          "type": "address"
        }
      ],
      "stateMutability": "view",
      "type": "function"
    },
    {
      "inputs": [
        {
          "internalType": "address",
          "name": "owner",
          "type": "address"
        },
        {
          "internalType": "address",
          "name": "spender",
          "type": "address"
        },
        {
          "internalType": "uint256",
          "name": "amount",
          "type": "uint256"
        },
        {
          "internalType": "uint256",
          "name": "deadline",
          "type": "uint256"
        },
        {
          "internalType": "uint8",
          "name": "v",
          "type": "uint8"
        },
        {
          "internalType": "bytes32",
          "name": "r",
          "type": "bytes32"
        },
        {
          "internalType": "bytes32",
          "name": "s",
          "type": "bytes32"
        }
      ],
      "name": "permit",
      "outputs": [],
      "stateMutability": "nonpayable",
      "type": "function"
    },
    {
      "inputs": [
        {
          "internalType": "address",
          "name": "newMinter",
          "type": "address"
        }
      ],
      "name": "setMinter",
      "outputs": [],
      "stateMutability": "nonpayable",
      "type": "function"
    },
    {
      "inputs": [],
      "name": "symbol",
      "outputs": [
        {
          "internalType": "string",
          "name": "",
          "type": "string"
        }
      ],
      "stateMutability": "view",
      "type": "function"
    },
    {
      "inputs": [],
      "name": "totalSupply",
      "outputs": [
        {
          "internalType": "uint256",
          "name": "",
          "type": "uint256"
        }
      ],
      "stateMutability": "view",
      "type": "function"
    },
    {
      "inputs": [
        {
          "internalType": "address",
          "name": "to",
          "type": "address"
        },
        {
          "internalType": "uint256",
          "name": "amount",
          "type": "uint256"
        }
      ],
      "name": "transfer",
      "outputs": [
        {
          "internalType": "bool",
          "name": "",
          "type": "bool"
        }
      ],
      "stateMutability": "nonpayable",
      "type": "function"
    },
    {
      "inputs": [
        {
          "internalType": "address",
          "name": "from",
          "type": "address"
        },
        {
          "internalType": "address",
          "name": "to",
          "type": "address"
        },
        {
          "internalType": "uint256",
          "name": "amount",
          "type": "uint256"
        }
      ],
      "name": "transferFrom",
      "outputs": [
        {
          "internalType": "bool",
          "name": "",
          "type": "bool"
        }
      ],
      "stateMutability": "nonpayable",
      "type": "function"
    },
    {
      "inputs": [
        {
          "internalType": "address",
          "name": "newGovernor",
          "type": "address"
        },
        {
          "internalType": "bool",
          "name": "force",
          "type": "bool"
        }
      ],
      "name": "transitGovernance",
      "outputs": [],
      "stateMutability": "nonpayable",
      "type": "function"
    },
    {
      "inputs": [],
      "name": "version",
      "outputs": [
        {
          "internalType": "string",
          "name": "",
          "type": "string"
        }
      ],
      "stateMutability": "view",
      "type": "function"
    }
  ],
  "transactionHash": "0xde2def2bb51d5c30ce513d843a89bc69c047a291475947c56e7c4a4c1d208c6b",
  "args": [
    "0x92a8c5432AE4b20EAEdc2F4b7634789378DA86d6"
  ],
  "solcInputHash": "cbb0e8df0a1423b680927d4c7cdfda5a",
  "bytecode": "0x60806040523480156200001157600080fd5b5060405162001368380380620013688339810160408190526200003491620002c5565b6040518060400160405280600d81526020016c42616b7344414f20566f69636560981b8152506040518060400160405280600381526020016221222b60e91b8152506012836200008a33620001d460201b60201c565b6001600160a01b038116620000b257604051638cc5de0560e01b815260040160405180910390fd5b600680546001600160a01b0319166001600160a01b0383161790558351620000e29060029060208701906200021f565b508251620000f89060039060208601906200021f565b506004805460ff191660ff8416179055604080518082019091526001808252603160f81b602090920191825262000132916005916200021f565b507f8b73c3c69bb8fe3d512ecc4cf759cc79239f7b179b0ffacaa9a75d522b39400f600260405162000165919062000334565b604051809103902060056040516200017e919062000334565b60408051918290038220602083019490945281019190915260608101919091524660808201523060a082015260c00160405160208183030381529060405280519060200120600a819055505050505050620003d8565b600080546001600160a01b0319166001600160a01b0383169081178255604051909182917f564590b81987d147246f63910a8e1ee4eb09c4d64cc75ee975a8ffedfcc2210e9190a350565b8280546200022d90620002f7565b90600052602060002090601f0160209004810192826200025157600085556200029c565b82601f106200026c57805160ff19168380011785556200029c565b828001600101855582156200029c579182015b828111156200029c5782518255916020019190600101906200027f565b50620002aa929150620002ae565b5090565b5b80821115620002aa5760008155600101620002af565b600060208284031215620002d857600080fd5b81516001600160a01b0381168114620002f057600080fd5b9392505050565b600181811c908216806200030c57607f821691505b602082108114156200032e57634e487b7160e01b600052602260045260246000fd5b50919050565b600080835481600182811c9150808316806200035157607f831692505b60208084108214156200037257634e487b7160e01b86526022600452602486fd5b8180156200038957600181146200039b57620003ca565b60ff19861689528489019650620003ca565b60008a81526020902060005b86811015620003c25781548b820152908501908301620003a7565b505084890196505b509498975050505050505050565b610f8080620003e86000396000f3fe608060405234801561001057600080fd5b50600436106101775760003560e01c806354fd4d50116100d8578063a9059cbb1161008c578063ddc1252611610066578063ddc125261461031e578063e3056a3414610331578063fca3b5aa1461034457600080fd5b8063a9059cbb146102cd578063d505accf146102e0578063dd62ed3e146102f357600080fd5b80637ecebe00116100bd5780637ecebe001461029257806395d89b41146102b25780639dc29fac146102ba57600080fd5b806354fd4d501461026a57806370a082311461027257600080fd5b8063238efcbc1161012f578063313ce56711610114578063313ce5671461022f5780633644e5151461024e57806340c10f191461025757600080fd5b8063238efcbc1461021257806323b872dd1461021c57600080fd5b8063095ea7b311610160578063095ea7b3146101c55780630c340a24146101e857806318160ddd146101fb57600080fd5b806306fdde031461017c578063075461721461019a575b600080fd5b610184610357565b6040516101919190610cfd565b60405180910390f35b6006546101ad906001600160a01b031681565b6040516001600160a01b039091168152602001610191565b6101d86101d3366004610d6e565b6103e5565b6040519015158152602001610191565b6000546101ad906001600160a01b031681565b61020460075481565b604051908152602001610191565b61021a6103fb565b005b6101d861022a366004610d98565b610471565b60045461023c9060ff1681565b60405160ff9091168152602001610191565b610204600a5481565b61021a610265366004610d6e565b610505565b61018461053e565b610204610280366004610dd4565b60086020526000908152604090205481565b6102046102a0366004610dd4565b600b6020526000908152604090205481565b61018461054b565b61021a6102c8366004610d6e565b610558565b6101d86102db366004610d6e565b61058d565b61021a6102ee366004610df6565b61059a565b610204610301366004610e69565b600960209081526000928352604080842090915290825290205481565b61021a61032c366004610e9c565b61075c565b6001546101ad906001600160a01b031681565b61021a610352366004610dd4565b61083e565b6002805461036490610ed8565b80601f016020809104026020016040519081016040528092919081815260200182805461039090610ed8565b80156103dd5780601f106103b2576101008083540402835291602001916103dd565b820191906000526020600020905b8154815290600101906020018083116103c057829003601f168201915b505050505081565b60006103f23384846108dc565b50600192915050565b6001546001600160a01b031633146104265760405163aec80d4b60e01b815260040160405180910390fd5b600154600080546001600160a01b0319166001600160a01b03909216918217815560405182917f564590b81987d147246f63910a8e1ee4eb09c4d64cc75ee975a8ffedfcc2210e91a3565b60006001600160a01b03841633146104f0576001600160a01b0384166000908152600960209081526040808320338452909152902054828110156104ee5760405163be2e2e2160e01b81526001600160a01b0380871660048301528516602482015260448101849052606481018290526084015b60405180910390fd5b505b6104fb8484846109b0565b5060019392505050565b6006546001600160a01b031633146105305760405163404a0f8760e11b815260040160405180910390fd5b61053a8282610b0e565b5050565b6005805461036490610ed8565b6003805461036490610ed8565b6006546001600160a01b031633146105835760405163404a0f8760e11b815260040160405180910390fd5b61053a8282610bc3565b60006103f23384846109b0565b428410156105be5760405163282fb55560e21b8152600481018590526024016104e5565b600a546001600160a01b0388166000908152600b6020526040812080549192917ffc77c2b9d30fe91687fd39abb7d16fcdfe1472d065740051ab8b13e4bf4a617f918b918b918b91908761061183610f29565b909155506040805160208101969096526001600160a01b0394851690860152929091166060840152608083015260a082015260c0810187905260e0016040516020818303038152906040528051906020012060405160200161068a92919061190160f01b81526002810192909252602282015260420190565b60408051601f198184030181528282528051602091820120600080855291840180845281905260ff88169284019290925260608301869052608083018590529092509060019060a0016020604051602081039080840390855afa1580156106f5573d6000803e3d6000fd5b505050602060405103519050886001600160a01b0316816001600160a01b0316146107465760405163a94a4aad60e01b81526001600160a01b03808b166004830152821660248201526044016104e5565b6107518989896108dc565b505050505050505050565b6000546001600160a01b03163314610787576040516305e7700560e51b815260040160405180910390fd5b6001600160a01b0382166107ae5760405163604b48b960e11b815260040160405180910390fd5b6001600160a01b0382163014156107d8576040516306b3e95d60e21b815260040160405180910390fd5b600180546001600160a01b0319166001600160a01b0384161790558061083557600080546040516001600160a01b03808616939216917fc606c9af1451cadeb333f6ff7b24a5540974f4e800bac274fa7fff9edc305cb191a35050565b61053a82610cb2565b6000546001600160a01b03163314610869576040516305e7700560e51b815260040160405180910390fd5b6001600160a01b03811661089057604051638cc5de0560e01b815260040160405180910390fd5b600680546001600160a01b0319166001600160a01b03831690811790915560405181907f3b0007eb941cf645526cbb3a4fdaecda9d28ce4843167d9263b536a1f1edc0f690600090a350565b6001600160a01b0383166109155760405163da64efb160e01b81526001600160a01b0383166004820152602481018290526044016104e5565b6001600160a01b03821661094e5760405163c97cb7a160e01b81526001600160a01b0384166004820152602481018290526044016104e5565b6001600160a01b0383811660008181526009602090815260408083209487168084529482529182902085905590518481527f8c5be1e5ebec7d5bd14f71427d1e84f3dd0314c0f7b2291e5b200ac8c7c3b92591015b60405180910390a3505050565b6001600160a01b0383166109e95760405163cd09812f60e01b81526001600160a01b0383166004820152602481018290526044016104e5565b6001600160a01b038216610a2257604051636eb47bab60e11b81526001600160a01b0384166004820152602481018290526044016104e5565b6001600160a01b03831660009081526008602052604090205481811015610a7d57604051630c38c5f960e41b81526001600160a01b0380861660048301528416602482015260448101839052606481018290526084016104e5565b6001600160a01b03808516600090815260086020526040808220858503905591851681529081208054849290610ab4908490610f44565b92505081905550826001600160a01b0316846001600160a01b03167fddf252ad1be2c89b69c2b068fc378daa952ba7f163c4a11628f55a4df523b3ef84604051610b0091815260200190565b60405180910390a350505050565b6001600160a01b038216610b385760405163070bae6960e51b8152600481018290526024016104e5565b6001600160a01b03821660009081526008602052604081208054839290610b60908490610f44565b925050819055508060076000828254610b799190610f44565b90915550506040518181526001600160a01b038316906000907fddf252ad1be2c89b69c2b068fc378daa952ba7f163c4a11628f55a4df523b3ef9060200160405180910390a35050565b6001600160a01b038216610bed5760405163131259b960e21b8152600481018290526024016104e5565b6001600160a01b03821660009081526008602052604090205481811015610c4057604051630246530960e61b81526001600160a01b038416600482015260248101839052604481018290526064016104e5565b6001600160a01b0383166000908152600860205260408120838303905560078054849290610c6f908490610f5c565b90915550506040518281526000906001600160a01b038516907fddf252ad1be2c89b69c2b068fc378daa952ba7f163c4a11628f55a4df523b3ef906020016109a3565b600080546001600160a01b0319166001600160a01b0383169081178255604051909182917f564590b81987d147246f63910a8e1ee4eb09c4d64cc75ee975a8ffedfcc2210e9190a350565b600060208083528351808285015260005b81811015610d2a57858101830151858201604001528201610d0e565b81811115610d3c576000604083870101525b50601f01601f1916929092016040019392505050565b80356001600160a01b0381168114610d6957600080fd5b919050565b60008060408385031215610d8157600080fd5b610d8a83610d52565b946020939093013593505050565b600080600060608486031215610dad57600080fd5b610db684610d52565b9250610dc460208501610d52565b9150604084013590509250925092565b600060208284031215610de657600080fd5b610def82610d52565b9392505050565b600080600080600080600060e0888a031215610e1157600080fd5b610e1a88610d52565b9650610e2860208901610d52565b95506040880135945060608801359350608088013560ff81168114610e4c57600080fd5b9699959850939692959460a0840135945060c09093013592915050565b60008060408385031215610e7c57600080fd5b610e8583610d52565b9150610e9360208401610d52565b90509250929050565b60008060408385031215610eaf57600080fd5b610eb883610d52565b915060208301358015158114610ecd57600080fd5b809150509250929050565b600181811c90821680610eec57607f821691505b60208210811415610f0d57634e487b7160e01b600052602260045260246000fd5b50919050565b634e487b7160e01b600052601160045260246000fd5b6000600019821415610f3d57610f3d610f13565b5060010190565b60008219821115610f5757610f57610f13565b500190565b600082821015610f6e57610f6e610f13565b50039056fea164736f6c634300080a000a",
  "devdoc": {
    "kind": "dev",
    "methods": {},
    "version": 1
  },
  "userdoc": {
    "kind": "user",
    "methods": {},
    "version": 1
  },
  "storageLayout": {
    "storage": [
      {
        "astId": 7074,
        "contract": "contracts/Voice.sol:Voice",
        "label": "governor",
        "offset": 0,
        "slot": "0",
        "type": "t_address"
      },
      {
        "astId": 7076,
        "contract": "contracts/Voice.sol:Voice",
        "label": "pendingGovernor",
        "offset": 0,
        "slot": "1",
        "type": "t_address"
      },
      {
        "astId": 2035,
        "contract": "contracts/Voice.sol:Voice",
        "label": "name",
        "offset": 0,
        "slot": "2",
        "type": "t_string_storage"
      },
      {
        "astId": 2038,
        "contract": "contracts/Voice.sol:Voice",
        "label": "symbol",
        "offset": 0,
        "slot": "3",
        "type": "t_string_storage"
      },
      {
        "astId": 2041,
        "contract": "contracts/Voice.sol:Voice",
        "label": "decimals",
        "offset": 0,
        "slot": "4",
        "type": "t_uint8"
      },
      {
        "astId": 2043,
        "contract": "contracts/Voice.sol:Voice",
        "label": "version",
        "offset": 0,
        "slot": "5",
        "type": "t_string_storage"
      },
      {
        "astId": 2045,
        "contract": "contracts/Voice.sol:Voice",
        "label": "minter",
        "offset": 0,
        "slot": "6",
        "type": "t_address"
      },
      {
        "astId": 2048,
        "contract": "contracts/Voice.sol:Voice",
        "label": "totalSupply",
        "offset": 0,
        "slot": "7",
        "type": "t_uint256"
      },
      {
        "astId": 2053,
        "contract": "contracts/Voice.sol:Voice",
        "label": "balanceOf",
        "offset": 0,
        "slot": "8",
        "type": "t_mapping(t_address,t_uint256)"
      },
      {
        "astId": 2060,
        "contract": "contracts/Voice.sol:Voice",
        "label": "allowance",
        "offset": 0,
        "slot": "9",
        "type": "t_mapping(t_address,t_mapping(t_address,t_uint256))"
      },
      {
        "astId": 2063,
        "contract": "contracts/Voice.sol:Voice",
        "label": "DOMAIN_SEPARATOR",
        "offset": 0,
        "slot": "10",
        "type": "t_bytes32"
      },
      {
        "astId": 2068,
        "contract": "contracts/Voice.sol:Voice",
        "label": "nonces",
        "offset": 0,
        "slot": "11",
        "type": "t_mapping(t_address,t_uint256)"
      }
    ],
    "types": {
      "t_address": {
        "encoding": "inplace",
        "label": "address",
        "numberOfBytes": "20"
      },
      "t_bytes32": {
        "encoding": "inplace",
        "label": "bytes32",
        "numberOfBytes": "32"
      },
      "t_mapping(t_address,t_mapping(t_address,t_uint256))": {
        "encoding": "mapping",
        "key": "t_address",
        "label": "mapping(address => mapping(address => uint256))",
        "numberOfBytes": "32",
        "value": "t_mapping(t_address,t_uint256)"
      },
      "t_mapping(t_address,t_uint256)": {
        "encoding": "mapping",
        "key": "t_address",
        "label": "mapping(address => uint256)",
        "numberOfBytes": "32",
        "value": "t_uint256"
      },
      "t_string_storage": {
        "encoding": "bytes",
        "label": "string",
        "numberOfBytes": "32"
      },
      "t_uint256": {
        "encoding": "inplace",
        "label": "uint256",
        "numberOfBytes": "32"
      },
      "t_uint8": {
        "encoding": "inplace",
        "label": "uint8",
        "numberOfBytes": "1"
      }
    }
  }
}